:020000040000FA
:06000000020F4402059608
:03002B00020C1BA9
:030053000204CADA
:1000830002052A01FF01010503010F10FEFF292FBD
:10009300000000009B2D00000000FF000000FF0097
:1000A300010000701B000000000000421C00000063
:1000B300000000521B0000000000000000000000D0
:1000C30000000000000000000000000000FFFF012E
:1000D300010100C2050000008813FFFF39068813E1
:1000E30064006400B801020200080000050207046E
:1000F30001051E02051E020A0A0103B80B02803E17
:100103000102FEFFE8030A050001FFFF010A1401D3
:10011300E00020FD000206FF011C0E00000001723A
:100123002878280000000000007E288428000000B2
:1001330000000000000000000000000000000010AC
:1001430020202020202020202020202020202020AC
:100153000101000000010401510000043B8001FE85
:1001630080120F54700418181822120F63700D7444
:10017300FFF61819F61819F61819F622E7548066CF
:10018300F6120FFA700F120FF170F014F608F6085A
:10019300F608F680D1120FF1700CF608F608768097
:1001A30008E6447F80EC120DFA700C120E2260BF39
:1001B300E65480F6E480BB120E22700519191980EB
:1001C300A5E869700C763F18768018F618F6E8F9FA
:1001D30022E6CDC0E018ECC0E0E633CD33CDD31337
:1001E300F6E719FCE7191933CC33C3947F400ECDDE
:1001F3009D502408E65480F6E418F6800FF4043D7D
:1002030014501408E6447FF6187680E418F618F6BE
:10021300D0E0FCD0E0FD22CCD313CCFD18E4C6CB58
:10022300C0E018E4C6CAC0E00808ED08C633E61308
:10023300F618E433C675F003C3CA97CA09CB97CB44
:10024300199C40047D08802EBD000302030D16B6E1
:10025300FF050606081618C3CA33CACB33CB33CA05
:1002630027CA09CB37CB193CC37D08803E187D08CC
:1002730020E75CC633C6CA33CACB33CB33DDF1D5F3
:10028300F0EB30E77BCA97CA09CB974ACB199C405E
:100293006F4B7025E620E0218066187D08C3CA975E
:1002A300CA09CB97CB199CD3C633C6CA33CACB333F
:1002B300CB3350C9DDE7D5F0E1D3E4C636C608C673
:1002C30036C608C636C608C636C61818188031C3DF
:1002D300CA97CA09CB97CB199CB34097C633C6CAF2
:1002E30033CACB33CB33DD34D5F02EC6A2E0C640C0
:1002F300C8CA27CA09CB37194A70BECB3CB480B9E8
:100303000808E63308E633601F181818D0E0FAD05F
:10031300E0FBD0E0FCD0E0FD22187D08CA27CA0923
:10032300CB37CB193CD3808013F618E4B67F11F694
:1003330018B6FF0EF618C60470D20808768080CA75
:10034300F618F618F680C500120F54604F120F63AB
:100353006012E7548066F6120E1F7011120FF170CF
:100363003B090909F4F618F618F618F622120DF7E8
:100373007015120FFA08080860EAE6447FF618764B
:100383008018E4F618F622120FFA6016120FF170B5
:1003930012E4F608F608F608E65480F60909091887
:1003A300181822EAC0E0EBC0E0ECC0E0EDC0E0E6E4
:1003B30087F0A4FBACF008E687F0A42CFCE435F04E
:1003C300FA1809E687F0A42C4B60027401CA35F0D1
:1003D300FCE433FB09E687F0D2F7A42CCB35F0FC21
:1003E3001908E687F0A42BCC35F0FBE433FD08199C
:1003F300E687F0D2E7A42C4ACB35F0CD3400FC09D4
:10040300E687F0D2E7A42DCC35F0FDE433FA0918E2
:10041300E687F0D2F7A42CCD35F0CA3400FC08E609
:1004230087F0D2E7D2F7A42ACC35F07A7E20E70B07
:100433000ACB33CBCD33CDCC33CC33CB3350147049
:1004430004ED30E00ED2F1E4CD3DCDCC3CCC3B50BD
:1004530005DA05C2F1EB547FC63308E63392F0FBAD
:10046300E73309E733C39A502D2B70190C0D4C4D0C
:1004730070151806E608C333700D20F10AA2F013B5
:10048300F6E418800B4024E4F630F002768018F688
:1004930018F618F68024D33B14501074FFA2F013FF
:1004A300F6187680E418F618F6800FA2F013F61803
:1004B300E63303F618ECF618EDF6D0E0FDD0E0FCD9
:1004C300D0E0FBD0E0FA22C0E074F112083CA2AF06
:1004D300E433FED2AFE5A7FFE5A1F5085FF50974A4
:1004E30010550960061223B675A1EF74085509600B
:1004F300081223BC75A1F78024E508A2E092F0EF6F
:10050300A2E082F05017906198E0F8900784E0C36E
:1005130098A2D265D0335002E8F075A1FEEEA2E0B6
:1005230092AF7F020208F8C0E074F212083CA2AF57
:10053300E433FED2AF9061A4E0F8759B00E59158D7
:10054300540860087591F71224048023E5915854E8
:100553001060087591EF12240A8014E591A2E092CD
:10056300F0E8A2E082F05007E0C2E0F012255490D8
:1005730061A3E0F8E5E9585404600E12252A75E9F1
:10058300FB906193E0A2E640F2EEA2E092AF7F011E
:100593000208F8C0E074F212083CA2AFE433FED2C2
:1005A300AF9061A5E0F8E5BF585404600675BFFB42
:1005B30012256C80D4C3E498F8E499F91205F98004
:1005C30026C3E49AFAE49BFBE920E7E91205F9E480
:1005D30098F8E499F922C3E498F8E499F91205F933
:1005E300E498F8E499F9C3E49AFAE49BFB22EB203C
:1005F300E7CFE920E7E0B90010BB0008E88AF08400
:10060300F8AAF022E4FBC8FA22EB70227B10C8336D
:10061300C8C933C9335007C39AC3DBF280069A5063
:10062300012ADBEAC833F4C8C933F4C9FA2275F0E6
:1006330008E4C833C8C933C933C99AC99B5004C92C
:100643002AC93BD5F0ECFBC833F4C8E4C9FA22123B
:10065300069220F01430E72B74FFFCFBFA747F80C2
:1006630022E4FCFBFA7480801AB48008BC00F2BB5D
:1006730000EF800F50EBF9E4C39AFAE49BFBE49C90
:10068300FCE499C6CC18C6CB18C6CA18C6F922E42E
:10069300C9C608CAC608CBC6D3330308CCC633922F
:1006A300F0C3947F402E94184019C9B90704CACBEC
:1006B300CC225025C309CA33CACB33CBCC33CC337A
:1006C300D9F422F4600DC9CCC313CB13CBCA13CA1C
:1006D300D9F6CC22E4FCFBFA2214FCFBFA2208082C
:1006E30008EAC0E0EBC0E086F0E7A4FA180986F058
:1006F300E7A42AFA180986F0E7A42AFA180986F06B
:10070300E7A42AFA1986F0E7A4FBE5F02AFA190808
:1007130086F0E7A42BFBE5F03AFA190886F0E7A484
:100723002BFBE5F03AFA18180986F0E7A4C5F02B7D
:10073300FBE43AFA1908E7C5F0C6A426F6E5F03B50
:10074300FBE43AFA1886F0E7A4F6E5F00826F6E4A7
:100753003B08F6E43A08F6D0E0FBD0E0FA22E4CF17
:10076300C0E0E4CEC0E0E4CDC0E0E4CCC0E075F08E
:1007730020E626F608E633F608E633F608E633F60F
:10078300181818EC33FCED33FDEE33FEEF33FFC3E3
:10079300EC9709ED9709EE9709EF97191919400F8F
:1007A300FFEC97FC09ED97FD09EE97FE191906D5A5
:1007B300F0BFECF709EDF709EEF709EFF71919198F
:1007C300D0E0FCD0E0FDD0E0FED0E0FF222518C54C
:1007D30082C0E0E51934FFC583C0E0E518C3958204
:1007E30024F810AF0885831985821880088583193A
:1007F300858218D2AFCEF0A3E520F0A37808E608EF
:10080300F0A3DEFAEFF0A3E58124FAF8E608F0A3FB
:10081300E608F0A3E608F0A30808E608F0A3E60854
:10082300F0A315811581D0E0FED0E0F81581158184
:100833001581E8C0E0EEC0E022C0D02518C582C013
:10084300E0E51934FFC583C0E0E518C3958224F3BE
:1008530010AF0885831985821880088583198582DE
:1008630018D2AFC8F0A3E9F0A3EAF0A3EBF0A379A1
:1008730008E709F0A3D8FAECF0A3EDF0A3EEF0A398
:10088300EFF0A3D0E0F0A3D0E0F0A3D0E0F0A3E535
:1008930020F0A3E5F0F0A322E9799EC608CAC608B2
:1008A300CBC608CCC6C370207996CACBCC70197955
:1008B3008ECBCC70137986CC700EF9802ACA33CADA
:1008C300CB33CBCC33CC331930E7F2CCCBCA335058
:1008D300147004EA30E00DE4CA3ACACB3BCBCC3CFB
:1008E300CC500209C3E913C6CC182313C6CB18C6D0
:1008F300CA18C6F922851983851882E0C0E0A3E0EF
:10090300F9A3E0FAA3E0FBA37808E0F608A3DFFA73
:10091300E0FCA3E0FDA3E0FEA3E0FFA3E0C0E0A3AF
:10092300E0C0E0A3E0F5D0A3E0F520A3E0A3F5F059
:1009330010AF0885831985821880088583198582FD
:1009430018D2AFD082D083D0E0F8D0E032120FDCDF
:10095300B9000302098FE4900301783B790C80020C
:10096300F0A3D8FCD9FA7A3B7B0E90008678DF7926
:10097300018015E493A3AD82AE838A828B83F0A3B7
:10098300AA82AB838D828E83D8E9D9E775827D7580
:1009930083C77405120CBA7582C475832A74001256
:1009A3000CBAE4730A75F0108E1A8F1B85821F85AB
:1009B300831E851882851983E0CEA3E0CF851F822D
:1009C300851E83EBC9EAC8EDCBECCAC3E833C8E99B
:1009D30033C9EA33CAEB33CBC3EA9EF51DEB9FF56C
:1009E3001CB35004AB1CAA1DEC33CCED33CDD5F0B6
:1009F300DAAE1AAF1B22D083D082ECC0E0EDC0E0A8
:100A0300E493A3FCE493A3FDED4C600D120AD1EC37
:100A130024FFFCED34FFFD80EFE493A3FCE493A3F8
:100A2300FDED4C600D120BA4EC24FFFCED34FFFD37
:100A330080EFD0E0FDD0E0FCE493A3C0E0E493C0FA
:100A4300E022D083D082E9C0E0E493A3C386F0C55B
:100A5300F095F0F908E493A386F0C5F095F0700BD8
:100A6300E493A3C3994005E9048002A3E475F0026B
:100A7300A42582F582E5F03583F583D0E0F9E4938C
:100A8300A3C0E0E493C0E022851983851882E0A324
:100A9300FEE0A3F5207808E0A3F608DFFAE0A3FF61
:100AA300E0A3C0E0E0A3C0E0E0A3C0E0E0A3C0E0B7
:100AB300E0A3C0E010AF08858218858319800885FC
:100AC3008218858319D2AFD083D082020CC0C0E0D4
:100AD300C3E49396087401939618400FE4936670E9
:100AE3000808740193661870007019A3A3C3E493F4
:100AF30096087401939618A3A3400DD0E0D0E0D0DC
:100B0300E0020A35A3A3A3A3A3A3D0E022D083D0FA
:100B130082C5F0E493A3C5F0C395F0F5F0E493A385
:100B2300C395F04005E5F0048001E475F002A425C7
:100B330082F582E5F03583F583E493A3C0E0E49383
:100B4300C0E0227404800474028000CCC0E0EDC0D5
:100B5300E0E518C39CCCAD1950011D10AF068C18ED
:100B63008D1980068C188D19D2AF120C3CD0E0FD84
:100B7300D0E0FC2274028000CCC0E0EDC0E0E518B8
:100B8300C39CCCAD1950011D10AF068C188D198074
:100B9300068C188D19D2AF120BF9D0E0FDD0E0FC12
:100BA30022C0E0C0F088F0E49366700808740193F3
:100BB30066187000A8F0A3A3700BD0F0D0E0D0E0CB
:100BC300D0E0020A35A3A3D0F0D0E022D083D082B4
:100BD300CCC0E0E493A36006120C9B1470FAE49378
:100BE300A36006120DA21470FAD0E0FCE493A3C034
:100BF300E0E493C0E022CAC0E0E493A3C582CCC57D
:100C030082C583CDC583F0A3C582CCC582C583CD00
:100C1300C583DAE5D0E0CA22C0E0C0D0E8C0E0E98D
:100C2300C0E0E5A8D2AFC2C7A2E7A2E792AFD0E087
:100C3300F9D0E0F8D0D0D0E032CAC0E0E0A3C5825A
:100C4300CCC582C583CDC583F0A3C582CCC582C57F
:100C530083CDC583DAE6D0E0CA22C008C3E096F5A7
:100C63000808A3E096420808A3E096420808A3E018
:100C73009645087001D3D00822700908080822603D
:100C830016181818C6C333C608C633C608C633C6F3
:100C930008C633C6D5E0EA22C0E0E493A3D39C5050
:100CA30010E493A3C39C400AD0E0D0E0D0E0020B51
:100CB300ECA3A3A3D0E022C09FF59FE473D09F22AF
:100CC300D083D082C09FE493C0E0740193C0E074EA
:100CD3000293F59F222518F58210AF08F518400CF2
:100CE30015198008F51840021519D2AF851983220A
:100CF3007404800A74038006740280027401C0E0E5
:100D0300F404120CD8D0E0120F9F2200C0D0251893
:100D130010AF08F518500C05198008F51850020596
:100D230019D2AFD0D022BB0102E722C082C083898F
:100D3300828A83BB0003E08002E493D083D08222C3
:100D43006016080808C6C313C618C613C618C61308
:100D5300C618C613C6D5E0EA222518F8E43519F9F2
:100D6300222518FAE43519FB222518FCE43519FD70
:100D730022C3E0C696F608A3E0C696F608A3E0C62B
:100D830096F608A3E0C696F622251810AF08F518C4
:100D9300400C15198008F51840021519D2AF22C06E
:100DA300E0E493A36C7009D0E0D0E0D0E0020BEC58
:100DB300A3A3D0E022E066701008A3E066700A08DF
:100DC300A3E066700408A3E06622C3E09608A3E0EC
:100DD3009608A3E09608A3E096A2D265D03322E753
:100DE3006670100809E766700A0809E76670040868
:100DF30009E76622191919E70947097009E727095D
:100E03007005E733F4220922C3E096F008A3E096C5
:100E1300F008A3E096F008A3E096F022181818E66D
:100E23000846087009E626087005E633F42208220E
:100E3300C3E4939608740193960874029396087416
:100E430003939622C3E697F60809E697F60809E6A0
:100E530097F60809E697F622E026F608A3E036F6A9
:100E630008A3E036F608A3E036F622E627F60809DB
:100E7300E637F60809E637F60809E637F62270047E
:100E830022600D18C6C333C608C633C6D5E0F418AE
:100E930022E647F60809E647F60809E647F6080991
:100EA300E647F622E056F608A3E056F608A3E05616
:100EB300F608A3E056F622E657F60809E657F608C1
:100EC30009E657F60809E657F622E026F008A3E0FC
:100ED30036F008A3E036F008A3E036F022E056F03F
:100EE30008A3E056F008A3E056F008A3E056F0226A
:100EF300E4C396F608E496F608E496F608E496F654
:100F030022600D08C6A2E713C618C613C6D5E0F3C0
:100F130022C3E7960809E7960809E7960809E796C2
:100F230022C6F4C608C6F4C608C6F4C608C6F4C684
:100F330022C3E09608A3E09608A3E09608A3E096F0
:100F43002275D00075813F751801751903000209D8
:100F530050E6084608C3134608336002E633F4221A
:100F6300E7094709C3134709336002E733F42260F3
:100F73000C08C6C313C618C613C6D5E0F422E6F0A0
:100F830008A3E6F008A3E6F008A3E6F022E0F608DB
:100F9300A3E0F608A3E0F608A3E0F622CAC0E0E661
:100FA300F0A308DAFAD0E0FA22E0FAA3E0FBA3E028
:100FB300FCA3E0FD22EAF0A3EBF0A3ECF0A3EDF039
:100FC30022E0F8A3E0F9A3E0FAA3E0FB22E8F0A310
:100FD300E9F0A3EAF0A3EBF022E5C754F84401F5E6
:100FE300C77901222518F582E43519F58322E7270D
:100FF30019471947194722E6261846184618462264
:10100300C2AF75D69F02000022120CC30DB40212A8
:101013000CC346B502120CC3F9B702120CC30CBBC6
:1010230002120CC31BBB02120CC3A7BB02120CC3DC
:101033005DBC02120CC3A4BC02120CC3EDBC0212B1
:101043000CC329BD02120CC39FBD02120CC30BBEFD
:1010530002120CC327BE02120CC328BF02120CC318
:10106300B9C102120CC312C302120CC3A5C30212EC
:101073000CC32FC402120CC353C402120CC304C505
:1010830002120CC3B5C502120CC332C702120CC341
:1010930071C702120CC3E7C702120CC33CC9021288
:1010A3000CC3DFC902120CC313CA02120CC32BCA2E
:1010B30002120CC3CECA02120CC358CD02120CC3C7
:1010C300F9CE02120CC317CF02120CC335CF021292
:1010D3000CC305D002120CC35AD302120CC337310E
:1010E30000120CC3913100120CC3FB3100120CC36C
:1010F300843200120CC3403300120CC3CF330012EE
:101103000CC3E83300120CC30D3400120CC32C348F
:1011130000120CC36A3400120CC3B93400120CC39E
:10112300E23400120CC3313500120CC3DD3500125A
:101133000CC3A53600120CC30A3700120CC3D737F1
:1011430000120CC31D3800120CC3393800120CC333
:101153006B3800120CC3133A00120CC3EA3A0012A4
:101163000CC3163B00120CC34A3B00120CC36B3B6F
:1011730000120CC37A3B00120CC3853B00120CC354
:10118300393C00120CC3AC3C00120CC31E3D0012D0
:101193000CC3263D00120CC3493E00120CC37C3E17
:1011A30000120CC33E3F00120CC3ED3F00120CC3F0
:1011B300354000120CC3974000120CC3A840001224
:1011C3000CC3204100120CC3A84100120CC30C42F3
:1011D30000120CC3F14200120CC3224300120CC3D1
:1011E300404300120CC3534300120CC3C643001206
:1011F3000CC30E4400120CC31B4400120CC3244442
:1012030000120CC3244600120CC36E4700120CC319
:101213007E4700120CC38D4800120CC3064900120E
:101223000CC3484900120CC3844900120CC3584B29
:1012330000120CC3BD4D00120CC3D14D00120CC3E0
:10124300DB4D00120CC3E54D00120CC3EF4D001231
:101253000CC3084E00120CC3124E00120CC31C4EDA
:1012630000120CC3264E00120CC34E4E00120CC3C8
:10127300594E00120CC3A34E00120CC3AE4E001203
:101283000CC3D24E00120CC3F64E00120CC3574FC0
:1012930000120CC3A24F00120CC3BE4F00120CC3AA
:1012A300285000120CC3745000120CC3BC5000121F
:1012B3000CC3375100120CC3D15100120CC3955308
:1012C30000120CC3035400120CC3355500120CC397
:1012D3005B5500120CC3CB5600120CC37F5A00128D
:1012E3000CC37F5C00120CC3575E00120CC3F05E8C
:1012F30000120CC3026100120CC3C46100120CC3C0
:10130300106200120CC3766200120CC388620012D2
:101313000CC3D86400120CC3056600120CC35766D5
:1013230000120CC3FC6600120CC3B76800120CC396
:10133300E86900120CC3066A00120CC35B6A001250
:101343000CC3596B00120CC3816B00120CC3E46B0A
:1013530000120CC3E56C00120CC3586D00120CC3D1
:10136300866E00120CC3F16E00120CC3E16F001203
:101373000CC3477200120CC3757200120CC3707356
:1013830000120CC30E7500120CC35E7500120CC361
:10139300167600120CC3CB7600120CC32F77001203
:1013A3000CC3E87700120CC3887800120CC3EC78E6
:1013B30000120CC3367900120CC3737900120CC3EC
:1013C300DB7A00120CC3048101120CC33C810112AD
:1013D3000CC3158401120CC35B8401120CC3788502
:1013E30001120CC3DD8501120CC32E8701120CC33D
:1013F3001F8A01120CC33E8B01120CC313960112F8
:101403000CC3B29601120CC3A59901120CC3A59A81
:1014130001120CC31B9B01120CC3589C01120CC379
:10142300C19E01120CC3CFA001120CC35CA1011217
:101433000CC330A201120CC3BCA201120CC3C6A27E
:1014430001120CC3EFA201120CC39CA301120CC323
:1014530087A401120CC35FA501120CC3C3A501121B
:101463000CC3ECA501120CC319A601120CC36AA884
:1014730001120CC345A901120CC389A901120CC3A3
:10148300FAA901120CC3B3AA01120CC3E5AA0112F3
:101493000CC32CAB01120CC35FAB01120CC3C4AB66
:1014A30001120CC313AC01120CC318AC01120CC310
:1014B3006CAC01120CC3B6AC01120CC3B2AD011279
:1014C3000CC317AE01120CC37EAE01120CC3A3B141
:1014D30001120CC377B201120CC3E1B301120CC3A6
:1014E300BBB601120CC363B701120CC38AB9011254
:1014F3000CC32FBA01120CC36DBA01120CC346BC44
:1015030001120CC359BC01120CC362BC01120CC3FF
:101513006BBC01120CC380BC01120CC39FBC011233
:101523000CC37EBE01120CC3D1BE01120CC3DBBEC1
:1015330001120CC3FCBE01120CC34BC001120CC33D
:1015430094C001120CC374C101120CC39FC20112D7
:101553000CC355C301120CC357C401120CC359C5A4
:1015630001120CC33FC601120CC356C601120CC3B1
:1015730093C601120CC39DC601120CC3A8C6011267
:101583000CC3C6C601120CC308C701120CC366C73D
:1015930001120CC38BC701120CC3A5C701120CC3E4
:1015A30032C801120CC36BC801120CC3B9C90112B2
:1015B3000CC30BCA01120CC325CB01120CC34CCBB9
:1015C30001120CC3E8CB01120CC364CC01120CC38F
:1015D300B0CD01120CC3CBCE01120CC391CF0112BB
:1015E3000CC33BD001120CC3C0D001120CC328D1D1
:1015F30001120CC3DDD101120CC32FD201120CC393
:1016030095D201120CC35ED301120CC381D3011214
:101613000CC339D401120CC35DD401120CC37FD4A3
:1016230001120CC3E0D401120CC32BD701120CC35B
:1016330006D801120CC3B0D801120CC3F1DA01129F
:101643000CC33FDB01120CC382DB01120CC3DADBD8
:1016530001120CC338DC01120CC362DC01120CC38F
:1016630086DC01120CC3B7DC01120CC3E1DC0112EE
:101673000CC328DD01120CC37CDD01120CC3D8DDC1
:1016830001120CC3D9DE01120CC343E001120CC3D7
:1016930081E001120CC3AAE001120CC33BE1011269
:1016A3000CC385E101120CC3A9E101120CC3FCE1D7
:1016B30001120CC317E201120CC3D2E201120CC3D4
:1016C300FCE201120CC33FE301120CC395E30112C8
:1016D3000CC3A1E601120CC3D4E601120CC391E7BB
:1016E30001120CC36CE801120CC3FCE801120CC319
:1016F3003DE901120CC363ED04120CC39BED04120C
:101703000CC3BCED04120CC3FEED04120CC362EE59
:1017130004120CC36CEE04120CC37CEE04120CC353
:10172300B3EE04120CC35CF204120CC324F40412CF
:101733000CC318F604120CC3B6F604120CC33DF71F
:1017430004120CC34D8003120CC3F68003120CC3A6
:10175300D58103120CC3F08203120CC3108303124E
:101763000CC3328403120CC3CF8503120CC33C8613
:1017730003120CC3128703120CC3188803120CC381
:101783007D8803120CC3B98803120CC31289031298
:101793000CC34B8903120CC3948903120CC3268A0E
:1017A30003120CC3C38A03120CC3988B03120CC31A
:1017B300658C03120CC3F28C03120CC3188D031235
:1017C3000CC3458D03120CC3768D03120CC34B8ED1
:1017D30003120CC35B8E03120CC3AE8E03120CC335
:1017E300BB8E03120CC3C88E03120CC3D18E03121B
:1017F3000CC3358F03120CC3938F03120CC3DE8FFC
:1018030003120CC3F98F03120CC3209003120CC3F1
:101813003D9003120CC3499003120CC3ED910312C4
:101823000CC3069203120CC3829203120CC395924B
:1018330003120CC3A59203120CC34B9303120CC3E4
:10184300BB9403120CC3CE9503120CC36E96031202
:101853000CC3789603120CC3E69603120CC3F796D7
:1018630003120CC3369703120CC3649703120CC301
:10187300319803120CC3889803120CC3CD9803123A
:101883000CC3239903120CC3419903120CC38F9900
:1018930003120CC35D9A03120CC3AB9A03120CC35D
:1018A300ED9A03120CC3709B03120CC39A9B031291
:1018B3000CC3D09B03120CC3DF9B03120CC33D9CD0
:1018C30003120CC3B59C03120CC3F69C03120CC386
:1018D300459D03120CC3709D03120CC38A9D031212
:1018E3000CC3A49D03120CC3799E03120CC3839EE5
:1018F30003120CC3BE9E03120CC3CE9E03120CC371
:101903001F9F03120CC3339F03120CC351A0031276
:101913000CC366A003120CC300A103120CC37FA166
:1019230003120CC322A203120CC32DA203120CC375
:101933007AA303120CC396A303120CC3EEA30312E0
:101943000CC35CA403120CC3A8A403120CC3C2A44B
:1019530003120CC322A503120CC3C0A503120CC3AC
:101963000BA603120CC36EA803120CC306A9031221
:101973000CC37DA903120CC3C3AB03120CC3DBABB3
:1019830003120CC3DEAB03120CC3EAAB03120CC38A
:10199300FEAB03120CC306AC03120CC33DAC031223
:1019A3000CC331AD03120CC3BBAD03120CC33DAE6C
:1019B30003120CC3B2AE03120CC38AAF03120CC3DF
:1019C300ACAF03120CC343B003120CC34FB00312EA
:1019D3000CC3ACB003120CC3AFB003120CC31EB1E3
:1019E30003120CC36AB203120CC37DB303120CC3FC
:1019F30008B403120CC31BB503120CC3E5B50312E1
:101A03000CC316B603120CC33CB603120CC345B683
:101A130003120CC374B603120CC324B703120CC312
:101A2300D4B703120CC347B803120CC3F9B803129B
:101A33000CC36CB903120CC3ABB903120CC3F4B9D6
:101A430003120CC37CE204120CC3E7E204120CC3BE
:101A530033E304120CC37DE304120CC301E4041248
:101A63000CC30CE604120CC33CE804120CC382EB57
:101A730004120CC3B1EB04120CC3CFEB04120CC35E
:101A830039EC04120CC361EC04120CC394EC041281
:101A93000CC3C9EC04120CC318ED04120CC396F06A
:101AA30003120CC312F103120CC339F103120CC35A
:101AB3006CF103120CC3CBF203120CC3E7F2031253
:101AC3000CC32CF303120CC3B1F303120CC3FDF3C9
:101AD30003120CC38DF403120CC35BF503120CC386
:101AE300B6F503120CC31BF603120CC390F60312D4
:101AF3000CC3B9F603120CC3FAF603120CC3B1F804
:101B030003120CC38BF903120CC361FA03120CC347
:101B130030FB03120CC374FB03120CC3CCFB031284
:101B23000CC3EEFB03120CC37AFC03120CC30BFDB4
:101B330003120CC309D205120CC327D205120CC31E
:101B43008CD205120CC329D305120CC305FF041252
:101B53000CC339CE05120CC361CE05120CC350CF92
:101B630005120CC3C6D005120CC3E9D105120CC370
:101B7300D0D604120CC3A0D704120CC3C5D70412C9
:101B83000CC3E5D704120CC3F9D704120CC361D8F4
:101B930004120CC385D804120CC308DA04120CC354
:101BA3003EDB04120CC31FDC04120CC380DC0412E2
:101BB3000CC3ACDC04120CC32BDD04120CC37CDDA0
:101BC30004120CC39DDD04120CC315DE04120CC3F6
:101BD3003ADE04120CC39FDE04120CC323E004128A
:101BE3000CC3F0E004120CC327E104120CC34CE154
:101BF30004120CC36CE104120CC397E104120CC36E
:101C0300ABE104120CC314E204120CC368E2041225
:101C13000CC363C905120CC384C905120CC3BDCA26
:101C230005120CC3E7CA05120CC3ADD905120CC3C8
:101C3300BDD905120CC3C7D905120CC355F1021245
:101C43000CC358F102120CC32AF202120CC34DF258
:101C530002120CC397F202120CC3C9F202120CC394
:101C6300F7F202120CC334F302120CC362F3021232
:101C73000CC375F402120CC3BCF402120CC3FEF4C1
:101C830002120CC377F502120CC322F602120CC324
:101C930010A902120CC3B3F602120CC31CF80212F1
:101CA3000CC3D5F802120CC3C8F902120CC3BCFA58
:101CB30002120CC36AFB02120CC39FFB02120CC379
:101CC300F9FB02120CC3A3FC02120CC3D1FC0212D7
:101CD3000CC35DFE02120CC3E0FE02120CC320FF14
:101CE30002120CC37F8905120CC3B98905120CC3F8
:101CF300228A05120CC3438A05120CC35C8A05129F
:101D03000CC3FC8A05120CC32EB302120CC3508BF6
:101D130005120CC3798B05120CC3868B05120CC3F9
:101D2300F88B05120CC38A8C05120CC3D88C0512D0
:101D33000CC3018D05120CC3608D05120CC38C8D71
:101D430005120CC3078E05120CC3518E05120CC36A
:101D5300918E05120CC3C98E05120CC3DB8E0512BE
:101D63000CC3ED8E05120CC30C8F05120CC3158F1B
:101D730005120CC3E68F05120CC3269005120CC383
:101D83004F9005120CC326A005120CC369A10512BE
:101D93000CC38FA105120CC3A0A105120CC3BFA3D2
:101DA30005120CC3DEA305120CC34CC505120CC3EC
:101DB30082C505120CC3CDC505120CC316C7051287
:101DC3000CC3FF9A04120CC3309C04120CC36C9C0A
:101DD30004120CC3219E04120CC34B9E04120CC3A9
:101DE300C4A004120CC304A104120CC398A20412CD
:101DF3000CC337A304120CC38FA304120CC320A477
:101E030004120CC358A404120CC39AA404120CC3E6
:101E130014A604120CC399A704120CC3DAA9041262
:101E23000CC308AA04120CC334AA04120CC33DAA9F
:101E330004120CC393AA04120CC323AB04120CC3E5
:101E430061AE04120CC3E5AE04120CC314DA05121E
:101E53000CC32ADA05120CC32FD805120CC39DA993
:101E630005120CC3B2A905120CC365AA05120CC353
:101E7300A5AA05120CC3BEAA05120CC3F2AA051229
:101E83000CC33FAB05120CC373AB05120CC3B5AB4C
:101E930005120CC3B1AD05120CC328D705120CC330
:101EA30065D705120CC3A7D705120CC3B7D7051204
:101EB3000CC3008004120CC3588004120CC3E880C6
:101EC30004120CC3F58104120CC3D28204120CC396
:101ED3006F8304120CC3BC8304120CC31384041257
:101EE3000CC3688404120CC3D78404120CC37C870C
:101EF30004120CC3128804120CC3498804120CC3C5
:101F0300928804120CC37E8A04120CC3F98A041249
:101F13000CC3CB8B04120CC3048C04120CC3238C90
:101F230004120CC36E8C04120CC3848C04120CC3F5
:101F3300918C04120CC3CA8C04120CC3DC8C0412E3
:101F43000CC3B38D04120CC3BE8D04120CC3098ED3
:101F530004120CC36C8E04120CC3AC8E04120CC39B
:101F6300BA8F04120CC3209204120CC34A920412B7
:101F73000CC3549304120CC3799304120CC3FA9345
:101F830004120CC3C29404120CC3119504120CC3A3
:101F9300729504120CC31D9604120CC347960412C7
:101FA3000CC3519604120CC35B9604120CC35E96C9
:101FB30004120CC3D89604120CC3119704120CC359
:101FC300249704120CC3509704120CC38B9704126A
:101FD3000CC38E9704120CC3CA9704120CC3E09768
:101FE30004120CC3FC9704120CC32B9804120CC3E9
:101FF3004B9804120CC3949804120CC3CB9804128C
:102003000CC3CB9904120CC3D7D805120CC3EFD859
:1020130005120CC3E9F704120CC338F804120CC3FD
:10202300F6F904120CC3B0FB04120CC3EEFB04124A
:102033000CC3E1FC04120CC3E8FD04120CC30AFE3A
:1020430004120CC354FE04120CC3D5FE04120CC3B9
:10205300FEE901120CC321EA01120CC30AEB0112BF
:102063000CC353EB01120CC3B6EB01120CC316ECF9
:1020730001120CC367EC01120CC3DDEC01120CC39B
:102083005FED01120CC3D4ED01120CC317EE011264
:102093000CC322F201120CC387F401120CC3BAF46D
:1020A30001120CC308F501120CC3A4F601120CC3F0
:1020B300A7F601120CC385F701120CC3BBF801127A
:1020C3000CC3DDFA01120CC37EFB01120CC3ACFC82
:1020D30001120CC311FD01120CC316FE01120CC335
:1020E30063FE01120CC323C304120CC3CEC3041238
:1020F3000CC338C404120CC348C404120CC3CAC4AE
:1021030004120CC321C504120CC31CC604120CC355
:1021130043C604120CC3E7C604120CC336C7041229
:102123000CC394C704120CC3EFC704120CC3D0CA68
:1021330004120CC36CCB04120CC3C9CB04120CC322
:1021430094CD04120CC32ECE04120CC3C7CE0412BA
:102153000CC325CF04120CC39CCF04120CC3E3D0D1
:1021630004120CC3CBD104120CC35BD204120CC3F4
:102173005FD304120CC3F8D304120CC362D4041249
:102183000CC375D504120CC342AF04120CC3ADAF1C
:1021930004120CC3F5AF04120CC339B004120CC300
:1021A3008BB004120CC3E8B004120CC323B10412A5
:1021B3000CC3C2B104120CC331B204120CC3A9B2D2
:1021C30004120CC3C1B304120CC3E9B304120CC34D
:1021D300F5B404120CC306B504120CC31CB50412E7
:1021E3000CC34AB604120CC378B604120CC344B72A
:1021F30004120CC366B704120CC389B704120CC3D0
:10220300A3B704120CC3C5B704120CC3A4B80412B9
:102213000CC3FEB804120CC378BA04120CC3DABAA6
:1022230004120CC3F9BA04120CC341BC04120CC34C
:10223300BCBC04120CC3F2BC04120CC32BBD0412AD
:102243000CC320BE04120CC32DBF04120CC322C046
:1022530004120CC330C004120CC320C104120CC3FB
:10226300C2C104120CC335C204120CC34AC2041205
:102273000CC3EBC204120CC3009B05120CC33D9BA1
:1022830005120CC3D69B05120CC3E19C05120CC3AB
:10229300299F05120CC3A59F05120CC38CBC051204
:1022A3000CC3BABD05120CC379BE05120CC3CEBE56
:1022B30005120CC351BF05120CC3FCC705120CC396
:1022C3001EFF01120CC32FFF01120CC3CFFF01121B
:1022D3000CC3DAFF01120CC322CB05120CC330CBA3
:1022E30005120CC3EEFF02120CC3C1D705120CC3B7
:1022F300D1D705120CC3E3D705120CC32CD8051292
:102303000CC384D405120CC309D505120CC36FD5B5
:1023130005120CC3F97F00120CC3F9B805120CC3E4
:1023230007B905120CC380B905120CC355BA0512BF
:102333000CC327BC05120CC3E67F00120CC3EF7F4E
:1023430000120CC3F47F00120CC3C6FF03120CC3AC
:10235300C69505120CC3F29505120CC38C98051291
:102363000CC3CA9805120CC3069905120CC31A991B
:1023730005120CC3339905120CC3269A05120CC31C
:10238300D89A05120CC3EC9A05120CC3CECC0512D5
:102393000CC3F2CC05120CC30BCD05120CC34ACDF2
:1023A30005120CC37DCD05120CC3ADCD05120CC3B4
:1023B30015CE05120CC318CE05120CC322CE05127E
:1023C3000CC32FCE05120CC3A6C205120CC3CEC27A
:1023D30005120CC30FC305120CC32DC305120CC386
:1023E30048C305120CC3B0C305120CC3BCC305120A
:1023F3000CC31BC405120CC33FC405120CC300C598
:1024030005120CC30DC505120CC31EC505120CC362
:102413006FFF02120CC387FF02120CC3ADFF02123F
:102423000CC3927B00120CC3DB7C00120CC3E17C57
:1024330000120CC3F87C00120CC3197D00120CC3EC
:102443002F7D00120CC3437D00120CC3C27D00120A
:102453000CC3277E00120CC3BD7E00120CC3967FF3
:1024630000120CC3A67F00120CC3B57F00120CC36D
:102473008FD605120CC3B3D605120CC3DBD60512D7
:102483000CC303D705120CC358FD03120CC3C4FDC0
:1024930003120CC3E2FD03120CC353FE03120CC35D
:1024A300D4BF05120CC3EDBF05120CC304C0051243
:1024B3000CC30DC005120CC32BC005120CC335C0D1
:1024C30005120CC33FC005120CC352C005120CC346
:1024D300D8C005120CC34DC105120CC37BC1051234
:1024E3000CC3CCC105120CC318C205120CC333C2F2
:1024F30005120CC33DC205120CC34EC205120CC318
:1025030091C205120CC38CD805120CC300800512AE
:102513000CC32C8005120CC34A8005120CC35D80CA
:1025230005120CC3788005120CC3D78005120CC3A7
:10253300058105120CC3088505120CC35F860512BD
:102543000CC3918605120CC3048705120CC3708853
:1025530005120CC3988805120CC3AD8805120CC371
:10256300BD8805120CC3FD8805120CC33F890512F3
:102573000CC34F8905120CC34CD305120CC35CD397
:1025830005120CC37AD305120CC395D305120CC3E1
:10259300BCD305120CC3DDD305120CC3F7D305124C
:1025A3000CC32FD405120CC352D405120CC369D922
:1025B30005120CC363B505120CC373B505120CC326
:1025C30091B605120CC3C3B605120CC3E5B60512CA
:1025D3000CC30DB705120CC326B705120CC362B7A3
:1025E30005120CC3C9B705120CC305B805120CC3F9
:1025F3004CB805120CC379B805120CC3A5B8051263
:102603000CC381CF05120CC3A4CF05120CC393D006
:1026130005120CC396D005120CC388D505120CC342
:10262300E7D505120CC325D605120CC366D60512D1
:102633000CC329BA03120CC335BA03120CC392BAE2
:1026430003120CC3AABA03120CC359BB03120CC363
:10265300C3BB03120CC30CBC03120CC3D4BC0312C4
:102663000CC34FBD03120CC309BF03120CC3D7C065
:1026730003120CC327C203120CC36CC303120CC393
:1026830000C403120CC365C503120CC35FC6031257
:102693000CC379C703120CC32DCC03120CC306CD94
:1026A30003120CC394CD03120CC3B9CD03120CC394
:1026B300DECD03120CC375CE03120CC393CE0312EB
:1026C3000CC3B1CE03120CC318CF03120CC337CF04
:1026D30003120CC364CF03120CC371D003120CC3D7
:1026E30047D103120CC3B0D203120CC3D1D20312CD
:1026F3000CC352D303120CC3F8D303120CC340D43C
:1027030003120CC3B2D403120CC341D503120CC37E
:10271300A6D503120CC311D603120CC3CBD60312D6
:102723000CC344D703120CC380D703120CC3EDD7D9
:1027330003120CC33DD903120CC3FCD903120CC3FF
:10274300AADA03120CC332DC03120CC3CBDC031270
:102753000CC345DD03120CC346DF03120CC359E05F
:1027630003120CC36EE003120CC39BE003120CC3F1
:1027730021E103120CC351E103120CC3ABE10312B9
:102783000CC342E203120CC333E403120CC317E677
:1027930003120CC31DE703120CC3F1EA03120CC3AB
:1027A300BBEB03120CC3B8EC03120CC36DEE0312A4
:1027B3000CC39FB105120CC3CBB105120CC335B3C7
:1027C30005120CC358B305120CC378D302120CC301
:1027D30018D402120CC37DD402120CC375D5021295
:1027E3000CC309D602120CC356D702120CC3F8D776
:1027F30002120CC3C2D902120CC3C3DA02120CC3F5
:10280300DEDA02120CC305DC02120CC3BADD0212BB
:102813000CC35EDE02120CC3D5E102120CC3D5E376
:1028230002120CC36CE402120CC3C2E402120CC306
:1028330010E502120CC397E502120CC311E6021253
:102843000CC349E602120CC338ED02120CC37EEF2F
:1028530002120CC360F002120CC325D905120CC37B
:10286300799005120CC3029105120CC3BB92051299
:102873000CC30A9305120CC3429305120CC35C9359
:1028830005120CC3819305120CC3B89305120CC334
:10289300639405120CC3889405120CC3AF940512FC
:1028A3000CC3BEAD05120CC3DCAD05120CC320AEC8
:1028B30005120CC346AE05120CC368AE05120CC359
:1028C30080AE05120CC398AE05120CC3B0AE051250
:1028D3000CC352AF05120CC394AF05120CC39EAFC9
:1028E30005120CC3C0B005120CC3C9B005120CC34A
:1028F300D2B005120CC3DBB005120CC3E5B0051250
:102903000CC320A505120CC320A905120CC32EA9C4
:1029130005120CC333A905120CC3E8D905120CC365
:102923005DA802120CC30CA602120CC3E1A502128D
:102933000CC382A502120CC3F3A302120CC381A31E
:1029430002120CC33BA302120CC35AA202120CC301
:1029530024A202120CC3E9A102120CC35AB102123F
:102963000CC31BAF02120CC37FA002120CC305A041
:1029730002120CC3BAAE02120CC361AE02120CC334
:10298300429F02120CC3389E02120CC3EF9D021227
:102993000CC3C99D02120CC3059D02120CC34F9BAD
:1029A30002120CC3EF9A02120CC3C09A02120CC398
:1029B300BD9A02120CC3839902120CC36F980212C0
:1029C3000CC32F9702120CC3619602120CC3D99544
:1029D30002120CC3F99402120CC3609402120CC3CA
:1029E300BA9302120CC37C9302120CC3D5AD02122C
:1029F3000CC3ABAD02120CC36DAD02120CC318AD08
:102A030002120CC30BAC02120CC372AA02120CC347
:102A130042AA02120CC3E29202120CC3A192021246
:102A23000CC3449202120CC3119202120CC306AAE5
:102A330002120CC3A59102120CC3729102120CC3B1
:102A4300179102120CC3E69002120CC3F2A90212F0
:102A53000CC3AF8D02120CC3058B05120CC3C18CC2
:102A630002120CC37B8B02120CC3278B02120CC302
:102A73001B8B02120CC3828A02120CC350890212EE
:102A83000CC3AB8602120CC34E8402120CC3028425
:102A930002120CC3E78202120CC37C8202120CC323
:102AA300A48102120CC36B8002120CC33280021287
:102AB3000CC3008002120CC3DEA902120CC345F63C
:102AC3000200000080FB87000100C40E2400020006
:102AD300960E25000200980E260002009A0E27008B
:102AE30002009C0E280001009E0E290001009F0E8B
:102AF30084000400A00E86000100A40E2A00010039
:102B0300A50E2B000100A60E2C000100AA0E2D001D
:102B130008000F072E000100AB0E2F000100AC0EC2
:102B230030000100AD0E31000100AE0E3200010095
:102B3300170733000100180734000100AF0E3600F9
:102B43000100190738000100B00E39000100A90E79
:102B530083000200C20E6300010024076400010029
:102B6300A70E65000100A80E6D0001002507710086
:102B73000800070766000100C10E43000100B20E02
:102B830044000200B30E45000100B50E46000200EA
:102B9300B60E470008001C0748000100B80E4B00A2
:102BA3000100B90E04000100C50EA1000100C80E0A
:102BB30037000100C70E88000100C60E3C0001006B
:102BC3001A073D000100B10E49000200BA0E67006A
:102BD300010026074D000200BC0E4E000100BE0E90
:102BE3004F000200BF0E3E0001001B070000000063
:102BF300000000013636010100010201000103015A
:102C03000001040106060502000007010034080163
:102C1300000F090401010D0100FF0E080000170257
:102C23000000190100FF1A0100011B0100FE1C0135
:102C330000081D0200001F01000120010001210204
:102C430000002301000F24020000260100012701D8
:102C53000008280200FF2A0100072B0102402C0173
:102C630000002D0100012E0100012F0100FF3001A2
:102C73000B1C310800003A0100083B01000F3C0126
:102C830000013D0100FF3E04000042040000460431
:102C930000004A0400004E040000520400005604E1
:102CA30000005A0400005E20FFFF3600010006000A
:102CB30000000F0000000000000000000000000002
:102CC30003FFFF00000403FFFF0000FFFF0FF401F9
:102CD3000005C4040320000100000B0000000000F5
:102CE30000000003010F00000000000000000000CE
:102CF30000000000000000000000000000000000D1
:102D030000000000000000000000000000000000C0
:102D130000000000000000000000000000000000B0
:102D230000000000000000000000030020010281F9
:102D330000000000200103810000040042016A80BA
:102D43000000050042011F800000060042011480BC
:102D53000000070020010081000010004203F70E6D
:102D63000000110020032A0E000012001003080FB8
:102D73000300000021032B0E0600000010012D0E9E
:102D8300040B00001B01090F040B080521012E0E83
:102D9300040B0B052101300E010371030103010331
:102DA30001030103010322030203010310030003D0
:102DB30000030003000300030003000342030003B6
:102DC3002403060300030003040312032503230360
:102DD3002503230304030403000300030003440344
:102DE300000300032303000365032100350381036C
:102DF300000305030003000300030003250323036B
:102E030001017101010101011101010131010101FF
:102E130001018001100161013B0014006301730192
:102E23007201620143010001130106013D013500F6
:102E33000401120100010001000100010401040169
:102E4300330133013C01440132013600000100012A
:102E53006501000135008101000105018201830143
:102E630000010302710230016002110270020102CB
:102E7300020202028002100261023A004100630270
:102E8300730272026202430200021302380000025C
:102E93000002040212020002000200020002040205
:102EA3000402370037003C024402000239000002EA
:102EB300000265020002350281020002050282025D
:102EC3008302000203047104020460041104700409
:102ED3000204020401040204100461040004140443
:102EE30063047304720462044304000413040604B9
:102EF3000004000404041204000400040004000499
:102F030051046400000400040004440400040004A9
:102F1300000400046504000435048104640005040E
:102F230000048304000403007100300160001100F9
:102F33007000310220035004800010006100000083
:102F4300140063007300720062004300000013006A
:102F53000600000000000400120000000000000052
:102F6300000004000400370037003C024400000066
:102F73000000000000006500000035008100000033
:102F83000500000083000000282782272E274426FF
:102F930034278827342794273A2744263427882739
:102FA30040274426462744264C27442652274426B6
:102FB300582744265E27442664279A276A274426EF
:102FC3000000000000000000000000007027AC2794
:102FD300762744267027AC277627442664279A272A
:102FE3007C274426000028211300BC20010028214F
:102FF30002006E200300742004007A200500802064
:1030030006008C201100B0201400B62015009E206D
:103013001F00A420FFFF0000010214062C14082641
:10302300140B4414107813020814051A14070E1411
:103033000CEA130DF61364B011FF000007ECFDFD5D
:10304300FDECDCDCCCBCACAC9C9C8C7C7C6C6C5C0C
:103053005C5C4C4C3C3C2C2C1C1C03EAF5E5D5D5A4
:10306300C5B5A595958585757565655555454535ED
:1030730035252515150500160F00000B150B02004D
:1030830002220F3300000E5A6967426565416C6C7A
:1030930069616E63653039000000040600000406B0
:1030A3000001040600020401030507090B0D0F00CC
:1030B300020406080A0C0D303017181921301B1DA5
:1030C3001F3000034A49434E181A2505020001190F
:1030D30016181616182303000C0E020B040B0A070E
:1030E30008000F00393D3F373C3C362C442D30302F
:1030F30016181920231A1C1E3002040201010101B3
:103103000902E803000000BE040A000000000E00EC
:103113003C003C007F00E8030303080500040C01A6
:10312300FF1E1E10050C0C280404091008150300CB
:1031330004090E08C082C0837900EA12333C3BF5D0
:1031430083C082C08390034212787ED083D082C32F
:10315300E09CA3E09D500CEA240B123189123169E3
:10316300600109024941EA75F00BA4FAA8F075F071
:103173000BEBA428FB900344E02AF8A3E03B8882EE
:10318300F583E0540F22F582E43B125A772274F759
:103193001207D08908125110A3E0F9E875F00BA4C7
:1031A300F8ACF075F00BE9A42C1233B7E8FEE9FF95
:1031B3007401650860067402650870228A828B8335
:1031C300123702740265087021EA2403FA50010BD6
:1031D300121102E970148E828F83E4F0800CEA24CA
:1031E30003FCE43B1236F91210FC8E828F83E0D28B
:1031F300E7F0121FA8024DCC74F41207D01237BCAB
:1032030079008E828F83E06075890A890B8064E57B
:103213000A75F00BA4FAA8F075F00BE50B123175E3
:103223007049E50A75F00BA4F8AAF075F00BE50BED
:103233001233988E828F83E0850882850983124832
:10324300F5123679EE2403FCE43F12332F1210FCFF
:10325300124F4B1264A812419FD2E7F0121FA879B4
:1032630001900342E0F50AA3E0F50B050AE50A70B5
:1032730002050B1235D5E50A9AE50B9B40910253E3
:10328300FE74F51207D0EAFEEBFF750A01740B1208
:103293000FE7123DA6EC4D6015EC12333C3D12379F
:1032A300CA79011210E4E508450960758023E50831
:1032B3004509604412333A35091237CA12333012C2
:1032C3001102E96401701BEEFAEFFB1210EAE9F553
:1032D3000A8508828509831236717902AA08AB0927
:1032E30080111236FA121102E9640170347903EE87
:1032F300FAEFFB1210E480298E828F83A3E064FE31
:103303007003A3E0F4700B1236FA121102E96401A0
:10331300700CEEFAEFFB1210EAE9F50A8003750A66
:1033230000023C32E50A2403FCE4350BFDE50824E6
:1033330003FAE43509FB22E5081268AD2274F7129B
:1033430007D0900342125068EA4B602FEA75F00BE6
:10335300A4FAA8F075F00BEBA428FBEAFEEBFF122E
:103363001DB6900344125068900344125A626012CF
:10337300EEFCEFFD7900121CF08007900344E4F0AB
:10338300A3F0024DCCF9023B45E875F00BA4F8AA73
:10339300F075F00BE9A42AF9900344E028F508A39B
:1033A300E039F50922F9E875F00BA4F8AAF075F0F5
:1033B3000BE9A42AF9900344E028F8A3E039F922A1
:1033C300900342124DB3C3EE98EF9922C082C0839B
:1033D300EC4D600512262C80097C087D00790012D3
:1033E3001CF002494174F61207D07900EA4B6017CA
:1033F3007800EA28F582E41261BF60047901780855
:1034030008E8C3940840EB023B45C082C0837901BE
:10341300EC6A7002ED6B600EEA4B6009EC4D6005DF
:1034230012262680011902494174F71207D074F35A
:10343300120D8CECFEEDFF851882851983E4F004F0
:10344300120FE7EAF0A3EB124DA512112674031233
:103453000FE7AC82AD83EEFAEFFB1210FCEEFAEF4E
:10346300FB121102024DC774F71207D074F3120D49
:103473008CECFEEDFF851882851983E4F0EAFCEB02
:10348300FD7403120FE7AA82AB831210FCAA18ABD8
:103493001912112C7401120FE71249028E828F83C5
:1034A300124D9674FE68700374FF6960047901809D
:1034B300027900024DC774F71207D0EAFEEBFF1240
:1034C30010DEE9F508740165087011123522F4FA6B
:1034D30088828983E05A4480F0121FA80241147441
:1034E300F71207D0EAFEEBFF7508008E828F83E0A8
:1034F300602A1210DEE9F50874016508701E1235A2
:1035030022FA88828983E05A70128E828F83E04484
:1035130080FA88828983E04AF0121FA802411412BC
:103523004F4F1242EC1233A88E828F83E02274F441
:103533001207D08A088B097C007D00EA123332120D
:1035430010FCE5081236937900850882850983A368
:10355300E064FE7003A3E0F460757E007F00806684
:10356300EEFAEFFB1231696058EEFAEFFBEA75F001
:103573000BA4FAA8F075F00BEBA428FB900344E02E
:103583002AF50AA3E03BF50B850882850983A3127C
:10359300619A850A82850B83A3E06A7003A3E06BBB
:1035A300701FE50A2403FAE4350BFB121102E964E8
:1035B3000170061233271210FC1236887901127635
:1035C300B20EEE70010F1235D5EE9AEF9B409102C9
:1035D30053FE900342125A79C32274F31207D08A1E
:1035E300088B098A828B83123671EA123693750C23
:1035F30000EA123332121102E96401706A7E007F1D
:1036030000805FEEF8EFF9E875F00BA4F8AAF07507
:10361300F00BE9A42AF9900344127724E0540F60D5
:103623003CEEF8EFF9E875F00BA4F8AAF075F00B8F
:10363300E9A42AF9900344E028F50AA3E039F50B3D
:10364300123327122626E964017012850A82850B3C
:1036530083123679123688750C011276B20EEE702B
:10366300010F1233C3409CA90C7F05020A8BA3747C
:10367300FEF0A304F022A3124DB3850882850983CB
:10368300A312461E22E50812369DEEF0A3EFF022A8
:1036930012369D74FEF0A304F0221268B13509F5C9
:1036A300832274F51207D0EAFEEBFF8E828F83121A
:1036B30036717C007D001236FA1210FCEEFAEFFB35
:1036C3001210DEE9F50A7401650A7027124DAC1277
:1036D300338C850882F583123702123330121102BC
:1036E300E96401700EE5082403FCE435091236F998
:1036F3001210FC023C32FDEE2403FAE43FFB22A34A
:103703001261A412461E2274F21207D074E6120D3F
:103713008C1237BC750C01750800750900750A0019
:10372300750B00851882851983E4F0EE2403FCE40D
:103733003FFD7403120FE7AA82AB831210FCAA1891
:10374300AB1912112CE96401701F740B120FE712ED
:1037530037CC7401120FE712619E7003A3E0696016
:103763004AA818A91988088909740D120FE7124885
:10377300F4A3124902740E120FE7124D96740D1240
:103783000D64121126E964017009740D120D5C8831
:103793000A890B780A120CFBAC08AD09EEFAEFFBB1
:1037A3001210F07402120D0EE9F50CEEFAEFFB1293
:1037B3001120A90C741A0260FAEAFEEBFF124F4FB4
:1037C30074FEF0A304F022F5831242ECF9124F4F7A
:1037D30012461E22C082C08378007900800508E863
:1037E3007001091235D5E89AE99B5029E8FAE9FBFB
:1037F300EA75F00BA4FAACF075F00BEBA42CFB907C
:103803000344E02AFCA3E03B8C82F583E0540F7071
:10381300CD790080027901024941C082C083903191
:1038230030E49375F016A4FCADF079FF7A367B088B
:10383300121CF002494174F61207D0EAF875080029
:103843007D008012ED1261B1C3994009E0FAE8C32B
:103853009A400205080D903130E493FAEDC39A4083
:10386300E3AA087B00023B4574F01207D074F312FD
:103873000D8C8A0C8B0D8C088D09890AEC45096027
:1038830016AA08AB091211748A0E8B0FAE0EAF0F76
:10389300EE4F600302395E7B0080010B12649E5081
:1038A3000F123A0670F5743628FE740839FF800447
:1038B3007E007F00EE4F70030239B290310D123952
:1038C300D960217403650A60067404650A70157A69
:1038D30004790312114A903130E493FC90310D12B4
:1038E30039DF502990310F1239D960287401650AE4
:1038F30060067402650A701C7A02790112114A90FB
:103903003130E493FC90310F1239DF40077A007BAA
:10391300000239D68518828519837401F0120FE7E6
:10392300E50CF0A3E50DF0AC08AD097403120FE745
:10393300AA82AB831210FCAA18AB19121138740BAC
:10394300120FE71246178E828F83A3A3A3A3A3A309
:10395300E412787AAA0CAB0D12165A7800E50A60C5
:1039630007C39405500278048E828F83E50CF0A37D
:10397300E50D126E5EE50AF0E88E828F83A3A3A3A2
:10398300A3A31264AF5001097A027B001205F1125E
:103993003DECA31260DAA3123E30E50A600DC39436
:1039A300035008123DBB1239F78003123DD2F07A5F
:1039B30004790012114A8A08903130E493FAC3E57E
:1039C300089AEB94004005900E3EE4F0121534EE95
:1039D300FAEFFB023D901239EFE849221239EFEC7E
:1039E300C398F8E499F9C3EA98EB9922E493F8743D
:1039F3000193F922F9EE2414F582E43FF583E8F00C
:103A0300A3E922EB75F016A4F8A9F0123E25F422DF
:103A130074F21207D074F3120D8C8A088B09ECFE32
:103A2300EDFF750A00EEFAEFFB1211748A0C8B0D91
:103A3300A80CA90DE8497003023AD788828983E06C
:103A430065087004A3E065097003023AD788828988
:103A530083A3A3A3A3E0C394055079888289831227
:103A63006CDE1251CCE0603488828983A3A3A3A3C4
:103A7300E0C394035026903113E493FA740193FB4B
:103A8300124026903115E493FA740193FBE8241451
:103A9300F582E439F583EAF0A3EB800DE8241212F2
:103AA3003ADEF0E82414123ADEF085188285198391
:103AB3007401F0120FE7126CDEF0EEFCEFFD7403FD
:103AC300120FE7AA82AB831210FCAA18AB191211CA
:103AD30038750A01A90A740D0260FAF582E439F512
:103AE3008374FEF0A3042274F61207D012116E8AB7
:103AF300088B09A808A909E849601488828983A367
:103B0300A3A3A3E06009C39405500479018002795B
:103B130000802F74F61207D012116E8A088B09A841
:103B230008A909E849601488828983A3A3A3A3E0B1
:103B33006009C39403500479018002790080031261
:103B43000D0E7F02020A8B74F61207D012116E8AD1
:103B5300828B83E5824583600BA3A3A3A3E0700458
:103B630079018002790080DAC082C083EAFCEBFD30
:103B73007A007B0002493EC082C0837C007D000244
:103B8300493E74F51207D074F3120D8CEAFEEBFF75
:103B93008C088D09C3EC94F8ED94FF4004EE4F605C
:103BA3006A750A00801974FF6508700474FF65095B
:103BB300600B126FDB7004A3E06509603B050A909C
:103BC3003130E493F8E50AC3985040E50A123A0706
:103BD30060EBEE4F60D0123C19120FE7124DA112A9
:103BE3001132E960D87403120FE7AC82AD83EEFAA9
:103BF300EFFB122626E960C5E50A75F016A4F8A9BD
:103C0300F0743628FA740839FB80047A007B007458
:103C13000D120D0E801B8518828519837401F074B3
:103C23003828F582740839F583124DB3740B22A931
:103C33000A7F03020A8B74F41207D074F3120D8CFB
:103C43007508001211748A0A8B0BAE0AAF0BEE4F84
:103C5300601F123C9C123C2C120FE7124DA1121153
:103C63001A7C167D0079FFEEFAEFFB121CF0750843
:103C7300017A04790012114A8A0A903130E493FAE6
:103C8300C3E50A9AEB94005009900E3E7401F012BA
:103C93001534A908740D0253FB85188285198374A2
:103CA30001F08E828F83A3A32274F71207D0E9FC5D
:103CB30074FE6A700374FF6B7D007003802C0D1219
:103CC3003D0E5026ED123A0760F4127ABF6A700374
:103CD300A3E06B70E98012ED75F016A4F8A9F01259
:103CE3007AB26018E0640360130D123D0E5015ECB8
:103CF30060E5123E1960F2C3940550ED12721F1273
:103D0300619780047AFE7BFF024DCC903130E493BF
:103D1300F8EDC39822121186024941C082C083790B
:103D23000180F274F01207D08A0A8B0B7A047901AE
:103D330012114A8A0C8B0DEA450D6040EA2AFAEB10
:103D430033FB121DB68A088B09AE08AF09EE4F602C
:103D5300267AFE7BFF12118C74FE6A700374FF6B6C
:103D6300601E850882850983125068E5082402F5E0
:103D73000850E2050980DE750C0080047E007F0098
:103D8300850A82850B83E50C124F9C8005740D1206
:103D93000D0E7F08020A8BE493F8ECC39822127885
:103DA30082EC22E0F508A3E0F50922120D0E7F0C48
:103DB300020A8B7F07020A8B9031131239EFEE123E
:103DC300721612461E903115E493F874019322EE95
:103DD3002412123DE0F0EE2414123DE022F582E4B9
:103DE3003FF58374FEF0A30422E88E828F83A3A39E
:103DF300A3A3A3A3A3A3123E117401123E11A374A0
:103E0300AAF0EE2410F582E43FF583E4F022126E6B
:103E130081A3A3A3A322ED75F016A4F8A9F0123E83
:103E23002522743A28F582740812796E22A3F012BF
:103E33004F4FE4F0EE240CF582E43FF583E4F0A366
:103E4300F0A3F0A3F022C082C0837D008009EA249E
:103E5300FF1AEB34FFFB0D123D0E5016123E19C331
:103E6300940550F2EA4B70E6743628FA740839FB6D
:103E730080047A007B0002494174F71207D074F37F
:103E8300120D8C7E00023F14EF75F017A4F8A9F011
:103E9300127A9512628075F016A4FAABF074362A82
:103EA300F58274081264D27003A3E0696040EF7571
:103EB300F017A4F8AAF0EAF9127A9539F5831249B2
:103EC300027401120FE7E0687003A3E069601FEF5B
:103ED30075F017A4F8EAF9740628FC740A39FD741E
:103EE30003120FE7AA82AB83122626E96013EF754C
:103EF300F017A4F8A9F0740428FA740A39FB12160F
:103F0300660F903126E493F8EFC3985003023E8B7B
:103F13000E903130127604501FEE127AB8F470030B
:103F2300A3E0F460EB123C19120FE7124DA112113A
:103F330032E960DC7F0080CA024DC774F71207D0F4
:103F430074F3120D8C900415125A627003023FEA47
:103F5300750800802BE50875F016A4F8EAF9744A91
:103F630028F582740812796A64FE7003A3E0F46092
:103F73000D744828F582740839F5831260F005083A
:103F83009031301260B9505FE50875F016A4F8AAB5
:103F9300F0EAF9123E2160E6C3940350E174482825
:103FA300F5827408125A5F70ACE50875F016A4F830
:103FB300EAF9743628F8740839F9E8FEE9FF124083
:103FC3008812407E1209A5123C9C123C2C120FE76A
:103FD300124DA1121132E960A57403120FE7AA82F0
:103FE300AB831211808097024DC774F61207D0126B
:103FF300116E8A088B09A808A909E84960208882FC
:104003008983A3A3A3A3E06011C39403500CE82402
:1040130014F582E412619712402679018002790037
:10402300023B45E82412F582E439F583EAF0A3EB79
:10403300F02274F71207D0EAFEEBFF90040F125A36
:10404300626030900415125A626028900419125A63
:104053006260201273601209A5E970171240791289
:1040630009A5E96401700C8E828F83A3A312734D9B
:104073001209A5024DCC124088A3A3125A799004C9
:104083001512735722903115E493FC740193FD8E3E
:10409300828F8322C082C08390034F7414F0A37471
:1040A30014F002494174F71207D0EAFEEBFF9003C4
:1040B30085E06408601CE0640460178E828F83E0EF
:1040C300540364017041125E52F8124119E0640610
:1040D30070358E828F83A3A3E064FE7003A3E0F4A4
:1040E30060258E828F83A3A31268937003A3E06974
:1040F3007008EE241512688860051214C880031234
:1041030014CEE9F50880037508C2EEFAEFFB121D21
:10411300BCA908024DCCA3E0F58388822274F41273
:1041230007D08A088B091242E8FAE82AFAE4340035
:10413300FB121DB68A0A8B0BAE0AAF0BEE4F60550E
:10414300850882850983E0FC7D007900121CF08ECE
:10415300828F83A31236711215048E828F83A3A3D9
:10416300A3A3EAF0A3EB12419FF8EE28F8E43F1271
:1041730037CF850882850983A3E0C0E0126494D019
:10418300E0F012151612648AE91245FAE0C0E01253
:1041930045F0D0E0F0EEFAEFFB0253FEF085088223
:1041A300850983E02274F41207D074E8120D8C8A17
:1041B300088B098C0A8D0BE9FE900385E06404608B
:1041C30005E06408700479C2803CA37808120F816B
:1041D300EE90038C124316121CF085188285198306
:1041E3007808120F817405120FE7EEF07404120FB2
:1041F300E77401F07407120FE7E4F090038574028B
:10420300124DA51228CC0253F974F41207D074E8A6
:10421300120D8CEAFEEBFF900346125A6260030212
:1042230042E37A077B00121DB69003461250689052
:104233000346125A6270030242DF8E828F83120F8B
:10424300C4900346E0FCA3E0F5838C82120FD0EE0A
:104253002404F50AE43FF50B850A82F583E0C0E008
:10426300900346125A36A3A3A3D0E0F0EE2405F53B
:1042730008E43FF509850882F583E0C0E090034632
:10428300125A44D0E0124D9BC0E09003461242EC18
:10429300C82406F582E438F583D0E0124316121CD5
:1042A300F08E828F83120FC4851882851983120FB3
:1042B300D0850A82850B83E0C0E07405120FE7D036
:1042C300E012419FC0E07404120FE7D0E0F07407DE
:1042D300120FE7E4124DA51228CC80067910800254
:1042E30079010253F98A828B83E0F8A3E022C0822A
:1042F300C083900346125A62601090034612619A7B
:10430300121DBC900346E4F0A3F012143E121606ED
:10431300024941F07C187D007900AA18AB19227478
:10432300F71207D0E990034AF07A807B009003D01C
:10433300E0F9121E821211E67900024DCCC082C050
:104343008390034AE070031220AA1211E602494146
:1043530074F01207D090034AE0900E3D700FE060B6
:10436300057900121F72900E3DE4F0804AE064016B
:10437300600890034AE0F9121F72900E3D7401F039
:1043830090034AE0F46030E0F50CE4F50DF50EF52A
:104393000FF09080F47808120F90780C79081206C9
:1043A300E1780C120CF37A807B009003D0E0F912D1
:1043B3001E767404120D0E7A3D7B0E79411228B4D9
:1043C300023D9574F41207D074E8120D8C8A088BA1
:1043D300098C0A8D0BE9FE900385740112431612B2
:1043E3001CF08518828519837808120F81740512D1
:1043F3000FE7EEF07404120FE77403F07407120F63
:10440300E7E4124DA51228CC0253F974F71207D032
:104413007C011211FE024DCC74F71207D07C008090
:10442300F174F01207D074FC120D8CE985188285A3
:104433001983F0EAFEEBFF8C0A12787B1214328A9E
:10444300088B09EA4509700579CA0245EB8A828B14
:1044530083A3A3A3A3A3A3A3E064FE7003A3E0F435
:10446300700579C30245EB1215048A0C8B0DA80C59
:10447300A90D850882850983A3A3A3A3A3A3A3E00E
:10448300687003A3E069700579C20245EB9003836A
:10449300124902850882850983E0687003A3E069F5
:1044A3006012850882850983124767AA08AB0979D8
:1044B300501228B490038312619A12166C850882F5
:1044C300850983A3A3A3A3A3A3A3A3A3A3E0049006
:1044D300039612475312262C7402120FE77402F04C
:1044E30014120D6412156A8A0C8B0DAE0CAF0DEE0F
:1044F3004F70030245E11253827406F0A3A882A908
:10450300839003701265C0125E2F1214FE12505F67
:10451300EE2413125E321264807440F0A3E4124559
:10452300FAA3A3A3A3A31246171245F0E50A124F59
:104533009C1211BCE9F50B60030245E490038574FA
:1045430009F0E5082407FEE43509FFEEFAEFFB79ED
:104553004B1228B48E828F8312475D900378E0F864
:10456300851882851983E068600CE0900378124D0A
:10457300A579E11228B4900E9A124902900E9CE09C
:10458300687003A3E0696028900348124D96900E6B
:104593009C12619A12152E124604780C120CF37AAF
:1045A300017B009003D0E0F9121E767404120D0E05
:1045B3007A007B049003D0E0F9121E821246047441
:1045C30002780C120C7C780C120CF37A007B0490AA
:1045D30003D0E0F9121E767404120D0E8003750BDE
:1045E300109005A5E4F0A90B7404023D92EE24118A
:1045F300F582E43FF58322F0850882850983A3A32E
:1046030022900E9CE0F508A3E085080CF50DE4F577
:104613000EF50F221264CA12461E22E8F0A3E9F037
:104623002274F61207D074E2120D8C851882851954
:1046330083ECF0A3EDF0EAFEEBFF8908900385E03D
:1046430064046005E06408700579C202474E74296A
:10465300120FE7E064FE7003A3E0F4700579C30270
:10466300474E7C197D0079007405120D64121CF00D
:104673009003857403124DA579501228B47429123E
:104683000D64794B1228B485188285198312476704
:10469300E508900378F07429120FE712475D742838
:1046A300120FE7E0F50990037012475312262C749A
:1046B300CE55094480C0E0741D120FE7D0E0F074BA
:1046C3002B120FE7E004900396F0741A120FE774AD
:1046D30002F07429120FE71249027412120FE7E86D
:1046E300F0A3E91248FB741B120FE7124D967410E6
:1046F300120FE7E508F0740D120FE7E4F090038B57
:10470300740FF07A8B7B0379541228B490038A7464
:104713000FF07A8A7B0379471228B490038AE0C3A7
:10472300940F501F7410120FE7E0C0E07402120FD1
:10473300E7D0E0F07404120FE77401F004120D6483
:104743001228D87405120D641228BA741E023B4253
:10475300F0EEFCEFFD7A977B0322124DB3900379C1
:1047630012461E2212724012461E2274F71207D0FE
:10477300EB90038DF0121420024DCC74F71207D086
:1047830074E9120D8CEAFEEBFF7508008E828F83AD
:10479300A3A3A3E0C0E07406120FE7D0E0123CA489
:1047A300E0C0E07408120FE7D0E0F07409120FE7DD
:1047B30074011248F5125A62600D8E828F83126162
:1047C3009A121102E970357407120FE7E4F012141C
:1047D300FE7404120FE7125068900385E0640470BE
:1047E3000E12150A7402120FE7EAF0A3EB80487465
:1047F30002120FE774FDF0A374FF803BAC18AD19F0
:104803008E828F8312619A1211148E828F83A3A3D7
:10481300A3A3E070307407120FE774011248FB740E
:1048230002120FE7124D968E828F8312490274048F
:10483300120FE7E8F0A3E9F07402120D64121552A7
:10484300E9F508803E1248FC740A120FE7124D96F0
:104853007414120FE7123CA2A3E0C0E07415120F08
:10486300E7D0E0F07416120FE71248F412787E7462
:104873000C120FE7AA82AB8312262C740A120D6462
:10488300121F8AA9087417024DC974F71207D0744E
:10489300F8120D8CEAFEEBFF7900900385E06408C3
:1048A3006005E06404704585188285198374FDF002
:1048B300A374FFF01214FE7402120FE7125068740F
:1048C30005120FE71248F4A3E0C0E07404120FE7E7
:1048D300D0E01248F5E0C0E07406120FE7D0E0F034
:1048E3007407120FE7E4124DA51215527408024D16
:1048F300C9E4F08E828F8322F08518828519831292
:104903004DB322C082C08390035774CAF0A37412BC
:10491300F09003FD74ACF0A37415F090035B740086
:10492300F0A37413F090035D74CAF0A37412F090B3
:10493300035F7406F0A37413F0800312117AD0831B
:10494300D082020CC074F41207D074F9120D8C8A51
:10495300088B098C0A8D0B851882851983780812B8
:104963000F817404120FE7E9F07405120FE7E4F006
:104973007406120FE7E4124DA51211CE7407025309
:10498300FB74F51207D08A088B098A828B8312760F
:10499300B5EE4F7003024B3C900314125A6260153C
:1049A3008A828B83A3A3E0F9EEFAEFFB900315123F
:1049B300411A1209A58E828F83A3A3A3A3A3A3A342
:1049C300A3A3E064026003024AA58E828F83A3A39C
:1049D300A3A3A3A3E054027003024AC985088285F6
:1049E3000983A3A3E064E97003024AC985088285A9
:1049F3000983A3A3E064CD7003024AC985088285B5
:104A03000983A3A3E064F07003024AC98E828F83F3
:104A1300A3A3A3A3A3A3A3A3A3A3E07016900EB27F
:104A2300E0048E828F83A3A3A3A3A3A3A3A3A3A31F
:104A3300F08010124B4D121582E970077A307B011A
:104A4300122284850882850983A3A3E0701F750A57
:104A53000080097A367B01122284050A8508828543
:104A63000983A3A3A3E0F8E50AC39840E68E828FE7
:104A730083A3A3A3A3A3A3A3A3126E75A3A3A3A317
:104A83007404F0900EB31264C4E8124B3F121E88F4
:104A9300EA4B4C4D700C7A207B009003D0E0F91266
:104AA3001D4A8E828F83A3A3A3A3A3A3A3A3A3E0DF
:104AB300640260128E828F83A3A3A3A3A3A3A3A3E1
:104AC300A3E0640670738E828F83A3A3A3A3A3A31F
:104AD300E0A2E05064850882850983A3A3E0F9EE90
:104AE300FAEFFB122A2E8E828F83A3A3A3A3A3A381
:104AF300E054FEF0124B4D121582E98508828509B8
:104B030083A3A3702AE070237A2F7B011222847E71
:104B130000850882850983A3A3A3E0F8EEC3985018
:104B2300187A367B011222840E80E67A318005E002
:104B330070077A2D7B01122284023C34F0A3E9F042
:104B43007A207B009003D0E0F9228E828F83127348
:104B530057125A792274EC1207D074DB120D8CEAC7
:104B6300FEEBFF8C108D11750E007405120D6C1287
:104B7300105A7412120FE7E070087415120FE7E071
:104B830060207405120FE7E0A2E6501B8E828F832C
:104B9300A3A3A3A3A3A3A3A3A312619A121582E9B8
:104BA30060057A35024CA17405120FE7E0540C64DA
:104BB300047005750D018003750D00E0A2E550300A
:104BC300750E01E50DA2E040271215048A088B0932
:104BD300A808A909125E52687003A3E06960117402
:104BE30005120D6C1268A212292CE96003024C9F76
:104BF3007405120FE7E0A2E650227406120FE7E0F5
:104C0300540370187405120FE7E0540C640C600C25
:104C1300E0540C64086005750C018003750C007486
:104C230005120FE7E05403F8740268700E7405125E
:104C33000D6C1268A212106C024D8B7401687041E6
:104C4300E50CA2E0500B7405120D6C1268A2121051
:104C5300607405120D5C7403120FE7E8F0A3E91208
:104C63004DAB851882851983E8F0A3E9124D9BC0EB
:104C7300E07402120FE7D0E0124DA5122AA0024DF4
:104C83008BE86003024D8B90036DE0640170178E17
:104C9300828F83A3A3A3A3A3A3E0700A7A347B0127
:104CA300122284024D8B7424120FE77402124DAB4F
:104CB300741C120FE7124D96E50CA2E0500B74051D
:104CC300120D6C1268A21210607439120FE7780883
:104CD300120F90E50DA2E0EE5072240F126888C007
:104CE300E07417120FE7D0E0F0900316125A6270C7
:104CF30003024D8B1215048A128B13A812A9137485
:104D03001C120FE7E0687003A3E069707B78081258
:104D13000CF3E50EF5087808120CFF8E828F83A33F
:104D2300A3A3A3E0F5087808120CFF7810120CFB7C
:104D3300A90C740D120D6C7424120D6490031612D9
:104D4300620C1209A57408120D0E803C126886F5D8
:104D53000C780C120CFF7808120CF3E50EF50878AA
:104D630008120CFF7810120CFB900383120B4AEE0F
:104D73002412126888F97426120D6C740F120D64D4
:104D8300122A0A740A120D0E7425023DAEA3A3A3C0
:104D9300A3A3A3E812461F22126E7DA3E022E8F02C
:104DA300A3E9F0AA18AB1922F0124F4F124DB32208
:104DB300124DB722E0F8A3E0F92274F71207D012DC
:104DC3001F548005740D120D0E7F01020A8B74F7B8
:104DD3001207D0121F6680F1C082C083121F6002C7
:104DE300494174F71207D0121F6C80DD74F7120764
:104DF300D07409120FE7E0F5087808120CFF121FB0
:104E03007E740180C1C082C083121F8A024941C0DF
:104E130082C083121F9002494174F71207D0121FF8
:104E23009680A674F71207D0EAFEEBFF8908740197
:104E3300650870147900121342903124E493FC79CD
:104E430000EEFAEFFB1212B8024DCC74F71207D042
:104E5300121F84024DCC74F41207D074F9120D8C16
:104E6300E9FE8A088B098C0A8D0B9005F9125A62A8
:104E7300602BEE851882851983F07401120FE77891
:104E830008120F817413120FE71249027405120FEF
:104E9300E7124DA19005F912620C1209A502497F90
:104EA30074F71207D0121FA2024DCC74F71207D069
:104EB300900E40E0F97E00800B12511E540D6401E8
:104EC3007001190E1250B55003E970ED024DCC7408
:104ED300F71207D0900E41E0F97E00800B12511EAD
:104EE300548D64817001190E1250B55003E970EDB1
:104EF300024DCC74F21207D0890BE975F006A4A910
:104F0300F0240CF508E439F509E5082AFAE4350933
:104F1300FB121DB68A0C8B0DAE0CAF0DEE4F60214C
:104F2300AC08AD097900121CF0124F4BE50BF0EE03
:104F33002508F8EF3509F98E828F83A3A3A3124DB9
:104F430090EEFAEFFB0260FD124F4F22EE1268B1B2
:104F53003FF5832274F61207D0EAFEEBFF12129498
:104F6300900E3FE0F8E9C398400990035312619A09
:104F730012129AEE2402F8E43FF988088909900393
:104F8300551265C0900355E004124F9C1212A08580
:104F93000882850983E0023388F0EEFAEFFB22C032
:104FA30082C083790090035380010912619A8A8237
:104FB3008B83E582458370F202494174F71207D06F
:104FC300EAFEEBFFEE4F605A900353125A626052AF
:104FD300888289837A007B00EE65827003EF6583A4
:104FE3006013AA82AB8312490288828983E58245D2
:104FF30083602F80E3900353126283687002EF692A
:105003008E828F83700812490290035380031273B8
:1050130045124D96EEFAEFFB122A70EEFAEFFB12F1
:105023001DBC024DCCC082C0839003538004888290
:105033008983125A62600A88828983123DA14D7066
:10504300ED8A828B83E4F0A3F0E8496006888289C5
:10505300838003900353125068024941EE241AF5EA
:1050630082E43FF583EAF0A3EBF022125A79EA4B8C
:105073002274F71207D090035380048A828B831221
:10508300506E60277E0080010E1250B550EDEE7514
:10509300F006A4FCADF0EA2CFCEB3DFDEC2410F58E
:1050A30082E43DF583E06970DF80047A007B0002CF
:1050B3004DCC125114EEC3982274F71207D07D0021
:1050C30080010D125110EDC398503BED75F006A40D
:1050D300FEA8F0E8FFEA2EFEEB3FFFEE2410126875
:1050E300886970DEED75F006A4FEE8FFEA2EFAEBA0
:1050F3003FFBEA2411F582E41261BF4CF0EA240C71
:10510300FA50070B80047A007B00024DCC12511435
:1051130022EA1268B13BF583E0F822EE75F006A4AB
:10512300FCADF0EA2CFCEB3DFDEC2411F582E43DF3
:10513300F583E02274F61207D01213AE7B008016BB
:10514300EB75F006A4F8A9F01265EEE41251CCF069
:10515300A31265B6F00B9031291264A140E27A00E4
:1051630080168A0875090074037808120E8112608C
:10517300C11264BFA3E4F00A903136E493F8EAC3A2
:105183009840DF7900801A8908750900740378084C
:10519300120E81742C1276BD740D1274F6123672CF
:1051A30009903134126CC440DE903122E4939003B1
:1051B30061F09080F4120B467A107B009003D0E0EC
:1051C300F9121E7C7404023B42126CD2A32274F0C7
:1051D3001207D074F5120D8C8A088B09890A8C0B7F
:1051E300E9A2E050147508FC7509FFA2E15005D24D
:1051F300E402529AD2E302529A1213968A0C8B0D4E
:10520300A80CA90D900376E0687003A3E069600E13
:10521300AC0A7902AA08AB09121390E97005790068
:1052230002536BE50AF50C780C120CFF79027CFE35
:105233007DFFAA08AB0912130C7401120D0EE9606D
:1052430003025369E50AC2E5F50A9003C3E0704916
:10525300E50AA2E640437403120D6CAA08AB0912D7
:10526300110EE9702E125A3D1216488A0C8B0DAEA0
:105273000CAF0DEE4F6022EE2402FAE43FFB121155
:1052830002E96015EE2402FCE43FFD7403120D6491
:1052930012262CE50AD2E5F50A900356E0F50C90A8
:1052A300037612552D780E120CFB7D017C009003C2
:1052B30056E0F9AA0EAB0F12134E7402120D0EE94B
:1052C300F8900356E004F0E86003025369E50AA28C
:1052D300E55004740E80027406C0E07401120FE7F7
:1052E300D0E0124DA512156A8A0E8B0FAE0EAF0FCA
:1052F300EE4F606E125E2F1214FE12505F12538235
:105303007401F07478550AA31278E7E50C1278E774
:10531300A3E508F0E509125370E4F0E50AA2E550AD
:105323000F7403120D6CE82406FAE439FB12262CE1
:105333008E828F83A3A374FDF0A374FFF0E50B604B
:1053430018903125E493F8E50BC398500CEE241321
:10535300F582E43FF583E50BF0EEFAEFFB1211BCA7
:1053630080067910800279C7740B023D9288828986
:1053730083A3A3A3A312537C22126CD6A3A322EE6E
:105383001268AD3F12538B22F583124DB788828981
:10539300832274F41207D07A007B109003D0E0F9D3
:1053A300121E88EA4B4C4D60089003E27401F080B2
:1053B30043900719E06401900EAF7006E0FC790199
:1053C3008004E0FC79037A007B001212B890311953
:1053D300E493F508740193F509E4F50AF50B7808ED
:1053E300120CF37A007B109003D0E0F9121E76744E
:1053F30004120D0E80057418120D0E7F04020A8B21
:1054030074F01207D08A088B098C0A8D0B890C1251
:105413001582E960057AFF0254F1900EAEE0640252
:10542300600302551D90311CE493F9AA08AB0912DD
:1054330013C0E960030255177900AA08AB091213D8
:1054430096A90C12138A8A0E8B0FAE0EAF0FEE4F76
:1054530070030255038E828F83A3A3A3A3A3126BAE
:10546300DA707312619A8E828F83A3A3A3A3A3A37B
:10547300E05418604D903123E4938E828F83A3A36D
:10548300A3A3F07410120FE712787E7412120FE7C1
:1054930012552DEA650A7003EB650B6012EA6C7016
:1054A30002EB6D600AEA650E7003EB650F701B7803
:1054B3000E120CFBAA0AAB0B1216847402120D0E09
:1054C3008008900375126E6CA3F074FE6A70037407
:1054D300FF6B601E8051A3A3A3E06403602A8E8246
:1054E3008F83A3A3A3A3A3E0640470067AFE7BFFC8
:1054F30080358E828F83A3A3A3A3A3E064027008E5
:105503009003C2E0640270127907AA08AB09121370
:10551300C0E96006AA08AB09800DAA08AB0990038D
:105523005712620C1209A5023D95E0F50EA3E0F5B2
:105533000F2274F71207D0EAFEEBFF12115CE97039
:105543000AEEFAEFFB121168E96006EEFAEFFB8050
:10555300047AFE7BFF024DCC74EE1207D08A0A8BCD
:105563000B8C0C8D0D890E750800121582E97900DC
:1055730060030256C1AA0AAB0B121396A90E1213AB
:105583008A8A108B11AE10AF11EE4F60198E828F85
:1055930083A3A3A3A3A3E0640270529003C2E064B5
:1055A3000270030256BFAA0AAB0B1262091209A5C5
:1055B30012116E8A108B11A810A911E84970030209
:1055C30056BF88828983A3A3A3A3A3E0A2E04003D9
:1055D3000256BF750901A2E1504B7901AC0AAD0B2C
:1055E300AA0CAB0D1212E8E970470256BF8E828FE8
:1055F30083A3A3A3A3A3E0640360258E828F83A365
:10560300A3A3A3A3E0640160030256BF79078E82BC
:105613008F83A3A312619A1213C0E960030256BFDA
:10562300750902801088828983A3A3A3A3A3D2E16F
:10563300F0EE4F603A8E828F83A3A3A3A3A3A3E0CC
:105643005418602B7508018E828F83A3A3120B4A13
:105653007510FE7511FF7810120CFB7900AC0AADC2
:105663000BAA0CAB0D1213A27404120D0E804D790C
:1056730000AA0CAB0D1213968A108B11A810A91156
:10568300900376E0687003A3E0697014903124E41A
:1056930093FCA90EAA0AAB0B1212B8750801801C61
:1056A300A909AC0AAD0BAA0CAB0D1212E8E9700CF8
:1056B300750801A90EAA0AAB0B121342A9088003AD
:1056C300120D0E7F0A020A8B74EB1207D074F012CC
:1056D3000D8C8A0C8B0D8C088D09751206900403B2
:1056E300125A626017125A3D1216728A108B11EA0F
:1056F300451160088A828B83A3E06068E50C241D52
:10570300F50EE4350DF50F850E82125C59F51488FC
:10571300828983A3A3A3E0FA88828983A3A3A3A393
:10572300E0F8E4C8F9EA28FEE439FFAA08AB091255
:105733001348850E82850F83125A44E029F50BE541
:105743000AA2E5500375120E7487550A700F741878
:10575300550A64186007125A276512600C7AD37BC6
:10576300001222847900025A11530A78C3EE94F886
:10577300EF94FF50247900EEFAEFFB12138A8A0E9E
:105783008B0FA80EA90FE849600F88828983A3A312
:10579300A3A3A3A3E0541870CB7808120CFB7D00DD
:1057A300AC0BA914125A6E12134E7402120D0EE9A9
:1057B300F874036860AE7425120FE71276C26003B3
:1057C3000258887418550A7003025943E50AD2E057
:1057D300F50AA2E45004D2E1F50AA90A125A6E129C
:1057E300138A8A128B13A812A913E849605C888272
:1057F3008983A3A3A3A3A3A3E05418604D8882893C
:1058030083A3A3A3A3A3E06401703FE51045116044
:105813003912787B88828983A3A312619A12167244
:105823008A128B13A812A913E849601E8882898300
:10583300A3E06016851082851183A3E0FA8882892C
:1058430083A3E0C39A5003025767E50AF510781063
:10585300120CFF125A6812130C7401120D0EE97028
:10586300247C007D00850E82850F8374FFF0125E19
:105873004AA3A3A3E06006125A1B12787EA90B1257
:105883005A6E12126A850E82850F83E0F47003A3A9
:10589300E0F4603C9003C2E06402700302576712B5
:1058A3005A6E90035912620C1209A5EA6508700337
:1058B300EB65096003025767EEFAEFFB9003591299
:1058C300620C1209A5850E82850F83EAF0A3EBF023
:1058D3007808120CFB7D01AC0BA914125A6E12133B
:1058E3004E7402120D0EA90AEEFAEFFB1213968AFA
:1058F300088B09A808A909900376E0687003A3E060
:10590300696003025A03EEFAEFFB12116E8A088BE9
:1059130009A808A909E849606F88828983A3A3A31A
:10592300A3E06401600D88828983A3A3A3A3E06439
:10593300027055AC18AD19EEFAEFFB12110E80563A
:1059430090036FE06014E50AF5107810120CFF1253
:105953005A6812130C7401120D0EE50AF510781033
:10596300120CFF79027CFE7DFFEEFAEFFB12130CA3
:105973007401120D0EE96003025888850E82850FAB
:105983008374FFF0A30258D21214FEEAFCEBFDAAC3
:1059930018AB1912262C850C82850D83A3A3A3A310
:1059A300A3A3A3A3E06401700E125A1B12787E74A2
:1059B30008120D6412262C125C41125A34E0443052
:1059C300F5087808120CFF7401120D5C8808890928
:1059D3007808120CFB740B120D5C8808890978088F
:1059E300120CFBE514F5087808120CFF7900EEFCA5
:1059F300EFFD125A6E1212E27406120D0E02576771
:105A0300125C41F583125A44E50BF012151674101B
:105A1300120D0E7F0D020A8BE50C2415F582E43579
:105A23000DF58322E50C2417F582E4350DF583E0AB
:105A330022F583E0F8124119A322900383125C75C7
:105A430022127357A3A3A3A3A322E50D75F006A403
:105A5300F8AAF0EAF9749028F582740C39F58312E8
:105A63004DB3E849227901AC08AD091268AB350D95
:105A7300125A7722F583E0FAA3E0FB2274EE1207B1
:105A8300D074F0120D8C8A0C8B0DECFAEDFB750FB4
:105A930008900403125A62603112787B1216728ADC
:105AA300088B09AC08AD09EC4D601F8C828D83A374
:105AB300E070171264B45001097A027B001205F1F9
:105AC300E88C828D83F0A37407F0125C41125C5959
:105AD300F50E88828983125C4BE0FAE4CAFBEC2A58
:105AE300FEE43BFF88828983A3A3125C4BA3A3E05C
:105AF300FBECF508E43BF50988828983A3A3A3A300
:105B0300A3A3A3E0F50BE50AA2E45003750F10A2CB
:105B1300E550067408250FF50F748F550A700712A8
:105B23005A27650F600A7AD37B00122284025C3CF9
:105B3300530A707800E50AA2E4501FE50C241D12F5
