:020000040000FA
:06000000020B240202289D
:03002B0002084484
:0300530002015C4B
:03006B0002043F4D
:03007B0002047A02
:100083000201BC01FF01050301F724000000002D5C
:100093002400000000FF000000FF00010000F01337
:1000A300000000000000C214000000000000D21392
:1000B300000000000000000000000000000000003D
:1000C3000000000000000000FFFF010101005005D7
:1000D3000000008813FFFFA405881364006400B8C0
:1000E300010202000800000502070401051E0205C3
:1000F3001E020A0A0103B80B02803E0102FEFFE85A
:10010300030A050001FFFF020A1401E00020FD00BD
:10011300020612FF01040C00000001C61FCC1F00E1
:100123000000000000D21F000000000000000000DB
:10013300000000000000000000000010202020202C
:100143002020202020202020202020200101040125
:10015300000000028980036880C0E074F11204A4E7
:10016300A2AFE433FED2AFE5A7FFE5A1F5085FF543
:1001730009741055096006121B7075A1EF740855B8
:10018300096008121B7675A1F78024E508A2E092A6
:10019300F0EFA2E082F05017906198E0F89006F239
:1001A300E0C398A2D265D0335002E8F075A1FEEE09
:1001B300A2E092AF7F02020503C0E074F21204A42E
:1001C300A2AFE433FED2AF9061A4E0F8759B00E5E3
:1001D3009158540860087591F7121BBE8023E5916E
:1001E30058541060087591EF121BC48014E591A256
:1001F300E092F0E8A2E082F05007E0C2E0F0121DC6
:100203000E9061A3E0F8E5E9585404600E121CE473
:1002130075E9FB906193E0A2E640F2EEA2E092AFB3
:100223007F01020503C0E074F21204A4A2AFE43319
:10023300FED2AF9061A5E0F8E5BF5854046006759F
:10024300BFFB121D2680D4C3E498F8E499F9120287
:100253008B8026C3E49AFAE49BFBE920E7E91202C8
:100263008BE498F8E499F922C3E498F8E499F91235
:10027300028BE498F8E499F9C3E49AFAE49BFB222D
:10028300EB20E7CFE920E7E0B90010BB0008E88ADC
:10029300F084F8AAF022E4FBC8FA22EB70227B1068
:1002A300C833C8C933C9335007C39AC3DBF28006C6
:1002B3009A50012ADBEAC833F4C8C933F4C9FA22D5
:1002C30075F008E4C833C8C933C933C99AC99B5008
:1002D30004C92AC93BD5F0ECFBC833F4C8E4C9FA16
:1002E30022080808EAC0E0EBC0E086F0E7A4FA18A9
:1002F3000986F0E7A42AFA180986F0E7A42AFA186F
:100303000986F0E7A42AFA1986F0E7A4FBE5F02AA8
:10031300FA190886F0E7A42BFBE5F03AFA190886E8
:10032300F0E7A42BFBE5F03AFA18180986F0E7A4E6
:10033300C5F02BFBE43AFA1908E7C5F0C6A426F684
:10034300E5F03BFBE43AFA1886F0E7A4F6E5F0089B
:1003530026F6E43B08F6E43A08F6D0E0FBD0E0FAF0
:1003630022E4CFC0E0E4CEC0E0E4CDC0E0E4CCC002
:10037300E075F020E626F608E633F608E633F608DD
:10038300E633F6181818EC33FCED33FDEE33FEEFCD
:1003930033FFC3EC9709ED9709EE9709EF97191906
:1003A30019400FFFEC97FC09ED97FD09EE97FE1935
:1003B3001906D5F0BFECF709EDF709EEF709EFF7EA
:1003C300191919D0E0FCD0E0FDD0E0FED0E0FF2207
:1003D3002518C582C0E0E51934FFC583C0E0E518E0
:1003E300C3958224F810AF08858319858218800885
:1003F300858319858218D2AFCEF0A3E520F0A378C8
:1004030008E608F0A3DEFAEFF0A3E58124FAF8E6A4
:1004130008F0A3E608F0A3E608F0A30808E608F04E
:10042300A3E608F0A315811581D0E0FED0E0F8150E
:100433008115811581E8C0E0EEC0E022C0E074F2CE
:100443001204A4A2AFE433FED2AFE589A2E1400CCB
:10045300E589A2E44006E589A2E55003121AE07596
:100463008900758900758900758900C2C5EEA2E00F
:1004730092AF7F01020503C0E074F21204A4A2AF9D
:10048300E433FED2AFE58AA2E14006E58AA2E25058
:1004930003121AE0758A00758A00758A00C2EB8020
:1004A300CCC0D02518C582C0E0E51934FFC583C090
:1004B300E0E518C3958224F310AF0885831985827C
:1004C300188008858319858218D2AFC8F0A3E9F094
:1004D300A3EAF0A3EBF0A37908E709F0A3D8FAECB9
:1004E300F0A3EDF0A3EEF0A3EFF0A3D0E0F0A3D0E0
:1004F300E0F0A3D0E0F0A3E520F0A3E5F0F0A32221
:10050300851983851882E0C0E0A3E0F9A3E0FAA38C
:10051300E0FBA37808E0F608A3DFFAE0FCA3E0FD24
:10052300A3E0FEA3E0FFA3E0C0E0A3E0C0E0A3E0FC
:10053300F5D0A3E0F520A3E0A3F5F010AF08858381
:10054300198582188008858319858218D2AFD082D5
:10055300D083D0E0F8D0E032120B9EB9000302053D
:100563009AE4900301781F790A8002F0A3D8FCD99A
:10057300FA7A1F7B0C90008678D779018015E49373
:10058300A3AD82AE838A828B83F0A3AA82AB838DD1
:10059300828E83D8E9D9E77582AA75839F74041282
:1005A30008C27582C475832174001208C275F010E5
:1005B3008E1A8F1B85821F85831E8518828519835A
:1005C300E0CEA3E0CF851F82851E83EBC9EAC8ED89
:1005D300CBECCAC3E833C8E933C9EA33CAEB33CB3C
:1005E300C3EA9EF51DEB9FF51CB35004AB1CAA1D7B
:1005F300EC33CCED33CDD5F0DAAE1AAF1B22D0837A
:10060300D082ECC0E0EDC0E0E493A3FCE493A3FD4F
:10061300ED4C600D1206D9EC24FFFCED34FFFD8098
:10062300EFE493A3FCE493A3FDED4C600D1207AC40
:10063300EC24FFFCED34FFFD80EFD0E0FDD0E0FCC7
:10064300E493A3C0E0E493C0E02285198385188274
:10065300E0A3FEE0A3F5207808E0A3F608DFFAE0C4
:10066300A3FFE0A3C0E0E0A3C0E0E0A3C0E0E0A3F9
:10067300C0E0E0A3C0E010AF08858218858319802D
:1006830008858218858319D2AFD083D0820208C827
:10069300D083D082E9C0E0E493A3C386F0C5F0958C
:1006A300F0F908E493A386F0C5F095F0700BE4939A
:1006B300A3C3994005E9048002A3E475F002A425CD
:1006C30082F582E5F03583F583D0E0F9E493A3C0A6
:1006D300E0E493C0E022C0E0C3E49396087401937E
:1006E3009618400FE49366700808740193661870B7
:1006F300007019A3A3C3E49396087401939618A3F7
:10070300A3400DD0E0D0E0D0E002063DA3A3A3A315
:10071300A3A3D0E022D083D082C5F0E493A3C5F095
:10072300C395F0F5F0E493A3C395F04005E5F00419
:100733008001E475F002A42582F582E5F03583F5A6
:1007430083E493A3C0E0E493C0E0227404800474C0
:10075300028000CCC0E0EDC0E0E518C39CCCAD192D
:1007630050011D10AF068C188D1980068C188D1939
:10077300D2AF120823D0E0FDD0E0FC227402800047
:10078300CCC0E0EDC0E0E518C39CCCAD1950011D11
:1007930010AF068C188D1980068C188D19D2AF12E4
:1007A3000801D0E0FDD0E0FC22C0E0C0F088F0E416
:1007B300936670080874019366187000A8F0A3A3E9
:1007C300700BD0F0D0E0D0E0D0E002063DA3A3D080
:1007D300F0D0E022D083D082CCC0E0E493A36006C3
:1007E3001208A31470FAE493A36006120994147018
:1007F300FAD0E0FCE493A3C0E0E493C0E022CAC0D3
:10080300E0E493A3C582CCC582C583CDC583F0A3A1
:10081300C582CCC582C583CDC583DAE5D0E0CA22C3
:10082300CAC0E0E0A3C582CCC582C583CDC583F031
:10083300A3C582CCC582C583CDC583DAE6D0E0CA21
:1008430022C0E0C0D0E8C0E0E9C0E0E5A8D2AFC272
:10085300C7A2E7A2E792AFD0E0F9D0E0F8D0D0D0BA
:10086300E0327009080808226016181818C6C33346
:10087300C608C633C608C633C608C633C6D5E0EABB
:1008830022C008C3E096F50808A3E096420808A32F
:10089300E096420808A3E09645087001D3D00822E9
:1008A300C0E0E493A3D39C5010E493A3C39C400AF9
:1008B300D0E0D0E0D0E00207F4A3A3A3D0E022C0AD
:1008C3009FF59FE473D09F22D083D082C09FE4938F
:1008D300C0E0740193C0E0740293F59F222518F5DC
:1008E3008210AF08F518400C15198008F51840025E
:1008F3001519D2AF8519832200C0D0251810AF086F
:10090300F518500C05198008F51850020519D2AFD7
:10091300D0D0227404800A740380067402800274A7
:1009230001C0E0F4041208E0D0E0120B6122BB0125
:1009330002E722C082C08389828A83BB0003E080EE
:1009430002E493D083D082226016080808C6C3133A
:10095300C618C613C618C613C618C613C6D5E0EA0A
:1009630022C3E0C696F608A3E0C696F608A3E0C63F
:1009730096F608A3E0C696F6222518F8E43519F989
:10098300222518FAE43519FB222518FCE43519FD54
:1009930022C0E0E493A36C7009D0E0D0E0D0E00281
:1009A30007F4A3A3D0E022251810AF08F518400CD4
:1009B30015198008F51840021519D2AF22E06670A8
:1009C3001008A3E066700A08A3E066700408A3E0B9
:1009D3006622C3E09608A3E09608A3E09608A3E086
:1009E30096A2D265D03322E76670100809E76670D5
:1009F3000A0809E76670040809E76622C3E096F06F
:100A030008A3E096F008A3E096F008A3E096F0228E
:100A1300C3E697F60809E697F60809E697F6080984
:100A2300E697F622C3E4939608740193960874023A
:100A33009396087403939622E627F60809E637F699
:100A43000809E637F60809E637F622700422600D36
:100A530018C6C333C608C633C6D5E0F41822E64722
:100A6300F60809E647F60809E647F60809E647F6F1
:100A730022E657F60809E657F60809E657F6080985
:100A8300E657F622E056F608A3E056F608A3E0562A
:100A9300F608A3E056F622E056F008A3E056F00865
:100AA300A3E056F008A3E056F022E026F608A3E000
:100AB30036F608A3E036F608A3E036F622E026F081
:100AC30008A3E036F008A3E036F008A3E036F022EE
:100AD300E4C396F608E496F608E496F608E496F678
:100AE30022600D08C6A2E713C618C613C6D5E0F3E5
:100AF30022C6F4C608C6F4C608C6F4C608C6F4C6B9
:100B030022C3E7960809E7960809E7960809E796D6
:100B130022C3E09608A3E09608A3E09608A3E09614
:100B23002275D00075813F75180175190300020500
:100B33005BE6F008A3E6F008A3E6F008A3E6F022DC
:100B4300600C08C6C313C618C613C6D5E0F422E06A
:100B5300F608A3E0F608A3E0F608A3E0F622CAC06D
:100B6300E0E6F0A308DAFAD0E0FA22E8F0A3E9F02D
:100B7300A3EAF0A3EBF022E0F8A3E0F9A3E0FAA3E1
:100B8300E0FB22EAF0A3EBF0A3ECF0A3EDF022E00C
:100B9300FAA3E0FBA3E0FCA3E0FD22E5C754F8447D
:100BA30001F5C77901222518F582E43519F5832269
:100BB300C2AF75D69F020000221208CB0351001268
:100BC30008CB4B53001208CB3D55001208CB1C56E3
:100BD300001208CB5E57001208CB195A001208CB3B
:100BE300035D001208CB125D001208CBAB5D00124F
:100BF30008CBF25D001208CB795E001208CBFA60D5
:100C0300001208CB4E62001208CBE162001208CB3F
:100C13006E63001208CB9263001208CB4A64001281
:100C230008CBFB64001208CB7866001208CBB766CA
:100C3300001208CB2D67001208CB8268001208CB84
:100C43002569001208CB5969001208CB716900129B
:100C530008CB146A001208CB9C6C001208CB3D6EC3
:100C6300001208CB626E001208CB806E001208CB14
:100C7300506F001208CBA572001208CB63AB0212AF
:100C830008CBBDAB021208CB27AC021208CBB0AC29
:100C9300021208CB6CAD021208CBFBAD021208CBDB
:100CA30014AE021208CB39AE021208CB58AE0212B0
:100CB30008CB96AE021208CBE5AE021208CB0EAFFC
:100CC300021208CB5DAF021208CB09B0021208CBA7
:100CD300D1B0021208CB36B1021208CB0FB2021206
:100CE30008CBEEB2021208CBFDB2021208CB08B356
:100CF300021208CBFAB3021208CB0BB4021208CBD0
:100D030083B4021208CB0BB5021208CB6FB50212E3
:100D130008CB54B6021208CB85B6021208CBA3B691
:100D2300021208CB16B7021208CB5EB7021208CB29
:100D33006BB7021208CB74B7021208CB74B9021254
:100D430008CBC1BA021208CB40BB021208CB14BDB8
:100D5300021208CB71BF021208CB85BF021208CB67
:100D63008FBF021208CB99BF021208CBA3BF021296
:100D730008CBADBF021208CBB7BF021208CBE6BF48
:100D8300021208CB1CC0021208CB27C0021208CBE8
:100D93004BC0021208CB6FC0021208CBD0C00212A4
:100DA30008CB1BC1021208CB37C1021208CBA1C169
:100DB300021208CBEDC1021208CB35C2021208CBD6
:100DC300B5C2021208CB79C4021208CB35C5021290
:100DD30008CBFEC5021208CB8AC8021208CBDFC8B3
:100DE300021208CB07C9021208CB2ECA021208CB83
:100DF30072CA021208CBC2CA021208CB77CB021204
:100E030008CB21CC021208CB95CC021208CB35CDEE
:100E1300021208CBC7CD021208CBE380011208CB24
:100E23001581011208CB2283011208CB75830112AD
:100E330008CBBB83011208CB4E84011208CBB384C9
:100E4300011208CBF384011208CB5886011208CB98
:100E53005487011208CB1E8B011208CBB98B0112E8
:100E630008CBB98C011208CB1C8D011208CB488E1C
:100E7300011208CBDA90011208CB6691011208CB5C
:100E83007091011208CB9D91011208CB709201124F
:100E930008CB2E93011208CB5793011208CB8493EE
:100EA300011208CBC195011208CB9596011208CB0C
:100EB300D496011208CB5597011208CB179801124B
:100EC30008CB4998011208CB9098011208CBCC9813
:100ED300011208CB1B99011208CB6F99011208CBA1
:100EE300E999011208CB4E9A011208CBB59A011267
:100EF30008CB3F9C011208CB0C9D011208CB1E9E10
:100F0300011208CB14A1011208CB5BA3011208CB79
:100F1300FEA3011208CB3CA4011208CB15A60112B3
:100F230008CB28A6011208CB31A6011208CB3AA69A
:100F3300011208CB4FA6011208CB6EA6011208CBF3
:100F43001FA7011208CB72A7011208CB7CA70112BD
:100F530008CBFEA7011208CBABA8011208CBBAA994
:100F6300011208CBD2AA011208CBCAAB011208CBDB
:100F7300E1AB011208CB1EAC011208CB3CAC011251
:100F830008CB8FAC011208CBC1AC011208CB61AD09
:100F9300011208CB6CAE011208CBF5AE011208CBDF
:100FA3006FAF011208CB0BB0011208CB48B101128D
:100FB30008CB22B2011208CB8DB2011208CB56B373
:100FC300011208CB79B3011208CB5EB4011208CB2E
:100FD300A2B4011208CBFAB4011208CB58B501121E
:100FE30008CB7CB5011208CBA7B5011208CBEEB52F
:100FF300011208CB12B6011208CB8BB6011208CB33
:10100300F5B7011208CB33B8011208CB5CB8011253
:1010130008CB2FB9011208CB59B9011208CB64BA16
:10102300011208CBFCC6031208CB34C7031208CB4A
:1010330055C7031208CB97C7031208CBFBC703128C
:1010430008CB05C8031208CB15C8031208CB4CC83C
:10105300031208CBF5CB031208CBBDCD031208CB8B
:10106300B1CF031208CB4FD0031208CBD6D0031253
:1010730008CB1281021208CB7681021208CBD481ED
:10108300021208CB1F82021208CB3A82021208CB4B
:101093006182021208CB7E82021208CB8A8202127C
:1010A30008CB2E84021208CB4784021208CBC384D8
:1010B300021208CBD684021208CBE684021208CBB4
:1010C3008C85021208CBFC86021208CB0F88021211
:1010D30008CBAF88021208CBB988021208CB278944
:1010E300021208CB3889021208CB7789021208CB87
:1010F300A589021208CB728A021208CBC98A02128E
:1011030008CB0E8B021208CB648B021208CB828BA6
:10111300021208CBD08B021208CB9E8C021208CB92
:10112300EC8C021208CB2E8D021208CBB18D021269
:1011330008CBDB8D021208CB118E021208CB208E56
:10114300021208CB7E8E021208CBF68E021208CB57
:10115300378F021208CB868F021208CBB18F02128F
:1011630008CBCB8F021208CBE58F021208CBBA90C3
:10117300021208CBC490021208CBFF90021208CBD4
:101183000F91021208CB1891021208CB6991021237
:1011930008CB7D91021208CB9B92021208CBB0922E
:1011A300021208CB4A93021208CBC993021208CB4E
:1011B3006C94021208CB7794021208CBC1950212E9
:1011C30008CBDD95021208CB3196021208CB9F960D
:1011D300021208CBEB96021208CB0597021208CB3A
:1011E3004797021208CBAA99021208CB429A02121D
:1011F30008CBB99A021208CBFF9C021208CB179DA9
:10120300021208CB1A9D021208CB269D021208CBAC
:101213003A9D021208CB429D021208CB799D02121D
:1012230008CB6D9E021208CBF79E021208CB799F62
:10123300021208CBEE9F021208CBC6A0021208CB03
:10124300E8A0021208CB7FA1021208CB8BA10212E5
:1012530008CBE8A1021208CBEBA1021208CB5AA2D9
:10126300021208CBA6A3021208CBB9A4021208CB20
:1012730044A5021208CB57A6021208CB21A70212DB
:1012830008CB52A7021208CB78A7021208CB81A77A
:10129300021208CBB0A7021208CB60A8021208CB37
:1012A30010A9021208CB83A9021208CB33AA021297
:1012B30008CBA6AA021208CBE5AA021208CB2EABD2
:1012C300021208CB15BC031208CB80BC031208CB57
:1012D300CCBC031208CB16BD031208CB9ABD031274
:1012E30008CBA5BF031208CBD5C1031208CB1BC57E
:1012F300031208CB4AC5031208CB68C5031208CBF7
:10130300D2C5031208CBFAC5031208CB2DC60312AC
:1013130008CB62C6031208CBB1C6031208CBC37253
:10132300001208CB3F73001208CB6673001208CB80
:101333009973001208CBF874001208CB14750012CD
:1013430008CB5975001208CBDE75001208CB2A763C
:10135300001208CBBA76001208CB8877001208CBAC
:10136300E377001208CB4878001208CBBD7800124F
:1013730008CBE678001208CB2779001208CBDE7A77
:10138300001208CBB87B001208CB8E7C001208CB6E
:101393005D7D001208CBA17D001208CBF97D001200
:1013A30008CB1B7E001208CBA77E001208CB387F28
:1013B300001208CB8AA7041208CBA8A7041208CBF3
:1013C3000DA8041208CBAAA8041208CB3AAD041244
:1013D30008CB42A6041208CB6AA6041208CB59A76D
:1013E300041208CBB9FE021208CBDCFF021208CBB1
:1013F30069B0031208CB39B1031208CB5EB10312F3
:1014030008CB7EB1031208CB92B1031208CBFAB119
:10141300031208CB1EB2031208CBA1B3031208CBED
:10142300D7B4031208CBB8B5031208CB19B603120D
:1014330008CB45B6031208CBC4B6031208CB15B7C5
:10144300031208CB36B7031208CBAEB7031208CB8F
:10145300D3B7031208CB38B8031208CBBCB90312B5
:1014630008CB89BA031208CBC0BA031208CBE5BA7A
:10147300031208CB05BB031208CB30BB031208CB06
:1014830044BB031208CBADBB031208CB01BC031250
:1014930008CB1CFE011208CB3DFE011208CB76FFE0
:1014A300011208CBA0FF011208CBA9B2041208CB8A
:1014B300B9B2041208CBC3B2041208CB02F0011272
:1014C30008CB05F0011208CBD7F0011208CBFAF0D4
:1014D300011208CB44F1011208CB76F1011208CBBB
:1014E300A4F1011208CBE1F1011208CB0FF20112B2
:1014F30008CB22F3011208CB69F3011208CBABF33B
:10150300011208CB24F4011208CBCFF4011208CB4B
:10151300F2F4011208CB60F5011208CBC9F60112EF
:1015230008CB82F7011208CB75F8011208CB69F9D1
:10153300011208CB17FA011208CB4CFA011208CB9F
:10154300A6FA011208CB50FB011208CB7EFB011255
:1015530008CB0AFD011208CB8DFD011208CBCDFD8E
:10156300011208CB01DB031208CB3BDB031208CBD0
:10157300A4DB031208CBC5DB031208CBDEDB0312AB
:1015830008CB7EDC031208CB87DC031208CBD2DC4A
:10159300031208CBFBDC031208CB08DD031208CBD4
:1015A3007ADD031208CB0CDE031208CB5ADE0312DA
:1015B30008CB83DE031208CBE2DE031208CB0EDF77
:1015C300031208CB89DF031208CBD3DF031208CB46
:1015D30013E0031208CB4BE0031208CB5DE00312C8
:1015E30008CB6FE0031208CB8EE0031208CB97E021
:1015F300031208CB68E1031208CBA8E1031208CB5E
:101603007C4B001208CBBFED031208CB02EF031291
:1016130008CB28EF031208CB39EF031208CB58F19C
:10162300031208CB77F1031208CB799D041208CB80
:10163300AF9D041208CBFA9D041208CB439F0412FA
:1016430008CB3CE5021208CB6DE6021208CBA9E6F3
:10165300021208CB5EE8021208CB88E8021208CB1C
:1016630001EB021208CB7C50001208CBD5EC02121E
:1016730008CB74ED021208CBCCED021208CB5DEE61
:10168300021208CB95EE021208CBD7EE021208CB5A
:1016930051F0021208CBD6F1021208CB17F4021252
:1016A30008CB45F4021208CB71F4021208CB7AF48A
:1016B300021208CBD0F4021208CB60F5021208CB59
:1016C3009EF8021208CB22F9021208CBD87F00122F
:1016D30008CBD1B1041208CBC2FB031208CBD7FB52
:1016E300031208CB8AFC031208CBCAFC031208CBF3
:1016F300E3FC031208CB17FD031208CB64FD0312AE
:1017030008CB98FD031208CBDAFD031208CBD6FFF2
:10171300031208CBF5AE041208CB2BAF041208CB8F
:1017230047AF041208CB89AF041208CB99AF041258
:1017330008CB3ACE021208CB95CE021208CB1BCFB0
:10174300021208CBE6CF021208CB2ED0021208CB2E
:10175300CBD0021208CB18D1021208CB5FD10212F0
:1017630008CBCED1021208CBE6D1021208CB76D435
:10177300021208CB0ED5021208CB45D5021208CBB4
:101783007DD5021208CB31D7021208CBACD7021297
:1017930008CB7ED8021208CBB7D8021208CBD6D812
:1017A300021208CB21D9021208CB37D9021208CB77
:1017B30044D9021208CB7DD9021208CB8FD9021269
:1017C30008CB14DA021208CB1FDA021208CB6FDA45
:1017D300021208CBD2DA021208CB12DB021208CBB8
:1017E30016DC021208CB78DE021208CB74DF021279
:1017F30008CBC8DF021208CB0BE0021208CBB5E01E
:10180300021208CBD7E0021208CBDAE0021208CBAF
:10181300E4E0021208CBE7E0021208CB61E1021216
:1018230008CB9AE1021208CBC6E1021208CB01E20F
:10183300021208CB0DE2021208CB23E2021208CBFC
:101843003FE2021208CB6EE2021208CB8EE20212D2
:1018530008CBD7E2021208CB0EE3021208CB0DE449
:10186300021208CB52B1041208CB5EB1041208CBAA
:101873009AB1041208CB0080031208CB2380031211
:1018830008CBEF80031208CB4181031208CBA4815C
:10189300031208CB0482031208CB4C82031208CB39
:1018A300C382031208CB4583031208CBBD83031203
:1018B30008CB0084031208CB0F88031208CB748A69
:1018C300031208CBA78A031208CB008B031208CBA1
:1018D300008C031208CBDE8C031208CB468E031256
:1018E30008CBE78E031208CB1F90031208CB6E912F
:1018F300031208CB1F92031208CB8A92031208CB60
:101903009A92031208CB1C93031208CB8193031200
:1019130008CB7C94031208CBA394031208CB4795FE
:10192300031208CB9695031208CBF495031208CB48
:101933004F96031208CB7597031208CB0B9803122B
:1019430008CB6898031208CB379A031208CBD89AAE
:10195300031208CB719B031208CBCF9B031208CB56
:10196300469C031208CB8B9D031208CB729E031275
:1019730008CB249F031208CBC19F031208CB2BA0D3
:10198300031208CB3EA1031208CB81A2031208CB9A
:10199300ECA2031208CB34A3031208CB78A30312DF
:1019A30008CBCAA3031208CB27A4031208CB62A453
:1019B300031208CB01A5031208CB70A5031208CBB1
:1019C300F4A5031208CB67A6031208CB81A6031262
:1019D30008CB97A6031208CBF1A6031208CB59A88C
:1019E300031208CB78A8031208CBC0A9031208CBB3
:1019F3003BAA031208CB71AA031208CB66AB0312EE
:101A030008CB73AC031208CB68AD031208CB76ADD9
:101A1300031208CB66AE031208CB08AF031208CB40
:101A23007BAF031208CB90AF031208CB31B0031284
:101A330008CB99E8031208CBD6E8031208CB6FE969
:101A4300031208CB7AEA031208CBC2EC031208CBC9
:101A53003EED031208CB428F041208CB70900412A0
:101A630008CB2F91041208CB8491041208CB079260
:101A7300041208CB29A0041208CB2AAE041208CB07
:101A83003BAE041208CBDBAE041208CB90A10412C8
:101A930008CB9EA1041208CBEE7F001208CB43B003
:101AA300041208CB53B0041208CB68B0041208CB5D
:101AB300D0B0041208CB36AB041208CBBBAB041274
:101AC30008CB21AC041208CB3CA3041208CB58A3C7
:101AD300041208CBE4A3041208CB0FA4041208CB0E
:101AE30078A4041208CBAF8B041208CBBD8B04126D
:101AF30008CB368C041208CB0B8D041208CBDD8E79
:101B0300041208CBE4B2041208CB7FF9021208CB0B
:101B1300ABF9021208CB45FC021208CB83FC02127C
:101B230008CBBFFC021208CBD3FC021208CBECFC9F
:101B3300021208CBDFFD021208CB91FE021208CB82
:101B4300A5FE021208CBD7A4041208CBFBA40412EF
:101B530008CB14A5041208CB53A5041208CB86A501
:101B6300041208CBB6A5041208CB1EA6041208CB98
:101B730021A6041208CB2BA6041208CB38A6041204
:101B830008CB6598041208CB8D98041208CBCE9825
:101B9300041208CBEC98041208CB0799041208CB63
:101BA3006F99041208CB7B99041208CBDA990412BB
:101BB30008CBFE99041208CBBF9A041208CBCC9A27
:101BC300041208CBDD9A041208CBD3B0041208CB5D
:101BD300EBB0041208CB11B1041208CBFDF20312CF
:101BE30008CB46F4031208CB4CF4031208CB63F47E
:101BF300031208CB84F4031208CB9AF4031208CB24
:101C0300AEF4031208CB2DF5031208CB92F50312A1
:101C130008CB28F6031208CB01F7031208CB11F700
:101C2300031208CB20F7031208CBAAAF041208CB88
:101C3300CEAF041208CBF6AF041208CB1EB00412C9
:101C430008CB0B9B041208CB779B041208CB959B04
:101C5300041208CB069C041208CB9395041208CBFC
:101C6300AC95041208CBC395041208CBCC9504128F
:101C730008CBEA95041208CBF495041208CBFE9521
:101C8300041208CB1196041208CB9796041208CBC2
:101C93000C97041208CB3A97041208CB8B970412C3
:101CA30008CBD797041208CBF297041208CBFC9702
:101CB300041208CB0D98041208CB5098041208CBD9
:101CC3008D7F001208CB82D1031208CBAED1031251
:101CD30008CBCCD1031208CBDFD1031208CBFAD146
:101CE300031208CB59D2031208CB87D2031208CBB5
:101CF3008AD6031208CBE1D7031208CB13D80312F9
:101D030008CB86D8031208CBF2D9031208CB1ADA10
:101D1300031208CB2FDA031208CB3FDA031208CBE6
:101D23007FDA031208CBC1DA031208CBD1DA03122C
:101D330008CBCDA8041208CBDDA8041208CBFBA85E
:101D4300041208CB16A9041208CB3DA9041208CB30
:101D53005EA9041208CB78A9041208CBB0A9041217
:101D630008CBD3A9041208CB21B2041208CB1988DB
:101D7300041208CB2988041208CB4789041208CB24
:101D83007989041208CB9B89041208CBC3890412F6
:101D930008CBDC89041208CB188A041208CB7F8A8B
:101DA300041208CBBB8A041208CB028B041208CBA3
:101DB3002F8B041208CB5B8B041208CB05AA0412E9
:101DC30008CB17AA041208CB03AB041208CB06AB4B
:101DD300041208CB3AAC041208CB99AC041208CB1A
:101DE300D7AC041208CB18AD041208CB25BB0112E3
:101DF30008CB31BB011208CB8EBB011208CBA6BBAB
:101E0300011208CB55BC011208CBBFBC011208CB91
:101E13007ABD011208CBF5BD011208CBAFBF011289
:101E230008CB7DC1011208CBDEC2011208CB72C3FD
:101E3300011208CBD7C4011208CBD1C5011208CBBC
:101E4300EBC6011208CB9FCB011208CB78CC011251
:101E530008CB06CD011208CB2BCD011208CB50CDF8
:101E6300011208CBE7CD011208CB05CE011208CB36
:101E730023CE011208CB8ACE011208CBA9CE0112C0
:101E830008CBD6CE011208CBE3CF011208CBB9D0D1
:101E9300011208CB22D2011208CB43D2011208CB84
:101EA300C4D2011208CB6AD3011208CBB2D30112F8
:101EB30008CB24D4011208CBB3D4011208CB18D514
:101EC300011208CB83D5011208CB3DD6011208CBF2
:101ED300B6D6011208CBF2D6011208CB5FD7011296
:101EE30008CBAFD8011208CB6ED9011208CB1CDA8C
:101EF300011208CBA4DB011208CB3DDC011208CB95
:101F0300B7DC011208CBB8DE011208CBCBDF01121C
:101F130008CBE0DF011208CB0DE0011208CB93E000
:101F2300011208CBC3E0011208CB1DE1011208CB5B
:101F3300B4E1011208CB9FE3011208CB83E5011240
:101F430008CB89E6011208CB5DEA011208CB27EB27
:101F5300011208CB24EC011208CBD9ED011208CBF6
:101F63005584041208CB8184041208CBEB85041238
:101F730008CB0E86041208CBFBE1031208CBADE2BB
:101F8300031208CB13E3031208CB97E3031208CB26
:101F930040E4031208CB5FE4031208CB2DE50312E0
:101FA30008CB0BE7031208CB65B2041208CB008001
:101FB300041208CB8280041208CB8581041208CB5B
:101FC300C282041208CB0883041208CB15830412BF
:101FD30008CB3483041208CB5C83041208CB088437
:101FE300041208CB2D84041208CB8A92041208CB66
:101FF300A592041208CBE992041208CB0F930412A2
:1020030008CB3193041208CB4993041208CBEB930A
:10201300041208CBF593041208CB0A94041208CBDC
:102023002C95041208CB3595041208CB3E95041267
:1020330008CB4795041208CB51F7031208CB51FB89
:10204300031208CB56FB031208CB58FB031208CB31
:102053001CB3041208CB1D4B001208CB9649001287
:1020630008CB2349001208CBEF48001208CB98484D
:10207300001208CB5E47001208CBD146001208CBF2
:10208300AB46001208CBE745001208CB26440012EA
:1020930008CBB943001208CB8A43001208CB87430D
:1020A300001208CB5742001208CB3941001208CB6B
:1020B300F53F001208CB273F001208CBAD3E0012BC
:1020C30008CBE03D001208CB473D001208CBB03CE3
:1020D300001208CB753C001208CBD53B001208CB8D
:1020E300943B001208CB2350001208CBA94F0012D7
:1020F30008CB7F4F001208CB414F001208CB414E53
:10210300001208CBB44C001208CB844C001208CB4D
:10211300373B001208CB1B3B001208CBC43A00121A
:1021230008CB913A001208CB514C001208CB363A37
:10213300001208CB053A001208CBCE36001208CBAA
:10214300DC35001208CB2D4C001208CBA034001252
:1021530008CB41EB021208CB7B33001208CBF832D9
:10216300001208CBBD32001208CB6932001208CB33
:102173005D32001208CBC631001208CB9430001236
:1021830008CB3B2E001208CBC82B001208CB7C2BAC
:10219300001208CB5E2A001208CBF329001208CBE9
:1021A3001D29001208CBEE27001208CBBA27001214
:1021B30008CB194C001208CB8827001208CBD1E1B9
:1021C3000300000080FBE47387000100A30C2400DC
:1021D3000200750C25000200770C26000200790C22
:1021E300270002007B0C280001007D0C2900010060
:1021F3007E0C840004007F0C86000100830C2A00FF
:102203000100840C2B000100850C2C000100890CBB
:102213002D00080078062E0001008A0C2F00010013
:102223008B0C300001008C0C310001008D0C32004E
:1022330001008006330001008106340001008E0C8A
:10224300360001008206380001008F0C39000100BE
:10225300880C83000200A10C630001008D0664005A
:102263000100860C65000100870C6D0001008E06DD
:1022730071000800700666000100A00C4300010015
:10228300910C44000200920C45000100940C46009E
:102293000200950C47000800850648000100970CD2
:1022A3004B000100980C04000100A40CA1000100E4
:1022B300A70C37000100A60C88000100A50C3C0008
:1022C300010083063D000100900C49000200990CB7
:1022D300670001008F064D0002009B0C4E000100B9
:1022E3009D0C4F0002009E0C3E000100840600007E
:1022F3000000000000013636010100010201000167
:102303000301000104010606050200000701003471
:102313000801000F090401010D0100FF0E08000070
:1023230017020000190100FF1A0100011B0100FE42
:102333001C0100081D0200001F0100012001000113
:10234300210200002301000F2402000026010001E6
:1023530027010008280200FF2A0100072B01024081
:102363002C0100002D0100012E0100012F0100FFAF
:1023730030010B1C310800003A0100083B01000F3B
:102383003C0100013D0100FF3E0400004204000047
:10239300460400004A0400004E04000052040000FA
:1023A300560400005A0400005E20FFFF36000100BF
:1023B300060000000F000000000000000000000005
:1023C300000003FFFF00000403FFFF0000FFFF0FF7
:1023D300F4010005C4040320000100000B00000009
:1023E300000000000003010F0000000000000000D7
:1023F30000000000000000000000000000000000DA
:1024030000000000000000000000000000000000C9
:1024130000000000000000000000000000000000B9
:10242300000000000000000000000103710301032D
:102433000103010301030103220302030103100348
:10244300000300030003000300030003000342032F
:1024530000032403060300030003040312032503FC
:1024630023032503230304030403000300030003DE
:102473004403000300032303000365032100350322
:102483008103000305030003000300030003250386
:102493002303030271023001600211027002010280
:1024A300020202028002100261023A00410063024A
:1024B3007302720262024302000213023800000236
:1024C30000020402120200020002000200020402DF
:1024D3000402370037003C024402000239000002C4
:1024E3000002650200023502810200020502820237
:1024F30083020002030071003001600011007000CC
:102503003102200350048000100061000000140019
:1025130063007300720062004300000013000600B2
:102523000000000004001200000000000000000092
:1025330004000400370037003C02440000000000A0
:102543000000000065000000350081000000050068
:10255300000083000000010171010101010111016B
:1025630001013101010101018001100161013B0001
:10257300140063017301720162014301000113013D
:1025830006013D01350004011201000100010001B3
:10259300000104010401330133013C014401320110
:1025A30036000001000165010001350081010001D1
:1025B3000501820183010001D61E301FDC1EFE1DB2
:1025C300E21E361FE21E421FE81EFE1DE21E361FDC
:1025D300EE1EFE1DF41EFE1DFA1EFE1D001FFE1D37
:1025E300061FFE1D0C1FFE1D121F481F181FFE1D78
:1025F3000000000000000000000000001E1F5A1F22
:10260300241FFE1D1E1F5A1F241FFE1D121F481FBD
:102613002A1FFE1D000003002001E18000000000CE
:102623002001E2800000040042015A8000000500FE
:10263300420112800000060042011D8000000700D5
:102643002001DF80000010004203D70C00001100BE
:102653002003120C000012002003E80C030000000A
:102663002103130C060000001001150C01003019A2
:102673000200941803009A180400A0180500A61875
:102683000600B2181100D0181400D6181500C4188B
:102693001F00CA18FFFF000007ECFDFDFDECDCDCAA
:1026A300CCBCACAC9C9C8C7C7C6C6C5C5C5C4C4C07
:1026B3003C3C2C2C1C1C03EAF5E5D5D5C5B5A595EA
:1026C30095858575756565555545453535252515B7
:1026D30015050A8C0E025C0E056E0E07620E0C4485
:1026E3000E0D500EFF000000160F00000B150B021D
:1026F3000002220F3300000E5A6967426565416C80
:102703006C69616E6365303901030507090B0D0FB1
:1027130000020406080A0C0D303017181921301B6B
:102723001D1F3000034A49434E181A2505020001B4
:102733001916181616182303000C0E020B040B0AA5
:102743000708000F00393D3F373C3C362C442D3001
:102753003016181920231A1C1E300204020101012D
:10276300010902E803000000BE040A0E003C00E871
:10277300033C0008040A081E1E0C03050404041588
:10278300FF0C090B28C082C08312131E90030E7422
:102793009AF0A37421F09003107494F0A37421F0C1
:1027A300900312748EF0A37421F09003147488F0D4
:1027B300A37421F002490B74F71203D3E9FE9003CB
:1027C30002E4F0EE900301F07C857D067A037B033F
:1027D300121DE6900C97E090030BF090030C7470BD
:1027E300F0A37406F0122164024C7F74F41203D335
:1027F3008A088B09EB548070030228C1900301E01F
:10280300F91215A08A0A8B0BAE0AAF0BEE4F7003B9
:102813000228B812571FE0F9124BAF90031C125352
:102823001FA3A3A3A3A3A3A3A3E0640270378A8275
:102833008B83124C4D80078C828D83124BF3EC4DAE
:1028430060208C828D83E06A7003A3E06B70E88C58
:10285300828D83A3A3E06970DE900C9D126084F0E7
:10286300804C1221408E828F83E064017034EE2409
:1028730018122915120922124E0A12074EEE2412BB
:10288300122915120922125D7F12091E12349212A7
:102893000752EE2417125D8B1212DC740A1208FB26
:1028A300800CE064027007EEFAEFFB122062EEFA8E
:1028B300EFFB12158EAA08E5096480FB8051EA54E8
:1028C30002600C900C1F7401F0EA6402FA8040EA83
:1028D3005404600912215EE50864048029EA54085F
:1028E300602912214C8B0BEA450B701690031EE4F2
:1028F300F0A3F0A3F0A3F07A08FB900301E0F91230
:1029030016FCE5086408FAAB0980047A007B000230
:1029130032B8125C8CF50A780A2274F41203D38A53
:10292300088B098A828B83126205125C6B38F583EC
:10293300E02409FA7B001215888A0A8B0BAE0AAFD2
:102943000BEE4F70030229E38E828F837402F0A390
:10295300E4124F27A3A3A3A3E8F0A3E9124BC6A352
:10296300A3A3A3A3A3A3F0E5082403F8E435091262
:102973004319125C6B3AF583125318F0EE2409FAEB
:10298300E43FFB8E828F83A3A3124860F583888282
:10299300E0A2E58E828F83A3A3A3A3A350047401B3
:1029A3008001E4F0E5082403F888828983124C4D02
:1029B300EA12423B3BF5831229E612091AEA125C3A
:1029C3006B3B1248D38E828F83124C4B1215647467
:1029D300031208FBEEFAEFFB900301E0F9121594E2
:1029E3000232B8E0F508A3E0F509750A0078082279
:1029F30074F21203D38A088B09ECFAEDFB740E12FE
:102A03000BA9E0FC12134E8A0C8B0DAE0CAF0DEE2E
:102A13004F6031AC08AD0912133CE96027AC08AD37
:102A230009EEFAEFFB121342E970158E828F8312BF
:102A33002A4CEEFAEFFB121336AA08AB09121366FF
:102A43007900800279B4800EA3A3A3E0F508A3E084
:102A5300F509221208FB7F0602064D74EF1203D319
:102A630074F71209AA8A0A8B0BECFEEDFF750DB3FE
:102A7300750C007510008002051090277FE493F811
:102A8300E510C3984003022B70851008AA087B0049
:102A93001213AE8A088B09EA450960DC8A828B83AC
:102AA300A3A3A3A3A3E0250CF50CF50EC3E50A9598
:102AB3000EE50B940050C17C157D007900EEFAEF12
:102AC300FB121570850882850983A3A3A3A3A3E042
:102AD300F8E50AC3950C2825E0F8E433F9E508285E
:102AE300F582E50939F5831250DE1250FF120F1CEF
:102AF300EAFCEBFDEEFAEFFB121DE6850882850981
:102B030083A3E06401700A124E0A7401124ED1804D
:102B13003DAC18AD19850882850983124C4B1213FD
:102B230096E960307408120BA9E0C0E0124E0AD097
:102B3300E0F07408120BA9E06403700CAC18AD1933
:102B4300125306121DE6800C851882851983124ED6
:102B5300121250F9850882850983124245A3A312F4
:102B63004ED9C0E0125977D0E0F0750D00A90D746D
:102B7300091208FB7F0902064D74F71203D3E9FE1D
:102B83008A828B83A3A3A3A3A3A3E0540860338AFD
:102B9300828B83A3A3A3A3A3A3E0540260218A820D
:102BA3008B83A3A3A3A3A3A3A3A3A3E06406600FA0
:102BB30074E96E600A74CD6E600574F06E70031272
:102BC300217C024C7F74E81203D374F81209AA74AF
:102BD30006120BA9126368ECFEEDFF891775150049
:102BE300122E1A12135A8A0A8B0BEA450B70030230
:102BF3002DD6EE24101254EDA90A120D968A128BCB
:102C030013EA45137003022DD6EE2403F50CE43FBB
:102C1300F50DEE2406F508E43FF5097C00850882EE
:102C2300125CC01213608A108B11850C82850D8390
:102C3300E0851282851383A3A3A312412785128201
:102C4300851383A3A3A3A3E8F0A3E912349A8512FF
:102C530082851383A3A3A3A3A3A3A312574C851213
:102C630082851383A3A3A3A3A3A3F0EE12423B3F46
:102C7300122E2B12091A125C6A3F1248D385128254
:102C8300851383A3124C4512156474031208FB7554
:102C930014007423120BA9E0F5167424120BA978FF
:102CA3000C120B52022D5B851082851183124C4B43
:102CB30012139C850882850983A3EAF0A3EB122EE5
:102CC30036A3A3124BD412307AA2E6500F850882A2
:102CD300850983A3A3A3A3A3E0D2E1F0E51570675D
:102CE300850882850983A3125E3D900365E06870C1
:102CF30003A3E0697051850882850983A3A3A31206
:102D030054F27510007810120922780C120916E596
:102D130016F51078101209227426120BA912075205
:102D230090037212075279007410120BA9124BBE52
:102D3300122104740A1208FB850882850983A3A360
:102D4300A3A3A3E04405F074012514FC122E1A1268
:102D530013608A108B110514E5104511605085141A
:102D630008C3E508950AE4950B5043E51475F0068E
:102D7300A4F8A9F0E51228F8E51339F9E8240CF5CD
:102D830008E439F509850882F583E412725DE0648D
:102D9300016003022CAA75150185088285098374D5
:102DA30001122E361259CCE8F0A3E9022CC1AA1263
:102DB300AB13120D9C781212091EAD167424120B5C
:102DC300A9E0FCA917EEFAEFFB12218274021208A4
:102DD300FB803A8E828F83A3A3A3E0C0E074031227
:102DE3000BA9D0E012349AC0E07404120BA9D0E00E
:102DF300F0E50A450B70097405120BA974B9800735
:102E03007405120BA97410124BE112210A740812F3
:102E130008FB7F1002064D8E828F831250028E8232
:102E23008F83A3A3A3E0F922F5831239CC750E0097
:102E3300780C22127261A32274E91203D374F31281
:102E430009AA8A0A8B0B89168C148D157424120B0C
:102E5300A91239C8AA0CFB120D8AE9F513AA0CAB07
:102E63000D120D90E513700302303C750E00800FB8
:102E73008E828F83A3A3A3A3A3E0D2E3F0050EE581
:102E83000C12471A350DF583E0F8E50EC39840039D
:102E9300023033E5137003023033E50E75F006A4F8
:102EA300F8A9F0E50C28F8E50D39F9E8240CFEE45F
:102EB30039FF8E828F83A3A3A3A3A3E0A2E040BD27
:102EC300750F00750808750900E5156003750F2077
:102ED3007C087D007900AA18AB191215708E828FB9
:102EE30083E060379003B5E064017017E50FD2E328
:102EF300F50F7509108E828F831230591247537460
:102F0300FF8028430F0C75080C8E828F83A3123029
:102F13004FA3A3A3A312665CA38010E5166009E583
:102F23000FD2E6F50F75080A12306DF07402120B1A
:102F3300A9E50F1259FBC0E07404120BA9D0E0F00D
:102F43007405120BA9124BDF12205C740C120BA92F
:102F5300E060030230167408120BA91241048E823A
:102F63008F83A3A3A3A3F07408120BA912308312B7
:102F730039BEE51412307A60119003B5E0C0E074F5
:102F830008120BA91239D4D0E0F0850C82850D8389
:102F9300A3A3A3E0C0E07408120BA9125CE4D0E081
:102FA300124C0AC0E07408120BA91239DED0E0F00B
:102FB3007408120BA912304F126228125A05E0123C
:102FC3006211EAF0A3EB1259EDC0E01261F5D0E013
:102FD300F07408120BA91231B21230461245663B47
:102FE3001259DA12423B125971F510A3E0F511752B
:102FF3001200781012091A1248CEEA124BA73BF5B9
:1030030083124C4D12156474031208FBAA18AB19F2
:103013001220568E828F83A3A3A3A3A3E0D2E0F052
:10302300740C120BA9E06003022E731513022E8099
:103033007900AA0CAB0D122176740D1208FB7F0FD9
:1030430002064DA3A3A3A3125E41EA22125E4185A9
:103053000A82850B8322A312305E2212306222126F
:103063004748F985188285198322A31230722212E8
:103073003062E8F0A3E92212307E22125E6BE02276
:1030830012458D12575839F583E508F0A3E509F089
:103093002274F01203D374E91209AAEAFEEBFF8942
:1030A300088E828F83A3A3A3A3A3A3A3A3E0F912F0
:1030B3000DB48A0C8B0DEA450D70030231ADE508A2
:1030C30070157C048E828F83A3A3A3A3A3A3A3A3BE
:1030D300E0F9120DBA804F7C088E828F83A3A3A3DD
:1030E300A3A3A3A3A3E0F9120DBA8A0A8B0BEA45A3
:1030F3000B6033E508F5097809120922850C8285EE
:103103000D83A3A3A3A3A3A3A3E0FD8A828B83A31D
:10311300A3A3E0FC8A828B83A31231B2E0F91212DB
:10312300D674011208FB12605F3F12550F607B8853
:10313300828983124C497406120BA91231BC124CBA
:103143004D7408120BA91231BCA3A3E0C0E07410A4
:10315300120BA9D0E0F0850C82850D83A3124C4598
:10316300740E120BA91263687411120BA9E41230C6
:103173007AFAA3E0CA241FF582E43AF58312440ED7
:10318300C413135403FC70027C0488828983E0F91E
:10319300780C12091E742059FD744059F9740212F7
:1031A300098412218274021208FB7417023F1F1252
:1031B3005008850A82850B8322EAF0A3EB1247129B
:1031C300A3A32274F71203D374FA1209AAE9FE7FA8
:1031D300018F087D0080047508000D123C52E0F851
:1031E300EDC3985025ED75F006A4F8A9F0EA28F888
:1031F300EB39F9E8241112456CA2E050DA540C6063
:10320300D6E0A2E250D47F0080D08A828B83A3A32E
:10321300A3A3A3A3E0703EE508A2E0400574016EFA
:1032230070338A828B83A3A3A3A3A3A37401126025
:10323300C8E0C0E07403120BA9D0E01260C0E0C084
:10324300E07404120BA9D0E0F07405120BA9EF127D
:103253004BE112210A7406024C7CC082C0837901BF
:1032630012217602490B74F41203D3EA4B602D90BA
:1032730003B1E064027025900C1FE4F08A088B0907
:10328300F50AF50B78081209167A027B0090030100
:10329300E0F91216F074041208FB8012900C1F74EC
:1032A30001F07A027B00900301E0F91216FC80051D
:1032B30074021208FB7F0402064DC082C083900C87
:1032C300AEE075F005A4FCADF079007A7D7B0B12BE
:1032D30015707B008012EB75F005A4F8A9F0123489
:1032E3008774FEF0A304F00B900CAEE0F8EBC398E8
:1032F30040E402490BC082C0837C007B0080037CD6
:10330300010B900CAEE0F8EBC398504DEB75F00554
:10331300A4F8AAF0EAF91234807003A3E0F460E1A0
:10332300123477E82403F850010988828983E02462
:10333300FFF0A3E034FF124378F9E84970C1EB755D
:10334300F005A4F8EAF91234778882898374FEF0D1
:10335300A304123472E4F080A8ECA2E0501790802A
:10336300D912074E7A047B00900301E0F91216F09C
:1033730074041208FB02490B74F71203D3EAFEEB41
:10338300FF900CAEE07003023469EE2411125C85E9
:1033930070030234698E828F83A3124C45120F7C13
:1033A300E96402600F8E828F83A3A3A3A3A3E070BB
:1033B300030234697C00803CEE12471A3F125E3BE5
:1033C300EC75F005A4FAADF0EDFB747D2AF582747B
:1033D3000B3BF583E0687003A3E0697016EE2412DB
:1033E300125C85FBEDF9747F2AF582740B12456F2D
:1033F3006B60780C900CAEE0F8ECC39840BA7C009C
:1034030080010C900CAEE0F8ECC398505EEC75F0C4
:1034130005A4F8A9F01234807003A3E0F470E3125A
:103423003477123492124AD3EAF0A3EB12349A8817
:10343300828983A3A3123472A3740C12574C7A04A7
:10344300FB900301E0F9121702EA4B4C4D70179001
:1034530080D912074E7A047B00900301E0F912161B
:10346300F074041208FB7901024C7F790080F91291
:1034730060EBA322747D28F8740B39F92212348788
:10348300E064FE22747D28F582740B39F58322EE05
:1034930012471E3FF58322F0124E00E02274E81219
:1034A30003D374FC1209AA7402120BA9E4F0A3F06B
:1034B30090031C125616851882851983E4F0A3F035
:1034C30075140190035FE0A2E3500302355712170E
:1034D3000E8A088B098C0A8D0B8A0C8B0D8C0E8D32
:1034E3000F90031E780C1209641235CC7810790CF6
:1034F300120B0450077A017B000235C7850C148533
:103503000D15850E16850F1778147910120364A80C
:1035130014A915900C9DE0C398E4995003E0F514A9
:103523001235CC780C7910120364E4F512F5137894
:10353300087910120A1390031E7808120B348014B2
:10354300125E3D90031C1250FFEEFAEFFB12163C85
:10355300AE08AF09EE4F60648E828F83A3A3A3E00E
:10356300F8E514C3985029EE2403F582E43FF5836C
:10357300A814E0C398F060217402120BA9125E57DD
:10358300125343EEF0A3EF124B06FEA3E0FF80C4F9
:103593008E828F83A3A3A3E4F08E828F83A3122A48
:1035A3004B8518828519831255118E828F83A3A3AD
:1035B300A3A3608C12305A124342808A7402120B06
:1035C300A9124C4D7404022E12900C9BE0F510A32B
:1035D300E0F511E4F512F5132274F21203D38A0A0B
:1035E3008B0BE9FE7A007B0090031C122A4E90039A
:1035F3001C125511601E0A850882850983A3A3A3A3
:10360300A3125511600E0AEA70010B88088909E8B4
:10361300450970E3900C9E125E3DC3EA98EB994016
:10362300030236CB7A067B001216368A0C8B0DA862
:103633000CA90DE84970030236CB88828983E50A19
:10364300F0A3E50BF0EE88828983A3A3F0900C9D91
:103653001245B9A3A312470DE4F0A3F090031C1283
:103663004FFC600F850882850983A3A3A3A312508F
:10367300FF801F90031C1250FF90035FE0A2E34002
:103683001112170EEAF8EBF9ECFAEDFB90031E1298
:103693000B6E90035FE0A2E3502E7A087B00900349
:1036A30001E0F9121702EA4B4C4D701C900C9B126F
:1036B3006C8F78081209167A087B00900301E0F9F1
:1036C3001216F674041208FB022A5974F21203D379
:1036D30074F31209AAEAFEEBFF8E828F83A3A3A3DE
:1036E300A3A3A3A3A3A3A3E0F50A900C1FE0700573
:1036F30079BA0239B2750801750900750C00750DA8
:10370300007C087D007900AA18AB191215707405A6
:10371300120BA974011239EA540460127402120BD9
:10372300A9E0D2E61239EA54087003750803E0549D
:1037330010600674404508F508E0540860227402DE
:10374300120BA9E044C01239EA5420600A74031230
:103753000BA9E0D2E080087403120BA9E0D2E1F0D8
:103763008E828F83A3A3A3A3A3A3A3A3E0701612A4
:103773000F228518828519831263687402120BA9BC
:10378300E0D2E2802C640F70107402120BA912397C
:10379300F274044508F508807B8E828F83A3A3A36C
:1037A300A3A3A3A3A3E064028E828F8370061230C7
:1037B3006EF08060A3A3A3A3A3A3A3A3E0640370F9
:1037C3000DAC18AD19EEFAEFFB1220E080468E82A5
:1037D3008F83A3A3A3A3A3A3A3A3E0640170359042
:1037E30003B5E060107402120BA91239F2750910C7
:1037F300750AFF80187402120BA9E0440C1253439C
:1038030074FDF0A374FFF074044508F5088E828FED
:10381300831239C8EE2415125C85A2E0503F74026E
:10382300120BA9E0540C701B8E828F83124C4D1225
:1038330019EAE9700579BB0239B27402120BA9E0E7
:10384300D2E5F0EE2415125C85A2E050107402124A
:103853000BA9E0540C64047004E0D2E5F0EE2411EB
:10386300125C85C0E07404120BA9D0E0124BE11284
:10387300205C740C120BA9E060030239AB740812CC
:103883000BA9123083EE2418125C85C0E01239BEF6
:10389300D0E01259E2E0C0E07408120BA9126208EA
:1038A300125C7C38F583D0E012474D6401701190AF
:1038B30003B5E0C0E07408120BA91239D4D0E0F0CC
:1038C3007408120BA91259C72417FAE43FFB8A8222
:1038D3008B83E0FCE8241CF582E439F583ECF0A348
:1038E300E4125019E0C0E0E82422F582E439F583BC
:1038F300D0E0F07408120BA91239DEE50AF074085F
:10390300120BA912458912456639F583E50CF0A31C
:10391300E50D125CFBFCA3E0FD126233ECF0A3EDBA
:10392300123DDB124BF71239B739125E4AC0E0E899
:10393300242FF582E439F583D0E0F0EE241B125CEA
:1039430085C0E07408120BA912621CD0E0F0EE24CB
:103953001A125C85C0E07408120BA9126208125493
:10396300E338F583D0E01262461229E712091A12EE
:103973004DF2124BF7740B120BA912473012156458
:1039830074031208FBEE2415125C855440601290F8
:10399300032C125511600AAA18AB19126E5C12217E
:1039A300C9AA18AB19122056740C120BA9E0F974AA
:1039B3000D022A56E82428F582E422E82412F5822F
:1039C300E439F583221239CC22E0F50CA3E0F50D9E
:1039D3002212620C12595838F5832212620C2423E6
:1039E300F582E438F58322F0EE2415125C8C22E094
:1039F300D2E3125E6B1239FC22123062E8F0A3E9C3
:103A0300F02274F71203D37E638A828B83E0600C07
:103A13007905120C64E9F87456C398FE90035DE0CF
:103A2300600CF9120C64E9F8EEC39824F2FEEEF987
:103A3300024C7F74F61203D374FE1209AA8518820E
:103A4300851983126368E9FEECFAEDFB9004C71253
:103A530055116035A818A919880889097808120929
:103A63001E7D01740E120BA9E0FCEEF99004C7123F
:103A730049861221C974021208FB8B09EA450960C1
:103A8300047900800679B2800279B602412F74F777
:103A93001203D3E9FE90030E125511601F7409122D
:103AA3000BA9E0F5087808120922EEF990030E122B
:103AB30049861221C974011208FB800279B6024CAF
:103AC3007F74F71203D38908ECFEEDFF79B5E5089F
:103AD300245E601F14600624F8602F80389004C9A8
:103AE300124FFC60309004C91249861221C9126337
:103AF300648020900310125DEC601AEEFCEFFD90E1
:103B030003101249861221C9800B90030C124BBE7D
:103B1300121DE67900024C7F74F71203D3E9FE7994
:103B2300B574AB6E700B90030C124C4D121DE679FD
:103B330000024C7F74F21203D38A088B09ECFEED6A
:103B4300FF750A01900365E065087004A3E0650949
:103B53007010120F1CEAFCEBFDEEFAEFFB121DE6F0
:103B6300802A120F288A0C8B0DE508650C7004E57A
:103B730009650D7009EEFAEFFB120F2E800EEEFCB5
:103B8300EFFDAA08AB09120CACE9F50AA90A022A4F
:103B93005974F51203D3EAFEEBFF8C088D09750AFD
:103BA30001120F1CEAFCEBFDEEFAEFFB121DE0E93C
:103BB3006401700B9003651243341250FF800EAC06
:103BC30008AD09EEFAEFFB120CB2E9F50AA90A02F5
:103BD300672874F61203D3EAFEEBFF7A0C7B00121C
:103BE3001636EA4B6066EE2420125C858A828B834C
:103BF300F0EE2421123C5AF0EE2422123C5AA3F098
:103C0300EE2423123C5AA3A3125516123C631250FE
:103C1300FFEE1239B83FF583123C63A3A3E8F0A388
:103C2300E91255258A828B83A3A3A3A3A3A3A3A3EA
:103C3300F0EE242F125C85C0E0123C52D0E0124C0F
:103C430013123C68A3A3A3A3A31250FF024134EAB7
:103C530012471E3BF58322125C8C8A828B83A3223C
:103C6300E0123C6822F8A3E0F98A828B83A3A3A322
:103C7300A32274F61203D3ECFEEDFF79B390035C39
:103C8300E0702790038EE06401701FEE2411125C34
:103C930085F9120C4C8A088B09A808A9091250F659
:103CA300E84960047900800279A102413474F41276
:103CB30003D374FE1209AAECFEEDFFEE2416125C88
:103CC300856405700DEE2406FCE43FFD122110E926
:103CD3006067AC18AD191259811219F085188285E5
:103CE3001983125511604EE875F009A4F8AAF0750E
:103CF300F009E9A42AF974F328F874F339F9E8FA16
:103D0300E9FB8A828B837808120B52123D41120B16
:103D130014401E1250ED123D41120B5290809D78BB
:103D230008120AAD8A828B837808120B34790080DB
:103D33000A79A2800679A1800279C80232B3124EB1
:103D43000078082274F41203D374FF1209AAEAFE5E
:103D5300EBFF90035CE0706D90038EE0640170658F
:103D630075083A750900780812091E740212097C55
:103D730088088909780812091E7C017D007A007B76
:103D83000012101874041208FBE97036124F027403
:103D930001125343E0C0E0124DF2D0E0123DDB7458
:103DA3003A12574C900334120B7A124DFC120B6EDD
:103DB30090809D7808120B529003347808120AC041
:103DC3008003123DCD74010232B5EE240FF582E477
:103DD3003FF583E4F0A3F022F01259AD2274F01200
:103DE30003D374F61209AAECFEEDFF740212098CD8
:103DF300122110E97003023EA9AC18AD1974021226
:103E030009841219F08518828519831255117003DC
:103E1300023EA9E875F009A4F8AAF075F009E9A42F
:103E23002AF974EF28F874F339F9E8FCE9FD124F25
:103E330002E4F01250ED8C828D83120B7A124DFC4A
:103E4300120B6E90809D7808120B528C828D8378B2
:103E530008120AC08C828D837808120B529080D589
:103E6300780C120B527808790C120364E50C450D9B
:103E7300450E450F70308518828519831245897563
:103E8300F009A4F8AAF075F009E9A42AF974F7284F
:103E9300F58274F339F5837401F07A007B08900599
:103EA30050E0F91215CA740A807274F01203D38AAF
:103EB300088B09ECFEEDFF123DCD9080B9780C1212
:103EC3000B52124DFC780C1209C0604CEE240E12FA
:103ED3005C85640170051220D4803FE070151220C8
:103EE300CEE960368E828F83A3A31248EB5403700E
:103EF3000C8027640270131220CEE9601DEEFCEFE4
:103F0300FDAA08AB091219FC8010E06403700512C6
:103F130020CE800679A1800279A380031208FB7F5B
:103F23000802064D74F61203D3EAFEEBFFEE240AF1
:103F3300F508E43FF509850882F583124BF7EC1287
:103F430057583DF583E4F0124C011220C2850882D4
:103F5300850983E02406FCA3E03400FD8E828F8371
:103F6300124C4D1221108508828509831255067063
:103F730054124109121DE0E9701D120F1C8A088BAF
:103F830009AC08AD0990030C124C4D121DE0E97009
:103F930006122146E9602E8E828F83124BED8E82AC
:103FA3008F83124C4D121A02E960158E828F83A300
:103FB300A3A3A3A3A3A3126205125751E4F0A3F092
:103FC30012435BE4F01254F8701A123FEA124C4D9C
:103FD3001220C88508828509831255067006124E81
:103FE300F474A1F0024134EE240A1240BC8882F535
:103FF300832274F61203D3EAFEEBFFEE240A124087
:10400300BC7A187B00121636850882850983EAF08C
:10401300A3EB124127E84970030240B6EEFAEFFB27
:104023001220B61254F860741240F664018E828F27
:1040330083A3A3A3A3A3A370071240E6740E802057
:10404300125511700F124109121DE0E97006122179
:1040530046E960071240DC740D80051240DC7405EC
:10406300124C135403640170071240C57405800B8E
:1040730090035DE0C0E01240C5D0E01248DAF812C8
:104083006E5BA3E0F9120C648508828509831262D2
:10409300082417F582E438F583E9801A85088285B8
:1040A3000983124C4D12163C850882850983E4F07E
:1040B300A38003124AC5F08078F8E43FF9880889A1
:1040C30009228E828F83A3A3A3A3A3A3A3A3124036
:1040D300D522A3A3124728A3228E828F83A3A3A34F
:1040E300A3A3A3A3A3A3A312620C2416F582E4380B
:1040F300F583228E828F83A3A3A3A3A3A3A3A3A346
:10410300A312436DE02290030C124BFB8E828F832C
:10411300A3A3A3A3A3A3A3A3A3A3E02406FAA3E0B7
:104123003400FB221248DEF8A3E0F92274021208DD
:10413300FB7F0202064D74F11203D38A0A8B0B8CA8
:10414300088D097A187B001216368A0C8B0DAE0C7B
:10415300AF0DEE4F70030242338E828F837401F0F2
:10416300E508240DF8E43509F988828983E0FAC368
:10417300E49AFA95E0FBE50812423B3509124249FD
:10418300FB8E828F83A3A3A3A31248548E828F83B3
:10419300A3A3F0EEFAEFFB120C16850882850983C0
:1041A30012608D70098E828F83A37405800690033D
:1041B3005D124245F0EE2417F8E43FF9880C890DAF
:1041C3008E828F83A3E0F9120C64E9850C82850D3E
:1041D30083F0EE2416F8E43FF9E508240EFAE435FB
:1041E30009FB88828983124ADBE5082410FAE43547
:1041F30009FB850C82850D83E0FC88828983E0F8C6
:104203008A828B83E0C398C39C125E60F0EEFCEF5E
:10421300FDAA0AAB0B1220BCE9F508700AEEFAEF0F
:10422300FB120C22E9F508EEFAEFFB12163C8003B1
:10423300750810A908024EEF12423F22240EF582A0
:10424300E422124BCD22F583E02AFAA3E03B227944
:10425300010208C874F41203D3EAFEEBFF8E828FC7
:1042630083A3A3A3A3A3A3A3A3125CB6F5831260A2
:104273008D702A1240F67025124348E06405701DC4
:10428300124348A3E0F87401686005740668700778
:1042930012435B7402800512435B7403F0123FEA1E
:1042A300124986E4F0EE2408F8E43F124319242D62
:1042B300F582E43AF583E0C0E0124324D0E01257DC
:1042C30041FAA3E0CA242AF582E43AF583E0C0E088
:1042D300124324A3D0E0124378C812471A38F58357
:1042E3001243341243421250FF120F1C8A0A8B0BE3
:1042F300AC0AAD0B850882850983E0240612486960
:10430300121DE6850882850983124C4D120C221278
:104313004B77F00232B8F988828983E0FAA3E0CAC6
:104323002285088285098312432E22124413A3A3F4
:104333002212433822125E458508828509832212A0
:10434300432EA3A3228E828F83A3A3A3A3A3A3A3FA
:10435300A3124737124724228E828F83A3A3A3A3DA
:10436300A3A3A3A3A3A312436D22124748C81242D7
:104373003F38F58322125745F8A3E022EA12606E14
:104383003BF58322024252C082C08390032274B061
:10439300F0A37420F090032474A4F0A37420F0908D
:1043A3000326749EF0A37420F090032874AAF0A34C
:1043B3007420F002490B74F41203D3EAFEEBFF12EC
:1043C300441CF508120F228A0A8B0BA80AA90B8E2C
:1043D300828F8312440E687003A3E069602AE508A4
:1043E300A2E550248E828F83A3E0FB90032212491F
:1043F300861221C98E828F83126208240A12550BFA
:10440300700612441CC2E5F00232B8124413E022D3
:10441300E0FAA3E0F5838A82228E828F831240D74B
:10442300A3E02274F41203D3EA2408FCE43BFD8CDA
:10443300828D83124589242012456CFE74035EF538
:1044430009124719391259C588828983F0A3A882B2
:10445300A983E50960097402650960030244F274E3
:104463000C5EF5086017740865086011740465082C
:104473007013740265097005EEA2E4402A12459296
:1044830024231245BF740C6508701612457B24243F
:104493001245A4FCA3E0CC1245663CF583A3124568
:1044A300C5740265097005EEA2E4404312457B24FE
:1044B300261245A4FFA3E0CF1254E9A31245C51267
:1044C300457F24281245D41239B83CF583A31245FD
:1044D300C5E508601274086508600C740C65086013
:1044E3000674046508700812459224221245BF120F
:1044F300459212455A7005EEA2E1500C12459212F4
:1045030054E33C12457480109003021245769003E5
:1045130002E004F088828983A3A882A983EEA2E73C
:10452300503212457B24211245D412455A6025127C
:10453300459224301245BFEEA2E150188A828B8344
:10454300A3A3A3A3A3A3A3A312431E2431F582E42D
:104553003A1245740232B82421F582E43CF583E033
:104563005403222424F582E422F582E439F583E01E
:1045730022F5831245B9F022EA2408FC8C828D834C
:10458300E0FFA3E0CF2212458D22125E45E8228A86
:10459300828B83A3A3A3A3A3A3A3A3E0FCA3E0CC45
:1045A30022F582E43FF5831245B9F0A3A882A983DB
:1045B3008C828D83E022E08882898322F582E43C29
:1045C300F5831245C922E088828983F0A308A98371
:1045D30022F582E43FF5831245C98C828D83E0FC8A
:1045E300A3E0CC22C082C0838A828B83124420F84A
:1045F300740358F98A828B83A3A37401F0E96005DD
:104603007402697061740C58FC601474086C600F58
:1046130074046C70137402697005E8A2E4401D8A87
:10462300828B83A3A37402F0740C6C700A8A828B4E
:1046330083A3A3E02402F07402697005E8A2E440B6
:10464300258A828B83A3A3E02404F0EC600F740813
:104653006C600A740C6C600574046C70098A828B3C
:1046630083A3A3E004F0E8A2E750318A828B83A3FB
:10467300A3E004125E50F9A3E0F5838982A3A3A308
:10468300E0540360178A828B83A3A3E004F0E8A2BB
:10469300E150098A828B83A3A3E004F08A828B838F
:1046A300A3A3E004F002490BC082C0838A828B83F8
:1046B300A3A3A3A3A3A3A3A3A3A3125511600C8A2B
:1046C300828B83A3A3124C4512163C02490B74F749
:1046D3001203D3EAFEEBFF8E828F83124E19A3A33C
:1046E300A3A3A3A3A3A3E4F012470DA3A3A3A3A38C
:1046F300A3F0A3F0E812606E39F583E4F01220868C
:10470300EEFAEFFB122092024C7FA3124712221201
:1047130060EBA3A3A322E812471E22240BF582E435
:104723002212472822124748F583888222124737EC
:104733001250082212473B22124748C8242BF58205
:10474300E438F58322E0F8A3E022125532A3E022F5
:104753001239FF8E828F83A3A3A32274F61203D38D
:1047630074F41209AA124870FCA3E0F5838C82A3A7
:10477300E0FC7402120BA9EC12574112488F740427
:10478300120BA9124BE76C7012124882124867741D
:1047930006120BA9124854241A803A7402120BA968
:1047A300E064016005E06406703CEA2402F8E43B3F
:1047B3001243191259B53AF583E0C0E07403120BA2
:1047C300A9D0E012574124131248697406120BA9A9
:1047D300124854241BF8A3E03400F97408120BA9FF
:1047E300E8F0A3E980297406120BA9E4F0A31248A8
:1047F3007D1248677408120BA9124860C8241AF581
:1048030082E438F583E0C0E0740A120BA9D0E0F02B
:104813007406120BA9125511602B7406120BA91200
:104823004C4D120CA0E96401701B120F1C8A088BFB
:1048330009AC08AD097406120BA9124C4D121DE008
:10484300E964017007AA18AB191220FE740C024127
:104853003112485822EAF0A3EB1257452212485866
:10486300F8A3E0222412FAA3E03400FB228A828B0D
:1048730083A3A3A3A3A3A3123072F012488222EA54
:104883002402F8E43BF988828983E0222402F8A316
:10489300E03400F922C082C08374FD1209AA1248D1
:1048A300B8C0E07402120BA9D0E0124BE11220F859
:1048B30074030249088A828B83A3A3A3A3A3A3122D
:1048C30039FC8A828B831240D5E02212607C350B3F
:1048D300F583E0FC7D00221248DE221248E222F03A
:1048E300850882850983E02212491C22C082C08385
:1048F300124912600624FC600780081220748003AA
:1049030012206E80031208FBD083D0820208C812E3
:10491300491824FB228A828B83A3A3124728E0220F
:10492300C082C083900CA0E0702590068FE0701FBA
:104933008A828B83A3A3A3A3A3E0701312498A6083
:10494300388A828B83A3A3126E5BE06407602A8A92
:10495300828B83A3A3A3A3A3A3A3A3E070128A823E
:104963008B8312499060097A347B01121A3E8009C5
:1049730090032A1249861221C902490BEEFAEFFB72
:104983009003241247242212491864062212491C58
:1049930064052274F61203D374FA1209AAEAFEEB31
:1049A300FF7403120BA912595E74031209841220B7
:1049B3007A125C826003024AC08518828519837467
:1049C30032F07405120BA912664FC0E07401120B8A
:1049D300A9D0E0124AFAC0E07402120BA9D0E01287
:1049E3004B00F8A3E0F9E8496017E8241712456C77
:1049F300FAE8241612456C2AF87401120BA9E02870
:104A0300F0AA18AB19120D008A088B09A808A90986
:104A1300E8497003024AB58E828F83124AD3A3A357
:104A2300124AF31259B539124C0FC0E0E82420F5AD
:104A330082E439F583D0E0124C0AC0E0E82421F582
:104A430082E439F583D0E0124B06C0E0E8242AF56E
:104A530082E439F583D0E0F07405120BA9E0FCE899
:104A6300124ACB2C124869E8124BA739F583124A34
:104A7300F3242DF582E439F583EC124B00FAA3E01D
:104A8300FBEA4B601BE8242BFAE439FB8E828F830D
:104A9300A3A31245962416F582E43CF583124ADB60
:104AA3008E828F83A3A3A3A3A3A3A3A3E8F0A3E965
:104AB300800AEEFAEFFB122080124AC5F074060258
:104AC3004131124EF874102212471E39F583E02249
:104AD3001250088882898322E0FC8A828B83E02C2F
:104AE300FCA3E03400FD8A828B83ECF0A3EDF0227B
:104AF300EAF0A3EBF0E822124B0BA3E02212501DC5
:104B0300A3E022124B0BE022124B0F22124B132273
:104B1300F08E828F83A3A3A3A32274F61203D3EA96
:104B2300FEEBFF125C82704212208C8E828F83A375
:104B3300A3A3A3A3A3A3A3A3A3125511600612497E
:104B43007F1221C9125C82700B124C41120CFA12B3
:104B53004B778015EE2408123FED124C4D12163C94
:104B6300850882850983E4F0A3F0EEFAEFFB1220B7
:104B730080024134124EF8E92274F61203D3EAFE9E
:104B8300EBFF8C088D091219EAE970047901801191
:104B9300AC08AD09EEFAEFFB900328124986122107
:104BA300C9024134242BF582E4227D00EE2402FA6B
:104BB300E43FFB22A3E08E828F8322124BFBEEFAAB
:104BC300EFFB22124ED5124BCD22E08E828F83A3B0
:104BD30022E0850882850983A3A3A3227401F0AA96
:104BE30018AB19221239FF740422A3A3A3A3A3A30E
:104BF300A3A3A3A3124BFB22E0FCA3E0FD22A31279
:104C0300307EFAA3E0FB22125E64E022F583740196
:104C1300126241A3E022C082C08312209890032A2B
:104C23007468F0A37420F002490BC082C0837C082F
:104C330079FF90030C124C4D1221BE02490B8E8258
:104C43008F83A3A3A3A3A3A3A3A31250082274F740
:104C53001203D3E9FE12605112550F601A8882893C
:104C630083A3E054037010EEFB12471939F5831246
:104C73004CABE0F91212D080031208FB7F0102064D
:104C83004DC082C083EAF8EBF988828983A3A3A38A
:104C9300A3A3E0FB88828983A3A3A3A3124CABA3A2
:104CA300E0F91212D002490BE0FA88828983A3A3A8
:104CB3002274F01203D38A088B098C0A8D0B890F97
:104CC300EA125989E02430FA7B001215888A0C8B8A
:104CD3000DAE0CAF0DEE4F7003024DEF8E828F833E
:104CE3007401125D9E12091A7C177D00EE2419FAD5
:104CF300E43FFB12156474031208FB850A0C850B51
:104D03000D780C12091A7C09124BAD121564740349
:104D13001208FB7410120BA9124E121250F97412DE
:104D2300120BA9124E19E0C0E01259A9D0E0125992
:104D3300D1C0E0124DF2D0E0124E2FC0E012560166
:104D4300D0E0F07414120BA9E0C0E0124DFCD0E0E7
:104D5300F0EE2427123DD07415120BA9120B7A1210
:104D63004E0A120B6E12598FE50F124E34F8A3E060
:104D7300F9EE240D1250F97419120BA9E0C0E012D8
:104D830059BBD0E012666FE0602FEE242712530E5A
:104D93002430124E21240E1264EC126F4A12091AA7
:104DA300E508125C6B35091248D38A828B83124C57
:104DB3004D12156474031208FBEE241A125C855419
:104DC30003601D90031A125511600CEEFAEFFB12EB
:104DD3006E5C1221C98015EEFAEFFB12158E800C62
:104DE300EEFAEFFB900301E0F9121594023F22EE75
:104DF3002411F582E43FF58322124E0022EE2412A1
:104E0300F582E43FF58322EE125C7C3FF5832212A8
:104E13005E41EE240B22125E418882898322F8E4EC
:104E23003FF98A828B831239FFE508221260E7E09B
:104E330022124ED5A3A3A3A3A3A3A3A3E02274F199
:104E43001203D38A088B097A207B001215888A0AF9
:104E53008B0BAE0AAF0BEE4F60728E828F8374049E
:104E6300124F398E828F83A3A3A3A3124ED1124B69
:104E7300B7124ED9F50CA3E0F50D750E00780C12A0
:104E8300091A7C107D0012598112156474031208EB
:104E9300FB850882850983124BEFEE2416FAE43F63
:104EA300FB120C9A850882850983A3A3A3A3A3A35A
:104EB300A3A3A3A3E0C0E01254C8D0E0124EE9C0FC
:104EC300E0125964D0E0124F0A121594801E124E5C
:104ED300D522124F1D22A3A3A3A3A3124EE2221293
:104EE3004F1DA3A3E022F012599DE0227F07020683
:104EF3004D124EF822EE240CF582E43FF58322EEA8
:104F030012423F3FF58322F0EEFAEFFB900550E0AB
:104F1300F922E8F0A3E9124F1D22F08508828509E2
:104F230083A3A322124F2B221248E2F8A3E0F98EA7
:104F3300828F83A3A322124F2B124F15E02274F604
:104F43001203D3EAFEEBFF7A057B00121588EA4BC6
:104F530060278A828B837408125E718A828B83A393
:104F6300A3E8F0A3E9124C138A828B83A3A3A3A320
:104F7300F0900550E0F9121594024134C082C083C9
:104F8300E9900C20F090031674BCF0A3740BF0901E
:104F9300031874CEF0A3740BF090031A74E0F0A31B
:104FA300740BF002490B74F71203D3EAFEEBFF898B
:104FB30008EE4F7003121A8C90032E1255117008CD
:104FC30090032E8022125E3D88828983A3A3A3A32C
:104FD300A3A3A3A3A3124FFC88828983A3A3A3A3A0
:104FE300A3A3A3A3A370DEEEF0A3EF125019E4F082
:104FF30012500EE508F0024C7F125008EA4B22A330
:10500300A3A3A3A3A3E0FAA3E0FB22A312501322BA
:10501300124B0FA3A32212501D22125536A3A32213
:1050230074F71203D390032E800D8E828F83A3A374
:10503300A3A3A3A3A3A3A3125616EE4F60348E8299
:105043008F83A3A3A3A3A3A3A3E06970DD8E828FA1
:1050530083A3A3A3A3E06A7003A3E06B70CC8E8247
:105063008F83A3A3A3A3A3A3E06C70BEEEFAEFFB0D
:1050730080047A007B00024C7F74F71203D3900301
:105083002E12561690032E12304A687002EB697086
:105093001CE0C82409F582E438125E3B90032E120B
:1050A30050FF90032E1256168027125609EE4F60BA
:1050B300208E828F83A3A3A3A3A31230466870021A
:1050C300EB6970E68A828B83A3A3A31250DE12508E
:1050D300FF12163CEEFAEFFB024C7FA3A3A3A3A39C
:1050E300A3125337A3A3A3A3A322851882851983ED
:1050F300125E41EE240FF582E43FF5831239FF225D
:1051030074F01203D374FA1209AA8A088B098A82EB
:105113008B83A3A3A3A3A3A3A3A3E060336401602E
:105123002F8A828B83124C4D120F7CE970228508E3
:1051330082850983A3A3A3A3A3A3A3A3E06403700A
:1051430014740412098CAA08AB091220E0E9701642
:1051530079020252F7850882850983125E3D740441
:10516300120BA91250FFE5082411126445243212D0
:1051730048691216368A0A8B0BAE0AAF0BEE4F70D4
:10518300030252F57C327D0079001215707402120D
:105193000984850882850983A3A3A3A3A3A3A3A347
:1051A300A3E0F91213187402120BA9E0C0E0125421
:1051B300D2D0E0F0EE242CF50AE43FF50B74031291
:1051C3000BA9E0850A82850B83F07901EEFAEFFBE8
:1051D3001220EC85080C85090D750E00780C120958
:1051E3001A7C1C7D0012530612156474031208FB0B
:1051F300EE243012530E2432124E212411F8E435DA
:1052030009F9E8FCE9FD8C828D831259C71254DC3D
:10521300124E29125719126F4A12091A8C828D8362
:1052230012531F124C4D12156474031208FB7404BD
:10523300120BA91253331250FF900302125318A3F7
:10524300A3A3F0900302E004F012170E126364EEBE
:10525300242A125C94750D00850A82850B83E078FD
:105263000C120A4E8A828B83E50CF01252FCE50C79
:10527300125343E4F0E5082415126445A2E07401D7
:105283005007120BA974018004120BA9E4F0EE2459
:10529300271240BCAA18AB19121300E924FE850893
:1052A30082850983F0EE242EF8E43FF9E8FCE9FD5A
:1052B30012532712028BE88E828F83A3A3A3A3A387
:1052C300A3A3A3F012532712028B8B09EA450960AB
:1052D3000F8E828F83A3A3A3A3A3A3A3A3E004F0AE
:1052E300EE2420125C854408125CF01215CA790082
:1052F300800279107406023F1FEE2429F582E43FF1
:10530300F58322EE240BFAE43FFB22F8E43FF9E8AD
:10531300FAE9FBEE22124BCDA3A3A322124BFB8A85
:10532300828B83228C828D83124338E0FA7B0022A6
:1053330012533722125E458E828F83A3A3A3A32227
:10534300F08518828519832274F41203D3EAFEEBE5
:10535300FF12170E126364900C91E0F8EE242B12E7
:105363005C85C39840030254B6125CA07012EE240D
:105373002B125C8504125525C0E01252FCD0E0F0DC
:10538300EE2428125C85FC7900800109EE242C129E
:105393005C85F8E9C3985026750801750900E9781A
:1053A30008120A4E125CA0550860E0E92CFC75084F
:1053B30001750900E97808120A4EE04508F0EE2469
:1053C300271254EDEE1254DCEC8A088AF0A4F8ABF1
:1053D300F0E42BF9E098F8A3E099F9C3E89508E91C
:1053E3009400EE40352427125C85F8125CA06030EF
:1053F3001254D21254F2A3E4F0EC7050EE242012B3
:105403005C85442012474DC0E0EE1254E9D0E0F031
:10541300EE24301254EDA3E080581252FD74FFF0D5
:10542300900355E0FA900C94E0F508EA8508F0A49F
:10543300ABF075F064A4FAADF075F064EBA42DFB4A
:105443008E828F83A3A3EAF0A3EB80ACEE24201219
:105453005C8554DF125516ECF08C08EE2427125CA1
:10546300858508F0A4FAABF0EE2430F582E43F1210
:105473004249FB1254C8EAF0A3EB12552DC0E0EEEB
:105483002425F582E43FF583D0E0F0EE241CF58279
:10549300E43FF583E812574C900330125511600B2B
:1054A300ECF9126E5C1221C9E9701712530612212E
:1054B3003A800F7BE91257321212D0EEFAEFFB1249
:1054C30016660232B8EE241EF582E43FF58322EE1F
:1054D300242DF582E43FF583221254E33FF5832222
:1054E300242EF582E42212551C22125C8CFA22121D
:1054F3004BCDA3F0228E828F83A3A3A3A3A3A3A345
:10550300A3A3A312620C240FF582E438F58312459A
:105513008D4922F0EE12551C222426F582E43FF534
:105523008322F0EE242A125C8C22125532E02212DE
:10553300553622124B13A3A3A32274F41203D39060
:10554300032E12561612170E8A0A8B0B78FF79FF59
:105553008020E0C39AFCA3E09BFDC3EC98ED995037
:105563000E8E828F83A3A3E0C39AF8A3E09BF91264
:105573005609EE4F605C8E828F83124C4DE50AC351
:105583009AFAE50B9BFB8E828F83124BF5C3EA9C41
:10559300EB9D8E828F83A3A340B8A3A3A3A3E06450
:1055A30002701AEE240B125CA36009125601124C0E
:1055B3004D12158EEEFAEFFB1216668007EEFAEF28
:1055C300FB120BC27A017B00900C20E0F91215CA82
:1055D300802974FF68700374FF69601F8808890954
:1055E300E4F50AF50B78081209167A017B00900C92
:1055F30020E0F91216F074041208FB0232B8EE121E
:10560300607E3FF583228E828F83A3A3A3A3A3A3EC
:10561300A3A3A3E0FEA3E0FF2274F01203D38A083E
:105623008B09ECFAEDFB890A7C01E508241112646D
:1056330045F91220E68A0C8B0DAE0CAF0DEE4F70C0
:1056430003025716E50A6003025716E508125719B5
:10565300125729686003025716EE242C1254EDE802
:105663002AF8E43400F98E828F83A3A3A3A3A3A310
:10567300A3A3E0FAE89AE99400C365D03340171274
:105683006441F470117B001257321212D0EEFAEF1C
:10569300FB121666807D126441F47040EE242912D9
:1056A300530E242CF8E43FF9E8FCE9FD7508FF7577
:1056B30009008C828D83E07808120A4E8A828B83DC
:1056C300E508F012571FE508F08C828D83125729E5
:1056D30028F0EE124BA73FF583E4801BE508241462
:1056E300F8E43509F9E0C0E012571FD0E012574142
:1056F300C0E01252FCD0E0F012170E126364125491
:10570300D2124245A312574C7A01FB900C20E0F9C8
:105713001215CA023F2224131259A122EE242AF59C
:1057230082E43FF58322E0F8EE2428125C8C22EE1B
:105733002422125C8CFAEE2414125C8CF922125788
:105743004522F088828983E022F0A3E4F0221257F5
:105753005838F58322240FF582E42274EC1203D324
:1057630074FE1209AA8A0A8B0B8C0E8D0F89108A7C
:10577300828B83A3A3E0F91212F48A088B09AE0883
:10578300AF09EE4F70077A007B0002594E7A127B05
:10579300001216368A088B09EA4509700302594A32
:1057A3007C127D007900121570AA18AB19850A8244
:1057B300850B83A3A3E0F9121318E508240FF50C56
:1057C300E43509F50D7401120BA9E0850C82850DF2
:1057D30083F07902AA08AB091220EC850E82850FAB
:1057E300831259CCA3A3A3E8F0A3E91259ED8508CA
:1057F30082850983A3A3A3A3A3A3A3F07512FF75B3
:105803001300850C82850D83E07812120A4E126410
:10581300E8E512126E37126E5BE0C0E0125999D0C0
:10582300E01259FBF50CE508240D1264ECE50CF0CD
:10583300E50A125C6F850CF0A4A9F02427FAE43979
:10584300FB1215888A0C8B0DAE0CAF0DE5081259AF
:105853008912595EEE4F700302593D8E828F837415
:105863001A12574C8E828F83A3A3F0A3125A0B12E2
:1058730053331250FFAC0EAD0F1259811213128520
:105883000A82850B83A3A3A3E0C0E01259A9D0E049
:10589300F09003721259C724101259D61259583571
:1058A3000B1259C51245663FF583E8F0A3E9125A76
:1058B30005A3A31259C724121250F9850A82850B36
:1058C30083A3A3E0C0E0125977D0E0F0E50A240CEB
:1058D30012596EC0E0EE1259583FF583D0E0F074D0
:1058E30016120BA9124E19E0C0E0126437D0E01271
:1058F3004E2FC0E012598FD0E01259D1C0E0125997
:10590300BBD0E01259E2E510F07418120BA9120B88
:105913007AEE241AF582E43FF583120B6EEE242708
:10592300F8E43FF9EE24221259D61259B5125971EF
:10593300C0E0125964D0E0F0800DAA08AB0912163A
:1059430066750800750900AA08AB0974021208FB02
:105953007F0C02064D2415F582E422EEF0A3EFF04E
:1059630022EE241FF582E43FF58322F582E4350B12
:10597300F583E022EE2414F582E43FF58322EE243E
:1059830006FAE43FFB2224101259A122EE2417F554
:1059930082E43FF5832212599D22E508240BF58208
:1059A300E43509F583221259AD22EE1257583FF51B
:1059B30083222412F582E422EE2418F582E43FF5D3
:1059C3008322F583125E41EE22124338A32212345E
:1059D30072E022F582E43FF5831239FFE50A22F0F3
:1059E300EE2419F582E43FF58322F0E50A2411F54C
:1059F30082E4350BF583E022F012607C350BF583EE
:105A0300E022125A0BA3A322F0850A82850B83A3FB
:105A1300A3A3A3A3A32274ED1203D38A0A8B0B8C33
:105A2300108D118912750900EA125C6FF508900355
:105A330030125511600EA908126E5C1221C9E9607B
:105A430003025C657C02851082851183124C4DE54F
:105A53000A241112596EF91220E68A0C8B0DAE0C32
:105A6300AF0DEE4F7054850A82850B83A3E0A2E04D
:105A73004003025C657415120BA912074E741712CA
:105A83000BA9120752A912AC10AD11AA0AAB0B1243
:105A93000BD474061208FB8A0C8B0DAE0CAF0DEE03
:105AA3004F7003025C658E828F83A3A3A3A3A3A37A
:105AB300A3A3E508125CF01215CA85080C8E828F29
:105AC30083A3A3A3A3A3A3A3A3E024FFF8E434FF26
:105AD300F9E8650C497003750901EE240B125CA308
:105AE3007003025C16850A82850B83A3E0A2E05053
:105AF30003750800125CCEE50C98E499C365D033B6
:105B0300401CE0F8EE240E125C852AF0750CFF753C
:105B13000D00E8780C120A4E124EF4E50CF0E50A7B
:105B230012423B350B122E2B12091A1248CE85084E
:105B33000CEE240D125C85850CF0A4FAABF0125622
