:020000040000FA
:06000000020B3802022C85
:03002B0002085870
:0300530002016047
:03006B0002036825
:100083000201C001FF01010503010F10FEFF532907
:1000930000000000892800000000FF000000FF00AE
:1000A30001000046170000000000001818000000BF
:1000B30000000028170000000000000000000000FE
:1000C30000000000000000000000000000FFFF012E
:1000D300010100C2050000008813FFFF39068813E1
:1000E30064006400B801020200080000050207046E
:1000F30001051E02051E020A0A0103B80B02803E17
:100103000102FEFFE8030A050001FFFF010A1401D3
:10011300E0FF7F0020FD000206FF011C0E0000002F
:1001230001122418240000000000001E2400000017
:1001330000000000000000000000000000000010AC
:1001430020202020202020202020202020202020AC
:10015300010104010C0000036D8001E280C0E07422
:10016300F11204B6A2AFE433FED2AFE5A7FFE5A1D7
:10017300F5085FF509741055096006121F7A75A119
:10018300EF740855096008121F8075A1F78024E5F4
:1001930008A2E092F0EFA2E082F05017906198E09D
:1001A300F8900784E0C398A2D265D0335002E8F0F8
:1001B30075A1FEEEA2E092AF7F02020515C0E074C6
:1001C300F21204B6A2AFE433FED2AF9061A4E0F81A
:1001D300759B00E59158540860087591F7121FC884
:1001E3008023E59158541060087591EF121FCE805B
:1001F30014E591A2E092F0E8A2E082F05007E0C299
:10020300E0F01221189061A3E0F8E5E95854046086
:100213000E1220EE75E9FB906193E0A2E640F2EE48
:10022300A2E092AF7F01020515C0E074F21204B69A
:10023300A2AFE433FED2AF9061A5E0F8E5BF585416
:1002430004600675BFFB12213080D4C3E498F8E440
:1002530099F912028F8026C3E49AFAE49BFBE92002
:10026300E7E912028FE498F8E499F922C3E498F8D5
:10027300E499F912028FE498F8E499F9C3E49AFA3D
:10028300E49BFB22EB20E7CFE920E7E0B90010BBBA
:100293000008E88AF084F8AAF022E4FBC8FA22EB0B
:1002A30070227B10C833C8C933C9335007C39AC3FC
:1002B300DBF280069A50012ADBEAC833F4C8C9335B
:1002C300F4C9FA2275F008E4C833C8C933C933C97D
:1002D3009AC99B5004C92AC93BD5F0ECFBC833F437
:1002E300C8E4C9FA22080808EAC0E0EBC0E086F0D7
:1002F300E7A4FA180986F0E7A42AFA180986F0E7B2
:10030300A42AFA180986F0E7A42AFA1986F0E7A4C2
:10031300FBE5F02AFA190886F0E7A42BFBE5F03A8F
:10032300FA190886F0E7A42BFBE5F03AFA18180946
:1003330086F0E7A4C5F02BFBE43AFA1908E7C5F009
:10034300C6A426F6E5F03BFBE43AFA1886F0E7A4E8
:10035300F6E5F00826F6E43B08F6E43A08F6D0E0C2
:10036300FBD0E0FA22C0E074F21204B6A2AFE43389
:10037300FED2AFE589A2E75050E58CA2E0502353AB
:100383008CFE900E2DE4F09080A01207627A107B11
:1003930000900EC6E0F9121A4C740412090F7A0089
:1003A3008022438C01900E2D7401F09080A01207DF
:1003B300627A107B00900EC6E0F9121A4C74041294
:1003C300090F7A017902121EF0758900C2C5EEA2E7
:1003D300E092AF7F01020515E4CFC0E0E4CEC0E0B8
:1003E300E4CDC0E0E4CCC0E075F020E626F608E6F4
:1003F30033F608E633F608E633F6181818EC33FC40
:10040300ED33FDEE33FEEF33FFC3EC9709ED9709B0
:10041300EE9709EF97191919400FFFEC97FC09EDB7
:1004230097FD09EE97FE191906D5F0BFECF709ED14
:10043300F709EEF709EFF7191919D0E0FCD0E0FD41
:10044300D0E0FED0E0FF222518C582C0E0E51934D4
:10045300FFC583C0E0E518C3958224F810AF088573
:1004630083198582188008858319858218D2AFCEB7
:10047300F0A3E520F0A37808E608F0A3DEFAEFF096
:10048300A3E58124FAF8E608F0A3E608F0A3E6085A
:10049300F0A30808E608F0A3E608F0A31581158188
:1004A300D0E0FED0E0F8158115811581E8C0E0EEBB
:1004B300C0E022C0D02518C582C0E0E51934FFC5CD
:1004C30083C0E0E518C3958224F310AF0885831930
:1004D3008582188008858319858218D2AFC8F0A356
:1004E300E9F0A3EAF0A3EBF0A37908E709F0A3D8B6
:1004F300FAECF0A3EDF0A3EEF0A3EFF0A3D0E0F05D
:10050300A3D0E0F0A3D0E0F0A3E520F0A3E5F0F062
:10051300A322851983851882E0C0E0A3E0F9A3E054
:10052300FAA3E0FBA37808E0F608A3DFFAE0FCA354
:10053300E0FDA3E0FEA3E0FFA3E0C0E0A3E0C0E092
:10054300A3E0F5D0A3E0F520A3E0A3F5F010AF08F6
:100553008583198582188008858319858218D2AF0F
:10056300D082D083D0E0F8D0E032120BB2B90003CE
:100573000205ACE49003017838790C8002F0A3D82B
:10058300FCD9FA7A387B0E90008678DB79018015E6
:10059300E493A3AD82AE838A828B83F0A3AA82AB5A
:1005A300838D828E83D8E9D9E77582477583B674C4
:1005B300051208D675822275832674001208D6E4C4
:1005C3007375F0108E1A8F1B85821F85831E851805
:1005D30082851983E0CEA3E0CF851F82851E83EB3E
:1005E300C9EAC8EDCBECCAC3E833C8E933C9EA3377
:1005F300CAEB33CBC3EA9EF51DEB9FF51CB3500446
:10060300AB1CAA1DEC33CCED33CDD5F0DAAE1AAF6B
:100613001B22D083D082ECC0E0EDC0E0E493A3FCC6
:10062300E493A3FDED4C600D1206EDEC24FFFCED0D
:1006330034FFFD80EFE493A3FCE493A3FDED4C6052
:100643000D1207C0EC24FFFCED34FFFD80EFD0E07A
:10065300FDD0E0FCE493A3C0E0E493C0E02285195D
:1006630083851882E0A3FEE0A3F5207808E0A3F6D3
:1006730008DFFAE0A3FFE0A3C0E0E0A3C0E0E0A34B
:10068300C0E0E0A3C0E0E0A3C0E010AF088582189B
:100693008583198008858218858319D2AFD083D0CA
:1006A300820208DCD083D082E9C0E0E493A3C3864E
:1006B300F0C5F095F0F908E493A386F0C5F095F042
:1006C300700BE493A3C3994005E9048002A3E47586
:1006D300F002A42582F582E5F03583F583D0E0F9B5
:1006E300E493A3C0E0E493C0E022C0E0C3E49396A4
:1006F300087401939618400FE49366700808740118
:1007030093661870007019A3A3C3E4939608740149
:10071300939618A3A3400DD0E0D0E0D0E002065199
:10072300A3A3A3A3A3A3D0E022D083D082C5F0E4E4
:1007330093A3C5F0C395F0F5F0E493A3C395F040FC
:1007430005E5F0048001E475F002A42582F582E555
:10075300F03583F583E493A3C0E0E493C0E022740F
:1007630004800474028000CCC0E0EDC0E0E518C34F
:100773009CCCAD1950011D10AF068C188D19800645
:100783008C188D19D2AF120837D0E0FDD0E0FC22CF
:1007930074028000CCC0E0EDC0E0E518C39CCCAD92
:1007A3001950011D10AF068C188D1980068C188DF9
:1007B30019D2AF120815D0E0FDD0E0FC22C0E0C092
:1007C300F088F0E49366700808740193661870006B
:1007D300A8F0A3A3700BD0F0D0E0D0E0D0E00206E5
:1007E30051A3A3D0F0D0E022D083D082CCC0E0E4E8
:1007F30093A360061208B71470FAE493A360061279
:1008030009A81470FAD0E0FCE493A3C0E0E493C019
:10081300E022CAC0E0E493A3C582CCC582C583CDE0
:10082300C583F0A3C582CCC582C583CDC583DAE574
:10083300D0E0CA22CAC0E0E0A3C582CCC582C5838A
:10084300CDC583F0A3C582CCC582C583CDC583DA6C
:10085300E6D0E0CA22C0E0C0D0E8C0E0E9C0E0E5ED
:10086300A8D2AFC2C7A2E7A2E792AFD0E0F9D0E027
:10087300F8D0D0D0E03270090808082260161818A2
:1008830018C6C333C608C633C608C633C608C6333C
:10089300C6D5E0EA22C008C3E096F50808A3E096AF
:1008A300420808A3E096420808A3E09645087001B1
:1008B300D3D00822C0E0E493A3D39C5010E493A3C5
:1008C300C39C400AD0E0D0E0D0E0020808A3A3A371
:1008D300D0E022C09FF59FE473D09F22D083D082C3
:1008E300C09FE493C0E0740193C0E0740293F59F4A
:1008F300222518F58210AF08F518400C1519800849
:10090300F51840021519D2AF8519832200C0D025EE
:100913001810AF08F518500C05198008F518500287
:100923000519D2AFD0D0227404800A7403800674F0
:100933000280027401C0E0F4041208F4D0E0120B48
:100943007522BB0102E722C082C08389828A83BBEE
:100953000003E08002E493D083D08222601608086B
:1009630008C6C313C618C613C618C613C618C613BB
:10097300C6D5E0EA22C3E0C696F608A3E0C696F61B
:1009830008A3E0C696F608A3E0C696F6222518F853
:10099300E43519F9222518FAE43519FB222518FC48
:1009A300E43519FD22C0E0E493A36C7009D0E0D0D4
:1009B300E0D0E0020808A3A3D0E022251810AF0876
:1009C300F518400C15198008F51840021519D2AF17
:1009D30022E066701008A3E066700A08A3E0667060
:1009E3000408A3E06622C3E09608A3E09608A3E008
:1009F3009608A3E096A2D265D03322E7667010086A
:100A030009E766700A0809E76670040809E76622C1
:100A1300C3E096F008A3E096F008A3E096F008A3DD
:100A2300E096F022C3E697F60809E697F60809E68A
:100A330097F60809E697F622C3E4939608740193A0
:100A4300960874029396087403939622E627F60891
:100A530009E637F60809E637F60809E637F622709D
:100A63000422600D18C6C333C608C633C6D5E0F4E6
:100A73001822E647F60809E647F60809E647F608A6
:100A830009E647F622E657F60809E657F60809E6A7
:100A930057F60809E657F622E056F608A3E056F69D
:100AA30008A3E056F608A3E056F622E056F008A3A2
:100AB300E056F008A3E056F008A3E056F022E02643
:100AC300F608A3E036F608A3E036F608A3E036F608
:100AD30022E026F008A3E036F008A3E036F008A3EE
:100AE300E036F022E4C396F608E496F608E496F6B8
:100AF30008E496F622600D08C6A2E713C618C613CB
:100B0300C6D5E0F322C6F4C608C6F4C608C6F4C6C2
:100B130008C6F4C622C3E7960809E7960809E796CC
:100B23000809E79622C3E09608A3E09608A3E09697
:100B330008A3E0962275D00075813F7518017519D9
:100B4300030002056DE6F008A3E6F008A3E6F0084B
:100B5300A3E6F022600C08C6C313C618C613C6D595
:100B6300E0F422E0F608A3E0F608A3E0F608A3E029
:100B7300F622CAC0E0E6F0A308DAFAD0E0FA22E8E7
:100B8300F0A3E9F0A3EAF0A3EBF022E0F8A3E0F985
:100B9300A3E0FAA3E0FB22EAF0A3EBF0A3ECF0A3BB
:100BA300EDF022E0FAA3E0FBA3E0FCA3E0FD22E5E5
:100BB300C754F84401F5C77901222518F582E435B5
:100BC30019F58322C2AF75D69F020000221208DFF7
:100BD3009159001208DFE659001208DF245A001267
:100BE30008DF4E5A001208DFDA5A001208DF335BBF
:100BF300001208DF945B001208DFD35D001208DFE8
:100C0300A75F001208DF8660001208DFBF610012D1
:100C130008DF7264001208DF8567001208DF94673B
:100C2300001208DF2D68001208DF7468001208DF65
:100C3300FE68001208DF8F6B001208DFE86C0012F9
:100C430008DF7B6D001208DF056E001208DF296ED6
:100C5300001208DFDA6E001208DF8B6F001208DF64
:100C63000871001208DF4771001208DFBD7100121E
:100C730008DF1273001208DFB573001208DFE9738F
:100C8300001208DF0174001208DFA474001208DFE9
:100C93002E77001208DFCF78001208DFED780012FC
:100CA30008DF0B79001208DFDB79001208DF307DE3
:100CB300001208DF0080021208DF5A80021208DFE8
:100CC300C480021208DF4D81021208DF098202127A
:100CD30008DF9882021208DFB182021208DFD6828F
:100CE300021208DFF582021208DF3383021208DFE3
:100CF3008283021208DFAB83021208DFFA83021237
:100D030008DFA684021208DF6E85021208DFD3858E
:100D1300021208DFA086021208DFE686021208DF4D
:100D23000287021208DF3487021208DFDC8802120E
:100D330008DFB389021208DFDF89021208DF138A92
:100D4300021208DF348A021208DF438A021208DF24
:100D53004E8A021208DF028B021208DF758B021221
:100D630008DFE78B021208DFEF8B021208DF128D18
:100D7300021208DF458D021208DF078E021208DF18
:100D8300B68E021208DFFE8E021208DF608F021297
:100D930008DF718F021208DFE98F021208DF7190FA
:100DA300021208DFD590021208DFBA91021208DF9F
:100DB300EB91021208DF0992021208DF1C92021261
:100DC30008DF8F92021208DFD792021208DFE49243
:100DD300021208DFED92021208DFED94021208DF1F
:100DE3003796021208DF4796021208DF569702125F
:100DF30008DFCF97021208DF1198021208DF4D981F
:100E0300021208DF219A021208DF869C021208DF11
:100E13009A9C021208DFA49C021208DFAE9C021205
:100E230008DFB89C021208DFD19C021208DFDB9CAA
:100E3300021208DFE59C021208DFEF9C021208DFB2
:100E4300179D021208DF229D021208DF6C9D021219
:100E530008DF779D021208DF9B9D021208DFBF9D0A
:100E6300021208DF209E021208DF6B9E021208DFC7
:100E7300879E021208DFF19E021208DF3D9F0212D5
:100E830008DF859F021208DF00A0021208DF9AA084
:100E9300021208DF5EA2021208DFCCA2021208DFF0
:100EA300FEA3021208DF24A4021208DF94A5021293
:100EB30008DF48A9021208DF48AB021208DF20ADA1
:100EC300021208DFB9AD021208DFCBAF021208DF4E
:100ED3008DB0021208DFD9B0021208DF3FB102124F
:100EE30008DF51B1021208DFA1B3021208DFCEB44A
:100EF300021208DF20B5021208DFC5B5021208DFAF
:100F030080B7021208DFB1B8021208DFCFB80212AD
:100F130008DF24B9021208DF22BA021208DF4ABA34
:100F2300021208DFADBA021208DFAEBB021208DFFD
:100F330021BC021208DF4FBD021208DFBABD021244
:100F430008DFAABE021208DF10C1021208DF3EC189
:100F5300021208DF39C2021208DFD7C3021208DF08
:100F630027C4021208DFDFC4021208DF94C502128D
:100F730008DFF8C5021208DFB1C6021208DF51C745
:100F8300021208DFB5C7021208DFFFC7021208DF2B
:100F93003CC8021208DFA4C9021208DFE88001126C
:100FA30008DF2081011208DFF983011208DF3F8483
:100FB300011208DF5C85011208DFC185011208DF19
:100FC3001287011208DF038A011208DF228B011244
:100FD30008DFF795011208DF9696011208DF899959
:100FE300011208DF899A011208DFFF9A011208DF54
:100FF3003C9C011208DFA59E011208DFB3A0011279
:1010030008DF40A1011208DF14A2011208DFA0A229
:10101300011208DFAAA2011208DFD3A2011208DF1E
:1010230080A3011208DF6BA4011208DF43A501129C
:1010330008DFA7A5011208DFD0A5011208DFFDA56F
:10104300011208DF4EA8011208DF29A9011208DFE7
:101053006DA9011208DFDEA9011208DF97AA0112A8
:1010630008DFC9AA011208DF10AB011208DF43AB86
:10107300011208DFA8AB011208DFF7AB011208DF8A
:10108300FCAB011208DF50AC011208DF9AAC01126D
:1010930008DF96AD011208DFFBAD011208DF62AE77
:1010A300011208DF87B1011208DF5BB2011208DF0A
:1010B300C5B3011208DF9FB6011208DF47B701125B
:1010C30008DF6EB9011208DF13BA011208DF51BA43
:1010D300011208DF2ABC011208DF3DBC011208DF40
:1010E30046BC011208DF4FBC011208DF64BC0112C9
:1010F30008DF83BC011208DF62BE011208DFB5BE40
:10110300011208DFBFBE011208DFE0BE011208DFD3
:101113002FC0011208DF78C0011208DF58C1011285
:1011230008DF83C2011208DF39C3011208DF3BC4A1
:10113300011208DF3DC5011208DF23C6011208DFD3
:101143003AC6011208DF77C6011208DF81C6011211
:1011530008DF8CC6011208DFAAC6011208DFECC63D
:10116300011208DF4AC7011208DF6FC7011208DF47
:1011730089C7011208DF16C8011208DF4FC8011220
:1011830008DF9DC9011208DFEFC9011208DF09CB8F
:10119300011208DF30CB011208DFCCCB011208DFCC
:1011A30048CC011208DF94CD011208DFAFCE011243
:1011B30008DF75CF011208DF1FD0011208DFA4D0AA
:1011C300011208DF0CD1011208DFC1D1011208DFBF
:1011D30013D2011208DF79D2011208DF42D30112C0
:1011E30008DF65D3011208DF1DD4011208DF41D4E3
:1011F300011208DF63D4011208DFC4D4011208DF2F
:101203000FD7011208DFEAD7011208DF94D80112C1
:1012130008DFD5DA011208DF23DB011208DF66DB02
:10122300011208DFBEDB011208DF1CDC011208DF3C
:1012330046DC011208DF6ADC011208DF9BDC0112C5
:1012430008DFC5DC011208DF0CDD011208DF60DDF9
:10125300011208DFBCDD011208DFBDDE011208DF69
:1012630027E0011208DF65E0011208DF8EE00112BA
:1012730008DF1FE1011208DF69E1011208DF8DE1D8
:10128300011208DFE0E1011208DFFBE1011208DFD0
:10129300B6E2011208DFE0E2011208DF23E30112E4
:1012A30008DF79E3011208DF85E6011208DFB8E6FB
:1012B300011208DF75E7011208DF50E8011208DFA9
:1012C300E0E8011208DF21E9011208DF26DF04123A
:1012D30008DF5EDF041208DF7FDF041208DFC1DFEF
:1012E300041208DF25E0041208DF2FE0041208DFF0
:1012F3003FE0041208DF76E0041208DF1FE4041263
:1013030008DFE7E5041208DFDBE7041208DF79E80A
:10131300041208DF00E9041208DF4D80031208DF1E
:10132300F680031208DFD581031208DFF08203126F
:1013330008DF1083031208DF3284031208DFCF852E
:10134300031208DF3C86031208DF1287031208DF4B
:101353001888031208DF7D88031208DFB988031297
:1013630008DF1289031208DF4B89031208DF94890F
:10137300031208DF268A031208DFC38A031208DF79
:10138300988B031208DF658C031208DFF28C0312BB
:1013930008DF188D031208DF458D031208DF768DF1
:1013A300031208DF4B8E031208DF5B8E031208DF84
:1013B300AE8E031208DFBB8E031208DFC88E031242
:1013C30008DFD18E031208DF358F031208DF938FF6
:1013D300031208DFDE8F031208DFF98F031208DF21
:1013E3002090031208DF3D90031208DF4990031297
:1013F30008DFED91031208DF0692031208DF8292E1
:10140300031208DF9592031208DFA592031208DF87
:101413004B93031208DFBB94031208DFCE9503122C
:1014230008DF6E96031208DF7896031208DFE6964C
:10143300031208DFF796031208DF3697031208DF5B
:101443006497031208DF3198031208DF88980312A8
:1014530008DFCD98031208DF2399031208DF4199AF
:10146300031208DF8F99031208DF5D9A031208DF66
:10147300AB9A031208DFED9A031208DF709B031285
:1014830008DF9A9B031208DFD09B031208DFDF9B60
:10149300031208DF3D9C031208DFB59C031208DF2B
:1014A300F69C031208DF459D031208DF709D0312AB
:1014B30008DF8A9D031208DFA49D031208DF799ECB
:1014C300031208DF839E031208DFBE9E031208DFA8
:1014D300CE9E031208DF1F9F031208DF339F031200
:1014E30008DF51A0031208DF66A0031208DF00A182
:1014F300031208DF7FA1031208DF22A2031208DF11
:101503002DA2031208DF7AA3031208DF96A30312A6
:1015130008DFEEA3031208DF5CA4031208DFA8A40C
:10152300031208DFC2A4031208DF22A5031208DF97
:10153300C0A5031208DF0BA6031208DF6EA803126F
:1015430008DF06A9031208DF7DA9031208DFC3AB76
:10155300031208DFDBAB031208DFDEAB031208DF85
:10156300EAAB031208DFFEAB031208DF06AC03127B
:1015730008DF3DAC031208DF31AD031208DFBBAD5A
:10158300031208DF3DAE031208DFB2AE031208DF19
:101593008AAF031208DFACAF031208DF43B00312B4
:1015A30008DF4FB0031208DFACB0031208DFAFB09F
:1015B300031208DF1EB1031208DF6AB2031208DF49
:1015C3007DB3031208DF08B4031208DF1BB503124F
:1015D30008DFE5B5031208DF16B6031208DF3CB6D1
:1015E300031208DF45B6031208DF74B6031208DFDF
:1015F30024B7031208DFD4B7031208DF47B8031276
:1016030008DFF9B8031208DF6CB9031208DFABB9BE
:10161300031208DFF4B9031208DF3FD4041208DF12
:10162300AAD4041208DFF6D4041208DF40D504124A
:1016330008DFC4D5041208DFCFD7041208DFFFD9AF
:10164300041208DF45DD041208DF74DD041208DF2D
:1016530092DD041208DFFCDD041208DF24DE04122D
:1016630008DF57DE041208DF8CDE041208DFDBDE3E
:10167300041208DFD1BB041208DF4DBC041208DFDB
:1016830074BC041208DFA7BC041208DF06BE0412F0
:1016930008DF22BE041208DF67BE041208DFECBEB7
:1016A300041208DF38BF041208DFC8BF041208DFC2
:1016B30096C0041208DFF1C0041208DF56C10412F9
:1016C30008DFCBC1041208DFF4C1041208DF35C2FE
:1016D300041208DFECC3041208DFC6C4041208DFD7
:1016E3009CC5041208DF6BC6041208DFAFC60412E0
:1016F30008DF07C7041208DF29C7041208DFB5C7CC
:10170300041208DF46C8041208DF8BBF051208DF86
:10171300A9BF051208DF0EC0051208DFABC0051212
:1017230008DF02FF011208DFB0FE031208DFD8FE54
:10173300031208DFC7FF031208DF48BE051208DFE4
:101743006BBF051208DF93C8041208DF63C90412D4
:1017530008DF88C9041208DFA8C9041208DFBCC95E
:10176300041208DF24CA041208DF48CA041208DF7F
:10177300CBCB041208DF01CD041208DFE2CD041243
:1017830008DF43CE041208DF6FCE041208DFEECE6B
:10179300041208DF3FCF041208DF60CF041208DF12
:1017A300D8CF041208DFFDCF041208DF62D0041281
:1017B30008DFE6D1041208DFB3D2041208DFEAD24D
:1017C300041208DF0FD3041208DF2FD3041208DF3B
:1017D3005AD3041208DF6ED3041208DFD7D30412DE
:1017E30008DF2BD4041208DF2DB8051208DF4EB82A
:1017F300051208DF87B9051208DFB1B9051208DF42
:101803005AC7051208DF6AC7051208DF74C7051235
:1018130008DF96F0031208DF99F0031208DF6BF17B
:10182300031208DF8EF1031208DFD8F1031208DF79
:101833000AF2031208DF38F2031208DF6C500012B9
:1018430008DFA3F2031208DFB6F3031208DFFDF388
:10185300031208DF3FF4031208DFB8F4031208DFB2
:1018630063F5031208DF86F5031208DFF4F50312AC
:1018730008DF5DF7031208DF16F8031208DF09F922
:10188300031208DFFDF9031208DFABFA031208DFC6
:10189300E0FA031208DF3AFB031208DFE4FB03124A
:1018A30008DF8458001208DF9EFD031208DF21FEC3
:1018B300031208DF61FE031208DF0080051208DF50
:1018C3003A80051208DFA380051208DFC4800512E1
:1018D30008DFDD80051208DF7D81051208DF8681C0
:1018E300051208DFD181051208DFFA81051208DF2E
:1018F3000782051208DF7982051208DF0B830512C0
:1019030008DF5983051208DF8283051208DFE183AC
:10191300051208DF0D84051208DF8884051208DF2D
:10192300D284051208DF1285051208DF4A850512E5
:1019330008DF5C85051208DF6E85051208DF8D85DB
:10194300051208DF9685051208DF6786051208DF92
:10195300A786051208DFD086051208DFFA8605126E
:1019630008DF3D88051208DF6388051208DF7488E5
:10197300051208DF938A051208DFB28A051208DF11
:1019830016B4051208DF4CB4051208DF97B405122C
:1019930008DFE0B5051208DF0080041208DF31819B
:1019A300041208DF6D81041208DF2283041208DFAA
:1019B3004C83041208DFC585041208DF0586041270
:1019C30008DF9987041208DF3888041208DF90883B
:1019D300041208DF2189041208DF5989041208DF81
:1019E3009B89041208DF158B041208DF9A8C0412FA
:1019F30008DFDB8E041208DF098F041208DF358F3E
:101A0300041208DF3E8F041208DF948F041208DFEC
:101A13002490041208DF6293041208DFE693041291
:101A230008DF1DC8051208DF33C8051208DFDCC54F
:101A3300051208DF0995051208DF1E95051208DF58
:101A4300D195051208DF1196051208DF2A960512B3
:101A530008DF5E96051208DFAB96051208DFDF96F6
:101A6300051208DF2197051208DF1D99051208DF0B
:101A7300D5C4051208DF12C5051208DF54C50512C7
:101A830008DF64C5051208DF17CA021208DF6FCA30
:101A9300021208DFFFCA021208DF0CCC021208DFB1
:101AA300E9CC021208DF86CD021208DFD3CD021281
:101AB30008DF2ACE021208DF7FCE021208DFEECE45
:101AC300021208DF93D1021208DF29D2021208DFC3
:101AD30060D2021208DFA9D2021208DF95D40212E3
:101AE30008DF10D5021208DFE2D5021208DF1BD689
:101AF300021208DF3AD6021208DF85D6021208DF87
:101B03009BD6021208DFA8D6021208DFE1D6021222
:101B130008DFF3D6021208DFCAD7021208DFD5D7CF
:101B2300021208DF20D8021208DF83D8021208DF6E
:101B3300C3D8021208DFD1D9021208DF37DC021240
:101B430008DF61DC021208DF6BDD021208DF90DDC3
:101B5300021208DF11DE021208DFD9DE021208DFEB
:101B630028DF021208DF89DF021208DF34E00212E5
:101B730008DF5EE0021208DF68E0021208DF72E0AD
:101B8300021208DF75E0021208DFEFE0021208DF3D
:101B930028E1021208DF3BE1021208DF67E10212CB
:101BA30008DFA2E1021208DFA5E1021208DFE1E18A
:101BB300021208DFF7E1021208DF13E2021208DF64
:101BC30042E2021208DF62E2021208DFABE2021213
:101BD30008DFE2E2021208DFE2E3021208DF84C652
:101BE300051208DF9CC6051208DF2BF3041208DF79
:101BF3007AF3041208DF38F5041208DFF2F6041250
:101C030008DF30F7041208DF23F8041208DF2AF98B
:101C1300041208DF4CF9041208DF96F9041208DFF6
:101C230017FA041208DFE2E9011208DF05EA0112DC
:101C330008DFEEEA011208DF37EB011208DF9AEB47
:101C4300011208DFFAEB011208DF4BEC011208DF87
:101C5300C1EC011208DF43ED011208DFB8ED0112F8
:101C630008DFFBED011208DF06F2011208DF6BF457
:101C7300011208DF9EF4011208DFECF4011208DF01
:101C830088F6011208DF8BF6011208DF69F70112EB
:101C930008DF9FF8011208DFC1FA011208DF62FBB7
:101CA300011208DF90FC011208DFF5FC011208DFC6
:101CB300FAFD011208DF47FE011208DF24A804120F
:101CC30008DFCFA8041208DF39A9041208DF49A9E5
:101CD300041208DFCBA9041208DF22AA041208DFCA
:101CE3001DAB041208DF44AB041208DFE8AB041297
:101CF30008DF37AC041208DF95AC041208DFF0AC40
:101D0300041208DFD1AF041208DF6DB0041208DF3C
:101D1300CAB0041208DF95B2041208DF2FB304120D
:101D230008DFC8B3041208DF26B4041208DF9DB429
:101D3300041208DFE4B5041208DFCCB6041208DF8E
:101D43005CB7041208DF60B8041208DFF9B80412A4
:101D530008DF63B9041208DF76BA041208DF43947C
:101D6300041208DFAE94041208DFF694041208DFAD
:101D73003A95041208DF8C95041208DFE9950412E2
:101D830008DF2496041208DFC396041208DF329793
:101D9300041208DFAA97041208DFC298041208DFAE
:101DA300EA98041208DFF699041208DF079A04126E
:101DB30008DF1D9A041208DF4B9B041208DF799B8E
:101DC300041208DF459C041208DF679C041208DF35
:101DD3008A9C041208DFA49C041208DFC69C041228
:101DE30008DFA59D041208DFFF9D041208DF799F19
:101DF300041208DFDB9F041208DFFA9F041208DFD6
:101E030042A1041208DFBDA1041208DFF3A10412EA
:101E130008DF2CA2041208DF21A3041208DF2EA47A
:101E2300041208DF23A5041208DF31A5041208DF1A
:101E330021A6041208DFC3A6041208DF36A7041282
:101E430008DF4BA7041208DFECA7041208DF47FAE8
:101E5300041208DF84FA041208DF1DFB041208DFF2
:101E630028FC041208DF70FE041208DFECFE0412E3
:101E730008DF98AB051208DFC6AC051208DF85AD95
:101E8300051208DFDAAD051208DF5DAE051208DFC3
:101E9300C6B6051208DF0AC4051208DF1BC4051203
:101EA30008DFBBC4051208DFECB9051208DFFAB975
:101EB300051208DFECFF041208DF6EC5051208DF08
:101EC3007EC5051208DF90C5051208DFD9C50512C6
:101ED30008DF06C2051208DF8BC2051208DFF1C254
:101EE300051208DFF2FF011208DF05A8051208DF5B
:101EF30013A8051208DF8CA8051208DF61A90512D3
:101F030008DF33AB051208DFF9C7051208DF95C7F1
:101F1300051208DF1AFA021208DF46FA021208DF76
:101F2300E0FC021208DF1EFD021208DF5AFD021256
:101F330008DF6EFD021208DF87FD021208DF7AFE5A
:101F4300021208DF2CFF021208DF40FF021208DF33
:101F530098BB051208DFBCBB051208DFD5BB051211
:101F630008DF14BC051208DF47BC051208DF77BC85
:101F7300051208DFDFBC051208DFE2BC051208DF2B
:101F8300ECBC051208DFF9BC051208DF587D00120E
:101F930008DF807D001208DFC17D001208DFDF7DCE
:101FA300001208DFFA7D001208DF627E001208DFEC
:101FB3006E7E001208DFCD7E001208DFF17E001274
:101FC30008DFB27F001208DFBF7F001208DFD07F77
:101FD300001208DF6DFF041208DF85FF041208DF1B
:101FE300ABFF041208DF388C051208DF818D051260
:101FF30008DF878D051208DF9E8D051208DFBF8D70
:10200300051208DFD58D051208DFE98D051208DFFB
:10201300688E051208DFCD8E051208DF638F051267
:1020230008DF3C90051208DF4C90051208DF5B9037
:10203300051208DF5BFF021208DF7FFF021208DFD1
:10204300A7FF021208DFCFFF021208DFA8B10512B3
:1020530008DF14B2051208DF32B2051208DFA3B29B
:10206300051208DFE0AE051208DFF9AE051208DF3E
:1020730010AF051208DF19AF051208DF37AF0512DD
:1020830008DF41AF051208DF4BAF051208DF5EAF73
:10209300051208DFE4AF051208DF59B0051208DFA7
:1020A30087B0051208DFD8B0051208DF24B1051286
:1020B30008DF3FB1051208DF49B1051208DF5AB145
:1020C300051208DF9DB1051208DF39C6051208DFC6
:1020D300ACE9041208DFD8E9041208DFF6E90412B8
:1020E30008DF09EA041208DF24EA041208DF83EA9E
:1020F300041208DFB1EA041208DFB4EE041208DFA9
:102103000BF0041208DF3DF0041208DFB0F00412F4
:1021130008DF1CF2041208DF44F2041208DF59F24C
:10212300041208DF69F2041208DFA9F2041208DFBF
:10213300EBF2041208DFFBF2041208DFCEC0051233
:1021430008DFDEC0051208DFFCC0051208DF17C177
:10215300051208DF3EC1051208DF5FC1051208DF63
:1021630079C1051208DFB1C1051208DFD4C1051218
:1021730008DF16C7051208DF6FA4051208DF7FA466
:10218300051208DF9DA5051208DFCFA5051208DF9C
:10219300F1A5051208DF19A6051208DF32A60512FC
:1021A30008DF6EA6051208DFD5A6051208DF11A702
:1021B300051208DF58A7051208DF85A7051208DFF7
:1021C300B1A7051208DF03BD051208DF26BD0512FE
:1021D30008DF15BE051208DF18BE051208DF0AC3A3
:1021E300051208DF69C3051208DFA7C3051208DF5C
:1021F300E8C3051208DF29BA031208DF35BA031250
:1022030008DF92BA031208DFAABA031208DF59BB28
:10221300031208DFC3BB031208DF0CBC031208DF81
:10222300D4BC031208DF4FBD031208DF09BF03123A
:1022330008DFD7C0031208DF27C2031208DF6CC30D
:10224300031208DF00C4031208DF65C5031208DFA9
:102253005FC6031208DF79C7031208DF2DCC031210
:1022630008DF06CD031208DF94CD031208DFB9CDD2
:10227300031208DFDECD031208DF75CE031208DF79
:1022830093CE031208DFB1CE031208DF18CF031277
:1022930008DF37CF031208DF64CF031208DF71D0E2
:1022A300031208DF47D1031208DFB0D2031208DF9D
:1022B300D1D2031208DF52D3031208DFF8D303127B
:1022C30008DF40D4031208DFB2D4031208DF41D57C
:1022D300031208DFA6D5031208DF11D6031208DFA5
:1022E300CBD6031208DF44D7031208DF80D70312CB
:1022F30008DFEDD7031208DF3DD9031208DFFCD94D
:10230300031208DFAADA031208DF32DC031208DF44
:10231300CBDC031208DF45DD031208DF46DF0312BF
:1023230008DF59E0031208DF6EE0031208DF9BE0C9
:10233300031208DF21E1031208DF51E1031208DF72
:10234300ABE1031208DF42E2031208DF33E40312B6
:1023530008DF17E6031208DF1DE7031208DFF1EABF
:10236300031208DFBBEB031208DFB8EC031208DF2C
:102373006DEE031208DF0B9D051208DF379D051272
:1023830008DFA19E051208DFC49E051208DF16E5CB
:10239300021208DFB6E5021208DF40E6021208DF88
:1023A300E2E6021208DFA8E8021208DFA2E902123D
:1023B30008DFBDE9021208DFD3EA021208DF96EC58
:1023C300021208DF26ED021208DF7CED021208DF9D
:1023D300D5ED021208DF50EE021208DFC6EE02123C
:1023E30008DFFEEE021208DFF5F5021208DF43F8FC
:1023F300021208DF25F9021208DFD2C6051208DF30
:10240300CFA0051208DF48A1051208DFAFA205120D
:1024130008DFFFA2051208DF37A3051208DF51A367
:10242300051208DF76A3051208DF22A4051208DFD0
:1024330047A4051208DF2A99051208DF48990512F7
:1024430008DF8C99051208DFB299051208DFD499C9
:10245300051208DFEC99051208DF049A051208DF5C
:102463001C9A051208DFBE9A051208DF009B0512AD
:1024730008DF0A9B051208DF2C9C051208DF359C38
:10248300051208DF3E9C051208DF479C051208DF92
:10249300519C051208DF8C90051208DF8C940512FD
:1024A30008DF9A94051208DF9F94051208DFCDC751
:1024B300051208DFFA4F001208DFB44F001208DFDD
:1024C300D34E001208DF9D4E001208DF624E001249
:1024D30008DFF84C001208DF7E4C001208DFBB4B0C
:1024E300001208DFB14A001208DF684A001208DF51
:1024F300424A001208DF7E49001208DFC847001273
:1025030008DF6847001208DF3947001208DF364743
:10251300001208DFFC45001208DFE844001208DF60
:10252300A843001208DFDA42001208DF5242001209
:1025330008DF7241001208DFD940001208DF334080
:10254300001208DFEB56001208DFBB56001208DF4B
:102553007F56001208DF6B56001208DF5756001231
:1025630008DF8955001208DFD654001208DFF53F53
:10257300001208DF5B3F001208DF1A3F001208DF7A
:10258300BD3E001208DF8552001208DF8A3E0012AA
:1025930008DF1E3E001208DFEB3D001208DF903D0E
:1025A300001208DF5A52001208DF5F3D001208DFF5
:1025B30012FC031208DF283A001208DF3A3900122E
:1025C30008DFF437001208DFA037001208DF943762
:1025D300001208DFFB36001208DFC935001208DFDE
:1025E3002433001208DFC730001208DF7B300012EB
:1025F30008DF602F001208DFF52E001208DF1D2E02
:10260300001208DFE42C001208DFAB2C001208DFF5
:10261300FB51001208DF792C001208DF75F203006A
:10262300000080FB87000100C10E24000200930E0E
:1026330025000200950E26000200970E27000200D7
:10264300990E280001009B0E290001009C0E8400B6
:1026530004009D0E86000100A10E2A000100A20EB7
:102663002B000100A30E2C000100A70E2D00080073
:102673000F072E000100A80E2F000100A90E300045
:102683000100AA0E31000100AB0E32000100170752
:1026930033000100180734000100AC0E36000100BE
:1026A300190738000100AD0E39000100A60E8300A2
:1026B3000200BF0E63000100240764000100A40EA2
:1026C30065000100A50E6D000100250771000800DB
:1026D300070766000100BE0E43000100AF0E440071
:1026E3000200B00E45000100B20E46000200B30E18
:1026F300470008001C0748000100B50E4B0001000D
:10270300B60E04000100C20EA1000100C50E370081
:102713000100C40E88000100C30E3C0001001A072B
:102723003D000100AE0E49000200B70E6700010034
:1027330026074D000200B90E4E000100BB0E4F00EC
:102743000200BC0E3E0001001B0700000000000059
:1027530000013636010100010201000103010001FD
:102763000401060605020000070100340801000FFA
:10277300090401010D0100FF0E080000170200000B
:10278300190100FF1A0100011B0100FE1C010008D2
:102793001D0200001F0100012001000121020000B1
:1027A3002301000F24020000260100012701000875
:1027B300280200FF2A0100072B0102402C01000020
:1027C3002D0100012E0100012F0100FF30010B1C20
:1027D300310800003A0100083B01000F3C010001F1
:1027E3003D0100FF3E0400004204000046040000D7
:1027F3004A0400004E040000520400005604000086
:102803005A0400005E20FFFF3600010006000000AE
:102813000F0000000000000000000000000003FFA4
:10282300FF00000403FFFF0000FFFF0FF40100059A
:10283300C4040320000100000B000000000000009E
:102843000003010F00000000000000000000000072
:102853000000000000000000000000000000000075
:102863000000000000000000000000000000000065
:102873000000000000000000000000000000000055
:1028830000000000000001037103010301030103C1
:1028930001030103220302030103100300030003E6
:1028A30000030003000300030003420300032403A7
:1028B3000603000300030403120325032303250374
:1028C300230304030403000300030003440300037E
:1028D3000003230300036503210035038103000381
:1028E300050300030003000300032503230303047C
:1028F300710402046004110470040204020401045C
:1029030002041004610400041404630473047204D5
:1029130062044304000413040604000400040404D2
:1029230012040004000400040004510464000004C1
:1029330000040004440400040004000400046504CB
:1029430000043504810464000504000483040004C6
:102953000300710030016000110070003102200398
:102963005004800010006100000014006300730035
:102973007200620043000000130006000000000024
:102983000400120000000000000000000400040026
:10299300370037003C024400000000000000000044
:1029A3006500000035008100000005000000830081
:1029B3000000010171010101010111010101310156
:1029C300010101018001100161013B001400630159
:1029D30073017201620143010001130106013D010C
:1029E300350004011201000100010001000104018E
:1029F3000401330133013C0144013201360000017B
:102A0300000165010001350081010001050182011A
:102A1300830100010302710230016002110270029E
:102A23000102020202028002100261023A00410026
:102A3300630273027202620243020002130238004D
:102A4300000200020402120200020002000200025D
:102A530004020402370037003C024402000239003A
:102A63000002000265020002350281020002050233
:102A7300820283020002000003002001E6800000BE
:102A830000002001E7800000040042016080000094
:102A93000500420129800000060042011480000065
:102AA30007002001E480000010004203F40E000040
:102AB300110020032A0E000012001003050F03006B
:102AC300000021032B0E0604000018012D0E06043E
:102AD300010030012E0EEC224623F2220822F822B6
:102AE3004C23F8225823FE220822F8224C230423E5
:102AF30008220A23082210230822162308221C2353
:102B030008222223082228235E232E2308220000E2
:102B130000000000000000000000342370233A236B
:102B23000822342370233A23082228235E234023D8
:102B330008220000FE1C1300921C0100FE1C020070
:102B4300441C03004A1C0400501C0500561C0600CC
:102B5300621C1100861C14008C1C1500741C1F00C1
:102B63007A1CFFFF000001D80F06021008FC0F0BB0
:102B73001A10104E0F02DE0F05F00F07E40F0CC002
:102B83000F0DCC0F64860DFF000007ECFDFDFDEC7F
:102B9300DCDCCCBCACAC9C9C8C7C7C6C6C5C5C5CF2
:102BA3004C4C3C3C2C2C1C1C03EAF5E5D5D5C5B597
:102BB300A5959585857575656555554545353525C2
:102BC3002515150500160F00000B150B0200022238
:102BD3000F3300000E5A6967426565416C6C696189
:102BE3006E6365303901030507090B0D0F000204FD
:102BF30006080A0C0D303017181921301B1D1F3021
:102C030000034A49434E181A2505020001191618F4
:102C13001616182303000C0E020B040B0A070800F8
:102C23000F00393D3F373C3C362C442D30301618CD
:102C33001920231A1C1E300204020101010109029A
:102C430000BE040AE80300000000000400000000C6
:102C53000E003C003C007F00E8030A030308090060
:102C630009000CFF1E1E1005050C030404281501A2
:102C7300040C01080C08C082C08312167490031060
:102C830074F8F0A37425F090031274F2F0A3742582
:102C9300F090031474ECF0A37425F090031674E61B
:102CA300F0A37425F0024FF374F712044AE9FE907F
:102CB3000302E4F0EE900301F0900EB3123EB6125D
:102CC30054C47C1C7D077A057B031221F0900EB55A
:102CD300E090030DF090030E7407F0A37407025AFB
:102CE3009D74F412044A8A088B09EB548070030222
:102CF3002DB7900301E0F91218F68A0A8B0BAE0A7E
:102D0300AF0BEE4F7003022DAE126189E0F912543E
:102D13008B900320125DB0A3A3A3A3A3A3A3A3E05B
:102D2300640270378A828B831254A680078C828D4B
:102D330083125617EC4D60208C828D83E06A7003FA
:102D4300A3E06B70E88C828D83A3A3E06970DE90AF
:102D53000EBB126B16F0804C1225BC8E828F83E063
:102D630064017034EE2418122E15120936125845D8
:102D7300120762EE2412122E15120936126801127E
:102D83000932124F81120766EE241712680D1216CC
:102D930032740A12090F800CE064027007EEFAEF36
:102DA300FB1224B4EEFAEFFB1218E4AA08E5096457
:102DB30080FB805BEAA2E05014900318125AC060B3
:102DC30006126DFF1205C2E50864018039540260E2
:102DD3000C900E387401F0EA6402FA8032EA540867
:102DE30060291225C28B0BEA450B7016900322E46F
:102DF300F0A3F0A3F0A3F07A08FB900301E0F9122B
:102E03001A58E5086408FAAB0980047A007B0002CB
:102E130037EF1266F5F50A780A2274F412044A8A27
:102E2300088B098A828B83126CA01266D038F583D3
:102E3300E02409FA7B001218DE8A0A8B0BAE0AAF74
:102E43000BEE4F7003022EE38E828F837402F0A386
:102E5300E412597FA3A3A3A3E8F0A3E91254C8A3E0
:102E6300A3A3A3A3A3A3F0E5082403F8E43509125D
:102E730046CE1266D03AF583125DA9F0EE2409FA24
:102E8300E43FFB8E828F83A3A3124E26F5838882B1
:102E9300E0A2E58E828F83A3A3A3A3A350047401AE
:102EA3008001E4F0E5082403F8888289831254A69C
:102EB300EA126AFC3BF583122EE812092EEA126627
:102EC300D03B124F8A8E828F831254A41218BA7485
:102ED3000312090FEEFAEFFB900301E0F91218EA6F
:102EE3000237EFA3A3E0F508A3E0F509750A00781C
:102EF300082274F212044A8A088B09ECFAEDFB7477
:102F03000E120BBDE0FC1216A48A0C8B0DAE0CAF97
:102F13000DEE4F6031AC08AD09121692E96027AC93
:102F230008AD09EEFAEFFB121698E970158E828F41
:102F330083122F4EEEFAEFFB12168CAA08AB09127E
:102F430016BC7900800279B4800EA3A3A3E0F50830
:102F5300A3E0F5092212090F7F0602066174EF123E
:102F6300044A74F71209BE8A0A8B0BECFEEDFF7557
:102F73000DB3750C0075100080020510902C6EE4E3
:102F830093F8E510C398400302306F851008AA0830
:102F93007B001217048A088B09EA450960DC8A82E0
:102FA3008B83A3A3A3A3A3E0250CF50CF50EC3E524
:102FB3000A950EE50B940050C17C157D007900EE57
:102FC300FAEFFB1218C6850882850983A3A3A3A37E
:102FD300A3E0F8E50AC3950C2825E0F8E433F9E506
:102FE3000828F582E50939F5831254B21210D4EAA0
:102FF300FCEBFDEEFAEFFB1221F0850882850983D5
:10300300A3E06401700A1258457401125918803DF7
:10301300AC18AD198508828509831254A41216ECE5
:10302300E960307408120BBDE0C0E0125845D0E0EF
:10303300F07408120BBDE06403700CAC18AD1912E8
:103043005D971221F0800C851882851983125855DB
:103053001254C48508828509831245EAA3A3125931
:1030630020C0E01263D0D0E0F0750D00A90D740903
:1030730012090F7F0902066174F712044AE9FE8AF6
:10308300828B83A3A3A3A3A3A3E0540860338A8200
:103093008B83A3A3A3A3A3A3E0540260218A828BFF
:1030A30083A3A3A3A3A3A3A3A3A3E06406600F74B2
:1030B300E96E600A74CD6E600574F06E70031225BC
:1030C300DA0256B674E812044A74F81209BE74069A
:1030D300120BBD126CDAECFEEDFF891775150012A9
:1030E300330E1216B08A0A8B0BEA450B70030232B9
:1030F300C0EE2410125F75A90A120E5E8A128B139A
:10310300EA451370030232C0EE2403F50CE43FF5E5
:103113000DEE2406F508E43FF5097C0085088212CC
:1031230067291216B68A108B11850C82850D8312BE
:1031330033031244D6851282851383A3A3A3A31258
:1031430040D1123303A3A3A3A31261B385128285D3
:103153001383A3A3A3A3A3A31270F112590C1209FF
:103163002E1266CF3F124F8A851282851383A312D4
:10317300549E1218BA740312090F751400742312A3
:103183000BBDE0F5167424120BBD780C120B66020E
:1031930032458510828511831254A41216F28508D4
:1031A30082850983A3EAF0A3EB12331FA3A312556D
:1031B300721235AFA2E6500F850882850983A3A357
:1031C300A3A3A3E0D2E1F0E5157066850882850923
:1031D300831268C1900376E0687003A3E0697051BD
:1031E300850882850983A3A3A3125F7A75100078EB
:1031F30010120936780C12092AE516F51078101208
:1032030009367426120BBD120766900383120766F4
:1032130079007410120BBD1254AA122544740A12B9
:10322300090F850882850983A3A3A3A3A3E044050B
:10323300F074012514FC12330E1216B68A108B118A
:103243000514E51045116050851408C3E508950A77
:10325300E4950B5043E51475F006A4F8A9F0E512C4
:1032630028F8E51339F9E8240CF508E439F509855C
:103273000882F583E4127CE8E0640160030231957F
:10328300751501850882850983740112331F126441
:1032930022E8F0A3E90231ACAA12AB13120E647850
:1032A30012120932AD167424120BBDE0FCA917EEFD
:1032B300FAEFFB1225E0740212090F803E8E828F13
:1032C30083A3A3A3E0C0E07403120BBDD0E0F0EE30
:1032D30024121266EEC0E07404120BBDD0E0F0E5D8
:1032E3000A450B70097405120BBD74B98007740588
:1032F300120BBD7410124FAA12254A740802391E0C
:10330300E0851282851383A3A3A3228E828F831267
:1033130067378E828F83A3A3A3E0F922127CECA3E9
:103323002274E812044A74F21209BEE985188285F0
:103333001983F08A0A8B0B8C168D177426120BBD1A
:10334300123D22AA0CFB120E52E9F514AA0CAB0D86
:10335300120E58E9F515E51470030235977513003D
:10336300800F8E828F83A3A3A3A3A3E0D2E3F005F0
:1033730013E50C12547F350DF583E0F8E513C3987C
:10338300400302358EE514700302358EE51375F0A4
:1033930006A4F8A9F0E50C28F8E50D39F9E8240CA2
:1033A300FEE439FF8E828F83A3A3A3A3A3E0A2E04D
:1033B30040BD750E008E828F83E070431254A512B8
:1033C3000D448A088B09A808A909E8496031888255
:1033D3008983A3A3A3A3E06401600D88828983A3E7
:1033E300A3A3A3E0640370178E828F83A3A3A3A375
:1033F300A3E0D2E7F0750E01E51570030233727591
:103403000F00750808750900E5176003750F207C28
:10341300087D00790074011209981218C68E828FF4
:1034230083E0603C9003C6E064017018E50FD2E3CB
:10343300F50F7509101268BD7401120BBD124CED26
:1034430074FF803A430F0C75080C8E828F83A3128E
:1034530035A51254C07401120BBD74FFF0A3801E76
:10346300851882851983E06009E50FD2E6F50F75AB
:10347300080A1268BD7401120BBDE8F0A3E9F074E9
:1034830003120BBDE50F126455C0E07405120BBDAA
:10349300D0E0F07406120BBD7401F01209981218F3
:1034A3003C740D120BBDE060030235697409120B05
:1034B300BD1244B38E828F83A3A3A3A3F074091216
:1034C3000BBD1235B8123D18E5161235AF601190D9
:1034D30003C6E0C0E07409120BBD123D2ED0E0F02C
:1034E300850C82850D83A3A3A3E0C0E07409120BAE
:1034F300BD126759D0E0125648C0E07409120BBDE3
:10350300123D38D0E0F07409120BBD1235A5126CD0
:10351300B812645E1254A6126C99EAF0A3EB12641B
:1035230044C0E0126C91D0E0F07409120BBD123666
:10353300E712359C1249053B1264311266C81239F1
:1035430032751200781012092E124F85EA12547840
:103553003BF5831254A61218BA740312090F7401AF
:103563001209981226108E828F83A3A3A3A3A3E02C
:10357300D2E0F0740D120BBDE06003023365E50E7B
:10358300A2E05002151515140233727900AA0CAB90
:103593000D1225D4740E02391EA3A3A3A31268C669
:1035A300EA221268C6850A82850B83221235B3226A
:1035B3001268F0E02212492412583F39F583E508D6
:1035C300F0A3E509F02274F012044A74E91209BE6B
:1035D300EAFEEBFF89088E828F83A3A3A3A3A3A391
:1035E300A3A3E0F9120E7C8A0C8B0DEA450D700340
:1035F3000236E2E50870157C048E828F83A3A3A3B1
:10360300A3A3A3A3A3E0F9120E82804F7C088E82AA
:103613008F83A3A3A3A3A3A3A3A3E0F9120E828A78
:103623000A8B0BEA450B6033E508F50978091209A3
:1036330036850C82850D83A3A3A3A3A3A3A3E0FDD7
:103643008A828B83A3A3A3E0FC8A828B83A3123693
:10365300E7E0F912162C740112090F124F7B125A6C
:10366300BE607C888289831254A27406120BBD1239
:1036730036F11254A67408120BBD1236F1A3A3E05F
:10368300C0E07410120BBDD0E0F0850C82850D8371
:10369300A312549E740E120BBD126CDA7411120B2A
:1036A300BDE41235AFFAA3E0CA241FF582E43AF56C
:1036B300831246D9E0C413135403FC70027C0488BC
:1036C300828983E0F9780C120932742059FD744021
:1036D30059F974021209981225E0740212090F7441
:1036E300170242D212673D850A82850B8322EAF0D4
:1036F300A3EB124AA9A3A32274F712044A74FA1281
:1037030009BEE9FE7F018F087D0080047508000D66
:10371300123FDCE0F8EDC3985027ED75F006A4F8EE
:10372300A9F0EA28F8EB39F9E812644F39F583E098
:10373300A2E050D8540C60D4E0A2E250D27F0080C3
:10374300CE8A828B83A3A3A3A3A3A3E0703EE50841
:10375300A2E0400574016E70338A828B83A3A3A316
:10376300A3A3A37401126B5AE0C0E07403120BBD50
:10377300D0E0126B52E0C0E07404120BBDD0E0F055
:103783007405120BBDEF124FAA12254A7406025696
:10379300B3C082C08379011225D4024FF374F412AB
:1037A300044AEA4B602D9003C2E064027025900E38
:1037B30038E4F08A088B09F50AF50B780812092A10
:1037C3007A027B00900301E0F9121A4C7404120987
:1037D3000F8012900E387401F07A027B009003017F
:1037E300E0F9121A588005740212090F7F040206C9
:1037F3006174E812044A74FC1209BE7402120BBD10
:10380300E4F0A3F090032012608085188285198369
:10381300E4F0A3F0751401900370E0A2E3500302F7
:1038230038AB121A6A8A088B098C0A8D0B8A0C8BA7
:103833000D8C0E8D0F900322780C12097812392605
:103843007810790C120B1850077A017B0002391C8F
:10385300850C14850D15850E16850F1778147910B0
:103863001203DBA814A915900EBBE0C398E499508A
:1038730003E0F514123926780C79101203DBE4F512
:1038830012F51378087910120A2790032278081288
:103893000B4880141268C29003201254C4EEFAEF4E
:1038A300FB121992AE08AF09EE4F60658E828F83CB
:1038B300A3A3A3E0F8E514C3985029EE2403F582EB
:1038C300E43FF583A814E0C398F060217402120B5F
:1038D300BD1268DC125DCBEEF0A3EF1251E4FEA340
:1038E300E0FF80C48E828F83A3A3A3E4F08E828F34
:1038F30083A3122F4D851882851983125AC08E8295
:103903008F83A3A3A3A3608C124E4F1246E2A3801E
:10391300897402120BBD1254A6740412090F7F108E
:10392300020661900EB9123932E4F512F51322E062
:10393300F510A3E0F5112274F212044A8A0A8B0BE4
:10394300E9FE7A007B00900320122F50900320128F
:103953005AC0601E0A850882850983A3A3A3A31204
:103963005AC0600E0AEA70010B88088909E8450904
:1039730070E3900EBC1268C2C3EA98EB994003024D
:103983003A257A067B0012198C8A0C8B0DA80CA998
:103993000DE8497003023A2588828983E50AF0A37A
:1039A300E50BF0EE88828983A3A3F0900EBB124946
:1039B30050A3A3124AA4E4F0A3F0900320125AA147
:1039C300600B8508828509831254C0801F900320F1
:1039D3001254C4900370E0A2E34011121A6AEAF889
:1039E300EBF9ECFAEDFB900322120B82900370E0EB
:1039F300A2E3502E7A087B00900301E0F9121A5ECD
:103A0300EA4B4C4D701C900EB912772178081209BD
:103A13002A7A087B00900301E0F9121A5274041207
:103A2300090F022F5B74F212044A74F31209BEEAFF
:103A3300FEEBFF8E828F83A3A3A3A3A3A3A3A3A3BE
:103A4300A3E0F50A900E38E0700579BA023D0C75D3
:103A53000801750900750C00750D007C087D00795F
:103A630000AA18AB191218C67405120BBD74011203
:103A73003D44540460127402120BBDE0D2E6123DC1
:103A83004454087003750803E054106006744045FD
:103A930008F508E0540860227402120BBDE044C02C
:103AA300123D445420600A7403120BBDE0D2E0803F
:103AB300087403120BBDE0D2E1F08E828F83A3A3BF
:103AC300A3A3A3A3A3A3E070161210DA851882851B
:103AD3001983126CDA7402120BBDE0D2E2802C64FB
:103AE3000F70107402120BBD123D4C74044508F59F
:103AF30008807B8E828F83A3A3A3A3A3A3A3A3E0A6
:103B030064028E828F837006124C70F08060A3A3D0
:103B1300A3A3A3A3A3A3E06403700DAC18AD19EE94
:103B2300FAEFFB12257A80468E828F83A3A3A3A389
:103B3300A3A3A3A3E0640170359003C6E0601074EF
:103B430002120BBD123D4C750910750AFF801874E3
:103B530002120BBDE0440C125DCB74FDF0A374FFA5
:103B6300F074044508F5088E828F83123D22EE24FB
:103B7300151266EEA2E0503F7402120BBDE0540C26
:103B8300701B8E828F831254A6121E00E970057972
:103B9300BB023D0C7402120BBDE0D2E5F0EE24151E
:103BA3001266EEA2E050107402120BBDE0540C64D6
:103BB300047004E0D2E5F0EE24111266EEC0E07466
:103BC30004120BBDD0E0124FAA12183C740C120B56
:103BD300BDE06003023D057408120BBD1235B8EE5B
:103BE30024181266EEC0E0123D18D0E0126439E0EA
:103BF300C0E07408120BBD126CA31266E538F5839E
:103C0300D0E0124C78640170119003C6E0C0E074F8
:103C130008120BBD123D2ED0E0F07408120BBD123A
:103C23005DBA2417FAE43FFB8A828B83E0FCE82425
:103C33001CF582E439F583ECF0A3E4125AD0E0C01A
:103C4300E0E82422F582E439F583D0E0F074081229
:103C53000BBD123D38E50AF07408120BBD12492062
:103C630012490539F583E50CF0A3E50D12677DFCD8
:103C7300A3E0FD126CC3ECF0A3ED12416C12561BD2
:103C8300123D11391268CFC0E0E8242FF582E439E0
:103C9300F583D0E0F0EE241B1266EEC0E074081248
:103CA3000BBD126CACD0E0F0EE241A1266EEC0E04D
:103CB3007408120BBD126CA3125F6B38F583D0E04E
:103CC300126CE0122EE912092E12582B12561B7495
:103CD3000B120BBD124C4E1218BA740312090FEEDD
:103CE30024151266EE54406012900330125AC060DD
:103CF3000AAA18AB19126DFF1205C2AA18AB191242
:103D03002610740C120BBDE0F9740D022F58E82431
:103D130028F582E422E82412F582E439F58322129D
:103D23003D2622E0F50CA3E0F50D22126CA71263E9
:103D3300BA38F58322126CA72423F582E438F5837D
:103D430022F0EE24151266F522E0D2E31268F01297
:103D53003D5622124E57E8F0A3E9F02274F71204FD
:103D63004A7E638A828B83E0600C7905120C9CE99E
:103D7300F87456C398FE90036EE0600CF9120C9C25
:103D8300E9F8EEC39824F2FEEEF90256B674F61281
:103D9300044A74FE1209BE851882851983126CDAEF
:103DA300E9FEECFAEDFB900539125AC06035A8180C
:103DB300A9198808890978081209327D01740E123D
:103DC3000BBDE0FCEEF990053912505C1205C2748C
:103DD3000212090F8B09EA4509600479008006790C
:103DE300B2800279B60244DE74F712044AE9FE9007
:103DF3000310125AC0601F7409120BBDE0F5087856
:103E030008120936EEF990031012505C1205C274C1
:103E13000112090F800279B60256B674F712044AEA
:103E23008908ECFEEDFF79B5E508245F600C1460AA
:103E33003114601224F86041804A9003031264161F
:103E4300E8F0A3E9801990053B125AA1603690056A
:103E53003B12505C1205C28E828F83EAF0A3EBF013
:103E6300802090031212686E601AEEFCEFFD90033F
:103E73001212505C1205C2800B90030E1254AA1248
:103E830021F079000256B674F712044AE979B52491
:103E93005F600624F6600E80178C828D83123EB617
:103EA3001254C4800990030E1254A61221F0790013
:103EB3000256B61268C69003032274F212044A8AA9
:103EC300088B09ECFEEDFF750A01900376E06508A7
:103ED3007004A3E0650970101210D4EAFCEBFDEE48
:103EE300FAEFFB1221F0802A1210E08A0C8B0DE509
:103EF30008650C7004E509650D7009EEFAEFFB1215
:103F030010E6800EEEFCEFFDAA08AB09120CE4E903
:103F1300F50AA90A022F5B74F512044AEAFEEBFFC5
:103F23008C088D09750A011210D4EAFCEBFDEEFA38
:103F3300EFFB1221EAE96401700B9003761246EE5F
:103F43001254C4800EAC08AD09EEFAEFFB120CEA72
:103F5300E9F50AA90A0271B874F612044AEAFEEBFB
:103F6300FF7A0C7B0012198CEA4B606AEE24201254
:103F730066EE8A828B83F0EE2421123FE4F0EE2476
:103F830022123FE4A3F0EE2423123FE4A3A3125F23
:103F930080123FED1254C0EE123D123FF583123FE3
:103FA300EDA3A3A3A3A3A3E8F0A3E9125F8F8A82DF
:103FB3008B83A3A3A3A3A3A3A3A3F0EE242F12662F
:103FC300EEC0E0123FDCD0E0125651F8A3E0F98ACC
:103FD300828B831254BB0244E3EA1254833BF5837E
:103FE300221266F58A828B83A3221268C68A828B89
:103FF300832274F612044AECFEEDFF79B390036D4D
:10400300E0702A90039FE064017022EE241112668F
:10401300EEF9120C848A088B09A808A909125833EF
:104023001254C4E84960047900800279A10244E390
:1040330074F412044A74FE1209BEECFEEDFFEE2482
:10404300161266EE6405700DEE2406FCE43FFD12C5
:104053002580E96074AC18AD191263DA121E068567
:104063001882851983125AC0605BE875F009A4F8B9
:10407300AAF075F009E9A42AF9748A28F874F439C6
:10408300F9E8FAE9FB8A828B837808120B661242FD
:10409300C47808120B284029851882851983125D7C
:1040A300BA1258341240D17808120B669080A8785F
:1040B30008120AC18A828B837808120B4879008020
:1040C3000A79A2800679A1800279C80237EA123DF3
:1040D30059EE1242C92274F412044A74FF1209BE43
:1040E300EAFEEBFF90036DE0706C90039FE06401C8
:1040F300706475083A75090078081209327402125F
:1041030009908808890978081209327C017D007AB0
:10411300007B00121296740412090FE970351259CC
:104123004E7401124249C0E012582BD0E012416C88
:10413300743A1261B3900338120B8E1242C4120BFD
:10414300829080A87808120B669003387808120AC8
:10415300D4800312415E74010237ECEE240FF58222
:10416300E43FF583E4F0A3F022F0EE125838227412
:10417300F012044A74F61209BEECFEEDFF7402124B
:1041830009A0122580E97003024244AC18AD1974EA
:1041930002120998121E06851882851983125AC0C5
:1041A3007003024244E875F009A4F8AAF075F00917
:1041B300E9A42AF9748628F874F439F9E8FCE9FDCE
:1041C30012594EE4124249F8A3E0F912583312543B
:1041D300C48C828D83120B8E1242C4120B82908088
:1041E300A87808120B668C828D837808120AD48C07
:1041F300828D837808120B669080C4780C120B664C
:104203007808790C1203DBE50C450D450E450F705C
:104213003085188285198312492075F009A4F8AAFC
:10422300F075F009E9A42AF9748E28F58274F4393B
:10423300F5837401F07A007B089005C2E0F9121946
:1042430020740A0242D2F0851882851983E0227411
:10425300F012044A8A088B09ECFEEDFF12415E90CE
:1042630080C0780C120B661242C4780C1209D46019
:104273004CEE240E1266EE6401700512256E803F2B
:10428300E0701512253EE960368E828F83A3A31258
:104293004FB05403700C80276402701312253EE95B
:1042A300601DEEFCEFFDAA08AB09121E188010E09A
:1042B3006403700512253E800679A1800279A380EC
:1042C30011EE1242C9222412F582E43FF583221231
:1042D300090F7F0802066174F612044AEAFEEBFF37
:1042E300EE240AF508E43FF509850882F5831256A2
:1042F3001BEC12583F3DF583E4F012563F12253272
:10430300850882850983E02406FCA3E03400FD8E42
:10431300828F831254A61225808508828509831211
:104323005AB570541244B81221EAE9701D1210D420
:104333008A088B09AC08AD0990030E1254A612210A
:10434300EAE97006122556E9602E8E828F83125693
:10435300118E828F831254A6121E1EE960158E825F
:104363008F83A3A3A3A3A3A3A3126CA01261B8E496
:10437300F0A3F012470FE4F0125AA7701A12439DEC
:104383001254A6122538850882850983125AB570FE
:104393000612594074A1F00244E3EE240A12446D5C
:1043A3008882F5832274F612044AEAFEEBFFEE24B8
:1043B3000A12446D7A187B0012198C8508828509CC
:1043C30083EAF0A3EB1244D6E8497003024467EE94
:1043D300FAEFFB122526125AA760721244A5640154
:1043E3008E828F83A3A3A3A3A3A3700712449774FE
:1043F3000E8020125AC0700F1244B81221EAE970DD
:1044030006122556E9600712448D740D8005124487
:104413008D74051256515403640170071244767467
:1044230005800B90036EE0C0E0124476D0E0124F9B
:1044330097F8126DFEA3E0F9120C9C85088285099A
:1044430083126CA31263F038F583E9801A8508821E
:104453008509831254A6121992850882850983E47B
:10446300F0A380031251ABF08076F8E43FF988089B
:104473008909228E828F83A3A3A3A3A3A3A3A31239
:10448300448622A3A3124BB3A3228E828F83A3A3BA
:10449300A3A3A3A3A3A3A3A3126CA712519C38F5B0
:1044A30083228E828F83A3A3A3A3A3A3A3A3A3A3E4
:1044B300124721E02290030E12561F8E828F83A390
:1044C300A3A3A3A3A3A3A3A3A3E02406FAA3E03473
:1044D30000FB22124F9BF8A3E0F922740212090F8A
:1044E3007F0202066174F112044A8A0A8B0B8C085C
:1044F3008D097A187B0012198C8A0C8B0DAE0CAFC8
:104503000DEE4F70030245E28E828F837401F0E556
:1045130008240DF8E43509F988828983E0FAC3E4B5
:104523009AFA95E0FBE508126AFC35091245EEFBA1
:104533008E828F83A3A3A3A3126B868E828F83A302
:10454300A3F0EEFAEFFB120C4E8508828509831265
:104553006B1F70098E828F83A37405800690036E90
:104563001245EAF0EE2417F8E43FF9880C890D8E22
:10457300828F83A3E0F9120C9CE9850C82850D835D
:10458300F0EE2416F8E43FF9E508240EFAE43509C1
:10459300FB888289831251B9E5082410FAE43509AE
:1045A300FB850C82850D83E0FC88828983E0F88A91
:1045B300828B83E0C398C39C1268E5F0EEFCEFFDA9
:1045C300AA0AAB0B12252CE9F508700AEEFAEFFBE9
:1045D300120C5AE9F508EEFAEFFB121992800375F3
:1045E3000810A90802593B1254CF22F583E02AFA96
:1045F300A3E03B2279010208DC74F412044AEAFEC8
:10460300EBFF8E828F83A3A3A3A3A3A3A3A312670A
:104613001FF583126B1F702A1244A570251246FCE6
:10462300E06405701D1246FCA3E0F87401686005A0
:10463300740668700712470F7402800512470F74DF
:1046430003F012439D12505CE4F0EE24081246CBB3
:10465300242DF582E43AF583E0C0E08508828509DC
:10466300831246D9A3A3D0E0126B8AFAA3E0CA242B
:104673002AF582E43AF583E0C0E085088285098360
:104683001246E2D0E0126B8AF8A3E0C812547F38D6
:10469300F5831246EE1246D91254C01210D48A0A78
:1046A3008B0BAC0AAD0B850882850983E0240612C7
:1046B3004E3E1221F08508828509831254A6120CFE
:1046C3005A125255F00237EFF8E43FF98882898392
:1046D300E0FAA3E0CA22E0FAA3E0F5838A8222E0AB
:1046E300FAA3E0F5838A82A3A3A3221246F222123D
:1046F30068CA850882850983228E828F83A3A3A338
:10470300A3A3A3A3A3124C55124BAF228E828F8374
:10471300A3A3A3A3A3A3A3A3A3A312472122124E3C
:1047230031C8240EF582E438F58322EA126AF63B97
:10473300F583220245F7C082C0839003267420F0DC
:10474300A37425F09003287414F0A37425F0900348
:104753002A740EF0A37425F090032C741AF0A3743A
:1047630025F0024FF374F412044AEAFEEBFF1247FA
:10477300BEF5081210DA8A0A8B0BA80AA90B8E82DF
:104783008F831246D9E0687003A3E069602AE508C5
:10479300A2E550248E828F83A3E0FB900326125060
:1047A3005C1205C28E828F83126CA3240A125ABA3A
:1047B30070061247BEC2E5F00237EF8E828F831276
:1047C3004488A3E02274F412044AEA2408FCE43B7C
:1047D300FD8C828D831249201251A2E0FE74035E88
:1047E300F50912547E39125DB888828983F0A3A833
:1047F30082A983E50960097402650960030248938D
:10480300740C5EF50860177408650860117404651C
:10481300087013740265097005EEA2E4402A124978
:10482300292423124956740C650870161249122460
:104833002412493BFCA3E0CC1249053CF583A312A7
:10484300495C740265097005EEA2E4404312491203
:10485300242612493BFFA3E0CF125F71A312495CE8
:10486300124916242812496B123D123CF583A312F8
:10487300495CE508601274086508600C740C6508EF
:1048830060067404650870081249292422124956E7
:104893001249291248F97005EEA2E1500C12492978
:1048A300125F6B3C12490B800E90030212490D906C
:1048B3000302E004124E36A3A882A983EEA2E750B6
:1048C30032124912242112496B1248F96025124908
:1048D300292430124956EEA2E150188A828B83A311
:1048E300A3A3A3A3A3A3A31246D32431F582E43A3B
:1048F30012490B0237EF2421F582E43CF583E0549F
:1049030003222424F582E422F583124950F022EA9B
:104913002408FC8C828D83E0FFA3E0CF221249247C
:10492300221268CAE8228A828B83A3A3A3A3A3A328
:10493300A3A3E0FCA3E0CC22F582E43FF583124974
:1049430050F0A3A882A9838C828D83E022E0888221
:10495300898322F582E43CF58312496022E0888250
:104963008983F0A308A98322F582E43FF5831249E2
:10497300608C828D83E0FCA3E0CC22C082C0838A5A
:10498300828B831247C2F8740358F98A828B83A3FC
:10499300A37401F0E960057402697061740C58FC3A
:1049A300601474086C600F74046C70137402697083
:1049B30005E8A2E4401D8A828B83A3A37402F074EA
:1049C3000C6C700A8A828B83A3A3E02402F0740226
:1049D300697005E8A2E440258A828B83A3A3E024BF
:1049E30004F0EC600F74086C600A740C6C6005745E
:1049F300046C70098A828B83A3A3E004F0E8A2E726
:104A030050318A828B83A3A3E0041268D5F9A3E013
:104A1300F5838982A3A3A3E0540360178A828B835F
:104A2300A3A3E004F0E8A2E150098A828B83A3A345
:104A3300E004F08A828B83A3A3E004F0024FF3C067
:104A430082C0838A828B83A3A3A3A3A3A3A3A3A3C9
:104A5300A3125AC0600C8A828B83A3A312549E12A2
:104A63001992024FF374F712044AEAFEEBFF8E82A7
:104A73008F8312584DA3A3A3A3A3A3A3A3E4F0126C
:104A83004AA4A3A3A3A3A3A3F0A3F0E8126AF6394D
:104A9300F583E4F01224F6EEFAEFFB122502025638
:104AA300B6A3124AA922124E36A3A3A3A32274F1DA
:104AB30012044A74F31209BEEAFEEBFF740C120BE4
:104AC300BD7401F01224FC8E828F83A3A3A3A3A33E
:104AD300A3A3A3A3A3125AC060061250551205C282
:104AE3001266EB6003024B797C087D007900AA18FB
:104AF300AB191218C67402120BBD7401124BA81223
:104B03004C70124C78F8A3E0C8126AE038F583E0E1
:104B13002409C0E07404120BBDD0E0F07405120B3D
:104B2300BD124FA812183C740C120BBDE0704774F1
:104B330008120BBD12557D740E124BA8125619851F
:104B430008828983A3AA82AB831221F012549A129A
:104B53003FDC12676912092E126ADA124F8AE508DE
:104B63002409FAE43509FB1218BA740312090FAACF
:104B730018AB191226108E828F83A3A3A3A3A3A31A
:104B8300A3A3125AC0600612549A121992EEFAEFB6
:104B9300FB1224F0740C120BBDE0C0E0125940D09C
:104BA300E0F0025936125ACA124BAF22124BB3220B
:104BB300124E31F58388822274F512044A74F3127B
:104BC30009BEEAFEEBFF7C087D007900AA18AB1949
:104BD3001218C6124C661251E4C0E07404120BBDE5
:104BE300D0E0F07402120BBD7401124C78C0E07473
:104BF30005120BBDD0E01251D86401700974021282
:104C03000BBDE0D2E5F0AA18AB1912183C740C12D4
:104C13000BBDE0702C8E828F83122EE612092E8E2E
:104C2300828F83A3A3A3A3124F8C740B120BBD1209
:104C33004C4E1218BA740312090FAA18AB19122694
:104C430010740C120BBDE0F90271B3124C551267CC
:104C53003D22124C5922124E31C8242BF582E438DE
:104C6300F583228E828F83A3A3A3A3A3A3124E5300
:104C7300E8F0A3E922125F9CA3E02274F712044A2E
:104C830074FE1209BEECFEEDFF7508C8AC18AD1931
:104C930012257AE96401704B851882851983124FB6
:104CA30091A3A3A3A3124CEDA3A3E4F0900724E0E4
:104CB30060198E828F8312506670108E828F83A349
:104CC300A3A3A3A3A3A3A37401800D8E828F83A3A5
:104CD300A3A3A3A3A3A3A3E4F0EEFAEFFB1224DEA2
:104CE300E9F508A90874020256B3123D598E828F62
:104CF30083A3A3A32274F612044A74F41209BEEA2E
:104D0300FEEBFF124C66124E181246DAA3E0FA7459
:104D130002120BBDEA126B8A124E947404120BBD7D
:104D230012560B6A7013124E0CE0124E3C740612AC
:104D33000BBD126B86241A80377402120BBDE0641C
:104D4300016005E064067039EE24021246CB12645A
:104D5300063AF583E0C0E07403120BBDD0E0126B9A
:104D63008A2413124E3E7406120BBD126B86241B4B
:104D7300F8A3E03400F97408120BBDE8F0A3E9804E
:104D8300297406120BBDE4F0A3124E18124E3C74A4
:104D930008120BBD124E26C8241AF582E438F58397
:104DA300E0C0E0740A120BBDD0E0F07406120BBD34
:104DB300125AC0602B7406120BBD1254A6120CD8E3
:104DC300E96401701B1210D48A088B09AC08AD0981
:104DD3007406120BBD1254A61221EAE9640170098C
:104DE300AA18AB191218A2801BAA18AB19121E0C11
:104DF300E96401700FEEFCEFFD7406120BBD125453
:104E0300A61224D8740C0244E0EE2402F8E43FF91D
:104E13008882898322F0EE2402F8E43FF9888289AC
:104E230083E022EAF0A3EB124E36124E3122E0F871
:104E3300A3E022F088828983222412FAA3E03400BB
:104E4300FB228A828B83A3A3A3A3A3A3124E532281
:104E5300124E5722124E31F985188285198322C0CA
:104E630082C08374FC1209BE124E451254C48A8256
:104E73008B83A3A3E02401F8A3E03400F9740212A6
:104E83000BBDE8F0A3E9124FAA120BD07404024F32
:104E9300F02402F8A3E03400F922C082C08374FD39
:104EA3001209BE124EBDC0E07402120BBDD0E01257
:104EB3004FAA120BD67403024FF08A828B83A3A3EB
:104EC300A3A3A3A3123D568A828B83124486E022B6
:104ED30074F412044A74FB1209BEEAFEEBFF8E82DD
:104EE3008F83A3A312584DE5822409F508E4358383
:104EF300F50974031209A0A3AA82AB8312257AE9E8
:104F03006401706F85188285198374321251E42409
:104F1300F7C0E07401120BBDD0E0F07402120BBDB8
:104F2300E4124FAA120D988A0A8B0BAE0AAF0BEE4E
:104F33004F60407403120BBD124F91E8F0A3E912C6
:104F43004F97C0E0EE2420F582E43FF583D0E0F0F4
:104F5300750A00780812092E124F7B124F8A124FDE
:104F6300811254A61218BA740312090FEEFAEFFB5A
:104F7300120D9274050237ECEE126AE03F221258CA
:104F83005C22126B0E350BF583E0FC7D002212646C
:104F93001AA3A322124F9B22124F9F22F08508824D
:104FA300850983E0227401F0AA18AB1922124FE994
:104FB30022C082C083124FDF600E24FE600F24FEE6
:104FC300601024FB601180121224D2800D1224CCB5
:104FD30080081224C680031224C08014124FE524D3
:104FE300FB228A828B83A3A3124BB3E02212090F05
:104FF300D083D0820208DCC082C083900EBEE070F2
:1050030025900726E0701F8A828B83A3A3A3A3A303
:10501300E0701312506060388A828B83A3A3126DF1
:10502300FEE06407602A8A828B83A3A3A3A3A3A3BE
:10503300A3A3E070128A828B8312506660097A34CC
:105043007B01121E5A800990032E12505C1205C276
:10505300809EEEFAEFFB900328124BAF22124FE52E
:10506300640622124FE964052274F612044A74FAA4
:105073001209BEEAFEEBFF7403120BBD1263C07488
:10508300031209981224EA1266EB60030251978512
:1050930018828519837432F07405120BBD1270E403
:1050A300C0E07401120BBDD0E01251D8C0E074020D
:1050B300120BBDD0E01251DEF8A3E0F9E849601B02
:1050C300E81263F039F583E0FAE812519C39F5836D
:1050D300E02AF87401120BBDE028F0AA18AB1912EC
:1050E3000D988A088B09A808A909E8497003025199
:1050F3008C8E828F831254A688828983A3A3125134
:10510300D11264063912564DC0E0E81251A2D0E024
:10511300125648C0E0E82421F582E439F583D0E053
:105123001251E4C0E0E8242AF582E439F583D0E0A3
:10513300F07405120BBDE0FCE81251B12C124E3E87
:10514300E812547839F5831251D1242DF582E439CC
:10515300F583EC1251DEFAA3E0FBEA4B6019E82475
:105163002BFAE439FB8E828F83A3A312492D1251AC
:105173009C3CF5831251B98E828F83A3A3A3A3A36F
:10518300A3A3A3E8F0A3E9800AEEFAEFFB1224F04D
:105193001251ABF074060244E02416F582E4222493
:1051A30020F582E439F583221259447410221254F3
:1051B3008339F583E022E0FC8A828B83E02CFCA315
:1051C300E03400FD8A828B83ECF0A3EDF022EAF059
:1051D300A3EBF0E8221251E9A3E022125AD4A3E090
:1051E300221251E9E0221251ED221251F122F08EE6
:1051F300828F83A3A3A3A32274F612044AEAFEEBCD
:10520300FF1266EB70421224FC8E828F83A3A3A34A
:10521300A3A3A3A3A3A3A3125AC0600612505512BB
:1052230005C21266EB700B12549A120D921252556C
:105233008015EE24081243A01254A6121992850871
:1052430082850983E4F0A3F0EEFAEFFB1224F00267
:1052530044E3125944E92274F612044AEAFEEBFFCE
:105263008C088D09121E00E9700479018011AC08C5
:10527300AD09EEFAEFFB90032C12505C1205C2024B
:1052830044E374F112044A74F31209BE8A088B09C9
:10529300740C120BBD1256341218C6850882850988
:1052A30083A3A3E0640460030253527404120BBD8E
:1052B3007422F0740C120BBDE0600302546E850877
:1052C30082850983124E4F1254C47402120BBD74AB
:1052D30001125877C0E07405120BBDD0E0125930AB
:1052E300F8A3E0F97406120BBD125961A3A3A3A39B
:1052F300A3A3A3E0640170097402120BBDE0D2E51D
:10530300F0AA18AB1912183C740C120BBDE0600321
:1053130002546E7408120BBD126CA312547838F544
:10532300831260808E828F8374051254C81259775A
:10533300E849606E85088285098312676512092E24
:105343007C101254891218BA740312090F805F85F6
:105353000882850983A3A3E06401600D8508828523
:105363000983A3A3E06406700A7404120BBD7423BB
:105373000252B5850882850983A3A3E06402600D08
:10538300850882850983A3A3E06403700A74041269
:105393000BBD741B0252B5740C120BBD74B3F00237
:1053A300546E7C107D00790012548B1218C6EE24C3
:1053B30012FE50010F850882850983A3A3E06401CF
:1053C300600D850882850983A3A3E06406700D85BB
:1053D3000882850983A3A3A3E0126F8085088285D1
:1053E3000983A3A3A3A3A3A31254AA120CD2EE244A
:1053F30008FE50010F850882850983A3A3E0640496
:10540300601A850882850983A3A3E06401600D8582
:105413000882850983A3A3E06406700FEEFCEFFD09
:105423007A007B0079AB1225928011850882850969
:1054330083A3A3A3A3A3A3A3125493F085088285F4
:1054430009831254A6121158E960087408120BBD9F
:105453001261ABE50812547F3509125ABEAA18AB84
:105463001960051224E48003122610740C120BBD7C
:10547300E0F9025936242BF582E422E81254832200
:10548300240BF582E4227D00EE2402FAE43FFB22A2
:10549300A3E08E828F83228E828F83A3A3A3A3A3F1
:1054A300A3A3A312673D2212561FEEFAEFFB22A31A
:1054B300A3A3A3A3A312641AA3A3A3A3A3A3A3A312
:1054C300A3123D592212591C1254CF22E08E828F0F
:1054D30083A32274F612044A74F31209BEEAFEEBA4
:1054E300FF7C087D007900AA18AB191218C6125662
:1054F30004120BBD740CF07405120BBD7401125F22
:105503009760097402120BBD742180077402120B99
:10551300BD7401124FAA12183C740C120BBDE0703B
:10552300427408120BBD12557D74061251E41255D4
:10553300F61221F0124E0C125572A3A3A3A3A3A338
:10554300125872850882850983A3A3A3A3A3A3A3E7
:10555300A3A3125AC5E0C0E01263F6D0E0124FAA2B
:10556300122610740C120BBDE0F9740D0244E0E036
:10557300850882850983A3A3A32212562D8808894F
:10558300098882F5832274F712044A74F31209BE60
:10559300EAFEEBFF7C087D007900AA18AB1912180C
:1055A300C6125604120BBD7409F07405120BBD74B8
:1055B300011251E4640170097402120BBD7421805D
:1055C300077402120BBD7401124FAA12183C740C1B
:1055D300120BBDE0701A7408120BBD125625740726
:1055E3001256511255F61221F0AA18AB19122610B1
:1055F3000256AAFCA3E0FD88828983A3AA82AB8317
:10560300228E828F83124E53123D59740422A3A318
:10561300A3A3A3A3A3A3A3A312561F22E0FCA3E067
:10562300FD2212562D8882898322124C591268CA90
:1056330022E4F07C08FDF9AA18AB1922A31235B3B2
:10564300FAA3E0FB221268E9E022F5837401126CED
:10565300D1A3E022C082C08312250890032E74BA1E
:10566300F0A37424F0024FF3C082C0837C0879FF57
:1056730090030E1254A6121956024FF374F7120434
:105683004AE9FE126ADA125ABE601A88828983A333
:10569300E054037010EEFB12547E39F5831256E288
:1056A300E0F9121626800C740C120BBDE0F9740D90
:1056B30012090F7F01020661C082C083EAF8EBF989
:1056C30088828983A3A3A3A3A3E0FB88828983A3FE
:1056D300A3A3A31256E2A3E0F9121626024FF3E0A6
:1056E300FA88828983A3A32274F012044A8A088B5E
:1056F300098C0A8D0B890FEA1263E2E02430FA7BEE
:10570300001218DE8A0C8B0DAE0CAF0DEE4F70033A
:105713000258288E828F83740112682012092E7C0E
:10572300177D00EE2419FAE43FFB1218BA74031232
:10573300090F850A0C850B0D780C12092E7C0912B2
:1057430054891218BA740312090F7410120BBD1284
:1057530058551254C47412120BBD12584DE0C0E0D8
:10576300125833D0E0126427C0E012582BD0E01255
:105773005872C0E012606BD0E0F07414120BBDE0FD
:10578300C0E01242C4D0E0F0EE2427124161741548
:10579300120BBD120B8E125845120B821263E8E5F1
:1057A3000F125877F8A3E0F9124F7BF5831254C414
:1057B3007419120BBDE0C0E012640CD0E01270FF4C
:1057C300E0602FEE2427125D9F2430125864240ECC
:1057D300126F7C1279D512092EE5081266D03509AD
:1057E300124F8A8A828B831254A61218BA74031238
:1057F300090FEE241A1266EE5403601D90031E1265
:105803005AC0600CEEFAEFFB126DFF1205C2801551
:10581300EEFAEFFB1218E4800CEEFAEFFB900301B3
:10582300E0F91218EA0242D5EE12644F3FF58322E3
:10583300EE1258382212583F3FF58322240FF58287
:10584300E422EE1266E53FF583221268C688828958
:1058530083221268C612585C22EE1254833FF583EA
:1058630022F8E43FF98A828B83123D59E50822121C
:105873006B79E02212591CA3A3A3A3A3A3A3A3E0C0
:105883002274F112044A8A088B097A207B001218C9
:10589300DE8A0A8B0BAE0AAF0BEE4F606A8E828FE5
:1058A3008374041259DE8E828F83A3A3A3A3125998
:1058B3001812549312592012590C12092E7C107D80
:1058C300001263DA1218BA740312090F850882856D
:1058D3000983125613EE2416FAE43FFB120CD28509
:1058E3000882850983A3A3A3A3A3A3A3A3A3A3E0DC
:1058F300C0E0125F50D0E0125930C0E01263C6D04E
:10590300E01259561218EA802FF50CA3E0F50D7535
:105913000E00780C2212591C2212596D22A3A3A344
:10592300A3A31259292212596DA3A3E022F01263F3
:10593300FAE022740D12090F7F070206611259441F
:1059430022EE240CF582E43FF58322EE126B003F36
:10595300F58322F0EEFAEFFB9005C2E0F92212592B
:105963006522E8F0A3E912596D22F08508828509C2
:1059730083A3A322125929F8A3E0F92212598322FF
:10598300124F9FF8A3E0F98E828F83A3A32274F4AE
:1059930012044A8A088B097A0C7B001218DE8A0AE1
:1059A3008B0BAE0AAF0BEE4F602E8E828F83740685
:1059B3001259DE122EE912092E7C087D00EE240412
:1059C300FAE43FFB1218BA740312090FEEFAEFFB65
:1059D3009005C2E0F91218EA0237EF1259831259FF
:1059E30065E02274F612044AEAFEEBFF7A057B00B7
:1059F3001218DEEA4B60278A828B8374081268F6DA
:105A03008A828B83A3A3E8F0A3E91256518A828B7F
:105A130083A3A3A3A3F09005C2E0F91218EA0244FA
:105A2300E3C082C083E9900E39F090031A74F4F056
:105A3300A3740BF090031C7406F0A3740CF0900392
:105A43001E7418F0A3740CF0024FF374F712044A97
:105A5300EAFEEBFF8908EE4F7003121EA890033293
:105A6300125AC0700890033280221268C288828959
:105A730083A3A3A3A3A3A3A3A3A3125AA188828945
:105A830083A3A3A3A3A3A3A3A3A370DEEEF0A3EF17
:105A9300125AD0E4F0125AC5E508F00256B612675E
:105AA3003DEA4B228E828F83A3A3A3A3A3A3A3A325
:105AB300A3A3126CA7240FF582E438F583124924BB
:105AC3004922A3125ACA221251EDA3A322125AD475
:105AD30022125FA0A3A32274F712044A9003328018
:105AE3000D8E828F83A3A3A3A3A3A3A3A3A3126057
:105AF30080EE4F60348E828F83A3A3A3A3A3A3A3BB
:105B0300E06970DD8E828F83A3A3A3A3E06A700391
:105B1300A3E06B70CC8E828F83A3A3A3A3A3A3E084
:105B23006C70BEEEFAEFFB80047A007B000256B67F
:105B330074F712044A9003321260809003321235D4
