:020000040000FA
:060000000212C2020831E9
:03002B00020FB70A
:030053000207653C
:100083000207C501FF01010503010F10FEFFE33263
:1000930000000000553100000000FF000000FF00D9
:1000A300010000D61E000000000000A81F00000091
:1000B300000000B81E000000000000000000000067
:1000C30000000000000000000000000000FFFF012E
:1000D300010100C2050000008813FFFF39068813E1
:1000E30064006400B801020200080000050207046E
:1000F30001051E02051E020A0A0103B80B02803E17
:100103000102FEFFE8030A050001FFFF010A1401D3
:10011300E00020FD000206FF011C0E0000000100AC
:1001230000FA43D82BDE2B000000000000E42BEA8A
:100133002B00000000000000000000000000000091
:10014300000000102020202020202020202020201C
:10015300202020200100401C460000C84201040169
:100163000C0000043E800115810100B0423BAAB897
:100173003F0000003F8C906339AA0CA33A00941E01
:100183003C8042633DCFFE753E1572313F80961829
:100193004BF304353F000080BF0000803F187231ED
:1001A3003F2292D43EDD9B2A3F04000040D85BDE11
:1001B3003EFFFF7F7FFFFF7FFF010080341212E1CC
:1001C30060461212D2603DE9687008F618F618F618
:1001D30018F622748067F71201F40909097480671D
:1001E300F7221212D2601D1212E17005191919803B
:1001F3001A12119A701F1211AEC37003E6673319F6
:10020300191940071818182208080874FFF618F679
:1002130018F618F6221211AE601712136F7021929E
:10022300F01213787019501720F014080808090900
:1002330009E7F61819E7F61819E7F61819E7F62289
:1002430012137860E6E869701F0808E62480F60850
:10025300E436F618547FB47F0CE654806007F6E466
:1002630018F618F622181822E9C6CC08C6CD08C617
:10027300CE08C6CFC0E0E8C0E0EAC0E0EBC0E009CA
:10028300E9F809E7FA09E7FBE6F918E6F8C3EC9899
:10029300ED99EE9AEBC2E7F5F0EFC2E795F0500E59
:1002A300600CEBCFFBEACEFAE9CDF9E8CCF8EAA291
:1002B300E7D2E7FAEB33FB13F5F0EEA2E7D2E7FE62
:1002C300EF33FFC5F013A2E730E601B313C5F0C364
:1002D300C0E0C0F07F00C39BFB605E9418600F40DA
:1002E3001D14601AD0E023F9D0E0F80203C68AF0A7
:1002F300E9486003D2F0E4AFF0FAF9F8803BEB3061
:10030300E40D89F0EA6003D2F0E4AFF0F9CAF8EB48
:1003130030E30D88F0EF6002D2F0AFF0E4CAC9F821
:10032300EB54076014FBC3EA13FAE913F9E813F873
:10033300EF135002D2E0FFDBEDD0E0C0E030E7394D
:10034300C3E49FFFF5F0EC98FC42F0ED99FD42F019
:10035300EE9AFE42F0D0E0F9D0E0F8E5F0607AE9F9
:1003630023F9EE20E742D8028067C3EF33FFEC3373
:10037300FCED33FDEE33FE80EAEC28FCED39FDEEB7
:100383003AFED0E023F9D0E0F84002801BC3EE131D
:10039300FEED13FDEC13FCEF135002D2E0FF08B89F
:1003A30000067F7F74FF802EEF3350178CF020F010
:1003B3000260100CBC000C0DBD00080EBE0004084A
:1003C300E860DFE933E813FFEE2313FE4F4D4C8063
:1003D30008E95480FFE4FEFDFCEE33EF33F47004D0
:1003E300FCFD7E80D0E0FBD0E0FAD0E0F8D0E0CF97
:1003F300C618CEC618CDC618CCC6F9221212D270B2
:1004030004181818221212E1700D74FFF61819F669
:100413001819F61819F622E7548066F61213787045
:100423000F12136F70F014F608F608F608F680D171
:1004330012136F700CF608F608768008E6447F8086
:10044300EC1211B1700C12119D60BFE65480F6E4FA
:1004530080BB12119D700519191980A5E869700CEC
:10046300763F18768018F618F6E8F922E6CDC0E054
:1004730018ECC0E0E633CD33CDD313F6E719FCE730
:10048300191933CC33C3947F400ECD9D502408E615
:100493005480F6E418F6800FF4043D14501408E673
:1004A300447FF6187680E418F618F6D0E0FCD0E026
:1004B300FD22CCD313CCFD18E4C6CBC0E018E4C6B0
:1004C300CAC0E00808ED08C633E613F618E433C6DD
:1004D30075F003C3CA97CA09CB97CB199C40047D17
:1004E30008802EBD00030205A816B6FF0506060800
:1004F3001618C3CA33CACB33CB33CA27CA09CB377F
:10050300CB193CC37D08803E187D0820E75CC633C9
:10051300C6CA33CACB33CB33DDF1D5F0EB30E77B3F
:10052300CA97CA09CB974ACB199C406F4B7025E6F3
:1005330020E0218066187D08C3CA97CA09CB97CBF0
:10054300199CD3C633C6CA33CACB33CB3350C9DDA8
:10055300E7D5F0E1D3E4C636C608C636C608C636C4
:10056300C608C636C61818188031C3CA97CA09CB3D
:1005730097CB199CB34097C633C6CA33CACB33CB88
:1005830033DD34D5F02EC6A2E0C640C8CA27CA0957
:10059300CB37194A70BECB3CB480B90808E63308A0
:1005A300E633601F181818D0E0FAD0E0FBD0E0FC67
:1005B300D0E0FD22187D08CA27CA09CB37CB193CE6
:1005C300D3808013F618E4B67F11F618B6FF0EF643
:1005D30018C60470D20808768080CAF618F618F692
:1005E30080C5001212D2604F1212E16012E75480EC
:1005F30066F612119A701112136F703B090909F410
:10060300F618F618F618F6221211AE7015121378B2
:1006130008080860EAE6447FF618768018E4F618BE
:10062300F622121378601612136F7012E4F608F6AE
:1006330008F608E65480F609090918181822EAC0D2
:10064300E0EBC0E0ECC0E0EDC0E0E687F0A4FBAC7B
:10065300F008E687F0A42CFCE435F0FA1809E687E5
:10066300F0A42C4B60027401CA35F0FCE433FB099F
:10067300E687F0D2F7A42CCB35F0FC1908E687F017
:10068300A42BCC35F0FBE433FD0819E687F0D2E761
:10069300A42C4ACB35F0CD3400FC09E687F0D2E731
:1006A300A42DCC35F0FDE433FA0918E687F0D2F730
:1006B300A42CCD35F0CA3400FC08E687F0D2E7D28B
:1006C300F7A42ACC35F07A7E20E70B0ACB33CBCDC7
:1006D30033CDCC33CC33CB3350147004ED30E00E38
:1006E300D2F1E4CD3DCDCC3CCC3B5005DA05C2F193
:1006F300EB547FC63308E63392F0FBE73309E73365
:10070300C39A502D2B70190C0D4C4D70151806E61D
:1007130008C333700D20F10AA2F013F6E418800B1E
:100723004024E4F630F002768018F618F618F680C6
:1007330024D33B14501074FFA2F013F6187680E410
:1007430018F618F6800FA2F013F618E63303F6181E
:10075300ECF618EDF6D0E0FDD0E0FCD0E0FBD0E005
:10076300FA22C0E074F1120B4FA2AFE433FED2AF12
:10077300E5A7FFE5A1F5085FF509741055096006C3
:1007830012271C75A1EF74085509600812272275FA
:10079300A1F78024E508A2E092F0EFA2E082F050F6
:1007A30017906198E0F8900784E0C398A2D265D0CF
:1007B300335002E8F075A1FEEEA2E092AF7F020291
:1007C3000BAEC0E074F2120B4FA2AFE433FED2AF14
:1007D3009061A4E0F8759B00E59158540860087592
:1007E30091F712276A8023E5915854106008759198
:1007F300EF1227708014E591A2E092F0E8A2E08264
:10080300F05007E0C2E0F01228BA9061A3E0F8E5E7
:10081300E9585404600E12289075E9FB906193E047
:10082300A2E640F2EEA2E092AF7F01020BAEC0E07F
:1008330074F2120B4FA2AFE433FED2AF9061A5E086
:10084300F8E5BF585404600675BFFB1228D280D464
:10085300C3E498F8E499F91208948026C3E49AFA59
:10086300E49BFBE920E7E9120894E498F8E499F99A
:1008730022C3E498F8E499F9120894E498F8E49907
:10088300F9C3E49AFAE49BFB22EB20E7CFE920E7E4
:10089300E0B90010BB0008E88AF084F8AAF022E46B
:1008A300FBC8FA22EB70227B10C833C8C933C933A3
:1008B3005007C39AC3DBF280069A50012ADBEAC8C9
:1008C30033F4C8C933F4C9FA2275F008E4C833C84D
:1008D300C933C933C99AC99B5004C92AC93BD5F046
:1008E300ECFBC833F4C8E4C9FA2212092D20F01432
:1008F30030E72B74FFFCFBFA747F8022E4FCFBFAE5
:100903007480801AB48008BC00F2BB00EF800F50E3
:10091300EBF9E4C39AFAE49BFBE49CFCE499C6CCB0
:1009230018C6CB18C6CA18C6F922E4C9C608CAC66F
:1009330008CBC6D3330308CCC63392F0C3947F40AD
:100943002E94184019C9B90704CACBCC225025C329
:1009530009CA33CACB33CBCC33CC33D9F422F460BA
:100963000DC9CCC313CB13CBCA13CAD9F6CC22E41B
:10097300FCFBFA2214FCFBFA22080808EAC0E0EBAD
:10098300C0E086F0E7A4FA180986F0E7A42AFA186B
:100993000986F0E7A42AFA180986F0E7A42AFA19C7
:1009A30086F0E7A4FBE5F02AFA190886F0E7A42B02
:1009B300FBE5F03AFA190886F0E7A42BFBE5F03AD9
:1009C300FA18180986F0E7A4C5F02BFBE43AFA19E4
:1009D30008E7C5F0C6A426F6E5F03BFBE43AFA18AF
:1009E30086F0E7A4F6E5F00826F6E43B08F6E43AD9
:1009F30008F6D0E0FBD0E0FA22080808E630E71159
:100A0300121172120A14080808C64480C61818186E
:100A130022181818E9799EC608CAC608CBC608CC9E
:100A2300C6C370207996CACBCC7019798ECBCC70A3
:100A3300137986CC700EF9802ACA33CACB33CBCC58
:100A430033CC331930E7F2CCCBCA3350147004EAF9
:100A530030E00DE4CA3ACACB3BCBCC3CCC500209C4
:100A6300C3E913C6CC182313C6CB18C6CA18C6F9D4
:100A730022E4CFC0E0E4CEC0E0E4CDC0E0E4CCC0EB
:100A8300E075F020E626F608E633F608E633F608C6
:100A9300E633F6181818EC33FCED33FDEE33FEEFB6
:100AA30033FFC3EC9709ED9709EE9709EF971919EF
:100AB30019400FFFEC97FC09ED97FD09EE97FE191E
:100AC3001906D5F0BFECF709EDF709EEF709EFF7D3
:100AD300191919D0E0FCD0E0FDD0E0FED0E0FF22F0
:100AE3002518C582C0E0E51934FFC583C0E0E518C9
:100AF300C3958224F810AF0885831985821880086E
:100B0300858319858218D2AFCEF0A3E520F0A378B0
:100B130008E608F0A3DEFAEFF0A3E58124FAF8E68D
:100B230008F0A3E608F0A3E608F0A30808E608F037
:100B3300A3E608F0A315811581D0E0FED0E0F815F7
:100B43008115811581E8C0E0EEC0E022C0D02518F0
:100B5300C582C0E0E51934FFC583C0E0E518C3953D
:100B63008224F310AF088583198582188008858352
:100B730019858218D2AFC8F0A3E9F0A3EAF0A3EB7A
:100B8300F0A37908E709F0A3D8FAECF0A3EDF0A3FA
:100B9300EEF0A3EFF0A3D0E0F0A3D0E0F0A3D0E019
:100BA300F0A3E520F0A3E5F0F0A3228519838518CF
:100BB30082E0C0E0A3E0F9A3E0FAA3E0FBA3780896
:100BC300E0F608A3DFFAE0FCA3E0FDA3E0FEA3E068
:100BD300FFA3E0C0E0A3E0C0E0A3E0F5D0A3E0F50D
:100BE30020A3E0A3F5F010AF088583198582188050
:100BF30008858319858218D2AFD082D083D0E0F8DC
:100C0300D0E03212135AB90003020C45E4900301F9
:100C1300783F790C8002F0A3D8FCD9FA7A3F7B0E97
:100C2300900086783B79028015E493A3AD82AE836E
:100C33008A828B83F0A3AA82AB838D828E83D8E9C9
:100C4300D9E775826C7583D5740512103575826C7E
:100C530075832E74001210350A75F0108E1A8F1BCF
:100C630085821F85831E851882851983E0CEA3E0C4
:100C7300CF851F82851E83EBC9EAC8EDCBECCAC3BF
:100C8300E833C8E933C9EA33CAEB33CBC3EA9EF589
:100C93001DEB9FF51CB35004AB1CAA1DEC33CCED2C
:100CA30033CDD5F0DAAE1AAF1B221212D2601C126A
:100CB30012E16017121378700712136F7001D322B9
:100CC300C0D012136F7006D0D0B322C32233D0D05A
:100CD300501430E0F6C3E7960809E7960809E7964B
:100CE3000809E796B32220E0D5E6970809E69708B6
:100CF30009E6970809E697B3221212D2601B121273
:100D0300E16016121378700712136F600CB322C0E0
:100D1300D012136F7005D0D022C32233D0D050131A
:100D230030E0EBC3E7960809E7960809E796080958
:100D3300E7962220E0E4E6970809E6970809E69794
:100D43000809E69722D083D082ECC0E0EDC0E0E44E
:100D530093A3FCE493A3FDED4C600D120E20EC2451
:100D6300FFFCED34FFFD80EFE493A3FCE493A3FDCC
:100D7300ED4C600D120F1FEC24FFFCED34FFFD80E2
:100D8300EFD0E0FDD0E0FCE493A3C0E0E493C0E047
:100D930022851983851882E0A3FEE0A3F520780855
:100DA300E0A3F608DFFAE0A3FFE0A3C0E0E0A3C0FE
:100DB300E0E0A3C0E0E0A3C0E0E0A3C0E010AF0820
:100DC3008582188583198008858218858319D2AF97
:100DD300D083D08202103BD083D082E9C0E0E49379
:100DE300A3C386F0C5F095F0F908E493A386F0C594
:100DF300F095F0700BE493A3C3994005E9048002D6
:100E0300A3E475F002A42582F582E5F03583F5832A
:100E1300D0E0F9E493A3C0E0E493C0E022C0E0C3D0
:100E2300E49396087401939618400FE49366700850
:100E330008740193661870007019A3A3C3E4939612
:100E4300087401939618A3A3400DD0E0D0E0D0E03E
:100E5300020D84A3A3A3A3A3A3D0E022D083D082B3
:100E6300C5F0E493A3C5F0C395F0F5F0E493A3C3F1
:100E730095F04005E5F0048001E475F002A42582B5
:100E8300F582E5F03583F583E493A3C0E0E493C0F2
:100E9300E0227404800474028000CCC0E0EDC0E062
:100EA300E518C39CCCAD1950011D10AF068C188DED
:100EB3001980068C188D19D2AF120F96D0E0FDD091
:100EC300E0FC2274028000CCC0E0EDC0E0E518C372
:100ED3009CCCAD1950011D10AF068C188D198006DE
:100EE3008C188D19D2AF120F74D0E0FDD0E0FC2224
:100EF3001212D260251212E16020121378700302DD
:100F0300136F080808E76670101819E766700A1867
:100F130019E76670041819E76622F422C0E0C0F0EE
:100F230088F0E4936670080874019366187000A84B
:100F3300F0A3A3700BD0F0D0E0D0E0D0E0020D849A
:100F4300A3A3D0F0D0E022D083D082CCC0E0E4933E
:100F5300A36006120FD81470FAE493A3600612116B
:100F63001D1470FAD0E0FCE493A3C0E0E493C0E066
:100F730022CAC0E0E493A3C582CCC582C583CDC594
:100F830083F0A3C582CCC582C583CDC583DAE5D002
:100F9300E0CA22CAC0E0E0A3C582CCC582C583CD26
:100FA300C583F0A3C582CCC582C583CDC583DAE6EC
:100FB300D0E0CA22C0E0C0D0E8C0E0E9C0E0E5A8C4
:100FC300D2AFC2C7A2E7A2E792AFD0E0F9D0E0F870
:100FD300D0D0D0E032C0E0E493A3D39C5010E4938C
:100FE300A3C39C400AD0E0D0E0D0E0020F67A3A3E4
:100FF300A3D0E0227009080808226016181818C642
:10100300C333C608C633C608C633C608C633C6D5F7
:10101300E0EA22C008C3E096F50808A3E096420878
:1010230008A3E096420808A3E09645087001D3D0D0
:101033000822C09FF59FE473D09F22D083D082C043
:101043009FE493C0E0740193C0E0740293F59F2280
:101053002518F58210AF08F518400C15198008F50E
:101063001840021519D2AF851983227404800A74BB
:10107300038006740280027401C0E0F4041210536A
:10108300D0E012131D2200C0D0251810AF08F518A8
:10109300500C05198008F51850020519D2AFD0D0AD
:1010A30022BB0102E722C082C08389828A83BB00FC
:1010B30003E08002E493D083D082226016080808FC
:1010C300C6C313C618C613C618C613C618C613C696
:1010D300D5E0EA22C3E0C696F608A3E0C696F60872
:1010E300A3E0C696F608A3E0C696F6222518F8E410
:1010F3003519F9222518FAE43519FB222518FCE4E1
:101103003519FD22251810AF08F518400C15198064
:1011130008F51840021519D2AF22C0E0E493A36C7E
:101123007009D0E0D0E0D0E0020F67A3A3D0E022A3
:10113300E066701008A3E066700A08A3E066700416
:1011430008A3E06622C3E09608A3E09608A3E0960E
:1011530008A3E096A2D265D03322E766701008098F
:10116300E766700A0809E76670040809E76622184B
:101173001818E4C396F608E496F608E496F608E42D
:1011830096F622C3E096F008A3E096F008A3E09653
:10119300F008A3E096F022181818E608460870092C
:1011A300E626087005E633F4220822191919E7091F
:1011B30047097009E727097005E733F4220922C3B9
:1011C300E697F60809E697F60809E697F60809E6AA
:1011D30097F622C3E49396087401939608740293D6
:1011E30096087403939622E627F60809E637F6086D
:1011F30009E637F60809E637F622700422600D186F
:10120300C6C333C608C633C6D5E0F41822E657F67C
:101213000809E657F60809E657F60809E657F622DD
:10122300E056F008A3E056F008A3E056F008A3E068
:1012330056F022E026F608A3E036F608A3E036F6D9
:1012430008A3E036F622E026F008A3E036F008A370
:10125300E036F008A3E036F022E647F60809E64751
:10126300F60809E647F60809E647F622E056F608C7
:10127300A3E056F608A3E056F608A3E056F622606C
:101283000D08C6A2E713C618C613C6D5E0F322C6D7
:10129300F4C608C6F4C608C6F4C608C6F4C622C314
:1012A300E7960809E7960809E7960809E79622C32F
:1012B300E09608A3E09608A3E09608A3E0962275BB
:1012C300D00075813F75180175190300020C06E6FD
:1012D300084608C3134608336002E633F422E709DD
:1012E3004709C3134709336002E733F422600C084C
:1012F300C6C313C618C613C6D5E0F422E6F008A386
:10130300E6F008A3E6F008A3E6F022E0F608A3E07F
:10131300F608A3E0F608A3E0F622CAC0E0E6F0A3CD
:1013230008DAFAD0E0FA22E0FAA3E0FBA3E0FCA398
:10133300E0FD22EAF0A3EBF0A3ECF0A3EDF022E052
:10134300F8A3E0F9A3E0FAA3E0FB22E8F0A3E9F0B5
:10135300A3EAF0A3EBF022E5C754F84401F5C779FB
:1013630001222518F582E43519F58322E727194769
:101373001947194722E62618461846184622C2AFCF
:1013830075D69F0200002212103E1BBB0212103EB4
:10139300A7BB0212103E5DBC0212103EA4BC021297
:1013A300103EEDBC0212103E29BD0212103E9FBD3D
:1013B3000212103E0BBE0212103E27BE0212103E56
:1013C30028BF0212103EB9C10212103E12C302120C
:1013D300103EA5C30212103E2FC40212103E53C486
:1013E3000212103E04C50212103EB5C50212103E91
:1013F30032C70212103E71C70212103EE7C7021233
:10140300103E3CC90212103EDFC90212103E13CA3D
:101413000212103E2BCA0212103ECECA0212103E16
:1014230058CD0212103EF9CE0212103E17CF02120F
:10143300103E35CF0212103E05D00212103E5AD391
:101443000212103EF1340012103E4B350012103ED2
:10145300B5350012103E3E360012103EFA36001229
:10146300103E89370012103EA2370012103EC737D4
:101473000012103EE6370012103E24380012103ED0
:1014830073380012103E9C380012103EEB380012E5
:10149300103E97390012103E5F3A0012103EC43AD4
:1014A3000012103E913B0012103ED73B0012103E3B
:1014B300F33B0012103E253C0012103ECD3D0012BE
:1014C300103EA43E0012103ED03E0012103E043FD8
:1014D3000012103E253F0012103E343F0012103E12
:1014E3003F3F0012103EF33F0012103E66400012D1
:1014F300103ED8400012103EE0400012103E03425E
:101503000012103E36420012103EF8420012103E06
:10151300A7430012103EEF430012103E5144001245
:10152300103E62440012103EDA440012103E62453F
:101533000012103EC6450012103EAB460012103E8C
:10154300DC460012103EFA460012103E0D47001210
:10155300103E80470012103EC8470012103ED54788
:101563000012103EDE470012103EDE490012103E0C
:10157300284B0012103E384B0012103E474C00120D
:10158300103EC04C0012103E024D0012103E3E4D64
:101593000012103E124F0012103E77510012103EFF
:1015A3008B510012103E95510012103E9F510012B4
:1015B300103EA9510012103EC2510012103ECC51F0
:1015C3000012103ED6510012103EE0510012103EA0
:1015D30008520012103E13520012103E5D520012C8
:1015E300103E68520012103E8C520012103EB05250
:1015F3000012103E11530012103E5C530012103EB5
:1016030078530012103EE2530012103E2E54001283
:10161300103E76540012103EF1540012103E8B55CA
:101623000012103E4F570012103EBD570012103EDD
:10163300EF580012103E15590012103E855A001241
:10164300103E395E0012103E39600012103E1162E6
:101653000012103EAA620012103EBC640012103E3B
:101663007E650012103ECA650012103E30660012FD
:10167300103E42660012103E92680012103EBF698F
:101683000012103E116A0012103EB66A0012103E9C
:10169300716C0012103EA26D0012103EC06D00125C
:1016A300103E156E0012103E136F0012103E3B6F7A
:1016B3000012103E9E6F0012103E9F700012103EEB
:1016C30012710012103E40720012103EAB720012F3
:1016D300103E9B730012103E01760012103E2F76CF
:1016E3000012103E2A770012103EC8780012103EF6
:1016F30018790012103ED0790012103E857A00123C
:10170300103EE97A0012103EA27B0012103E427C8A
:101713000012103EA67C0012103EF07C0012103E18
:101723002D7D0012103E957E0012103E1B8101128A
:10173300103E53810112103E2C840112103E72841C
:101743000112103E8F850112103EF4850112103EE6
:1017530045870112103E368A0112103E558B011245
:10176300103E2A960112103EC9960112103EBC99F2
:101773000112103EBC9A0112103E329B0112103E20
:101783006F9C0112103ED89E0112103EE6A001127A
:10179300103E73A10112103E47A20112103ED3A2C4
:1017A3000112103EDDA20112103E06A30112103EEB
:1017B300B3A30112103E9EA40112103E76A501129E
:1017C300103EDAA50112103E03A60112103E30A608
:1017D3000112103E81A80112103E5CA90112103EB5
:1017E300A0A90112103E11AA0112103ECAAA0112A9
:1017F300103EFCAA0112103E43AB0112103E76AB21
:101803000112103EDBAB0112103E2AAC0112103E56
:101813002FAC0112103E83AC0112103ECDAC01126D
:10182300103EC9AD0112103E2EAE0112103E95AE10
:101833000112103EBAB10112103E8EB20112103ED7
:10184300F8B30112103ED2B60112103E7AB701125C
:10185300103EA1B90112103E46BA0112103E84BADD
:101863000112103E5DBC0112103E70BC0112103E0D
:1018730079BC0112103E82BC0112103E97BC0112CA
:10188300103EB6BC0112103E95BE0112103EE8BEDA
:101893000112103EF2BE0112103E13BF0112103EA0
:1018A30062C00112103EABC00112103E8BC1011287
:1018B300103EB6C20112103E6CC30112103E6EC43C
:1018C3000112103E70C50112103E56C60112103EA1
:1018D3006DC60112103EAAC60112103EB4C6011213
:1018E300103EBFC60112103EDDC60112103E1FC7D7
:1018F3000112103E7DC70112103EA2C70112103E15
:10190300BCC70112103E49C80112103E82C8011221
:10191300103ED0C90112103E22CA0112103E3CCB28
:101923000112103E63CB0112103EFFCB0112103E99
:101933007BCC0112103EC7CD0112103EE2CE011244
:10194300103EA8CF0112103E52D00112103ED7D044
:101953000112103E3FD10112103EF4D10112103E8C
:1019630046D20112103EACD20112103E75D30112C1
:10197300103E98D30112103E50D40112103E74D47D
:101983000112103E96D40112103EF7D40112103EFC
:1019930042D70112103E1DD80112103EC7D80112C2
:1019A300103E08DB0112103E56DB0112103E99DB9C
:1019B3000112103EF1DB0112103E4FDC0112103E0A
:1019C30079DC0112103E9DDC0112103ECEDC0112C7
:1019D300103EF8DC0112103E3FDD0112103E93DD94
:1019E3000112103EEFDD0112103EF0DE0112103E37
:1019F3005AE00112103E98E00112103EC1E00112BC
:101A0300103E52E10112103E9CE10112103EC0E172
:101A13000112103E13E20112103E2EE20112103E9B
:101A2300E9E20112103E13E30112103E56E30112E4
:101A3300103EACE30112103EB8E60112103EEBE695
:101A43000112103EA8E70112103E83E80112103E76
:101A530013E90112103E54E90112103E63ED041222
:101A6300103E9BED0412103EBCED0412103EFEED41
:101A73000412103E62EE0412103E6CEE0412103E8D
:101A83007CEE0412103EB3EE0412103E5CF204121C
:101A9300103E24F40412103E18F60412103EB6F65B
:101AA3000412103E3DF70412103E4D800312103E07
:101AB300F6800312103ED5810312103EF08203120A
:101AC300103E10830312103E32840312103ECF8562
:101AD3000312103E3C860312103E12870312103E7F
:101AE30018880312103E7D880312103EB988031232
:101AF300103E12890312103E4B890312103E948943
:101B03000312103E268A0312103EC38A0312103EAC
:101B1300988B0312103E658C0312103EF28C031255
:101B2300103E188D0312103E458D0312103E768D24
:101B33000312103E4B8E0312103E5B8E0312103EB7
:101B4300AE8E0312103EBB8E0312103EC88E0312DC
:101B5300103ED18E0312103E358F0312103E938F29
:101B63000312103EDE8F0312103EF98F0312103E54
:101B730020900312103E3D900312103E4990031231
:101B8300103EED910312103E06920312103E829214
:101B93000312103E95920312103EA5920312103EBB
:101BA3004B930312103EBB940312103ECE950312C7
:101BB300103E6E960312103E78960312103EE69680
:101BC3000312103EF7960312103E36970312103E8F
:101BD30064970312103E31980312103E8898031243
:101BE300103ECD980312103E23990312103E4199E3
:101BF3000312103E8F990312103E5D9A0312103E9A
:101C0300AB9A0312103EED9A0312103E709B03121F
:101C1300103E9A9B0312103ED09B0312103EDF9B93
:101C23000312103E3D9C0312103EB59C0312103E5E
:101C3300F69C0312103E459D0312103E709D031245
:101C4300103E8A9D0312103EA49D0312103E799EFE
:101C53000312103E839E0312103EBE9E0312103EDB
:101C6300CE9E0312103E1F9F0312103E339F03129A
:101C7300103E51A00312103E66A00312103E00A1B5
:101C83000312103E7FA10312103E22A20312103E44
:101C93002DA20312103E7AA30312103E96A3031241
:101CA300103EEEA30312103E5CA40312103EA8A440
:101CB3000312103EC2A40312103E22A50312103ECB
:101CC300C0A50312103E0BA60312103E6EA803120A
:101CD300103E06A90312103E7DA90312103EC3ABAA
:101CE3000312103EDBAB0312103EDEAB0312103EB9
:101CF300EAAB0312103EFEAB0312103E06AC031216
:101D0300103E3DAC0312103E31AD0312103EBBAD8D
:101D13000312103E3DAE0312103EB2AE0312103E4C
:101D23008AAF0312103EACAF0312103E43B003124E
:101D3300103E4FB00312103EACB00312103EAFB0D2
:101D43000312103E1EB10312103E6AB20312103E7C
:101D53007DB30312103E08B40312103E1BB50312E9
:101D6300103EE5B50312103E16B60312103E3CB604
:101D73000312103E45B60312103E74B60312103E12
:101D830024B70312103ED4B70312103E47B8031210
:101D9300103EF9B80312103E6CB90312103EABB9F2
:101DA3000312103EF4B90312103E7CE20412103EFB
:101DB300E7E20412103E33E30412103E7DE3041203
:101DC300103E01E40412103E0CE60412103E3CE8FF
:101DD3000412103E82EB0412103EB1EB0412103ECB
:101DE300CFEB0412103E39EC0412103E61EC0412E6
:101DF300103E94EC0412103EC9EC0412103E18ED90
:101E03000412103E96F00312103E12F10312103E1C
:101E130039F10312103E6CF10312103ECBF20312A0
:101E2300103EE7F20312103E2CF30312103EB1F3FF
:101E33000312103EFDF30312103E8DF40312103E05
:101E43005BF50312103EB6F50312103E1BF60312A8
:101E5300103E90F60312103EB9F60312103EFAF646
:101E63000312103EB1F80312103E8BF90312103E19
:101E730061FA0312103E30FB0312103E74FB03128F
:101E8300103ECCFB0312103EEEFB0312103E7AFC15
:101E93000312103E0BFD0312103EB5DE0512103E79
:101EA300D3DE0512103E38DF0512103ED5DF0512D2
:101EB300103E087F0012103E28DC0512103E50DC55
:101EC3000512103E3FDD0512103EF8DF0512103EED
:101ED3001BE10512103ED0D60412103EA0D7041207
:101EE300103EC5D70412103EE5D70412103EF9D7B1
:101EF3000412103E61D80412103E85D80412103E1D
:101F030008DA0412103E3EDB0412103E1FDC0412FA
:101F1300103E80DC0412103EACDC0412103E2BDDBC
:101F23000412103E7CDD0412103E9DDD0412103EAF
:101F330015DE0412103E3ADE0412103E9FDE041238
:101F4300103E23E00412103EF0E00412103E27E19D
:101F53000412103E4CE10412103E6CE10412103ED8
:101F630097E10412103EABE10412103E14E2041296
:101F7300103E68E20412103E52D70512103E73D78A
:101F83000512103EACD80512103ED6D80512103EED
:101F9300F1E80512103E01E90512103E0BE90512A6
:101FA300103E55F10212103E58F10212103E2AF271
:101FB3000212103E4DF20212103E97F20212103E30
:101FC300C9F20212103EF7F20212103E34F302126B
:101FD300103E62F30212103E75F40212103EBCF47E
:101FE3000212103EFEF40212103E77F50212103E6A
:101FF30022F60212103E45F60212103EB3F602120A
:10200300103E1CF80212103ED5F80212103EC8F919
:102013000212103E42AA0212103E6AFB0212103E46
:102023009FFB0212103EF9FB0212103EA3FC0212A8
:10203300103ED1FC0212103E5DFE0212103EE0FE85
:102043000212103E20FF0212103E7F890512103E3D
:10205300B9890512103E228A0512103E438A0512E1
:10206300103E5C8A0512103EFC8A0512103E058B59
:102073000512103E508B0512103E798B0512103E4F
:10208300868B0512103EF88B0512103E8A8C0512C2
:10209300103ED88C0512103E0CBB0212103E608D10
:1020A3000512103E8C8D0512103E078E0512103E50
:1020B300518E0512103E918E0512103EC98E0512E7
:1020C300103EDB8E0512103EED8E0512103E0C8F76
:1020D3000512103E158F0512103EE68F0512103EB5
:1020E30026900512103E4F900512103EAEA0051229
:1020F300103EF1A10512103E17A20512103E28A2B0
:102103000512103E47A40512103E66A40512103EA8
:102113002CD10512103E62D10512103EADD105122D
:10212300103EF6D20512103EFF9A0412103E309C68
:102133000412103E6C9C0412103E219E0412103EA9
:102143004B9E0412103EC4A00412103E04A10412BC
:10215300103E98A20412103E37A30412103E8FA320
:102163000412103E20A40412103E58A40412103E80
:102173009AA40412103E14A60412103E99A7041246
:10218300103EDAA90412103E08AA0412103E34AA23
:102193000412103E3DAA0412103E93AA0412103EEC
:1021A30023AB0412103E61AE0412103EE5AE0412DE
:1021B300103EDBFF0412103EF1FF0412103E73E7E2
:1021C3000512103EBDAE0512103ED2AE0512103EF2
:1021D30085AF0512103EC5AF0512103EDEAF0512E6
:1021E300103E12B00512103E5FB00512103E93B0C0
:1021F3000512103ED5B00512103ED1B20512103EA5
:1022030095E50512103ED2E50512103E14E60512BF
:10221300103E24E60512103E00800412103E588042
:102223000412103EE8800412103EF5810412103EA1
:10223300D2820412103E6F830412103EBC83041238
:10224300103E13840412103E68840412103ED78497
:102253000412103E7C870412103E12880412103EB2
:1022630049880412103E92880412103E7E8A04129A
:10227300103EF98A0412103ECB8B0412103E048CDC
:102283000412103E238C0412103E6E8C0412103E76
:10229300848C0412103E918C0412103ECA8C0412DA
:1022A300103EDC8C0412103EB38D0412103EBE8D22
:1022B3000412103E098E0412103E6C8E0412103E5E
:1022C300AC8E0412103EBA8F0412103E20920412F8
:1022D300103E4A920412103E54930412103E799316
:1022E3000412103EFA930412103EC2940412103EDC
:1022F30011950412103E72950412103E1D9604129D
:10230300103E47960412103E51960412103E5B96FF
:102313000412103E5E960412103ED8960412103E2C
:1023230011970412103E24970412103E5097041282
:10233300103E8B970412103E8E970412103ECA97DC
:102343000412103EE0970412103EFC970412103E54
:102353002B980412103E4B980412103E94980412CA
:10236300103ECB980412103ECB990412103E1BE88A
:102373000512103E33E80512103EE9F70412103E31
:1023830038F80412103EF6F90412103EB0FB0412A2
:10239300103EEEFB0412103EE1FC0412103EE8FD79
:1023A3000412103E0AFE0412103E54FE0412103EA4
:1023B300D5FE0412103E15EA0112103E38EA01124E
:1023C300103E21EB0112103E6AEB0112103ECDEBE1
:1023D3000112103E2DEC0112103E7EEC0112103E54
:1023E300F4EC0112103E76ED0112103EEBED0112FA
:1023F300103E2EEE0112103E39F20112103E9EF4F1
:102403000112103ED1F40112103E1FF50112103ECD
:10241300BBF60112103EBEF60112103E9CF70112EC
:10242300103ED2F80112103EF4FA0112103E95FB51
:102433000112103EC3FC0112103E28FD0112103E92
:102443002DFE0112103E7AFE0112103E23C3041228
:10245300103ECEC30412103E38C40412103E48C4CA
:102463000412103ECAC40412103E21C50412103EC9
:102473001CC60412103E43C60412103EE7C60412E3
:10248300103E36C70412103E94C70412103EEFC725
:102493000412103ED0CA0412103E6CCB0412103E3C
:1024A300C9CB0412103E94CD0412103E2ECE04125A
:1024B300103EC7CE0412103E25CF0412103E9CCF0F
:1024C3000412103EE3D00412103ECBD10412103E8E
:1024D3005BD20412103E5FD30412103EF8D30412F1
:1024E300103E62D40412103E75D50412103E42AF62
:1024F3000412103EADAF0412103EF5AF0412103EAD
:1025030039B00412103E8BB00412103EE8B004122E
:10251300103E23B10412103EC2B10412103E31B278
:102523000412103EA9B20412103EC1B30412103EAD
:10253300E9B30412103EF5B40412103E06B50412BA
:10254300103E1CB50412103E4AB60412103E78B673
:102553000412103E44B70412103E66B70412103E34
:1025630089B70412103EA3B70412103EC5B7041274
:10257300103EA4B80412103EFEB80412103E78BAFE
:102583000412103EDABA0412103EF9BA0412103ED5
:1025930041BC0412103EBCBC0412103EF2BC041237
:1025A300103E2BBD0412103E20BE0412103E2DBF60
:1025B3000412103E22C00412103E30C00412103E1A
:1025C30020C10412103EC2C10412103E35C20412CF
:1025D300103E4AC20412103EEBC20412103E889B06
:1025E3000512103EC59B0512103E5E9C0512103E5F
:1025F300699D0512103EB19F0512103E2DA00512D4
:10260300103E8CC50512103EBAC60512103E79C79E
:102613000512103ECEC70512103E51C80512103EDA
:10262300EBD50512103E05FF0412103E16FF0412EF
:10263300103EB6FF0412103EC1FF0412103E11D922
:102643000512103E1FD90512103ED5FF0112103E90
:10265300EAFF0112103EF5FF0112103EEEFF0212D7
:10266300103EA4E60512103EB4E60512103EC6E67F
:102673000512103E0FE70512103E91E30512103EBE
:1026830016E40512103E7CE40512103EF87F00129A
:10269300103EF9C10512103E07C20512103E80C25A
:1026A3000512103E55C30512103E27C50512103EF4
:1026B300C6FF0312103E4E960512103E7A9605127F
:1026C300103E14990512103E52990512103E8E9930
:1026D3000512103EA2990512103EBB990512103E39
:1026E300AE9A0512103E609B0512103E749B0512B4
:1026F300103EBDDA0512103EE1DA0512103EFADA99
:102703000512103E39DB0512103E6CDB0512103E3C
:102713009CDB0512103E04DC0512103E07DC05129B
:10272300103E11DC0512103E1EDC0512103E86CE53
:102733000512103EAECE0512103EEFCE0512103E2E
:102743000DCF0512103E28CF0512103E90CF051273
:10275300103E9CCF0512103EFBCF0512103E1FD03A
:102763000512103EE0D00512103EEDD00512103ECA
:10277300FED00512103E6FFF0212103E87FF0212B9
:10278300103EADFF0212103EECA50512103E35A718
:102793000512103E3BA70512103E52A70512103E2C
:1027A30073A70512103E89A70512103E9DA70512B7
:1027B300103E1CA80512103E81A80512103E17A951
:1027C3000512103EF0A90512103E00AA0512103E94
:1027D3000FAA0512103E3CFF0112103E60FF0112CA
:1027E300103E88FF0112103EB0FF0112103E58FD4B
:1027F3000312103EC4FD0312103EE2FD0312103E0D
:1028030053FE0312103EB4CB0512103ECDCB05127E
:10281300103EE4CB0512103EEDCB0512103E0BCC5F
:102823000512103E15CC0512103E1FCC0512103EAA
:1028330032CC0512103EB8CC0512103E2DCD051238
:10284300103E5BCD0512103EACCD0512103EF8CD07
:102853000512103E13CE0512103E1DCE0512103E7A
:102863002ECE0512103E71CE0512103ED0E7051292
:10287300103E00800512103E2C800512103E4A8047
:102883000512103E5D800512103E78800512103E41
:10289300D7800512103E05810512103E08850512EA
:1028A300103E5F860512103E91860512103E048786
:1028B3000512103E70880512103E98880512103ECE
:1028C300AD880512103EBD880512103EFD88051225
:1028D300103E3F890512103E4F890512103E3BE121
:1028E3000512103E4BE10512103E69E10512103E40
:1028F30084E10512103EABE10512103ECCE1051256
:10290300103EE6E10512103E1EE20512103E41E2C2
:102913000512103E69E80512103E63BE0512103E13
:1029230073BE0512103E91BF0512103EC3BF0512C0
:10293300103EE5BF0512103E0DC00512103E26C025
:102943000512103E62C00512103EC9C00512103EAA
:1029530005C10512103E4CC10512103E79C1051286
:10296300103EA5C10512103E70DD0512103E93DD29
:102973000512103E82DE0512103E85DE0512103E62
:1029830095E40512103EF4E40512103E32E50512FB
:10299300103E73E50512103E29BA0312103E35BAF4
:1029A3000312103E92BA0312103EAABA0312103E4B
:1029B30059BB0312103EC3BB0312103E0CBC0312DF
:1029C300103ED4BC0312103E4FBD0312103E09BF8C
:1029D3000312103ED7C00312103E27C20312103E4B
:1029E3006CC30312103E00C40312103E65C50312EC
:1029F300103E5FC60312103E79C70312103E2DCC62
:102A03000312103E06CD0312103E94CD0312103E66
:102A1300B9CD0312103EDECD0312103E75CE031264
:102A2300103E93CE0312103EB1CE0312103E18CFC8
:102A33000312103E37CF0312103E64CF0312103E31
:102A430071D00312103E47D10312103EB0D20312CD
:102A5300103ED1D20312103E52D30312103EF8D3CC
:102A63000312103E40D40312103EB2D40312103EA0
:102A730041D50312103EA6D50312103E11D6031200
:102A8300103ECBD60312103E44D70312103E80D71C
:102A93000312103EEDD70312103E3DD90312103E30
:102AA300FCD90312103EAADA0312103E32DC0312E1
:102AB300103ECBDC0312103E45DD0312103E46DF11
:102AC3000312103E59E00312103E6EE00312103E53
:102AD3009BE00312103E21E10312103E51E1031269
:102AE300103EABE10312103E42E20312103E33E408
:102AF3000312103E17E60312103E1DE70312103EA9
:102B0300F1EA0312103EBBEB0312103EB8EC0312C2
:102B1300103E6DEE0312103E9FBA0512103ECBBA63
:102B23000512103E35BC0512103E58BC0512103E6E
:102B330078D30212103E18D40212103E7DD4021232
:102B4300103E75D50212103E09D60212103E56D71A
:102B53000212103EF8D70212103EC2D90212103EE2
:102B6300C3DA0212103EDEDA0212103E05DC021254
:102B7300103EBADD0212103E5EDE0212103ED5E1B7
:102B83000212103ED5E30212103E6CE40212103E14
:102B9300C2E40212103E10E50212103E97E5021243
:102BA300103E11E60212103E49E60212103E38EDC5
:102BB3000212103E7EEF0212103E60F00212103E2F
:102BC300ADE80512103E79900512103E05910512ED
:102BD300103E8C920512103EDC920512103E1493A7
:102BE3000512103E2E930512103E53930512103E0C
:102BF3008A930512103E38940512103E5D94051217
:102C0300103E84940512103EDEB20512103EFCB253
:102C13000512103E40B30512103E66B30512103E76
:102C230088B30512103EA0B30512103EB8B30512C7
:102C3300103ED0B30512103E72B40512103EB4B468
:102C43000512103EBEB40512103EE0B50512103E4B
:102C5300E9B50512103EF2B50512103EFBB505129B
:102C6300103E05B60512103E40AA0512103E40AEB6
:102C73000512103E4EAE0512103E53AE0512103E25
:102C830058E90512103ED4C80512103E73E205122E
:102C9300103E12E70512103E5DD30512103E2EE6DC
:102CA3000512103E2CE90512103EBFB60512103E68
:102CB30006AA0212103EF2A90212103EDEA9021267
:102CC300103E10A90212103E5DA80212103E0CA67F
:102CD3000212103EE1A50212103E82A50212103E1E
:102CE300F3A30212103E81A30212103EF9B702129F
:102CF300103E46B50212103E3BA30212103E5AA2EA
:102D03000212103E0DB40212103E2EB30212103EF8
:102D130024A20212103EE9A10212103E7FA0021269
:102D2300103E05A00212103E429F0212103E389E32
:102D33000212103EEF9D0212103EC99D0212103E78
:102D4300059D0212103E4F9B0212103EEF9A021293
:102D5300103EC09A0212103EBD9A0212103E839991
:102D63000212103E6F980212103E2F970212103E6D
:102D730061960212103ED9950212103EF994021286
:102D8300103E60940212103EBA930212103E7C93DE
:102D93000212103E5AB10212103E1BAF0212103E35
:102DA300BAAE0212103E61AE0212103ED5AD02124F
:102DB300103EABAD0212103E6DAD0212103EE29218
:102DC3000212103EA1920212103E44920212103ED1
:102DD30011920212103E18AD0212103EA59102127A
:102DE300103E72910212103E17910212103EE690AD
:102DF3000212103E0BAC0212103EAF8D0212103EB7
:102E0300018D0512103EC18C0212103E7B8B021203
:102E1300103E278B0212103E1B8B0212103E828A39
:102E23000212103E50890212103EAB860212103E6F
:102E33004E840212103E02840212103EE7820212F6
:102E4300103E7C820212103EA4810212103E6B805F
:102E53000212103E32800212103E00800212103E17
:102E630072AA0212103EBCFA0200000080FBE47357
:102E730087000100C80E240002009A0E25000200FC
:102E83009C0E260002009E0E27000200A00E2800C2
:102E93000100A20E29000100A30E84000400A40E69
:102EA30086000100A80E2A000100A90E2B000100D4
:102EB300AA0E2C000100AE0E2D0008000F072E00F5
:102EC3000100AF0E2F000100B00E30000100B10E63
:102ED30031000100B20E3200010017073300010078
:102EE300180734000100B30E36000100190738003B
:102EF3000100B40E39000100AD0E83000200C60EBE
:102F030063000100240764000100AB0E65000100AB
:102F1300AC0E6D000100250771000800070766006D
:102F23000100C50E43000100B60E44000200B70EB7
:102F330045000100B90E46000200BA0E4700080022
:102F43001C0748000100BC0E4B000100BD0E04002D
:102F53000100C90EA1000100CC0E37000100CB0E09
:102F630088000100CA0E3C0001001A073D00010061
:102F7300B50E49000200BE0E6700010026074D0092
:102F83000200C00E4E000100C20E4F000200C30E2D
:102F93003E0001001B070000000000000001363660
:102FA3000101000102010001030100010401060601
:102FB30005020000070100340801000F09040101A4
:102FC3000D0100FF0E08000017020000190100FFA9
:102FD3001A0100011B0100FE1C0100081D02000074
:102FE3001F01000120010001210200002301000F45
:102FF300240200002601000127010008280200FF27
:103003002A0100072B0102402C0100002D010001C1
:103013002E0100012F0100FF30010B1C31080000BD
:103023003A0100083B01000F3C0100013D0100FF94
:103033003E04000042040000460400004A0400006D
:103043004E04000052040000560400005A0400001D
:103053005E20FFFF00000300200119810000000033
:1030630020011A810000040042016680000005006F
:103073004201148000000600420121800000070085
:1030830020011781000010004203FF0E0000110011
:1030930020032A0E000012001003100F030000008B
:1030A30021032B0E0600000010012D0E0C00410021
:1030B3003903110F0C0045003903150F0C005100A3
:1030C30010032E0E0C00550039032F0E0C006F0059
:1030D3001801330E36000100060000000F00000047
:1030E3000000000000000000000003FFFF000004D8
:1030F30003FFFF0000FFFF0FF4010005C4040320DA
:10310300000100000B000000000000000003010F9D
:1031130000000000000000000000000000000000AC
:10312300000000000000000000000000000000009C
:10313300000000000000000000000000000000008C
:10314300000000000000000000000000000000007C
:1031530000000103710301030103010301030103E0
:10316300220302030103100300030003000300030F
:1031730000030003000342030003240306030003C8
:10318300000304031203250323032503230304037A
:1031930004030003000300034403000300032303A9
:1031A30000036503210035038103000305030003C6
:1031B300000300030003250323030101710101013F
:1031C300010111010101310101010101800110011E
:1031D30061013B0014006301730172016201430149
:1031E3000001130106013D01350004011201000134
:1031F30000010001000104010401330133013C011A
:10320300440132013600000100016501000135006F
:1032130081010001050182018301000103027102A2
:1032230030016002110270020102020202028002F6
:10323300100261023A0041006302730272026202E9
:1032430043020002130238000002000204021202C9
:1032530000020002000200020402040237003700E9
:103263003C0244020002390000020002650200022F
:103273003502810200020502820283020002030476
:1032830071040204600411047004020402040104C2
:10329300020410046104000414046304730472043C
:1032A3006204430400041304060400040004040439
:1032B3001204000400040004000451046400000428
:1032C3000004000444040004000400040004650432
:1032D300000435048104640005040004830400042D
:1032E30003007100300160001100700031022003FF
:1032F300500480001000610000001400630073009C
:10330300720062004300000013000600000000008A
:10331300040012000000000000000000040004008C
:10332300370037003C0244000000000000000000AA
:1033330065000000350081000000050000008300E7
:1033430000008E2AE82A942AAA299A2AEE2A9A2A7F
:10335300FA2AA02AAA299A2AEE2AA62AAA29AC2A54
:10336300AA29B22AAA29B82AAA29BE2AAA29C42A7A
:10337300AA29CA2A002BD02AAA290000000000008B
:10338300000000000000D62A122BDC2AAA29D62A24
:10339300122BDC2AAA29CA2A002BE22AAA29000016
:1033A3008E241300222401008E240200D423030060
:1033B300DA230400E0230500E6230600F2231100CC
:1033C300162414001C24150004241F000A24FFFFE4
:1033D3000000016817069217088C170BAA1710DE56
:1033E30016026E170580170774170C50170D5C171C
:1033F300641615FF000007ECFDFDFDECDCDCCCBC26
:10340300ACAC9C9C8C7C7C6C6C5C5C5C4C4C3C3CA9
:103413002C2C1C1C03EAF5E5D5D5C5B5A5959585DA
:103423008575756565555545453535252515150549
:1034330000160F00000B150B020002220F330000D1
:103443000E5A6967426565416C6C69616E636530EC
:10345300390000000406000004060001040600020F
:103463000401030507090B0D0F00020406080A0CEB
:103473000D303017181921301B1D1F3000034A4926
:10348300434E181A2505020001191618161618239B
:1034930003000C0E020B040B0A0708000F00393D52
:1034A3003F373C3C362C442D303016181920231A54
:1034B3001C1E30020402010101010902E80300009D
:1034C30000BE040A000000000E003C003C007F0028
:1034D300E8030303080500040C01FF1E1E10050C7E
:1034E3000C28040409100815030004091008C082FD
:1034F300C0837900EA1236F63BF583C082C083901D
:103503000342127C38D083D082C3E09CA3E09D5059
:103513000CEA240B123543123523600109024CFBDC
:10352300EA75F00BA4FAA8F075F00BEBA428FB9056
:103533000344E02AF8A3E03B8882F583E0540F229A
:10354300F582E43B125E312274F7120AE389081212
:1035530054CAA3E0F9E875F00BA4F8ACF075F00BCE
:10356300E9A42C123771E8FEE9FF740165086006CF
:103573007402650870228A828B83123ABC740265D6
:10358300087021EA2403FA50010B121468E970143D
:103593008E828F83E4F0800CEA2403FCE43B123A2E
:1035A300B31214628E828F83E0D2E7F012230E02ED
:1035B300518674F4120AE3123B7679008E828F836C
:1035C300E06075890A890B8064E50A75F00BA4FA3B
:1035D300A8F075F00BE50B12352F7049E50A75F06D
:1035E3000BA4F8AAF075F00BE50B1237528E828FFD
:1035F30083E0850882850983124CAF123A33EE24A7
:1036030003FCE43F1236E912146212530512686296
:10361300124559D2E7F012230E7901900342E0F5E7
:103623000AA3E0F50B050AE50A7002050B12398FB0
:10363300E50A9AE50B9B40910257B874F5120AE329
:10364300EAFEEBFF750A01740B121365124160EC7D
:103653004D6015EC1236F63D123B84790112144A83
:10366300E508450960758023E5084509604412367D
:10367300F43509123B841236EA121468E9640170C6
:103683001BEEFAEFFB121450E9F50A85088285094F
:1036930083123A2B7902AA08AB098011123AB412A9
:1036A3001468E9640170347903EEFAEFFB12144AEB
:1036B30080298E828F83A3E064FE7003A3E0F470FD
:1036C3000B123AB4121468E96401700CEEFAEFFBC2
:1036D300121450E9F50A8003750A00023FECE50A6B
:1036E3002403FCE4350BFDE5082403FAE43509FB68
:1036F30022E508126C672274F7120AE39003421260
:103703005422EA4B602FEA75F00BA4FAA8F075F087
:103713000BEBA428FBEAFEEBFF12211C90034412DF
:103723005422900344125E1C6012EEFCEFFD7900FC
:103733001220568007900344E4F0A3F0025186F967
:10374300023EFFE875F00BA4F8AAF075F00BE9A4AC
:103753002AF9900344E028F508A3E039F50922F992
:10376300E875F00BA4F8AAF075F00BE9A42AF99018
:103773000344E028F8A3E039F92290034212516D83
:10378300C3EE98EF9922C082C083EC4D60051229E5
:103793009280097C087D007900122056024CFB744C
:1037A300F6120AE37900EA4B60177800EA28F582FB
:1037B300E412657960047901780808E8C394084045
:1037C300EB023EFFC082C0837901EC6A7002ED6BAD
:1037D300600EEA4B6009EC4D600512298C800119DB
:1037E300024CFB74F7120AE374F3121107ECFEEDBB
:1037F300FF851882851983E4F004121365EAF0A3A8
:10380300EB12515F12148C7403121365AC82AD83F7
:10381300EEFAEFFB121462EEFAEFFB121468025198
:103823008174F7120AE374F3121107ECFEEDFF85BE
:103833001882851983E4F0EAFCEBFD740312136527
:10384300AA82AB83121462AA18AB191214927401E0
:10385300121365124CBC8E828F8312515074FE6812
:10386300700374FF69600479018002790002518159
:1038730074F7120AE3EAFEEBFF121444E9F5087445
:1038830001650870111238DCF4FA88828983E05AE2
:103893004480F012230E0244CE74F7120AE3EAFEC8
:1038A300EBFF7508008E828F83E0602A121444E9CF
:1038B300F50874016508701E1238DCFA8882898362
:1038C300E05A70128E828F83E04480FA8882898363
:1038D300E04AF012230E0244CE1253091246A612F6
:1038E30037628E828F83E02274F4120AE38A088B94
:1038F300097C007D00EA1236EC121462E508123AE4
:103903004D7900850882850983A3E064FE7003A3D3
:10391300E0F460757E007F008066EEFAEFFB1235FF
:10392300236058EEFAEFFBEA75F00BA4FAA8F075E2
:10393300F00BEBA428FB900344E02AF50AA3E03B39
:10394300F50B850882850983A3126554850A828550
:103953000B83A3E06A7003A3E06B701FE50A2403E3
:10396300FAE4350BFB121468E9640170061236E1C0
:10397300121462123A427901127A6C0EEE70010F40
:1039830012398FEE9AEF9B40910257B8900342127F
:103993005E33C32274F3120AE38A088B098A828B8B
:1039A30083123A2BEA123A4D750C00EA1236EC12E6
:1039B3001468E96401706A7E007F00805FEEF8EFAF
:1039C300F9E875F00BA4F8AAF075F00BE9A42AF94D
:1039D300900344127ADEE0540F603CEEF8EFF9E80E
:1039E30075F00BA4F8AAF075F00BE9A42AF990037B
:1039F30044E028F50AA3E039F50B1236E112298CCD
:103A0300E964017012850A82850B83123A33123AF4
:103A130042750C01127A6C0EEE70010F12377D4065
:103A23009CA90C7F05020D94A374FEF0A304F0225D
:103A3300A312516D850882850983A31249D822E513
:103A430008123A57EEF0A3EFF022123A5774FEF041
:103A5300A304F022126C6B3509F5832274F5120A64
:103A6300E3EAFEEBFF8E828F83123A2B7C007D000C
:103A7300123AB4121462EEFAEFFB121444E9F50A97
:103A83007401650A7027125166123746850882F55C
:103A930083123ABC1236EA121468E96401700EE527
:103AA300082403FCE43509123AB3121462023FEC12
:103AB300FDEE2403FAE43FFB22A312655E1249D80C
:103AC3002274F2120AE374E6121107123B76750CA4
:103AD30001750800750900750A00750B00851882C9
:103AE300851983E4F0EE2403FCE43FFD7403121311
:103AF30065AA82AB83121462AA18AB19121492E955
:103B03006401701F740B121365123B867401121348
:103B1300651265587003A3E069604AA818A919885B
:103B2300088909740D121365124CAEA3124CBC74B0
:103B33000E121365125150740D1210F712148CE902
:103B430064017009740D1210EF880A890B780A1248
:103B53001076AC08AD09EEFAEFFB1214567402129C
:103B63001089E9F50CEEFAEFFB121486A90C741A0E
:103B73000264B4EAFEEBFF12530974FEF0A304F0EF
:103B830022F5831246A6F91253091249D822C0829C
:103B9300C08378007900800508E870010912398F25
:103BA300E89AE99B5029E8FAE9FBEA75F00BA4FAD5
:103BB300ACF075F00BEBA42CFB900344E02AFCA3C0
:103BC300E03B8C82F583E0540F70CD79008002795D
:103BD30001024CFBC082C0839034EAE49375F01673
:103BE300A4FCADF079FF7A367B08122056024CFB19
:103BF30074F6120AE3EAF87508007D008012ED12EC
:103C0300656BC3994009E0FAE8C39A400205080DC1
:103C13009034EAE493FAEDC39A40E3AA087B0002E6
:103C23003EFF74F0120AE374F31211078A0C8B0D32
:103C33008C088D09890AEC45096016AA08AB09129C
:103C430014DA8A0E8B0FAE0EAF0FEE4F6003023DF8
:103C5300187B0080010B126858500F123DC070F59D
:103C6300743628FE740839FF80047E007F00EE4F0F
:103C73007003023D6C9034C7123D93602174036559
:103C83000A60067404650A70157A0479031214B085
:103C93009034EAE493FC9034C7123D995029903450
:103CA300C9123D9360287401650A60067402650AAF
:103CB300701C7A0279011214B09034EAE493FC90F8
:103CC30034C9123D9940077A007B00023D90851864
:103CD300828519837401F0121365E50CF0A3E50DD9
:103CE300F0AC08AD097403121365AA82AB831214F6
:103CF30062AA18AB1912149E740B1213651249D1E0
:103D03008E828F83A3A3A3A3A3A3E4127C34AA0C60
:103D1300AB0D1219C07800E50A6007C39405500281
:103D230078048E828F83E50CF0A3E50D127218E5FB
:103D33000AF0E88E828F83A3A3A3A3A3126869501A
:103D430001097A027B0012088C1241A6A312649423
:103D5300A31241EAE50A600DC394035008124175AA
:103D6300123DB1800312418CF07A0479001214B031
:103D73008A089034EAE493FAC3E5089AEB94004086
:103D830005900E42E4F012189AEEFAEFFB02414A54
:103D9300123DA9E84922123DA9ECC398F8E499F928
:103DA300C3EA98EB9922E493F8740193F922F9EEAC
:103DB3002414F582E43FF583E8F0A3E922EB75F0E0
:103DC30016A4F8A9F01241DFF42274F2120AE37484
:103DD300F31211078A088B09ECFEEDFF750A00EE5A
:103DE300FAEFFB1214DA8A0C8B0DA80CA90DE84923
:103DF3007003023E9188828983E065087004A3E022
:103E030065097003023E9188828983A3A3A3A3E07B
:103E1300C39405507988828983127098125586E07D
:103E2300603488828983A3A3A3A3E0C394035026A9
:103E33009034CDE493FA740193FB1243E09034CFB2
:103E4300E493FA740193FBE82414F582E439F583CF
:103E5300EAF0A3EB800DE82412123E98F0E8241454
:103E6300123E98F08518828519837401F012136548
:103E7300127098F0EEFCEFFD7403121365AA82AB87
:103E830083121462AA18AB1912149E750A01A90AA7
:103E9300740D0264B4F582E439F58374FEF0A3046F
:103EA3002274F6120AE31214D48A088B09A808A90B
:103EB30009E849601488828983A3A3A3A3E0600966
:103EC300C394055004790180027900802F74F6129F
:103ED3000AE31214D48A088B09A808A909E84960DF
:103EE3001488828983A3A3A3A3E06009C394035026
:103EF3000479018002790080031210897F02020D88
:103F03009474F6120AE31214D48A828B83E58245F1
:103F130083600BA3A3A3A3E070047901800279005B
:103F230080DAC082C083EAFCEBFD7A007B00024C9E
:103F3300F8C082C0837C007D00024CF874F5120A3D
:103F4300E374F3121107EAFEEBFF8C088D09C3EC4F
:103F530094F8ED94FF4004EE4F606A750A008019EF
:103F630074FF6508700474FF6509600B1273957024
:103F730004A3E06509603B050A9034EAE493F8E59D
:103F83000AC3985040E50A123DC160EBEE4F60D082
:103F9300123FD312136512515B121498E960D8745F
:103FA30003121365AC82AD83EEFAEFFB12298CE9A1
:103FB30060C5E50A75F016A4F8A9F0743628FA74FA
:103FC3000839FB80047A007B00740D121089801B72
:103FD3008518828519837401F0743828F582740872
:103FE30039F58312516D740B22A90A7F03020D94D4
:103FF30074F4120AE374F31211077508001214DA49
:104003008A0A8B0BAE0AAF0BEE4F601F124056129B
:104013003FE612136512515B1214807C167D007902
:10402300FFEEFAEFFB1220567508017A04790012AD
:1040330014B08A0A9034EAE493FAC3E50A9AEB943B
:10404300005009900E427401F012189AA908740DD9
:104053000257B58518828519837401F08E828F8388
:10406300A3A32274F7120AE3E9FC74FE6A700374D3
:10407300FF6B7D007003802C0D1240C85026ED129B
:104083003DC160F4127E796A7003A3E06B70E9802E
:1040930012ED75F016A4F8A9F0127E6C6018E064B6
:1040A3000360130D1240C85015EC60E51241D36054
:1040B300F2C3940550ED1275D912655180047AFE4E
:1040C3007BFF0251869034EAE493F8EDC398221201
:1040D30014EC024CFBC082C083790180F274F012AD
:1040E3000AE38A0A8B0B7A0479011214B08A0C8BC7
:1040F3000DEA450D6040EA2AFAEB33FB12211C8AD4
:10410300088B09AE08AF09EE4F60267AFE7BFF12DB
:1041130014F274FE6A700374FF6B601E8508828557
:104123000983125422E5082402F50850E2050980A8
:10413300DE750C0080047E007F00850A82850B8378
:10414300E50C1253568005740D1210897F08020D79
:1041530094E493F8ECC39822127C3CEC22E0F5083B
:10416300A3E0F509221210897F0C020D947F070248
:104173000D949034CD123DA9EE1275D01249D8900A
:1041830034CFE493F874019322EE241212419AF08F
:10419300EE241412419A22F582E43FF58374FEF073
:1041A300A30422E88E828F83A3A3A3A3A3A3A3A321
:1041B3001241CB74011241CBA374AAF0EE2410F583
:1041C30082E43FF583E4F02212723BA3A3A3A3226C
:1041D300ED75F016A4F8A9F01241DF22743A28F520
:1041E300827408127D2822A3F0125309E4F0EE240E
:1041F3000CF582E43FF583E4F0A3F0A3F0A3F022EF
:10420300C082C0837D008009EA24FF1AEB34FFFBE0
:104213000D1240C850161241D3C3940550F2EA4B15
:1042230070E6743628FA740839FB80047A007B0040
:10423300024CFB74F7120AE374F31211077E0002B7
:1042430042CEEF75F017A4F8A9F0127E4F12663A2A
:1042530075F016A4FAABF074362AF5827408126866
:104263008C7003A3E0696040EF75F017A4F8AAF01F
:10427300EAF9127E4F39F583124CBC7401121365AF
:10428300E0687003A3E069601FEF75F017A4F8EA14
:10429300F9740628FC740A39FD7403121365AA82A3
:1042A300AB8312298CE96013EF75F017A4F8A9F01A
:1042B300740428FA740A39FB1219CC0F9034E0E421
:1042C30093F8EFC39850030242450E9034EA1279F3
:1042D300BE501FEE127E72F47003A3E0F460EB1283
:1042E3003FD312136512515B121498E960DC7F000F
:1042F30080CA02518174F7120AE374F31211079012
:104303000415125E1C70030243A4750800802BE59C
:104313000875F016A4F8EAF9744A28F582740812AD
:104323007D2464FE7003A3E0F4600D744828F582D5
:10433300740839F5831264AA05089034EA12647389
:10434300505FE50875F016A4F8AAF0EAF91241DB0C
:1043530060E6C3940350E1744828F5827408125E42
:104363001970ACE50875F016A4F8EAF9743628F864
:10437300740839F9E8FEE9FF124442124438122E58
:1043830071124056123FE612136512515B121498D4
:10439300E960A57403121365AA82AB831214E68045
:1043A3009702518174F6120AE31214D48A088B0916
:1043B300A808A909E849602088828983A3A3A3A345
:1043C300E06011C39403500CE82414F582E41265F1
:1043D300511243E0790180027900023EFFE8241282
:1043E300F582E439F583EAF0A3EBF02274F7120ABD
:1043F300E3EAFEEBFF90040F125E1C60309004159D
:10440300125E1C6028900419125E1C602012771A39
:10441300122E71E97017124433122E71E964017080
:104423000C8E828F83A3A3127707122E71025186FB
:10443300124442A3A3125E33900415127711229003
:1044430034CFE493FC740193FD8E828F8322C08268
:10445300C08390034F747AF0A37417F0024CFB747B
:10446300F7120AE3EAFEEBFF900385E06408601CA1
:10447300E0640460178E828F83E05403640170410B
:1044830012620CF81244D3E0640670358E828F8377
:10449300A3A3E064FE7003A3E0F460258E828F8300
:1044A300A3A3126C4D7003A3E0697008EE241512E8
:1044B3006C42600512182E8003121834E9F5088047
:1044C300037508C2EEFAEFFB122122A908025186F6
:1044D300A3E0F58388822274F4120AE38A088B0925
:1044E3001246A2FAE82AFAE43400FB12211C8A0AD3
:1044F3008B0BAE0AAF0BEE4F60558508828509839F
:10450300E0FC7D0079001220568E828F83A3123A3D
:104513002B12186A8E828F83A3A3A3A3EAF0A3EBC3
:10452300124559F8EE28F8E43F123B898508828545
:104533000983A3E0C0E012684ED0E0F012187C12A9
:104543006844E91249B4E0C0E01249AAD0E0F0EEB1
:10455300FAEFFB0257B8F0850882850983E02274DD
:10456300F4120AE374E81211078A088B098C0A8D86
:104573000BE9FE900385E064046005E064087004C1
:1045830079C2803CA378081212FFEE90038C124686
:10459300D012205685188285198378081212FF7469
:1045A30005121365EEF074041213657401F07407B9
:1045B300121365E4F0900385740212515F122C32DA
:1045C3000257B374F4120AE374E8121107EAFEEB1C
:1045D300FF900346125E1C600302469D7A077B0030
:1045E30012211C900346125422900346125E1C7043
:1045F300030246998E828F83121342900346E0FC96
:10460300A3E0F5838C8212134EEE2404F50AE43FF3
:10461300F50B850A82F583E0C0E0900346125DF056
:10462300A3A3A3D0E0F0EE2405F508E43FF5098544
:104633000882F583E0C0E0900346125DFED0E012ED
:104643005155C0E09003461246A6C82406F582E4FD
:1046530038F583D0E01246D01220568E828F831213
:10466300134285188285198312134E850A82850B9E
:1046730083E0C0E07405121365D0E0124559C0E031
:104683007404121365D0E0F07407121365E4125139
:104693005F122C3280067910800279010257B38AA7
:1046A300828B83E0F8A3E022C082C083900346128A
:1046B3005E1C60109003461265541221229003463B
:1046C300E4F0A3F01217A412196C024CFBF07C184F
:1046D3007D007900AA18AB192274F7120AE3E99056
:1046E300034AF07A807B009003D0E0F91221E812AC
:1046F300154C7900025186C082C08390034AE07052
:104703000312241012154C024CFB74F0120AE390AE
:10471300034AE0900E41700FE0600579001222D841
:10472300900E41E4F0804AE06401600890034AE09F
:10473300F91222D8900E417401F090034AE0F4601C
:1047430030E0F50CE4F50DF50EF50FF090810B78E4
:104753000812130E780C790812097C780C12106E6B
:104763007A807B009003D0E0F91221DC74041210EC
:10477300897A417B0E7941122C1A02414F74F4124B
:104783000AE374E81211078A088B098C0A8D0BE976
:10479300FE90038574011246D01220568518828537
:1047A300198378081212FF7405121365EEF074046E
:1047B3001213657403F07407121365E412515F1248
:1047C3002C320257B374F7120AE37C011215640208
:1047D300518674F7120AE37C0080F174F0120AE345
:1047E30074FC121107E9851882851983F0EAFEEB40
:1047F300FF8C0A127C351217988A088B09EA45093F
:10480300700579CA0249A58A828B83A3A3A3A3A3B4
:10481300A3A3E064FE7003A3E0F4700579C3024927
:10482300A512186A8A0C8B0DA80CA90D8508828520
:104833000983A3A3A3A3A3A3A3E0687003A3E069CD
:10484300700579C20249A5900383124CBC85088286
:10485300850983E0687003A3E06960128508828597
:104863000983124B21AA08AB097950122C1A900321
:10487300831265541219D2850882850983A3A3A3E1
:10488300A3A3A3A3A3A3A3E004900396124B0D1227
:10489300299274021213657402F0141210F712189D
:1048A300D08A0C8B0DAE0CAF0DEE4F700302499BFB
:1048B30012573C7406F0A3A882A98390037012696F
:1048C3007A1261E9121864125419EE24131261EC7E
:1048D30012683A7440F0A3E41249B4A3A3A3A3A3B8
:1048E3001249D11249AAE50A125356121522E9F5C3
:1048F3000B600302499E9003857409F0E5082407C1
:10490300FEE43509FFEEFAEFFB794B122C1A8E8287
:104913008F83124B17900378E0F8851882851983EB
:10492300E068600CE090037812515F79E1122C1A71
:10493300900E9E124CBC900EA0E0687003A3E06939
:104943006028900348125150900EA012655412181B
:10495300941249BE780C12106E7A017B009003D03A
:10496300E0F91221DC74041210897A007B049003AD
:10497300D0E0F91221E81249BE7402780C120FF745
:10498300780C12106E7A007B049003D0E0F91221A8
:10499300DC74041210898003750B109005A5E4F0F4
:1049A300A90B740402414CEE2411F582E43FF58314
:1049B30022F0850882850983A3A322900EA0E0F547
:1049C30008A3E085080CF50DE4F50EF50F22126837
:1049D300841249D822E8F0A3E9F02274F6120AE31C
:1049E30074E2121107851882851983ECF0A3EDF0A8
:1049F300EAFEEBFF8908900385E064046005E06448
:104A030008700579C2024B087429121365E064FE2D
:104A13007003A3E0F4700579C3024B087C197D0091
:104A2300790074051210F71220569003857403124F
:104A3300515F7950122C1A74291210F7794B122CEA
:104A43001A851882851983124B21E508900378F0A3
:104A53007429121365124B177428121365E0F509B4
:104A6300900370124B0D12299274CE55094480C0E5
:104A7300E0741D121365D0E0F0742B121365E0048B
:104A8300900396F0741A1213657402F074291213CA
:104A930065124CBC7412121365E8F0A3E9124CB50D
:104AA300741B1213651251507410121365E508F04C
:104AB300740D121365E4F090038B740FF07A8B7B03
:104AC300037954122C1A90038A740FF07A8A7B03A9
:104AD3007947122C1A90038AE0C3940F501F741065
:104AE300121365E0C0E07402121365D0E0F07404A1
:104AF3001213657401F0041210F7122C3E740512A0
:104B030010F7122C20741E023EFCF0EEFCEFFD7A2F
:104B1300977B032212516D9003791249D8221275A3
:104B2300FA1249D82274F7120AE3EB90038DF012BC
:104B3300178602518674F7120AE374E9121107EA21
:104B4300FEEBFF7508008E828F83A3A3A3E0C0E072
:104B53007406121365D0E012405EE0C0E0740812E0
:104B63001365D0E0F074091213657401124CAF128F
:104B73005E1C600D8E828F83126554121468E97077
:104B8300357407121365E4F0121864740412136584
:104B9300125422900385E06404700E12187074029C
:104BA300121365EAF0A3EB8048740212136574FDD7
:104BB300F0A374FF803BAC18AD198E828F8312650E
:104BC3005412147A8E828F83A3A3A3A3E07030744C
:104BD300071213657401124CB57402121365125156
:104BE300508E828F83124CBC7404121365E8F0A3B9
:104BF300E9F074021210F71218B8E9F508803E12B2
:104C03004CB6740A121365125150741412136512C0
:104C1300405CA3E0C0E07415121365D0E0F0741695
:104C2300121365124CAE127C38740C121365AA82EF
:104C3300AB83122992740A1210F71222F0A9087496
:104C43001702518374F7120AE374F8121107EAFE8C
:104C5300EBFF7900900385E064086005E06404706D
:104C63004585188285198374FDF0A374FFF012182B
:104C73006474021213651254227405121365124CE4
:104C8300AEA3E0C0E07404121365D0E0124CAFE0B1
:104C9300C0E07406121365D0E0F07407121365E4E4
:104CA30012515F1218B87408025183E4F08E828F98
:104CB3008322F085188285198312516D22C082C028
:104CC300839003577430F0A37416F09003FD7412AD
:104CD300F0A37419F090035B7466F0A37416F0905C
:104CE300035D7430F0A37416F090035F746CF0A34B
:104CF3007416F080031214E0D083D08202103B7448
:104D0300F4120AE374F91211078A088B098C0A8DCD
:104D13000B85188285198378081212FF7404121305
:104D230065E9F07405121365E4F07406121365E483
:104D330012515F12153474070257B574F5120AE362
:104D43008A088B098A828B83127A6FEE4F70030273
:104D53004EF6900314125E1C60158A828B83A3A304
:104D6300E0F9EEFAEFFB9003151244D4122E718E84
:104D7300828F83A3A3A3A3A3A3A3A3A3E06402603B
:104D830003024E5F8E828F83A3A3A3A3A3A3E05446
:104D9300027003024E83850882850983A3A3E0641E
:104DA300E97003024E83850882850983A3A3E06427
:104DB300CD7003024E83850882850983A3A3E06433
:104DC300F07003024E838E828F83A3A3A3A3A3A3B6
:104DD300A3A3A3A3E07016900EB6E0048E828F8384
:104DE300A3A3A3A3A3A3A3A3A3A3F08010124F077A
:104DF3001218E8E970077A307B011225EA850882E8
:104E0300850983A3A3E0701F750A0080097A367BA6
:104E1300011225EA050A850882850983A3A3A3E075
:104E2300F8E50AC39840E68E828F83A3A3A3A3A3C6
:104E3300A3A3A312722FA3A3A3A37404F0900EB78A
:104E430012687EE8124EF91221EEEA4B4C4D700CBB
:104E53007A207B009003D0E0F91220B08E828F83FA
:104E6300A3A3A3A3A3A3A3A3A3E0640260128E82BC
:104E73008F83A3A3A3A3A3A3A3A3A3E06406707335
:104E83008E828F83A3A3A3A3A3A3E0A2E050648590
:104E93000882850983A3A3E0F9EEFAEFFB122CB095
:104EA3008E828F83A3A3A3A3A3A3E054FEF0124F88
:104EB300071218E8E9850882850983A3A3702AE00D
:104EC30070237A2F7B011225EA7E008508828509EB
:104ED30083A3A3A3E0F8EEC39850187A367B01129C
:104EE30025EA0E80E67A318005E070077A2D7B0192
:104EF3001225EA023FEEF0A3E9F07A207B0090034B
:104F0300D0E0F9228E828F83127711125E332274DE
:104F1300EC120AE374DB121107EAFEEBFF8C108D2F
:104F230011750E0074051210FF1213C074121213C0
:104F330065E070087415121365E0602074051213A0
:104F430065E0A2E6501B8E828F83A3A3A3A3A3A332
:104F5300A3A3A31265541218E8E960057A35025039
:104F63005B7405121365E0540C64047005750D0140
:104F73008003750D00E0A2E55030750E01E50DA22A
:104F8300E0402712186A8A088B09A808A909126247
:104F93000C687003A3E069601174051210FF126CB2
:104FA3005C122CD4E960030250597405121365E0B6
:104FB300A2E650227406121365E0540370187405B8
:104FC300121365E0540C640C600CE0540C6408602C
:104FD30005750C018003750C007405121365E0540C
:104FE30003F8740268700E74051210FF126C5C12E1
:104FF30013D20251457401687041E50CA2E0500BD5
:1050030074051210FF126C5C1213C674051210EFB4
:105013007403121365E8F0A3E912516585188285BC
:105023001983E8F0A3E9125155C0E0740212136525
:10503300D0E012515F122E48025145E8600302513D
:105043004590036DE0640170178E828F83A3A3A341
:10505300A3A3A3E0700A7A347B011225EA02514527
:1050630074241213657402125165741C12136512B1
:105073005150E50CA2E0500B74051210FF126C5C4A
:105083001213C67439121365780812130EE50DA2B4
:10509300E0EE5072240F126C42C0E07417121365D5
:1050A300D0E0F0900316125E1C70030251451218F3
:1050B3006A8A128B13A812A913741C121365E06871
:1050C3007003A3E069707B780812106EE50EF50893
:1050D300780812107A8E828F83A3A3A3A3E0F50826
:1050E300780812107A7810121076A90C740D121029
:1050F300FF74241210F79003161265C6122E7174F2
:1051030008121089803C126C40F50C780C12107A4E
:10511300780812106EE50EF508780812107A7810E8
:10512300121076900383120E99EE2412126C42F938
:1051330074261210FF740F1210F7122E60740A12E5
:1051430010897425024168A3A3A3A3A3A3E812496A
:10515300D922127237A3E022E8F0A3E9F0AA18AB30
:105163001922F012530912516D2212517122E0F8E3
:10517300A3E0F92274F7120AE31222BA8005740D30
:105183001210897F01020D9474F7120AE31222CCE4
:1051930080F1C082C0831222C6024CFB74F7120A4C
:1051A300E31222D280DD74F7120AE3740912136545
:1051B300E0F508780812107A1222E4740180C1C065
:1051C30082C0831222F0024CFBC082C0831222F6FB
:1051D300024CFB74F7120AE31222FC80A674F71246
:1051E3000AE3EAFEEBFF890874016508701479008D
:1051F3001216A89034DEE493FC7900EEFAEFFB126A
:10520300161E02518674F7120AE31222EA0251862D
:1052130074F4120AE374F9121107E9FE8A088B0980
:105223008C0A8D0B9005F9125E1C602BEE8518829B
:10523300851983F0740112136578081212FF741331
:10524300121365124CBC740512136512515B900561
:10525300F91265C6122E71024D3974F7120AE31260
:10526300230802518674F7120AE3900E44E0F97E94
:1052730000800B1254D8540D64017001190E12549E
:105283006F5003E970ED02518674F7120AE3900E32
:1052930045E0F97E00800B1254D8548D648170016F
:1052A300190E12546F5003E970ED02518674F21215
:1052B3000AE3890BE975F006A4A9F0240CF508E4C8
:1052C30039F509E5082AFAE43509FB12211C8A0C91
:1052D3008B0DAE0CAF0DEE4F6021AC08AD0979001C
:1052E300122056125305E50BF0EE2508F8EF3509A9
:1052F300F98E828F83A3A3A312514AEEFAEFFB0226
:1053030064B712530922EE126C6B3FF5832274F6D5
:10531300120AE3EAFEEBFF1215FA900E43E0F8E9F6
:10532300C3984009900353126554121600EE2402E9
:10533300F8E43FF98808890990035512697A9003C4
:1053430055E004125356121606850882850983E038
:10535300023742F0EEFAEFFB22C082C0837900905D
:1053630003538001091265548A828B83E582458346
:1053730070F2024CFB74F7120AE3EAFEEBFFEE4F06
:10538300605A900353125E1C6052888289837A00AC
:105393007B00EE65827003EF65836013AA82AB83A3
:1053A300124CBC88828983E5824583602F80E39019
:1053B300035312663D687002EF698E828F83700813
:1053C300124CBC90035380031276FF125150EEFA35
:1053D300EFFB122E18EEFAEFFB122122025186C0C8
:1053E30082C083900353800488828983125E1C6089
:1053F3000A8882898312415B4D70ED8A828B83E434
:10540300F0A3F0E849600688828983800390035300
:10541300125422024CFBEE241AF582E43FF583EA90
:10542300F0A3EBF022125E33EA4B2274F7120AE385
:1054330090035380048A828B8312542860277E0052
:1054430080010E12546F50EDEE75F006A4FCADF022
:10545300EA2CFCEB3DFDEC2410F582E43DF583E002
:105463006970DF80047A007B000251861254CEEE0D
:10547300C3982274F7120AE37D0080010D1254CA07
:10548300EDC398503BED75F006A4FEA8F0E8FFEAE3
:105493002EFEEB3FFFEE2410126C426970DEED75B9
:1054A300F006A4FEE8FFEA2EFAEB3FFBEA2411F52F
:1054B30082E41265794CF0EA240CFA50070B80045D
:1054C3007A007B000251861254CE22EA126C6B3BA7
:1054D300F583E0F822EE75F006A4FCADF0EA2CFCAF
:1054E300EB3DFDEC2411F582E43DF583E02274F6F7
:1054F300120AE31217147B008016EB75F006A4F86A
:10550300A9F01269A8E4125586F0A3126970F00B92
:105513009034E312685B40E27A0080168A087509CA
:1055230000740378081211FD12647B126879A3E4F6
:10553300F00A9034F0E493F8EAC39840DF790080EE
:105543001A8908750900740378081211FD742C1266
:105553007A77740D1278B0123A2C099034EE1270E7
:105563007E40DE9034DCE493900361F090810B1273
:105573000E957A107B009003D0E0F91221E27404B7
:10558300023EFC12708CA32274F0120AE374F5122B
:1055930011078A088B09890A8C0BE9A2E05014755C
:1055A30008FC7509FFA2E15005D2E4025654D2E388
:1055B3000256541216FC8A0C8B0DA80CA90D9003ED
:1055C30076E0687003A3E069600EAC0A7902AA086A
:1055D300AB091216F6E970057900025725E50AF5BD
:1055E3000C780C12107A79027CFE7DFFAA08AB09B5
:1055F3001216727401121089E96003025723E50A37
:10560300C2E5F50A9003C3E07049E50AA2E6404308
:1056130074031210FFAA08AB09121474E9702E1256
:105623005DF71219AE8A0C8B0DAE0CAF0DEE4F6009
:1056330022EE2402FAE43FFB121468E96015EE241B
:1056430002FCE43FFD74031210F7122992E50AD21B
:10565300E5F50A900356E0F50C9003761258E778C7
:105663000E1210767D017C00900356E0F9AA0EAB72
:105673000F1216B47402121089E9F8900356E0046D
:10568300F0E86003025723E50AA2E55004740E8094
:10569300027406C0E07401121365D0E012515F1268
:1056A30018D08A0E8B0FAE0EAF0FEE4F606E1261E5
:1056B300E912186412541912573C7401F0747855A6
:1056C3000AA3127CA1E50C127CA1A3E508F0E5096D
:1056D30012572AE4F0E50AA2E5500F74031210FFF3
:1056E300E82406FAE439FB1229928E828F83A3A35E
:1056F30074FDF0A374FFF0E50B60189034DFE493BE
:10570300F8E50BC398500CEE2413F582E43FF583C0
:10571300E50BF0EEFAEFFB121522800679108002FA
:1057230079C7740B02414C88828983A3A3A3A31274
:10573300573622127090A3A322EE126C673F1257C2
:105743004522F583125171888289832274F4120AE7
:10575300E37A007B109003D0E0F91221EEEA4B4C80
:105763004D60089003E27401F08043900719E064F0
:1057730001900EB37006E0FC79018004E0FC79032C
:105783007A007B0012161E9034D3E493F50874015B
:1057930093F509E4F50AF50B780812106E7A007B8D
:1057A300109003D0E0F91221DC74041210898005F3
:1057B30074181210897F04020D9474F0120AE38A9C
:1057C300088B098C0A8D0B890C1218E8E960057A9D
:1057D300FF0258AB900EB2E0640260030258D79008
:1057E30034D6E493F9AA08AB09121726E960030239
:1057F30058D17900AA08AB091216FCA90C1216F0AD
:105803008A0E8B0FAE0EAF0FEE4F70030258BD8E94
:10581300828F83A3A3A3A3A3126F947073126554FF
:105823008E828F83A3A3A3A3A3A3E05418604D90F8
:1058330034DDE4938E828F83A3A3A3A3F0741012A9
:105843001365127C3874121213651258E7EA650A5D
:105853007003EB650B6012EA6C7002EB6D600AEA91
:10586300650E7003EB650F701B780E121076AA0A93
:10587300AB0B1219EA740212108980089003751297
:105883007226A3F074FE6A700374FF6B601E80516E
:10589300A3A3A3E06403602A8E828F83A3A3A3A39D
:1058A300A3E0640470067AFE7BFF80358E828F83CB
:1058B300A3A3A3A3A3E0640270089003C2E064025D
:1058C30070127907AA08AB09121726E96006AA081D
:1058D300AB09800DAA08AB099003571265C6122EB7
:1058E3007102414FE0F50EA3E0F50F2274F7120A9F
:1058F300E3EAFEEBFF1214C2E9700AEEFAEFFB12C1
:1059030014CEE96006EEFAEFFB80047AFE7BFF0219
:10591300518674EE120AE38A0A8B0B8C0C8D0D8967
:105923000E7508001218E8E979006003025A7BAA91
:105933000AAB0B1216FCA90E1216F08A108B11AECD
:1059430010AF11EE4F60198E828F83A3A3A3A3A37D
:10595300E0640270529003C2E064027003025A7959
:10596300AA0AAB0B1265C3122E711214D48A108BC0
:1059730011A810A911E8497003025A798882898312
:10598300A3A3A3A3A3E0A2E04003025A79750901EC
:10599300A2E1504B7901AC0AAD0BAA0CAB0D121668
:1059A3004EE97047025A798E828F83A3A3A3A3A3E0
:1059B300E0640360258E828F83A3A3A3A3A3E06483
:1059C300016003025A7979078E828F83A3A312653C
:1059D30054121726E96003025A7975090280108868
:1059E300828983A3A3A3A3A3D2E1F0EE4F603A8EEF
:1059F300828F83A3A3A3A3A3A3E05418602B7508EA
:105A0300018E828F83A3A3120E997510FE7511FF69
:105A130078101210767900AC0AAD0BAA0CAB0D12FC
:105A230017087404121089804D7900AA0CAB0D126B
:105A330016FC8A108B11A810A911900376E06870E8
:105A430003A3E06970149034DEE493FCA90EAA0A60
:105A5300AB0B12161E750801801CA909AC0AAD0B0D
:105A6300AA0CAB0D12164EE9700C750801A90EAA0B
:105A73000AAB0B1216A8A90880031210897F0A0229
:105A83000D9474EB120AE374F01211078A0C8B0D58
:105A93008C088D09751206900403125E1C601712A0
:105AA3005DF71219D88A108B11EA451160088A82B2
:105AB3008B83A3E06068E50C241DF50EE4350DF53A
:105AC3000F850E82126013F51488828983A3A3A322
:105AD300E0FA88828983A3A3A3A3E0F8E4C8F9EAE0
:105AE30028FEE439FFAA08AB091216AE850E82859B
:105AF3000F83125DFEE029F50BE50AA2E55003755D
:105B0300120E7487550A700F7418550A64186007CB
:105B1300125DE16512600C7AD37B001225EA7900ED
:105B2300025DCB530A78C3EE94F8EF94FF502479C7
:105B330000EEFAEFFB1216F08A0E8B0FA80EA90FD8
