:020000040000FA
:06000000020107022B23A0
:03002B00022FA5FC
:03005300022B96E7
:03006B00022F3130
:1000830002298FE5C754F84401F5C779012200001E
:100093000080FB120086B900030200F1E4792178A5
:1000A30008B800028004F709D8FCE479297802B87B
:1000B30000028004F709D8FCE490028178DA79071A
:1000C3008002F0A3D8FCD9FA7A5A7B0990013778D9
:1000D3008879058015E493A3AD82AE838A828B83EE
:1000E300F0A3AA82AB838D828E83D8E9D9E7758288
:1000F3005C7583C274031201197582917583007450
:100103000012011975D00075813F751881751902A8
:10011300759F00020096C09FF59FE473D09F22D085
:1001230083D082C09FE493C0E0740193C0E0740263
:1001330093F59F22FF0000B4000028002800283018
:1001430075A000A000A000A00000080008E001F0D6
:10015300001000100010001000100010005000509C
:1001630000500010001000D0070000000000000F36
:100173000001000500307507001000010081FF0039
:10018300000000FFBC07DA07C207FF0202020802F1
:100193005000A0000000E80302EC81010000A981E7
:1001A30002F081010000B10902F681010000B302EF
:1001B30002F081010000B20902F881010000C902C6
:1001C30002F081010000B30902FA81010000CB02B1
:1001D30002F081010000B40902FC81080000CC0296
:1001E30002F081010000B50902FE81010000B60999
:1001F300FF0100FF2002EC81010000A68102F081D3
:100203000100001A0A020082000000000002F481CB
:100213000300001903800D800D800D800D800D807B
:100223000D800D800D800D800D800D800D800D02E1
:10023300101A10FC0F0F09476173416C61726D5303
:10024300656E736F72051250002003020A000201EB
:100253000647617320416C61726D2053656E736F45
:10026300720000000000E803D00700400000000017
:100273000A566F6C74616765206D5601008100003A
:1002830000000370706D034D513201E6100000F859
:1002930010FE100411FFFF0040000000000A566F1B
:1002A3006C74616765206D561241494E20566F6C20
:1002B30074616765286D5629000A0141494E204340
:1002C3006F6E662E000A0A41494E20506572696FAF
:1002D300640002EC81010000B58102F0810100009D
:1002E300CE0A02D281010000BD0A02F4810300009C
:1002F3006F0702F281010000CF0A02F081010000C2
:10030300DF0A02CA81030000E00A02F28101000051
:10031300E10A02F081010000EB0A02C88103000038
:10032300EC0A02F281010000ED0A1A42757A7A653D
:1003330072205374617475730002EC81010000BB79
:100343008102F081010000500B02C281030000779B
:100353000702F4810300007E0702F28101000051CD
:100363000B020202020202020202010D000000104F
:100373000102EC81010000B88102F08101000087D5
:100383000B02C081010000840702F0810100008894
:100393000B02E681010000C28002F08101000089A6
:1003A3000B020482010000D18002F0810100008A67
:1003B3000B0206820100000C8102F0810100008B18
:1003C3000B02E481010000058102F0810100008C31
:1003D3000B02E0810100001A8102F0810100008D0F
:1003E3000B02D881010000FE8002F0810100008E23
:1003F3000B02D081010000DF8002F0810100008F39
:100403000B02C681010000900B1244494E20537425
:10041300617475730002EC81010000B28102F08106
:100423000100002F0C02CE810100008C0702F48131
:100433000300008F0702F281010000300C008100ED
:100443000000000370706D034D5132124D512D3277
:100453002044617461000A01476173416C61726DEC
:1004630020436F6E662E000A0A476173416C617206
:100473006D20506572696F64000A476173204D6592
:10048300617375726D656E74204F7074696F6E0061
:100493000A2C014761732070706D20746872657354
:1004A300686F756C640002EC81010000AC8102F09E
:1004B30081010000710C02D681010000630C02F47B
:1004C30081030000970702F281010000720C02F021
:1004D300810100007C0C0202820300007D0C02F209
:1004E300810100007E0C02F0810100008D0C02DA14
:1004F300810300008E0C02F2810100008F0C02F0D8
:10050300810100009F0C02DC810300009D0702F2C1
:1005130081010000A00C02F081010000B60C02DE94
:1005230081030000B70C02F281010000B90C01E85D
:1005330003053F100A7FFF00013075030201060027
:1005430000000000000000000000000000000000A8
:100553000000000000000000000000FFFF06008014
:100563000CE8030100B0423BAAB83F0000003F8CF7
:10057300906339AA0CA33A00941E3C8042633DCF9A
:10058300FE753E1572313F8096184BF304353F00DC
:100593000080BF0000803F1872313F2292D43EDDBD
:1005A3009B2A3F0400004000000000D85BDE3EFFB2
:1005B300FF7F7FFFFF7FFF010080341201225CB3C6
:1005C3000312012273B303120122A4B30312012203
:1005D300DFB30312012209B40312012233B403125D
:1005E30001224AB40312012261B40312012278B436
:1005F30003120122A1B403120122B4B40312012293
:10060300CAB403120122DDB40312012204B503129A
:100613000122F9F401120122FDF50112012235F63E
:100623000112012258F60112012263F6011201227E
:1006330086F60112012295F7011201226AF80112CE
:100643000122E5F8011201226DF901120122A8F934
:1006530001120122DFF9011201226DFA01120122B6
:1006630046FB01120122A6FB01120122B1FB01127A
:10067300012230FC0112012233FC0112012236FC5B
:1006830001120122C5FC01120122C8FC0112012240
:10069300F8FC0112012222FD0112012210FE0112B7
:1006A3000122C2FE01120122F0F30212012218F408
:1006B3000212012246F4021201227DF402120122E7
:1006C300DBF40212012226F50212012271F5021255
:1006D3000122B1F502120122F7F50212012225F6D9
:1006E30002120122E2F602120122ECF602120122A8
:1006F300F9F6021201222CF702120122F8F7021274
:10070300012204F8021201221CF80212012226F827
:1007130002120122BEBE03120122CCBE0312012229
:10072300E4BE03120122FCBE031201226DC90112B1
:10073300012219CA0112012294CA01120122B5CB66
:1007430001120122F1CB011201229ACC01120122E2
:1007530081CD01120122E5CE011201223CCF01120B
:100763000122BDCF01120122ADD001120122FAD024
:100773000112012280D101120122B2D10112012200
:10078300C6D30112012208D40112012226D4011278
:100793000122A9D4011201227DD50112012245D6DD
:1007A300011201220CDD02120122DFDD02120122FD
:1007B30088DE02120122DBDE021201228BDF02122B
:1007C300012217E00212012203E10212012232E1A7
:1007D3000212012245E2021201228DE202120122DB
:1007E30062E3021201229EE302120122BAE3021221
:1007F300012240C003120122D89403120122EE9475
:1008030003120122149503120122309603120122CE
:100813003A96031201226F9703120122679803127B
:100823000122C9EE02120122F9EF021201222CF079
:100833000212012276F0021201223DF2021201227B
:1008430046AA01120122B0AA011201220FAC011221
:1008530001221FAC011201224CAC01120122A3ACF4
:10086300011201224CAD0112012253AE01120122E9
:100873001DAF011201227DB001120122C0B001128D
:10088300012265B101120122B2B101120122D8B1D4
:1008930001120122E6B301120122EBB3011201227C
:1008A300F0B5011201223DB601120122B0B60112C8
:1008B3000122E3B60112012285B7011201222EB8EB
:1008C3000112012266B80112012269B80112012244
:1008D300B1B801120122F1B80112012248B9011283
:1008E300012220A80312012238A80312012280A8A2
:1008F3000312012296A803120122DDA8031201228A
:10090300F1A9031201227EAA03120122C9AA03122A
:100913000122D02F00120122DC2F001201221730F6
:10092300001201225C30001201221C31001201224C
:10093300A2310012012207320012012233320012C7
:1009430001226C3200120122AA34001201228E36D7
:1009530000120122743800120122B7390012012259
:10096300053C00120122173D00120122623E0012D3
:100973000122723F001201228F3F00120122CA3F5F
:1009830000120122EC3F001201224F40001201220B
:10099300104500120122A54500120122F64500125E
:1009A30001221D46001201226F46001201228D46CC
:1009B30000120122E74600120122D0470012012251
:1009C300464900120122CA4900120122ADF802125F
:1009D3000122B7F802120122FAF80212012215F9D4
:1009E30002120122A5F902120122CDF902120122FB
:1009F3000AFA0212012241FA021201226AFA0212CF
:100A03000122DFFA02120122F4FA0212012209FB87
:100A1300021201223AFB021201224EFB02120122B0
:100A230073FB02120122ADFB02120122D9FB021257
:100A330001225CFC02120122A5FC02120122CFFC5E
:100A430002120122FAFC02120122D1BA031201227C
:100A53009BB502120122C9B50212012217B7021275
:100A63000122F7B70212012216B80212012293B82B
:100A730002120122D6B8021201222CBA021201225A
:100A8300EDBA0212012274BD0212012215BE021236
:100A930001220BBF0212012208C00212012262C10D
:100AA30002120122EDC10212012258B803120122DF
:100AB300C1B80312012215B9031201223CB9031272
:100AC30001226DB9031201220080031201226D80FD
:100AD30003120122B48003120122CC8103120122EA
:100AE300C88203120122AB83031201221B77001277
:100AF30001225D77001201222F780012012208796A
:100B030000120122027A00120122E47A0012012269
:100B13004D7B00120122037C00120122777C00121C
:100B23000122E37C001201220C7D00120122867D4A
:100B3300001201221F7E00120122847E0012012274
:100B4300997E00120122DF7E00120122F87E00123C
:100B530001225D7F00120122607F0012012247A261
:100B6300031201226FA203120122ADA2031201227A
:100B73006BA303120122D2A303120122EEA30312D9
:100B8300012216A40312012246A40312012255A432
:100B930003120122D2A403120122F8A40312012298
:100BA30035BA0112012213BC0112012245BE011202
:100BB300012281BE01120122AEBE0112012298BFA1
:100BC30001120122E3BF011201222EC001120122F0
:100BD30040C00112012280C001120122B5C00112DE
:100BE300012203C10112012232C10112012255C1A6
:100BF30001120122A2C10112012227C20112012204
:100C030041C40112012280C601120122C1C6011290
:100C1300012263C801120122A4C80112012217C9CB
:100C230001120122A39B02120122A19C02120122A2
:100C33003AA3021201225BA50212012226A7021285
:100C430001228EA802120122314A00120122E04A37
:100C530000120122264B00120122664C00120122CF
:100C6300FC4D00120122764E00120122914E001219
:100C730001220C4F00120122665000120122C651BC
:100C830000120122CC52001201222D540012012223
:100C9300465400120122A45400120122925500125C
:100CA3000122C55500120122355600120122AF560A
:100CB30000120122F95600120122C3570012012229
:100CC300985800120122775900120122025A001289
:100CD3000122705A00120122E45A001201220F5B12
:100CE30000120122CE5B00120122335D00120122A9
:100CF300505D001201226F5D00120122605E00123E
:100D03000122855E00120122AF5E001201222A5FDA
:100D130000120122845F00120122ED600012012201
:100D23009B6100120122DC61001201220080021289
:100D330001224E80021201225A80021201223881BE
:100D4300021201226981021201229A8102120122F6
:100D53001A8202120122528202120122A482021278
:100D63000122E18202120122FE840212012224875F
:100D7300021201220F8902120122F98A02120122B0
:100D8300FD7F0012012233960112012263960112A4
:100D930001223C9D01120122C19E01120122BEA427
:100DA30001120122A6A501120122E3A501120122CB
:100DB30006A60112012237A60112012240A6011242
:100DC30001224AA60112012238A7011201222EA8EC
:100DD300011201220C62001201220B660012012291
:100DE3001166001201224C6D00120122657200127D
:100DF3000122EA9B03120122E49C03120122589D63
:100E030003120122969D031201220A9E031201225C
:100E1300839E031201228C9E03120122989E0312C9
:100E23000122AD9E03120122EB9E03120122019FB8
:100E3300031201226D84031201227A840312012218
:100E4300948403120122D384031201221185031215
:100E530001227685031201228B85031201229685D6
:100E630003120122A38503120122BA850312012270
:100E7300C88503120122D38503120122DF850312E1
:100E83000122EE8503120122F985031201221C8639
:100E930003120122C38603120122D3860312012205
:100EA300ED86031201220A87031201222687031209
:100EB30001224B87031201225687031201226B87FB
:100EC300031201227F8703120122E087031201220A
:100ED300E68703120122EC8703120122F287031231
:100EE30001220A88031201223D8803120122CFE660
:100EF3000112012253E70112012202E80112012229
:100F030061E90112012282EB011201226EEC01124E
:100F13000122A3EC01120122C5EC0112012274ED9E
:100F2300011201226CEF0112012295EF011201223D
:100F330027F00112012259F00112012266F0011279
:100F43000122BDF001120122E3F00112012250F34C
:100F53000112012253F401120122ABF40112012206
:100F63005ED80112012268D9011201224FDA01125F
:100F7300012259DA011201227BDA0112012287DAF6
:100F83000112012220DC011201224FDC0112012295
:100F93006BDD01120122C4DD011201222ADF0112DD
:100FA300012209E00112012265E001120122D2E0CF
:100FB300011201220DE1011201224CE10112012271
:100FC30005E4011201221FE401120122ABE4011224
:100FD3000122B9E40112012212E50112012220E5E6
:100FE3000112012293E501120122F7E50112012208
:100FF30041E6011201226EC20212012290C20212C4
:101003000122B6C402120122CBC702120122E3C895
:101013000212012296C90212012278CA0212012287
:1010230016B5031201223BB503120122ADB503121B
:10103300012292D5021201229BD502120122A4D5CC
:10104300021201227BD6021201222CD802120122A3
:1010530062D8021201229CD802120122D2D80212B3
:1010630001220CD90212012240D9021201226CD9A9
:1010730002120122B5D902120122EFD90212012272
:1010830038DA0212012290DA02120122C5DA0212C0
:10109300012220DB021201225ADB02120122ABDB06
:1010A30002120122E1DB021201221BDC02120122E5
:1010B30049DC021201226CDC0212012295BF0312E9
:1010C3000122C1BF031201221CC00312012226C048
:1010D3000312012236C003120122B8A80212012210
:1010E300E9AA0212012288AC0212012289AD02127E
:1010F300012293B10212012237B202120122AEB2CF
:101103000212012219B3021201227EB3021201223A
:101113004AB402120122B8B4021201222FE40212CD
:10112300012239E40212012277E402120122C0E40F
:1011330002120122FAE40212012250E502120122F4
:1011430071E5021201227AE502120122C5E50212BB
:101153000122EEE502120122F8E50212012264E601
:1011630002120122FAE60212012244E702120122CC
:1011730074E702120122FDE7021201223DE8021286
:10118300012275E80212012287E802120122A6E871
:1011930002120122AFE80212012275E902120122B2
:1011A300EEBC03120122FDC1031201226DB1031231
:1011B3000122A3B103120122D9B10312012222B3E6
:1011C3000312012232C10312012248C10312012278
:1011D30052C103120122BA8803120122CF880312DB
:1011E3000122828903120122C28903120122DB89AF
:1011F300031201220F8A031201225C8A03120122C5
:10120300908A03120122D28A03120122CE8C031286
:101213000122E5BD031201220EBE0312012237BED5
:101223000312012279BE03120122DB8C0312012275
:10123300208D03120122498D03120122E08D031236
:1012430001222E8E03120122238F03120122BF904B
:1012530003120122319F03120122769F03120122FE
:10126300A39F0312012203A0031201222EA0031243
:101273000122E0A0031201220EA20312012222FD89
:101283000212012247FD0212012271FD0212012204
:1012930030AD0312012275AD03120122D5AD031245
:1012A300012289AE0312012225AF031201229FE915
:1012B30002120122E4E9021201220DEA02120122C2
:1012C300DDEA0212012251EB0212012254EC021256
:1012D300012290EE02120122F8C2031201220982B6
:1012E300011201226D84011201221E8601120122C4
:1012F300208701120122A987011201222D880112E0
:1013030001225288011201228B8B01120122FF8BD1
:1013130001120122F08C011201222A8D01120122F5
:101323006A8D011201221D8F01120122708F011299
:101333000122B98F01120122279001120122599033
:1013430001120122719001120122869101120122E0
:10135300969101120122B19201120122D39201123C
:101363000122099301120122AD9401120122EC948E
:10137300011201220E960112012233FF01120122F2
:1013830044FF01120122E9FF01120122AFC203123D
:101393000122EEC203120122A4C303120122B9C324
:1013A30003120122C4C303120122CCC3031201227C
:1013B30027C403120122C4C003120122D4C00312A2
:1013C3000122E6C0031201222FC103120122EABB4C
:1013D300031201226FBC03120122D5BC03120122A6
:1013E300FA7F0012012271980312012285980312D9
:1013F3000122FE9803120122D39903120122A59B15
:1014030003120122BBB6031201220BB703120122FE
:1014130094B703120122FAB703120122F3AA0312AB
:1014230001221DAB03120122E3AB03120122BEAC66
:10143300031201229CCD0212012259CE0212012273
:1014430094CE02120122BCCE021201221ECF02123E
:1014530001226ACF02120122CACF021201225DD0F9
:10146300021201225CD102120122EBD202120122EA
:101473006ED302120122D5D302120122ECD302123F
:101483000122F6D40212012234D502120122D48D94
:1014930002120122349102120122BC920212012291
:1014A300139302120122329302120122B093021209
:1014B3000122409502120122249602120122309A3F
:1014C30002120122009B021201223FC303120122D6
:1014D300EBC30312012240A503120122B3B9031285
:1014E30001229CC1031201225EAF03120122847FF9
:1014F3000012012278C303120122F8900312012281
:1015030009C403E066701008A3E066700A08A3E04C
:1015130066700408A3E06622C3E7960809E7960805
:1015230009E7960809E79622C3E09608A3E0960820
:10153300A3E09608A3E09622C008C3E096F5080846
:10154300A3E096420808A3E096420808A3E0964564
:10155300087001D3D00822080808E630E711121EEC
:1015630014121572080808C64480C61818182218E1
:101573001818E9799EC608CAC608CBC608CCC6C3E4
:1015830070207996CACBCC7019798ECBCC70137935
:1015930086CC700EF9802ACA33CACB33CBCC33CC7A
:1015A300331930E7F2CCCBCA3350147004EA30E07D
:1015B3000DE4CA3ACACB3BCBCC3CCC500209C3E9BD
:1015C30013C6CC182313C6CB18C6CA18C6F92212E1
:1015D300161220F01430E72B74FFFCFBFA747F80A3
:1015E30022E4FCFBFA7480801AB48008BC00F2BBCE
:1015F30000EF800F50EBF9E4C39AFAE49BFBE49C01
:10160300FCE499C6CC18C6CB18C6CA18C6F922E49E
:10161300C9C608CAC608CBC6D3330308CCC633929F
:10162300F0C3947F402E94184019C9B90704CACB5C
:10163300CC225025C309CA33CACB33CBCC33CC33EA
:10164300D9F422F4600DC9CCC313CB13CBCA13CA8C
:10165300D9F6CC22E4FCFBFA2214FCFBFA22E626A0
:1016630018461846184622E72719471947194722EB
:10167300181818E60846087009E626087005E633C8
:10168300F4220822191919E70947097009E72709FC
:101693007005E733F4220922E6084608C313460817
:1016A300336002E633F422E7094709C313470933DA
:1016B3006002E733F42212169B60251216AA6020FB
:1016C300121661700302166A080808E7667010189C
:1016D30019E766700A1819E76670041819E7662295
:1016E300F42212169B601C1216AA60171216617060
:1016F3000712166A7001D322C0D012166A7006D080
:10170300D0B322C32233D0D0501430E0F6C3E796CF
:101713000809E7960809E7960809E796B32220E047
:10172300D5E6970809E6970809E6970809E697B307
:101733002212169B601B1216AA60161216617007FE
:1017430012166A600CB322C0D012166A7005D0D08C
:1017530022C32233D0D0501330E0EBC3E7960809FD
:10176300E7960809E7960809E7962220E0E4E6975A
:101773000809E6970809E6970809E6972200121672
:101783009B604F1216AA6012E7548066F612167316
:10179300701112166A703B090909F4F618F618F667
:1017A30018F622121687701512166108080860EAE7
:1017B300E6447FF618768018E4F618F622121661CE
:1017C300601612166A7012E4F608F608F608E65474
:1017D30080F609090918181822EAC0E0EBC0E0EC0A
:1017E300C0E0EDC0E0E687F0A4FBACF008E687F0CC
:1017F300A42CFCE435F0FA1809E687F0A42C4B601E
:10180300027401CA35F0FCE433FB09E687F0D2F732
:10181300A42CCB35F0FC1908E687F0A42BCC35F0CB
:10182300FBE433FD0819E687F0D2E7A42C4ACB3555
:10183300F0CD3400FC09E687F0D2E7A42DCC35F0D7
:10184300FDE433FA0918E687F0D2F7A42CCD35F07E
:10185300CA3400FC08E687F0D2E7D2F7A42ACC35D5
:10186300F07A7E20E70B0ACB33CBCD33CDCC33CC10
:1018730033CB3350147004ED30E00ED2F1E4CD3DA0
:10188300CDCC3CCC3B5005DA05C2F1EB547FC633DB
:1018930008E63392F0FBE73309E733C39A502D2B65
:1018A30070190C0D4C4D70151806E608C333700DF6
:1018B30020F10AA2F013F6E418800B4024E4F6307A
:1018C300F002768018F618F618F68024D33B1450ED
:1018D3001074FFA2F013F6187680E418F618F68059
:1018E3000FA2F013F618E63303F618ECF618EDF62C
:1018F300D0E0FDD0E0FCD0E0FBD0E0FA221216AA43
:10190300604612169B603DE9687008F618F618F6F3
:1019130018F622748067F71219340909097480676D
:10192300F72212169B601D1216AA70051919198049
:101933001A121673701F121687C37003E6673319E2
:10194300191940071818182208080874FFF618F622
:1019530018F618F622121687601712166A7021926B
:10196300F01216617019501720F0140808080909BD
:1019730009E7F61819E7F61819E7F61819E7F62232
:1019830012166160E6E869701F0808E62480F6080D
:10199300E436F618547FB47F0CE654806007F6E40F
:1019A30018F618F622181822E9C6CC08C6CD08C6C0
:1019B300CE08C6CFC0E0E8C0E0EAC0E0EBC0E00973
:1019C300E9F809E7FA09E7FBE6F918E6F8C3EC9842
:1019D300ED99EE9AEBC2E7F5F0EFC2E795F0500E02
:1019E300600CEBCFFBEACEFAE9CDF9E8CCF8EAA23A
:1019F300E7D2E7FAEB33FB13F5F0EEA2E7D2E7FE0B
:101A0300EF33FFC5F013A2E730E601B313C5F0C30C
:101A1300C0E0C0F07F00C39BFB605E9418600F4082
:101A23001D14601AD0E023F9D0E0F8021B068AF0F7
:101A3300E9486003D2F0E4AFF0FAF9F8803BEB3009
:101A4300E40D89F0EA6003D2F0E4AFF0F9CAF8EBF1
:101A530030E30D88F0EF6002D2F0AFF0E4CAC9F8CA
:101A6300EB54076014FBC3EA13FAE913F9E813F81C
:101A7300EF135002D2E0FFDBEDD0E0C0E030E739F6
:101A8300C3E49FFFF5F0EC98FC42F0ED99FD42F0C2
:101A9300EE9AFE42F0D0E0F9D0E0F8E5F0607AE9A2
:101AA30023F9EE20E742D8028067C3EF33FFEC331C
:101AB300FCED33FDEE33FE80EAEC28FCED39FDEE60
:101AC3003AFED0E023F9D0E0F84002801BC3EE13C6
:101AD300FEED13FDEC13FCEF135002D2E0FF08B848
:101AE30000067F7F74FF802EEF3350178CF020F0B9
:101AF3000260100CBC000C0DBD00080EBE000408F3
:101B0300E860DFE933E813FFEE2313FE4F4D4C800B
:101B130008E95480FFE4FEFDFCEE33EF33F4700478
:101B2300FCFD7E80D0E0FBD0E0FAD0E0F8D0E0CF3F
:101B3300C618CEC618CDC618CCC6F92212169B708D
:101B430004181818221216AA700D74FFF61819F645
:101B53001819F61819F622E7548066F61216617002
:101B63000F12166A70F014F608F608F608F680D11C
:101B730012166A700CF608F608768008E6447F8031
:101B8300EC12168A700C12167660BFE65480F6E4E7
:101B930080BB121676700519191980A5E869700CB7
:101BA300763F18768018F618F6E8F922E6CDC0E0FD
:101BB30018ECC0E0E633CD33CDD313F6E719FCE7D9
:101BC300191933CC33C3947F400ECD9D502408E6BE
:101BD3005480F6E418F6800FF4043D14501408E61C
:101BE300447FF6187680E418F618F6D0E0FCD0E0CF
:101BF300FD22CCD313CCFD18E4C6CBC0E018E4C659
:101C0300CAC0E00808ED08C633E613F618E433C685
:101C130075F003C3CA97CA09CB97CB199C40047DBF
:101C230008802EBD0003021CE816B6FF0506060851
:101C33001618C3CA33CACB33CB33CA27CA09CB3727
:101C4300CB193CC37D08803E187D0820E75CC63372
:101C5300C6CA33CACB33CB33DDF1D5F0EB30E77BE8
:101C6300CA97CA09CB974ACB199C406F4B7025E69C
:101C730020E0218066187D08C3CA97CA09CB97CB99
:101C8300199CD3C633C6CA33CACB33CB3350C9DD51
:101C9300E7D5F0E1D3E4C636C608C636C608C6366D
:101CA300C608C636C61818188031C3CA97CA09CBE6
:101CB30097CB199CB34097C633C6CA33CACB33CB31
:101CC30033DD34D5F02EC6A2E0C640C8CA27CA0900
:101CD300CB37194A70BECB3CB480B90808E6330849
:101CE300E633601F181818D0E0FAD0E0FBD0E0FC10
:101CF300D0E0FD22187D08CA27CA09CB37CB193C8F
:101D0300D3808013F618E4B67F11F618B6FF0EF6EB
:101D130018C60470D20808768080CAF618F618F63A
:101D230080C5080808EAC0E0EBC0E086F0E7A4FA43
:101D3300180986F0E7A42AFA180986F0E7A42AFA14
:101D4300180986F0E7A42AFA1986F0E7A4FBE5F060
:101D53002AFA190886F0E7A42BFBE5F03AFA1908EA
:101D630086F0E7A42BFBE5F03AFA18180986F0E7AA
:101D7300A4C5F02BFBE43AFA1908E7C5F0C6A4267C
:101D8300F6E5F03BFBE43AFA1886F0E7A4F6E5F053
:101D93000826F6E43B08F6E43A08F6D0E0FBD0E088
:101DA300FA22E4CFC0E0E4CEC0E0E4CDC0E0E4CC6E
:101DB300C0E075F020E626F608E633F608E633F6CB
:101DC30008E633F6181818EC33FCED33FDEE33FE5A
:101DD300EF33FFC3EC9709ED9709EE9709EF9719D6
:101DE3001919400FFFEC97FC09ED97FD09EE97FEDB
:101DF300191906D5F0BFECF709EDF709EEF709EF6E
:101E0300F7191919D0E0FCD0E0FDD0E0FED0E0FFD7
:101E130022181818E4C396F608E496F608E496F632
:101E230008E496F6226016080808C6C313C618C647
:101E330013C618C613C618C613C6D5E0EA2270091E
:101E4300080808226016181818C6C333C608C63314
:101E5300C608C633C608C633C6D5E0EA22E627F667
:101E63000809E637F60809E637F60809E637F622E1
:101E7300E026F608A3E036F608A3E036F608A3E06A
:101E830036F622E026F008A3E036F008A3E036F0A9
:101E930008A3E036F022C3E697F60809E697F608AA
:101EA30009E697F60809E697F622C3E096F008A339
:101EB300E096F008A3E096F008A3E096F022E65738
:101EC300F60809E657F60809E657F60809E657F64D
:101ED30022E056F608A3E056F608A3E056F608A358
:101EE300E056F622E056F008A3E056F008A3E056C9
:101EF300F008A3E056F022E0F608A3E0F608A3E01A
:101F0300F608A3E0F622E6F008A3E6F008A3E6F05D
:101F130008A3E6F022E0FAA3E0FBA3E0FCA3E0FDC4
:101F230022EAF0A3EBF0A3ECF0A3EDF022E0F8A398
:101F3300E0F9A3E0FAA3E0FB22E8F0A3E9F0A3EAC7
:101F4300F0A3EBF022CAC0E0E6F0A308DAFAD0E08F
:101F5300FA22CAC0E0E0A3C582CCC582C583CDC541
:101F630083F0A3C582CCC582C583CDC583DAE6D011
:101F7300E0CA22C3E498F8E499F9121FB78026C394
:101F8300E49AFAE49BFBE920E7E9121FB7E498F827
:101F9300E499F922C3E498F8E499F9121FB7E49895
:101FA300F8E499F9C3E49AFAE49BFB22EB20E7CF28
:101FB300E920E7E0B90010BB0008E88AF084F8AA3A
:101FC300F022E4FBC8FA22EB70227B10C833C8C9A5
:101FD30033C9335007C39AC3DBF280069A50012AF0
:101FE300DBEAC833F4C8C933F4C9FA2275F008E44C
:101FF300C833C8C933C933C99AC99B5004C92AC94C
:102003003BD5F0ECFBC833F4C8E4C9FA22600D08F1
:10201300C6A2E713C618C613C6D5E0F322600C08A0
:10202300C6C313C618C613C6D5E0F42270042260D3
:102033000D18C6C333C608C633C6D5E0F418222527
:102043001810AF08F518400C15198008F518400250
:102053001519D2AF2200C0D0251810AF08F51850BB
:102063000C05198008F51850020519D2AFD0D022FB
:102073002518F58210AF08F518400C15198008F5DE
:102083001840021519D2AF851983222518F582E469
:102093003519F583222518F8E43519F9222518FA9C
:1020A300E43519FB222518FCE43519FD22E47325D8
:1020B30018C582C0E0E51934FFC583C0E0E518C345
:1020C300958224F810AF08858319858218800885C6
:1020D3008319858218D2AFCEF0A3E520F0A3780848
:1020E300E608F0A3DEFAEFF0A3E58124FAF8E608A8
:1020F300F0A3E608F0A3E608F0A30808E608F0A3B7
:10210300E608F0A315811581D0E0FED0E0F8158133
:1021130015811581E8C0E0EEC0E0222518C582C014
:10212300E0E51934FFC583C0E0E518C3958224F9BF
:1021330010AF0885831985821880088583198582E5
:1021430018D2AFCEF0A3E520F0A37808E608F0A3F9
:10215300DEFAEFF0A3E58124FBF8E608F0A3E60836
:10216300F0A30808E608F0A3E608F0A3158115819B
:10217300D0E0FED0E0F815811581E8C0E0EEC0E0C4
:1021830022851983851882E0A3FEE0A3F520780851
:10219300E0A3F608DFFAE0A3FFE0A3C0E0E0A3C0FA
:1021A300E0E0A3C0E0E0A3C0E0E0A3C0E010AF081C
:1021B3008582188583198008858218858319D2AF93
:1021C300D083D08202011F851983851882E0A3FE84
:1021D300E0A3F5207808E0A3F608DFFAE0A3FFE028
:1021E300A3C0E0E0A3C0E0E0A3C0E0E0A3C0E01030
:1021F300AF0885821885831980088582188583191D
:10220300D2AFD083D08222C0D02518C582C0E0E5EA
:102213001934FFC583C0E0E518C3958224F310AFDA
:10222300088583198582188008858319858218D2C9
:10223300AFC8F0A3E9F0A3EAF0A3EBF0A37908E7B2
:1022430009F0A3D8FAECF0A3EDF0A3EEF0A3EFF0BE
:10225300A3D0E0F0A3D0E0F0A3D0E0F0A3E520F01A
:10226300A3E5F0F0A322851983851882E0C0E0A3DB
:10227300E0F9A3E0FAA3E0FBA37808E0F608A3DF04
:10228300FAE0FCA3E0FDA3E0FEA3E0FFA3E0C0E0CF
:10229300A3E0C0E0A3E0F5D0A3E0F520A3E0A3F51D
:1022A300F010AF0885831985821880088583198506
:1022B3008218D2AFD082D083D0E0F8D0E032740459
:1022C3008006740280027401C0E0F404122073D00B
:1022D300E0121F48227404800474028000CCC0E022
:1022E300EDC0E0E518C39CCCAD1950011D10AF063D
:1022F3008C188D1980068C188D19D2AF121F55D0EA
:10230300E0FDD0E0FC22D083D082E9C0E0E493A3D7
:10231300C386F0C5F095F0F908E493A386F0C5F001
:1023230095F0700BE493A3C3994005E9048002A3DD
:10233300E475F002A42582F582E5F03583F583D0B8
:10234300E0F9E493A3C0E0E493C0E022D083D08219
:10235300ECC0E0EDC0E0E493A3FCE493A3FDED4CFB
:10236300600D12239BEC24FFFCED34FFFD80EFE4B2
:1023730093A3FCE493A3FDED4C600D1223DAEC244C
:10238300FFFCED34FFFD80EFD0E0FDD0E0FCE493F3
:10239300A3C0E0E493C0E022C0E0C3E493960874D2
:1023A30001939618400FE4936670080874019366CE
:1023B3001870007019A3A3C3E4939608740193964D
:1023C30018A3A3400DD0E0D0E0D0E002238BA3A359
:1023D300A3A3A3A3D0E022C0E0C0F088F0E49366F7
:1023E30070080874019366187000A8F0A3A3700B1B
:1023F300D0F0D0E0D0E0D0E002238BA3A3D0F0D084
:02240300E022D5
:1024080074F512211EEAFEEBFFEE2434F8EF3400D7
:10241800F988088909EE2435F582EF3400F583E060
:10242800F8EE2437F582EF3400F583E0F50AEC8501
:102438000AF0A4FCAAF0850AF0EDA42AFDE82CF81D
:10244800E43DF97A257B00121FB7EA8508828509E1
:1024580083F0F8740758F97401B900028004C33393
:10246800D9FCFAE8131313541FF8EE28F8EF3400D8
:10247800F9E8245DF582E93400F583E05A6008EE56
:102488002434F582EF802CEE2434F582EF3400F505
:1024980083E0C0E0EE2436F582EF3400F583E0F502
:1024A800F0D0E084A8F0EE28F8EF3400F9E82438FA
:1024B800F582E93400F583E0F97F040221CA74F556
:1024C80012211EEAFEEBFFEE2434F582EF3400F50C
:1024D80083E0C0E0EE2435F582EF3400F583D0E0E8
:1024E800F08E828F83A3A3A3A3A3A3A3C082C083D8
:1024F8008E828F83A3A3A3A3A3E0F8A3E0F9D083DC
:10250800D082E0C398F508A3E099F509EE247FF599
:1025180082EF3400F583E064017069EE2480F5826F
:10252800EF3400F583E0F8A3E0F98E828F83A3A34C
:10253800A3A3A3A3A3E0FCA3E0FD8E828F83A3A3A0
:10254800A3A3A3E0FAA3E0FBC3EA9CEB9D5010C34E
:10255800EC98ED99402EC3EA98EB995027800EC36A
:10256800EA98EB994007C3EC98ED9940177CDC7D1D
:1025780004EEFAEFFB120CDEEE247FF582EF340056
:10258800F583E4F0EE2434F8EF3400F9E8FCE9FDD3
:10259800EE2435F582EF3400F583E0F8EE2437F5C4
:1025A80082EF3400F583E0F50AE508850AF0A4F522
:1025B80008AAF0850AF0E509A42AF509E82508F82B
:1025C800E43509F97A257B00121FB7EA8C828D83DE
:1025D800F0F8740758F97401B900028004C333D9BC
:1025E800FCFAE8131313541FF8EE28F8EF3400F937
:1025F800E8245DF582E93400F583E05A6008EE24AA
:1026080034F582EF802CEE2434F582EF3400F58324
:10261800E0C0E0EE2436F582EF3400F583E0F5F013
:10262800D0E084A8F0EE28F8EF3400F9E82438F573
:1026380082E93400F583E0F9122F1D0224C1C0821B
:10264800C083851882851983E0F8A3E0F9C3EA9C62
:10265800EB9D5010C3EC98ED99401BC3EA98EB9999
:102668005014800EC3EA98EB994007C3EC98ED9993
:102678004004790180027900D083D08222EAC39C89
:10268800FAEB9DFB2274EF12211E9003A2E064086E
:102698006005E06407702A9061C8E060249003D068
:1026A800E0F4601DE0F875F003A4C8AAF02AF974F4
:1026B800D228FE740339FF8E828F83A3A3A3E07010
:1026C800030227BD906060E0C0E0EE2468F582EF69
:1026D8003400F583D0E0F0750C45750D05750800DC
:1026E800750900E5D914F50AE5D95403F50E601704
:1026F8007403650E605CE50A6010EE2467F582EFEE
:102708003400F583E070030227A2900540E06401DD
:10271800602AEE2482F582EF3400F583E0600478C5
:102728000480027800850A08E508C398FA95E0FB5A
:10273800120BB28A088B09EA45097005120ED0807F
:1027480074EE2482F582EF3400F583E070048A0C7D
:102758008B0DE50A6012850C82850D83F50BE5D992
:10276800F0A3150BE50B70F6EE2482F582EF34002A
:10277800F583E0604474FC250AF50A780C1222C53A
:10278800AC0AA90EEEFAEFFB120D7A740212205869
:10279800E97026AA08AB0912140A793D8E828F8344
:1027A800A3A3A3A3E0FA7B00120A86EEFAEFFB12BA
:1027B8000CF6120D8C790080747403650E605685D2
:1027C8000A1075110078101222C5AC0CAD0DAA08BC
:1027D800AB09120D567402122058EE2468F582EFE8
:1027E8003400F583E064807004747F8001E0F50CA8
:1027F800780C1222C9E50EF50C780C1222C9A90A28
:10280800AC08AD099003D0E0FA7B00120A4A7402C2
:1028180012205880139003A2E06408600BAC0CAD42
:102828000DEEFAEFFB120DE6120EDC79017F0A02BB
:1028380021CA74F512211E74FC122042EAFEEBFF35
:102848008908A2AFE433F509C2AF806AEE2463F8C1
:10285800EF3400F97A007B00A2AFE433F50AC2AF87
:1028680088828983E0FCA3E0FDEC4D603A88828988
:1028780083E0FAA3E0FB8A828B83E0FCA3E0FD8877
:10288800828983ECF0A3EDF08A828B83E4F0A3F0D5
:1028980088828983E0FCA3E0FDEC4D700A88828978
:1028A80083A3A3E4F0A3F0E50AA2E092AF12140A0E
:1028B8009004E3E004F0EE2463F582EF3400F5833E
:1028C800E0F8A3E0F9E849603DEE2463F582EF34CF
:1028D80000F583E02402FAA3E03400FBEA2402F5C1
:1028E8000AEB3400F50B780A1222C58A828B83E042
:1028F800FCA3E0F9EEFAEFFB120D1A74021220584D
:10290800E970030228549004E3E060639004E4E073
:10291800F89004E3E0C398500C7402650870509076
:1029280004E5E0604A8E828F83A3A3A3A3E0851801
:1029380082851983F0A3E4F09004E3E0F8740212AE
:10294800208EE8F0A3E4F09004E3E0F89004E2E0DD
:1029580028F0740212208EAC82AD83851882851906
:1029680083AA82AB837901120A569004E3E4F0E566
:1029780009A2E092AF74041220580224C10000009A
:102988008521878522C622C0E0C0D0E8C0E0E9C022
:10299800E0EAC0E0EBC0E0ECC0E0EDC0E0EEC0E093
:1029A800C008C009C00AC00BC082C083C0F0A2AF73
:1029B800E433FEC2AF759B00906182E0A2E0501242
:1029C800E591A2E0500C7591FE7401652170031227
:1029D800268DE0A2E55051E591A2E5504B7591DFB7
:1029E8009003A2E064076005E06408702374016541
:1029F80021703579019003D0E0FA75F003A4CAA8D4
:102A0800F028FB74D22AFA74033BFB12283A801888
:102A1800E0640D70139003C4E004F064287002E4CD
:102A2800F07A00E0F9120EE2906182E0A2E640033B
:102A3800022AD6E591A2E64003022AD67591BF90F4
:102A480003A2E064057008120E10120E1C80031217
:102A58000E16752100120E70E99003A3F07900128A
:102A68000E64120C547A017B009003A1E0F9121154
:102A780076907803E064427055900544E014F07055
:102A88004DC2AF122A8E00782AD0E0F618D0E0F6B0
:102A9800E59F540770057509FF800375097FC4C059
:102AA800E07829E6F50808E65509F509740B780871
:102AB800122020D0E02508F8906270E0A2E740F8E4
:102AC800E8C333906272F0906270E0D2E0F09061F7
:102AD80081E0A2E35009E5E9A2E3500375E9F7A311
:102AE800E0A2E75009E591A2E7500375917FEEA2B5
:102AF800E092AFD0F0D083D082D00BD00AD009D0EA
:102B080008D0E0FED0E0FDD0E0FCD0E0FBD0E0FA59
:102B1800D0E0F9D0E0F8D0D0D0E032C0E0C0D0C0EA
:102B280082C083906183E0A2E05009E5BFA2E05033
:102B38000375BFFEE0A2E15009E5BFA2E1500375AD
:102B4800BFFDE0A2E25009E5BFA2E2500375BFFB5A
:102B5800E0A2E35009E5BFA2E3500375BFF7E0A286
:102B6800E45009E5BFA2E4500375BFEFE0A2E550C9
:102B780009E5BFA2E5500375BFDFE0A2E65009E50D
:102B8800BFA2E6500375BFBFD083D0828088C0E063
:102B9800C0D0E8C0E0E9C0E0EAC0E0EBC0E0ECC0CB
:102BA800E0EDC0E0C0F0E5A7A2E6500FE5A1A2E67F
:102BB800500953A7BF75A1BF122BFBE5A7A2E5508B
:102BC8000CE5A1A2E5500653A7DF75A1DFE5A7A292
:102BD800E15009E5A1A2E1500375A1FDE5A7A2E234
:102BE800500CE5A1A2E2500653A7FB75A1FBD0F05B
:102BF800022B0C74F812211E7521019003A2E064C7
:102C0800067015120DAA8A828B83A3A3A3A3A3A37C
:102C1800E0FAA3E0FB120DFEA2AFE433FED2AF90C0
:102C280003A8E0640170187A207B009003A1E0F902
:102C38001211FA7A207B009003A1E0F912117C901E
:102C48006182E0D2E6F0900541E0602185C62280ED
:102C5800169003A7E064017008E5C654F84405F52A
:102C6800C653BEFC1229887401652160E4EEA2E017
:102C780092AF7F010221CA008E238F248582288586
:102C88008327851882851983E0CEA3E0CF85288223
:102C9800852783EBC9EAC8EDCBECCA75F010C3E809
:102CA80033C8E933C9EA33CAEB33CBC3EA9EF52606
:102CB800EB9FF525B35004AB25AA26EC33CCED33B6
:102CC800CDD5F0DAAE23AF242274ED12211E8A0886
:102CD8008B098C0A8D0B741312208E780C121EFA35
:102CE8007808790C12151B7510017511C87512003A
:102CF80075130050127808790C121E99781079080B
:102D080012151B50168010780C7908121E9978102D
:102D1800790C12151B40047901800279007F0C029E
:102D280021CA74ED12211E8A088B098C0A8D0B7436
:102D38001312208E780C121EFA780C790812151BC3
:102D480040117808790C121E99AA08AB09AC0AAD93
:102D58000B8022751000751100751200751301782B
:102D680010790C121E9978107908121E60AA10ABFF
:102D780011AC12AD1380A68A828B837508FF750982
:102D8800FF750AFF750B007808121EE77F04022101
:102D9800CA74F512211E8C828D837808121EFA8A55
:102DA800828B837808121EADEA2404F8EB3400F90C
:102DB8008C828D83A3A3A3A3E0FCA3E0FD88828972
:102DC80083C3E09CF0A3E09DF088828983C3E094EC
:102DD80020A3E0944E40268A828B837508FF7509EC
:102DE800FF750AFF750BFF7808121E868A828B838F
:102DF800A3A3A3A3E02420F0A3E0344EF0022D7F88
:102E080074F512211EE9FE9004F7E0FAA3E0FBEE48
:102E1800C333F8E433F974A228F582748039F58352
:102E2800E02AF508A3E03BF50978081222C57A40A4
:102E38007B427C0F7D00122C8074021220588A0875
:102E48008B098C0A8D0B74107808121E28AA08ABFF
:102E5800097F040221CA74F112211E8A0C8B0D8C81
:102E68000E8D0F740F12208EE0FAA3E0FB7411127E
:102E7800208EE0F508A3E0F50978081222C5EA24B7
:102E880001F508EB3400F509E4F50AF50B780C793F
:102E980008121D25750871750902780C7908121D2C
:102EA80025AA0CAB0DAC0EAD0F122C8074021220AB
:102EB800588B09EA450960047A0180027A00EC2AF5
:102EC800FCED3400FD741312208EE0F8A3E0F9E85D
:102ED800FEE9FFECF8EDF97A717B02121FB788085A
:102EE80089098E828F837808121F09ECF8EDF97A28
:102EF800717B02121FB78A088B09740578081220A3
:102F08002F8E828F83A3A3A3A3E508F0A3E509F07E
:102F18007F080221CAC082C083E9906000F0D08394
:102F2800D08222C2AF02000022C0E074F212220A4C
:102F380074FA122042A2AFE433FED2AF9081AF748C
:102F4800031220A87403121F559080EDAC18AD1918
:102F58007403121F55E589A2E7502EE58CA2E050B4
:102F680012538CFEAC18AD197A0379001212967AB6
:102F7800008011438C0174031220A87A037900128F
:102F880012967A0179021213EC758900C2C5EEA275
:102F9800E092AF74061220587F01022269C0E0C097
:102FA800D0E8C0E0E9C0E0E5A8D2AFC2C7A2E7A276
:0E2FB800E792AFD0E0F9D0E0F8D0D0D0E03210
:102FC800FFFFFFFFFFFFFFFFC082C083E9900A19E0
:102FD800F002325F74F71220B2E99002E1F07C1936
:102FE8007D037AFF7BFF1209A29002E274FFF0A32F
:102FF800F0A3E4F0A3F0790512092A9002E1E0F9C0
:1030080012084C7AC07B09120B647F010221847478
:10301800F41220B28A088B09EB548060309002E1E8
:10302800E0F912115E8A0A8B0BAE0AAF0BEE4F6005
:10303800138E828F83E064B07003120942EEFAEFB8
:10304800FB12114CAA08E5096480FB80047A007B16
:103058000002322E74F21220B274FC122042EAFEF0
:10306800EBFFEE4F6038740212208EEEF0A3EF12E1
:103078003493ECF0A3ED123493AA82AB8312084682
:10308800E9F5087073741212208E124047E50A455C
:103098000B60658E828F8312310AEE4F70057508BA
:1030A8000280557A067B001211B88A0C8B0DA80C89
:1030B800A90DE8497005750813803D88828983E465
:1030C800123114A3A3EEF0A3EF1244E0E50AF0A333
:1030D800E50BF09002E712319C9002E76017E0FCE4
:1030E800A3E08003EAFCEBFD8C828D8312319C7097
:1030F800F38C828D83123F6CA90874041220580245
:1031080046E2A3A3A3A3E0FEA3E0FF22F0A3F08876
:103118008289832274F21220B2890AE975F017A411
:10312800FEAFF09002E6E4F09002E412319C600AEF
:103138001211BE9002E4E4F0A3F0EEFAEFFB1211D4
:10314800B88A088B09EA4509602FEEFCEFFD790083
:1031580012113A9002E4E508F0A3E509F07B00803B
:1031680008123186E4F0A3F00BEBC3950A40F2E5B0
:103178000A9002E6F07900800279130246E2EB75C4
:10318800F017A4F8A9F09002E4E028FAA3E0398A3D
:1031980082F58322123D02EA4B2274F41220B275A2
:1031A8000800750900740C12208E1244B4FEE9FF61
:1031B800800CE5082401F508E5093400F509C3E5A4
:1031C800089CE5099D503285080A85090B74037827
:1031D8000A12202FEA250AF8EB350BF98882898331
:1031E800A3A3A3A3A3A3124047EE650A7003EF6548
:1031F8000B70BFE8FAE9FB80047A007B0080277433
:10320800F41220B27900EAA2E0501B75083C750957
:103218008178081222C57C047D007A1B7B0A12097A
:103228002474021220587F04022184C082C0839033
:1032380002E7123266601C88828983A3A3E06A7061
:1032480003A3E06B8882898370E8A3A3A3A3123C3D
:10325800FE80047A007B00D083D08202011F1247CF
:10326800B5E8492274EE1220B274FC122042EAFE3C
:10327800EBFF851882851983E4F0A3F0EE2402128F
:103288003F50EE2405123481EE2404F50EEF123877
:1032980066E024FE603924FC604624FE605224FE69
:1032A800605E24FE700302338624FE70030233FE40
:1032B80024FE700302340D24FE700302341C24FC27
:1032C800700302342B24FE700302343A02347790E0
:1032D80003007417F0A3E412349B1205C402347778
:1032E800851882851983AC82AD8312094802344758
:1032F800851882851983AC82AD8312094E02344742
:10330800850C08850D09740212208EAC82AD838568
:103318000882850983123CFE12086A8A0C8B0DAC60
:103328000CAD0DEC4D6042E4F50CF50D780C122255
:10333800C5750C00750D03780C1222C5750C017546
:103348000D03780C1222C5740812208E1222DC7923
:1033580016123CF812098A7408122058E9F50C7004
:103368000B123CF41205DC800F750C018508828570
:103378000983123489123F6C850C0802344A74029E
:1033880012208EAC82AD83850C82850D83123CFEA3
:1033980012086A8A108B11AC10AD11EC4D60438590
:1033A8000C82850D83A3A31222DC7510007511030E
:1033B80078101222C575100175110378101222C5F4
:1033C800740812208E1222DC7916123CF812098A2F
:1033D8007408122058E9F509700B123CF41205E242
:1033E800800F750901850C82850D83123489123F7F
:1033F8006C850908804C851882851983AC82AD8359
:10340800120954803A851882851983AC82AD8312DB
:10341800095A802B851882851983AC82AD831209DD
:1034280060801C851882851983AC82AD8312096679
:10343800800D851882851983AC82AD8312096CE9E9
:10344800F508E50860298E828F83A3E06414601F65
:10345800850E82850F83E09003001234931247B1E2
:10346800900301123F6CE508A312349B1205BEEECF
:10347800FAEFFB1208E8023E58F50CEF3400F50DA0
:10348800221247B585188285198322F0851882850E
:10349800198322F07C007D03850A82850B83123D07
:1034A800022274EE1220B274FC1220428A0A8B0B9C
:1034B8008C0E8D0FEA2405F508EB3400F5097C1510
:1034C8007D0079007A007B0312113AE5082402F5A1
:1034D8000CE5091234848518828519838582108544
:1034E800831178101222C5850882850983A3A3A3B6
:1034F800A31239AE1222C5E5082405F510E50934F2
:1035080000F51178101222C5850C82850D83123DB5
:103518000812086474061220588A108B11AE10AF76
:1035280011E50A2402F50AE50B123F53EE4F70032A
:103538000236708017740212208E123CFE8882892F
:1035480083EAF0A3EBF0900300E004F0900300E0BE
:10355800C394054003023670E4F510F51178101293
:1035680022C57510E975110278101222C57510EA86
:1035780075110278101222C5740612208E1222DCF0
:103588007910EEFCEFFD123CF812098A740812203B
:1035980058E9705E850882850983A3A3A3A3A3A322
:1035A800A3E0F89002E9E06870481239AE1222C52B
:1035B8007CEA7D02E5082408FAE5093400FB1211CB
:1035C800347402122058E960298E828F83A3A3A342
:1035D800A3123CFE900300E0F5107402781012204C
:1035E8002F74012510F58274033511F583EAF0A3D1
:1035F800EBF0740212208E858210858311781012E8
:1036080022C5740212208E1222DC850C82850D835D
:103618001247C612087074041220588A108B11AE13
:1036280010AF11900300E0F51075110074027810C6
:1036380012202F74002510F874033511F988828937
:1036480083A312319C7003023534E82403F8E9346B
:1036580000F9EE4F600302353D8882898374FFF0DC
:10366800A3F0900300E004F0900300E0600A123C2D
:10367800F41205D07900800B850882850983123FF2
:1036880063790A023E5874EA1220B274FE1220428C
:103698008C128D13EA2405F50CEB12493012310E09
:1036A800750800750900EA2402F510EB3400F511DD
:1036B80085188285198385820A85830B780A1222E8
:1036C800C5850C82850D83A3A3A3A312387012228B
:1036D800C5E50C2405F50AE50D123F53780A1222B8
:1036E800C5850C82850D831247C4120864740612BE
:1036F80020588A0A8B0BEA450B7003023821EA240A
:1037080004F50EEB12386612310E8A828B83A3A35E
:10371800A3E0F9851082851183123CFE120852E954
:10372800F5096003023821E4F514F515781412221E
:10373800C57514E975150278141222C57514EA7551
:10374800150278141222C5740612208E1222DC7912
:1037580013AC0AAD0B851082851183123CFE120949
:103768008A7408122058E9F509600302382190028A
:10377800E9E0F8E5087009E02402900301F08017F9
:10378800900301E0FCE82402FAE43400FBEA6C70E0
:1037980001EB6003023825850882AA821239A594B4
:1037A8001412399D5073850E82850F83E0C0E07432
:1037B800022A12385DD0E0F00508850E82850F8355
:1037C800A3E0C0E085080A7402250A12385DD0E03B
:1037D800F005089002E91238701222C57CEA7D02D1
:1037E80085080A7402250AFA74033400FB121122B0
:1037F80074021220589002E9E02508F50874FF6E5B
:10380800700374FF6F6012EE24010EEF3400FFE5C1
:1038180008C3941450030236B8E5086013123BE954
:10382800851082851183123CFE1205D6790080141A
:10383800E509700375090A851282851383EEF0A3E2
:10384800EFF0A90974021220587F0E02218485081E
:103858000C7402250CF58274033400F583223400BD
:10386800F50F850E82F583221244F32274EE12209E
:10387800B274FE1220428C0E8D0FEA2405F50CEB73
:10388800123484750B00900300E4F0F50AEA240270
:10389800F508EB3400F5098049900300E0FA90023E
:1038A800E9E0F81239A5941712399D400D900300EC
:1038B800E0F87416C3989002E9F01239AE1222C5E6
:1038C8007CEA7D0274012AFA74033400FB12112287
:1038D80074021220589002E9E0F8900300E028F002
:1038E800050AE50C2416F582E50D123861E0F8E5C5
:1038F8000AC3984003023986900300E0C394165027
:103908007DE50AC333F8E433F9E50C28FEE50D3903
:10391800FF851882851983AC82AD838E828F8312CE
:103928003CFE12086A8A108B11AC10AD11EC4D7078
:1039380005750B018043E4F510F51178101222C5C6
:103948007510E975110278101222C57510EA751103
:103958000278101222C5740612208E1222DC791603
:10396800850882850983123CFE12098A7408122090
:1039780058E9F50B70030238A1123F5F80107C00F4
:103988007D03850882850983123CFE1205E8A90B90
:103998007402023E5AE99400C365D03322EA28F83B
:1039A800E43400F9E822E0F510751100781022746B
:1039B800EA1220B274FC1220428A0C8B0D8C128DF4
:1039C80013EA2405F50AEB123F5375080075090040
:1039D800E50A2402F510E50B3400F51174021220F3
:1039E8008E85820E85830F780E1222C5850A828500
:1039F8000B83A3A3A3A312449F1222C5E50A24059F
:103A0800F50EE50B3400F50F780E1222C5851082ED
:103A1800851183123F59123CF8120864740612206B
:103A2800588A0E8B0FAE0EAF0FE50C2402F50EE58B
:103A38000D3400F50F80408882898374FFF00508F3
:103A480012385674FFF005089002E9E0F50C750D80
:103A580000780C1222C57CEA7D0285080C740225C8
:103A68000CFA74033400FB121122740212205890CD
:103A780002E9E02508F508EE4F60718E828F83A376
:103A8800A3A3E0F9850E82850F83123CFE1208522B
:103A9800E9F509EE2404123481E97044E4F514F5DB
:103AA8001578141222C57514E975150278141222B6
:103AB800C57514EA75150278141222C57408122007
:103AC8008E1222DC7911EEFCEFFD850E82850F83C4
:103AD800123CFE12098A7408122058E9F509602779
:103AE800850C82850D83123BDF123F6CE50870035D
:103AF800023BC5123BE9850E82850F83123CFE12FC
:103B080005EE7900023BDA850882AA82EA9002E98A
:103B18007009E02404900301F08022E0F89003018A
:103B2800E0F514E82404FCE43400FDEC65147001AD
:103B3800ED70C01239A5941212399D50B6850C82C9
:103B4800850D83E0C0E074022A12385DD0E0F005EC
:103B580008850C82850D83A3E0C0E0123856D0E0BA
:103B6800123BFB85820C85830D780C1222C57404E8
:103B780012208E1222DC8510828511831247C6120C
:103B8800087074041220588A0C8B0DAE0CAF0D858A
:103B9800080C7402250CF874033400F9EE4F700316
:103BA800023A3F851882851983E088828983123B0F
:103BB800FBA3E0C0E0123856D0E0023A4DE50970A8
:103BC8000375090A850A82850B83123BDF123F6C55
:103BD800A909740402384E1247B5851282851383E9
:103BE80022900301E0F5F0E50884900300F07C00E2
:103BF8007D0322F005088518828519832274EC124A
:103C080020B274FE1220428A088B098C0E8D0FEAAE
:103C18002405FEEB3400FF851882851983AC82AD3C
:103C2800838E828F83123CFE12086A8A0A8B0BEEFF
:103C38002418123481EA450B7003023CCF123E412E
:103C48005032851882851983123CFE12097E8A102B
:103C58008B11EA4511606B7912AC0AAD0B850882AD
:103C6800850983123CFE8510828511831220B0E9F4
:103C7800F50A7058E4F50AF50B780A1222C58E8207
:103C88008F83A3A3E0F50A780A1222C5EE24031253
:103C98003F50780A1222C58E828F83123D0812097E
:103CA800907406122058E9F50A7021850C82850D5A
:103CB80083E0701F850882850983123CFE1205F493
:103CC8008011750A0E8009750A018004E50A6003EF
:103CD800123F5F850C82850D83E0600479008002C5
:103CE800A90A74021220587F0C0221847C007D03EB
:103CF800850A82850B83123D0222E0FAA3E0FB22AB
:103D0800E0FCA3E0FD850882850983123D02227448
:103D1800EE1220B274FE1220428A088B098C0C8D98
:103D28000DEA2405FEEB3400FF750E008518828528
:103D38001983AC82AD838E828F83123CFE12086A8F
:103D48008A0A8B0BEA450B7003023E2D123E415046
:103D580035851882851983123CFE12097E8A0E8BDE
:103D68000FEA450F605E7912AC0AAD0B85088285B3
:103D78000983123CFE850E82850F831220B0E9F577
:103D88000E6003023E30850882850983124047AAE7
:103D98000AFB1209728A108B11A810A911E8497040
:103DA8001E7AFF7BFF1209728A108B11A810A911C5
:103DB800E849606C88828983E50AF0A3E50BF07511
:103DC8000A008007750E0E805F050A9002E6E0FA89
:103DD800E50AC39A504AE50A75F017A4FAABF088C9
:103DE800828983A3A3E02AFAA3E03BFB8A828B8320
:103DF800123F59EC4D70D2750A17750B00780A12EC
:103E080022C5EEFCEFFD1211227402122058EEFCBE
:103E1800EFFD850882850983123CFE1205FA80149D
:103E2800750E098003750E011247AD850C82850D4C
:103E380083123F6CA90E023998E5082402F508E5BB
:103E4800093400F5098A828B83A3A3A3E0A2E522A3
:103E580074041220587F0A02218474EC1220B28C58
:103E6800108D11EA2405F50CEB123484750F00EA65
:103E78002402F50AEB123F53850A82F583123CFEB1
:103E88001209728A088B09EA45097003023F4575D1
:103E98000E008071850C82850D83E06401704F8E61
:103EA800828F83A3A31222DC8E828F83A3A3A3A372
:103EB800E0F51275130078121222C5EE2405F512EA
:103EC800EF3400F51378121222C5123CF81209904B
:103ED8007406122058E9F50F6014850C82850D834D
:103EE800E4F01247AD851082851183123F6C7C1770
:103EF8007D007900EEFAEFFB12113A8E828F83E48F
:103F0800F0A3F0050E9002E6E0F8E50EC398501E07
:103F1800E50E75F017A4F8A9F0850882850983A332
:103F2800A312493A123F59EC4D6003023E9C8508A2
:103F38008285098374FFF0A3F0E50F7006123CF840
:103F4800120600A90F023CEFF50AEF3400F50B2228
:103F5800A3E0FCA3E0FD228E828F831247B5850E75
:103F680082850F83E8F0A3E9F022C082C083900223
:103F7800E2E06A7003A3E06B70067AE27B028004D9
:103F88007A007B0002325FC082C08378008C828D09
:103F980083E06A7003A3E06B7010E875F003A4F87F
:103FA800A9F0EC28FAED39FB8015088C828D83A3E3
:103FB800A3A3E06A7003A3E06B60DF7A007B0002D2
:103FC800325F74F61220B212093C8A828B83E58232
:103FD800458370067A007B008007A3A3A3A3123C45
:103FE800FE02465E74F21220B2E9FE740E12208EB2
:103FF800124047741012208E1244BF8C828D83E0C9
:1040080064027036A31247BBF50CA3E0F9A80C7440
:10401800026870037429697021750C02750D0078A7
:104028000C1222C578081222C5780A1222C5EEF9A8
:104038001209B47406122058800279010246E2E09F
:10404800F50AA3E0F50B2274E81220B274FB1220E3
:1040580042E9851882851983F08A168B17ECFEEDE4
:10406800FF751000741D12208E1247B1741D1220A6
:104078008E123F6C8E828F83A3A3A3E0A2E4502DFF
:10408800741D12208E123CFE12097E8A828B83E5F3
:104098008245837003024490790AEEFCEFFDAA166C
:1040A800AB171220B0E9F5106003024493741F1295
:1040B800208E1244BF742112208E1240477423129E
:1040C800208EE0F50EA3E0F50F8E828F83E0640268
:1040D800600302443EA31247B1850882850983A381
:1040E800858212858313EE2406123481888289839F
:1040F800E0FAA3E0F9EA2400F514E439F515781498
:1041080012234F010000280128334107000228F834
:10411800410328654100292F4301295A430229FBFD
:104128004203292F430429D9433E44E50E450F6035
:1041380003024439850C82850D831244B4FAE9FBE5
:104148008A828B83E0850A82850B831244EA1222D5
:10415800C58A828B83A3E0FCA3E00243C3E50E4536
:104168000F6003024439850A82850B837401F012BB
:1041780044C7850882850983F07C007D008E828F84
:1041880083A3A3A3A3E02401FAA3E03400FB12084D
:104198006AEA4B60418A828B83E02402F8850A82AE
:1041A800850B83E028F0EA2404F8EB3400F98882D0
:1041B8008983E08512828513831244FC1244EA1233
:1041C80022C58A828B83123F58E5082403FAE50941
:1041D8003400FB0243C8850A82850B83E02404F07F
:1041E8007C047D007900AA12AB1312113A024493A1
:1041F800E50E450F60030244391244C7FEA3E0FFF1
:10420800850A82850B837404F0EE8508828509830C
:10421800F0EF851282851383F0740312208EAC822E
:10422800AD83EEFAEFFB12086A8A0C8B0DEA450D96
:1042380070030242DC8A828B83A3A312310A7401C1
:1042480012208E85820E85830F780E1222C5740582
:1042580012208E1222DC7CFF7DFF1208707404127B
:1042680020588B0FEA450F7033850C82850D831219
:10427800449F1222C5850C82850D83A31222DC7C03
:10428800027D007AEE7B8112069C7404122058E9A4
:10429800700A740112208E74FFF0A3F08E828F834F
:1042A800E064027039750C02750D00780C1222C595
:1042B8008E828F83123F58E5082404FAE5093400FA
:1042C800FB1211227402122058850A82850B83E0A2
:1042D80024028009740112208EEEF0A3EFF074011D
:1042E80012208E1244B0F0740112208EA31244A83A
:1042F800024433E50E450F6003024439850C82857C
:104308000D83123F59AA16AB171209A8850A828590
:104318000B837402F0EA850882850983F08512828E
:10432800851383EB024436E50E450F6003024439DA
:104338001244C7F8A3E0F9850A82850B837402F05A
:10434800E8850882850983F0E9851282851383024E
:104358004436850C82850D83123CFE12111CEAFC42
:104368008C82A882C3950EE4950F405FE8650E70B5
:1043780002E50F70047C008022851882851983E08D
:10438800FAE50E2AFAE50F3400FBC3EA98EB94002D
:104398005003E08005E50ECCC39CFCEC850A8285C1
:1043A8000B83F08C0A750B00780A1222C5850C82E3
:1043B800850D83E0250EFCA3E0350FFDAA08AB09A7
:1043C80012112274021220580244937510070244F5
:1043D80093E50E450F705A850C82850D831247B1FF
:1043E800850A82850B8374071231161244A812318C
:1043F80016A3E0851282851383F0E82402FAE934D3
:1044080000FB8A828B831244A81244D71244B0A3BB
:104418001244E01244B9F0E82405F8E93400F988B8
:104428008289831244B9A31244FCA3A3A3A3F080F6
:104438005A75100B8055741D12208E123CFE1209FD
:104448003C8A828B83E5824583603D1247B1880CA4
:10445800890DE8450D6031780E1222C5780A1222BE
:10446800C578081222C5740612208EE0F9EEFCEF1A
:10447800FDAA16AB17850C82850D831220B0740631
:10448800122058E9F510800375100EA91074051252
:1044980020587F10022184E0F50E750F00780E2257
:1044A800E085088285098322124506221247B5E86D
:1044B80022124506A3A322E0F508A3E0F509228508
:1044C8000C82850D83E0F8A3E0F5838882E022A3BF
:1044D800A3F08A828B83A322F088828983A3A3A373
:1044E800A322F08A828B831244F322E0F50A750B2B
:1044F80000780A22F088828983A312450622E08583
:104508000882850983A3A32274EE1220B274FE12D6
:1045180020428A0A8B0BECFAEDFB741412208EE011
:10452800F510A3E0F511741612208EE0FE7418122F
:10453800208EE0F50EA3E0F50F851882851983AC6F
:1045480082AD8312086A8A0C8B0DEA450D60498595
:104558001882851983123CFE12093C8A828B83E5F6
:10456800824583602FA3A31244BFE5084509602450
:10457800780E1222C578101222C5EEF9AC0CAD0DDA
:10458800AA0AAB0B8508828509831220B07404122D
:1045980020588006790E8002790102399874F61243
:1045A80020B274FE122042740C12208E1244B4857C
:1045B8001882851983F0740112208EE9F0E4F50859
:1045C800F50978081222C575080278081222C57400
:1045D8000412208E85820885830978081222C51264
:1045E800099074061220587402122058806874F7D3
:1045F8001220B2EAFEEBFF89087C197D031209A894
:10460800EA5402600BA908EEFAEFFB12085E80027A
:10461800790102301274F61220B274FF6A700374C2
:10462800FF6B70168C828D83124663E4F08C828D4A
:1046380083A3A3A3124663A380181209788A088B60
:1046480009A808A909E849600D8882898374FF12BE
:104658003114A3A3E4F07F0202218474FFF0A3F0D5
:104668008C828D83A3A32274F61220B21209788A51
:10467800828B83E58245836006A3A3E0FA80027AF1
:10468800007B0080D174F21220B28A088B09ECFEFC
:10469800EDFF740E12208EE0F50A1209788A0C8B51
:1046A8000DA80CA90DE8497026EEFCEFFD7AFF7BFA
:1046B800FF1209788A0C8B0DA80CA90DE849700423
:1046C8007911801688828983E508F0A3E509F088C6
:1046D800828983A3A3E50AF079007F060221847406
:1046E800EE1220B2EAFEEBFF8C088D09890C7414D7
:1046F80012208E1247B1741612208E123CFE750DD0
:1047080000E84960030247A57402650C600302478C
:10471800A0741212208E1247BBFCA3E0F9EC24000F
:10472800F50EE439F50FEAF4F8EBF4F9EC58F8E58E
:104738000F59F9E849705CE5082406F8ED3400F9EA
:10474800880A890B8882F5831247C61209A88A103D
:104758008B11E50E65107004E50F65116042780E47
:104768001222C5850A82850B831247C61209AE74C8
:1047780002122058E9F50D7027780E1222C5850817
:1047880082850983A3A31247C41209C674021220A2
:1047980058800D750D808008750D0D8003750D0B03
:1047A800A90D023E5D8E828F831247B522E0F8A3E1
:1047B800E0F9221247B588828983E022A3A3E0FCAE
:1047C800A3E0FDEEFAEFFB2274E81220B274E712C0
:1047D8002042851882851983EAF0A3EBF08C168DA8
:1047E80017890E750800750900743112208EE0F5DE
:1047F80012A3E0F513743312208EE0F514A3E0F54C
:1048080015743512208EE0F50FE50975F003A4F84C
:10481800A9F085188285198312493AE0F47003A338
:10482800E0F4700302491DEE2402F50CEF12493042
:10483800E0700302491D85160A85170B780A1222B3
:10484800C5AC14AD15AA12AB1312093074021220AC
:10485800588A0A8B0BEA450B700302491DE4F510D0
:10486800F51178101222C5740612208E85821085E3
:10487800831178101222C5740912208E8582108542
:10488800831178101222C5851282851383A3A3A3EE
:10489800A31222DC7914AC0AAD0B8E828F83123CF2
:1048A800FE12098A7408122058E97069850A8285FF
:1048B8000B83A3A3A3A31247B1740212208E123F45
:1048C8006C850C82850D83E0A2E05018A90E740255
:1048D80012208EAC82AD838E828F83123CFE12082A
:1048E80082E94208850C82850D83E0A2E15026E525
:1048F8000FF50A780A1222C9A90E740312208EAC89
:1049080082AD838E828F83123CFE12087C74011262
:104918002058E942080509E509C3940250030248F2
:1049280011A90874190244973400F50D850C82F515
:104938008322E028FEA3E039FF8E828F832274F25F
:104948001220B2EAFEEBFF890B7401650B600E744E
:1049580002650B706A7901120B82E97062EEFAEF58
:10496800FB1209728A088B09EA45096047750A0033
:10497800800B7C177D00790012113A050A9002E637
:10498800E0F8E50AC3985021E50A75F017A4F8A9DC
:10499800F0850882850983A3A3E028FAA3E039FB00
:1049A8008A828B8312326670C9850882850983746E
:1049B800FFF0A3F07C197D03EEFAEFFB1209A202C7
:1049C80046E274F21220B28A088B09ECFEEDFF74FD
:1049D8000E12208E124047900A19E0F4603D7A09C1
:1049E8007B00121146EA4B60328A828B8374B1F0E5
:1049F800A3E41244D9A31244D7A3E508F0A3E50918
:104A0800124A26EEF0A3EF124A26A3A3E50AF0A362
:104A1800E50BF0900A19E0F91211520246E2F08A09
:104A2800828B83A3A3A3A3A322C082C08390619097
:104A38007404F0A37448F0A37402F0906180744089
:104A4800F09061BC7403F09061877419F09062650E
:104A5800741BF0906249E0C3941390619C400A74FF
:104A680009F090606674018007740DF0906066E448
:104A7800F090619A7433F0A37455F09061A0743A81
:104A8800F090053FE064017009C2919003A6746735
:104A980080059003A67461F0902FCEE49390618610
:104AA800F0902FC8E493F46027E493540FF89061D2
:104AB80085E0686012E5C654804449F5C6E59E5411
:104AC8007F644970F8E8F053C680E59E547F70FA19
:104AD8007905120EC4024C5FC082C083E5A8F85362
:104AE800A87E906181E4F0A3F0A3F0C2BA539AFEC5
:104AF800C289759B00C2C275E90075910075BF0037
:104B080075A91175B905906181F0A374C0F0A3E48B
:104B1800F0D2BA439A0174805842A8024C5FC0820E
:104B2800C08374F81220429003A4E0F8A3E0F9E8E7
:104B3800497003024C549003A4E054406023790860
:104B4800851882851983AA82AB83120D388518824D
:104B5800851983AA82AB83120A329003A4E054BF5A
:104B6800F0E054806010790C7A657B05120D38905E
:104B780003A4E0547FF0E0A2E0503190619A7433CE
:104B8800F0A37455F09061A0743AF090053FE0648A
:104B9800017009C2919003A6746780059003A674FA
:104BA80061F0120A389003A4E054FEF0E054026069
:104BB8003190619A743FF0A3745AF09061A0747FA9
:104BC800F090053FE064017009D2919003A67471DA
:104BD80080059003A6746AF0120A389003A4E05482
:104BE800FDF0E054046013902FCCE493906186F0BC
:104BF800120A3E9003A4E054FBF0E05408601390BE
:104C08002FCDE493906186F0120A3E9003A4E054FD
:104C1800F7F0E054106013902FCEE493906186F083
:104C2800120A3E9003A4E054EFF0E05420600A1208
:104C38000A3E9003A4E054DFF0A3E05401600D1293
:104C48000C60120A449003A5E054FEF07408122088
:104C580058024C5FF0A3F0D083D08202011F74EC9D
:104C68001220B274F4122042851882851983AC820E
:104C7800AD8375838175829A7404121F55902FCC69
:104C880093F46003024DF2907808E0C39402500355
:104C9800024DD2740412208EAC82AD837583807568
:104CA80082F67408121F5585188285198385821229
:104CB800858313740412208EAC82AD83750EFF7544
:104CC8000FFF7FFF7E00750C48750D7880157408FE
:104CD8006E7003024D6674096E7003024D66740AA5
:104CE8006E607B850C82850D837808121EFA8C8293
:104CF8008D83A909E50AC9F8881074187808121E66
:104D080028E5104508F8C3E098A3E099850C82854A
:104D18000D837808121EFA40188C828D83741878D7
:104D280008121E28E5104508F8E0C398F8A3E080AB
:104D38001C74187808121E28E5104508FAE9FB8C3F
:104D4800828D83E0F8A3E0F9EAC398F8EB99F9C3F8
:104D5800E8950EE9950F5006880E890FEEFF0EE5CF
:104D68000C2404F50CE50D3400F50DEEC394135036
:104D780003024CD674FF650E700474FF650F602340
:104D88008F087402780812202F74482508F5827459
:104D9800783509F5837808121EFA851282851383FF
:104DA800E508F0EC2402FCED3400FD851282851341
:104DB80083A3858212858313740C12208EE5826C7E
:104DC8007003E5836D6003024CC475080175090022
:104DD80078081222C5740212208EAC82AD837AF351
:104DE8007B0B1213D47402122058740C1220587FB3
:104DF8000C022184C082C0839061AE7468F0A374F1
:104E08006AF090624574FBF0A304F053F4FD43FE8E
:104E18000290053F7401F09061A0E0643A90619AB5
:104E280070237433F0A37455F09061A0743AF07451
:104E38000164017009C2919003A6746780289003E9
:104E4800A674618021743FF0A3745AF09061A07435
:104E58007FF0740164017009D2919003A674718087
:104E6800059003A6746A024C5E7F08022184C08202
:104E7800C0839004F1E06401700A9004F6E06004D5
:104E8800790C80027900024C5FC082C08375E1F121
:104E98009004F4E0605B14600914605F14605714B8
:104EA800705E120C729004EAE0F97AEB7B04120E41
:104EB800467AD67BBE7C897D8E120E7C7A557B55D0
:104EC8007C557D00120E529004F5E0F9120E5E79C1
:104ED80001120EB89004E8E0F8A3E0C82416F582A1
:104EE800E83400F583748AF0A3740CF07900024C5E
:104EF8005F120C7880AF120C7E80AA120C8480A5F9
:104F0800791280EA74F01220B275D90D9004D5E0B8
:104F1800A2E0E4331313F89004EAE0C4333354C036
:104F2800484401F5D978E8790488828983A3A3A342
:104F3800E0F5D988828983A3A882A983E864EE7002
:104F480003E9640470E378D5790488828983A3E04F
:104F5800F5D988828983A3A882A983E864DB7003D2
:104F6800E9640470E575E1959004D5E0F97AD67B9B
:104F780004120E4C900A3B7424F0A3740CF0A37432
:104F880080F0A3740DF0A37480F0A3740DF0A374E3
:104F980080F0A3740DF0A3742AF0A3740CF0A3742A
:104FA80080F0A3740DF0A37442F0A3740CF0900A7F
:104FB800497480F0A3740DF0A37480F0A3740DF00D
:104FC800A37480F0A3740DF0A37480F0A3740DF0A3
:104FD800A37480F0A3740DF0A37480F0A3740DF093
:104FE8009004F4E064019004E87012E0F8A3E0F59E
:104FF800838882A3A37508007509088010E0F8A3C8
:10500800E0F5838882A3A3750804750900750A0072
:10501800750B007808121E73750CFF750DFF750E61
:10502800FF750F007808790C121EC19004E8E0F8AB
:10503800A3E0C8240EF582E83400F5837808121F2F
:10504800099004E8E0F8A3E0C82414F582E83400E5
:10505800F5837413F09003A27402F0024E7174F792
:105068001220B29004FAE02407F5D99004EAE0C4CB
:10507800333354C0F5D978E8790488828983A3A3A7
:10508800A3E0F5D988828983A3A882A983E864EE7E
:105098007003E9640470E39004FAE0601F78E8792B
:1050A80004FAE82413F582E93400F583E0F5D98899
:1050B800828983A3A882A9831AEA70E690051AE078
:1050C8002407F5D99004EAE0C4333354C04404F506
:1050D800D978E8790488828983A3A3A3E0F5D988DD
:1050E800828983A3A882A983E864EE7003E9640433
:1050F80070E390051AE0601F78E87904FAE8243331
:10510800F582E93400F583E0F5D988828983A3A87C
:1051180082A9831AEA70E675E195900A3B7430F02B
:10512800A3740CF0A37480F0A3740DF0A37480F042
:10513800A3740DF0A37480F0A3740DF0A3742AF087
:10514800A3740CF0A37480F0A3740DF0A37442F060
:10515800A3740CF0900A497480F0A3740DF0A37442
:1051680080F0A3740DF0A37480F0A3740DF0A37401
:1051780080F0A3740DF0A37480F0A3740DF0A374F1
:1051880080F0A3740DF09004E8E0F8A3E0C8240EC2
:10519800F582E83400F58374FFF0A3F0A3F0A3F0E0
:1051A8009004E8E0F8A3E0C82414F582E83400F598
:1051B800837412F09003A27401F0FF02218474F743
:1051C8001220B29004FAE02407F5D99004EAE0C46A
:1051D800333354C04402F5D978E879048882898346
:1051E800A3A3A3E0F5D988828983A3A882A983E829
:1051F80064EE7003E9640470E39004FAE0601F78D9
:10520800E87904FAE82413F582E93400F583E0F537
:10521800D988828983A3A882A9831AEA70E675E1EE
:1052280095900A3B743CF0A3740CF0A3743CF0A373
:10523800740CF0A3743CF0A3740CF0A3743CF0A3BA
:10524800740CF0A3743CF0A3740CF0A3743CF0A3AA
:10525800740CF0A37442F0A3740CF0900A497480A3
:10526800F0A3740DF0A37480F0A3740DF0A3748000
:10527800F0A3740DF0A37480F0A3740DF0A37480F0
:10528800F0A3740DF0A37480F0A3740DF09004E8FB
:10529800E0F8A3E0C8240EF582E83400F58374FF33
:1052A800F0A3F0A3F0A3F09004E8E0F8A3E0C8248A
:1052B80014F582E83400F5837414F09003A27404A2
:1052C800F002558D74F71220B29004FAE02407F525
:1052D800D99004EAE0C4333354C04406F5D978E8D9
:1052E800790488828983A3A3A3E0F5D98882898376
:1052F800A3A882A983E864EE7003E9640470E390CC
:1053080004FAE0601F78E87904FAE82413F582E9E2
:105318003400F583E0F5D988828983A3A882A9831C
:105328001AEA70E690051AE02407F5D99004EAE035
:10533800C4333354C04404F5D978E87904888289A1
:1053480083A3A3A3E0F5D988828983A3A882A9832C
:10535800E864EE7003E9640470E390051AE0601FE6
:1053680078E87904FAE82433F582E93400F583E033
:10537800F5D988828983A3A882A9831AEA70E67579
:10538800E195900A3B7436F0A3740CF0A37480F096
:10539800A3740DF0A37480F0A3740DF0A37480F0CF
:1053A800A3740DF0A37480F0A3740DF0A37480F0BF
:1053B800A3740DF0A37442F0A3740CF0900A49741E
:1053C80080F0A3740DF0A37480F0A3740DF0A3749F
:1053D80080F0A3740DF0A37480F0A3740DF0A3748F
:1053E80080F0A3740DF0A37480F0A3740DF0900402
:1053F800E8E0F8A3E0C8240EF582E83400F58374E9
:10540800FFF0A3F0A3F0A3F09004E8E0F8A3E0C84D
:105418002414F582E83400F5837415F09003A2741F
:1054280003F002558DC082C0839004E8E0F8A3E041
:10543800C82406F582E83400F583E4024C5C74F76E
:105448001220B29003D0E0F875F003A4C8AAF02A9D
:10545800F974D228F8740339F9E82405FAE9340014
:10546800FB8A828B83E0FCA3E0FD88828983A3A367
:10547800A3A3A3A3A3A3A3ECF0A3EDF0888289833D
:10548800A3A3A3A3A3A3A3E024FFF8A3E034FFF9F5
:105498008A828B83E8F0A3E9F002558D74F7122015
:1054A800B2EAFEEBFF9061D0E0600302558175D946
:1054B8000E75D90375D904EE248BF582EF3400F507
:1054C80083E5822408F8E5833400F9E0F5D9A3E8F8
:1054D80065827003E9658370F2EE2483F582EF3408
:1054E80000F583E5822404F8E5833400F9E0F5D972
:1054F800A3E865827003E9658370F275E195790820
:10550800EE248BFAEF3400FB120D2C7904EE248381
:10551800FAEF3400FB120D2C7C00EEF8EFF9ECFAF0
:10552800C3E49AFA95E0FBEE2AFAEF3BFBEA248AF9
:10553800F582EB3400F583E0C0E0E824AAF582E9BF
:105548003400F583D0E0F00C88828983A3A882A96F
:1055580083ECC3940840C7EE246FF582EF3400F55E
:1055680083E0F8A3E0F9EE2471F582EF3400F583C7
:10557800E8F0A3E9F07901800279008008F0EEA252
:10558800E092AF79007F01022184C082C08375D97F
:105598000275D90375D90575E195EA246FF582EB93
:1055A8003400F583E0F8A3E0F9EA2471F582EB34DE
:1055B80000F583E8F0A3E9F07901024C5F74F61274
:1055C80020B2EAFEEBFF9005457406F075084575B4
:1055D800090578081222C57C017903120D7474023A
:1055E80012205875D90675D903758245758305E06B
:1055F800F5D9A3E582644A7004E583640570F07503
:10560800E1959003A2E06408701EEE246FF582EF26
:105618003400F583E0F8A3E0F9EE2471F582EF3465
:1056280000F583E8F0A3E9F0790102589374F612C3
:1056380020B2EAFEEBFF9061D0E070667801900539
:1056480045740BF09003A2E064077019750845755E
:10565800090578081222C57C017903120D747402B9
:105668001220587805740128F5D975D90375824533
:10567800758305E8FAE0F5D9A31AEA70F875E1959B
:10568800EE246FF582EF3400F583E0F8A3E0F9EE3D
:105698002471F582EF3400F583E8F0A3E9F079018D
:1056A8008002790002589374F71220B2EAFEEBFFE9
:1056B80075D90375D90375D90DEE24DDF582EF345C
:1056C80000F583E0F5D975E1957904120E82EE2490
:1056D8006FF582EF3400F583E0F8A3E0F9EE24716A
:1056E800F582EF3400F583E8F0A3E9F0790102557B
:1056F8008D74F61220B2EAFEEBFF9061D0E0F874E8
:1057080080C398FAEE2482F582EF3400F583E060D6
:1057180004780480027800E8240BF8EAC398500360
:105728000257BE7D09900545EDF0EE24E2F8EF340E
:1057380000F97A467B057C0888828983E08A828B17
:1057480083F088828983A3A882A9838A828B83A312
:10575800AA82AB831CEC70E0EE2482F582EF340061
:10576800F583E0601D75084575090578081222C59E
:105778007C097903EEFAEFFB120D747402122058BB
:105788007D0D74012DF5D975D9037582457583058D
:105798008D08E0F5D9A31508E50870F675E1957947
:1057A80004120E82EE241DF582EF3400F583E4F036
:1057B800A3F079018002790002589374F61220B29E
:1057C800EAFEEBFF9061D0E0F87480C398FAEE240B
:1057D80082F582EF3400F583E06004780480027873
:1057E80000E82408F8EAC398500302589178069014
:1057F8000545740CF09003BFE0900546F09003C097
:10580800E0900547F09003C1E0900548F09003C28E
:10581800E0900549F09003C3E090054AF0EE248239
:10582800F582EF3400F583E0601B750845750905BE
:1058380078081222C57C067903EEFA120D747402F8
:10584800122058780A740128F5D975D9037582454C
:105858007583058808E0F5D9A31508E50870F6757D
:10586800E1957904120E82EE246FF582EF3400F58B
:1058780083E0F8A3E0F9EE2471F582EF3400F583B4
:10588800E8F0A3E9F07901800279007F020221841F
:1058980074F61220B2EAFEEBFF9061D0E0F8748053
:1058A800C398FAEE2482F582EF3400F583E06004B1
:1058B800780480027800E82404F8EAC398500302C8
:1058C80059727802900545E8F0EE24F4F582EF3439
:1058D80000F583E0900546F0EE2482F582EF34006F
:1058E800F583E0601B75084575090578081222C51F
:1058F8007C027903EEFA120D7474021220587806AD
:10590800740128F5D975D90375824575830588080A
:10591800E0F5D9A31508E50870F675E195EE24734E
:10592800F582EF3400F583E4F0EE247FF582EF345E
:1059380000F583E4F0EE241DF582EF3400F583E4EE
:10594800F0A3F07904120E82EE240DF582EF3400F4
:10595800F583E0F8A3E0F9EE2471F582EF3400F561
:1059680083E8F0A3E9F07901800279000258937482
:10597800F61220B29061D0E0F87480C398FCEA2453
:1059880082F582EB3400F583E060047804800278C5
:1059980000E82404F8ECC398405B7902900545744C
:1059A80007F0EA24F5F582EB3400F583E09005462C
:1059B800F0EA2482F582EB3400F583E0601875087C
:1059C8004575090578081222C57C0209120D747400
:1059D800021220587906740129F5D975D903758200
:1059E80045758305E9F8E0F5D9A318E870F875E17D
:1059F8009579018002790002589374F51220B2E972
:105A0800FCA2AFE433F50AC2AF7D0080010DEA24A1
:105A18006EF582EB3400F583E0F8EDC398501A8DEB
:105A280008EA2508F8EB3400F9E8246AF582E93435
:105A380000F583E06C70D68024EA246EF8EB34001D
:105A4800F9E0FEEA2EFAEB3400FBEA246AF582EB71
:105A58003400F583ECF088828983E004F0E50AA23B
:105A6800E092AF7F0302218474F61220B2A2AFE461
:105A780033FDC2AFEA246EF582EB3400F583E014FF
:105A8800F07C0060368C08EA2508F8EB3400F9E869
:105A9800246BF582E93400F583E0C0E0E8246AF578
:105AA80082E93400F583D0E0F00CEA246EF582EB4D
:105AB8003400F583E0F8ECC39840CAEA246DF58217
:105AC800EB3400F58374FFF0EA2469F582EB3400C7
:105AD800F583E4F0EDA2E092AF025893C082C08350
:105AE800E5A8F8C2AFEA246AF582EB3400F583E949
:105AF800F0EA2469F582EB3400F583E4F0E8A2E7E4
:105B0800A2E792AF024C5F74F31220B2EAFEEBFFF9
:105B1800ECFAEDFB8A828B83A3A3A3A3E0541FF0C6
:105B2800EE2436F582EF3400F583E4F0F50AEEFC56
:105B3800EFFD8A828B83E0C0E0EC245DF582ED34D2
