:020000040000FA
:0600000002011A02282B88
:03002B00022FC5DC
:0300530002289EE2
:03006B00022F5F02
:03007B00022F91C0
:10008300022697E5C754F84401F5C7790122000019
:100093000080FB120086B90003020104E479217891
:1000A30008B800028004F709D8FCE479297802B87B
:1000B30000028004F709D8FCE4900281782B7908C8
:1000C3008002F0A3D8FCD9FA781A90014A7A01BACF
:1000D30000028007E493A3F608DAF97AAB7B099070
:1000E300014B784279058015E493A3AD82AE838AF0
:1000F300828B83F0A3AA82AB838D828E83D8E9D9C6
:10010300E77582747583BF740312012C7582917530
:100113008300740012012C75D00075813F7518811E
:10012300751902759F00020096C09FF59FE473D076
:100133009F22D083D082C09FE493C0E0740193C018
:10014300E0740293F59F2201FF0000B40000280031
:100153002800283075A000A000A000A0000008001F
:1001630008E001F000100010001000100010001053
:100173000050005000500010001000D00700000095
:100183000000000F0001000500307507001000019A
:100193000081FF00000000FF8A07A8079007FF0205
:1001A300020208025000A0000000E80302BD810122
:1001B3000000A88102C181010000020A02C7810177
:1001C3000000B30202C181010000030A02C98101D8
:1001D3000000C90202C181010000040A02CB8101AF
:1001E3000000CB0202C181010000050A02F7810869
:1001F3000000CC0202C181010000060A02CF810186
:100203000000070AFF0100FF2002BD81010000ABCF
:100213008102C1810100006B0A02D181000000004C
:100223000002C5810300001903540D540D540D54ED
:100233000D540D540D540D540D540D540D540D54B3
:100243000D540DE80F0010E20F0F094E696E654162
:1002530078697353656E736F72051220032003026E
:100263000A000201064E696E6520417869732053C6
:10027300656E736F720000000000E803D007E803A7
:100283000040000000000A566F6C74616765206DC2
:1002930056010007000000000000000000000000FD
:1002A30003647073000700000000000000000000FA
:1002B3000000026D6700070000000000000000005E
:1002C300000000027554010200CC100000E410EAA3
:1002D30010FFFF0040000000000A566F6C74616756
:1002E30065206D561241494E20566F6C74616765E7
:1002F300286D5629000A0141494E20436F6E662E30
:10030300000A0A41494E20506572696F640002BDBC
:10031300810100009C8102C181010000470B02F3AF
:1003230081010000360B02C581030000680702C388
:1003330081010000480B02C181010000580B02F14A
:1003430081030000590B02C3810100005A0B02C153
:1003530081010000640B02EF81030000650B02C3FF
:1003630081010000660B0202020202020202020184
:100373000D000000100102BD81010000ED8002C1EB
:1003830081010000C90B02E5810100006E0702C173
:1003930081010000CA0B02E381010000C28002C197
:1003A30081010000CB0B02B781010000D18002C1A3
:1003B30081010000CC0B02B381010000138102C153
:1003C30081010000CD0B02CD81010000FE8002C13E
:1003D30081010000CE0B02E181010000058102C111
:1003E30081010000CF0B02E7810100000C8102C1F3
:1003F30081010000D00B02E981010000DF8002C10E
:1004030081010000D10B02ED81010000D20B1244E7
:10041300494E205374617475730002BD810100005D
:10042300AE8102C181010000710C02B181010000A3
:10043300760702C581030000790702C3810100002A
:10044300720C01E803053F100A124779726F2044CA
:10045300617461000A392D4178697320436F6E66B8
:100463002E000A0A392D4178697320506572696F2D
:10047300640012416363656C204461746100124D32
:1004830061672044617461001A392D4178697320D2
:100493005265736F6C7574696F6E0002BD810100E4
:1004A30000A58102C181010000AC0C02D5810100CD
:1004B300003B0802C5810300004D0802C38101000F
:1004C30000AD0C02C181010000D50C02DB810100EB
:1004D30000540802C581030000650802C3810100BE
:1004E30000D60C02C181010000E10C02DD81010094
:1004F300006B0802C5810300007C0802C381010070
:1005030000E20C02C181010000B70C02D781030095
:1005130000530802C381010000B80C02C18101002D
:1005230000C50C02D981030000C60C02C38101007F
:1005330000C70C02C181010000EB0C02DF81030044
:1005430000820802C381010000EC0C1F100F0001A0
:100553000000000004537465707FA180FF00013028
:100563007503020106000000000000000000000007
:100573000000000000000000000000000000000078
:1005830000FFFF0600800CE80312013517AE0312CB
:1005930001352EAE031201355FAE031201359AAE5B
:1005A30003120135C4AE03120135EEAE0312013559
:1005B30005AF031201351CAF0312013533AF03122C
:1005C30001355CAF031201356FAF0312013585AFFF
:1005D3000312013598AF03120135BFAF0312013582
:1005E300EAF401120135EEF50112013526F6011286
:1005F300013549F60112013554F60112013577F63A
:100603000112013586F7011201355BF8011201353C
:10061300D6F8011201355EF90112013599F901127B
:100623000135D0F9011201355EFA0112013537FBAC
:100633000112013597FB01120135A2FB01120135AD
:1006430021FC0112013524FC0112013527FC0112A2
:100653000135B6FC01120135B9FC01120135E9FC83
:100663000112013513FD0112013501FE011201359D
:10067300B3FE0112013572F4021201359AF402122B
:100683000135C8F402120135FFF4021201355DF59C
:1006930002120135A8F502120135F3F502120135F4
:1006A30033F60212013579F602120135A7F602126A
:1006B300013564F7021201356EF7021201357BF73B
:1006C30002120135AEF7021201357AF80212013532
:1006D30086F8021201359EF802120135A8F80212BB
:1006E3000135DEB903120135ECB90312013504BA41
:1006F300031201351CBA031201355EC9011201351B
:100703000ACA0112013585CA01120135A6CB0112AD
:100713000135E2CB011201358BCC0112013572CDCB
:1007230001120135D6CE011201352DCF011201354B
:10073300AECF011201359ED001120135EBD001126B
:10074300013571D101120135A3D101120135B7D39E
:1007530001120135F9D30112013517D40112013504
:100763009AD4011201356ED50112013536D6011224
:1007730001354DDD0212013520DE02120135C9DEDD
:10078300021201351CDF02120135CCDF02120135E2
:1007930058E00212013544E10212013573E10212FD
:1007A300013586E202120135CEE202120135A3E3DE
:1007B30002120135DFE302120135FBE302120135B8
:1007C3001BBE03120135DC9803120135F2980312A4
:1007D3000135189903120135349A031201353E9AF3
:1007E30003120135739B031201356B9C0312013510
:1007F3004BEF021201357BF002120135AEF002120B
:100803000135F8F002120135BFF20212013537AAA1
:1008130001120135A1AA0112013500AC0112013503
:1008230010AC011201353DAC0112013594AC01123B
:1008330001353DAD0112013544AE011201350EAF54
:10084300011201356EB001120135B1B0011201354B
:1008530056B101120135A3B101120135C9B101121B
:100863000135D7B301120135DCB301120135E1B50E
:10087300011201352EB601120135A1B6011201355F
:10088300D4B60112013576B7011201351FB8011232
:10089300013557B8011201355AB801120135A2B812
:1008A30001120135E2B80112013539B901120135DE
:1008B3004CA20312013564A203120135ACA2031248
:1008C3000135C2A20312013509A3031201351DA488
:1008D30003120135AAA403120135F5A4031201354D
:1008E300F42F001201350030001201353B300012A5
:1008F3000135803000120135403100120135C63117
:10090300001201352B320012013557320012013526
:10091300903200120135CE3400120135B236001286
:100923000135983800120135DB3900120135293CB5
:10093300001201353B3D00120135863E00120135A0
:10094300963F00120135B33F00120135EE3F00120E
:100953000135104000120135734000120135344552
:1009630000120135C945001201351A46001201353E
:10097300414600120135934600120135B14600127B
:1009830001350B4700120135F447001201356A495E
:1009930000120135EE4900120135008003120135C2
:1009A3000A80031201354D8003120135688003125A
:1009B3000135F880031201352081031201355D8171
:1009C30003120135948103120135BD8103120135F0
:1009D3003282031201354782031201355C8203120E
:1009E30001358D8203120135A18203120135C682BE
:1009F300031201350083031201352C8303120135E1
:100A0300AF8303120135F8830312013522840312E5
:100A130001354D8403120135CAB603120135DCB525
:100A2300021201350AB60212013558B70212013516
:100A330038B80212013557B802120135D4B8021280
:100A4300013517B9021201356DBA021201352EBBF9
:100A530002120135B5BD0212013556BE021201352F
:100A63004CBF0212013549C002120135A3C1021263
:100A730001352EC20212013513B3031201357CB3C3
:100A830003120135D0B303120135F7B30312013555
:100A930028B403120135758403120135E28403126D
:100AA30001352985031201354186031201353D873E
:100AB300031201352088031201356C7700120135CA
:100AC300AE77001201358078001201355979001292
:100AD3000135537A00120135357B001201359E7BB7
:100AE30000120135547C00120135C87C0012013517
:100AF300347D001201355D7D00120135D77D001272
:100B03000135707E00120135D57E00120135EA7E73
:100B130000120135307F00120135497F0012013583
:100B2300AE7F00120135B17F00120135759C0312AF
:100B330001359D9C03120135DB9C03120135999D00
:100B430003120135009E031201351C9E0312013569
:100B5300449E03120135749E03120135839E0312D2
:100B63000135009F03120135269F0312013526BA72
:100B73000112013504BC0112013536BE01120135E3
:100B830072BE011201359FBE0112013589BF0112E8
:100B93000135D4BF011201351FC00112013531C027
:100BA3000112013571C001120135A6C001120135D0
:100BB300F4C00112013523C10112013546C10112EE
:100BC300013593C10112013518C20112013532C436
:100BD3000112013571C601120135B2C60112013588
:100BE30054C80112013595C80112013508C9011213
:100BF3000135C7A802120135C5A9021201355EB03D
:100C0300021201357FB2021201354AB402120135D4
:100C1300B2B502120135554A00120135044B0012D8
:100C23000135314B00120135774B00120135B74CBA
:100C3300001201354D4E00120135C74E0012013529
:100C4300E24E001201355D4F00120135B75000121C
:100C530001351752001201351D53001201357E5420
:100C630000120135975400120135F5540012013575
:100C7300E35500120135165600120135865600124F
:100C830001350057001201354A5700120135145837
:100C930000120135E95800120135C8590012013517
:100CA300535A00120135C15A00120135355B001247
:100CB3000135605B001201351F5C00120135845D54
:100CC30000120135A15D00120135C05D001201352E
:100CD300B15E00120135D65E00120135005F0012CD
:100CE30001357B5F00120135D55F001201353E618E
:100CF30000120135EC61001201352D62001201353D
:100D03000080021201354E80021201355A80021210
:100D130001353881021201356981021201359A8148
:100D2300021201351A820212013552820212013572
:100D3300A48202120135E18202120135FE840212FD
:100D430001352487021201350F8902120135F98A10
:100D530002120135F37F0012013524960112013589
:100D63005496011201352D9D01120135B29E0112D7
:100D73000135AFA40112013597A501120135D4A5A0
:100D830001120135F7A50112013528A6011201351B
:100D930031A6011201353BA60112013529A7011223
:100DA30001351FA8011201355D62001201355C6631
:100DB300001201356266001201359D6D0012013586
:100DC300B672001201354C9103120135E291031200
:100DD3000135F891031201356E9203120135E29247
:100DE3000312013520930312013594930312013545
:100DF3000D94031201351694031201352294031244
:100E030001353794031201357594031201358B9420
:100E130003120135EA9403120135E2880312013506
:100E2300EF8803120135098903120135488903123A
:100E33000135868903120135EB8903120135008AD6
:100E4300031201350B8A03120135188A0312013587
:100E53002F8A031201353D8A03120135488A031292
:100E63000135548A03120135638A031201356E8AF0
:100E730003120135918A03120135388B03120135B0
:100E8300488B03120135628B031201357F8B0312EA
:100E930001359B8B03120135C08B03120135CB8BBC
:100EA30003120135E08B03120135F48B0312013574
:100EB300558C031201355B8C03120135618C0312CF
:100EC3000135678C031201357F8C03120135B28C17
:100ED30003120135C0E60112013544E70112013561
:100EE300F3E70112013552E90112013573EB0112E7
:100EF30001355FEC0112013594EC01120135B6ECBA
:100F03000112013565ED011201355DEF0112013565
:100F130086EF0112013518F0011201354AF0011272
:100F2300013557F001120135AEF001120135D4F04D
:100F33000112013541F30112013544F40112013567
:100F43009CF4011201354FD80112013559D9011210
:100F5300013540DA011201354ADA011201356CDA42
:100F63000112013578DA0112013511DC0112013564
:100F730040DC011201355CDD01120135B5DD0112E2
:100F830001351BDF01120135FADF0112013556E08D
:100F930001120135C3E001120135FEE001120135F2
:100FA3003DE101120135F6E30112013510E40112AE
:100FB30001359CE401120135AAE40112013503E570
:100FC3000112013511E50112013584E501120135E4
:100FD300E8E50112013532E601120135AFC2021212
:100FE3000135D1C202120135F7C4021201350CC812
:100FF3000212013524C902120135D7C90212013583
:10100300B9CA02120135D1AF03120135F6AF03128B
:10101300013568B003120135D3D502120135DCD591
:1010230002120135E5D502120135BCD60212013593
:101033006DD802120135A3D802120135DDD8021290
:10104300013513D9021201354DD90212013581D967
:1010530002120135ADD902120135F6D9021201355A
:1010630030DA0212013579DA02120135D1DA0212CD
:10107300013506DB0212013561DB021201359BDB10
:1010830002120135ECDB0212013522DC02120135BA
:101093005CDC021201358ADC02120135ADDC02127E
:1010A300013532BC031201355EBC03120135B9BCF4
:1010B30003120135C3BC03120135D3BC031201353E
:1010C300A39B021201358F9D02120135B79F0212B5
:1010D30001359CA002120135F3A10212013538A596
:1010E3000212013517A60212013583A60212013539
:1010F30069A702120135C6A70212013570E4021274
:1011030001357AE402120135B8E40212013501E532
:10111300021201353BE50212013591E50212013558
:10112300B2E502120135BBE50212013506E60212F1
:1011330001352FE60212013539E602120135A5E623
:10114300021201353BE70212013585E70212013530
:10115300B5E7021201353EE8021201357EE80212BC
:101163000135B6E802120135C8E802120135E7E895
:1011730002120135F0E802120135BBE90212013512
:10118300E7B80312013528AC031201355EAC031234
:10119300013594AC03120135DDAD0312013515BFE2
:1011A3000312013583BD0312013599BD03120135C5
:1011B300A3BD03120135EDBD031201352FF9021250
:1011C300013544F902120135F4F90212013534FAFA
:1011D300021201354DFA0212013581FA021201356C
:1011E300CEFA0212013502FB0212013544FB021250
:1011F300013548FD02120135AEFD0212013524FF0F
:10120300011201354DFF0112013576FF011201353F
:10121300B8FF011201352F8D03120135748D0312AE
:1012230001359D8D03120135348E03120135828EF3
:1012330003120135778F0312013513910312013520
:101243006E9F03120135939F03120135BD9F031255
:101253000135FAA9031201353FAA031201359FAAEA
:101263000312013553AB03120135EFAB0312013502
:1012730015C003120135FA81011201355E84011292
:1012830001350F86011201351187011201359A8745
:10129300011201351E8801120135438801120135FF
:1012A3007C8B01120135F08B01120135E18C0112A7
:1012B30001351B8D011201355B8D011201350E8F36
:1012C30001120135618F01120135AA8F0112013517
:1012D3001890011201354A900112013562900112F2
:1012E3000135779101120135879101120135A292DF
:1012F30001120135C49201120135FA92011201352E
:101303009E9401120135DD9401120135FF950112FE
:101313000135E5E90212013540EA0212013569EAB5
:1013230002120135B9EB0212013543EC0212013509
:1013330056ED02120135FCEE021201351FA5031210
:1013430001352BA5031201356FA50312013597A5AE
:1013530003120135BBA50312013507A7031201359B
:1013630086A703120135B5BA03120135C6BA0312B3
:1013730001356BBB03120135CCBF031201350BC022
:10138300031201359FBE03120135BEBE03120135A0
:10139300C1C00312013576BB0312013586BB0312AC
:1013A300013598BB031201352CBC03120135E3B799
:1013B3000312013568B803120135CEB803120135A3
:1013C3006EB403120135A2B403120135CBB4031278
:1013D300013542B503120135E92F001201351A9583
:1013E300031201352E9503120135A795031201351A
:1013F3007C96031201354E9803120135939803121C
:101403000135C99803120135B1B503120135B7B5DA
:1014130003120135FDB50312013531B6031201354F
:1014230049B603120135DDBC0312013528BD031291
:101433000135F87F00120135CBA70312013550A9FE
:1014430003120135B1A903120135F7A903120135BE
:1014530076B103120135C6B1031201354FB203123F
:101463000135B5B203120135BBFD02120135E5FDAD
:1014730002120135ABFE0212013586FF021201355D
:10148300DDCD021201359ACE02120135D5CE0212FC
:101493000135FDCE021201355FCF02120135ABCF0C
:1014A300021201350BD0021201359ED00212013512
:1014B3009DD1021201352CD302120135AFD3021292
:1014C300013516D4021201352DD40212013537D558
:1014D3000212013575D502120135D48D0212013580
:1014E300349102120135BC92021201351393021298
:1014F3000135329302120135B09302120135409542
:1015030002120135249602120135309A0212013576
:10151300009B021201355CC00312013595C0031212
:101523000135D57F00E066701008A3E066700A08F5
:10153300A3E066700408A3E06622C3E7960809E700
:10154300960809E7960809E79622C3E09608A3E000
:101553009608A3E09608A3E09622C008C3E096F598
:101563000808A3E096420808A3E096420808A3E00F
:101573009645087001D3D00822E9799EC608CAC6E9
:1015830008CBC608CCC6C370207996CACBCC7019D9
:10159300798ECBCC70137986CC700EF9802ACA333E
:1015A300CACB33CBCC33CC331930E7F2CCCBCA33F1
:1015B30050147004EA30E00DE4CA3ACACB3BCBCCFA
:1015C3003CCC500209C3E913C6CC182313C6CB186D
:1015D300C6CA18C6F922E62618461846184622E750
:1015E3002719471947194722181818E6084608709B
:1015F30009E626087005E633F4220822191919E7CB
:101603000947097009E727097005E733F42209221E
:10161300E6084608C3134608336002E633F422E7BC
:10162300094709C3134709336002E733F422001261
:101633001613604F1216226012E7548066F61215D5
:10164300EB70111215E2703B090909F4F618F6184C
:10165300F618F6221215FF70151215D9080808603E
:10166300EAE6447FF618768018E4F618F622121597
:10167300D960161215E27012E4F608F608F608E6C9
:101683005480F609090918181822EAC0E0EBC0E0F3
:10169300ECC0E0EDC0E0E687F0A4FBACF008E68721
:1016A300F0A42CFCE435F0FA1809E687F0A42C4BDF
:1016B30060027401CA35F0FCE433FB09E687F0D21B
:1016C300F7A42CCB35F0FC1908E687F0A42BCC3516
:1016D300F0FBE433FD0819E687F0D2E7A42C4ACBEC
:1016E30035F0CD3400FC09E687F0D2E7A42DCC35E4
:1016F300F0FDE433FA0918E687F0D2F7A42CCD35D0
:10170300F0CA3400FC08E687F0D2E7D2F7A42ACC6B
:1017130035F07A7E20E70B0ACB33CBCD33CDCC33F8
:10172300CC33CB3350147004ED30E00ED2F1E4CD62
:101733003DCDCC3CCC3B5005DA05C2F1EB547FC622
:101743003308E63392F0FBE73309E733C39A502DAE
:101753002B70190C0D4C4D70151806E608C3337029
:101763000D20F10AA2F013F6E418800B4024E4F6EE
:1017730030F002768018F618F618F68024D33B145E
:10178300501074FFA2F013F6187680E418F618F6DA
:10179300800FA2F013F618E63303F618ECF618EDF3
:1017A300F6D0E0FDD0E0FCD0E0FBD0E0FA22121648
:1017B30013601D1216227005191919801A1215EBE0
:1017C300701F1215FFC37003E66733191919400719
:1017D3001818182208080874FFF618F618F618F6F1
:1017E300221215FF60171215E2702192F01215D91B
:1017F3007019501720F014080808090909E7F618AA
:1018030019E7F61819E7F61819E7F6221215D96041
:10181300E6E869701F0808E62480F608E436F6183F
:10182300547FB47F0CE654806007F6E418F618F68C
:1018330022181822E9C6CC08C6CD08C6CE08C6CFE2
:10184300C0E0E8C0E0EAC0E0EBC0E009E9F809E77E
:10185300FA09E7FBE6F918E6F8C3EC98ED99EE9A76
:10186300EBC2E7F5F0EFC2E795F0500E600CEBCF5B
:10187300FBEACEFAE9CDF9E8CCF8EAA2E7D2E7FA37
:10188300EB33FB13F5F0EEA2E7D2E7FEEF33FFC530
:10189300F013A2E730E601B313C5F0C3C0E0C0F014
:1018A3007F00C39BFB605E9418600F401D14601A99
:1018B300D0E023F9D0E0F80219928AF0E9486003F6
:1018C300D2F0E4AFF0FAF9F8803BEB30E40D89F0A5
:1018D300EA6003D2F0E4AFF0F9CAF8EB30E30D8825
:1018E300F0EF6002D2F0AFF0E4CAC9F8EB5407603E
:1018F30014FBC3EA13FAE913F9E813F8EF135002E0
:10190300D2E0FFDBEDD0E0C0E030E739C3E49FFF76
:10191300F5F0EC98FC42F0ED99FD42F0EE9AFE42B0
:10192300F0D0E0F9D0E0F8E5F0607AE923F9EE20B1
:10193300E742D8028067C3EF33FFEC33FCED33FD9E
:10194300EE33FE80EAEC28FCED39FDEE3AFED0E002
:1019530023F9D0E0F84002801BC3EE13FEED13FD24
:10196300EC13FCEF135002D2E0FF08B800067F7FB0
:1019730074FF802EEF3350178CF020F00260100CB0
:10198300BC000C0DBD00080EBE000408E860DFE9D2
:1019930033E813FFEE2313FE4F4D4C8008E95480C8
:1019A300FFE4FEFDFCEE33EF33F47004FCFD7E80B8
:1019B300D0E0FBD0E0FAD0E0F8D0E0CFC618CEC636
:1019C30018CDC618CCC6F922080808EAC0E0EBC057
:1019D300E086F0E7A4FA180986F0E7A42AFA1809C2
:1019E30086F0E7A42AFA180986F0E7A42AFA1986EA
:1019F300F0E7A4FBE5F02AFA190886F0E7A42BFB2D
:101A0300E5F03AFA190886F0E7A42BFBE5F03AFA79
:101A130018180986F0E7A4C5F02BFBE43AFA190875
:101A2300E7C5F0C6A426F6E5F03BFBE43AFA1886D0
:101A3300F0E7A4F6E5F00826F6E43B08F6E43A08F6
:101A4300F6D0E0FBD0E0FA22E4CFC0E0E4CEC0E081
:101A5300E4CDC0E0E4CCC0E075F020E626F608E66D
:101A630033F608E633F608E633F6181818EC33FCB9
:101A7300ED33FDEE33FEEF33FFC3EC9709ED97092A
:101A8300EE9709EF97191919400FFFEC97FC09ED31
:101A930097FD09EE97FE191906D5F0BFECF709ED8E
:101AA300F709EEF709EFF7191919D0E0FCD0E0FDBB
:101AB300D0E0FED0E0FF22121B22181818121A4B96
:101AC300121B1119191922121B11191919080808C7
:101AD300E618181820E7E0121A4B121B22181818E0
:101AE30022090909E719191920E7DC080808E6188B
:101AF300181820E703021A4B121B22181818121A7F
:101B03004B121B22181818121B1119191922E4C39E
:101B130097F709E497F709E497F709E497F722E4BD
:101B2300C396F608E496F608E496F608E496F622D9
:101B33006016080808C6C313C618C613C618C6130A
:101B4300C618C613C6D5E0EA227009080808226041
:101B530016181818C6C333C608C633C608C633C614
:101B630008C633C6D5E0EA22E627F60809E637F6C3
:101B73000809E637F60809E637F622E026F608A351
:101B8300E036F608A3E036F608A3E036F622E026B0
:101B9300F008A3E036F008A3E036F008A3E036F03F
:101BA30022C3E697F60809E697F60809E697F608CA
:101BB30009E697F622C3E096F008A3E096F008A39F
:101BC300E096F008A3E096F022E657F60809E657F8
:101BD300F60809E657F60809E657F622E056F6082E
:101BE300A3E056F608A3E056F608A3E056F622E073
:101BF30056F008A3E056F008A3E056F008A3E05619
:101C0300F022E0F608A3E0F608A3E0F608A3E0F666
:101C130022E6F008A3E6F008A3E6F008A3E6F02224
:101C2300E0FAA3E0FBA3E0FCA3E0FD22EAF0A3EBD0
:101C3300F0A3ECF0A3EDF022E0F8A3E0F9A3E0FABF
:101C4300A3E0FB22E8F0A3E9F0A3EAF0A3EBF02280
:101C5300CAC0E0E6F0A308DAFAD0E0FA22CAC0E08C
:101C6300E0A3C582CCC582C583CDC583F0A3C5825D
:101C7300CCC582C583CDC583DAE6D0E0CA22C3E4EE
:101C830098F8E499F9121CC28026C3E49AFAE49BFB
:101C9300FBE920E7E9121CC2E498F8E499F922C3AE
:101CA300E498F8E499F9121CC2E498F8E499F9C3AA
:101CB300E49AFAE49BFB22EB20E7CFE920E7E0B9C3
:101CC3000010BB0008E88AF084F8AAF022E4FBC8FD
:101CD300FA22EB70227B10C833C8C933C9335007CB
:101CE300C39AC3DBF280069A50012ADBEAC833F4B5
:101CF300C8C933F4C9FA2275F008E4C833C8C93334
:101D0300C933C99AC99B5004C92AC93BD5F0ECFB16
:101D1300C833F4C8E4C9FA22600D08C6A2E713C6A3
:101D230018C613C6D5E0F322600C08C6C313C61841
:101D3300C613C6D5E0F422700422600D18C6C3335F
:101D4300C608C633C6D5E0F41822251810AF08F527
:101D530018400C15198008F51840021519D2AF2246
:101D630000C0D0251810AF08F518500C05198008CD
:101D7300F51850020519D2AFD0D0222518F58210DC
:101D8300AF08F518400C15198008F518400215190D
:101D9300D2AF851983222518F582E43519F58322FC
:101DA3002518F8E43519F9222518FAE43519FB2228
:101DB3002518FCE43519FD22E4732518C582C0E01B
:101DC300E51934FFC583C0E0E518C3958224F810F4
:101DD300AF08858319858218800885831985821841
:101DE300D2AFCEF0A3E520F0A37808E608F0A3DE97
:101DF300FAEFF0A3E58124FAF8E608F0A3E608F089
:101E0300A3E608F0A30808E608F0A3E608F0A31584
:101E1300811581D0E0FED0E0F8158115811581E8A8
:101E2300C0E0EEC0E0222518C582C0E0E51934FF0A
:101E3300C583C0E0E518C3958224F910AF088583F4
:101E4300198582188008858319858218D2AFCEF050
:101E5300A3E520F0A37808E608F0A3DEFAEFF0A3E9
:101E6300E58124FBF8E608F0A3E608F0A30808E6FA
:101E730008F0A3E608F0A315811581D0E0FED0E0B9
:101E8300F815811581E8C0E0EEC0E022851983854D
:101E93001882E0A3FEE0A3F5207808E0A3F608DFAC
:101EA300FAE0A3FFE0A3C0E0E0A3C0E0E0A3C0E04A
:101EB300E0A3C0E0E0A3C0E010AF088582188583EB
:101EC300198008858218858319D2AFD083D0820206
:101ED3000132851983851882E0A3FEE0A3F52078FB
:101EE30008E0A3F608DFFAE0A3FFE0A3C0E0E0A365
:101EF300C0E0E0A3C0E0E0A3C0E010AF0885821813
:101F03008583198008858218858319D2AFD083D041
:101F13008222C0D02518C582C0E0E51934FFC583ED
:101F2300C0E0E518C3958224F310AF0885831985B3
:101F330082188008858319858218D2AFC8F0A3E977
:101F4300F0A3EAF0A3EBF0A37908E709F0A3D8FA2A
:101F5300ECF0A3EDF0A3EEF0A3EFF0A3D0E0F0A339
:101F6300D0E0F0A3D0E0F0A3E520F0A3E5F0F0A3E8
:101F730022851983851882E0C0E0A3E0F9A3E0FA83
:101F8300A3E0FBA37808E0F608A3DFFAE0FCA3E0F4
:101F9300FDA3E0FEA3E0FFA3E0C0E0A3E0C0E0A355
:101FA300E0F5D0A3E0F520A3E0A3F5F010AF08859A
:101FB30083198582188008858319858218D2AFD04A
:101FC30082D083D0E0F8D0E03274048006740280BB
:101FD300027401C0E0F404121D7ED0E0121C5322EF
:101FE3007404800474028000CCC0E0EDC0E0E51806
:101FF300C39CCCAD1950011D10AF068C188D1980F0
:10200300068C188D19D2AF121C60D0E0FDD0E0FC15
:1020130022D083D082E9C0E0E493A3C386F0C5F065
:1020230095F0F908E493A386F0C5F095F0700BE4FE
:1020330093A3C3994005E9048002A3E475F002A4C5
:102043002582F582E5F03583F583D0E0F9E493A3A7
:10205300C0E0E493C0E022D083D082ECC0E0EDC0C6
:10206300E0E493A3FCE493A3FDED4C600D1220A6E2
:10207300EC24FFFCED34FFFD80EFE493A3FCE49339
:10208300A3FDED4C600D1220E5EC24FFFCED34FFC5
:10209300FD80EFD0E0FDD0E0FCE493A3C0E0E49347
:1020A300C0E022C0E0C3E4939608740193961840FD
:1020B3000FE4936670080874019366187000701932
:1020C300A3A3C3E49396087401939618A3A3400DA6
:1020D300D0E0D0E0D0E0022096A3A3A3A3A3A3D093
:1020E300E022C0E0C0F088F0E49366700808740151
:1020F3009366187000A8F0A3A3700BD0F0D0E0D0C3
:10210300E0D0E0022096A3A3D0F0D0E02274F51231
:102113001E29EAFEEBFFEE2434F8EF3400F98808B9
:102123008909EE2435F582EF3400F583E0F8EE24D7
:1021330037F582EF3400F583E0F50AEC850AF0A465
:10214300FCAAF0850AF0EDA42AFDE82CF8E43DF999
:102153007A257B00121CC2EA850882850983F0F880
:10216300740758F97401B900028004C333D9FCFA27
:10217300E8131313541FF8EE28F8EF3400F9E8249A
:102183005DF582E93400F583E05A6008EE2434F506
:1021930082EF802CEE2434F582EF3400F583E0C027
:1021A300E0EE2436F582EF3400F583E0F5F0D0E07D
:1021B30084A8F0EE28F8EF3400F9E82438F582E932
:1021C3003400F583E0F97F04021ED574F5121E294D
:1021D300EAFEEBFFEE2434F582EF3400F583E0C032
:1021E300E0EE2435F582EF3400F583D0E0F08E8203
:1021F3008F83A3A3A3A3A3A3A3C082C0838E828F31
:1022030083A3A3A3A3A3E0F8A3E0F9D083D082E040
:10221300C398F508A3E099F509EE247FF582EF341E
:1022230000F583E064017069EE2480F582EF3400E9
:10223300F583E0F8A3E0F98E828F83A3A3A3A3A37E
:10224300A3A3E0FCA3E0FD8E828F83A3A3A3A3A398
:10225300E0FAA3E0FBC3EA9CEB9D5010C3EC98EDBE
:1022630099402EC3EA98EB995027800EC3EA98EB66
:10227300994007C3EC98ED9940177CDC7D04EEFA96
:10228300EFFB120CB2EE247FF582EF3400F583E40A
:10229300F0EE2434F8EF3400F9E8FCE9FDEE2435E0
:1022A300F582EF3400F583E0F8EE2437F582EF345E
:1022B30000F583E0F50AE508850AF0A4F508AAF01D
:1022C300850AF0E509A42AF509E82508F8E43509A3
:1022D300F97A257B00121CC2EA8C828D83F0F87494
:1022E3000758F97401B900028004C333D9FCFAE832
:1022F300131313541FF8EE28F8EF3400F9E8245DA4
:10230300F582E93400F583E05A6008EE2434F5825F
:10231300EF802CEE2434F582EF3400F583E0C0E047
:10232300EE2436F582EF3400F583E0F5F0D0E08457
:10233300A8F0EE28F8EF3400F9E82438F582E93400
:1023430000F583E0F9122F4B0221C9C082C08385B7
:102353001882851983E0F8A3E0F9C3EA9CEB9D504A
:1023630010C3EC98ED99401BC3EA98EB9950148085
:102373000EC3EA98EB994007C3EC98ED99400479B2
:102383000180027900D083D08222EAC39CFAEB9DBC
:10239300FB2274EF121E299003A2E064086005E09B
:1023A3006407702A9061C8E060249003D0E0F46071
:1023B3001DE0F875F003A4C8AAF02AF974D228FE28
:1023C300740339FF8E828F83A3A3A3E070030224D7
:1023D300C5906060E0C0E0EE2468F582EF3400F55C
:1023E30083D0E0F0750C45750D057508007509007F
:1023F300E5D914F50AE5D95403F50E60177403659E
:102403000E605CE50A6010EE2467F582EF3400F598
:1024130083E070030224AA900540E06401602AEE81
:102423002482F582EF3400F583E0600478048002AF
:102433007800850A08E508C398FA95E0FB120B803B
:102443008A088B09EA45097005120EB68074EE24DA
:1024530082F582EF3400F583E070048A0C8B0DE57E
:102463000A6012850C82850D83F50BE5D9F0A3155F
:102473000BE50B70F6EE2482F582EF3400F583E072
:10248300604474FC250AF50A780C121FD0AC0AA923
:102493000EEEFAEFFB120D4E7402121D63E9702665
:1024A300AA08AB09121456793D8E828F83A3A3A386
:1024B300A3E0FA7B00120A54EEFAEFFB120CCA12E5
:1024C3000D60790080747403650E6056850A10757B
:1024D30011007810121FD0AC0CAD0DAA08AB091275
:1024E3000D2A7402121D63EE2468F582EF3400F5A1
:1024F30083E064807004747F8001E0F50C780C1233
:102503001FD4E50EF50C780C121FD4A90AAC08AD44
:10251300099003D0E0FA7B00120A187402121D63BB
:1025230080139003A2E06408600BAC0CAD0DEEFACF
:10253300EFFB120DBA120EC279017F0A021ED57487
:10254300F5121E2974FC121D4DEAFEEBFF8908A249
:10255300AFE433F509C2AF806AEE2463F8EF3400C9
:10256300F97A007B00A2AFE433F50AC2AF8882890F
:1025730083E0FCA3E0FDEC4D603A88828983E0FAB6
:10258300A3E0FB8A828B83E0FCA3E0FD888289833E
:10259300ECF0A3EDF08A828B83E4F0A3F0888289C8
:1025A30083E0FCA3E0FDEC4D700A88828983A3A33A
:1025B300E4F0A3F0E50AA2E092AF1214569004E30C
:1025C300E004F0EE2463F582EF3400F583E0F8A332
:1025D300E0F9E849603DEE2463F582EF3400F583CA
:1025E300E02402FAA3E03400FBEA2402F50AEB3408
:1025F30000F50B780A121FD08A828B83E0FCA3E0DC
:10260300F9EEFAEFFB120CEE7402121D63E970038C
:1026130002255C9004E3E060639004E4E0F8900436
:10262300E3E0C398500C7402650870509004E5E031
:10263300604A8E828F83A3A3A3A3E08518828519A2
:1026430083F0A3E4F09004E3E0F87402121D99E828
:10265300F0A3E4F09004E3E0F89004E2E028F074DF
:1026630002121D99AC82AD83851882851983AA82D3
:10267300AB837901120A249004E3E4F0E509A2E0B4
:1026830092AF7404121D630221C9000000852187E3
:102693008522C622C0E0C0D0E8C0E0E9C0E0EAC0BD
:1026A300E0EBC0E0ECC0E0EDC0E0EEC0E0C008C08D
:1026B30009C00AC00BC082C083C0F0A2AFE433FEDE
:1026C300C2AF759B00906182E0A2E05012E591A237
:1026D300E0500C7591FE740165217003122395E09F
:1026E300A2E55051E591A2E5504B7591DF9003A20D
:1026F300E064076005E064087023740165217035A8
:1027030079019003D0E0FA75F003A4CAA8F028FB7E
:1027130074D22AFA74033BFB1225428018E0640D3D
:1027230070139003C4E004F064287002E4F07A00AC
:10273300E0F9120EC8906182E0A2E640030227DEB0
:10274300E591A2E640030227DE7591BF9003A2E064
:1027530064057008120DF0120DFC8003120DF6755E
:102763002100120E56E99003A3F07900120E4A12CB
:102773000C287A017B009003A1E0F912115690789E
:1027830003E064427055900544E014F0704DC2AF0D
:1027930012279600782AD0E0F618D0E0F6E59F5489
:1027A3000770057509FF800375097FC4C0E07829A8
:1027B300E6F50808E65509F509740B7808121D2B90
:1027C300D0E02508F8906270E0A2E740F8E8C33350
:1027D300906272F0906270E0D2E0F0906181E0A2CA
:1027E300E35009E5E9A2E3500375E9F7A3E0A2E7A3
:1027F3005009E591A2E7500375917FEEA2E092AFF5
:10280300D0F0D083D082D00BD00AD009D008D0E04A
:10281300FED0E0FDD0E0FCD0E0FBD0E0FAD0E0F960
:10282300D0E0F8D0D0D0E032C0E0C0D0C082C083C6
:10283300906183E0A2E05009E5BFA2E0500375BFB9
:10284300FEE0A2E15009E5BFA2E1500375BFFDE040
:10285300A2E25009E5BFA2E2500375BFFBE0A2E389
:102863005009E5BFA2E3500375BFF7E0A2E45009A6
:10287300E5BFA2E4500375BFEFE0A2E55009E5BF51
:10288300A2E5500375BFDFE0A2E65009E5BFA2E66B
:10289300500375BFBFD083D0828088C0E0C0D0E82A
:1028A300C0E0E9C0E0EAC0E0EBC0E0ECC0E0EDC0AE
:1028B300E0C0F0E5A7A2E6500FE5A1A2E650095358
:1028C300A7BF75A1BF122903E5A7A2E5500CE5A197
:1028D300A2E5500653A7DF75A1DFE5A7A2E15009E2
:1028E300E5A1A2E1500375A1FDE5A7A2E2500CE525
:1028F300A1A2E2500653A7FB75A1FBD0F002281456
:1029030074F8121E297521019003A2E06406701564
:10291300120D7E8A828B83A3A3A3A3A3A3E0FAA3AE
:10292300E0FB120DDEA2AFE433FED2AF9003A8E0CA
:10293300640170187A207B009003A1E0F91211E082
:102943007A207B009003A1E0F912115C906182E090
:10295300D2E6F0900541E0602185C62280169003FF
:10296300A7E064017008E5C654F84405F5C653BEF4
:10297300FC1226907401652160E4EEA2E092AF7F21
:1029830001021ED5008E238F248582288583278507
:102993001882851983E0CEA3E0CF8528828527831B
:1029A300EBC9EAC8EDCBECCA75F010C3E833C8E94C
:1029B30033C9EA33CAEB33CBC3EA9EF526EB9FF563
:1029C30025B35004AB25AA26EC33CCED33CDD5F09B
:1029D300DAAE23AF242274E9121E2974F8121D4DB6
:1029E300851882851983ECF0A3EDF08A088B099092
:1029F30003A2E024F7C394055006750801022B7067
:102A0300120D7E8A0A8B0BAE0AAF0BEE4F700302D8
:102A13002B6DAC08AD097402121D99AA82AB831207
:102A23000E0E8E828F83A3A3750CFF750DFF750E9B
:102A3300FF750F00780C121BDF7402121D997510BD
:102A4300FF7511FF7512FF7513007810121BDF78E5
:102A53000C791012153D502A780C7910121BA475AD
:102A630008017509C8750A00750B007808790C12FE
:102A7300153D5052850C08850D09850E0A850F0BEF
:102A830080507514017515C87516007517008510EB
:102A93000885110985120A85130B7808790C121B16
:102AA300A47814790812153D401C750800750900B7
:102AB300750A00750B0178087910121BA478087940
:102AC3000C121B6B800C750801750900750A0075E3
:102AD3000B0074097808121B4C750C19F50DF50ED3
:102AE300F50F7808790C121A4B8E828F83A3A3A358
:102AF300A3A3A3E0F8A3E0F97AD07B03121CC28856
:102B03000C890DE4F50EF50F7808790C121B6B7424
:102B130006121D99E0F8A3E0F97AD07B03121CC2D8
:102B2300E8FA8A0CE4F50D7808790C12153D500784
:102B33007808790C121BA49003A2E06408600AE0F1
:102B430064066005E06405702D750C0D780C79083A
:102B530012153D4021750CF4750DFF750EFF750FB1
:102B6300FF7808790C121B6B800C7508007509003F
:102B7300750A00750B00851882851983E0F8A3E0B8
:102B8300F58388827808121C147408121D637F1061
:102B9300021ED574F7121E29120E2090053FE06421
:102BA300017010906245E4F0A3F053F4F343FE0C7C
:102BB3005390F3120DCCE5C654804449F5C6E59E07
:102BC300547F644970F8906185740FF090053DE07F
:102BD300F47002A3E0604E90053EE0600814601BB1
:102BE30014602E804075080175090090053DE0785A
:102BF30008121D3AE508F45280802A750801750908
:102C03000090053DE07808121D3AE508F4529080E3
:102C13001475080175090090053DE07808121D3A06
:102C2300E508F452A079007F02021ED574F7121E44
:102C330029E9FEEAFF74016E700C7A807B00900331
:102C4300A1E0F9121156902FECE493F46008E49399
:102C5300F9120C1C800953C680E59E547F70FA124A
:102C63000DD290053FE064017003120C3490053DD2
:102C7300E0F47002A3E0604B90053EE0600814604E
:102C83001A14602C803D75080175090090053DE01C
:102C93007808121D3AE508428080287508017509F5
:102CA3000090053DE07808121D3AE5084290801334
:102CB30075080175090090053DE07808121D3AE595
:102CC3000842A0120E20120D7E8A088B09A808A9BB
:102CD30009E8496015E5E170FCE82414F582E9345C
:102CE30000F583E0F46003E0F5E174016F700A7AA4
:102CF300019003A1E0F91211B0022C2A74ED121E07
:102D0300298A088B098C0A8D0B7413121D99780C70
:102D1300121C057808790C12153D7510017511C840
:102D230075120075130050127808790C121BA478E1
:102D330010790812153D50168010780C7908121B73
:102D4300A47810790C12153D4004790180027900B2
:102D53007F0C021ED574ED121E298A088B098C0A7A
:102D63008D0B7413121D99780C121C05780C7908BD
:102D730012153D40117808790C121BA4AA08AB095F
:102D8300AC0AAD0B80227510007511007512007529
:102D930013017810790C121BA478107908121B6B9D
:102DA300AA10AB11AC12AD1380A68A828B8375086F
:102DB300FF7509FF750AFF750B007808121BF27F78
:102DC30004021ED574F5121E298C828D8378081295
:102DD3001C058A828B837808121BB8EA2404F8EB5B
:102DE3003400F98C828D83A3A3A3A3E0FCA3E0FDAD
:102DF30088828983C3E09CF0A3E09DF08882898365
:102E0300C3E09420A3E0944E40268A828B83750806
:102E1300FF7509FF750AFF750BFF7808121B918A6E
:102E2300828B83A3A3A3A3E02420F0A3E0344EF07A
:102E3300022DAD74F5121E29E9FE9004F7E0FAA302
:102E4300E0FBEEC333F8E433F974B228F5827480FF
:102E530039F583E02AF508A3E03BF5097808121F4A
:102E6300D07A407B427C0F7D001229887402121DA8
:102E7300638A088B098C0A8D0B74107808121B3334
:102E8300AA08AB097F04021ED574F1121E298A0C0D
:102E93008B0D8C0E8D0F740F121D99E0FAA3E0FBBE
:102EA3007411121D99E0F508A3E0F5097808121FC3
:102EB300D0EA2401F508EB3400F509E4F50AF50B33
:102EC300780C79081219CB750871750902780C7999
:102ED300081219CBAA0CAB0DAC0EAD0F12298874D6
:102EE30002121D638B09EA450960047A0180027AA4
:102EF30000EC2AFCED3400FD7413121D99E0F8A3D5
:102F0300E0F9E8FEE9FFECF8EDF97A717B02121CB7
:102F1300C2880889098E828F837808121C14ECF802
:102F2300EDF97A717B02121CC28A088B0974057849
:102F330008121D3A8E828F83A3A3A3A3E508F0A3EF
:102F4300E509F07F08021ED5C082C083E9906000C6
:102F5300F0D083D08222C2AF02000022C0E074F21C
:102F6300121F15A2AFE433FED2AFE589A2E54009F3
:102F7300E589A2E7500312138A758900758900C297
:102F8300C5751A00EEA2E092AF7F01021F74C0E084
:102F9300C0D0E8C0E0E9C0E0A2AFE433F8D2AFE5C7
:102FA3008AA2E04002E58A758A00758A00C2EB7541
:102FB3001A00E8A2E092AFD0E0F9D0E0F8D0D0D088
:102FC300E032C0E0C0D0E8C0E0E9C0E0E5A8D2AF9D
:102FD300C2C7751A00A2E7A2E792AFD0E0F9D0E02A
:102FE300F8D0D0D0E032020132FFFFFFFFFFFFFF36
:102FF300FFC082C083E9900A6AF002328374F71239
:103003001DBDE99002E1F07C197D037AFF7BFF127D
:1030130009709002E274FFF0A3F0A3E4F0A3F07947
:10302300051208F89002E1E0F912081A7A8E7B097A
:10303300120B327F01021E8F74F4121DBD8A088B9E
:1030430009EB548060309002E1E0F912113E8A0AE4
:103053008B0BAE0AAF0BEE4F60138E828F83E0644F
:10306300B07003120910EEFAEFFB12112CAA08E557
:10307300096480FB80047A007B0002325274F212EE
:103083001DBD74FC121D4DEAFEEBFFEE4F6038745C
:1030930002121D99EEF0A3EF1234B7ECF0A3ED1278
:1030A30034B7AA82AB83120814E9F508707374125B
:1030B300121D9912406BE50A450B60658E828F8362
:1030C30012312EEE4F700575080280557A067B008B
:1030D3001211928A0C8B0DA80CA90DE84970057585
:1030E3000813803D88828983E4123138A3A3EEF06C
:1030F300A3EF124504E50AF0A3E50BF09002E712F3
:1031030031C09002E76017E0FCA3E08003EAFCEB28
:10311300FD8C828D831231C070F38C828D83123FBC
:1031230090A9087404121D63024706A3A3A3A3E096
:10313300FEA3E0FF22F0A3F0888289832274F212B7
:103143001DBD890AE975F017A4FEAFF09002E6E40D
:10315300F09002E41231C0600A1211989002E4E484
:10316300F0A3F0EEFAEFFB1211928A088B09EA45FD
:1031730009602FEEFCEFFD790012111A9002E4E5CD
:1031830008F0A3E509F07B0080081231AAE4F0A35C
:10319300F00BEBC3950A40F2E50A9002E6F07900E2
:1031A30080027913024706EB75F017A4F8A9F09093
:1031B30002E4E028FAA3E0398A82F58322123D264D
:1031C300EA4B2274F4121DBD750800750900740CD6
:1031D300121D991244D8FEE9FF800CE5082401F57D
:1031E30008E5093400F509C3E5089CE5099D50325B
:1031F30085080A85090B7403780A121D3AEA250A21
:10320300F8EB350BF988828983A3A3A3A3A3A312A5
:10321300406BEE650A7003EF650B70BFE8FAE9FBDC
:1032230080047A007B00802774F4121DBD7900EAC4
:10323300A2E0501B7508207509817808121FD07C05
:10324300047D007A6C7B0A1208F27402121D637FFC
:1032530004021E8FC082C0839002E712328A601C70
:1032630088828983A3A3E06A7003A3E06B888289C1
:103273008370E8A3A3A3A3123D2280047A007B00FA
:10328300D083D0820201321247D9E8492274EE1268
:103293001DBD74FC121D4DEAFEEBFF8518828519D6
:1032A30083E4F0A3F0EE2402123F74EE24051234FB
:1032B300A5EE2404F50EEF12388AE024FE603924CB
:1032C300FC604624FE605224FE605E24FE7003020E
:1032D30033AA24FE700302342224FE700302343125
:1032E30024FE700302344024FC700302344F24FE96
:1032F300700302345E02349B9003007417F0A3E45E
:103303001234BF12059202349B851882851983AC4F
:1033130082AD8312091602346B851882851983AC3A
:1033230082AD8312091C02346B850C08850D097468
:1033330002121D99AC82AD83850882850983123DF3
:10334300221208388A0C8B0DAC0CAD0DEC4D60428B
:10335300E4F50CF50D780C121FD0750C00750D03F8
:10336300780C121FD0750C01750D03780C121FD049
:103373007408121D99121FE77916123D1C12095881
:103383007408121D63E9F50C700B123D181205AA9F
:10339300800F750C018508828509831234AD123FB5
:1033A30090850C0802346E7402121D99AC82AD83B1
:1033B300850C82850D83123D221208388A108B11E9
:1033C300AC10AD11EC4D6043850C82850D83A3A336
:1033D300121FE77510007511037810121FD07510B6
:1033E300017511037810121FD07408121D99121F52
:1033F300E77916123D1C1209587408121D63E9F58A
:1034030009700B123D181205B0800F750901850C68
:1034130082850D831234AD123F90850908804C8557
:103423001882851983AC82AD83120922803A8518EC
:1034330082851983AC82AD83120928802B8518827B
:10344300851983AC82AD8312092E801C8518828571
:103453001983AC82AD83120934800D8518828519D6
:1034630083AC82AD8312093AE9F508E50860298E39
:10347300828F83A3E06414601F850E82850F83E02F
:103483009003001234B71247D5900301123F90E521
:1034930008A31234BF12058CEEFAEFFB1208B60232
:1034A3003E7CF50CEF3400F50D221247D9851882C6
:1034B30085198322F085188285198322F07C007D8B
:1034C30003850A82850B83123D262274EE121DBDED
:1034D30074FC121D4D8A0A8B0B8C0E8D0FEA24058A
:1034E300F508EB3400F5097C157D0079007A007B43
:1034F3000312111AE5082402F50CE5091234A88514
:1035030018828519838582108583117810121FD044
:10351300850882850983A3A3A3A31239D2121FD0DE
:10352300E5082405F510E5093400F5117810121F9C
:10353300D0850C82850D83123D2C1208327406123D
:103543001D638A108B11AE10AF11E50A2402F50A30
:10355300E50B123F77EE4F70030236948017740227
:10356300121D99123D2288828983EAF0A3EBF09021
:103573000300E004F0900300E0C394054003023627
:1035830094E4F510F5117810121FD07510E9751138
:10359300027810121FD07510EA7511027810121FED
:1035A300D07406121D99121FE77910EEFCEFFD127D
:1035B3003D1C1209587408121D63E9705E85088268
:1035C300850983A3A3A3A3A3A3A3E0F89002E9E03F
:1035D3006870481239D2121FD07CEA7D02E50824B4
:1035E30008FAE5093400FB1211147402121D63E991
:1035F30060298E828F83A3A3A3A3123D229003008D
:10360300E0F51074027810121D3A74012510F5824A
:1036130074033511F583EAF0A3EBF07402121D99DC
:103623008582108583117810121FD07402121D99A0
:10363300121FE7850C82850D831247EA12083E7438
:1036430004121D638A108B11AE10AF11900300E0BA
:10365300F51075110074027810121D3A74002510CC
:10366300F874033511F988828983A31231C070037A
:10367300023558E82403F8E93400F9EE4F600302F9
:1036830035618882898374FFF0A3F0900300E0041E
:10369300F0900300E0600A123D1812059E79008045
:1036A3000B850882850983123F87790A023E7C7461
:1036B300EA121DBD74FE121D4D8C128D13EA2405F2
:1036C300F50CEB124954123132750800750900EA02
:1036D3002402F510EB3400F51185188285198385D2
:1036E300820A85830B780A121FD0850C82850D838D
:1036F300A3A3A3A3123894121FD0E50C2405F50A43
:10370300E50D123F77780A121FD0850C82850D8351
:103713001247E81208327406121D638A0A8B0BEAF9
:10372300450B7003023845EA2404F50EEB12388A80
:103733001231328A828B83A3A3A3E0F98510828599
:103743001183123D22120820E9F50960030238456E
:10375300E4F514F5157814121FD07514E9751502E4
:103763007814121FD07514EA7515027814121FD03D
:103773007406121D99121FE77913AC0AAD0B85105D
:1037830082851183123D221209587408121D63E9C0
:10379300F50960030238459002E9E0F8E50870098D
:1037A300E02402900301F08017900301E0FCE82479
:1037B30002FAE43400FBEA6C7001EB60030238495F
:1037C300850882AA821239C994141239C1507385AB
:1037D3000E82850F83E0C0E074022A123881D0E0A4
:1037E300F00508850E82850F83A3E0C0E085080AF3
:1037F3007402250A123881D0E0F005089002E9121C
:103803003894121FD07CEA7D0285080A7402250AC7
:10381300FA74033400FB1211027402121D63900246
:10382300E9E02508F50874FF6E700374FF6F6012FA
:10383300EE24010EEF3400FFE508C3941450030295
:1038430036DCE5086013123C0D8510828511831266
:103853003D221205A479008014E509700375090A55
:10386300851282851383EEF0A3EFF0A90974021287
:103873001D637F0E021E8F85080C7402250CF582D2
:1038830074033400F583223400F50F850E82F5832B
:10389300221245172274EE121DBD74FE121D4D8CAB
:1038A3000E8D0FEA2405F50CEB1234A8750B00906E
:1038B3000300E4F0F50AEA2402F508EB3400F50905
:1038C3008049900300E0FA9002E9E0F81239C994C4
:1038D300171239C1400D900300E0F87416C3989095
:1038E30002E9F01239D2121FD07CEA7D0274012A58
:1038F300FA74033400FB1211027402121D63900266
:10390300E9E0F8900300E028F0050AE50C2416F539
:1039130082E50D123885E0F8E50AC39840030239C1
:10392300AA900300E0C39416507DE50AC333F8E47C
:1039330033F9E50C28FEE50D39FF851882851983D7
:10394300AC82AD838E828F83123D221208388A1097
:103953008B11AC10AD11EC4D7005750B018043E478
:10396300F510F5117810121FD07510E97511027852
:1039730010121FD07510EA7511027810121FD0743F
:1039830006121D99121FE77916850882850983128D
:103993003D221209587408121D63E9F50B700302E6
:1039A30038C5123F8380107C007D0385088285091A
:1039B30083123D221205B6A90B7402023E7EE994DE
:1039C30000C365D03322EA28F8E43400F9E822E0A2
:1039D300F51075110078102274EA121DBD74FC12E3
:1039E3001D4D8A0C8B0D8C128D13EA2405F50AEB01
:1039F300123F77750800750900E50A2402F510E502
:103A03000B3400F5117402121D9985820E85830F04
:103A1300780E121FD0850A82850B83A3A3A3A3125A
:103A230044C3121FD0E50A2405F50EE50B3400F557
:103A33000F780E121FD0851082851183123F7D12DD
:103A43003D1C1208327406121D638A0E8B0FAE0ED4
:103A5300AF0FE50C2402F50EE50D3400F50F8040A1
:103A63008882898374FFF0050812387A74FFF005A1
:103A7300089002E9E0F50C750D00780C121FD07C5C
:103A8300EA7D0285080C7402250CFA74033400FBEA
:103A93001211027402121D639002E9E02508F50871
:103AA300EE4F60718E828F83A3A3A3E0F9850E820C
:103AB300850F83123D22120820E9F509EE24041232
:103AC30034A5E97044E4F514F5157814121FD07584
:103AD30014E97515027814121FD07514EA751502CE
:103AE3007814121FD07408121D99121FE77911EE72
:103AF300FCEFFD850E82850F83123D221209587457
:103B030008121D63E9F5096027850C82850D831270
:103B13003C03123F90E5087003023BE9123C0D851C
:103B23000E82850F83123D221205BC7900023BFEF3
:103B3300850882AA82EA9002E97009E024049003CE
:103B430001F08022E0F8900301E0F514E82404FC7E
:103B5300E43400FDEC65147001ED70C01239C994B2
:103B6300121239C150B6850C82850D83E0C0E07412
:103B7300022A123881D0E0F00508850C82850D8376
:103B8300A3E0C0E012387AD0E0123C1F85820C8596
:103B9300830D780C121FD07404121D99121FE78530
:103BA30010828511831247EA12083E7404121D63C2
:103BB3008A0C8B0DAE0CAF0D85080C7402250CF826
:103BC30074033400F9EE4F7003023A63851882855B
:103BD3001983E088828983123C1FA3E0C0E0123876
:103BE3007AD0E0023A71E509700375090A850A8201
:103BF300850B83123C03123F90A9097404023872A7
:103C03001247D985128285138322900301E0F5F0D0
:103C1300E50884900300F07C007D0322F00508850D
:103C230018828519832274EC121DBD74FE121D4D7A
:103C33008A088B098C0E8D0FEA2405FEEB3400FFF6
:103C4300851882851983AC82AD838E828F83123D62
:103C5300221208388A0A8B0BEE24181234A5EA457F
:103C63000B7003023CF3123E6550328518828519AE
:103C730083123D2212094C8A108B11EA4511606BA5
:103C83007912AC0AAD0B850882850983123D228522
:103C93001082851183121DBBE9F50A7058E4F50AF9
:103CA300F50B780A121FD08E828F83A3A3E0F50A47
:103CB300780A121FD0EE2403123F74780A121FD021
:103CC3008E828F83123D2C12095E7406121D63E9E6
:103CD300F50A7021850C82850D83E0701F850882AB
:103CE300850983123D221205C28011750A0E8009CF
:103CF300750A018004E50A6003123F83850C8285FF
:103D03000D83E0600479008002A90A7402121D6326
:103D13007F0C021E8F7C007D03850A82850B831234
:103D23003D2622E0FAA3E0FB22E0FCA3E0FD8508A8
:103D330082850983123D262274EE121DBD74FE1284
:103D43001D4D8A088B098C0C8D0DEA2405FEEB347E
:103D530000FF750E00851882851983AC82AD838EB2
:103D6300828F83123D221208388A0A8B0BEA450B95
:103D73007003023E51123E655035851882851983C2
:103D8300123D2212094C8A0E8B0FEA450F605E79B1
:103D930012AC0AAD0B850882850983123D22850E7C
:103DA30082850F83121DBBE9F50E6003023E548525
:103DB300088285098312406BAA0AFB1209408A1004
:103DC3008B11A810A911E849701E7AFF7BFF120915
:103DD300408A108B11A810A911E849606C88828968
:103DE30083E50AF0A3E50BF0750A008007750E0E54
:103DF300805F050A9002E6E0FAE50AC39A504AE5B5
:103E03000A75F017A4FAABF088828983A3A3E02A8A
:103E1300FAA3E03BFB8A828B83123F7DEC4D70D289
:103E2300750A17750B00780A121FD0EEFCEFFD120E
:103E330011027402121D63EEFCEFFD8508828509F1
:103E430083123D221205C88014750E098003750E76
:103E5300011247D1850C82850D83123F90A90E0272
:103E630039BCE5082402F508E5093400F5098A821E
:103E73008B83A3A3A3E0A2E5227404121D637F0A2C
:103E8300021E8F74EC121DBD8C108D11EA2405F5F2
:103E93000CEB1234A8750F00EA2402F50AEB123F6B
:103EA30077850A82F583123D221209408A088B091D
:103EB300EA45097003023F69750E008071850C8223
:103EC300850D83E06401704F8E828F83A3A3121F3D
:103ED300E78E828F83A3A3A3A3E0F5127513007863
:103EE30012121FD0EE2405F512EF3400F5137812E9
:103EF300121FD0123D1C12095E7406121D63E9F5F0
:103F03000F6014850C82850D83E4F01247D1851070
:103F130082851183123F907C177D007900EEFAEFC2
:103F2300FB12111A8E828F83E4F0A3F0050E900228
:103F3300E6E0F8E50EC398501EE50E75F017A4F8F9
:103F4300A9F0850882850983A3A312495E123F7DE8
:103F5300EC4D6003023EC085088285098374FFF03F
:103F6300A3F0E50F7006123D1C1205CEA90F023D0A
:103F730013F50AEF3400F50B22A3E0FCA3E0FD22C6
:103F83008E828F831247D9850E82850F83E8F0A333
:103F9300E9F022C082C0839002E2E06A7003A3E0EA
:103FA3006B70067AE27B0280047A007B0002328324
:103FB300C082C08378008C828D83E06A7003A3E0A3
:103FC3006B7010E875F003A4F8A9F0EC28FAED394A
:103FD300FB8015088C828D83A3A3A3E06A7003A3DF
:103FE300E06B60DF7A007B0002328374F6121DBD42
:103FF30012090A8A828B83E582458370067A007BE5
:10400300008007A3A3A3A3123D2202468274F212E7
:104013001DBDE9FE740E121D9912406B7410121D22
:10402300991244E38C828D83E064027036A31247B5
:10403300DFF50CA3E0F9A80C740268700374296916
:104043007021750C02750D00780C121FD0780812C0
:104053001FD0780A121FD0EEF91209827406121DBE
:104063006380027901024706E0F50AA3E0F50B221B
:1040730074E8121DBD74FB121D4DE9851882851964
:1040830083F08A168B17ECFEEDFF751000741D127A
:104093001D991247D5741D121D99123F908E828F60
:1040A30083A3A3A3E0A2E4502D741D121D99123D16
:1040B3002212094C8A828B83E58245837003024472
:1040C300B4790AEEFCEFFDAA16AB17121DBBE9F596
:1040D3001060030244B7741F121D991244E3742144
:1040E300121D9912406B7423121D99E0F50EA3E083
:1040F300F50F8E828F83E064026003024462A31291
:1041030047D5850882850983A3858212858313EEAB
:1041130024061234A588828983E0FAA3E0F9EA240D
:1041230000F514E439F515781412205A010000281B
:1041330001285741070002281C420328894100290E
:10414300534301297E4302291F430329534304296F
:10415300FD436244E50E450F600302445D850C8216
:10416300850D831244D8FAE9FB8A828B83E0850AA2
:1041730082850B8312450E121FD08A828B83A3E0A4
:10418300FCA3E00243E7E50E450F600302445D85AF
:104193000A82850B837401F01244EB85088285093A
:1041A30083F07C007D008E828F83A3A3A3A3E024EE
:1041B30001FAA3E03400FB120838EA4B60418A821B
:1041C3008B83E02402F8850A82850B83E028F0EADA
:1041D3002404F8EB3400F988828983E08512828510
:1041E300138312452012450E121FD08A828B83122D
:1041F3003F7CE5082403FAE5093400FB0243EC8520
:104203000A82850B83E02404F07C047D007900AAF4
:1042130012AB1312111A0244B7E50E450F600302E5
:10422300445D1244EBFEA3E0FF850A82850B837491
:1042330004F0EE850882850983F0EF8512828513E9
:1042430083F07403121D99AC82AD83EEFAEFFB1277
:1042530008388A0C8B0DEA450D70030243008A82ED
:104263008B83A3A312312E7401121D9985820E85AF
:10427300830F780E121FD07405121D99121FE77C4D
:10428300FF7DFF12083E7404121D638B0FEA450F76
:104293007033850C82850D831244C3121FD0850CA5
:1042A30082850D83A3121FE77C027D007ABF7B8189
:1042B30012066A7404121D63E9700A7401121D99CF
:1042C30074FFF0A3F08E828F83E064027039750C63
:1042D30002750D00780C121FD08E828F83123F7CE3
:1042E300E5082404FAE5093400FB121102740212F2
:1042F3001D63850A82850B83E02402800974011201
:104303001D99EEF0A3EFF07401121D991244D4F03D
:104313007401121D99A31244CC024457E50E450FB4
:10432300600302445D850C82850D83123F7DAA16CE
:10433300AB17120976850A82850B837402F0EA852E
:104343000882850983F0851282851383EB02445A20
:10435300E50E450F600302445D1244EBF8A3E0F958
:10436300850A82850B837402F0E8850882850983B8
:10437300F0E985128285138302445A850C82850DE8
:1043830083123D221210FCEAFC8C82A882C3950E94
:10439300E4950F405FE8650E7002E50F70047C0042
:1043A3008022851882851983E0FAE50E2AFAE50F43
:1043B3003400FBC3EA98EB94005003E08005E50E5C
:1043C300CCC39CFCEC850A82850B83F08C0A750BAD
:1043D30000780A121FD0850C82850D83E0250EFC20
:1043E300A3E0350FFDAA08AB091211027402121DD6
:1043F300630244B77510070244B7E50E450F705AC0
:10440300850C82850D831247D5850A82850B8374BB
:104413000712313A1244CC12313AA3E08512828555
:104423001383F0E82402FAE93400FB8A828B8312B7
:1044330044CC1244FB1244D4A31245041244DDF0CD
:10444300E82405F8E93400F9888289831244DDA35E
:10445300124520A3A3A3A3F0805A75100B805574B3
:104463001D121D99123D2212090A8A828B83E5824D
:104473004583603D1247D5880C890DE8450D6031B1
:10448300780E121FD0780A121FD07808121FD0742A
:1044930006121D99E0F9EEFCEFFDAA16AB17850C89
:1044A30082850D83121DBB7406121D63E9F510800E
:1044B3000375100EA9107405121D637F10021E8F61
:1044C300E0F50E750F00780E22E0850882850983DA
:1044D3002212452A221247D9E82212452AA3A322EF
:1044E300E0F508A3E0F50922850C82850D83E0F849
:1044F300A3E0F5838882E022A3A3F08A828B83A3BF
:1045030022F088828983A3A3A3A322F08A828B83C8
:1045130012451722E0F50A750B00780A22F088820B
:104523008983A312452A22E0850882850983A3A3F0
:104533002274EE121DBD74FE121D4D8A0A8B0BEC04
:10454300FAEDFB7414121D99E0F510A3E0F5117454
:1045530016121D99E0FE7418121D99E0F50EA3E0E2
:10456300F50F851882851983AC82AD831208388ACA
:104573000C8B0DEA450D6049851882851983123D20
:104583002212090A8A828B83E5824583602FA3A3C3
:104593001244E3E50845096024780E121FD0781011
:1045A300121FD0EEF9AC0CAD0DAA0AAB0B85088235
:1045B300850983121DBB7404121D638006790E8066
:1045C3000279010239BC74F6121DBD74FE121D4D31
:1045D300740C121D991244D8851882851983F074BE
:1045E30001121D99E9F0E4F508F5097808121FD0C6
:1045F3007508027808121FD07404121D9985820869
:104603008583097808121FD012095E7406121D6390
:104613007402121D63806874F7121DBDEAFEEBFF7E
:1046230089087C197D03120976EA5402600BA908F4
:10463300EEFAEFFB12082C8002790102303674F691
:10464300121DBD74FF6A700374FF6B70168C828D2C
:1046530083124687E4F08C828D83A3A3A31246873B
:10466300A380181209468A088B09A808A909E849F2
:10467300600D8882898374FF123138A3A3E4F07F2D
:1046830002021E8F74FFF0A3F08C828D83A3A322FA
:1046930074F6121DBD1209468A828B83E582458317
:1046A3006006A3A3E0FA80027A007B0080D174F253
:1046B300121DBD8A088B09ECFEEDFF740E121D99C5
:1046C300E0F50A1209468A0C8B0DA80CA90DE849DE
:1046D3007026EEFCEFFD7AFF7BFF1209468A0C8BF6
:1046E3000DA80CA90DE849700479118016888289F8
:1046F30083E508F0A3E509F088828983A3A3E50A8B
:10470300F079007F06021E8F74EE121DBDEAFEEBE8
:10471300FF8C088D09890C7414121D991247D574E6
:1047230016121D99123D22750D00E84960030247D8
:10473300C97402650C60030247C47412121D9912F6
:1047430047DFFCA3E0F9EC2400F50EE439F50FEAAA
:10475300F4F8EBF4F9EC58F8E50F59F9E849705C13
:10476300E5082406F8ED3400F9880A890B8882F5F8
:10477300831247EA1209768A108B11E50E651070D1
:1047830004E50F65116042780E121FD0850A8285F9
:104793000B831247EA12097C7402121D63E9F50DBB
:1047A3007027780E121FD0850882850983A3A31270
:1047B30047E81209947402121D63800D750D808001
:1047C30008750D0D8003750D0BA90D023E818E82B8
:1047D3008F831247D922E0F8A3E0F9221247D98840
:1047E300828983E022A3A3E0FCA3E0FDEEFAEFFBC2
:1047F3002274E8121DBD74E7121D4D8518828519B8
:1048030083EAF0A3EBF08C168D17890E75080075FB
:1048130009007431121D99E0F512A3E0F513743306
:10482300121D99E0F514A3E0F5157435121D99E0F6
:10483300F50FE50975F003A4F8A9F0851882851929
:104843008312495EE0F47003A3E0F470030249416C
:10485300EE2402F50CEF124954E07003024941853E
:10486300160A85170B780A121FD0AC14AD15AA12BD
:10487300AB131208FE7402121D638A0A8B0BEA45FE
:104883000B7003024941E4F510F5117810121FD0A3
:104893007406121D998582108583117810121FD01A
:1048A3007409121D998582108583117810121FD007
:1048B300851282851383A3A3A3A3121FE77914ACE4
:1048C3000AAD0B8E828F83123D221209587408128F
:1048D3001D63E97069850A82850B83A3A3A3A312D1
:1048E30047D57402121D99123F90850C82850D8362
:1048F300E0A2E05018A90E7402121D99AC82AD8398
:104903008E828F83123D22120850E94208850C8261
:10491300850D83E0A2E15026E50FF50A780A121F00
:10492300D4A90E7403121D99AC82AD838E828F833A
:10493300123D2212084A7401121D63E94208050957
:10494300E509C394025003024835A90874190244C7
:10495300BB3400F50D850C82F58322E028FEA3E02D
:1049630039FF8E828F832274F2121DBDEAFEEBFFA4
:10497300890B7401650B600E7402650B706A790113
:10498300120B50E97062EEFAEFFB1209408A088BB2
:1049930009EA45096047750A00800B7C177D007999
:1049A3000012111A050A9002E6E0F8E50AC39850CE
:1049B30021E50A75F017A4F8A9F085088285098313
:1049C300A3A3E028FAA3E039FB8A828B8312328AFD
:1049D30070C985088285098374FFF0A3F07C197D73
:1049E30003EEFAEFFB12097002470674F2121DBDC3
:1049F3008A088B09ECFEEDFF740E121D9912406BB1
:104A0300900A6AE0F4603D7A097B00121126EA4BB2
:104A130060328A828B8374B1F0A3E41244FDA31243
:104A230044FBA3E508F0A3E509124A4AEEF0A3EF1D
:104A3300124A4AA3A3E50AF0A3E50BF0900A6AE041
:104A4300F9121132024706F08A828B83A3A3A3A330
:104A5300A322C082C0839061907404F0A37448F0D1
:104A6300A37402F09061807440F09061BC7403F011
:104A73009061877419F0906265741BF0906249E04D
:104A8300C3941390619C400A7409F09060667401AA
:104A93008007740DF0906066E4F090619A7433F0CF
:104AA300A37455F09061A0743AF090053FE064015F
:104AB3007009C2919003A6746780059003A6746180
:104AC300F0902FF2E493906186F0902FECE493F44E
:104AD3006027E493540FF8906185E0686012E5C69F
:104AE30054804449F5C6E59E547F644970F8E8F064
:104AF30053C680E59E547F70FA7905120EAA024CC4
:104B0300B0C082C083E9540FF9906185E0696012F7
:104B1300E5C654804449F5C6E59E547F644970F860
:104B2300E9F053C680E59E547F70FA024CB0C08210
:104B3300C083E5A8F853A87E906181E4F0A3F0A3B5
:104B4300F0C2BA539AFEC289759B00C2C275E900CE
:104B530075910075BF0075A91175B905906181F054
:104B6300A374C0F0A3E4F0D2BA439A01748058420C
:104B7300A8024CB0C082C08374F8121D4D9003A4E8
:104B8300E0F8A3E0F9E8497003024CA59003A4E020
:104B9300544060237908851882851983AA82AB83E0
:104BA300120D0C851882851983AA82AB83120A0021
:104BB3009003A4E054BFF0E054806010790C7A6550
:104BC3007B05120D0C9003A4E0547FF0E0A2E050AB
:104BD3003190619A7433F0A37455F09061A0743AE4
:104BE300F090053FE064017009C2919003A67467D9
:104BF30080059003A67461F0120A069003A4E054A2
:104C0300FEF0E05402603190619A743FF0A3745A4D
:104C1300F09061A0747FF090053FE064017009D2C9
:104C2300919003A6747180059003A6746AF0120A2A
:104C3300069003A4E054FDF0E054046013902FF0B9
:104C4300E493906186F0120A0C9003A4E054FBF005
:104C5300E054086013902FF1E493906186F0120AF8
:104C63000C9003A4E054F7F0E054106013902FF27B
:104C7300E493906186F0120A0C9003A4E054EFF0E1
:104C8300E05420600A120A0C9003A4E054DFF0A35E
:104C9300E05401600D120C34120A129003A5E05483
:104CA300FEF07408121D63024CB0F0A3F0D083D061
:104CB3008202013274EC121DBD74F4121D4D85186D
:104CC30082851983AC82AD83758381758270740488
:104CD300121C60902FF093F46003024E4390780807
:104CE300E0C394025003024E237404121D99AC8254
:104CF300AD837583807582F67408121C60851882F3
:104D03008519838582128583137404121D99AC82DD
:104D1300AD83750EFF750FFF7FFF7E00750C487521
:104D23000D78801574086E7003024DB774096E70A8
:104D330003024DB7740A6E607B850C82850D837800
:104D430008121C058C828D83A909E50AC9F888100D
:104D530074187808121B33E5104508F8C3E098A3CC
:104D6300E099850C82850D837808121C0540188C08
:104D7300828D8374187808121B33E5104508F8E018
:104D8300C398F8A3E0801C74187808121B33E5104D
:104D93004508FAE9FB8C828D83E0F8A3E0F9EAC3C6
:104DA30098F8EB99F9C3E8950EE9950F5006880E2C
:104DB300890FEEFF0EE50C2404F50CE50D3400F528
:104DC3000DEEC394135003024D2774FF650E700458
:104DD30074FF650F60238F0874027808121D3A74FC
:104DE300482508F58274783509F5837808121C057F
:104DF300851282851383E508F0EC2402FCED340070
:104E0300FD851282851383A3858212858313740C17
:104E1300121D99E5826C7003E5836D6003024D15E5
:104E23007508017509007808121FD07402121D99C4
:104E3300AC82AD837AFC7B0B1213B47402121D6334
:104E4300740C121D637F0C021E8FC082C08390619D
:104E5300AE7468F0A3746AF090624574FBF0A30427
:104E6300F053F4FD43FE0290053F7401F09061A0FE
:104E7300E0643A90619A70237433F0A37455F09010
:104E830061A0743AF0740164017009C2919003A6A1
:104E9300746780289003A674618021743FF0A37423
:104EA3005AF09061A0747FF0740164017009D2918B
:104EB3009003A6747180059003A6746A024CAF7FB9
:104EC30008021E8FC082C0839004F1E06401700A5F
:104ED3009004F6E06004790C80027900024CB0C0C3
:104EE30082C08375E1F19004F4E0605B14600914FF
:104EF300605F14605714705E120C469004EAE0F988
:104F03007AEB7B04120E2C7AD67BBE7C897D8E12C3
:104F13000E627A557B557C557D00120E389004F550
:104F2300E0F9120E447901120E9E9004E8E0F8A312
:104F3300E0C82416F582E83400F583745EF0A374A8
:104F43000CF07900024CB0120C4C80AF120C528062
:104F5300AA120C5880A5791280EA74F0121DBD754F
:104F6300D90D9004D5E0A2E0E4331313F89004EADA
:104F7300E0C4333354C0484401F5D978E879048850
:104F8300828983A3A3A3E0F5D988828983A3A88216
:104F9300A983E864EE7003E9640470E378D57904C7
:104FA30088828983A3E0F5D988828983A3A882A90B
:104FB30083E864DB7003E9640470E575E1959004AC
:104FC300D5E0F97AD67B04120E32900A8C74F2F093
:104FD300A3740BF0A37454F0A3740DF0A37454F0F2
:104FE300A3740DF0A37454F0A3740DF0A374F8F03C
:104FF300A3740BF0A37454F0A3740DF0A37410F016
:10500300A3740CF0900A9A7454F0A3740DF0A37473
:1050130054F0A3740DF0A37454F0A3740DF0A374AF
:1050230054F0A3740DF0A37454F0A3740DF0A3749F
:1050330054F0A3740DF09004F4E064019004E8705C
:1050430012E0F8A3E0F5838882A3A375080075092D
:10505300088010E0F8A3E0F5838882A3A375080411
:10506300750900750A00750B007808121B7E750C14
:10507300FF750DFF750EFF750F007808790C121B75
:10508300CC9004E8E0F8A3E0C8240EF582E83400ED
:10509300F5837808121C149004E8E0F8A3E0C82410
:1050A30014F582E83400F5837413F09003A27402BC
:1050B300F0024EC274F7121DBD9004FAE02407F506
:1050C300D99004EAE0C4333354C0F5D978E87904BD
:1050D30088828983A3A3A3E0F5D988828983A3A8BF
:1050E30082A983E864EE7003E9640470E39004FA30
:1050F300E0601F78E87904FAE82413F582E93400C4
:10510300F583E0F5D988828983A3A882A9831AEA63
:1051130070E690051AE02407F5D99004EAE0C43359
:105123003354C04404F5D978E8790488828983A389
:10513300A3A3E0F5D988828983A3A882A983E8641D
:10514300EE7003E9640470E390051AE0601F78E8E9
:105153007904FAE82433F582E93400F583E0F5D9DC
:1051630088828983A3A882A9831AEA70E675E195E8
:10517300900A8C74FEF0A3740BF0A37454F0A37420
:105183000DF0A37454F0A3740DF0A37454F0A3743E
:105193000DF0A374F8F0A3740BF0A37454F0A3748C
:1051A3000DF0A37410F0A3740CF0900A9A7454F0E9
:1051B300A3740DF0A37454F0A3740DF0A37454F00E
:1051C300A3740DF0A37454F0A3740DF0A37454F0FE
:1051D300A3740DF0A37454F0A3740DF09004E8E0ED
:1051E300F8A3E0C8240EF582E83400F58374FFF0D9
:1051F300A3F0A3F0A3F09004E8E0F8A3E0C824141C
:10520300F582E83400F5837412F09003A27401F080
:10521300FF021E8F74F7121DBD9004FAE02407F5F8
:10522300D99004EAE0C4333354C04402F5D978E892
:10523300790488828983A3A3A3E0F5D9888289832B
:10524300A3A882A983E864EE7003E9640470E39081
:1052530004FAE0601F78E87904FAE82413F582E998
:105263003400F583E0F5D988828983A3A882A983D2
:105273001AEA70E675E195900A8C740AF0A3740C2F
:10528300F0A3740AF0A3740CF0A3740AF0A3740CD3
:10529300F0A3740AF0A3740CF0A3740AF0A3740CC3
:1052A300F0A3740AF0A3740CF0A37410F0A3740CAD
:1052B300F0900A9A7454F0A3740DF0A37454F0A3FD
:1052C300740DF0A37454F0A3740DF0A37454F0A3FD
:1052D300740DF0A37454F0A3740DF0A37454F0A3ED
:1052E300740DF09004E8E0F8A3E0C8240EF582E81A
:1052F3003400F58374FFF0A3F0A3F0A3F09004E867
:10530300E0F8A3E0C82414F582E83400F5837414AC
:10531300F09003A27404F00255DE74F7121DBD90E1
:1053230004FAE02407F5D99004EAE0C4333354C007
:105333004406F5D978E8790488828983A3A3A3E096
:10534300F5D988828983A3A882A983E864EE7003D0
:10535300E9640470E39004FAE0601F78E87904FAE2
:10536300E82413F582E93400F583E0F5D9888289CE
:1053730083A3A882A9831AEA70E690051AE024079A
:10538300F5D99004EAE0C4333354C04404F5D97822
:10539300E8790488828983A3A3A3E0F5D988828965
:1053A30083A3A882A983E864EE7003E9640470E32D
:1053B30090051AE0601F78E87904FAE82433F5824F
:1053C300E93400F583E0F5D988828983A3A882A90B
:1053D300831AEA70E675E195900A8C7404F0A3745D
:1053E3000CF0A37454F0A3740DF0A37454F0A374DD
:1053F3000DF0A37454F0A3740DF0A37454F0A374CC
:105403000DF0A37454F0A3740DF0A37410F0A374FF
:105413000CF0900A9A7454F0A3740DF0A37454F032
:10542300A3740DF0A37454F0A3740DF0A37454F09B
:10543300A3740DF0A37454F0A3740DF0A37454F08B
:10544300A3740DF09004E8E0F8A3E0C8240EF582FD
:10545300E83400F58374FFF0A3F0A3F0A3F0900405
:10546300E8E0F8A3E0C82414F582E83400F5837477
:1054730015F09003A27403F00255DEC082C083903E
:1054830004E8E0F8A3E0C82406F582E83400F583D5
:10549300E4024CAD74F7121DBD9003D0E0F875F033
:1054A30003A4C8AAF02AF974D228F8740339F9E8D6
:1054B3002405FAE93400FB8A828B83E0FCA3E0FD38
:1054C30088828983A3A3A3A3A3A3A3A3A3ECF0A389
:1054D300EDF088828983A3A3A3A3A3A3A3E024FF5E
:1054E300F8A3E034FFF98A828B83E8F0A3E9F002A2
:1054F30055DE74F7121DBDEAFEEBFF9061D0E0604C
:10550300030255D275D90E75D90375D904EE248BD0
:10551300F582EF3400F583E5822408F8E58334004F
:10552300F9E0F5D9A3E865827003E9658370F2EECB
:105533002483F582EF3400F583E5822404F8E583C0
:105543003400F9E0F5D9A3E865827003E965837057
:10555300F275E1957908EE248BFAEF3400FB120D16
:10556300007904EE2483FAEF3400FB120D007C0073
:10557300EEF8EFF9ECFAC3E49AFA95E0FBEE2AFAB7
:10558300EF3BFBEA248AF582EB3400F583E0C0E0CD
:10559300E824AAF582E93400F583D0E0F00C888290
:1055A3008983A3A882A983ECC3940840C7EE246F20
:1055B300F582EF3400F583E0F8A3E0F9EE2471F50A
:1055C30082EF3400F583E8F0A3E9F07901800279F2
:1055D300008008F0EEA2E092AF79007F01021E8FF7
:1055E300C082C08375D90275D90375D90575E19554
:1055F300EA246FF582EB3400F583E0F8A3E0F9EADF
:105603002471F582EB3400F583E8F0A3E9F0790126
:10561300024CB074F6121DBDEAFEEBFF9005457413
:1056230006F07508457509057808121FD07C0179C5
:1056330003120D487402121D6375D90675D90375DB
:105643008245758305E0F5D9A3E582644A7004E5D4
:1056530083640570F075E1959003A2E06408701E01
:10566300EE246FF582EF3400F583E0F8A3E0F9EE62
:105673002471F582EF3400F583E8F0A3E9F07901B2
:105683000258E474F6121DBDEAFEEBFF9061D0E010
:1056930070667801900545740BF09003A2E06407EF
:1056A30070197508457509057808121FD07C0179B2
:1056B30003120D487402121D637805740128F5D98D
:1056C30075D903758245758305E8FAE0F5D9A31A00
:1056D300EA70F875E195EE246FF582EF3400F583F7
:1056E300E0F8A3E0F9EE2471F582EF3400F583E8E6
:1056F300F0A3E9F07901800279000258E474F7120B
:105703001DBDEAFEEBFF75D90375D90375D90DEEFF
:1057130024DDF582EF3400F583E0F5D975E1957961
:1057230004120E68EE246FF582EF3400F583E0F87F
:10573300A3E0F9EE2471F582EF3400F583E8F0A3DA
:10574300E9F079010255DE74F6121DBDEAFEEBFFA6
:105753009061D0E0F87480C398FAEE2482F582EF6A
:105763003400F583E06004780480027800E8240BB9
:10577300F8EAC398500302580F7D09900545EDF0F0
:10578300EE24E2F8EF3400F97A467B057C08888240
:105793008983E08A828B83F088828983A3A882A984
:1057A300838A828B83A3AA82AB831CEC70E0EE24F2
:1057B30082F582EF3400F583E0601D7508457509B5
:1057C300057808121FD07C097903EEFAEFFB120D5E
:1057D300487402121D637D0D74012DF5D975D9032B
:1057E3007582457583058D08E0F5D9A31508E5088D
:1057F30070F675E1957904120E68EE241DF582EFBB
:105803003400F583E4F0A3F07901800279000258B3
:10581300E474F6121DBDEAFEEBFF9061D0E0F8746C
:1058230080C398FAEE2482F582EF3400F583E060BA
:1058330004780480027800E82408F8EAC398500347
:105843000258E27806900545740CF09003BFE0908F
:105853000546F09003C0E0900547F09003C1E09047
:105863000548F09003C2E0900549F09003C3E0902F
:10587300054AF0EE2482F582EF3400F583E0601BE5
:105883007508457509057808121FD07C067903EE63
:10589300FA120D487402121D63780A740128F5D9AF
:1058A30075D9037582457583058808E0F5D9A31575
:1058B30008E50870F675E1957904120E68EE246F19
:1058C300F582EF3400F583E0F8A3E0F9EE2471F5F7
:1058D30082EF3400F583E8F0A3E9F07901800279DF
:1058E300007F02021E8F74F6121DBDEAFEEBFF90CD
:1058F30061D0E0F87480C398FAEE2482F582EF3425
:1059030000F583E06004780480027800E82404F85A
:10591300EAC39850030259C37802900545E8F0EEB4
:1059230024F4F582EF3400F583E0900546F0EE248D
:1059330082F582EF3400F583E0601B750845750935
:10594300057808121FD07C027903EEFA120D487411
:1059530002121D637806740128F5D975D90375827F
:10596300457583058808E0F5D9A31508E50870F6A1
:1059730075E195EE2473F582EF3400F583E4F0EEE0
:10598300247FF582EF3400F583E4F0EE241DF582E5
:10599300EF3400F583E4F0A3F07904120E68EE24EB
:1059A3000DF582EF3400F583E0F8A3E0F9EE2471FE
:1059B300F582EF3400F583E8F0A3E9F07901800282
:1059C30079000258E474F6121DBD9061D0E0F874BA
:1059D30080C398FCEA2482F582EB3400F583E0600F
:1059E30004780480027800E82404F8ECC398405B50
:1059F30079029005457407F0EA24F5F582EB34004B
:105A0300F583E0900546F0EA2482F582EB3400F555
:105A130083E060187508457509057808121FD07C66
:105A23000209120D487402121D637906740129F5E7
:105A3300D975D903758245758305E9F8E0F5D9A3CE
:105A430018E870F875E1957901800279000258E44D
:105A530074F5121DBDE9FCA2AFE433F50AC2AF7DB4
:105A63000080010DEA246EF582EB3400F583E0F843
:105A7300EDC398501A8D08EA2508F8EB3400F9E8CD
:105A8300246AF582E93400F583E06C70D68024EA59
:105A9300246EF8EB3400F9E0FEEA2EFAEB3400FB57
:105AA300EA246AF582EB3400F583ECF0888289837B
:105AB300E004F0E50AA2E092AF7F03021E8F74F6C2
:105AC300121DBDA2AFE433FDC2AFEA246EF582EB33
:105AD3003400F583E014F07C0060368C08EA250876
:105AE300F8EB3400F9E8246BF582E93400F583E040
:105AF300C0E0E8246AF582E93400F583D0E0F00CD5
:105B0300EA246EF582EB3400F583E0F8ECC39840A9
:105B1300CAEA246DF582EB3400F58374FFF0EA24BE
:105B230069F582EB3400F583E4F0EDA2E092AF0275
:105B330058E4C082C083E5A8F8C2AFEA246AF582BC
