:020000040000FA
:0600000002010702210FBE
:03002B000225911A
:0300530002218205
:03006B0002251D4E
:10008300021F7BE5C754F84401F5C779012200003C
:100093000080FB120086B900030200F1E4792178A5
:1000A30008B800028004F709D8FCE479297802B87B
:1000B30000028004F709D8FCE490028178B4790740
:1000C3008002F0A3D8FCD9FA7A347B0990013778FF
:1000D300FC79038015E493A3AD82AE838A828B837C
:1000E300F0A3AA82AB838D828E83D8E9D9E7758288
:1000F300A77583FF740212011975829175830074C9
:100103000012011975D00075813F751881751902A8
:10011300759F00020096C09FF59FE473D09F22D085
:1001230083D082C09FE493C0E0740193C0E0740263
:1001330093F59F22FF0000B4000028002800283018
:1001430075A000A000A000A00000080008E001F0D6
:10015300001000100010001000100010005000509C
:1001630000500010001000D0070000000000000F36
:100173000001000500307507001000010081FF0039
:10018300000000FF30064E063606FF020202080298
:100193005000A0000000E803028D8101000074817B
:1001A3000291810100008B09029781010000B302D3
:1001B3000291810100008C09029981010000C902AA
:1001C3000291810100008D09029B81010000CB0295
:1001D3000291810100008E09029D81080000CC027A
:1001E3000291810100008F09029F810100009009A3
:1001F300FF0100FF20028D810100007181029181C6
:10020300010000F40902A1810000000000029581B1
:100213000300001903F40BF40BF40BF40BF40BF4CD
:100223000BF40BF40BF40BF40BF40BF40BF40B7651
:100233000E8E0E700EFFFF0A0950495253656E73FE
:100243006F72051220032003020A000201065049BF
:10025300522053656E736F720000000000000000AF
:10026300000000E80300040003504952004000006E
:1002730000000A566F6C74616765206D5601681043
:10028300000074100040000000000A566F6C746197
:100293006765206D561241494E20566F6C74616735
:1002A30065286D5629000A0141494E20436F6E6649
:1002B3002E000A0A41494E20506572696F6400029C
:1002C3008D810100006881029181010000950A027D
:1002D3007981010000840A02958103000066070208
:1002E3009381010000960A029181010000A60A028F
:1002F3008181030000A70A029381010000A80A027A
:100303009181010000B20A027D81030000B30A0259
:100313009381010000B40A020202020202020202F5
:10032300010D0000001001028D810100006E8102A9
:100333009181010000170B02A7810100006C0702E5
:100343009181010000180B02A581010000DE8002EB
:100353009181010000190B02A381010000D08002EA
:1003630091810100001A0B028781010000F68002CF
:1003730091810100001B0B028581010000FD8002B9
:1003830091810100001C0B02838101000012810294
:1003930091810100001D0B02AF8101000004810265
:1003A30091810100001E0B027F81010000C28002C7
:1003B30091810100001F0B027B81010000200B01D2
:1003C300E803053F100A7FFF0001307503020106B1
:1003D300000000000000000000000000000000001A
:1003E300000000000000000000000000FFFF060006
:1003F300800CE80300040003504952125049522074
:1004030053746174757300028D810100006B810266
:100413009181010000FB0B02AD81010000F40B028E
:1004230095810300002E09029381010000FC0B1249
:1004330001227E9003120122959003120122C6909D
:10044300031201220191031201222B9103120122B3
:100453005591031201226C9103120122839103121D
:1004630001229A9103120122C39103120122D69110
:1004730003120122EC9103120122FF9103120122C4
:10048300269203120122D0A502120122D4A602123F
:1004930001220CA7021201222FA7021201223AA75E
:1004A300021201225DA7021201226CA8021201228C
:1004B30041A902120122BCA90212012244AA02127A
:1004C30001227FAA02120122B6AA0212012244AB20
:1004D300021201221DAC021201227DAC0212012282
:1004E30088AC0212012207AD021201220AAD0212E8
:1004F30001220DAD021201229CAD021201229FAD19
:1005030002120122CFAD02120122F9AD0212012221
:10051300E7AE0212012299AF02120122A7DF0212F3
:100523000122CFDF02120122FDDF0212012234E099
:100533000212012292E002120122DDE002120122E4
:1005430028E10212012268E102120122AEE1021245
:100553000122DCE10212012299E202120122A3E24A
:1005630002120122B0E202120122E3E2021201228C
:10057300AFE302120122BBE302120122D3E3021210
:100583000122DDE302120122C29A03120122D09A50
:1005930003120122E89A03120122009B0312012293
:1005A30027B901120122D3B9011201224EBA011255
:1005B30001226FBB01120122ABBB0112012254BC09
:1005C300011201223BBD011201229FBE0112012231
:1005D300F6BE0112012277BF0112012267C0011288
:1005E3000122B4C0011201223AC1011201226CC1DD
:1005F3000112012280C301120122C2C3011201228E
:10060300E0C30112012263C40112012237C50112A2
:100613000122FFC501120122E3C702120122B6C85B
:10062300021201225FC902120122B2C9021201227F
:1006330062CA02120122EECA02120122DACB0212AC
:10064300012209CC021201221CCD0212012264CD27
:100653000212012239CE0212012275CE02120122A8
:1006630091CE02120122059D03120122D1F9021239
:100673000122E7F9021201220DFA0212012229FBDB
:100683000212012233FB0212012268FC0212012230
:1006930060FD0212012280DA02120122B0DB021293
:1006A3000122E3DB021201222DDC02120122F4DD1E
:1006B30002120122076D00120122716D0012012244
:1006C300D06E00120122E06E001201220D6F0012A3
:1006D3000122646F001201220D70001201221471B5
:1006E30000120122DE71001201223E730012012268
:1006F3008173001201222674001201227374001206
:100703000122997400120122A77600120122AC760D
:1007130000120122B17800120122FE780012012298
:10072300717900120122A47900120122467A001283
:100733000122EF7A00120122277B001201222A7B79
:1007430000120122727B00120122B27B00120122ED
:10075300097C00120122C08603120122D8860312EB
:1007630001222087031201223687031201227D878B
:10077300031201229188031201221E89031201220E
:10078300698903120122BC2500120122C825001227
:100793000122032600120122482600120122082703
:1007A300001201228E2700120122F32700120122D8
:1007B3001F2800120122582800120122962A001233
:1007C30001227A2C00120122602E00120122A32F93
:1007D30000120122F131001201220333001201221F
:1007E3004E34001201225E35001201227B350012C5
:1007F3000122B63500120122D835001201223B3600
:1008030000120122FC3A00120122913B0012012244
:10081300E23B00120122093C001201225B3C001260
:100823000122793C00120122D33C00120122BC3D7B
:1008330000120122323F00120122B63F00120122B0
:1008430064E4021201226EE402120122B1E40212F4
:100853000122CCE4021201225CE50212012284E5AA
:1008630002120122C1E502120122F8E5021201225D
:1008730021E60212012296E602120122ABE60212DF
:100883000122C0E602120122F1E60212012205E76B
:10089300021201222AE70212012264E70212012254
:1008A30090E70212012213E8021201225CE802120D
:1008B300012286E802120122B1E802120122D59632
:1008C30003120122CF8D02120122FD8D0212012299
:1008D3004B8F021201222B90021201224A90021224
:1008E3000122C790021201220A9102120122609290
:1008F30002120122219302120122A895021201225F
:100903004996021201223F97021201223C980212D9
:100913000122969902120122219A021201227A954A
:1009230003120122E39503120122379603120122D7
:100933005E96031201228F9603120122D9E8021256
:10094300012246E9021201228DE902120122A5EADF
:1009530002120122A1EB0212012284EC02120122F3
:100963000AB0021201224CB0021201221EB102127D
:100973000122F7B102120122F1B202120122D3B312
:10098300021201223CB402120122F2B40212012229
:1009930066B502120122D2B502120122FBB5021280
:1009A300012275B6021201220EB70212012273B799
:1009B3000212012288B702120122CEB702120122CB
:1009C300E7B7021201224CB8021201224FB80212F9
:1009D3000122F67C001201221E7D001201225C7DA1
:1009E300001201221A7E00120122817E00120122CE
:1009F3009D7E00120122C57E00120122F57E0012A7
:100A03000122047F00120122817F00120122A77FAD
:100A130000120122EFA901120122CDAB0112012222
:100A2300FFAD011201223BAE0112012268AE011299
:100A3300012252AF011201229DAF01120122E8AF40
:100A430001120122FAAF011201223AB0011201226E
:100A53006FB001120122BDB001120122ECB00112EC
:100A630001220FB1011201225CB101120122E1B195
:100A730001120122FBB3011201223AB60112012233
:100A83007BB6011201221DB8011201225EB80112C8
:100A93000122D1B80112012287F20112012285F34A
:100AA300011201221EFA011201223FFC011201224E
:100AB3000AFE0112012272FF011201221D400012DF
:100AC3000122CC40001201221241001201225242A3
:100AD30000120122E84300120122624400120122A3
:100AE3007D4400120122F8440012012252460012F2
:100AF3000122B24700120122B84800120122194A0A
:100B030000120122324A00120122904A00120122ED
:100B13007E4B00120122B14B00120122214C001224
:100B230001229B4C00120122E54C00120122AF4D21
:100B330000120122844E00120122634F001201228F
:100B4300EE4F001201225C5000120122D05000121D
:100B53000122FB5000120122BA51001201221F533D
:100B6300001201223C53001201225B5300120122A6
:100B73004C54001201227154001201229B540012A2
:100B83000122165500120122705500120122D95676
:100B930000120122875700120122C85700120122B6
:100BA300B3E40112012201E5011201220DE5011254
:100BB3000122EBE5011201221CE6011201224DE69E
:100BC30001120122CDE60112012205E701120122E1
:100BD30057E70112012294E701120122B1E9011240
:100BE3000122D7EB01120122C2ED01120122ACEF67
:100BF30001120122FAFF02120122DC9501120122E5
:100C03000C9601120122E59C011201226A9E011237
:100C1300012267A4011201224FA5011201228CA512
:100C230001120122AFA501120122E0A50112012246
:100C3300E9A501120122F3A501120122E1A6011285
:100C43000122D7A701120122F85700120122F75BF4
:100C530000120122FD5B00120122386300120122FF
:100C63005168001201227983031201227384031253
:100C73000122E784031201222585031201229985AB
:100C8300031201221286031201221B860312012280
:100C93002786031201223C86031201227A8603125D
:100CA300012290860312012246ED0212012253ED26
:100CB300021201226DED02120122ACED0212012299
:100CC300EAED021201224FEE0212012264EE021239
:100CD30001226FEE021201227CEE0212012293EE38
:100CE30002120122A1EE02120122ACEE0212012233
:100CF300B8EE02120122C7EE02120122D2EE021254
:100D03000122F5EE021201229CEF02120122ACEF46
:100D130002120122C6EF02120122E3EF02120122A4
:100D2300FFEF0212012224F0021201222FF002121D
:100D3300012244F00212012258F002120122B9F0FA
:100D430002120122BFF002120122C5F00212012297
:100D5300CBF002120122E3F00212012216F1021279
:100D6300012289D6011201220DD701120122BCD71B
:100D7300011201221BD9011201223CDB01120122C3
:100D830028DC011201225DDC011201227FDC011249
:100D930001222EDD0112012226DF011201224FDF83
:100DA30001120122E1DF0112012213E001120122EB
:100DB30020E00112012277E0011201229DE00112DD
:100DC30001220AE3011201220DE40112012265E46A
:100DD3000112012218C80112012222C901120122A3
:100DE30009CA0112012213CA0112012235CA0112D2
:100DF300012241CA01120122DACB0112012209CCDC
:100E03000112012225CD011201227ECD0112012200
:100E1300E4CE01120122C3CF011201221FD001121D
:100E230001228CD001120122C7D00112012206D166
:100E330001120122BFD301120122D9D301120122CF
:100E430065D40112012273D401120122CCD4011200
:100E53000122DAD4011201224DD501120122B1D5AA
:100E630001120122FBD501120122A29A02120122D0
:100E7300C49A02120122EA9C02120122FF9F02126B
:100E8300012217A102120122CAA102120122ACA25D
:100E9300021201223892031201225D9203120122EF
:100EA300CF920312012269C00212012272C0021200
:100EB30001227BC00212012252C10212012203C38A
:100EC3000212012239C30212012273C30212012248
:100ED300A9C302120122E3C30212012217C40212A0
:100EE300012243C4021201228CC402120122C6C48D
:100EF300021201220FC50212012267C5021201224A
:100F03009CC502120122F7C50212012231C6021248
:100F1300012282C602120122B8C602120122F2C6BF
:100F23000212012220C70212012243C70212012228
:100F33005A9C03120122869C03120122E19C031294
:100F43000122EB9C03120122FB9C0312012210D508
:100F5300021201221AD50212012258D502120122CD
:100F6300A1D502120122DBD50212012231D60212CF
:100F7300012252D6021201225BD602120122A6D608
:100F830002120122CFD602120122D9D60212012265
:100F930045D702120122DBD70212012225D8021201
:100FA300012255D802120122DED8021201221ED9D3
:100FB3000212012256D90212012268D90212012219
:100FC30087D90212012290D90212012256DA0212A3
:100FD3000122F298031201228F8E03120122C58E81
:100FE30003120122FB8E03120122449003120122F9
:100FF3009CFF01120122F79D031201220D9E031291
:101003000122179E0312012293F102120122A8F179
:10101300021201225BF2021201229BF2021201224E
:10102300B4F202120122E8F20212012235F3021293
:10103300012269F302120122ABF302120122A7F586
:1010430002120122E99903120122129A03120122C8
:101053003B9A031201227D9A0312012206CF021248
:101063000122E0D0021201225FD2021201221ED31A
:1010730002120122C2D30212012235D4021201222A
:1010830092D402120122B4F502120122F9F50212DE
:10109300012222F602120122B9F60212012207F7F7
:1010A30002120122FCF70212012298F90212012214
:1010B300938903120122B88903120122E2890312E0
:1010C3000122AA9E03120122B28101120122168477
:1010D30001120122C78501120122C98601120122D0
:1010E300528701120122D68701120122FB870112C6
:1010F3000122348B01120122A88B01120122998C47
:1011030001120122D38C01120122138D011201223B
:10111300C68E01120122198F01120122628F011260
:101123000122D08F011201220290011201221A9092
:10113300011201222F91011201223F91011201227A
:101143005A92011201227C9201120122B2920112DF
:101153000122569401120122959401120122B7959E
:1011630001120122999B03120122AA9B031201225D
:101173004F9C03120122619E03120122A09E0312BF
:101183000122EF7F00120122899D03120122999D02
:1011930003120122AB9D03120122F49D03120122CB
:1011A300EE9703120122739803120122D9980312B6
:1011B3000122FBFF0112012200800312012214808D
:1011C300031201228D800312012262810312012284
:1011D300348303120122569F03120122DD9303126B
:1011E30001222D9403120122B694031201221C95AD
:1011F300031201226AFD0212012294FD021201224E
:101203005AFE0212012235FF0212012273B80212A2
:10121300012230B9021201226BB90212012293B9E1
:1012230002120122F5B90212012241BA021201226D
:10123300A1BA0212012234BB0212012233BC0212F0
:101243000122C2BD0212012245BE02120122ACBE1E
:1012530002120122C3BE02120122CDBF02120122D9
:101263000BC00212012200800212012260830212CB
:101273000122E884021201223F85021201225E85C7
:1012830002120122DC85021201226C870212012262
:101293005088021201225C8C021201222C8D021250
:1012A30001225F8C03120122A48C03120122048DFC
:1012B30003120122BA8D03120122568E0312012258
:1012C300F19E031201222A9F03120122759F03E05C
:1012D30066701008A3E066700A08A3E0667004084D
:1012E300A3E06622C3E7960809E7960809E796088C
:1012F30009E79622C3E09608A3E09608A3E09608C0
:10130300A3E09622C008C3E096F50808A3E096423E
:101313000808A3E096420808A3E09645087001D3A5
:10132300D00822080808EAC0E0EBC0E086F0E7A492
:10133300FA180986F0E7A42AFA180986F0E7A42A1E
:10134300FA180986F0E7A42AFA1986F0E7A4FBE560
:10135300F02AFA190886F0E7A42BFBE5F03AFA190C
:101363000886F0E7A42BFBE5F03AFA18180986F093
:10137300E7A4C5F02BFBE43AFA1908E7C5F0C6A4C5
:1013830026F6E5F03BFBE43AFA1886F0E7A4F6E527
:10139300F00826F6E43B08F6E43A08F6D0E0FBD082
:1013A300E0FA22E4CFC0E0E4CEC0E0E4CDC0E0E464
:1013B300CCC0E075F020E626F608E633F608E633FF
:1013C300F608E633F6181818EC33FCED33FDEE336C
:1013D300FEEF33FFC3EC9709ED9709EE9709EF97FB
:1013E300191919400FFFEC97FC09ED97FD09EE97CA
:1013F300FE191906D5F0BFECF709EDF709EEF70969
:10140300EFF7191919D0E0FCD0E0FDD0E0FED0E0F1
:10141300FF226016080808C6C313C618C613C618E9
:10142300C613C618C613C6D5E0EA22700908080811
:10143300226016181818C6C333C608C633C608C6B2
:1014430033C608C633C6D5E0EA22E627F60809E61E
:1014530037F60809E637F60809E637F622E026F6F6
:1014630008A3E036F608A3E036F608A3E036F62232
:10147300E026F008A3E036F008A3E036F008A3E086
:1014830036F022C3E697F60809E697F60809E697C9
:10149300F60809E697F622C3E096F008A3E096F073
:1014A30008A3E096F008A3E096F022E657F60809B1
:1014B300E657F60809E657F60809E657F622E05616
:1014C300F608A3E056F608A3E056F608A3E056F69E
:1014D30022E056F008A3E056F008A3E056F008A374
:1014E300E056F022E0F608A3E0F608A3E0F608A32E
:1014F300E0F622E6F008A3E6F008A3E6F008A3E688
:10150300F022E0FAA3E0FBA3E0FCA3E0FD22EAF073
:10151300A3EBF0A3ECF0A3EDF022E0F8A3E0F9A332
:10152300E0FAA3E0FB22E8F0A3E9F0A3EAF0A3EBDF
:10153300F022CAC0E0E6F0A308DAFAD0E0FA22CA41
:10154300C0E0E0A3C582CCC582C583CDC583F0A32B
:10155300C582CCC582C583CDC583DAE6D0E0CA2275
:10156300C3E498F8E499F91215A48026C3E49AFA1F
:10157300E49BFBE920E7E91215A4E498F8E499F960
:1015830022C3E498F8E499F91215A4E498F8E499CD
:10159300F9C3E49AFAE49BFB22EB20E7CFE920E7C7
:1015A300E0B90010BB0008E88AF084F8AAF022E44E
:1015B300FBC8FA22EB70227B10C833C8C933C93386
:1015C3005007C39AC3DBF280069A50012ADBEAC8AC
:1015D30033F4C8C933F4C9FA2275F008E4C833C830
:1015E300C933C933C99AC99B5004C92AC93BD5F029
:1015F300ECFBC833F4C8E4C9FA22600D08C6A2E7BD
:1016030013C618C613C6D5E0F322600C08C6C3136D
:10161300C618C613C6D5E0F422700422600D18C69E
:10162300C333C608C633C6D5E0F41822251810AF55
:1016330008F518400C15198008F51840021519D241
:10164300AF2200C0D0251810AF08F518500C0519AB
:101653008008F51850020519D2AFD0D0222518F50D
:101663008210AF08F518400C15198008F5184002D0
:101673001519D2AF851983222518F582E43519F59A
:1016830083222518F8E43519F9222518FAE43519C7
:10169300FB222518FCE43519FD22E4732518C582C5
:1016A300C0E0E51934FFC583C0E0E518C395822483
:1016B300F810AF08858319858218800885831985FA
:1016C3008218D2AFCEF0A3E520F0A37808E608F0A5
:1016D300A3DEFAEFF0A3E58124FAF8E608F0A3E627
:1016E30008F0A3E608F0A30808E608F0A3E608F06C
:1016F300A315811581D0E0FED0E0F8158115811581
:1017030081E8C0E0EEC0E0222518C582C0E0E519FB
:1017130034FFC583C0E0E518C3958224F910AF08F0
:101723008583198582188008858319858218D2AF2D
:10173300CEF0A3E520F0A37808E608F0A3DEFAEFE5
:10174300F0A3E58124FBF8E608F0A3E608F0A3087C
:1017530008E608F0A3E608F0A315811581D0E0FEA2
:10176300D0E0F815811581E8C0E0EEC0E0228519CC
:1017730083851882E0A3FEE0A3F5207808E0A3F6B2
:1017830008DFFAE0A3FFE0A3C0E0E0A3C0E0E0A32A
:10179300C0E0E0A3C0E0E0A3C0E010AF088582187A
:1017A3008583198008858218858319D2AFD083D0A9
:1017B3008202011F851983851882E0A3FEE0A3F549
:1017C300207808E0A3F608DFFAE0A3FFE0A3C0E077
:1017D300E0A3C0E0E0A3C0E0E0A3C0E010AF088551
:1017E30082188583198008858218858319D2AFD022
:1017F30083D08222C0D02518C582C0E0E51934FF0A
:10180300C583C0E0E518C3958224F310AF08858330
:10181300198582188008858319858218D2AFC8F08C
:10182300A3E9F0A3EAF0A3EBF0A37908E709F0A397
:10183300D8FAECF0A3EDF0A3EEF0A3EFF0A3D0E021
:10184300F0A3D0E0F0A3D0E0F0A3E520F0A3E5F00F
:10185300F0A322851983851882E0C0E0A3E0F9A3F1
:10186300E0FAA3E0FBA37808E0F608A3DFFAE0FCC4
:10187300A3E0FDA3E0FEA3E0FFA3E0C0E0A3E0C07C
:10188300E0A3E0F5D0A3E0F520A3E0A3F5F010AFCB
:10189300088583198582188008858319858218D263
:1018A300AFD082D083D0E0F8D0E0327404800674E5
:1018B3000280027401C0E0F404121660D0E0121535
:1018C30035227404800474028000CCC0E0EDC0E0D3
:1018D300E518C39CCCAD1950011D10AF068C188DB3
:1018E3001980068C188D19D2AF121542D0E0FDD0A5
:1018F300E0FC22D083D082E9C0E0E493A3C386F066
:10190300C5F095F0F908E493A386F0C5F095F0705F
:101913000BE493A3C3994005E9048002A3E475F0A3
:1019230002A42582F582E5F03583F583D0E0F9E45E
:1019330093A3C0E0E493C0E022D083D082ECC0E064
:10194300EDC0E0E493A3FCE493A3FDED4C600D1222
:101953001988EC24FFFCED34FFFD80EFE493A3FC36
:10196300E493A3FDED4C600D1219C7EC24FFFCEDCD
:1019730034FFFD80EFD0E0FDD0E0FCE493A3C0E0B2
:10198300E493C0E022C0E0C3E49396087401939605
:1019930018400FE49366700808740193661870008A
:1019A3007019A3A3C3E49396087401939618A3A391
:1019B300400DD0E0D0E0D0E0021978A3A3A3A3A305
:1019C300A3D0E022C0E0C0F088F0E493667008087A
:1019D30074019366187000A8F0A3A3700BD0F0D025
:0F19E300E0D0E0D0E0021978A3A3D0F0D0E0224A
:1019F40074F512170BEAFEEBFFEE2434F8EF340013
:101A0400F988088909EE2435F582EF3400F583E07E
:101A1400F8EE2437F582EF3400F583E0F50AEC851F
:101A24000AF0A4FCAAF0850AF0EDA42AFDE82CF83B
:101A3400E43DF97A257B001215A4EA85088285091C
:101A440083F0F8740758F97401B900028004C333B1
:101A5400D9FCFAE8131313541FF8EE28F8EF3400F6
:101A6400F9E8245DF582E93400F583E05A6008EE74
:101A74002434F582EF802CEE2434F582EF3400F523
:101A840083E0C0E0EE2436F582EF3400F583E0F520
:101A9400F0D0E084A8F0EE28F8EF3400F9E8243818
:101AA400F582E93400F583E0F97F040217B774F591
:101AB40012170BEAFEEBFFEE2434F582EF3400F547
:101AC40083E0C0E0EE2435F582EF3400F583D0E006
:101AD400F08E828F83A3A3A3A3A3A3A3C082C083F6
:101AE4008E828F83A3A3A3A3A3E0F8A3E0F9D083FA
:101AF400D082E0C398F508A3E099F509EE247FF5B8
:101B040082EF3400F583E064017069EE2480F5828D
:101B1400EF3400F583E0F8A3E0F98E828F83A3A36A
:101B2400A3A3A3A3A3E0FCA3E0FD8E828F83A3A3BE
:101B3400A3A3A3E0FAA3E0FBC3EA9CEB9D5010C36C
:101B4400EC98ED99402EC3EA98EB995027800EC388
:101B5400EA98EB994007C3EC98ED9940177CDC7D3B
:101B640004EEFAEFFB120B52EE247FF582EF340001
:101B7400F583E4F0EE2434F8EF3400F9E8FCE9FDF1
:101B8400EE2435F582EF3400F583E0F8EE2437F5E2
:101B940082EF3400F583E0F50AE508850AF0A4F540
:101BA40008AAF0850AF0E509A42AF509E82508F849
:101BB400E43509F97A257B001215A4EA8C828D8319
:101BC400F0F8740758F97401B900028004C333D9DA
:101BD400FCFAE8131313541FF8EE28F8EF3400F955
:101BE400E8245DF582E93400F583E05A6008EE24C8
:101BF40034F582EF802CEE2434F582EF3400F58343
:101C0400E0C0E0EE2436F582EF3400F583E0F5F031
:101C1400D0E084A8F0EE28F8EF3400F9E82438F591
:101C240082E93400F583E0F9122509021AADC08275
:101C3400C083851882851983E0F8A3E0F9C3EA9C80
:101C4400EB9D5010C3EC98ED99401BC3EA98EB99B7
:101C54005014800EC3EA98EB994007C3EC98ED99B1
:101C64004004790180027900D083D08222EAC39CA7
:101C7400FAEB9DFB2274EF12170B9003A2E06408A9
:101C84006005E06407702A9061C8E060249003D086
:101C9400E0F4601DE0F875F003A4C8AAF02AF97412
:101CA400D228FE740339FF8E828F83A3A3A3E0702E
:101CB40003021DA9906060E0C0E0EE2468F582EFA5
:101CC4003400F583D0E0F0750C45750D05750800FA
:101CD400750900E5D914F50AE5D95403F50E601722
:101CE4007403650E605CE50A6010EE2467F582EF0C
:101CF4003400F583E07003021D8E900540E064011A
:101D0400602AEE2482F582EF3400F583E0600478E3
:101D14000480027800850A08E508C398FA95E0FB78
:101D2400120A268A088B09EA45097005120D4480B7
:101D340074EE2482F582EF3400F583E070048A0C9B
:101D44008B0DE50A6012850C82850D83F50BE5D9B0
:101D5400F0A3150BE50B70F6EE2482F582EF340048
:101D6400F583E0604474FC250AF50A780C1218B275
:101D7400AC0AA90EEEFAEFFB120BEE740212164532
:101D8400E97026AA08AB091211E2793D8E828F838D
:101D9400A3A3A3A3E0FA7B001208FAEEFAEFFB1266
:101DA4000B6A120C00790080747403650E6056850A
:101DB4000A1075110078101218B2AC0CAD0DAA08F7
:101DC400AB09120BCA7402121645EE2468F582EFB1
:101DD4003400F583E064807004747F8001E0F50CC6
:101DE400780C1218B6E50EF50C780C1218B6A90A80
:101DF400AC08AD099003D0E0FA7B001208BE74026F
:101E040012164580139003A2E06408600BAC0CAD7D
:101E14000DEEFAEFFB120C5A120D5079017F0A02F3
:101E240017B774F512170B74FC12162FEAFEEBFFAA
:101E34008908A2AFE433F509C2AF806AEE2463F8DF
:101E4400EF3400F97A007B00A2AFE433F50AC2AFA5
:101E540088828983E0FCA3E0FDEC4D603A888289A6
:101E640083E0FAA3E0FB8A828B83E0FCA3E0FD8895
:101E7400828983ECF0A3EDF08A828B83E4F0A3F0F3
:101E840088828983E0FCA3E0FDEC4D700A88828996
:101E940083A3A3E4F0A3F0E50AA2E092AF1211E257
:101EA4009004E3E004F0EE2463F582EF3400F5835C
:101EB400E0F8A3E0F9E849603DEE2463F582EF34ED
:101EC40000F583E02402FAA3E03400FBEA2402F5DF
:101ED4000AEB3400F50B780A1218B28A828B83E07D
:101EE400FCA3E0F9EEFAEFFB120B8E740212164516
:101EF400E97003021E409004E3E060639004E4E0B0
:101F0400F89004E3E0C398500C7402650870509094
:101F140004E5E0604A8E828F83A3A3A3A3E085181F
:101F240082851983F0A3E4F09004E3E0F8740212CC
:101F3400167BE8F0A3E4F09004E3E0F89004E2E018
:101F440028F0740212167BAC82AD83851882851941
:101F540083AA82AB8379011208CA9004E3E4F0E512
:101F640009A2E092AF7404121645021AAD000000F3
:101F74008521878522C622C0E0C0D0E8C0E0E9C040
:101F8400E0EAC0E0EBC0E0ECC0E0EDC0E0EEC0E0B1
:101F9400C008C009C00AC00BC082C083C0F0A2AF91
:101FA400E433FEC2AF759B00906182E0A2E0501260
:101FB400E591A2E0500C7591FE7401652170031245
:101FC4001C79E0A2E55051E591A2E5504B7591DFF3
:101FD4009003A2E064076005E0640870237401655F
:101FE40021703579019003D0E0FA75F003A4CAA8F2
:101FF400F028FB74D22AFA74033BFB121E268018C5
:10200400E0640D70139003C4E004F064287002E4EB
:10201400F07A00E0F9120D56906182E0A2E64003E6
:102024000220C2E591A2E640030220C27591BF904E
:1020340003A2E064057008120C84120C9080031251
:102044000C8A752100120CE4E99003A3F0790012C4
:102054000CD8120AC87A017B009003A1E0F9120F90
:10206400A8907803E064427055900544E014F07041
:102074004DC2AF12207A00782AD0E0F618D0E0F6EC
:10208400E59F540770057509FF800375097FC4C077
:10209400E07829E6F50808E65509F509740B78088F
:1020A40012160DD0E02508F8906270E0A2E740F81F
:1020B400E8C333906272F0906270E0D2E0F0906115
:1020C40081E0A2E35009E5E9A2E3500375E9F7A32F
:1020D400E0A2E75009E591A2E7500375917FEEA2D3
:1020E400E092AFD0F0D083D082D00BD00AD009D008
:1020F40008D0E0FED0E0FDD0E0FCD0E0FBD0E0FA78
:10210400D0E0F9D0E0F8D0D0D0E032C0E0C0D0C008
:1021140082C083906183E0A2E05009E5BFA2E05051
:102124000375BFFEE0A2E15009E5BFA2E1500375CB
:10213400BFFDE0A2E25009E5BFA2E2500375BFFB78
:10214400E0A2E35009E5BFA2E3500375BFF7E0A2A4
:10215400E45009E5BFA2E4500375BFEFE0A2E550E7
:1021640009E5BFA2E5500375BFDFE0A2E65009E52B
:10217400BFA2E6500375BFBFD083D0828088C0E081
:10218400C0D0E8C0E0E9C0E0EAC0E0EBC0E0ECC0E9
:10219400E0EDC0E0C0F0E5A7A2E6500FE5A1A2E69D
:1021A400500953A7BF75A1BF1221E7E5A7A2E550C7
:1021B4000CE5A1A2E5500653A7DF75A1DFE5A7A2B0
:1021C400E15009E5A1A2E1500375A1FDE5A7A2E252
:1021D400500CE5A1A2E2500653A7FB75A1FBD0F079
:1021E4000220F874F812170B7521019003A2E06421
:1021F400067015120C1E8A828B83A3A3A3A3A3A328
:10220400E0FAA3E0FB120C72A2AFE433FED2AF906B
:1022140003A8E0640170187A207B009003A1E0F920
:1022240012102C7A207B009003A1E0F9120FAE90DB
:102234006182E0D2E6F0900541E0602185C622800B
:10224400169003A7E064017008E5C654F84405F548
:10225400C653BEFC121F747401652160E4EEA2E053
:1022640092AF7F010217B7008E238F2485822885C1
:102274008327851882851983E0CEA3E0CF85288241
:10228400852783EBC9EAC8EDCBECCA75F010C3E827
:1022940033C8E933C9EA33CAEB33CBC3EA9EF52624
:1022A400EB9FF525B35004AB25AA26EC33CCED33D4
:1022B400CDD5F0DAAE23AF242274ED12170B8A08C1
:1022C4008B098C0A8D0B741312167B780C1214E78D
:1022D4007808790C1212E77510017511C87512008F
:1022E40075130050127808790C1214867810790846
:1022F4001212E750168010780C79081214867810A0
:10230400790C1212E740047901800279007F0C02F3
:1023140017B774ED12170B8A088B098C0A8D0B748E
:102324001312167B780C1214E7780C79081212E752
:1023340040117808790C121486AA08AB09AC0AADCE
:102344000B80227510007511007512007513017849
:1023540010790C1214867810790812144DAA10AB57
:1023640011AC12AD1380A68A828B837508FF7509A0
:10237400FF750AFF750B0078081214D47F04021746
:10238400B774F512170B8C828D8378081214E78AC0
:10239400828B83780812149AEA2404F8EB3400F947
:1023A4008C828D83A3A3A3A3E0FCA3E0FD88828990
:1023B40083C3E09CF0A3E09DF088828983C3E0940A
:1023C40020A3E0944E40268A828B837508FF75090A
:1023D400FF750AFF750BFF78081214738A828B83CA
:1023E400A3A3A3A3E02420F0A3E0344EF002236BC4
:1023F40074F512170BE9FE9004F7E0FAA3E0FBEE84
:10240400C333F8E433F9749228F582748039F58380
:10241400E02AF508A3E03BF50978081218B27A40DF
:102424007B427C0F7D0012226C74021216458A08CE
:102434008B098C0A8D0B74107808121415AA08AB3A
:10244400097F040217B774F112170B8A0C8B0D8CD9
:102454000E8D0F740F12167BE0FAA3E0FB741112B9
:10246400167BE0F508A3E0F50978081218B2EA240F
:1024740001F508EB3400F509E4F50AF50B780C795D
:1024840008121326750871750902780C790812135D
:1024940026AA0CAB0DAC0EAD0F12226C74021216F0
:1024A400458B09EA450960047A0180027A00EC2A26
:1024B400FCED3400FD741312167BE0F8A3E0F9E898
:1024C400FEE9FFECF8EDF97A717B021215A4880895
:1024D40089098E828F8378081214F6ECF8EDF97A64
:1024E400717B021215A48A088B09740578081216E8
:1024F4001C8E828F83A3A3A3A3E508F0A3E509F0B0
:102504007F080217B7C082C083E9906000F0D083CF
:10251400D08222C2AF02000022C0E074F21217F788
:1025240074F212162FA2AFE433FED2AF90810B7473
:10253400071216957407121542908119AC18AD193B
:102544007407121542E589A2E7502EE58CA2E050EB
:1025540012538CFEAC18AD197A0779001212A87ABE
:10256400008011438C0174071216957A07790012C2
:1025740012A87A0179021211BE758900C2C5EEA2B1
:10258400E092AF740E1216457F01021856C0E0C0E7
:10259400D0E8C0E0E9C0E0E5A8D2AFC2C7A2E7A294
:0E25A400E792AFD0E0F9D0E0F8D0D0D0E0322E
:1025B400FFFFFFFFFFFFFFFFC082C083E99009F325
:1025C400F002284B74F712169FE99002E1F07C198F
:1025D4007D037AFF7BFF1208169002E274FFF0A3DA
:1025E400F0A3E4F0A3F0790512079E9002E1E0F96C
:1025F4001206C07A347B081209D87F01021771745D
:10260400F412169F8A088B09EB548060309002E123
:10261400E0F9120F908A0A8B0BAE0AAF0BEE4F60F3
:10262400138E828F83E064B070031207B6EEFAEF64
:10263400FB120F7EAA08E5096480FB80047A007B04
:102644000002281A74F212169F74FC12162FEAFE66
:10265400EBFFEE4F6038740212167BEEF0A3EF121C
:102664002A7FECF0A3ED122A7FAA82AB831206BA6A
:10267400E9F5087073741212167B123633E50A45B5
:102684000B60658E828F831226F6EE4F70057508F7
:102694000280557A067B00120FE48A0C8B0DA80C7D
:1026A400A90DE8497005750813803D88828983E483
:1026B400122700A3A3EEF0A3EF123ACCE50AF0A38D
:1026C400E50BF09002E71227889002E76017E0FC20
:1026D400A3E08003EAFCEBFD8C828D8312278870D3
:1026E400F38C828D83123558A9087404121645029E
:1026F4003CCEA3A3A3A3E0FEA3E0FF22F0A3F088B3
:102704008289832274F212169F890AE975F017A44C
:10271400FEAFF09002E6E4F09002E4122788600A2B
:10272400120FEA9002E4E4F0A3F0EEFAEFFB120FCA
:10273400E48A088B09EA4509602FEEFCEFFD790075
:10274400120F6C9002E4E508F0A3E509F07B008029
:1027540008122772E4F0A3F00BEBC3950A40F2E5EC
:102764000A9002E6F0790080027913023CCEEB7500
:10277400F017A4F8A9F09002E4E028FAA3E0398A5B
:1027840082F583221232EEEA4B2274F412169F75FC
:102794000800750900740C12167B123AA0FEE9FFBA
:1027A400800CE5082401F508E5093400F509C3E5C2
:1027B400089CE5099D503285080A85090B74037845
:1027C4000A12161CEA250AF8EB350BF9888289836C
:1027D400A3A3A3A3A3A3123633EE650A7003EF6584
:1027E4000B70BFE8FAE9FB80047A007B0080277451
:1027F400F412169F7900EAA2E0501B75083275099D
:102804008178081218B27C047D007AF57B091207DE
:102814009874021216457F04021771C082C0839017
:1028240002E7122852601C88828983A3A3E06A709D
:1028340003A3E06B8882898370E8A3A3A3A3123265
:10284400EA80047A007B00D083D08202011F123D0B
:10285400A1E8492274EE12169F74FC12162FEAFEA8
:10286400EBFF851882851983E4F0A3F0EE240212AD
:10287400353CEE2405122A6DEE2404F50EEF122EDB
:1028840052E024FE603924FC604624FE605224FE9B
:10289400605E24FE700302297224FE70030229EA9A
:1028A40024FE70030229F924FE7003022A0824FC82
:1028B4007003022A1724FE7003022A26022A639058
:1028C40003007417F0A3E4122A87120438022A635F
:1028D400851882851983AC82AD831207BC022A3322
:1028E400851882851983AC82AD831207C2022A330C
:1028F400850C08850D09740212167BAC82AD8385A4
:1029040008828509831232EA1206DE8A0C8B0DAC2A
:102914000CAD0DEC4D6042E4F50CF50D780C12187D
:10292400B2750C00750D03780C1218B2750C017594
:102934000D03780C1218B2740812167B1218C97998
:10294400161232E41207FE7408121645E9F50C70EB
:102954000B1232E0120450800F750C018508828539
:102964000983122A75123558850C08022A36740216
:1029740012167BAC82AD83850C82850D831232EAFC
:102984001206DE8A108B11AC10AD11EC4D6043853C
:102994000C82850D83A3A31218C975100075110349
:1029A40078101218B275100175110378101218B24C
:1029B400740812167B1218C979161232E41207FE33
:1029C4007408121645E9F509700B1232E012045628
:1029D400800F750901850C82850D83122A751235C5
:1029E40058850908804C851882851983AC82AD838B
:1029F4001207C8803A851882851983AC82AD831288
:102A040007CE802B851882851983AC82AD8312078B
:102A1400D4801C851882851983AC82AD831207DAB1
:102A2400800D851882851983AC82AD831207E0E995
:102A3400F508E50860298E828F83A3E06414601F83
:102A4400850E82850F83E0900300122A7F123D9D3C
:102A5400900301123558E508A3122A87120432EEB6
:102A6400FAEFFB12075C023444F50CEF3400F50D69
:102A740022123DA185188285198322F0851882854A
:102A8400198322F07C007D03850A82850B83123230
:102A9400EE2274EE12169F74FC12162F8A0A8B0B08
:102AA4008C0E8D0FEA2405F508EB3400F5097C152E
:102AB4007D0079007A007B03120F6CE5082402F58F
:102AC4000CE509122A708518828519838582108580
:102AD400831178101218B2850882850983A3A3A3F1
:102AE400A3122F9A1218B2E5082405F510E509344B
:102AF40000F51178101218B2850C82850D831232FC
:102B0400F41206D874061216458A108B11AE10AF53
:102B140011E50A2402F50AE50B12353FEE4F700366
:102B2400022C5C8017740212167B1232EA888289A6
:102B340083EAF0A3EBF0900300E004F0900300E0DC
:102B4400C394054003022C5CE4F510F511781012CF
:102B540018B27510E975110278101218B27510EADE
:102B640075110278101218B2740612167B1218C965
:102B74007910EEFCEFFD1232E41207FE740812160F
:102B840045E9705E850882850983A3A3A3A3A3A353
:102B9400A3E0F89002E9E0687048122F9A1218B284
:102BA4007CEA7D02E5082408FAE5093400FB120FEB
:102BB400667402121645E960298E828F83A3A3A34B
:102BC400A31232EA900300E0F51074027810121692
:102BD4001C74012510F58274033511F583EAF0A302
:102BE400EBF0740212167B85821085831178101223
:102BF40018B2740212167B1218C9850C82850D83D3
:102C0400123DB21206E474041216458A108B11AEFA
:102C140010AF11900300E0F51075110074027810E4
:102C240012161C74002510F874033511F988828972
:102C340083A31227887003022B20E82403F8E934C5
:102C440000F9EE4F6003022B298882898374FFF018
:102C5400A3F0900300E004F0900300E0600A123255
:102C6400E01204447900800B8508828509831235BB
:102C74004F790A02344474EA12169F74FE12162F16
:102C84008C128D13EA2405F50CEB123F1C1226FA64
:102C9400750800750900EA2402F510EB3400F511FB
:102CA40085188285198385820A85830B780A121810
:102CB400B2850C82850D83A3A3A3A3122E5C1218E4
:102CC400B2E50C2405F50AE50D12353F780A121811
:102CD400B2850C82850D83123DB01206D87406129B
:102CE40016458A0A8B0BEA450B7003022E0DEA2463
:102CF40004F50EEB122E521226FA8A828B83A3A3BA
:102D0400A3E0F98510828511831232EA1206C6E91E
:102D1400F5096003022E0DE4F514F5157814121864
:102D2400B27514E975150278141218B27514EA759F
:102D3400150278141218B2740612167B1218C97987
:102D440013AC0AAD0B8510828511831232EA120787
:102D5400FE7408121645E9F5096003022E0D90026F
:102D6400E9E0F8E5087009E02402900301F0801717
:102D7400900301E0FCE82402FAE43400FBEA6C70FE
:102D840001EB6003022E11850882AA82122F91940E
:102D940014122F895073850E82850F83E0C0E0746E
:102DA400022A122E49D0E0F00508850E82850F8391
:102DB400A3E0C0E085080A7402250A122E49D0E077
:102DC400F005089002E9122E5C1218B27CEA7D022A
:102DD40085080A7402250AFA74033400FB120F549E
:102DE40074021216459002E9E02508F50874FF6E96
:102DF400700374FF6F6012EE24010EEF3400FFE5E0
:102E040008C394145003022CA4E50860131231D5AE
:102E14008510828511831232EA12044A79008014E3
:102E2400E509700375090A851282851383EEF0A300
:102E3400EFF0A90974021216457F0E021771850876
:102E44000C7402250CF58274033400F583223400DB
:102E5400F50F850E82F58322123ADF2274EE1216E4
:102E64009F74FE12162F8C0E8D0FEA2405F50CEBC1
:102E7400122A70750B00900300E4F0F50AEA2402AC
:102E8400F508EB3400F5098049900300E0FA90025C
:102E9400E9E0F8122F919417122F89400D90030046
:102EA400E0F87416C3989002E9F0122F9A1218B23F
:102EB4007CEA7D0274012AFA74033400FB120F5475
:102EC40074021216459002E9E0F8900300E028F03D
:102ED400050AE50C2416F582E50D122E4DE0F8E501
:102EE4000AC3984003022F72900300E0C394165063
:102EF4007DE50AC333F8E433F9E50C28FEE50D3922
:102F0400FF851882851983AC82AD838E828F8312EC
:102F140032EA1206DE8A108B11AC10AD11EC4D7042
:102F240005750B018043E4F510F51178101218B201
:102F34007510E975110278101218B27510EA75113E
:102F44000278101218B2740612167B1218C9791678
:102F54008508828509831232EA1207FE7408121664
:102F640045E9F50B7003022E8D12354B80107C0061
:102F74007D038508828509831232EA12045CA90B59
:102F84007402023446E99400C365D03322EA28F877
:102F9400E43400F9E822E0F5107511007810227489
:102FA400EA12169F74FC12162F8A0C8B0D8C128D4C
:102FB40013EA2405F50AEB12353F7508007509007C
:102FC400E50A2402F510E50B3400F511740212161B
:102FD4007B85820E85830F780E1218B2850A82854E
:102FE4000B83A3A3A3A3123A8B1218B2E50A2405F8
:102FF400F50EE50B3400F50F780E1218B285108229
:103004008511831235451232E41206D8740612165D
:10301400458A0E8B0FAE0EAF0FE50C2402F50EE5BC
:103024000D3400F50F80408882898374FFF0050811
:10303400122E4274FFF005089002E9E0F50C750DBC
:1030440000780C1218B27CEA7D0285080C74022503
:103054000CFA74033400FB120F54740212164590D8
:1030640002E9E02508F508EE4F60718E828F83A394
:10307400A3A3E0F9850E82850F831232EA1206C6F5
:10308400E9F509EE2404122A6DE97044E4F514F517
:103094001578141218B27514E975150278141218FB
:1030A400B27514EA75150278141218B2740812165F
:1030B4007B1218C97911EEFCEFFD850E82850F8312
:1030C4001232EA1207FE7408121645E9F509602760
:1030D400850C82850D831231CB123558E5087003B7
:1030E4000231B11231D5850E82850F831232EA1274
:1030F400046279000231C6850882AA82EA9002E954
:103104007009E02404900301F08022E0F8900301A8
:10311400E0F514E82404FCE43400FDEC65147001CB
:10312400ED70C0122F919412122F8950B6850C8223
:10313400850D83E0C0E074022A122E49D0E0F00528
:1031440008850C82850D83A3E0C0E0122E42D0E0F6
:103154001231E785820C85830D780C1218B2740441
:1031640012167B1218C9851082851183123DB21282
:1031740006E474041216458A0C8B0DAE0CAF0D8553
:10318400080C7402250CF874033400F9EE4F700334
:1031940002302B851882851983E088828983123155
:1031A400E7A3E0C0E0122E42D0E0023039E5097016
:1031B4000375090A850A82850B831231CB123558AF
:1031C400A9097404022E3A123DA185128285138343
:1031D40022900301E0F5F0E50884900300F07C0000
:1031E4007D0322F005088518828519832274EC1268
:1031F400169F74FE12162F8A088B098C0E8D0FEA07
:103204002405FEEB3400FF851882851983AC82AD5A
:10321400838E828F831232EA1206DE8A0A8B0BEEC9
:103224002418122A6DEA450B70030232BB12342DA6
:1032340050328518828519831232EA1207F28A10F5
:103244008B11EA4511606B7912AC0AAD0B850882CB
:103254008509831232EA85108285118312169DE94D
:10326400F50A7058E4F50AF50B780A1218B28E8242
:103274008F83A3A3E0F50A780A1218B2EE2403128E
:10328400353C780A1218B28E828F831232F41208F7
:10329400047406121645E9F50A7021850C82850D21
:1032A40083E0701F8508828509831232EA1204685C
:1032B4008011750A0E8009750A018004E50A60030D
:1032C40012354B850C82850D83E060047900800201
:1032D400A90A74021216457F0C0217717C007D0343
:1032E400850A82850B831232EE22E0FAA3E0FB22E8
:1032F400E0FCA3E0FD8508828509831232EE227486
:10330400EE12169F74FE12162F8A088B098C0C8DF0
:103314000DEA2405FEEB3400FF750E008518828546
:103324001983AC82AD838E828F831232EA1206DE59
:103334008A0A8B0BEA450B700302341912342D50A0
:10334400358518828519831232EA1207F28A0E8BA8
:103354000FEA450F605E7912AC0AAD0B85088285D1
:1033640009831232EA850E82850F8312169DE9F5D0
:103374000E600302341C850882850983123633AA41
:103384000AFB1207E68A108B11A810A911E84970EC
:103394001E7AFF7BFF1207E68A108B11A810A91171
:1033A400E849606C88828983E50AF0A3E50BF0752F
:1033B4000A008007750E0E805F050A9002E6E0FAA7
:1033C400E50AC39A504AE50A75F017A4FAABF088E7
:1033D400828983A3A3E02AFAA3E03BFB8A828B833E
:1033E400123545EC4D70D2750A17750B00780A1228
:1033F40018B2EEFCEFFD120F547402121645EEFCE7
:10340400EFFD8508828509831232EA12046E801466
:10341400750E098003750E01123D99850C82850D88
:1034240083123558A90E022F84E5082402F508E515
:10343400093400F5098A828B83A3A3A3E0A2E522C1
:1034440074041216457F0A02177174EC12169F8CCD
:10345400108D11EA2405F50CEB122A70750F00EAA1
:103464002402F50AEB12353F850A82F5831232EA0B
:103474001207E68A088B09EA45097003023531759B
:103484000E008071850C82850D83E06401704F8E7F
:10349400828F83A3A31218C98E828F83A3A3A3A3AD
:1034A400E0F51275130078121218B2EE2405F51225
:1034B400EF3400F51378121218B21232E412080431
:1034C4007406121645E9F50F6014850C82850D8388
:1034D400E4F0123D998510828511831235587C17CA
:1034E4007D007900EEFAEFFB120F6C8E828F83E47D
:1034F400F0A3F0050E9002E6E0F8E50EC398501E26
:10350400E50E75F017A4F8A9F0850882850983A350
:10351400A3123F26123545EC4D600302348885081A
:103524008285098374FFF0A3F0E50F70061232E47C
:10353400120474A90F0232DBF50AEF3400F50B22F2
:10354400A3E0FCA3E0FD228E828F83123DA1850EB1
:1035540082850F83E8F0A3E9F022C082C083900241
:10356400E2E06A7003A3E06B70067AE27B028004F7
:103574007A007B0002284BC082C08378008C828D45
:1035840083E06A7003A3E06B7010E875F003A4F89D
:10359400A9F0EC28FAED39FB8015088C828D83A301
:1035A400A3A3E06A7003A3E06B60DF7A007B0002F0
:1035B400284B74F612169F1207B08A828B83E58219
:1035C400458370067A007B008007A3A3A3A312326D
:1035D400EA023C4A74F212169FE9FE740E12167B3C
:1035E400123633741012167B123AAB8C828D83E040
:1035F40064027036A3123DA7F50CA3E0F9A80C747D
:10360400026870037429697021750C02750D0078C5
:103614000C1218B278081218B2780A1218B2EEF91D
:10362400120828740612164580027901023CCEE085
:10363400F50AA3E0F50B2274E812169F74FB121628
:103644002FE9851882851983F08A168B17ECFEED15
:10365400FF751000741D12167B123D9D741D121609
:103664007B1235588E828F83A3A3A3E0A2E4502D4E
:10367400741D12167B1232EA1207F28A828B83E5DA
:103684008245837003023A7C790AEEFCEFFDAA16A8
:10369400AB1712169DE9F5106003023A7F741F12EE
:1036A400167B123AAB742112167B12363374231232
:1036B400167BE0F50EA3E0F50F8E828F83E06402A3
:1036C4006003023A2AA3123D9D850882850983A3DB
:1036D400858212858313EE2406122A6D88828983DB
:1036E400E0FAA3E0F9EA2400F514E439F5157814B6
:1036F40012193C0100002801281F3707000228E4A2
:10370400370328513700291B39012946390229E793
:103714003803291B390429C5392A3AE50E450F60B7
:1037240003023A25850C82850D83123AA0FAE9FB3F
:103734008A828B83E0850A82850B83123AD612181B
:10374400B28A828B83A3E0FCA3E00239AFE50E4585
:103754000F6003023A25850A82850B837401F012F7
:103764003AB3850882850983F07C007D008E828FC0
:1037740083A3A3A3A3E02401FAA3E03400FB12066D
:10378400DEEA4B60418A828B83E02402F8850A8258
:10379400850B83E028F0EA2404F8EB3400F98882EE
:1037A4008983E0851282851383123AE8123AD6128D
:1037B40018B28A828B83123544E5082403FAE5099A
:1037C4003400FB0239B4850A82850B83E02404F0BB
:1037D4007C047D007900AA12AB13120F6C023A7FAD
:1037E400E50E450F6003023A25123AB3FEA3E0FF4B
:1037F400850A82850B837404F0EE8508828509832B
:10380400F0EF851282851383F0740312167BAC8269
:10381400AD83EEFAEFFB1206DE8A0C8B0DEA450D42
:1038240070030238C88A828B83A3A31226F674011C
:1038340012167B85820E85830F780E1218B27405DA
:1038440012167B1218C97CFF7DFF1206E474041261
:1038540016458B0FEA450F7033850C82850D831254
:103864003A8B1218B2850C82850D83A31218C97C79
:10387400027D007A8F7B811205107404121645E9CB
:10388400700A740112167B74FFF0A3F08E828F838A
:10389400E064027039750C02750D00780C1218B2D0
:1038A4008E828F83123544E5082404FAE509340036
:1038B400FB120F547402121645850A82850B83E0AD
:1038C40024028009740112167BEEF0A3EFF0740158
:1038D40012167B123A9CF0740112167BA3123A94CE
:1038E400023A1FE50E450F6003023A25850C8285D6
:1038F4000D83123545AA16AB1712081C850A82855A
:103904000B837402F0EA850882850983F0851282AC
:10391400851383EB023A22E50E450F6003023A2534
:10392400123AB3F8A3E0F9850A82850B837402F096
:10393400E8850882850983F0E9851282851383026C
:103944003A22850C82850D831232EA120F4EEAFC6C
:103954008C82A882C3950EE4950F405FE8650E70D3
:1039640002E50F70047C008022851882851983E0AB
:10397400FAE50E2AFAE50F3400FBC3EA98EB94004B
:103984005003E08005E50ECCC39CFCEC850A8285DF
:103994000B83F08C0A750B00780A1218B2850C821E
:1039A400850D83E0250EFCA3E0350FFDAA08AB09C5
:1039B400120F547402121645023A7F751007023A28
:1039C4007FE50E450F705A850C82850D83123D9D4F
:1039D400850A82850B837407122702123A941227F0
:1039E40002A3E0851282851383F0E82402FAE93405
:1039F40000FB8A828B83123A94123AC3123A9CA334
:103A0400123ACC123AA5F0E82405F8E93400F98812
:103A1400828983123AA5A3123AE8A3A3A3A3F08050
:103A24005A75100B8055741D12167B1232EA120758
:103A3400B08A828B83E5824583603D123D9D880C6C
:103A4400890DE8450D6031780E1218B2780A121803
:103A5400B278081218B2740612167BE0F9EEFCEF85
:103A6400FDAA16AB17850C82850D8312169D74066C
:103A7400121645E9F510800375100EA9107405128D
:103A840016457F10021771E0F50E750F00780E22AF
:103A9400E085088285098322123AF222123DA1E8C8
:103AA40022123AF2A3A322E0F508A3E0F509228545
:103AB4000C82850D83E0F8A3E0F5838882E022A3DD
:103AC400A3F08A828B83A322F088828983A3A3A391
:103AD400A322F08A828B83123ADF22E0F50A750B67
:103AE40000780A22F088828983A3123AF222E085C0
:103AF4000882850983A3A32274EE12169F74FE1212
:103B0400162F8A0A8B0BECFAEDFB741412167BE069
:103B1400F510A3E0F511741612167BE0FE7418126A
:103B2400167BE0F50EA3E0F50F851882851983ACAA
:103B340082AD831206DE8A0C8B0DEA450D60498541
:103B440018828519831232EA1207B08A828B83E5C0
:103B5400824583602FA3A3123AABE508450960248C
:103B6400780E1218B278101218B2EEF9AC0CAD0D32
:103B7400AA0AAB0B85088285098312169D74041268
:103B840016458006790E80027901022F8474F6129C
:103B9400169F74FE12162F740C12167B123AA0850F
:103BA4001882851983F0740112167BE9F0E4F50894
:103BB400F50978081218B275080278081218B27458
:103BC4000412167B85820885830978081218B212BC
:103BD400080474061216457402121645806874F7B8
:103BE40012169FEAFEEBFF89087C197D0312081C5C
:103BF400EA5402600BA908EEFAEFFB1206D2800227
:103C040079010225FE74F612169F74FF6A7003741C
:103C1400FF6B70168C828D83123C4FE4F08C828D86
:103C240083A3A3A3123C4FA380181207EC8A088B2A
:103C340009A808A909E849600D8882898374FF12DC
:103C44002700A3A3E4F07F0202177174FFF0A3F02E
:103C54008C828D83A3A32274F612169F1207EC8A1A
:103C6400828B83E58245836006A3A3E0FA80027A0F
:103C7400007B0080D174F212169F8A088B09ECFE37
:103C8400EDFF740E12167BE0F50A1207EC8A0C8B1A
:103C94000DA80CA90DE8497026EEFCEFFD7AFF7B18
:103CA400FF1207EC8A0C8B0DA80CA90DE8497004CF
:103CB4007911801688828983E508F0A3E509F088E4
:103CC400828983A3A3E50AF079007F060217717441
:103CD400EE12169FEAFEEBFF8C088D09890C741412
:103CE40012167B123D9D741612167B1232EA750D64
:103CF40000E8496003023D917402650C6003023DD3
:103D04008C741212167B123DA7FCA3E0F9EC24007C
:103D1400F50EE439F50FEAF4F8EBF4F9EC58F8E5AC
:103D24000F59F9E849705CE5082406F8ED3400F908
:103D3400880A890B8882F583123DB212081C8A1006
:103D44008B11E50E65107004E50F65116042780E65
:103D54001218B2850A82850B83123DB212082274AE
:103D640002121645E9F50D7027780E1218B285086F
:103D740082850983A3A3123DB012083A7402121675
:103D840045800D750D808008750D0D8003750D0B34
:103D9400A90D0234498E828F83123DA122E0F8A33B
:103DA400E0F922123DA188828983E022A3A3E0FCEA
:103DB400A3E0FDEEFAEFFB2274E812169F74E712FB
:103DC400162F851882851983EAF0A3EBF08C168DE3
:103DD40017890E750800750900743112167BE0F519
:103DE40012A3E0F513743312167BE0F514A3E0F587
:103DF40015743512167BE0F50FE50975F003A4F888
:103E0400A9F0851882851983123F26E0F47003A374
:103E1400E0F47003023F09EE2402F50CEF123F1C9C
:103E2400E07003023F0985160A85170B780A1218F9
:103E3400B2AC14AD15AA12AB131207A47402121675
:103E4400458A0A8B0BEA450B7003023F09E4F5101F
:103E5400F51178101218B2740612167B858210853B
:103E6400831178101218B2740912167B858210859A
:103E7400831178101218B2851282851383A3A3A329
:103E8400A31218C97914AC0AAD0B8E828F83123237
:103E9400EA1207FE7408121645E97069850A8285DC
:103EA4000B83A3A3A3A3123D9D740212167B1235A8
:103EB40058850C82850D83E0A2E05018A90E740287
:103EC40012167BAC82AD838E828F831232EA120685
:103ED400F6E94208850C82850D83E0A2E15026E5CF
:103EE4000FF50A780A1218B6A90E740312167BACE1
:103EF40082AD838E828F831232EA1206F07401122D
:103F04001645E942080509E509C394025003023D38
:103F1400FDA9087419023A833400F50D850C82F565
:103F24008322E028FEA3E039FF8E828F832274F27D
:103F340012169FEAFEEBFF890B7401650B600E7489
:103F440002650B706A79011209F6E97062EEFAEF04
:103F5400FB1207E68A088B09EA45096047750A00DF
:103F6400800B7C177D007900120F6C050A9002E625
:103F7400E0F8E50AC3985021E50A75F017A4F8A9FA
:103F8400F0850882850983A3A3E028FAA3E039FB1E
:103F94008A828B8312285270C985088285098374AA
:103FA400FFF0A3F07C197D03EEFAEFFB1208160272
:103FB4003CCE74F212169F8A088B09ECFEEDFF7456
:103FC4000E12167B1236339009F3E0F4603D7A0941
:103FD4007B00120F78EA4B60328A828B8374B1F0D3
:103FE400A3E4123AC5A3123AC3A3E508F0A3E50972
:103FF400124012EEF0A3EF124012A3A3E50AF0A3BD
:10400400E50BF09009F3E0F9120F84023CCEF08A3C
:10401400828B83A3A3A3A3A322C082C083906190B5
:104024007404F0A37448F0A37402F09061807440A7
:10403400F09061BC7403F09061877419F09062652C
:10404400741BF0906249E0C3941390619C400A741D
:1040540009F090606674018007740DF0906066E466
:10406400F090619A7433F0A37455F09061A0743A9F
:10407400F090053FE064017009C2919003A6746753
:1040840080059003A67461F09025BAE4939061864C
:10409400F09025B4E493F46027E493540FF890610E
:1040A40085E0686012E5C654804449F5C6E59E542F
:1040B4007F644970F8E8F053C680E59E547F70FA37
:1040C4007905120D3802424BC082C083E5A8F8532B
:1040D400A87E906181E4F0A3F0A3F0C2BA539AFEE3
:1040E400C289759B00C2C275E90075910075BF0055
:1040F40075A91175B905906181F0A374C0F0A3E4AA
:10410400F0D2BA439A0174805842A802424BC0824A
:10411400C08374F812162F9003A4E0F8A3E0F9E822
:104124004970030242409003A4E05440602379089C
:10413400851882851983AA82AB83120BAC851882F9
:10414400851983AA82AB831208A69003A4E054BF06
:10415400F0E054806010790C7A657B05120BAC900A
:1041640003A4E0547FF0E0A2E0503190619A7433EC
:10417400F0A37455F09061A0743AF090053FE064A8
:10418400017009C2919003A6746780059003A67418
:1041940061F01208AC9003A4E054FEF0E054026015
:1041A4003190619A743FF0A3745AF09061A0747FC7
:1041B400F090053FE064017009D2919003A67471F8
:1041C40080059003A6746AF01208AC9003A4E0542E
:1041D400FDF0E0540460139025B8E493906186F0F8
:1041E4001208B29003A4E054FBF0E054086013906A
:1041F40025B9E493906186F01208B29003A4E054C8
:10420400F7F0E0541060139025BAE493906186F0BF
:104214001208B29003A4E054EFF0E05420600A12B4
:1042240008B29003A4E054DFF0A3E05401600D123F
:104234000AD41208B89003A5E054FEF074081216CC
:104244004502424BF0A3F0D083D08202011F74ECEC
:1042540012169F74F412162F851882851983AC8266
:10426400AD8375838175825C74041215429025B800
:1042740093F460030243DE907808E0C39402500391
:104284000243BE740412167BAC82AD8375838075C1
:1042940082EE74081215428518828519838582126C
:1042A400858313740412167BAC82AD83750EFF757F
:1042B4000FFF7FFF7E00750C48750D78801574081C
:1042C4006E700302435274096E7003024352740AFF
:1042D4006E607B850C82850D8378081214E78C82CE
:1042E4008D83A909E50AC9F888107418780812148E
:1042F40015E5104508F8C3E098A3E099850C82857C
:104304000D8378081214E740188C828D8374187812
:1043140008121415E5104508F8E0C398F8A3E080E6
:104324001C74187808121415E5104508FAE9FB8C7A
:10433400828D83E0F8A3E0F9EAC398F8EB99F9C316
:10434400E8950EE9950F5006880E890FEEFF0EE5ED
:104354000C2404F50CE50D3400F50DEEC394135054
:10436400030242C274FF650E700474FF650F60237C
:104374008F087402780812161C74482508F5827494
:10438400783509F58378081214E78512828513833A
:10439400E508F0EC2402FCED3400FD85128285135F
:1043A40083A3858212858313740C12167BE5826CB9
:1043B4007003E5836D60030242B07508017509005E
:1043C40078081218B2740212167BAC82AD837A6E2E
:1043D4007B091211A67402121645740C1216457F3D
:1043E4000C021771C082C0839061AE7468F0A3742C
:1043F4006AF090624574FBF0A304F053F4FD43FEAD
:104404000290053F7401F09061A0E0643A90619AD3
:1044140070237433F0A37455F09061A0743AF0746F
:104424000164017009C2919003A674678028900307
:10443400A674618021743FF0A3745AF09061A07453
:104444007FF0740164017009D2919003A6747180A5
:10445400059003A6746A02424A7F08021771C0825B
:10446400C0839004F1E06401700A9004F6E06004F3
:10447400790C8002790002424BC082C08375E1F15D
:104484009004F4E0605B14600914605F14605714D6
:10449400705E120AE69004EAE0F97AEB7B04120CEF
:1044A400BA7AD67BBE7C897D8E120CF07A557B5508
:1044B4007C557D00120CC69004F5E0F9120CD279FB
:1044C40001120D2C9004E8E0F8A3E0C82416F5824C
:1044D400E83400F58374FEF0A3740AF07900024214
:1044E4004B120AEC80AF120AF280AA120AF880A5D5
:1044F400791280EA74F012169F75D90D9004D5E0F4
:10450400A2E0E4331313F89004EAE0C4333354C054
:10451400484401F5D978E8790488828983A3A3A360
:10452400E0F5D988828983A3A882A983E864EE7020
:1045340003E9640470E378D5790488828983A3E06D
:10454400F5D988828983A3A882A983E864DB7003F0
:10455400E9640470E575E1959004D5E0F97AD67BB9
:1045640004120CC0900A157498F0A3740AF0A37492
:10457400F4F0A3740BF0A374F4F0A3740BF0A3741D
:10458400F4F0A3740BF0A3749EF0A3740AF0A37464
:10459400F4F0A3740BF0A374B6F0A3740AF0900AB9
:1045A4002374F4F0A3740BF0A374F4F0A3740BF06D
:1045B400A374F4F0A3740BF0A374F4F0A3740BF0DD
:1045C400A374F4F0A3740BF0A374F4F0A3740BF0CD
:1045D4009004F4E064019004E87012E0F8A3E0F5BC
:1045E400838882A3A37508007509088010E0F8A3E6
:1045F400E0F5838882A3A3750804750900750A0091
:10460400750B007808121460750CFF750DFF750E9C
:10461400FF750F007808790C1214AE9004E8E0F8E6
:10462400A3E0C8240EF582E83400F5837808121458
:10463400F69004E8E0F8A3E0C82414F582E8340016
:10464400F5837413F09003A27402F002445D74F7CE
:1046540012169F9004FAE02407F5D99004EAE0C406
:10466400333354C0F5D978E8790488828983A3A3C5
:10467400A3E0F5D988828983A3A882A983E864EE9C
:104684007003E9640470E39004FAE0601F78E87949
:1046940004FAE82413F582E93400F583E0F5D988B7
:1046A400828983A3A882A9831AEA70E690051AE096
:1046B4002407F5D99004EAE0C4333354C04404F524
:1046C400D978E8790488828983A3A3A3E0F5D988FB
:1046D400828983A3A882A983E864EE7003E9640451
:1046E40070E390051AE0601F78E87904FAE824334F
:1046F400F582E93400F583E0F5D988828983A3A89B
:1047040082A9831AEA70E675E195900A1574A4F0FB
:10471400A3740AF0A374F4F0A3740BF0A374F4F07C
:10472400A3740BF0A374F4F0A3740BF0A3749EF0C1
:10473400A3740AF0A374F4F0A3740BF0A374B6F09A
:10474400A3740AF0900A2374F4F0A3740BF0A37416
:10475400F4F0A3740BF0A374F4F0A3740BF0A3743B
:10476400F4F0A3740BF0A374F4F0A3740BF0A3742B
:10477400F4F0A3740BF09004E8E0F8A3E0C8240E6E
:10478400F582E83400F58374FFF0A3F0A3F0A3F0FE
:104794009004E8E0F8A3E0C82414F582E83400F5B6
:1047A400837412F09003A27401F0FF02177174F77E
:1047B40012169F9004FAE02407F5D99004EAE0C4A5
:1047C400333354C04402F5D978E879048882898364
:1047D400A3A3A3E0F5D988828983A3A882A983E847
:1047E40064EE7003E9640470E39004FAE0601F78F7
:1047F400E87904FAE82413F582E93400F583E0F556
:10480400D988828983A3A882A9831AEA70E675E10C
:1048140095900A1574B0F0A3740AF0A374B0F0A3D1
:10482400740AF0A374B0F0A3740AF0A374B0F0A3F4
:10483400740AF0A374B0F0A3740AF0A374B0F0A3E4
:10484400740AF0A374B6F0A3740AF0900A2374F403
:10485400F0A3740BF0A374F4F0A3740BF0A374F43A
:10486400F0A3740BF0A374F4F0A3740BF0A374F42A
:10487400F0A3740BF0A374F4F0A3740BF09004E8A9
:10488400E0F8A3E0C8240EF582E83400F58374FF51
:10489400F0A3F0A3F0A3F09004E8E0F8A3E0C824A8
:1048A40014F582E83400F5837414F09003A27404C0
:1048B400F0024B7974F712169F9004FAE02407F57E
:1048C400D99004EAE0C4333354C04406F5D978E8F7
:1048D400790488828983A3A3A3E0F5D98882898394
:1048E400A3A882A983E864EE7003E9640470E390EA
:1048F40004FAE0601F78E87904FAE82413F582E901
:104904003400F583E0F5D988828983A3A882A9833A
:104914001AEA70E690051AE02407F5D99004EAE053
:10492400C4333354C04404F5D978E87904888289BF
:1049340083A3A3A3E0F5D988828983A3A882A9834A
:10494400E864EE7003E9640470E390051AE0601F04
:1049540078E87904FAE82433F582E93400F583E051
:10496400F5D988828983A3A882A9831AEA70E67597
:10497400E195900A1574AAF0A3740AF0A374F4F0F4
:10498400A3740BF0A374F4F0A3740BF0A374F4F009
:10499400A3740BF0A374F4F0A3740BF0A374F4F0F9
:1049A400A3740BF0A374B6F0A3740AF0900A2374F2
:1049B400F4F0A3740BF0A374F4F0A3740BF0A374D9
:1049C400F4F0A3740BF0A374F4F0A3740BF0A374C9
:1049D400F4F0A3740BF0A374F4F0A3740BF090043C
:1049E400E8E0F8A3E0C8240EF582E83400F5837407
:1049F400FFF0A3F0A3F0A3F09004E8E0F8A3E0C86C
:104A04002414F582E83400F5837415F09003A2743D
:104A140003F0024B79C082C0839004E8E0F8A3E07D
:104A2400C82406F582E83400F583E402424874F7AA
:104A340012169F9003D0E0F875F003A4C8AAF02AD8
:104A4400F974D228F8740339F9E82405FAE9340032
:104A5400FB8A828B83E0FCA3E0FD88828983A3A385
:104A6400A3A3A3A3A3A3A3ECF0A3EDF0888289835B
:104A7400A3A3A3A3A3A3A3E024FFF8A3E034FFF913
:104A84008A828B83E8F0A3E9F0024B7974F712165B
:104A94009FEAFEEBFF9061D0E06003024B6D75D995
:104AA4000E75D90375D904EE248BF582EF3400F525
:104AB40083E5822408F8E5833400F9E0F5D9A3E816
:104AC40065827003E9658370F2EE2483F582EF3426
:104AD40000F583E5822404F8E5833400F9E0F5D990
:104AE400A3E865827003E9658370F275E19579083E
:104AF400EE248BFAEF3400FB120BA07904EE24832E
:104B0400FAEF3400FB120BA07C00EEF8EFF9ECFA9C
:104B1400C3E49AFA95E0FBEE2AFAEF3BFBEA248A17
:104B2400F582EB3400F583E0C0E0E824AAF582E9DD
:104B34003400F583D0E0F00C88828983A3A882A98D
:104B440083ECC3940840C7EE246FF582EF3400F57C
:104B540083E0F8A3E0F9EE2471F582EF3400F583E5
:104B6400E8F0A3E9F07901800279008008F0EEA270
:104B7400E092AF79007F01021771C082C08375D9BA
:104B84000275D90375D90575E195EA246FF582EBB1
:104B94003400F583E0F8A3E0F9EA2471F582EB34FC
:104BA40000F583E8F0A3E9F0790102424B74F612B0
:104BB400169FEAFEEBFF9005457406F075084575EF
:104BC400090578081218B27C017903120BE8740203
:104BD40012164575D90675D903758245758305E0A6
:104BE400F5D9A3E582644A7004E583640570F07521
:104BF400E1959003A2E06408701EEE246FF582EF45
:104C04003400F583E0F8A3E0F9EE2471F582EF3483
:104C140000F583E8F0A3E9F07901024E7F74F612FF
:104C2400169FEAFEEBFF9061D0E070667801900574
:104C340045740BF09003A2E064077019750845757C
:104C4400090578081218B27C017903120BE8740282
:104C54001216457805740128F5D975D9037582456E
:104C6400758305E8FAE0F5D9A31AEA70F875E195B9
:104C7400EE246FF582EF3400F583E0F8A3E0F9EE5B
:104C84002471F582EF3400F583E8F0A3E9F07901AB
:104C940080027900024E7F74F712169FEAFEEBFF42
:104CA40075D90375D90375D90DEE24DDF582EF347A
:104CB40000F583E0F5D975E1957904120CF6EE243C
:104CC4006FF582EF3400F583E0F8A3E0F9EE247188
:104CD400F582EF3400F583E8F0A3E9F07901024BA3
:104CE4007974F612169FEAFEEBFF9061D0E0F87437
:104CF40080C398FAEE2482F582EF3400F583E060F5
:104D040004780480027800E8240BF8EAC39850037E
:104D1400024DAA7D09900545EDF0EE24E2F8EF344A
:104D240000F97A467B057C0888828983E08A828B35
:104D340083F088828983A3A882A9838A828B83A330
:104D4400AA82AB831CEC70E0EE2482F582EF34007F
:104D5400F583E0601D75084575090578081218B2D9
:104D64007C097903EEFAEFFB120BE8740212164584
:104D74007D0D74012DF5D975D903758245758305AB
:104D84008D08E0F5D9A31508E50870F675E1957965
:104D940004120CF6EE241DF582EF3400F583E4F0E2
:104DA400A3F0790180027900024E7F74F612169FF7
:104DB400EAFEEBFF9061D0E0F87480C398FAEE2429
:104DC40082F582EF3400F583E06004780480027891
:104DD40000E82408F8EAC3985003024E7D78069050
:104DE4000545740CF09003BFE0900546F09003C0B5
:104DF400E0900547F09003C1E0900548F09003C2AD
:104E0400E0900549F09003C3E090054AF0EE248257
:104E1400F582EF3400F583E0601B750845750905DC
:104E240078081218B27C067903EEFA120BE87402C1
:104E3400121645780A740128F5D975D90375824587
:104E44007583058808E0F5D9A31508E50870F6759B
:104E5400E1957904120CF6EE246FF582EF3400F537
:104E640083E0F8A3E0F9EE2471F582EF3400F583D2
:104E7400E8F0A3E9F07901800279007F020217715A
:104E840074F612169FEAFEEBFF9061D0E0F874808E
:104E9400C398FAEE2482F582EF3400F583E06004CF
:104EA400780480027800E82404F8EAC398500302E6
:104EB4004F5E7802900545E8F0EE24F4F582EF3475
:104EC40000F583E0900546F0EE2482F582EF34008D
:104ED400F583E0601B75084575090578081218B25A
:104EE4007C027903EEFA120BE87402121645780676
:104EF400740128F5D975D903758245758305880829
:104F0400E0F5D9A31508E50870F675E195EE24736C
:104F1400F582EF3400F583E4F0EE247FF582EF347C
:104F240000F583E4F0EE241DF582EF3400F583E40C
:104F3400F0A3F07904120CF6EE240DF582EF3400A0
:104F4400F583E0F8A3E0F9EE2471F582EF3400F57F
:104F540083E8F0A3E9F0790180027900024E7F74BE
:104F6400F612169F9061D0E0F87480C398FCEA248E
:104F740082F582EB3400F583E060047804800278E3
:104F840000E82404F8ECC398405B7902900545746A
:104F940007F0EA24F5F582EB3400F583E09005464A
:104FA400F0EA2482F582EB3400F583E0601875089A
:104FB4004575090578081218B27C0209120BE874C9
:104FC400021216457906740129F5D975D90375823B
:104FD40045758305E9F8E0F5D9A318E870F875E19B
:104FE40095790180027900024E7F74F512169FE9CB
:104FF400FCA2AFE433F50AC2AF7D0080010DEA24C0
:105004006EF582EB3400F583E0F8EDC398501A8D09
:1050140008EA2508F8EB3400F9E8246AF582E93453
:1050240000F583E06C70D68024EA246EF8EB34003B
:10503400F9E0FEEA2EFAEB3400FBEA246AF582EB8F
:105044003400F583ECF088828983E004F0E50AA259
:10505400E092AF7F0302177174F612169FA2AFE4B9
:1050640033FDC2AFEA246EF582EB3400F583E0141D
:10507400F07C0060368C08EA2508F8EB3400F9E887
:10508400246BF582E93400F583E0C0E0E8246AF596
:1050940082E93400F583D0E0F00CEA246EF582EB6B
:1050A4003400F583E0F8ECC39840CAEA246DF58235
:1050B400EB3400F58374FFF0EA2469F582EB3400E5
:1050C400F583E4F0EDA2E092AF024E7FC082C0838C
:1050D400E5A8F8C2AFEA246AF582EB3400F583E967
:1050E400F0EA2469F582EB3400F583E4F0E8A2E702
:1050F400A2E792AF02424B74F312169FEAFEEBFF53
:10510400ECFAEDFB8A828B83A3A3A3A3E0541FF0E4
:10511400EE2436F582EF3400F583E4F0F50AEEFC74
:10512400EFFD8A828B83E0C0E0EC245DF582ED34F0
:1051340000F583D0E0F0750B00E50A33333354F8FF
:10514400F50C8A828B83E0F508750900E50B780875
:105154001215FDE508A2E0502FEE2436F8EF3400D6
:10516400F988828983E0F508EE2508F508EF340014
:10517400F509E5082438F582E5093400F583E50CE2
:10518400F088828983E004F0050B050CE50BC394D9
:105194000840AF050A8A828B83A3AA82AB838C82E0
:1051A4008D83A3AC82AD83E50AC3940550030251F9
:1051B400267F0502177174F712169F9003CEE064E0
:1051C4000170030253187A009003D4E06003025381
:1051D400187401F0A3E4F0A3F090043404F09004F4
:1051E40039F09003D7E4F0A3F0A3F0A3F09003E127
:1051F40004F0900407E4F09003EAF0A3F0A3F0A312
:10520400F0A3F0A3F0A3F0900451F0900445F090C3
:10521400043A7480F0A3E4F0900440F09004BCF0ED
:10522400A3F0A3F0A3F0A3F0A3F0A3F0A3F09004E1
:10523400C5F0900454F09004A4F0A3F0A3F0A3F0FC
:10524400A3F0A3F0A3F0A3F0A3F0A3F09004B0F0B4
:105254009004B2F09004AEF09004C8F0A3F0A3F070
:10526400A3F0A3F0A3F0A3F0A3F078CE7903E8248D
:105274006EF582E93400F58374FFF00A888289832D
:10528400A3A882A983EAC3940440E37ACE7B03787B
:10529400DC790488828983E0C0E0EA2461F582EB4A
:1052A4003400F583D0E0F088828983A3A882A9839F
:1052B4008A828B83A3AA82AB83E864E17003E964E6
:1052C4000470D07ACE7B0378B5790388828983A36E
:1052D400E0C0E0EA24E6F582EB3400F583D0E0F0A8
:1052E40088828983A3A882A9838A828B83A3AA82C2
:1052F400AB83E864BD7003E9640370CF9003CEE030
:1053040004F0640170089003D6E09003D0F07AD2E0
:105314007B0380047A007B00024B79C082C08390B7
:1053240003D5E4F09003D4F09003CEF0A3F0A3747B
:10533400FFF075E1F102424BC082C083780079002E
:105344009003D5E0600478D2790388828983A3A38B
:10535400A3A3E0F902424B74F612169FEAFEEBFF98
:10536400EE2463F582EF3400F583E0F8A3E0F9E876
:10537400497003025400EE2463F8EF3400F97A0014
:105384007B00A2AFE433F508C2AF88828983E0FCD6
:10539400A3E0FDEC4D603A88828983E0FAA3E0FB48
:1053A4008A828B83E0FCA3E0FD88828983ECF0A3EE
:1053B400EDF08A828B83E4F0A3F088828983E0FC99
:1053C400A3E0FDEC4D700A88828983A3A3E4F0A3D3
:1053D400F0E508A2E092AF1211E29004E2E004F0DA
:1053E4009004E3E004F0EE2463F582EF3400F583E7
:1053F400E0F8A3E0F9E849600302537A8E828F83D0
:10540400A3A3A3E0600F8E828F83A3A3A3E4F090F1
:1054140003CFE014F09003CEE014F070069003D0B4
:1054240074FFF08E828F83A3A3E4F09004E1E07014
:105434000D9003CFE0640170057900120CD8EEFAE8
:10544400EFFB120C18024E7F74F712169FEAFEEB64
:10545400FF8E828F83A3A3A3A3E0FA7B001208FA32
:10546400EEFAEFFB120B6A120C00024B79C082C0F9
:105474008378B5790388828983A3E4F08882898359
:10548400A3A882A983E864BD7003E9640370E6906D
:1054940003B6740102424A74F612169FEAFEEBFF49
:1054A400EC2403F8ED3400F988088909EC2407F8A2
:1054B400ED3400F9E8FCE9FD8C828D83E0F8A3E08B
:1054C400F9850882850983E0FAA3E0FB1215A4EEAE
:1054D400240DF582EF3400F583E8F0A3E9F08C8223
:1054E4008D83E0F8A3E0F9850882850983E0FAA3B7
:1054F400E0FB1215A48B09EA45096013EE240DF5AF
:1055040082EF3400F583E02401F0A3E03400F002DC
:105514004E7F74F612169FEAFEEBFFEE242EF58200
:10552400EF3400F583E0FCA3E0FD780079FAECFAAF
:10553400EDFB1215A4EE246FF582EF3400F583E839
:10554400F0A3E9F0780079FAECFAEDFB1215A48BDC
:1055540009EA45096013EE246FF582EF3400F58300
:10556400E02401F0A3E03400F0024E7F74EC121644
:105574009FEAFEEBFF741412167B78081214E712EC
:105584000C9C8A0C8B0D8C0E8D0F751002751100FE
:10559400751200751300780C791012144D7510FFF4
:1055A4007511FF7512FF780C79101214AE780C1275
:1055B40018AE8E828F83E0F8A3E0F5838882A3A3DC
:1055C4001215051222BD7404121645E96003025631
:1055D400D48E828F83E02402F8A3E03400F9E8FA41
:1055E400E9FB8A828B8378081214738A828B837511
:1055F40008FF7509FF750AFF750B0078081214D4AB
:10560400EE240BF582EF3400F583C082C0838E82D2
:105614008F83A3A3A3A3A3E02401F8A3E03400F998
:10562400D083D082E0687003A3E069700579010239
:1056340056D68E828F83A3A3A3A3A3A3A3E024019E
:10564400F0A3E03400F0EE2473F582EF3400F58328
:10565400E064017036EE2474F582EF3400F583E0E3
:10566400F8A3E0F98E828F83A3A3A3A3A3A3A3E04B
:10567400687003A3E0697013EE2474F582EF3400BC
:10568400F583E02401F0A3E03400F0EE247FF582FA
:10569400EF3400F583E064017036EE2480F582EF88
:1056A4003400F583E0F8A3E0F98E828F83A3A3A3EB
:1056B400A3A3A3A3E0687003A3E0697013EE24809E
:1056C400F582EF3400F583E02401F0A3E03400F028
:1056D40079000243E374F612169FE9FEECFFEA2414
:1056E40062F582EB3400F583E064016003025782C3
:1056F4009061D0E0F508EA2482F582EB3400F5836A
:10570400E060047804800278007480C39508FC95F6
:10571400E0FDEF28F8E43400F9E82402F8E9340065
:10572400F9EC98ED99A2D265D033404E740A121662
:105734007BE0F508A3E0F509EA2482F582EB340066
:10574400F583E0601578081218B2EFFCEEF9120B3D
:10575400E8740212164574042FFF74012FF5D98ED4
:10576400D9EF600F850882850983F8E0F5D9A3187D
:10577400E870F875E195790080067907800279FF71
:10578400024E7F74F712169FA2AFE433FEC2AF8AB3
:10579400828B83E0F8A3E0F9E8498A828B83600A6C
:1057A400A3A3E0F8A3E0F5838882ECF0A3EDF08AEC
:1057B400828B83A3A3ECF0A3EDF08C828D83E4F0C1
:1057C400A3024B7174F712169FE96021F88C828D45
:1057D40083E08A828B83F08C828D83A3AC82AD8339
:1057E4008A828B83A3AA82AB8318E870E0ECFAED7B
:1057F400FB024B7974F412169F907803E0644270B4
:1058040055900544E014F0704DC2AF125812007860
:105814002AD0E0F618D0E0F6E59F54077005750924
:10582400FF800375097FC4C0E07829E6F50808E61F
:105834005509F509740B780812160DD0E02508F8FF
:10584400906270E0A2E740F8E8C333906272F0908F
:105854006270E0D2E0F09003D0E0F47003025BF2F7
:10586400E0F875F003A4C8AAF02AF974D228FE74EB
:105874000339FFEE2401F582EF3401F583E0F8A348
:10588400E0F9E849601EEE2401F582EF3401F58366
:10589400E0FAA3E0FBEE2400F582EF3401F583E0A7
:1058A400F9120FA88E828F83A3A3A3A3A3A3A3E0BB
:1058B400F8A3E0F98E828F83A3A3A3A3A3E8F0A3A4
:1058C400E9F0906054E09003A9F0906055E09003F3
:1058D400AAF0906056E09003ABF0906057E090031C
:1058E400ACF0906058E09003ADF0906059E0900304
:1058F400AEF090605AE09003AFF090605BE09003EC
:10590400B0F090605CE0FC9003B1F090605DE0FB6F
:105914009003B2F090605EE0FD9003B3F090605F9E
:10592400E0FA9003B4F09003AFE08C082508F8E4A3
:105934003400F98D08E82508F8E93400F98B08E803
:105944002508F8E93400F98A08E82508FAE934005A
:10595400FBEE24F6F582EF3400F583E02AF0A3E0B1
:105964003BF08C08EE24F8F582EF3400F583E02553
:1059740008F0A3E03400F0EE24FAF582EF3400F5E9
:1059840083E02401F0A3E03400F0EE24FEF582EF7E
:105994003400F583E0F8A3E0F9E849604290600040
:1059A400E0C333FCE433FDE82CF582E93DF583E004
:1059B4002AF0A3E03BF0906000E0FA9003B1E0FC31
:1059C400EAC333FAE433FBE82AF8E93BF9E8244A6A
:1059D400F582E93400F583E02CF0A3E03400F09084
:1059E40003AFE070119003B2E0700BA3E07007A363
:1059F400E07003025AEF8E828F83A3A3A3A3A3E0D4
:105A0400F8A3E0F9EE240DF582EF3400F583E028E5
:105A1400F8A3E039F9EE240BF582EF3400F583E8BE
:105A2400F0A3E9F0EE240FF582EF3400F583E4F0FF
:105A3400EE241CF582EF3400F583E06401701EEE61
:105A44002420F582EF3400F583E0F8A3E0F9EE2496
:105A54001DF582EF3400F583E8F0A3E9F09003AA82
:105A6400E06052EE241CF582EF3400F5837401F0FB
:105A7400EE2469F582EF3400F583E07038EE247388
:105A8400F582EF3400F583E0702BEE247FF582EF8E
:105A94003400F583E0701EEE2420F582EF3400F527
:105AA40083E0F8A3E0F9EE241DF582EF3400F583DA
:105AB400E8F0A3E9F0906062E07003025BA28E82DA
:105AC4008F83E0F8A3E0F9E82406FCE93400FDE85C
:105AD4002402FAE93400FB120C968E828F83E0F8DC
:105AE400A3E0C82412F582E8025BA89003B1E06049
:105AF4003AEE240FF582EF3400F583E4F0EE241C33
:105B0400F582EF3400F583E064017040EE2420F563
:105B140082EF3400F583E0F8A3E0F9EE241DF5826A
:105B2400EF3400F583E8F0A3E98020EE24FCF5824D
:105B3400EF3400F583E02401F0A3E03400F0EE2418
