:020000040000FA
:0600000002010702275B6C
:03002B00022BDDC8
:030053000227CEB3
:03006B00022B69FC
:100083000225C7E5C754F84401F5C77901220000EA
:100093000080FB120086B900030200F1E4792178A5
:1000A30008B800028004F709D8FCE479297802B87B
:1000B30000028004F709D8FCE490028178DC790718
:1000C3008002F0A3D8FCD9FA7A5C7B0990013778D7
:1000D3005379058015E493A3AD82AE838A828B8323
:1000E300F0A3AA82AB838D828E83D8E9D9E7758288
:1000F300AD7583FF740212011975829175830074C3
:100103000012011975D00075813F751881751902A8
:10011300759F00020096C09FF59FE473D09F22D085
:1001230083D082C09FE493C0E0740193C0E0740263
:1001330093F59F22FF0000B4000028002800283018
:1001430075A000A000A000A00000080008E001F0D6
:10015300001000100010001000100010005000509C
:1001630000500010001000D0070000000000000F36
:100173000001000500307507001000010081FF0039
:10018300000000FF8707A5078D07FF020202080290
:100193005000A0000000E80302CB810100009D8114
:1001A30002FB81010000B30902D581010000B30203
:1001B30002FB81010000B40902D781010000C902DA
:1001C30002FB81010000B50902D981010000CB02C5
:1001D30002FB81010000B60902DB81080000CC02AA
:1001E30002FB81010000B70902DD81010000B809AB
:1001F300FF0100FF2002CB81010000A38102FB81EC
:100203000100001C0A02DF81000000000002D3810C
:1002130003000019034B0D4B0D4B0D4B0D4B0D4BB9
:100223000D4B0D4B0D4B0D4B0D4B0D4B0D4B0DCD89
:100233000FE50FC70FFFFF1009506F7765724D650C
:1002430074657252656C6179051250002003020ACD
:1002530000020106506F776572204D657465722048
:1002630052656C617900000000E803D0070040008C
:100273000000000A566F6C74616765206D560100BB
:1002830001000000000157000100000000014101CE
:10029300BF110000CB11D111D711004000000000A5
:1002A3000A566F6C74616765206D561241494E2082
:1002B300566F6C74616765286D5629000A014149C0
:1002C3004E20436F6E662E000A0A41494E20506548
:1002D30072696F640002CB81010000A98102FB8176
:1002E300010000D30A02E781010000C20A02D381A0
:1002F300030000690702D181010000D40A02FB81D7
:10030300010000E40A02E381030000E50A02D1814F
:10031300010000E60A02FB81010000F00A02E1810C
:10032300030000F10A02D181010000F20A02020275
:10033300020202020202010D000000100102CB8141
:100343000100009A8102FB81010000550B02BF816D
:100353000100006F0702FB81010000560B02C181FF
:10036300010000C28002FB81010000570B02C38120
:10037300010000E08002FB81010000580B02C581EF
:10038300010000218102FB81010000590B02CF8192
:10039300010000058102FB810100005A0B02E58187
:1003A3000100000C8102FB810100005B0B02038250
:1003B300010000138102FB810100005C0B02EF814D
:1003C300010000D28002FB810100005D0B02ED8180
:1003D3000100005E0B1244494E205374617475731F
:1003E3000002CB81010000B28102FB81010000FD0C
:1003F3000B02BD81010000770702D3810300007A5D
:100403000702D181010000FE0B01E803053F100A3A
:100413007F7FFF000130750302010600000000002A
:1004230000000000000000000000000000000000C9
:1004330000000000000000FFFF0600800CE803003E
:100443000400035049521250495220537461747589
:10045300730002CB81010000A08102FB8101000037
:100463006E0C02EB81010000670C02D381030000D4
:100473003C0902D1810100006F0C00010000000063
:10048300015712506F776572204461746100000157
:100493000000000001411243757272656E742044BE
:1004A300617461000A506F77657220616E64204346
:1004B300757272656E7420436F6E662E000A0A5061
:1004C3006F77657220616E642043757272656E7416
:1004D30020506572696F640002CB81010000A68120
:1004E30002FB81010000AA0C02F381010000A20CAF
:1004F30002D381030000440902D181010000AB0C47
:1005030002FB81010000BE0C02F981010000B60C60
:1005130002D3810300004A0902D181010000BF0C0C
:1005230002FB81010000CC0C02F58103000050099D
:1005330002D181010000CD0C02FB81010000E50C1A
:1005430002F781030000E60C02D181010000E70CF1
:100553001A52656C6179205374617475730002CB10
:1005630081010000AC8102FB81010000780D0201D2
:1005730082030000530902D381030000560902D10C
:1005830081010000790D12012298A603120122AF06
:10059300A603120122E0A6031201221BA7031201E4
:1005A3002245A7031201226FA70312012286A70384
:1005B3001201229DA703120122B4A703120122DD17
:1005C300A703120122F0A70312012206A8031201B6
:1005D3002219A80312012240A803120122F6F401F2
:1005E300120122FAF50112012232F60112012255FB
:1005F300F60112012260F60112012283F6011201B3
:100603002292F70112012267F801120122E2F80196
:100613001201226AF901120122A5F901120122DC59
:10062300F9011201226AFA0112012243FB011201AC
:1006330022A3FB01120122AEFB011201222DFC01B8
:1006430012012230FC0112012233FC01120122C2E9
:10065300FC01120122C5FC01120122F5FC01120169
:10066300221FFD011201220DFE01120122BFFE0114
:1006730012012208E80212012230E8021201225E6E
:10068300E80212012295E802120122F3E8021201A4
:10069300223EE90212012289E902120122C9E9027A
:1006A3001201220FEA021201223DEA02120122FA8A
:1006B300EA0212012204EB0212012211EB021201DF
:1006C3002244EB0212012210EC021201221CEC0262
:1006D30012012234EC021201223EEC0212012268C2
:1006E300AE0312012276AE031201228EAE03120173
:1006F30022A6AE031201226AC90112012216CA01FF
:1007030012012291CA01120122B2CB01120122EE7F
:10071300CB0112012297CC011201227ECD011201DD
:1007230022E2CE0112012239CF01120122BACF01F6
:10073300120122AAD001120122F7D0011201227D57
:10074300D101120122AFD101120122C3D30112013F
:100753002205D40112012223D401120122A6D401BD
:100763001201227AD50112012242D6011201224E30
:10077300D60212012221D702120122CAD702120184
:10078300221DD802120122CDD80212012259D90208
:1007930012012245DA0212012274DA0212012287BF
:1007A300DB02120122CFDB02120122A4DC021201BE
:1007B30022E0DC02120122FCDC02120122EAAF0376
:1007C3001201223E88031201225488031201227A65
:1007D3008803120122968903120122A089031201C0
:1007E30022D58A03120122CD8B03120122E1E202F8
:1007F30012012211E40212012244E4021201228EA8
:10080300E40212012255E60212012243AA01120157
:1008130022ADAA011201220CAC011201221CAC016F
:1008230012012249AC01120122A0AC01120122499A
:10083300AD0112012250AE011201221AAF011201C1
:10084300227AB001120122BDB00112012262B1016C
:10085300120122AFB101120122D5B101120122E32B
:10086300B301120122E8B301120122EDB501120115
:10087300223AB601120122ADB601120122E0B601FD
:1008830012012282B7011201222BB8011201226345
:10089300B80112012266B801120122AEB801120199
:1008A30022EEB80112012245B901120122A69803D2
:1008B300120122BE98031201220699031201221C7F
:1008C3009903120122639903120122779A031201F9
:1008D30022049B031201224F9B03120122082C00C6
:1008E300120122142C001201224F2C001201229417
:1008F3002C00120122542D00120122DA2D001201C4
:10090300223F2E001201226B2E00120122A42E0080
:10091300120122E23000120122C63200120122AC7F
:100923003400120122EF35001201223D380012017A
:10093300224F39001201229A3A00120122AA3B00E7
:10094300120122C73B00120122023C0012012224A1
:100953003C00120122873C0012012248410012018F
:1009630022DD41001201222E4200120122554200D3
:10097300120122A74200120122C542001201221FC6
:1009830043001201220844001201227E4500120195
:100993002202460012012265F1021201226FF102C6
:1009A300120122B2F102120122CDF1021201225DE3
:1009B300F20212012285F202120122C2F202120194
:1009C30022F9F20212012222F30212012297F30208
:1009D300120122ACF302120122C1F302120122F22C
:1009E300F30212012206F4021201222BF402120175
:1009F3002265F40212012291F40212012214F5027B
:100A03001201225DF50212012287F502120122B2C0
:100A1300F50212012294FE02120122B8A802120169
:100A230022E6A80212012234AA0212012214AB0206
:100A330012012233AB02120122B0AB02120122F3E4
:100A4300AB0212012249AD021201220AAE021201C7
:100A53002291B00212012232B10212012228B20203
:100A630012012225B3021201227FB4021201220ACB
:100A7300B502120122817E00120122EA7E001201D8
:100A8300223E7F00120122657F00120122967F0021
:100A9300120122DAF50212012247F6021201228E16
:100AA300F602120122A6F702120122A2F802120193
:100AB3002285F90212012275BE02120122B7BE027B
:100AC30012012289BF0212012262C0021201225CBA
:100AD300C1021201223EC202120122A7C202120166
:100AE300225DC302120122D1C3021201223DC402BC
:100AF30012012266C402120122E0C4021201227909
:100B0300C502120122DEC502120122F3C50212013F
:100B13002239C60212012252C602120122B7C602AC
:100B2300120122BAC602120122AD9503120122D587
:100B33009503120122139603120122D19603120187
:100B4300223897031201225497031201227C970340
:100B5300120122AC9703120122BB97031201223820
:100B630098031201225E980312012232BA01120184
:100B73002210BC0112012242BE011201227EBE01DB
:100B8300120122ABBE0112012295BF01120122E024
:100B9300BF011201222BC0011201223DC00112012B
:100BA300227DC001120122B2C00112012200C10143
:100BB3001201222FC10112012252C1011201229FEF
:100BC300C10112012224C2011201223EC4011201F9
:100BD300227DC601120122BEC60112012260C80194
:100BE300120122A1C80112012214C901120122A378
:100BF3009B02120122A19C021201223AA3021201BA
:100C0300225BA50212012226A7021201228EA8024C
:100C13001201226946001201221847001201225EC6
:100C230047001201229E4800120122344A00120199
:100C330022AE4A00120122C94A00120122444B008B
:100C43001201229E4C00120122FE4D0012012204C9
:100C53004F001201226550001201227E5000120142
:100C630022DC5000120122CA5100120122FD510060
:100C73001201226D5200120122E7520012012231A9
:100C83005300120122FB5300120122D0540012011F
:100C930022AF55001201223A5600120122A8560033
:100CA3001201221C5700120122475700120122068B
:100CB30058001201226B59001201228859001201B7
:100CC30022A75900120122985A00120122BD5A008C
:100CD300120122E75A00120122625B00120122BCB8
:100CE3005B00120122255D00120122D35D00120177
:100CF30022145E001201220080021201224E8002A1
:100D03001201225A80021201223881021201226941
:100D130081021201229A81021201221A8202120115
:100D230022528202120122A48202120122E18202D1
:100D3300120122FE84021201222487021201220FD1
:100D43008902120122F98A02120122F1FF01120122
:100D530022309601120122609601120122399D016F
:100D6300120122BE9E01120122BBA401120122A381
:100D7300A501120122E0A50112012203A60112011D
:100D83002234A6011201223DA60112012247A60127
:100D930012012235A7011201222BA80112012244BC
:100DA3005E00120122436200120122496200120115
:100DB300228469001201229D6E00120122508F03CA
:100DC3001201224A9003120122BE9003120122FC57
:100DD3009003120122709103120122E9910312017F
:100DE30022F29103120122FE9103120122139203B4
:100DF3001201225192031201226792031201224728
:100E0300FA0212012254FA021201226EFA021201AC
:100E130022ADFA02120122EBFA0212012250FB0266
:100E230012012265FB0212012270FB021201227DD4
:100E3300FB0212012294FB02120122A2FB02120105
:100E430022ADFB02120122B9FB02120122C8FB02EE
:100E5300120122D3FB02120122F6FB021201229D90
:100E6300FC02120122ADFC02120122C7FC02120194
:100E730022E4FC0212012200FD0212012225FD02DE
:100E830012012230FD0212012245FD0212012259F4
:100E9300FD02120122BAFD02120122C0FD0212015B
:100EA30022C6FD02120122CCFD02120122E4FD0240
:100EB30012012217FE02120122CCE6011201225076
:100EC300E701120122FFE7011201225EE90112018B
:100ED300227FEB011201226BEC01120122A0EC0133
:100EE300120122C2EC0112012271ED0112012269E9
:100EF300EF0112012292EF0112012224F0011201EB
:100F03002256F00112012263F001120122BAF0010C
:100F1300120122E0F0011201224DF30112012250CD
:100F2300F401120122A8F4011201225BD80112017B
:100F33002265D9011201224CDA0112012256DA018B
:100F430012012278DA0112012284DA011201221D30
:100F5300DC011201224CDC0112012268DD011201C5
:100F630022C1DD0112012227DF0112012206E00165
:100F730012012262E001120122CFE0011201220AD2
:100F8300E10112012249E10112012202E4011201ED
:100F9300221CE401120122A8E401120122B6E40199
:100FA3001201220FE5011201221DE5011201229017
:100FB300E501120122F4E5011201223EE6011201CC
:100FC300225373001201227573001201229B7500D4
:100FD300120122B07800120122C879001201227B8B
:100FE3007A001201225D7B0012012252A803120132
:100FF3002277A803120122E9A803120122D4CE0208
:10100300120122DDCE02120122E6CE02120122BD1E
:10101300CF021201226ED102120122A4D1021201C7
:1010230022DED10212012214D2021201224ED20276
:1010330012012282D202120122AED202120122F73F
:10104300D20212012231D3021201227AD3021201F7
:1010530022D2D30212012207D40212012262D40245
:101063001201229CD402120122EDD4021201222386
:10107300D5021201225DD5021201228BD502120183
:1010830022AED5021201223FAF031201226BAF033E
:10109300120122C6AF03120122D0AF03120122E0D4
:1010A300AF0312012271DD021201227BDD02120164
:1010B30022B9DD0212012202DE021201223CDE020B
:1010C30012012292DE02120122B3DE02120122BCBD
:1010D300DE0212012207DF0212012230DF021201B7
:1010E300223ADF02120122A6DF021201223CE002B1
:1010F30012012286E002120122B6E0021201223F0F
:10110300E1021201227FE102120122B7E102120180
:1011130022C9E102120122E8E102120122F1E102F5
:10112300120122B7E20212012298AC03120122DB60
:10113300A20312012211A30312012247A3031201E6
:101143002290A403120122DCB003120122F2B003A5
:10115300120122FCB00312012246B1031201220044
:101163008003120122158003120122C88003120199
:1011730022088103120122218103120122558103D6
:10118300120122A28103120122D681031201221825
:1011930082031201221484031201228FAD03120170
:1011A30022B8AD03120122E1AD0312012223AE03E3
:1011B3001201228BB50212012278B802120122DF3A
:1011C300B902120122A9BA0212012252BC0212016F
:1011D30022BEBC021201222BBD0212012209BE0251
:1011E3001201222184031201226684031201228F39
:1011F300840312012226850312012274850312013E
:1012030022698603120122058803120122799B03B6
:101213001201229E9B03120122C89B03120122CAC0
:10122300A4031201220FA503120122C3A503120175
:10123300225FA603120122EEB103120122068201EC
:101243001201226A84011201221B86011201221D4E
:101253008701120122A687011201222A88011201A5
:10126300224F8801120122888B01120122FC8B017B
:10127300120122ED8C01120122278D011201226736
:101283008D011201221A8F011201226D8F011201A9
:1012930022B68F01120122249001120122569001DD
:1012A3001201226E900112012283910112012293F5
:1012B3009101120122AE9201120122D09201120178
:1012C30022069301120122AA9401120122E9940138
:1012D3001201220B960112012230FF011201224159
:1012E300FF01120122E6FF01120122A5B10312013F
:1012F30022E4B1031201229AB203120122EAB203D9
:101303001201226EB0031201227EB0031201229059
:10131300B003120122D9B00312012294AB031201CC
:101323002219AC031201227FAC03120122FB7F00BE
:10133300120122D78B03120122EB8B0312012264C9
:101343008C03120122398D031201220B8F03120128
:1013530022DC7F00120122D7B203120122E0B20382
:10136300120122E5B203120122F7A9031201224757
:10137300AA03120122D0AA0312012236AB031201DF
:10138300229EA003120122C8A0031201228EA103F0
:1013930012012269A203120122DEC6021201229B5C
:1013A300C702120122D6C702120122FEC70212018E
:1013B3002260C802120122ACC8021201220CC90227
:1013C3001201229FC9021201229ECA021201222D7A
:1013D300CC02120122B0CC0212012217CD0212015B
:1013E300222ECD0212012238CE0212012276CE0223
:1013F300120122D48D02120122349102120122BC65
:101403009202120122139302120122329302120159
:1014130022B0930212012240950212012224960265
:10142300120122309A02120122009B02120122456C
:101433009E031201228A9E03120122B39E0312010C
:1014430022139F03120122C99F0312012265A003E5
:10145300120122C5EC0212012215ED021201223EF5
:10146300ED0212012226EE0212012288EE0212017F
:101473002281EF0212012221F1021201229792032B
:10148300120122DC92031201220993031201226941
:10149300930312012294930312012246940312012F
:1014A3002274950312012235B2031201226EB20394
:1014B300120122B9B203E066701008A3E066700A55
:1014C30008A3E066700408A3E06622C3E796080950
:1014D300E7960809E7960809E79622C3E09608A36A
:1014E300E09608A3E09608A3E09622C008C3E0961E
:1014F300F50808A3E096420808A3E096420808A36B
:10150300E09645087001D3D00822E9799EC608CA3F
:10151300C608CBC608CCC6C370207996CACBCC709C
:1015230019798ECBCC70137986CC700EF9802ACAC8
:1015330033CACB33CBCC33CC331930E7F2CCCBCA61
:101543003350147004EA30E00DE4CA3ACACB3BCB03
:10155300CC3CCC500209C3E913C6CC182313C6CB29
:1015630018C6CA18C6F922E626184618461846228F
:10157300E72719471947194722181818E608460894
:101583007009E626087005E633F4220822191919B2
:10159300E70947097009E727097005E733F42209CA
:1015A30022E6084608C3134608336002E633F422F2
:1015B300E7094709C3134709336002E733F42212EB
:1015C30015A4601B1215B3601612156A7007121565
:1015D30073600CB322C0D01215737005D0D022C330
:1015E3002233D0D0501330E0EBC3E7960809E796D7
:1015F3000809E7960809E7962220E0E4E697080938
:10160300E6970809E6970809E69722001215A460F1
:101613004F1215B36012E7548066F612157C7011F1
:10162300121573703B090909F4F618F618F618F643
:1016330022121590701512156A08080860EAE6442C
:101643007FF618768018E4F618F62212156A6016EB
:101653001215737012E4F608F608F608E65480F6DD
:1016630009090918181822EAC0E0EBC0E0ECC0E051
:10167300EDC0E0E687F0A4FBACF008E687F0A42C0D
:10168300FCE435F0FA1809E687F0A42C4B600274E9
:1016930001CA35F0FCE433FB09E687F0D2F7A42C4A
:1016A300CB35F0FC1908E687F0A42BCC35F0FBE42E
:1016B30033FD0819E687F0D2E7A42C4ACB35F0CDE9
:1016C3003400FC09E687F0D2E7A42DCC35F0FDE425
:1016D30033FA0918E687F0D2F7A42CCD35F0CA34D3
:1016E30000FC08E687F0D2E7D2F7A42ACC35F07ADB
:1016F3007E20E70B0ACB33CBCD33CDCC33CC33CBEE
:101703003350147004ED30E00ED2F1E4CD3DCDCC76
:101713003CCC3B5005DA05C2F1EB547FC63308E6F7
:101723003392F0FBE73309E733C39A502D2B70193B
:101733000C0D4C4D70151806E608C333700D20F1DF
:101743000AA2F013F6E418800B4024E4F630F0020A
:10175300768018F618F618F68024D33B14501074CC
:10176300FFA2F013F6187680E418F618F6800FA29D
:10177300F013F618E63303F618ECF618EDF6D0E09E
:10178300FDD0E0FCD0E0FBD0E0FA221215A47004F7
:10179300181818221215B3700D74FFF61819F618DD
:1017A30019F61819F622E7548066F612156A700FB7
:1017B30012157370F014F608F608F608F680D112C5
:1017C3001573700CF608F608768008E6447F80EC03
:1017D300121593700C12157F60BFE65480F6E480F7
:1017E300BB12157F700519191980A5E869700C766D
:1017F3003F18768018F618F6E8F922E6CDC0E0180F
:10180300ECC0E0E633CD33CDD313F6E719FCE7198B
:101813001933CC33C3947F400ECD9D502408E65436
:1018230080F6E418F6800FF4043D14501408E644DF
:101833007FF6187680E418F618F6D0E0FCD0E0FDC9
:1018430022CCD313CCFD18E4C6CBC0E018E4C6CA3F
:10185300C0E00808ED08C633E613F618E433C6758E
:10186300F003C3CA97CA09CB97CB199C40047D08E0
:10187300802EBD000302193716B6FF0506060816AB
:1018830018C3CA33CACB33CB33CA27CA09CB37CB26
:10189300193CC37D08803E187D0820E75CC633C62B
:1018A300CA33CACB33CB33DDF1D5F0EB30E77BCA98
:1018B30097CA09CB974ACB199C406F4B7025E620FA
:1018C300E0218066187D08C3CA97CA09CB97CB1954
:1018D3009CD3C633C6CA33CACB33CB3350C9DDE737
:1018E300D5F0E1D3E4C636C608C636C608C636C642
:1018F30008C636C61818188031C3CA97CA09CB97C9
:10190300CB199CB34097C633C6CA33CACB33CB3348
:10191300DD34D5F02EC6A2E0C640C8CA27CA09CB1B
:1019230037194A70BECB3CB480B90808E63308E6E1
:1019330033601F181818D0E0FAD0E0FBD0E0FCD0D9
:10194300E0FD22187D08CA27CA09CB37CB193CD33F
:10195300808013F618E4B67F11F618B6FF0EF6185A
:10196300C60470D20808768080CAF618F618F68086
:10197300C5080808EAC0E0EBC0E086F0E7A4FA185F
:101983000986F0E7A42AFA180986F0E7A42AFA18C8
:101993000986F0E7A42AFA1986F0E7A4FBE5F02A02
:1019A300FA190886F0E7A42BFBE5F03AFA19088642
:1019B300F0E7A42BFBE5F03AFA18180986F0E7A440
:1019C300C5F02BFBE43AFA1908E7C5F0C6A426F6DE
:1019D300E5F03BFBE43AFA1886F0E7A4F6E5F008F5
:1019E30026F6E43B08F6E43A08F6D0E0FBD0E0FA4A
:1019F30022E4CFC0E0E4CEC0E0E4CDC0E0E4CCC05C
:101A0300E075F020E626F608E633F608E633F60836
:101A1300E633F6181818EC33FCED33FDEE33FEEF26
:101A230033FFC3EC9709ED9709EE9709EF9719195F
:101A330019400FFFEC97FC09ED97FD09EE97FE198E
:101A43001906D5F0BFECF709EDF709EEF709EFF743
:101A5300191919D0E0FCD0E0FDD0E0FED0E0FF2260
:101A63006016080808C6C313C618C613C618C613DB
:101A7300C618C613C6D5E0EA227009080808226012
:101A830016181818C6C333C608C633C608C633C6E5
:101A930008C633C6D5E0EA22E627F60809E637F694
:101AA3000809E637F60809E637F622E026F608A322
:101AB300E036F608A3E036F608A3E036F622E02681
:101AC300F008A3E036F008A3E036F008A3E036F010
:101AD30022C3E697F60809E697F60809E697F6089B
:101AE30009E697F622C3E096F008A3E096F008A370
:101AF300E096F008A3E096F022E657F60809E657C9
:101B0300F60809E657F60809E657F622E056F608FE
:101B1300A3E056F608A3E056F608A3E056F622E043
:101B230056F008A3E056F008A3E056F008A3E056E9
:101B3300F022E0F608A3E0F608A3E0F608A3E0F637
:101B430022E6F008A3E6F008A3E6F008A3E6F022F5
:101B5300E0FAA3E0FBA3E0FCA3E0FD22EAF0A3EBA1
:101B6300F0A3ECF0A3EDF022E0F8A3E0F9A3E0FA90
:101B7300A3E0FB22E8F0A3E9F0A3EAF0A3EBF02251
:101B8300CAC0E0E6F0A308DAFAD0E0FA22CAC0E05D
:101B9300E0A3C582CCC582C583CDC583F0A3C5822E
:101BA300CCC582C583CDC583DAE6D0E0CA22C3E4BF
:101BB30098F8E499F9121BF28026C3E49AFAE49B9D
:101BC300FBE920E7E9121BF2E498F8E499F922C350
:101BD300E498F8E499F9121BF2E498F8E499F9C34C
:101BE300E49AFAE49BFB22EB20E7CFE920E7E0B994
:101BF3000010BB0008E88AF084F8AAF022E4FBC8CE
:101C0300FA22EB70227B10C833C8C933C93350079B
:101C1300C39AC3DBF280069A50012ADBEAC833F485
:101C2300C8C933F4C9FA2275F008E4C833C8C93304
:101C3300C933C99AC99B5004C92AC93BD5F0ECFBE7
:101C4300C833F4C8E4C9FA22600D08C6A2E713C674
:101C530018C613C6D5E0F322600C08C6C313C61812
:101C6300C613C6D5E0F422700422600D18C6C33330
:101C7300C608C633C6D5E0F41822251810AF08F5F8
:101C830018400C15198008F51840021519D2AF2217
:101C930000C0D0251810AF08F518500C051980089E
:101CA300F51850020519D2AFD0D0222518F58210AD
:101CB300AF08F518400C15198008F51840021519DE
:101CC300D2AF851983222518F582E43519F58322CD
:101CD3002518F8E43519F9222518FAE43519FB22F9
:101CE3002518FCE43519FD22E4732518C582C0E0EC
:101CF300E51934FFC583C0E0E518C3958224F810C5
:101D0300AF08858319858218800885831985821811
:101D1300D2AFCEF0A3E520F0A37808E608F0A3DE67
:101D2300FAEFF0A3E58124FAF8E608F0A3E608F059
:101D3300A3E608F0A30808E608F0A3E608F0A31555
:101D4300811581D0E0FED0E0F8158115811581E879
:101D5300C0E0EEC0E0222518C582C0E0E51934FFDB
:101D6300C583C0E0E518C3958224F910AF088583C5
:101D7300198582188008858319858218D2AFCEF021
:101D8300A3E520F0A37808E608F0A3DEFAEFF0A3BA
:101D9300E58124FBF8E608F0A3E608F0A30808E6CB
:101DA30008F0A3E608F0A315811581D0E0FED0E08A
:101DB300F815811581E8C0E0EEC0E022851983851E
:101DC3001882E0A3FEE0A3F5207808E0A3F608DF7D
:101DD300FAE0A3FFE0A3C0E0E0A3C0E0E0A3C0E01B
:101DE300E0A3C0E0E0A3C0E010AF088582188583BC
:101DF300198008858218858319D2AFD083D08202D7
:101E0300011F851983851882E0A3FEE0A3F52078DE
:101E130008E0A3F608DFFAE0A3FFE0A3C0E0E0A335
:101E2300C0E0E0A3C0E0E0A3C0E010AF08858218E3
:101E33008583198008858218858319D2AFD083D012
:101E43008222C0D02518C582C0E0E51934FFC583BE
:101E5300C0E0E518C3958224F310AF088583198584
:101E630082188008858319858218D2AFC8F0A3E948
:101E7300F0A3EAF0A3EBF0A37908E709F0A3D8FAFB
:101E8300ECF0A3EDF0A3EEF0A3EFF0A3D0E0F0A30A
:101E9300D0E0F0A3D0E0F0A3E520F0A3E5F0F0A3B9
:101EA30022851983851882E0C0E0A3E0F9A3E0FA54
:101EB300A3E0FBA37808E0F608A3DFFAE0FCA3E0C5
:101EC300FDA3E0FEA3E0FFA3E0C0E0A3E0C0E0A326
:101ED300E0F5D0A3E0F520A3E0A3F5F010AF08856B
:101EE30083198582188008858319858218D2AFD01B
:101EF30082D083D0E0F8D0E032740480067402808C
:101F0300027401C0E0F404121CAED0E0121B832261
:101F13007404800474028000CCC0E0EDC0E0E518D6
:101F2300C39CCCAD1950011D10AF068C188D1980C0
:101F3300068C188D19D2AF121B90D0E0FDD0E0FCB7
:101F430022D083D082E9C0E0E493A3C386F0C5F036
:101F530095F0F908E493A386F0C5F095F0700BE4CF
:101F630093A3C3994005E9048002A3E475F002A496
:101F73002582F582E5F03583F583D0E0F9E493A378
:101F8300C0E0E493C0E022D083D082ECC0E0EDC097
:101F9300E0E493A3FCE493A3FDED4C600D121FD684
:101FA300EC24FFFCED34FFFD80EFE493A3FCE4930A
:101FB300A3FDED4C600D122015EC24FFFCED34FF66
:101FC300FD80EFD0E0FDD0E0FCE493A3C0E0E49318
:101FD300C0E022C0E0C3E4939608740193961840CE
:101FE3000FE4936670080874019366187000701903
:101FF300A3A3C3E49396087401939618A3A3400D77
:10200300D0E0D0E0D0E0021FC6A3A3A3A3A3A3D034
:10201300E022C0E0C0F088F0E49366700808740121
:102023009366187000A8F0A3A3700BD0F0D0E0D093
:10203300E0D0E0021FC6A3A3D0F0D0E02274F512D3
:102043001D59EAFEEBFFEE2434F8EF3400F988085B
:102053008909EE2435F582EF3400F583E0F8EE24A8
:1020630037F582EF3400F583E0F50AEC850AF0A436
:10207300FCAAF0850AF0EDA42AFDE82CF8E43DF96A
:102083007A257B00121BF2EA850882850983F0F822
:10209300740758F97401B900028004C333D9FCFAF8
:1020A300E8131313541FF8EE28F8EF3400F9E8246B
:1020B3005DF582E93400F583E05A6008EE2434F5D7
:1020C30082EF802CEE2434F582EF3400F583E0C0F8
:1020D300E0EE2436F582EF3400F583E0F5F0D0E04E
:1020E30084A8F0EE28F8EF3400F9E82438F582E903
:1020F3003400F583E0F97F04021E0574F5121D59BF
:10210300EAFEEBFFEE2434F582EF3400F583E0C002
:10211300E0EE2435F582EF3400F583D0E0F08E82D3
:102123008F83A3A3A3A3A3A3A3C082C0838E828F01
:1021330083A3A3A3A3A3E0F8A3E0F9D083D082E011
:10214300C398F508A3E099F509EE247FF582EF34EF
:1021530000F583E064017069EE2480F582EF3400BA
:10216300F583E0F8A3E0F98E828F83A3A3A3A3A34F
:10217300A3A3E0FCA3E0FD8E828F83A3A3A3A3A369
:10218300E0FAA3E0FBC3EA9CEB9D5010C3EC98ED8F
:1021930099402EC3EA98EB995027800EC3EA98EB37
:1021A300994007C3EC98ED9940177CDC7D04EEFA67
:1021B300EFFB120CA9EE247FF582EF3400F583E4E4
:1021C300F0EE2434F8EF3400F9E8FCE9FDEE2435B1
:1021D300F582EF3400F583E0F8EE2437F582EF342F
:1021E30000F583E0F50AE508850AF0A4F508AAF0EE
:1021F300850AF0E509A42AF509E82508F8E4350974
:10220300F97A257B00121BF2EA8C828D83F0F87435
:102213000758F97401B900028004C333D9FCFAE802
:10222300131313541FF8EE28F8EF3400F9E8245D74
:10223300F582E93400F583E05A6008EE2434F58230
:10224300EF802CEE2434F582EF3400F583E0C0E018
:10225300EE2436F582EF3400F583E0F5F0D0E08428
:10226300A8F0EE28F8EF3400F9E82438F582E934D1
:1022730000F583E0F9122B550220F9C082C0838553
:102283001882851983E0F8A3E0F9C3EA9CEB9D501B
:1022930010C3EC98ED99401BC3EA98EB9950148056
:1022A3000EC3EA98EB994007C3EC98ED9940047983
:1022B3000180027900D083D08222EAC39CFAEB9D8D
:1022C300FB2274EF121D599003A2E064086005E03D
:1022D3006407702A9061C8E060249003D0E0F46042
:1022E3001DE0F875F003A4C8AAF02AF974D228FEF9
:1022F300740339FF8E828F83A3A3A3E070030223A9
:10230300F5906060E0C0E0EE2468F582EF3400F5FC
:1023130083D0E0F0750C45750D057508007509004F
:10232300E5D914F50AE5D95403F50E60177403656E
:102333000E605CE50A6010EE2467F582EF3400F569
:1023430083E070030223DA900540E06401602AEE23
:102353002482F582EF3400F583E060047804800280
:102363007800850A08E508C398FA95E0FB120B7D0F
:102373008A088B09EA45097005120E9B8074EE24C6
:1023830082F582EF3400F583E070048A0C8B0DE54F
:102393000A6012850C82850D83F50BE5D9F0A31530
:1023A3000BE50B70F6EE2482F582EF3400F583E043
:1023B300604474FC250AF50A780C121F00AC0AA9C4
:1023C3000EEEFAEFFB120D457402121C93E9702610
:1023D300AA08AB0912136F793D8E828F83A3A3A33F
:1023E300A3E0FA7B00120A51EEFAEFFB120CC112C2
:1023F3000D57790080747403650E6056850A107555
:1024030011007810121F00AC0CAD0DAA08AB091215
:102413000D217402121C93EE2468F582EF3400F54B
:1024230083E064807004747F8001E0F50C780C1203
:102433001F04E50EF50C780C121F04A90AAC08ADB5
:10244300099003D0E0FA7B00120A157402121C9360
:1024530080139003A2E06408600BAC0CAD0DEEFAA0
:10246300EFFB120DB1120EA779017F0A021E05744C
:10247300F5121D5974FC121C7DEAFEEBFF8908A2BC
:10248300AFE433F509C2AF806AEE2463F8EF34009A
:10249300F97A007B00A2AFE433F50AC2AF888289E0
:1024A30083E0FCA3E0FDEC4D603A88828983E0FA87
:1024B300A3E0FB8A828B83E0FCA3E0FD888289830F
:1024C300ECF0A3EDF08A828B83E4F0A3F088828999
:1024D30083E0FCA3E0FDEC4D700A88828983A3A30B
:1024E300E4F0A3F0E50AA2E092AF12136F9004E3C5
:1024F300E004F0EE2463F582EF3400F583E0F8A303
:10250300E0F9E849603DEE2463F582EF3400F5839A
:10251300E02402FAA3E03400FBEA2402F50AEB34D8
:1025230000F50B780A121F008A828B83E0FCA3E07C
:10253300F9EEFAEFFB120CE57402121C93E9700337
:1025430002248C9004E3E060639004E4E0F89004D8
:10255300E3E0C398500C7402650870509004E5E002
:10256300604A8E828F83A3A3A3A3E0851882851973
:1025730083F0A3E4F09004E3E0F87402121CC9E8CA
:10258300F0A3E4F09004E3E0F89004E2E028F074B0
:1025930002121CC9AC82AD83851882851983AA8275
:1025A300AB837901120A219004E3E4F0E509A2E088
:1025B30092AF7404121C930220F900000085218756
:1025C3008522C622C0E0C0D0E8C0E0E9C0E0EAC08E
:1025D300E0EBC0E0ECC0E0EDC0E0EEC0E0C008C05E
:1025E30009C00AC00BC082C083C0F0A2AFE433FEAF
:1025F300C2AF759B00906182E0A2E05012E591A208
:10260300E0500C7591FE7401652170031222C5E040
:10261300A2E55051E591A2E5504B7591DF9003A2DD
:10262300E064076005E06408702374016521703578
:1026330079019003D0E0FA75F003A4CAA8F028FB4F
:1026430074D22AFA74033BFB1224728018E0640DDF
:1026530070139003C4E004F064287002E4F07A007D
:10266300E0F9120EAD906182E0A2E6400302270E6C
:10267300E591A2E6400302270E7591BF9003A2E005
:1026830064057008120DDB120DE78003120DE1756E
:102693002100120E3BE99003A3F07900120E2F12D2
:1026A3000C1F7A017B009003A1E0F91210FF9078D0
:1026B30003E064427055900544E014F0704DC2AFDE
:1026C3001226C600782AD0E0F618D0E0F6E59F542B
:1026D3000770057509FF800375097FC4C0E0782979
:1026E300E6F50808E65509F509740B7808121C5B32
:1026F300D0E02508F8906270E0A2E740F8E8C33321
:10270300906272F0906270E0D2E0F0906181E0A29A
:10271300E35009E5E9A2E3500375E9F7A3E0A2E773
:102723005009E591A2E7500375917FEEA2E092AFC5
:10273300D0F0D083D082D00BD00AD009D008D0E01B
:10274300FED0E0FDD0E0FCD0E0FBD0E0FAD0E0F931
:10275300D0E0F8D0D0D0E032C0E0C0D0C082C08397
:10276300906183E0A2E05009E5BFA2E0500375BF8A
:10277300FEE0A2E15009E5BFA2E1500375BFFDE011
:10278300A2E25009E5BFA2E2500375BFFBE0A2E35A
:102793005009E5BFA2E3500375BFF7E0A2E4500977
:1027A300E5BFA2E4500375BFEFE0A2E55009E5BF22
:1027B300A2E5500375BFDFE0A2E65009E5BFA2E63C
:1027C300500375BFBFD083D0828088C0E0C0D0E8FB
:1027D300C0E0E9C0E0EAC0E0EBC0E0ECC0E0EDC07F
:1027E300E0C0F0E5A7A2E6500FE5A1A2E650095329
:1027F300A7BF75A1BF122833E5A7A2E5500CE5A139
:10280300A2E5500653A7DF75A1DFE5A7A2E15009B2
:10281300E5A1A2E1500375A1FDE5A7A2E2500CE5F5
:10282300A1A2E2500653A7FB75A1FBD0F0022744F7
:1028330074F8121D597521019003A2E06406701506
:10284300120D758A828B83A3A3A3A3A3A3E0FAA388
:10285300E0FB120DC9A2AFE433FED2AF9003A8E0B0
:10286300640170187A207B009003A1E0F9121183B0
:102873007A207B009003A1E0F9121105906182E0B8
:10288300D2E6F0900541E0602185C62280169003D0
:10289300A7E064017008E5C654F84405F5C653BEC5
:1028A300FC1225C07401652160E4EEA2E092AF7FC3
:1028B30001021E05008E238F2485822885832785A8
:1028C3001882851983E0CEA3E0CF852882852783EC
:1028D300EBC9EAC8EDCBECCA75F010C3E833C8E91D
:1028E30033C9EA33CAEB33CBC3EA9EF526EB9FF534
:1028F30025B35004AB25AA26EC33CCED33CDD5F06C
:10290300DAAE23AF242274ED121D598A088B098C89
:102913000A8D0B7413121CC9780C121B35780879B5
:102923000C1214CE7510017511C8751200751300C1
:1029330050127808790C121AD4781079081214CE30
:1029430050168010780C7908121AD47810790C126A
:1029530014CE40047901800279007F0C021E0574B5
:10296300ED121D598A088B098C0A8D0B7413121CE6
:10297300C9780C121B35780C79081214CE401178E3
:1029830008790C121AD4AA08AB09AC0AAD0B802241
:102993007510007511007512007513017810790C0C
:1029A300121AD478107908121A9BAA10AB11AC1220
:1029B300AD1380A68A828B837508FF7509FF750A9C
:1029C300FF750B007808121B227F04021E0574F5A5
:1029D300121D598C828D837808121B358A828B8352
:1029E3007808121AE8EA2404F8EB3400F98C828D93
:1029F30083A3A3A3A3E0FCA3E0FD88828983C3E0B0
:102A03009CF0A3E09DF088828983C3E09420A3E037
:102A1300944E40268A828B837508FF7509FF750AD9
:102A2300FF750BFF7808121AC18A828B83A3A3A3B5
:102A3300A3E02420F0A3E0344EF00229B774F5128A
:102A43001D59E9FE9004F7E0FAA3E0FBEEC333F867
:102A5300E433F9749228F582748039F583E02AF51A
:102A630008A3E03BF5097808121F007A407B427CFB
:102A73000F7D001228B87402121C938A088B098CEC
:102A83000A8D0B74107808121A63AA08AB097F0425
:102A9300021E0574F1121D598A0C8B0D8C0E8D0FBD
:102AA300740F121CC9E0FAA3E0FB7411121CC9E0F5
:102AB300F508A3E0F5097808121F00EA2401F508D8
:102AC300EB3400F509E4F50AF50B780C79081219D3
:102AD30074750871750902780C7908121974AA0CB7
:102AE300AB0DAC0EAD0F1228B87402121C938B09F8
:102AF300EA450960047A0180027A00EC2AFCED348D
:102B030000FD7413121CC9E0F8A3E0F9E8FEE9FF25
:102B1300ECF8EDF97A717B02121BF2880889098EB1
:102B2300828F837808121B44ECF8EDF97A717B02EB
:102B3300121BF28A088B0974057808121C6A8E82AC
:102B43008F83A3A3A3A3E508F0A3E509F07F0802FD
:102B53001E05C082C083E9906000F0D083D082223A
:102B6300C2AF02000022C0E074F2121E4574F212DA
:102B73001C7DA2AFE433FED2AF9080FE7407121C1B
:102B8300E37407121B9090811AAC18AD19740712E5
:102B93001B90E589A2E5502EE58CA2E05012538CE0
:102BA300FEAC18AD197A07790012143B7A00801134
:102BB300438C017407121CE37A07790012143B7AE1
:102BC300017902121339758900C2C5EEA2E092AFF2
:102BD300740E121C937F01021EA4C0E0C0D0E8C093
:102BE300E0E9C0E0E5A8D2AFC2C7A2E7A2E792AF8F
:0B2BF300D0E0F9D0E0F8D0D0D0E03204
:102C0000FFFFFFFFFFFFFFFFC082C083E9900A1BA9
:102C1000F0022E9774F7121CEDE99002E1F07C1996
:102C20007D037AFF7BFF12096D9002E274FFF0A32F
:102C3000F0A3E4F0A3F079051208F59002E1E0F9C1
:102C40001208177A8B7B09120B2F7F01021DBF74AC
:102C5000F4121CED8A088B09EB548060309002E17D
:102C6000E0F91210E78A0A8B0BAE0AAF0BEE4F6049
:102C7000138E828F83E064B0700312090DEEFAEFB9
:102C8000FB1210D5AA08E5096480FB80047A007B5A
:102C900000022E6674F2121CED74FC121C7DEAFE1A
:102CA000EBFFEE4F60387402121CC9EEF0A3EF1276
:102CB00030CBECF0A3ED1230CBAA82AB831208111B
:102CC000E9F50870737412121CC9123C7FE50A45BD
:102CD0000B60658E828F83122D42EE4F7005750852
:102CE0000280557A067B0012113B8A0C8B0DA80CD2
:102CF000A90DE8497005750813803D88828983E431
:102D0000122D4CA3A3EEF0A3EF124118E50AF0A395
:102D1000E50BF09002E7122DD49002E76017E0FC7B
:102D2000A3E08003EAFCEBFD8C828D83122DD4702E
:102D3000F38C828D83123BA4A9087404121C9302A5
:102D4000431AA3A3A3A3E0FEA3E0FF22F0A3F0880D
:102D50008289832274F2121CED890AE975F017A4A6
:102D6000FEAFF09002E6E4F09002E4122DD4600A87
:102D70001211419002E4E4F0A3F0EEFAEFFB12111D
:102D80003B8A088B09EA4509602FEEFCEFFD7900CC
:102D90001210C39002E4E508F0A3E509F07B00807F
:102DA00008122DBEE4F0A3F00BEBC3950A40F2E548
:102DB0000A9002E6F079008002791302431AEB755B
:102DC000F017A4F8A9F09002E4E028FAA3E0398A09
:102DD00082F5832212393AEA4B2274F4121CED7503
:102DE0000800750900740C121CC91240ECFEE9FFC2
:102DF000800CE5082401F508E5093400F509C3E570
:102E0000089CE5099D503285080A85090B740378F2
:102E10000A121C6AEA250AF8EB350BF988828983C5
:102E2000A3A3A3A3A3A3123C7FEE650A7003EF65DF
:102E30000B70BFE8FAE9FB80047A007B00802774FE
:102E4000F4121CED7900EAA2E0501B7508407509E8
:102E5000817808121F007C047D007A1D7B0A12080D
:102E6000EF7402121C937F04021DBFC082C08390C6
:102E700002E7122E9E601C88828983A3A3E06A70F9
:102E800003A3E06B8882898370E8A3A3A3A312390C
:102E90003680047A007B00D083D08202011F124367
:102EA000EDE8492274EE121CED74FC121C7DEAFE62
:102EB000EBFF851882851983E4F0A3F0EE2402125B
:102EC0003B88EE24051230B9EE2404F50EEF1234DF
:102ED0009EE024FE603924FC604624FE605224FEFD
:102EE000605E24FE7003022FBE24FE7003023036A3
:102EF00024FE700302304524FE700302305424FC8B
:102F0000700302306324FE70030230720230AF900F
:102F100003007417F0A3E41230D312058F0230AF10
:102F2000851882851983AC82AD8312091302307F24
:102F3000851882851983AC82AD8312091902307F0E
:102F4000850C08850D097402121CC9AC82AD8385FD
:102F500008828509831239361208358A0C8B0DAC2C
:102F60000CAD0DEC4D6042E4F50CF50D780C121F24
:102F700000750C00750D03780C121F00750C01759F
:102F80000D03780C121F007408121CC9121F177948
:102F9000161239301209557408121C93E9F50C7099
:102FA0000B12392C1205A7800F750C01850882853C
:102FB00009831230C1123BA4850C080230827402CE
:102FC000121CC9AC82AD83850C82850D8312393603
:102FD0001208358A108B11AC10AD11EC4D60438591
:102FE0000C82850D83A3A3121F17751000751103A2
:102FF0007810121F007510017511037810121F0050
:103000007408121CC9121F1779161239301209558B
:103010007408121C93E9F509700B12392C1205ADD6
:10302000800F750901850C82850D831230C1123B1A
:10303000A4850908804C851882851983AC82AD83EC
:1030400012091F803A851882851983AC82AD8312DC
:103050000925802B851882851983AC82AD831209DE
:103060002B801C851882851983AC82AD83120931AF
:10307000800D851882851983AC82AD83120937E9EA
:10308000F508E50860298E828F83A3E06414601F31
:10309000850E82850F83E09003001230CB1243E946
:1030A000900301123BA4E508A31230D3120589EE68
:1030B000FAEFFB1208B3023A90F50CEF3400F50D6D
:1030C000221243ED85188285198322F085188285A6
:1030D000198322F07C007D03850A82850B831239D7
:1030E0003A2274EE121CED74FC121C7D8A0A8B0BC2
:1030F0008C0E8D0FEA2405F508EB3400F5097C15DC
:103100007D0079007A007B031210C3E5082402F5E4
:103110000CE5091230BC85188285198385821085DB
:1031200083117810121F00850882850983A3A3A349
:10313000A31235E6121F00E5082405F510E5093451
:1031400000F5117810121F00850C82850D8312394D
:103150004012082F7406121C938A108B11AE10AF08
:1031600011E50A2402F50AE50B123B8BEE4F7003C2
:103170000232A880177402121CC91239368882895B
:1031800083EAF0A3EBF0900300E004F0900300E08A
:10319000C3940540030232A8E4F510F5117810122B
:1031A0001F007510E97511027810121F007510EAE2
:1031B0007511027810121F007406121CC9121F1715
:1031C0007910EEFCEFFD1239301209557408121C0B
:1031D00093E9705E850882850983A3A3A3A3A3A3B3
:1031E000A3E0F89002E9E06870481235E6121F008B
:1031F0007CEA7D02E5082408FAE5093400FB121098
:10320000BD7402121C93E960298E828F83A3A3A34D
:10321000A3123936900300E0F51074027810121CE6
:103220006A74012510F58274033511F583EAF0A361
:10323000EBF07402121CC98582108583117810127C
:103240001F007402121CC9121F17850C82850D8382
:103250001243FE12083B7404121C938A108B11AEA9
:1032600010AF11900300E0F5107511007402781092
:10327000121C6A74002510F874033511F9888289CC
:1032800083A3122DD4700302316CE82403F8E934CF
:1032900000F9EE4F60030231758882898374FFF074
:1032A000A3F0900300E004F0900300E0600A1239FC
:1032B0002C12059B7900800B850882850983123BBF
:1032C0009B790A023A9074EA121CED74FE121C7D7E
:1032D0008C128D13EA2405F50CEB124568122D466D
:1032E000750800750900EA2402F510EB3400F511A9
:1032F00085188285198385820A85830B780A121FB7
:1033000000850C82850D83A3A3A3A31234A8121FEA
:1033100000E50C2405F50AE50D123B8B780A121F17
:1033200000850C82850D831243FC12082F7406124F
:103330001C938A0A8B0BEA450B7003023459EA246A
:1033400004F50EEB12349E122D468A828B83A3A3C2
:10335000A3E0F985108285118312393612081DE920
:10336000F5096003023459E4F514F5157814121FB9
:10337000007514E97515027814121F007514EA75AA
:1033800015027814121F007406121CC9121F177937
:1033900013AC0AAD0B8510828511831239361209E0
:1033A000557408121C93E9F5096003023459900220
:1033B000E9E0F8E5087009E02402900301F08017C5
:1033C000900301E0FCE82402FAE43400FBEA6C70AC
:1033D00001EB600302345D850882AA821235DD9418
:1033E000141235D55073850E82850F83E0C0E074CA
:1033F000022A123495D0E0F00508850E82850F83ED
:10340000A3E0C0E085080A7402250A123495D0E0D2
:10341000F005089002E91234A8121F007CEA7D0230
:1034200085080A7402250AFA74033400FB1210ABF3
:103430007402121C939002E9E02508F50874FF6EEF
:10344000700374FF6F6012EE24010EEF3400FFE58D
:1034500008C3941450030232F0E5086013123821B7
:103460008510828511831239361205A179008014E6
:10347000E509700375090A851282851383EEF0A3AE
:10348000EFF0A9097402121C937F0E021DBF85087C
:103490000C7402250CF58274033400F58322340089
:1034A000F50F850E82F5832212412B2274EE121C39
:1034B000ED74FE121C7D8C0E8D0FEA2405F50CEBCD
:1034C0001230BC750B00900300E4F0F50AEA240208
:1034D000F508EB3400F5098049900300E0FA90020A
:1034E000E9E0F81235DD94171235D5400D90030050
:1034F000E0F87416C3989002E9F01235E6121F0046
:103500007CEA7D0274012AFA74033400FB1210ABCA
:103510007402121C939002E9E0F8900300E028F096
:10352000050AE50C2416F582E50D123499E0F8E55C
:103530000AC39840030235BE900300E0C3941650BE
:103540007DE50AC333F8E433F9E50C28FEE50D39CF
:10355000FF851882851983AC82AD838E828F83129A
:1035600039361208358A108B11AC10AD11EC4D7044
:1035700005750B018043E4F510F5117810121F005A
:103580007510E97511027810121F007510EA751197
:10359000027810121F007406121CC9121F17791628
:1035A0008508828509831239361209557408121C60
:1035B00093E9F50B70030234D9123B9780107C001D
:1035C0007D038508828509831239361205B3A90B5C
:1035D0007402023A92E99400C365D03322EA28F8D3
:1035E000E43400F9E822E0F5107511007810227437
:1035F000EA121CED74FC121C7D8A0C8B0D8C128D52
:1036000013EA2405F50AEB123B8B750800750900D7
:10361000E50A2402F510E50B3400F5117402121CC2
:10362000C985820E85830F780E121F00850A828558
:103630000B83A3A3A3A31240D7121F00E50A2405FE
:10364000F50EE50B3400F50F780E121F0085108281
:10365000851183123B9112393012082F7406121C07
:10366000938A0E8B0FAE0EAF0FE50C2402F50EE51C
:103670000D3400F50F80408882898374FFF00508BF
:1036800012348E74FFF005089002E9E0F50C750D18
:1036900000780C121F007CEA7D0285080C7402255C
:1036A0000CFA74033400FB1210AB7402121C9390DA
:1036B00002E9E02508F508EE4F60718E828F83A342
:1036C000A3A3E0F9850E82850F8312393612081DF7
:1036D000E9F509EE24041230B9E97044E4F514F573
:1036E000157814121F007514E97515027814121F4D
:1036F000007514EA7515027814121F007408121C64
:10370000C9121F177911EEFCEFFD850E82850F831C
:103710001239361209557408121C93E9F50960270D
:10372000850C82850D83123817123BA4E5087003BF
:103730000237FD123821850E82850F831239361229
:1037400005B97900023812850882AA82EA9002E956
:103750007009E02404900301F08022E0F890030156
:10376000E0F514E82404FCE43400FDEC6514700179
:10377000ED70C01235DD94121235D550B6850C822D
:10378000850D83E0C0E074022A123495D0E0F00584
:1037900008850C82850D83A3E0C0E012348ED0E052
:1037A00012383385820C85830D780C121F00740447
:1037B000121CC9121F178510828511831243FE1235
:1037C000083B7404121C938A0C8B0DAE0CAF0D8554
:1037D000080C7402250CF874033400F9EE4F7003E2
:1037E000023677851882851983E0888289831238AA
:1037F00033A3E0C0E012348ED0E0023685E50970D4
:103800000375090A850A82850B83123817123BA4B7
:10381000A90974040234861243ED8512828513834C
:1038200022900301E0F5F0E50884900300F07C00AD
:103830007D0322F005088518828519832274EC1215
:103840001CED74FE121C7D8A088B098C0E8D0FEA0C
:103850002405FEEB3400FF851882851983AC82AD08
:10386000838E828F831239361208358A0A8B0BEECB
:1038700024181230B9EA450B7003023907123A795D
:1038800050328518828519831239361209498A10F7
:103890008B11EA4511606B7912AC0AAD0B85088279
:1038A000850983123936851082851183121CEBE954
:1038B000F50A7058E4F50AF50B780A121F008E829B
:1038C0008F83A3A3E0F50A780A121F00EE240312E7
:1038D0003B88780A121F008E828F831239401209AA
:1038E0005B7406121C93E9F50A7021850C82850D24
:1038F00083E0701F8508828509831239361205BF5F
:103900008011750A0E8009750A018004E50A6003BA
:10391000123B97850C82850D83E06004790080025C
:10392000A90A7402121C937F0C021DBF7C007D0348
:10393000850A82850B8312393A22E0FAA3E0FB2242
:10394000E0FCA3E0FD85088285098312393A2274E0
:10395000EE121CED74FE121C7D8A088B098C0C8DF6
:103960000DEA2405FEEB3400FF750E0085188285F4
:103970001983AC82AD838E828F831239361208355B
:103980008A0A8B0BEA450B7003023A65123A7950AA
:10399000358518828519831239361209498A0E8BAA
:1039A0000FEA450F605E7912AC0AAD0B850882857F
:1039B0000983123936850E82850F83121CEBE9F5D7
:1039C0000E6003023A68850882850983123C7FAA4B
:1039D0000AFB12093D8A108B11A810A911E8497041
:1039E0001E7AFF7BFF12093D8A108B11A810A911C6
:1039F000E849606C88828983E50AF0A3E50BF075DD
:103A00000A008007750E0E805F050A9002E6E0FA54
:103A1000E50AC39A504AE50A75F017A4FAABF08894
:103A2000828983A3A3E02AFAA3E03BFB8A828B83EB
:103A3000123B91EC4D70D2750A17750B00780A1283
:103A40001F00EEFCEFFD1210AB7402121C93EEFC93
:103A5000EFFD8508828509831239361205C5801469
:103A6000750E098003750E011243E5850C82850DE4
:103A700083123BA4A90E0235D0E5082402F508E51F
:103A8000093400F5098A828B83A3A3A3E0A2E5226F
:103A90007404121C937F0A021DBF74EC121CED8C7F
:103AA000108D11EA2405F50CEB1230BC750F00EAFD
:103AB0002402F50AEB123B8B850A82F58312393614
:103AC00012093D8A088B09EA45097003023B7D759E
:103AD0000E008071850C82850D83E06401704F8E2D
:103AE000828F83A3A3121F178E828F83A3A3A3A306
:103AF000E0F5127513007812121F00EE2405F5127E
:103B0000EF3400F5137812121F0012393012095BDE
:103B10007406121C93E9F50F6014850C82850D83E1
:103B2000E4F01243E5851082851183123BA47C17D3
:103B30007D007900EEFAEFFB1210C38E828F83E4D2
:103B4000F0A3F0050E9002E6E0F8E50EC398501ED3
:103B5000E50E75F017A4F8A9F0850882850983A3FE
:103B6000A3124572123B91EC4D6003023AD48508D2
:103B70008285098374FFF0A3F0E50F7006123930D7
:103B80001205CBA90F023927F50AEF3400F50B22F5
:103B9000A3E0FCA3E0FD228E828F831243ED850E0D
:103BA00082850F83E8F0A3E9F022C082C0839002EF
:103BB000E2E06A7003A3E06B70067AE27B028004A5
:103BC0007A007B00022E97C082C08378008C828DA1
:103BD00083E06A7003A3E06B7010E875F003A4F84B
:103BE000A9F0EC28FAED39FB8015088C828D83A3AF
:103BF000A3A3E06A7003A3E06B60DF7A007B00029E
:103C00002E9774F6121CED1209078A828B83E582C7
:103C1000458370067A007B008007A3A3A3A3123913
:103C20003602429674F2121CEDE9FE740E121CC9A3
:103C3000123C7F7410121CC91240F78C828D83E0F5
:103C400064027036A31243F3F50CA3E0F9A80C74D8
:103C5000026870037429697021750C02750D007873
:103C60000C121F007808121F00780A121F00EEF9CC
:103C700012097F7406121C938002790102431AE034
:103C8000F50AA3E0F50B2274E8121CED74FB121C7C
:103C90007DE9851882851983F08A168B17ECFEED75
:103CA000FF751000741D121CC91243E9741D121C0B
:103CB000C9123BA48E828F83A3A3A3E0A2E4502D5C
:103CC000741D121CC91239361209498A828B83E588
:103CD00082458370030240C8790AEEFCEFFDAA1604
:103CE000AB17121CEBE9F51060030240CB741F12F6
:103CF0001CC91240F77421121CC9123C7F74231294
:103D00001CC9E0F50EA3E0F50F8E828F83E06402FC
:103D10006003024076A31243E9850882850983A3E4
:103D2000858212858313EE24061230B98882898336
:103D3000E0FAA3E0F9EA2400F514E439F515781463
:103D4000121F8A0100002801286B3D07000228305D
:103D50003E03289D3D0029673F0129923F022933F8
:103D60003F0329673F042911407640E50E450F6067
:103D700003024071850C82850D831240ECFAE9FB49
:103D80008A828B83E0850A82850B83124122121F6F
:103D9000008A828B83A3E0FCA3E0023FFBE50E4593
:103DA0000F6003024071850A82850B837401F01253
:103DB00040FF850882850983F07C007D008E828F1C
:103DC00083A3A3A3A3E02401FAA3E03400FB120819
:103DD00035EA4B60418A828B83E02402F8850A82AF
:103DE000850B83E028F0EA2404F8EB3400F988829C
:103DF0008983E08512828513831241341241221295
:103E00001F008A828B83123B90E5082403FAE509A0
:103E10003400FB024000850A82850B83E02404F015
:103E20007C047D007900AA12AB131210C30240CBB0
:103E3000E50E450F60030240711240FFFEA3E0FF54
:103E4000850A82850B837404F0EE850882850983D8
:103E5000F0EF851282851383F07403121CC9AC82C3
:103E6000AD83EEFAEFFB1208358A0C8B0DEA450D97
:103E70007003023F148A828B83A3A3122D42740124
:103E8000121CC985820E85830F780E121F007405DF
:103E9000121CC9121F177CFF7DFF12083B7404120D
:103EA0001C938B0FEA450F7033850C82850D8312AE
:103EB00040D7121F00850C82850D83A3121F177C2B
:103EC000027D007ACD7B811206677404121C93E98F
:103ED000700A7401121CC974FFF0A3F08E828F83E4
:103EE000E064027039750C02750D00780C121F0029
:103EF0008E828F83123B90E5082404FAE509340092
:103F0000FB1210AB7402121C93850A82850B83E0AE
:103F1000240280097401121CC9EEF0A3EFF07401B1
:103F2000121CC91240E8F07401121CC9A31240E02F
:103F300002406BE50E450F6003024071850C8285DF
:103F40000D83123B91AA16AB17120973850A82855D
:103F50000B837402F0EA850882850983F08512825A
:103F6000851383EB02406EE50E450F60030240713E
:103F70001240FFF8A3E0F9850A82850B837402F0F2
:103F8000E8850882850983F0E9851282851383021A
:103F9000406E850C82850D831239361210A5EAFC1D
:103FA0008C82A882C3950EE4950F405FE8650E7081
:103FB00002E50F70047C008022851882851983E059
:103FC000FAE50E2AFAE50F3400FBC3EA98EB9400F9
:103FD0005003E08005E50ECCC39CFCEC850A82858D
:103FE0000B83F08C0A750B00780A121F00850C8277
:103FF000850D83E0250EFCA3E0350FFDAA08AB0973
:104000001210AB7402121C930240CB7510070240D1
:10401000CBE50E450F705A850C82850D831243E95E
:10402000850A82850B837407122D4E1240E0122DF3
:104030004EA3E0851282851383F0E82402FAE93466
:1040400000FB8A828B831240E012410F1240E8A3EA
:104050001241181240F1F0E82405F8E93400F9881B
:104060008289831240F1A3124134A3A3A3A3F08059
:104070005A75100B8055741D121CC912393612095D
:10408000078A828B83E5824583603D1243E9880C71
:10409000890DE8450D6031780E121F00780A121F55
:1040A000007808121F007406121CC9E0F9EEFCEF3C
:1040B000FDAA16AB17850C82850D83121CEB7406C6
:1040C000121C93E9F510800375100EA910740512E7
:1040D0001C937F10021DBFE0F50E750F00780E22B5
:1040E000E08508828509832212413E221243EDE8D1
:1040F0002212413EA3A322E0F508A3E0F5092285A0
:104100000C82850D83E0F8A3E0F5838882E022A38A
:10411000A3F08A828B83A322F088828983A3A3A33E
:10412000A322F08A828B8312412B22E0F50A750BC1
:1041300000780A22F088828983A312413E22E0851A
:104140000882850983A3A32274EE121CED74FE126B
:104150001C7D8A0A8B0BECFAEDFB7414121CC9E06F
:10416000F510A3E0F5117416121CC9E0FE741812C4
:104170001CC9E0F50EA3E0F50F851882851983AC04
:1041800082AD831208358A0C8B0DEA450D60498596
:1041900018828519831239361209078A828B83E5C2
:1041A000824583602FA3A31240F7E50845096024E8
:1041B000780E121F007810121F00EEF9AC0CAD0D36
:1041C000AA0AAB0B850882850983121CEB740412C2
:1041D0001C938006790E800279010235D074F612A4
:1041E0001CED74FE121C7D740C121CC91240EC856F
:1041F0001882851983F07401121CC9E9F0E4F508EE
:10420000F5097808121F007508027808121F00745B
:1042100004121CC98582088583097808121F0012C0
:10422000095B7406121C937402121C93806874F765
:10423000121CEDEAFEEBFF89087C197D031209735D
:10424000EA5402600BA908EEFAEFFB12082980027B
:104250007901022C4A74F6121CED74FF6A70037423
:10426000FF6B70168C828D8312429BE4F08C828DE2
:1042700083A3A3A312429BA380181209438A088B2D
:1042800009A808A909E849600D8882898374FF128A
:104290002D4CA3A3E4F07F02021DBF74FFF0A3F036
:1042A0008C828D83A3A32274F6121CED1209438A1B
:1042B000828B83E58245836006A3A3E0FA80027ABD
:1042C000007B0080D174F2121CED8A088B09ECFE91
:1042D000EDFF740E121CC9E0F50A1209438A0C8B1B
:1042E0000DA80CA90DE8497026EEFCEFFD7AFF7BC6
:1042F000FF1209438A0C8B0DA80CA90DE849700424
:104300007911801688828983E508F0A3E509F08891
:10431000828983A3A3E50AF079007F06021DBF749A
:10432000EE121CEDEAFEEBFF8C088D09890C74146B
:10433000121CC91243E97416121CC9123936750DC4
:1043400000E84960030243DD7402650C6003024328
:10435000D87412121CC91243F3FCA3E0F9EC240038
:10436000F50EE439F50FEAF4F8EBF4F9EC58F8E55A
:104370000F59F9E849705CE5082406F8ED3400F9B6
:10438000880A890B8882F5831243FE1209738A100A
:104390008B11E50E65107004E50F65116042780E13
:1043A000121F00850A82850B831243FE120979745D
:1043B00002121C93E9F50D7027780E121F00850874
:1043C00082850983A3A31243FC1209917402121C73
:1043D00093800D750D808008750D0D8003750D0B94
:1043E000A90D023A958E828F831243ED22E0F8A345
:1043F000E0F9221243ED88828983E022A3A3E0FC46
:10440000A3E0FDEEFAEFFB2274E8121CED74E71254
:104410001C7D851882851983EAF0A3EBF08C168D3C
:1044200017890E7508007509007431121CC9E0F572
:1044300012A3E0F5137433121CC9E0F514A3E0F5E0
:10444000157435121CC9E0F50FE50975F003A4F8E1
:10445000A9F0851882851983124572E0F47003A3D0
:10446000E0F47003024555EE2402F50CEF124568A6
:10447000E0700302455585160A85170B780A121F4E
:1044800000AC14AD15AA12AB131208FB7402121C77
:10449000938A0A8B0BEA450B7003024555E4F5102D
:1044A000F5117810121F007406121CC98582108540
:1044B00083117810121F007409121CC9858210859F
:1044C00083117810121F00851282851383A3A3A382
:1044D000A3121F177914AC0AAD0B8E828F83123989
:1044E000361209557408121C93E97069850A828591
:1044F0000B83A3A3A3A31243E97402121CC9123BAA
:10450000A4850C82850D83E0A2E05018A90E7402E8
:10451000121CC9AC82AD838E828F83123936120889
:104520004DE94208850C82850D83E0A2E15026E525
:104530000FF50A780A121F04A90E7403121CC9ACE5
:1045400082AD838E828F831239361208477401122E
:104550001C93E942080509E509C39402500302448B
:1045600049A90874190240CF3400F50D850C82F575
:104570008322E028FEA3E039FF8E828F832274F22B
:10458000121CEDEAFEEBFF890B7401650B600E74E3
:1045900002650B706A7901120B4DE97062EEFAEF59
:1045A000FB12093D8A088B09EA45096047750A0034
:1045B000800B7C177D0079001210C3050A9002E67B
:1045C000E0F8E50AC3985021E50A75F017A4F8A9A8
:1045D000F0850882850983A3A3E028FAA3E039FBCC
:1045E0008A828B83122E9E70C98508828509837406
:1045F000FFF0A3F07C197D03EEFAEFFB12096D02C8
:10460000431A74F2121CED8A088B09ECFEEDFF745C
:104610000E121CC9123C7F900A1BE0F4603D7A091F
:104620007B001210CFEA4B60328A828B8374B1F028
:10463000A3E4124111A312410FA3E508F0A3E50979
:1046400012465EEEF0A3EF12465EA3A3E50AF0A3C6
:10465000E50BF0900A1BE0F91210DB02431AF08A16
:10466000828B83A3A3A3A3A322C082C08390619063
:104670007404F0A37448F0A37402F0906180744055
:10468000F09061BC7403F09061877419F0906265DA
:10469000741BF0906249E0C3941390619C400A74CB
:1046A00009F090606674018007740DF0906066E414
:1046B000F090619A7433F0A37455F09061A0743A4D
:1046C000F090053FE064017009C2919003A6746701
:1046D00080059003A67461F0902C06E493906186A7
:1046E000F0902C00E493F46027E493540FF8906169
:1046F00085E0686012E5C654804449F5C6E59E54DD
:104700007F644970F8E8F053C680E59E547F70FAE4
:104710007905120E8F024897C082C083E5A8F8532E
:10472000A87E906181E4F0A3F0A3F0C2BA539AFE90
:10473000C289759B00C2C275E90075910075BF0002
:1047400075A91175B905906181F0A374C0F0A3E457
:10475000F0D2BA439A0174805842A8024897C082A6
:10476000C08374F8121C7D9003A4E0F8A3E0F9E87C
:1047700049700302488C9003A4E0544060237908F8
:10478000851882851983AA82AB83120D038518824E
:10479000851983AA82AB831209FD9003A4E054BF5C
:1047A000F0E054806010790C7A657B05120D03905F
:1047B00003A4E0547FF0E0A2E0503190619A74339A
:1047C000F0A37455F09061A0743AF090053FE06456
:1047D000017009C2919003A6746780059003A674C6
:1047E00061F0120A039003A4E054FEF0E05402606A
:1047F0003190619A743FF0A3745AF09061A0747F75
:10480000F090053FE064017009D2919003A67471A5
:1048100080059003A6746AF0120A039003A4E05482
:10482000FDF0E054046013902C04E493906186F052
:10483000120A099003A4E054FBF0E05408601390BE
:104840002C05E493906186F0120A099003A4E054C9
:10485000F7F0E054106013902C06E493906186F01A
:10486000120A099003A4E054EFF0E05420600A1209
:104870000A099003A4E054DFF0A3E05401600D1294
:104880000C2B120A0F9003A5E054FEF07408121CC2
:1048900093024897F0A3F0D083D08202011F74ECFA
:1048A000121CED74F4121C7D851882851983AC826C
:1048B000AD8375838175826E7404121B90902C04F5
:1048C00093F46003024A2A907808E0C394025003EC
:1048D000024A0A7404121CC9AC82AD8375838075C8
:1048E00082F67408121B90851882851983858212BE
:1048F0008583137404121CC9AC82AD83750EFF75D9
:104900000FFF7FFF7E00750C48750D7880157408C9
:104910006E700302499E74096E700302499E740A08
:104920006E607B850C82850D837808121B358C8226
:104930008D83A909E50AC9F8881074187808121A35
:1049400063E5104508F8C3E098A3E099850C8285DB
:104950000D837808121B3540188C828D837418786B
:1049600008121A63E5104508F8E0C398F8A3E08040
:104970001C74187808121A63E5104508FAE9FB8CD4
:10498000828D83E0F8A3E0F9EAC398F8EB99F9C3C4
:10499000E8950EE9950F5006880E890FEEFF0EE59B
:1049A0000C2404F50CE50D3400F50DEEC394135002
:1049B0000302490E74FF650E700474FF650F6023D7
:1049C0008F0874027808121C6A74482508F58274EE
:1049D000783509F5837808121B3585128285138393
:1049E000E508F0EC2402FCED3400FD85128285130D
:1049F00083A3858212858313740C121CC9E5826C13
:104A00007003E5836D60030248FC750801750900B9
:104A10007808121F007402121CC9AC82AD837A019F
:104A20007B0B1213217402121C93740C121C937FC3
:104A30000C021DBFC082C0839061AE7468F0A37485
:104A40006AF090624574FBF0A304F053F4FD43FE5A
:104A50000290053F7401F09061A0E0643A90619A81
:104A600070237433F0A37455F09061A0743AF0741D
:104A70000164017009C2919003A6746780289003B5
:104A8000A674618021743FF0A3745AF09061A07401
:104A90007FF0740164017009D2919003A674718053
:104AA000059003A6746A0248967F08021DBFC08263
:104AB000C0839004F1E06401700A9004F6E06004A1
:104AC000790C80027900024897C082C08375E1F1B9
:104AD0009004F4E0605B14600914605F1460571484
:104AE000705E120C3D9004EAE0F97AEB7B04120E42
:104AF000117AD67BBE7C897D8E120E477A557B5506
:104B00007C557D00120E1D9004F5E0F9120E2979F6
:104B100001120E839004E8E0F8A3E0C82416F582A1
:104B2000E83400F5837455F0A3740CF07900024862
:104B300097120C4380AF120C4980AA120C4F80A52B
:104B4000791280EA74F0121CED75D90D9004D5E04D
:104B5000A2E0E4331313F89004EAE0C4333354C002
:104B6000484401F5D978E8790488828983A3A3A30E
:104B7000E0F5D988828983A3A882A983E864EE70CE
:104B800003E9640470E378D5790488828983A3E01B
:104B9000F5D988828983A3A882A983E864DB70039E
:104BA000E9640470E575E1959004D5E0F97AD67B67
:104BB00004120E17900A3D74EFF0A3740BF0A37467
:104BC0004BF0A3740DF0A3744BF0A3740DF0A37419
:104BD0004BF0A3740DF0A374F5F0A3740BF0A37461
:104BE0004BF0A3740DF0A3740DF0A3740CF0900AB5
:104BF0004B744BF0A3740DF0A3744BF0A3740DF041
:104C0000A3744BF0A3740DF0A3744BF0A3740DF0D8
:104C1000A3744BF0A3740DF0A3744BF0A3740DF0C8
:104C20009004F4E064019004E87012E0F8A3E0F569
:104C3000838882A3A37508007509088010E0F8A393
:104C4000E0F5838882A3A3750804750900750A003E
:104C5000750B007808121AAE750CFF750DFF750EF6
:104C6000FF750F007808790C121AFC9004E8E0F840
:104C7000A3E0C8240EF582E83400F5837808121BFF
:104C8000449004E8E0F8A3E0C82414F582E8340076
:104C9000F5837413F09003A27402F0024AA974F72A
:104CA000121CED9004FAE02407F5D99004EAE0C460
:104CB000333354C0F5D978E8790488828983A3A373
:104CC000A3E0F5D988828983A3A882A983E864EE4A
:104CD0007003E9640470E39004FAE0601F78E879F7
:104CE00004FAE82413F582E93400F583E0F5D98865
:104CF000828983A3A882A9831AEA70E690051AE044
:104D00002407F5D99004EAE0C4333354C04404F5D1
:104D1000D978E8790488828983A3A3A3E0F5D988A8
:104D2000828983A3A882A983E864EE7003E96404FE
:104D300070E390051AE0601F78E87904FAE82433FC
:104D4000F582E93400F583E0F5D988828983A3A848
:104D500082A9831AEA70E675E195900A3D74FBF02A
:104D6000A3740BF0A3744BF0A3740DF0A3744BF079
:104D7000A3740DF0A3744BF0A3740DF0A374F5F0BD
:104D8000A3740BF0A3744BF0A3740DF0A3740DF097
:104D9000A3740CF0900A4B744BF0A3740DF0A37441
:104DA0004BF0A3740DF0A3744BF0A3740DF0A37437
:104DB0004BF0A3740DF0A3744BF0A3740DF0A37427
:104DC0004BF0A3740DF09004E8E0F8A3E0C8240EC3
:104DD000F582E83400F58374FFF0A3F0A3F0A3F0AC
:104DE0009004E8E0F8A3E0C82414F582E83400F564
:104DF000837412F09003A27401F0FF021DBF74F7D8
:104E0000121CED9004FAE02407F5D99004EAE0C4FE
:104E1000333354C04402F5D978E879048882898311
:104E2000A3A3A3E0F5D988828983A3A882A983E8F4
:104E300064EE7003E9640470E39004FAE0601F78A4
:104E4000E87904FAE82413F582E93400F583E0F503
:104E5000D988828983A3A882A9831AEA70E675E1BA
:104E600095900A3D7407F0A3740CF0A37407F0A3A7
:104E7000740CF0A37407F0A3740CF0A37407F0A3F0
:104E8000740CF0A37407F0A3740CF0A37407F0A3E0
:104E9000740CF0A3740DF0A3740CF0900A4B744BD7
:104EA000F0A3740DF0A3744BF0A3740DF0A3744B36
:104EB000F0A3740DF0A3744BF0A3740DF0A3744B26
:104EC000F0A3740DF0A3744BF0A3740DF09004E8FC
:104ED000E0F8A3E0C8240EF582E83400F58374FFFF
:104EE000F0A3F0A3F0A3F09004E8E0F8A3E0C82456
:104EF00014F582E83400F5837414F09003A274046E
:104F0000F00251C574F7121CED9004FAE02407F585
:104F1000D99004EAE0C4333354C04406F5D978E8A4
:104F2000790488828983A3A3A3E0F5D98882898341
:104F3000A3A882A983E864EE7003E9640470E39097
:104F400004FAE0601F78E87904FAE82413F582E9AE
:104F50003400F583E0F5D988828983A3A882A983E8
:104F60001AEA70E690051AE02407F5D99004EAE001
:104F7000C4333354C04404F5D978E879048882896D
:104F800083A3A3A3E0F5D988828983A3A882A983F8
:104F9000E864EE7003E9640470E390051AE0601FB2
:104FA00078E87904FAE82433F582E93400F583E0FF
:104FB000F5D988828983A3A882A9831AEA70E67545
:104FC000E195900A3D7401F0A3740CF0A3744BF0CA
:104FD000A3740DF0A3744BF0A3740DF0A3744BF005
:104FE000A3740DF0A3744BF0A3740DF0A3744BF0F5
:104FF000A3740DF0A3740DF0A3740CF0900A4B741D
:105000004BF0A3740DF0A3744BF0A3740DF0A374D4
:105010004BF0A3740DF0A3744BF0A3740DF0A374C4
:105020004BF0A3740DF0A3744BF0A3740DF0900437
:10503000E8E0F8A3E0C8240EF582E83400F58374B4
:10504000FFF0A3F0A3F0A3F09004E8E0F8A3E0C819
:105050002414F582E83400F5837415F09003A274EB
:1050600003F00251C5C082C0839004E8E0F8A3E0D9
:10507000C82406F582E83400F583E402489474F706
:10508000121CED9003D0E0F875F003A4C8AAF02A32
:10509000F974D228F8740339F9E82405FAE93400E0
:1050A000FB8A828B83E0FCA3E0FD88828983A3A333
:1050B000A3A3A3A3A3A3A3ECF0A3EDF08882898309
:1050C000A3A3A3A3A3A3A3E024FFF8A3E034FFF9C1
:1050D0008A828B83E8F0A3E9F00251C574F7121CB1
:1050E000EDEAFEEBFF9061D0E060030251B975D9A3
:1050F0000E75D90375D904EE248BF582EF3400F5D3
:1051000083E5822408F8E5833400F9E0F5D9A3E8C3
:1051100065827003E9658370F2EE2483F582EF34D3
:1051200000F583E5822404F8E5833400F9E0F5D93D
:10513000A3E865827003E9658370F275E1957908EB
:10514000EE248BFAEF3400FB120CF77904EE248383
:10515000FAEF3400FB120CF77C00EEF8EFF9ECFAF2
:10516000C3E49AFA95E0FBEE2AFAEF3BFBEA248AC5
:10517000F582EB3400F583E0C0E0E824AAF582E98B
:105180003400F583D0E0F00C88828983A3A882A93B
:1051900083ECC3940840C7EE246FF582EF3400F52A
:1051A00083E0F8A3E0F9EE2471F582EF3400F58393
:1051B000E8F0A3E9F07901800279008008F0EEA21E
:1051C000E092AF79007F01021DBFC082C08375D914
:1051D0000275D90375D90575E195EA246FF582EB5F
:1051E0003400F583E0F8A3E0F9EA2471F582EB34AA
:1051F00000F583E8F0A3E9F0790102489774F6120C
:105200001CEDEAFEEBFF9005457406F07508457548
:1052100009057808121F007C017903120D3F740202
:10522000121C9375D90675D903758245758305E0FF
:10523000F5D9A3E582644A7004E583640570F075CE
:10524000E1959003A2E06408701EEE246FF582EFF2
:105250003400F583E0F8A3E0F9EE2471F582EF3431
:1052600000F583E8F0A3E9F079010254CB74F6125B
:105270001CEDEAFEEBFF9061D0E0706678019005CE
:1052800045740BF09003A2E064077019750845752A
:1052900009057808121F007C017903120D3F740282
:1052A000121C937805740128F5D975D903758245C8
:1052B000758305E8FAE0F5D9A31AEA70F875E19567
:1052C000EE246FF582EF3400F583E0F8A3E0F9EE09
:1052D0002471F582EF3400F583E8F0A3E9F0790159
:1052E000800279000254CB74F7121CEDEAFEEBFF4A
:1052F00075D90375D90375D90DEE24DDF582EF3428
:1053000000F583E0F5D975E1957904120E4DEE2490
:105310006FF582EF3400F583E0F8A3E0F9EE247135
:10532000F582EF3400F583E8F0A3E9F0790102514A
:10533000C574F6121CEDEAFEEBFF9061D0E0F87444
:1053400080C398FAEE2482F582EF3400F583E060A2
:1053500004780480027800E8240BF8EAC39850032C
:105360000253F67D09900545EDF0EE24E2F8EF34A6
:1053700000F97A467B057C0888828983E08A828BE3
:1053800083F088828983A3A882A9838A828B83A3DE
:10539000AA82AB831CEC70E0EE2482F582EF34002D
:1053A000F583E0601D7508457509057808121F0032
:1053B0007C097903EEFAEFFB120D3F7402121C9385
:1053C0007D0D74012DF5D975D90375824575830559
:1053D0008D08E0F5D9A31508E50870F675E1957913
:1053E00004120E4DEE241DF582EF3400F583E4F037
:1053F000A3F07901800279000254CB74F6121CEDFF
:10540000EAFEEBFF9061D0E0F87480C398FAEE24D6
:1054100082F582EF3400F583E0600478048002783E
:1054200000E82408F8EAC39850030254C9780690AB
:105430000545740CF09003BFE0900546F09003C062
:10544000E0900547F09003C1E0900548F09003C25A
:10545000E0900549F09003C3E090054AF0EE248205
:10546000F582EF3400F583E0601B7508457509058A
:105470007808121F007C067903EEFA120D3F7402C1
:10548000121C93780A740128F5D975D903758245E1
:105490007583058808E0F5D9A31508E50870F67549
:1054A000E1957904120E4DEE246FF582EF3400F58C
:1054B00083E0F8A3E0F9EE2471F582EF3400F58380
:1054C000E8F0A3E9F07901800279007F02021DBFB4
:1054D00074F6121CEDEAFEEBFF9061D0E0F87480E8
:1054E000C398FAEE2482F582EF3400F583E060047D
:1054F000780480027800E82404F8EAC39850030294
:1055000055AA7802900545E8F0EE24F4F582EF34D0
:1055100000F583E0900546F0EE2482F582EF34003A
:10552000F583E0601B7508457509057808121F00B2
:105530007C027903EEFA120D3F7402121C93780676
:10554000740128F5D975D9037582457583058808D6
:10555000E0F5D9A31508E50870F675E195EE24731A
:10556000F582EF3400F583E4F0EE247FF582EF342A
:1055700000F583E4F0EE241DF582EF3400F583E4BA
:10558000F0A3F07904120E4DEE240DF582EF3400F5
:10559000F583E0F8A3E0F9EE2471F582EF3400F52D
:1055A00083E8F0A3E9F07901800279000254CB741A
:1055B000F6121CED9061D0E0F87480C398FCEA24E8
:1055C00082F582EB3400F583E06004780480027891
:1055D00000E82404F8ECC398405B79029005457418
:1055E00007F0EA24F5F582EB3400F583E0900546F8
:1055F000F0EA2482F582EB3400F583E06018750848
:10560000457509057808121F007C0209120D3F74C8
:1056100002121C937906740129F5D975D903758294
:1056200045758305E9F8E0F5D9A318E870F875E148
:10563000957901800279000254CB74F5121CEDE9D2
:10564000FCA2AFE433F50AC2AF7D0080010DEA246D
:105650006EF582EB3400F583E0F8EDC398501A8DB7
:1056600008EA2508F8EB3400F9E8246AF582E93401
:1056700000F583E06C70D68024EA246EF8EB3400E9
:10568000F9E0FEEA2EFAEB3400FBEA246AF582EB3D
:105690003400F583ECF088828983E004F0E50AA207
:1056A000E092AF7F03021DBF74F6121CEDA2AFE4BF
:1056B00033FDC2AFEA246EF582EB3400F583E014CB
:1056C000F07C0060368C08EA2508F8EB3400F9E835
:1056D000246BF582E93400F583E0C0E0E8246AF544
:1056E00082E93400F583D0E0F00CEA246EF582EB19
:1056F0003400F583E0F8ECC39840CAEA246DF582E3
:10570000EB3400F58374FFF0EA2469F582EB340092
:10571000F583E4F0EDA2E092AF0254CBC082C083E7
:10572000E5A8F8C2AFEA246AF582EB3400F583E914
:10573000F0EA2469F582EB3400F583E4F0E8A2E7AF
:10574000A2E792AF02489774F3121CEDEAFEEBFF5A
:10575000ECFAEDFB8A828B83A3A3A3A3E0541FF092
:10576000EE2436F582EF3400F583E4F0F50AEEFC22
:10577000EFFD8A828B83E0C0E0EC245DF582ED349E
:1057800000F583D0E0F0750B00E50A33333354F8AD
:10579000F50C8A828B83E0F508750900E50B780823
:1057A000121C4BE508A2E0502FEE2436F8EF34002F
:1057B000F988828983E0F508EE2508F508EF3400C2
:1057C000F509E5082438F582E5093400F583E50C90
:1057D000F088828983E004F0050B050CE50BC39487
:1057E0000840AF050A8A828B83A3AA82AB838C828E
:1057F0008D83A3AC82AD83E50AC3940550030257A1
:10580000727F05021DBF74F7121CED9003CEE06499
:105810000170030259647A009003D4E060030259D6
:10582000647401F0A3E4F0A3F090043404F0900455
:1058300039F09003D7E4F0A3F0A3F0A3F09003E1D4
:1058400004F0900407E4F09003EAF0A3F0A3F0A3BF
:10585000F0A3F0A3F0A3F0900451F0900445F09071
:10586000043A7480F0A3E4F0900440F09004BCF09B
:10587000A3F0A3F0A3F0A3F0A3F0A3F0A3F090048F
:10588000C5F0900454F09004A4F0A3F0A3F0A3F0AA
:10589000A3F0A3F0A3F0A3F0A3F0A3F09004B0F062
:1058A0009004B2F09004AEF09004C8F0A3F0A3F01E
:1058B000A3F0A3F0A3F0A3F0A3F078CE7903E8243B
:1058C0006EF582E93400F58374FFF00A88828983DB
:1058D000A3A882A983EAC3940440E37ACE7B037829
:1058E000DC790488828983E0C0E0EA2461F582EBF8
:1058F0003400F583D0E0F088828983A3A882A9834D
:105900008A828B83A3AA82AB83E864E17003E96493
:105910000470D07ACE7B0378B5790388828983A31B
:10592000E0C0E0EA24E6F582EB3400F583D0E0F055
:1059300088828983A3A882A9838A828B83A3AA826F
:10594000AB83E864BD7003E9640370CF9003CEE0DD
:1059500004F0640170089003D6E09003D0F07AD28E
:105960007B0380047A007B000251C5C082C0839013
:1059700003D5E4F09003D4F09003CEF0A3F0A37429
:10598000FFF075E1F1024897C082C083780079008A
:105990009003D5E0600478D2790388828983A3A339
:1059A000A3A3E0F902489774F6121CEDEAFEEBFFA0
:1059B000EE2463F582EF3400F583E0F8A3E0F9E824
:1059C000497003025A4CEE2463F8EF3400F97A0070
:1059D0007B00A2AFE433F508C2AF88828983E0FC84
:1059E000A3E0FDEC4D603A88828983E0FAA3E0FBF6
:1059F0008A828B83E0FCA3E0FD88828983ECF0A39C
:105A0000EDF08A828B83E4F0A3F088828983E0FC46
:105A1000A3E0FDEC4D700A88828983A3A3E4F0A380
:105A2000F0E508A2E092AF12136F9004E2E004F0F8
:105A30009004E3E004F0EE2463F582EF3400F58394
:105A4000E0F8A3E0F9E84960030259C68E828F832B
:105A5000A3A3A3E0600F8E828F83A3A3A3E4F0909F
:105A600003CFE014F09003CEE014F070069003D062
:105A700074FFF08E828F83A3A3E4F09004E1E070C2
:105A80000D9003CFE0640170057900120E2FEEFA3D
:105A9000EFFB120D6F0254CB74F7121CEDEAFEEB14
:105AA000FF8E828F83A3A3A3A3E0FA7B00120A5187
:105AB000EEFAEFFB120CC1120D570251C5C082C0A5
:105AC0008378B5790388828983A3E4F08882898307
:105AD000A3A882A983E864BD7003E9640370E6901B
:105AE00003B6740102489674F6121CEDEAFEEBFF51
:105AF000EC2403F8ED3400F988088909EC2407F850
:105B0000ED3400F9E8FCE9FD8C828D83E0F8A3E038
:105B1000F9850882850983E0FAA3E0FB121BF2EE07
:105B2000240DF582EF3400F583E8F0A3E9F08C82D0
:105B30008D83E0F8A3E0F9850882850983E0FAA364
