:020000040000FA
:0600000002011A0220A318
:03002B0002283C6C
:0300530002211671
:03006B000227D792
:03007B0002281246
:10008300021F0FE5C754F84401F5C77901220000A8
:100093000080FB120086B90003020104E479217891
:1000A30008B800028004F709D8FCE479297802B87B
:1000B30000028004F709D8FCE490028178B3790741
:1000C3008002F0A3D8FCD9FA781A90014A7A01BACF
:1000D30000028007E493A3F608DAF97A337B0990E8
:1000E300014B785779038015E493A3AD82AE838ADD
:1000F300828B83F0A3AA82AB838D828E83D8E9D9C6
:10010300E775823E75839F740312012C7582917586
:100113008300740012012C75D00075813F7518811E
:10012300751902759F00020096C09FF59FE473D076
:100133009F22D083D082C09FE493C0E0740193C018
:10014300E0740293F59F2201FF0000B40000280031
:100153002800283075A000A000A000A0000008001F
:1001630008E001F000100010001000100010001053
:100173000050005000500010001000D00700000095
:100183000000000F0001000500307507001000019A
:100193000081FF00000000FF9F05BD05A505FF02CC
:1001A300020208025000A0000000E8030279810166
:1001B30000007281027D810100008A0902838101AE
:1001C3000000B302027D810100008B0902858101D9
:1001D3000000C902027D810100008C0902878101B0
:1001E3000000CB02027D810100008D090289810894
:1001F3000000CC02027D810100008E09028B810187
:1002030000008F09FF0100FF20027981010000E552
:1002130080027D81010000F309028D81000000004E
:10022300000281810300001903690B690B690B69E3
:100233000B690B690B690B690B690B690B690B691B
:100243000B690BFD0D150EF70DFFFF0E0952656DC2
:100253006F7465436F6E74726F6C051250002003E8
:10026300020A0002010552656D6F746520436F6ECB
:1002730074726F6C000000000000000710000002A1
:100283000202020202020202010D0000001001023A
:1002930079810100006C81027D810100006A0A02FC
:1002A3009D810100006307027D810100006B0A024A
:1002B3009B81010000CD80027D810100006C0A0258
:1002C3009981010000B180027D810100006D0A0265
:1002D3009781010000FD80027D810100006E0A020A
:1002E30095810100000B81027D810100006F0A02EC
:1002F30093810100000481027D81010000700A02E4
:100303009181010000F680027D81010000710A02E3
:100313008F81010000BF80027D81010000720A020B
:100323007581010000730A01E803053F100AFF000D
:100333000130750302010600000000000000000008
:1003430000000000000000000000000000000000AA
:10035300000000FFFF0600800CE803100001000608
:1003630052656D6F74654B657920507265737320A8
:100373005374617465000279810100006F81027D0D
:1003830081010000460B02A381010000470B02819B
:10039300810300002D09027F81010000510B12012E
:1003A30035C29003120135D990031201350A910326
:1003B3001201354591031201356F910312013599ED
:1003C3009103120135B09103120135C79103120154
:1003D30035DE91031201350792031201351A920398
:1003E3001201353092031201354392031201356A2B
:1003F3009203120135D0A502120135D4A6021201CF
:10040300350CA7021201352FA7021201353AA702B4
:100413001201355DA7021201356CA80212013541A4
:10042300A902120135BCA90212013544AA02120124
:10043300357FAA02120135B6AA0212013544AB0276
:100443001201351DAC021201357DAC021201358853
:10045300AC0212013507AD021201350AAD021201D9
:10046300350DAD021201359CAD021201359FAD026F
:10047300120135CFAD02120135F9AD02120135E794
:10048300AE0212013599AF02120135A2D90212014F
:1004930035CAD902120135F8D9021201352FDA0211
:1004A3001201358DDA02120135D8DA021201352331
:1004B300DB0212013563DB02120135A9DB021201F3
:1004C30035D7DB0212013594DC021201359EDC02C2
:1004D300120135ABDC02120135DEDC02120135AA52
:1004E300DD02120135B6DD02120135CEDD02120145
:1004F30035D8DD02120135A09C03120135AE9C03F1
:10050300120135C69C03120135DE9C031201351D11
:10051300B901120135C9B90112013544BA011201F9
:100523003565BB01120135A1BB011201354ABC017E
:1005330012013531BD0112013595BE01120135ECB1
:10054300BE011201356DBF011201355DC0011201FB
:1005530035AAC00112013530C10112013562C10152
:1005630012013576C301120135B8C301120135D624
:10057300C30112013559C4011201352DC501120100
:1005830035F5C501120135E3C702120135B6C802BC
:100593001201355FC902120135B2C9021201356277
:1005A300CA02120135EECA02120135DACB02120178
:1005B3003509CC021201351CCD0212013564CD027E
:1005C30012013539CE0212013575CE021201359171
:1005D300CE02120135BA9E0312013550FB021201FD
:1005E3003566FB021201358CFB02120135A8FC02B1
:1005F300120135B2FC02120135E7FD02120135DFAB
:10060300FE021201357BD402120135ABD502120171
:1006130035DED50212013528D602120135EFD70295
:10062300120135E06F001201354A7000120135A93D
:100633007100120135B97100120135E67100120122
:10064300353D7200120135E67200120135ED73007B
:10065300120135B774001201351776001201355AAD
:100663007600120135FF76001201354C7700120136
:1006730035727700120135807900120135857900D2
:100683001201358A7B00120135D77B001201354AEE
:100693007C001201357D7C001201351F7D001201A3
:1006A30035C87D00120135007E00120135037E003E
:1006B3001201354B7E001201358B7E00120135E2AB
:1006C3007E00120135F982031201351183031201F1
:1006D300355983031201356F8303120135B6830342
:1006E300120135CA8403120135578503120135A25D
:1006F30085031201356828001201357428001201A0
:1007030035AF2800120135F42800120135B4290051
:100713001201353A2A001201359F2A00120135CB06
:100723002A00120135042B00120135422D0012015B
:1007330035262F001201350C31001201354F3200DE
:100743001201359D3400120135AF3500120135FA1F
:1007530036001201350A380012013527380012011C
:1007630035623800120135843800120135E738004C
:10077300120135A83D001201353D3E001201358EB0
:100783003E00120135B53E00120135073F0012014C
:1007930035253F001201357F3F00120135684000C7
:1007A300120135DE4100120135624200120135EBC0
:1007B300E202120135F5E20212013538E3021201B9
:1007C3003553E302120135E3E3021201350BE40270
:1007D30012013548E4021201357FE402120135A803
:1007E300E4021201351DE50212013532E502120160
:1007F3003547E50212013578E5021201358CE50231
:10080300120135B1E502120135EBE502120135178C
:10081300E6021201359AE602120135E3E6021201FD
:10082300350DE70212013538E702120135C098038E
:10083300120135CF8D02120135FD8D021201354BA8
:100843008F021201352B90021201354A90021201D8
:1008530035C790021201350A9102120135609202E6
:10086300120135219302120135A89502120135496F
:1008730096021201353F97021201353C980212018C
:1008830035969902120135219A02120135659703B3
:10089300120135CE9703120135229803120135490F
:1008A30098031201357A980312013560E7021201A9
:1008B30035CDE70212013514E8021201352CE902A5
:1008C30012013528EA021201350BEB021201350A37
:1008D300B0021201354CB0021201351EB1021201F1
:1008E30035F7B102120135F1B202120135D3B30269
:1008F3001201353CB402120135F2B402120135661D
:10090300B502120135D2B502120135FBB50212014F
:100913003575B6021201350EB70212013573B702EF
:1009230012013588B702120135CEB702120135E73D
:10093300B7021201354CB8021201354FB802120149
:1009430035008003120135288003120135668003C8
:100953001201352481031201358B8103120135A75E
:100963008103120135CF8103120135FF8103120187
:10097300350E82031201358B8203120135B18203D6
:10098300120135E5A901120135C3AB01120135F599
:10099300AD0112013531AE011201355EAE01120116
:1009A3003548AF0112013593AF01120135DEAF01B6
:1009B300120135F0AF0112013530B0011201356576
:1009C300B001120135B3B001120135E2B0011201D9
:1009D3003505B10112013552B101120135D7B1010B
:1009E300120135F1B30112013530B601120135712F
:1009F300B60112013513B80112013554B8011201C1
:100A030035C7B8011201357DF2011201357BF301BF
:100A130012013514FA0112013535FC0112013500BA
:100A2300FE0112013568FF01120135C942001201AE
:100A330035784300120135A54300120135EB43001D
:100A43001201352B4500120135C146001201353B19
:100A53004700120135564700120135D147001201F4
:100A6300352B49001201358B4A00120135914B0099
:100A7300120135F24C001201350B4D00120135699C
:100A83004D00120135574E001201358A4E001201F6
:100A930035FA4E00120135744F00120135BE4F0076
:100AA3001201358850001201355D51001201353CA9
:100AB3005200120135C7520012013535530012019D
:100AC30035A95300120135D4530012013593540054
:100AD300120135F85500120135155600120135344F
:100AE30056001201352557001201354A57001201ED
:100AF30035745700120135EF57001201354958007C
:100B0300120135B25900120135605A00120135A1A4
:100B13005A00120135A9E401120135F7E40112016B
:100B23003503E501120135E1E50112013512E60154
:100B330012013543E601120135C3E601120135FB0B
:100B4300E6011201354DE7011201358AE701120171
:100B530035A7E901120135CDEB01120135B8ED01DD
:100B6300120135A2EF01120135ED7F00120135D2DA
:100B73009501120135029601120135DB9C01120128
:100B830035609E011201355DA40112013545A501B1
:100B930012013582A501120135A5A501120135D631
:100BA300A501120135DFA501120135E9A5011201E5
:100BB30035D7A601120135CDA701120135D15A004F
:100BC300120135D05E00120135D65E0012013511D7
:100BD30066001201352A6B001201351AF002120168
:100BE30035B0F002120135C6F0021201353CF102B4
:100BF300120135B0F102120135EEF1021201356234
:100C0300F202120135DBF202120135E4F2021201A3
:100C130035F0F20212013505F30212013543F302F6
:100C230012013559F302120135B8F302120135CD21
:100C3300EB02120135DAEB02120135F4EB02120179
:100C43003533EC0212013571EC02120135D6EC0298
:100C5300120135EBEC02120135F6EC0212013503F9
:100C6300ED021201351AED0212013528ED021201CF
:100C73003533ED021201353FED021201354EED021F
:100C830012013559ED021201357CED0212013523B3
:100C9300EE0212013533EE021201354DEE0212015E
:100CA300356AEE0212013586EE02120135ABEE0211
:100CB300120135B6EE02120135CBEE02120135DF19
:100CC300EE0212013540EF0212013546EF02120126
:100CD300354CEF0212013552EF021201356AEF0271
:100CE3001201359DEF021201357FD6011201350342
:100CF300D701120135B2D70112013511D901120101
:100D03003532DB011201351EDC0112013553DC01E2
:100D130012013575DC0112013524DD011201351C88
:100D2300DF0112013545DF01120135D7DF01120161
:100D33003509E00112013516E0011201356DE001BC
:100D430012013593E00112013500E301120135036D
:100D5300E4011201355BE4011201350EC8011201F1
:100D63003518C901120135FFC90112013509CA013C
:100D73001201352BCA0112013537CA01120135D0D0
:100D8300CB01120135FFCB011201351BCD0112013D
:100D93003574CD01120135DACE01120135B9CF0117
:100DA30012013515D00112013582D001120135BD72
:100DB300D001120135FCD001120135B5D301120166
:100DC30035CFD3011201355BD40112013569D4014A
:100DD300120135C2D401120135D0D40112013543B9
:100DE300D501120135A7D501120135F1D501120143
:100DF30035A29A02120135C49A02120135EA9C0205
:100E0300120135FF9F0212013517A102120135CAE3
:100E1300A102120135ACA20212013523940312017F
:100E230035489403120135BA940312013569C0029F
:100E330012013572C0021201357BC0021201355214
:100E4300C10212013503C30212013539C302120173
:100E53003573C302120135A9C302120135E3C3027C
:100E630012013517C40212013543C4021201358C35
:100E7300C402120135C6C4021201350FC5021201A4
:100E83003567C5021201359CC502120135F7C5024B
:100E930012013531C60212013582C602120135B87C
:100EA300C602120135F2C60212013520C702120131
:100EB3003543C702120135779D03120135A39D0304
:100EC300120135FE9D03120135089E0312013518E8
:100ED3009E0312013506CF0212013510CF02120113
:100EE300354ECF0212013597CF02120135D1CF0211
:100EF30012013527D00212013548D00212013551B3
:100F0300D0021201359CD002120135C5D002120164
:100F130035CFD0021201353BD102120135D1D102B6
:100F23001201351BD2021201354BD202120135D404
:100F3300D20212013514D3021201354CD30212012D
:100F4300355ED3021201357DD30212013586D302F9
:100F530012013551D402120135D999031201350F0B
:100F63008D03120135458D031201357B8D0312016B
:100F730035C48E03120135229E03120135389E03B8
:100F8300120135429E031201358C9E0312013592E4
:100F9300FF011201355FDE0212013574DE02120118
:100FA3003524DF0212013564DF021201357DDF02D1
:100FB300120135B1DF02120135FEDF0212013532B3
:100FC300E00212013574E00212013578E2021201E7
:100FD30035DEE202120135D09A03120135F99A0384
:100FE300120135229B031201353A9B031201357C12
:100FF3009B03120135AAF70212013594F90212017B
:1010030035FEF902120135B0FA02120135CC85031F
:10101300120135F185031201351B8603120135DFF9
:101023009F03120135A881011201350C84011201BD
:1010330035BD8501120135BF86011201354887018F
:10104300120135CC8701120135F187011201352ACE
:101053008B011201359E8B011201358F8C01120118
:1010630035C98C01120135098D01120135BC8E0180
:101073001201350F8F01120135588F01120135C648
:101083008F01120135F88F01120135109001120101
:101093003525910112013535910112013550920127
:1010A300120135729201120135A892011201354CD9
:1010B30094011201358B9401120135AD9501120192
:1010C30035EDFF02120135969F03120135D59F03BB
:1010D30012013552A003120135C19B03120135D110
:1010E3009B03120135E69B031201359A9C031201FF
:1010F30035E9FE021201356EFF02120135D4FF02FB
:101103001201357C920312013598920312013524A2
:1011130093031201354F9303120135B89303120160
:10112300351794031201351A9403120135E8F302BB
:10113300120135FCF30212013575F4021201354A2E
:10114300F5021201351CF70212013561F702120193
:101153003597F702120135F87F00120135DA8A0359
:10116300120135658C03120135C68C031201350C4F
:101173008D03120135C89503120135189603120128
:1011830035A196031201350797031201359D880394
:10119300120135C788031201358D890312013568A1
:1011A3008A0312013573B80212013530B9021201F4
:1011B300356BB90212013593B902120135F5B90243
:1011C30012013541BA02120135A1BA0212013534B6
:1011D300BB0212013533BC02120135C2BD0212013A
:1011E3003545BE02120135ACBE02120135C3BE0243
:1011F300120135CDBF021201350BC00212013500B9
:101203008002120135608302120135E88402120163
:10121300353F85021201355E8502120135DC8502F8
:101223001201356C87021201355088021201355CB8
:101233008C021201352C8D02120135FE8E03120130
:1012430035438F03120135A78F031201352990030C
:1012530012013589900312013526A003120135CFFF
:101263007F00E066701008A3E066700A08A3E066DA
:10127300700408A3E06622C3E7960809E796080905
:10128300E7960809E79622C3E09608A3E09608A329
:10129300E09608A3E09622C008C3E096F50808A3E9
:1012A300E096420808A3E096420808A3E0964508A2
:1012B3007001D3D00822080808EAC0E0EBC0E0863A
:1012C300F0E7A4FA180986F0E7A42AFA180986F0C9
:1012D300E7A42AFA180986F0E7A42AFA1986F0E7A0
:1012E300A4FBE5F02AFA190886F0E7A42BFBE5F046
:1012F3003AFA190886F0E7A42BFBE5F03AFA181836
:101303000986F0E7A4C5F02BFBE43AFA1908E7C510
:10131300F0C6A426F6E5F03BFBE43AFA1886F0E7BC
:10132300A4F6E5F00826F6E43B08F6E43A08F6D01E
:10133300E0FBD0E0FA22E4CFC0E0E4CEC0E0E4CDAD
:10134300C0E0E4CCC0E075F020E626F608E633F60C
:1013530008E633F608E633F6181818EC33FCED33D9
:10136300FDEE33FEEF33FFC3EC9709ED9709EE97DC
:1013730009EF97191919400FFFEC97FC09ED97FD39
:1013830009EE97FE191906D5F0BFECF709EDF70939
:10139300EEF709EFF7191919D0E0FCD0E0FDD0E022
:1013A300FED0E0FF226016080808C6C313C618C69D
:1013B30013C618C613C618C613C6D5E0EA227009A9
:1013C300080808226016181818C6C333C608C6339F
:1013D300C608C633C608C633C6D5E0EA22E627F6F2
:1013E3000809E637F60809E637F60809E637F6226C
:1013F300E026F608A3E036F608A3E036F608A3E0F5
:1014030036F622E026F008A3E036F008A3E036F033
:1014130008A3E036F022C3E697F60809E697F60834
:1014230009E697F60809E697F622C3E096F008A3C3
:10143300E096F008A3E096F008A3E096F022E657C2
:10144300F60809E657F60809E657F60809E657F6D7
:1014530022E056F608A3E056F608A3E056F608A3E2
:10146300E056F622E056F008A3E056F008A3E05653
:10147300F008A3E056F022E0F608A3E0F608A3E0A4
:10148300F608A3E0F622E6F008A3E6F008A3E6F0E8
:1014930008A3E6F022E0FAA3E0FBA3E0FCA3E0FD4F
:1014A30022EAF0A3EBF0A3ECF0A3EDF022E0F8A323
:1014B300E0F9A3E0FAA3E0FB22E8F0A3E9F0A3EA52
:1014C300F0A3EBF022CAC0E0E6F0A308DAFAD0E01A
:1014D300FA22CAC0E0E0A3C582CCC582C583CDC5CC
:1014E30083F0A3C582CCC582C583CDC583DAE6D09C
:1014F300E0CA22C3E498F8E499F91215378026C3A9
:10150300E49AFAE49BFBE920E7E9121537E498F83B
:10151300E499F922C3E498F8E499F9121537E498A9
:10152300F8E499F9C3E49AFAE49BFB22EB20E7CFB2
:10153300E920E7E0B90010BB0008E88AF084F8AAC4
:10154300F022E4FBC8FA22EB70227B10C833C8C92F
:1015530033C9335007C39AC3DBF280069A50012A7A
:10156300DBEAC833F4C8C933F4C9FA2275F008E4D6
:10157300C833C8C933C933C99AC99B5004C92AC9D6
:101583003BD5F0ECFBC833F4C8E4C9FA22600D087C
:10159300C6A2E713C618C613C6D5E0F322600C082B
:1015A300C6C313C618C613C6D5E0F422700422605E
:1015B3000D18C6C333C608C633C6D5E0F4182225B2
:1015C3001810AF08F518400C15198008F5184002DB
:1015D3001519D2AF2200C0D0251810AF08F5185046
:1015E3000C05198008F51850020519D2AFD0D02286
:1015F3002518F58210AF08F518400C15198008F569
:101603001840021519D2AF851983222518F582E4F3
:101613003519F583222518F8E43519F9222518FA26
:10162300E43519FB222518FCE43519FD22E4732562
:1016330018C582C0E0E51934FFC583C0E0E518C3CF
:10164300958224F810AF0885831985821880088550
:101653008319858218D2AFCEF0A3E520F0A37808D2
:10166300E608F0A3DEFAEFF0A3E58124FAF8E60832
:10167300F0A3E608F0A3E608F0A30808E608F0A341
:10168300E608F0A315811581D0E0FED0E0F81581BE
:1016930015811581E8C0E0EEC0E0222518C582C09F
:1016A300E0E51934FFC583C0E0E518C3958224F94A
:1016B30010AF088583198582188008858319858270
:1016C30018D2AFCEF0A3E520F0A37808E608F0A384
:1016D300DEFAEFF0A3E58124FBF8E608F0A3E608C1
:1016E300F0A30808E608F0A3E608F0A31581158126
:1016F300D0E0FED0E0F815811581E8C0E0EEC0E04F
:1017030022851983851882E0A3FEE0A3F5207808DB
:10171300E0A3F608DFFAE0A3FFE0A3C0E0E0A3C084
:10172300E0E0A3C0E0E0A3C0E0E0A3C0E010AF08A6
:101733008582188583198008858218858319D2AF1D
:10174300D083D082020132851983851882E0A3FEFB
:10175300E0A3F5207808E0A3F608DFFAE0A3FFE0B2
:10176300A3C0E0E0A3C0E0E0A3C0E0E0A3C0E010BA
:10177300AF088582188583198008858218858319A7
:10178300D2AFD083D08222C0D02518C582C0E0E575
:101793001934FFC583C0E0E518C3958224F310AF65
:1017A300088583198582188008858319858218D254
:1017B300AFC8F0A3E9F0A3EAF0A3EBF0A37908E73D
:1017C30009F0A3D8FAECF0A3EDF0A3EEF0A3EFF049
:1017D300A3D0E0F0A3D0E0F0A3D0E0F0A3E520F0A5
:1017E300A3E5F0F0A322851983851882E0C0E0A366
:1017F300E0F9A3E0FAA3E0FBA37808E0F608A3DF8F
:10180300FAE0FCA3E0FDA3E0FEA3E0FFA3E0C0E059
:10181300A3E0C0E0A3E0F5D0A3E0F520A3E0A3F5A7
:10182300F010AF0885831985821880088583198590
:101833008218D2AFD082D083D0E0F8D0E0327404E3
:101843008006740280027401C0E0F4041215F3D020
:10185300E01214C8227404800474028000CCC0E037
:10186300EDC0E0E518C39CCCAD1950011D10AF06C7
:101873008C188D1980068C188D19D2AF1214D5D0FF
:10188300E0FDD0E0FC22D083D082E9C0E0E493A362
:10189300C386F0C5F095F0F908E493A386F0C5F08C
:1018A30095F0700BE493A3C3994005E9048002A368
:1018B300E475F002A42582F582E5F03583F583D043
:1018C300E0F9E493A3C0E0E493C0E022D083D082A4
:1018D300ECC0E0EDC0E0E493A3FCE493A3FDED4C86
:1018E300600D12191BEC24FFFCED34FFFD80EFE4C7
:1018F30093A3FCE493A3FDED4C600D12195AEC2461
:10190300FFFCED34FFFD80EFD0E0FDD0E0FCE4937D
:10191300A3C0E0E493C0E022C0E0C3E4939608745C
:1019230001939618400FE493667008087401936658
:101933001870007019A3A3C3E493960874019396D7
:1019430018A3A3400DD0E0D0E0D0E002190BA3A36D
:10195300A3A3A3A3D0E022C0E0C0F088F0E4936681
:1019630070080874019366187000A8F0A3A3700BA5
:10197300D0F0D0E0D0E0D0E002190BA3A3D0F0D098
:02198300E02260
:1019880074F512169EEAFEEBFFEE2434F8EF3400ED
:10199800F988088909EE2435F582EF3400F583E0EB
:1019A800F8EE2437F582EF3400F583E0F50AEC858C
:1019B8000AF0A4FCAAF0850AF0EDA42AFDE82CF8A8
:1019C800E43DF97A257B00121537EA8508828509F6
:1019D80083F0F8740758F97401B900028004C3331E
:1019E800D9FCFAE8131313541FF8EE28F8EF340063
:1019F800F9E8245DF582E93400F583E05A6008EEE1
:101A08002434F582EF802CEE2434F582EF3400F58F
:101A180083E0C0E0EE2436F582EF3400F583E0F58C
:101A2800F0D0E084A8F0EE28F8EF3400F9E8243884
:101A3800F582E93400F583E0F97F0402174A74F56A
:101A480012169EEAFEEBFFEE2434F582EF3400F521
:101A580083E0C0E0EE2435F582EF3400F583D0E072
:101A6800F08E828F83A3A3A3A3A3A3A3C082C08362
:101A78008E828F83A3A3A3A3A3E0F8A3E0F9D08366
:101A8800D082E0C398F508A3E099F509EE247FF524
:101A980082EF3400F583E064017069EE2480F582FA
:101AA800EF3400F583E0F8A3E0F98E828F83A3A3D7
:101AB800A3A3A3A3A3E0FCA3E0FD8E828F83A3A32B
:101AC800A3A3A3E0FAA3E0FBC3EA9CEB9D5010C3D9
:101AD800EC98ED99402EC3EA98EB995027800EC3F5
:101AE800EA98EB994007C3EC98ED9940177CDC7DA8
:101AF80004EEFAEFFB120AC7EE247FF582EF3400FA
:101B0800F583E4F0EE2434F8EF3400F9E8FCE9FD5D
:101B1800EE2435F582EF3400F583E0F8EE2437F54E
:101B280082EF3400F583E0F50AE508850AF0A4F5AC
:101B380008AAF0850AF0E509A42AF509E82508F8B5
:101B4800E43509F97A257B00121537EA8C828D83F2
:101B5800F0F8740758F97401B900028004C333D946
:101B6800FCFAE8131313541FF8EE28F8EF3400F9C1
:101B7800E8245DF582E93400F583E05A6008EE2434
:101B880034F582EF802CEE2434F582EF3400F583AF
:101B9800E0C0E0EE2436F582EF3400F583E0F5F09E
:101BA800D0E084A8F0EE28F8EF3400F9E82438F5FE
:101BB80082E93400F583E0F91227C3021A41C08292
:101BC800C083851882851983E0F8A3E0F9C3EA9CED
:101BD800EB9D5010C3EC98ED99401BC3EA98EB9924
:101BE8005014800EC3EA98EB994007C3EC98ED991E
:101BF8004004790180027900D083D08222EAC39C14
:101C0800FAEB9DFB2274EF12169E9003A2E0640883
:101C18006005E06407702A9061C8E060249003D0F2
:101C2800E0F4601DE0F875F003A4C8AAF02AF9747E
:101C3800D228FE740339FF8E828F83A3A3A3E0709A
:101C480003021D3D906060E0C0E0EE2468F582EF7D
:101C58003400F583D0E0F0750C45750D0575080066
:101C6800750900E5D914F50AE5D95403F50E60178E
:101C78007403650E605CE50A6010EE2467F582EF78
:101C88003400F583E07003021D22900540E06401F2
:101C9800602AEE2482F582EF3400F583E060047850
:101CA8000480027800850A08E508C398FA95E0FBE5
:101CB8001209958A088B09EA45097005120CCB8030
:101CC80074EE2482F582EF3400F583E070048A0C08
:101CD8008B0DE50A6012850C82850D83F50BE5D91D
:101CE800F0A3150BE50B70F6EE2482F582EF3400B5
:101CF800F583E0604474FC250AF50A780C1218454F
:101D0800AC0AA90EEEFAEFFB120B6374021215D897
:101D1800E97026AA08AB0912117B793D8E828F8360
:101D2800A3A3A3A3E0FA7B00120869EEFAEFFB1263
:101D38000ADF120B75790080747403650E6056858E
:101D48000A107511007810121845AC0CAD0DAA08D0
:101D5800AB09120B3F74021215D8EE2468F582EF16
:101D68003400F583E064807004747F8001E0F50C32
:101D7800780C121849E50EF50C780C121849A90AC6
:101D8800AC08AD099003D0E0FA7B0012082D74026C
:101D98001215D880139003A2E06408600BAC0CAD58
:101DA8000DEEFAEFFB120BCF120CD779017F0A0266
:101DB800174A74F512169E74FC1215C2EAFEEBFF60
:101DC8008908A2AFE433F509C2AF806AEE2463F84C
:101DD800EF3400F97A007B00A2AFE433F50AC2AF12
:101DE80088828983E0FCA3E0FDEC4D603A88828913
:101DF80083E0FAA3E0FB8A828B83E0FCA3E0FD8802
:101E0800828983ECF0A3EDF08A828B83E4F0A3F05F
:101E180088828983E0FCA3E0FDEC4D700A88828902
:101E280083A3A3E4F0A3F0E50AA2E092AF12117B2A
:101E38009004E3E004F0EE2463F582EF3400F583C8
:101E4800E0F8A3E0F9E849603DEE2463F582EF3459
:101E580000F583E02402FAA3E03400FBEA2402F54B
:101E68000AEB3400F50B780A1218458A828B83E056
:101E7800FCA3E0F9EEFAEFFB120B0374021215D87B
:101E8800E97003021DD49004E3E060639004E4E089
:101E9800F89004E3E0C398500C7402650870509001
:101EA80004E5E0604A8E828F83A3A3A3A3E085188C
:101EB80082851983F0A3E4F09004E3E0F874021239
:101EC800160EE8F0A3E4F09004E3E0F89004E2E0F2
:101ED80028F0740212160EAC82AD8385188285191B
:101EE80083AA82AB8379011208399004E3E4F0E510
:101EF80009A2E092AF74041215D8021A410000003A
:101F08008521878522C622C0E0C0D0E8C0E0E9C0AC
:101F1800E0EAC0E0EBC0E0ECC0E0EDC0E0EEC0E01D
:101F2800C008C009C00AC00BC082C083C0F0A2AFFD
:101F3800E433FEC2AF759B00906182E0A2E05012CC
:101F4800E591A2E0500C7591FE74016521700312B1
:101F58001C0DE0A2E55051E591A2E5504B7591DFCB
:101F68009003A2E064076005E064087023740165CB
:101F780021703579019003D0E0FA75F003A4CAA85E
:101F8800F028FB74D22AFA74033BFB121DBA80189E
:101F9800E0640D70139003C4E004F064287002E458
:101FA800F07A00E0F9120CDD906182E0A2E64003CD
:101FB800022056E591A2E640030220567591BF9093
:101FC80003A2E064057008120C05120C11800312BC
:101FD8000C0B752100120C6BE99003A3F079001229
:101FE8000C5F120A3D7A017B009003A1E0F9120F01
:101FF8002F907803E064427055900544E014F07027
:102008004DC2AF12200E00782AD0E0F618D0E0F6C4
:10201800E59F540770057509FF800375097FC4C0E3
:10202800E07829E6F50808E65509F509740B7808FB
:102038001215A0D0E02508F8906270E0A2E740F8F9
:10204800E8C333906272F0906270E0D2E0F0906181
:1020580081E0A2E35009E5E9A2E3500375E9F7A39B
:10206800E0A2E75009E591A2E7500375917FEEA23F
:10207800E092AFD0F0D083D082D00BD00AD009D074
:1020880008D0E0FED0E0FDD0E0FCD0E0FBD0E0FAE4
:10209800D0E0F9D0E0F8D0D0D0E032C0E0C0D0C075
:1020A80082C083906183E0A2E05009E5BFA2E050BE
:1020B8000375BFFEE0A2E15009E5BFA2E150037538
:1020C800BFFDE0A2E25009E5BFA2E2500375BFFBE5
:1020D800E0A2E35009E5BFA2E3500375BFF7E0A211
:1020E800E45009E5BFA2E4500375BFEFE0A2E55054
:1020F80009E5BFA2E5500375BFDFE0A2E65009E598
:10210800BFA2E6500375BFBFD083D0828088C0E0ED
:10211800C0D0E8C0E0E9C0E0EAC0E0EBC0E0ECC055
:10212800E0EDC0E0C0F0E5A7A2E6500FE5A1A2E609
:10213800500953A7BF75A1BF12217BE5A7A2E5509F
:102148000CE5A1A2E5500653A7DF75A1DFE5A7A21C
:10215800E15009E5A1A2E1500375A1FDE5A7A2E2BE
:10216800500CE5A1A2E2500653A7FB75A1FBD0F0E5
:1021780002208C74F812169E7521019003A2E06467
:10218800067015120B938A828B83A3A3A3A3A3A320
:10219800E0FAA3E0FB120BF3A2AFE433FED2AF9058
:1021A80003A8E0640170187A207B009003A1E0F98D
:1021B800120FB97A207B009003A1E0F9120F359035
:1021C8006182E0D2E6F0900541E0602185C6228078
:1021D800169003A7E064017008E5C654F84405F5B5
:1021E800C653BEFC121F087401652160E4EEA2E02C
:1021F80092AF7F0102174A008E238F24858228859B
:102208008327851882851983E0CEA3E0CF852882AD
:10221800852783EBC9EAC8EDCBECCA75F010C3E893
:1022280033C8E933C9EA33CAEB33CBC3EA9EF52690
:10223800EB9FF525B35004AB25AA26EC33CCED3340
:10224800CDD5F0DAAE23AF242274E912169E74F8C5
:102258001215C2851882851983ECF0A3EDF08A085F
:102268008B099003A2E024F7C39405500675080172
:102278000223E8120B938A0A8B0BAE0AAF0BEE4FC0
:1022880070030223E5AC08AD09740212160EAA8287
:10229800AB83120C238E828F83A3A3750CFF750D5D
:1022A800FF750EFF750F00780C1214547402121685
:1022B8000E7510FF7511FF7512FF75130078101257
:1022C8001454780C791012127A502A780C7910125A
:1022D80014197508017509C8750A00750B00780886
:1022E800790C12127A5052850C08850D09850E0A50
:1022F800850F0B80507514017515C8751600751774
:102308000085100885110985120A85130B7808794C
:102318000C1214197814790812127A401C750800E6
:10232800750900750A00750B0178087910121419DF
:102338007808790C1213E0800C750801750900758E
:102348000A00750B00740978081213C1750C19F589
:102358000DF50EF50F7808790C1213398E828F83DC
:10236800A3A3A3A3A3A3E0F8A3E0F97AD07B031265
:102378001537880C890DE4F50EF50F7808790C12DD
:1023880013E0740612160EE0F8A3E0F97AD07B0386
:10239800121537E8FA8A0CE4F50D7808790C121250
:1023A8007A50077808790C1214199003A2E064088F
:1023B800600AE064066005E06405702D750C0D7810
:1023C8000C790812127A4021750CF4750DFF750E00
:1023D800FF750FFF7808790C1213E0800C75080060
:1023E800750900750A00750B00851882851983E048
:1023F800F8A3E0F583888278081214897408121506
:10240800D87F1002174A74F712169E120C359005E1
:102418003FE064017010906245E4F0A3F053F4F3D8
:1024280043FE0C5390F3120BE1E5C654804449F582
:10243800C6E59E547F644970F8906185740FF090EA
:10244800053DE0F47002A3E0604E90053EE06008B0
:1024580014601B14602E80407508017509009005F2
:102468003DE078081215AFE508F45280802A750817
:102478000175090090053DE078081215AFE508F4EC
:102488005290801475080175090090053DE07808A0
:102498001215AFE508F452A079007F0202174A74BA
:1024A800F712169EE9FEEAFF74016E700C7A807BC3
:1024B800009003A1E0F9120F2F902860E493F460D4
:1024C80008E493F9120A31800953C680E59E547FC7
:1024D80070FA120BE790053FE064017003120A4995
:1024E80090053DE0F47002A3E0604B90053EE0608B
:1024F8000814601A14602C803D7508017509009055
:10250800053DE078081215AFE50842808028750877
:102518000175090090053DE078081215AFE50842FD
:1025280090801375080175090090053DE078081240
:1025380015AFE50842A0120C35120B938A088B09D7
:10254800A808A909E8496015E5E170FCE82414F534
:1025580082E93400F583E0F46003E0F5E174016F8B
:10256800700A7A019003A1E0F9120F830224A27481
:10257800ED12169E8A088B098C0A8D0B741312169D
:102588000E780C12147A7808790C12127A751001E8
:102598007511C875120075130050127808790C125D
:1025A80014197810790812127A50168010780C795C
:1025B800081214197810790C12127A4004790180E3
:1025C8000279007F0C02174A74ED12169E8A088B56
:1025D800098C0A8D0B741312160E780C12147A7863
:1025E8000C790812127A40117808790C121419AA79
:1025F80008AB09AC0AAD0B80227510007511007587
:1026080012007513017810790C12141978107908D2
:102618001213E0AA10AB11AC12AD1380A68A828BFC
:10262800837508FF7509FF750AFF750B0078081296
:1026380014677F0402174A74F512169E8C828D83E4
:10264800780812147A8A828B83780812142DEA2467
:1026580004F8EB3400F98C828D83A3A3A3A3E0FCD8
:10266800A3E0FD88828983C3E09CF0A3E09DF08805
:10267800828983C3E09420A3E0944E40268A828B0B
:10268800837508FF7509FF750AFF750BFF78081237
:1026980014068A828B83A3A3A3A3E02420F0A3E0DB
:1026A800344EF002262574F512169EE9FE9004F7C2
:1026B800E0FAA3E0FBEEC333F8E433F9749128F5AC
:1026C80082748039F583E02AF508A3E03BF50978A0
:1026D800081218457A407B427C0F7D001222007454
:1026E800021215D88A088B098C0A8D0B7410780889
:1026F8001213A8AA08AB097F0402174A74F112162C
:102708009E8A0C8B0D8C0E8D0F740F12160EE0FA2C
:10271800A3E0FB741112160EE0F508A3E0F50978A2
:1027280008121845EA2401F508EB3400F509E4F528
:102738000AF50B780C79081212B975087175090237
:10274800780C79081212B9AA0CAB0DAC0EAD0F12A9
:10275800220074021215D88B09EA450960047A012F
:1027680080027A00EC2AFCED3400FD741312160E78
:10277800E0F8A3E0F9E8FEE9FFECF8EDF97A717BFF
:1027880002121537880889098E828F8378081214F7
:1027980089ECF8EDF97A717B021215378A088B09F2
:1027A800740578081215AF8E828F83A3A3A3A3E5BF
:1027B80008F0A3E509F07F0802174AC082C083E940
:1027C800906000F0D083D08222C2AF02000022C005
:1027D800E074F212178AA2AFE433FED2AFE589A201
:1027E800E1400CE589A2E44006E589A2E550031220
:1027F800111B758900758900758900758900C2C526
:10280800EEA2E092AF7F010217E9C0E074F212175E
:102818008AA2AFE433FED2AFE58AA2E14006E58A98
:10282800A2E2500312111B758A00758A00758A008E
:10283800C2EB80CCC0E0C0D0E8C0E0E9C0E0E5A8C9
:10284800D2AFC2C7751A00A2E7A2E792AFD0E0F9EB
:10285800D0E0F8D0D0D0E032FFFFFFFFFFFFFFFF4E
:10286800C082C083E99009F2F0022AF774F71216C1
:1028780032E99002E1F07C197D037AFF7BFF1207B1
:10288800859002E274FFF0A3F0A3E4F0A3F07905C9
:1028980012070D9002E1E0F912062F7AA37B0712C6
:1028A80009477F0102170474F41216328A088B094B
:1028B800EB548060309002E1E0F9120F178A0A8B1E
:1028C8000BAE0AAF0BEE4F60138E828F83E064B0BD
:1028D8007003120725EEFAEFFB120F05AA08E509A7
:1028E8006480FB80047A007B00022AC674F2121608
:1028F8003274FC1215C2EAFEEBFFEE4F6038740228
:1029080012160EEEF0A3EF122D2BECF0A3ED122D04
:102918002BAA82AB83120629E9F508707374121288
:10292800160E1238DFE50A450B60658E828F83121A
:1029380029A2EE4F700575080280557A067B0012B1
:102948000F6B8A0C8B0DA80CA90DE849700575084A
:1029580013803D88828983E41229ACA3A3EEF0A3F7
:10296800EF123D78E50AF0A3E50BF09002E7122A92
:10297800349002E76017E0FCA3E08003EAFCEBFD7B
:102988008C828D83122A3470F38C828D83123804E2
:10299800A90874041215D8023F7AA3A3A3A3E0FEE2
:1029A800A3E0FF22F0A3F0888289832274F2121632
:1029B80032890AE975F017A4FEAFF09002E6E4F058
:1029C8009002E4122A34600A120F719002E4E4F0D3
:1029D800A3F0EEFAEFFB120F6B8A088B09EA4509A0
:1029E800602FEEFCEFFD7900120EF39002E4E5088B
:1029F800F0A3E509F07B008008122A1EE4F0A3F09A
:102A08000BEBC3950A40F2E50A9002E6F0790080E4
:102A1800027913023F7AEB75F017A4F8A9F0900237
:102A2800E4E028FAA3E0398A82F5832212359AEA8B
:102A38004B2274F4121632750800750900740C12D2
:102A4800160E123D4CFEE9FF800CE5082401F5083E
:102A5800E5093400F509C3E5089CE5099D50328570
:102A6800080A85090B7403780A1215AFEA250AF8D3
:102A7800EB350BF988828983A3A3A3A3A3A31238F8
:102A8800DFEE650A7003EF650B70BFE8FAE9FB80BB
:102A9800047A007B00802774F41216327900EAA2C7
:102AA800E0501B75081E75098178081218457C04CA
:102AB8007D007AF47B0912070774021215D87F0487
:102AC800021704C082C0839002E7122AFE601C88A5
:102AD800828983A3A3E06A7003A3E06B8882898359
:102AE80070E8A3A3A3A312359680047A007B00D0D4
:102AF80083D08202013212404DE8492274EE121648
:102B08003274FC1215C2EAFEEBFF85188285198320
:102B1800E4F0A3F0EE24021237E8EE2405122D1992
:102B2800EE2404F50EEF1230FEE024FE603924FC9A
:102B3800604624FE605224FE605E24FE7003022C70
:102B48001E24FE7003022C9624FE7003022CA5247A
:102B5800FE7003022CB424FC7003022CC324FE7004
:102B680003022CD2022D0F9003007417F0A3E41275
:102B78002D331203A7022D0F851882851983AC8285
:102B8800AD8312072B022CDF851882851983AC824E
:102B9800AD83120731022CDF850C08850D097402FC
:102BA80012160EAC82AD838508828509831235968C
:102BB80012064D8A0C8B0DAC0CAD0DEC4D6042E449
:102BC800F50CF50D780C121845750C00750D037889
:102BD8000C121845750C01750D03780C1218457404
:102BE8000812160E12185C791612359012076D74B9
:102BF800081215D8E9F50C700B12358C1203BF803A
:102C08000F750C01850882850983122D211238045D
:102C1800850C08022CE2740212160EAC82AD838574
:102C28000C82850D8312359612064D8A108B11ACD5
:102C380010AD11EC4D6043850C82850D83A3A31262
:102C4800185C75100075110378101218457510017D
:102C58007511037810121845740812160E12185CB4
:102C6800791612359012076D74081215D8E9F5090E
:102C7800700B12358C1203C5800F750901850C8203
:102C8800850D83122D21123804850908804C85187A
:102C980082851983AC82AD83120737803A85188202
:102CA800851983AC82AD8312073D802B85188285F8
:102CB8001983AC82AD83120743801C85188285195D
:102CC80083AC82AD83120749800D851882851983EC
:102CD800AC82AD8312074FE9F508E50860298E82BA
:102CE8008F83A3E06414601F850E82850F83E090B4
:102CF8000300122D2B124049900301123804E508F5
:102D0800A3122D331203A1EEFAEFFB1206CB023603
:102D1800F0F50CEF3400F50D2212404D8518828530
:102D2800198322F085188285198322F07C007D039F
:102D3800850A82850B8312359A2274EE1216327434
:102D4800FC1215C28A0A8B0B8C0E8D0FEA2405F52E
:102D580008EB3400F5097C157D0079007A007B03C7
:102D6800120EF3E5082402F50CE509122D1C85184E
:102D780082851983858210858311781012184585FC
:102D88000882850983A3A3A3A3123246121845E536
:102D9800082405F510E5093400F5117810121845D6
:102DA800850C82850D831235A0120647740612150C
:102DB800D88A108B11AE10AF11E50A2402F50AE586
:102DC8000B1237EBEE4F7003022F088017740212B4
:102DD800160E12359688828983EAF0A3EBF09003E9
:102DE80000E004F0900300E0C394054003022F08BC
:102DF800E4F510F51178101218457510E9751102EF
:102E080078101218457510EA7511027810121845D5
:102E1800740612160E12185C7910EEFCEFFD1235CE
:102E28009012076D74081215D8E9705E85088285BE
:102E38000983A3A3A3A3A3A3A3E0F89002E9E068EE
:102E480070481232461218457CEA7D02E5082408CB
:102E5800FAE5093400FB120EED74021215D8E96088
:102E6800298E828F83A3A3A3A3123596900300E033
:102E7800F510740278101215AF74012510F58274DC
:102E8800033511F583EAF0A3EBF0740212160E85F0
:102E980082108583117810121845740212160E12CA
:102EA800185C850C82850D8312405E1206537404EB
:102EB8001215D88A108B11AE10AF11900300E0F5EF
:102EC80010751100740278101215AF74002510F8EF
:102ED80074033511F988828983A3122A3470030296
:102EE8002DCCE82403F8E93400F9EE4F6003022DF5
:102EF800D58882898374FFF0A3F0900300E004F082
:102F0800900300E0600A12358C1203B37900800B3D
:102F18008508828509831237FB790A0236F074EA3C
:102F280012163274FE1215C28C128D13EA2405F59E
:102F38000CEB1241C81229A6750800750900EA248D
:102F480002F510EB3400F511851882851983858206
:102F58000A85830B780A121845850C82850D83A390
:102F6800A3A3A3123108121845E50C2405F50AE5B8
:102F78000D1237EB780A121845850C82850D8312DD
:102F8800405C12064774061215D88A0A8B0BEA456C
:102F98000B70030230B9EA2404F50EEB1230FE126E
:102FA80029A68A828B83A3A3A3E0F98510828511C1
:102FB80083123596120635E9F50960030230B9E443
:102FC800F514F51578141218457514E97515027875
:102FD800141218457514EA751502781412184574F8
:102FE8000612160E12185C7913AC0AAD0B85108206
:102FF80085118312359612076D74081215D8E9F5F4
:103008000960030230B99002E9E0F8E5087009E0C8
:103018002402900301F08017900301E0FCE82402E9
:10302800FAE43400FBEA6C7001EB60030230BD8502
:103038000882AA8212323D94141232355073850EDA
:1030480082850F83E0C0E074022A1230F5D0E0F0E8
:103058000508850E82850F83A3E0C0E085080A7401
:1030680002250A1230F5D0E0F005089002E9123185
:10307800081218457CEA7D0285080A7402250AFAB6
:1030880074033400FB120EDB74021215D89002E9A7
:10309800E02508F50874FF6E700374FF6F6012EE88
:1030A80024010EEF3400FFE508C394145003022FE7
:1030B80050E508601312348185108285118312351A
:1030C800961203B979008014E509700375090A8519
:1030D8001282851383EEF0A3EFF0A909740212158A
:1030E800D87F0E02170485080C7402250CF582742B
:1030F800033400F583223400F50F850E82F5832210
:10310800123D8B2274EE12163274FE1215C28C0E0A
:103118008D0FEA2405F50CEB122D1C750B0090039E
:1031280000E4F0F50AEA2402F508EB3400F509801A
:1031380049900300E0FA9002E9E0F812323D941752
:10314800123235400D900300E0F87416C3989002CF
:10315800E9F01232461218457CEA7D0274012AFA17
:1031680074033400FB120EDB74021215D89002E9C6
:10317800E0F8900300E028F0050AE50C2416F58233
:10318800E50D1230F9E0F8E50AC398400302321E53
:10319800900300E0C39416507DE50AC333F8E43386
:1031A800F9E50C28FEE50D39FF851882851983ACF1
:1031B80082AD838E828F8312359612064D8A108BCC
:1031C80011AC10AD11EC4D7005750B018043E4F5A1
:1031D80010F51178101218457510E975110278105C
:1031E8001218457510EA7511027810121845740600
:1031F80012160E12185C7916850882850983123515
:103208009612076D74081215D8E9F50B7003023190
:10321800391237F780107C007D0385088285098381
:103228001235961203CBA90B74020236F2E9940008
:10323800C365D03322EA28F8E43400F9E822E0F53F
:103248001075110078102274EA12163274FC1215E7
:10325800C28A0C8B0D8C128D13EA2405F50AEB1229
:1032680037EB750800750900E50A2402F510E50B2F
:103278003400F511740212160E85820E85830F78BC
:103288000E121845850A82850B83A3A3A3A3123DBA
:1032980037121845E50A2405F50EE50B3400F50F3D
:1032A800780E1218458510828511831237F1123570
:1032B8009012064774061215D88A0E8B0FAE0EAF01
:1032C8000FE50C2402F50EE50D3400F50F8040885B
:1032D80082898374FFF005081230EE74FFF0050848
:1032E8009002E9E0F50C750D00780C1218457CEA9F
:1032F8007D0285080C7402250CFA74033400FB1255
:103308000EDB74021215D89002E9E02508F508EEE4
:103318004F60718E828F83A3A3A3E0F9850E828507
:103328000F83123596120635E9F509EE2404122D9D
:1033380019E97044E4F514F5157814121845751454
:10334800E975150278141218457514EA751502788E
:1033580014121845740812160E12185C7911EEFC36
:10336800EFFD850E82850F8312359612076D74085E
:103378001215D8E9F5096027850C82850D8312346A
:1033880077123804E508700302345D123481850E23
:1033980082850F831235961203D179000234728523
:1033A8000882AA82EA9002E97009E02404900301E5
:1033B800F08022E0F8900301E0F514E82404FCE42E
:1033C8003400FDEC65147001ED70C012323D9412AA
:1033D80012323550B6850C82850D83E0C0E0740248
:1033E8002A1230F5D0E0F00508850C82850D83A3FC
:1033F800E0C0E01230EED0E012349385820C858371
:103408000D780C121845740412160E12185C8510EB
:103418008285118312405E12065374041215D88AED
:103428000C8B0DAE0CAF0D85080C7402250CF874CE
:10343800033400F9EE4F70030232D78518828519DC
:1034480083E088828983123493A3E0C0E01230EECF
:10345800D0E00232E5E509700375090A850A82851C
:103468000B83123477123804A90974040230E61267
:10347800404D85128285138322900301E0F5F0E523
:103488000884900300F07C007D0322F0050885186D
:10349800828519832274EC12163274FE1215C28AC0
:1034A800088B098C0E8D0FEA2405FEEB3400FF858E
:1034B8001882851983AC82AD838E828F83123596EC
:1034C80012064D8A0A8B0BEE2418122D19EA450BA9
:1034D80070030235671236D95032851882851983F0
:1034E8001235961207618A108B11EA4511606B79C3
:1034F80012AC0AAD0B8508828509831235968510B2
:1035080082851183121630E9F50A7058E4F50AF538
:103518000B780A1218458E828F83A3A3E0F50A78E8
:103528000A121845EE24031237E8780A1218458E55
:10353800828F831235A012077374061215D8E9F525
:103548000A7021850C82850D83E0701F85088285AD
:1035580009831235961203D78011750A0E800975F2
:103568000A018004E50A60031237F7850C82850D8D
:1035780083E0600479008002A90A74021215D87FDA
:103588000C0217047C007D03850A82850B831235A3
:103598009A22E0FAA3E0FB22E0FCA3E0FD85088282
:1035A80085098312359A2274EE12163274FE1215AA
:1035B800C28A088B098C0C8D0DEA2405FEEB3400B9
:1035C800FF750E00851882851983AC82AD838E82C3
:1035D8008F8312359612064D8A0A8B0BEA450B70BB
:1035E800030236C51236D9503585188285198312DB
:1035F80035961207618A0E8B0FEA450F605E7912C5
:10360800AC0AAD0B850882850983123596850E8232
:10361800850F83121630E9F50E60030236C8850857
:10362800828509831238DFAA0AFB1207558A108B94
:1036380011A810A911E849701E7AFF7BFF120755DF
:103648008A108B11A810A911E849606C88828983B7
:10365800E50AF0A3E50BF0750A008007750E0E80E9
:103668005F050A9002E6E0FAE50AC39A504AE50ABD
:1036780075F017A4FAABF088828983A3A3E02AFA2D
:10368800A3E03BFB8A828B831237F1EC4D70D27535
:103698000A17750B00780A121845EEFCEFFD120E9A
:1036A800DB74021215D8EEFCEFFD850882850983CC
:1036B8001235961203DD8014750E098003750E010C
:1036C800124045850C82850D83123804A90E0232FA
:1036D80030E5082402F508E5093400F5098A828BEB
:1036E80083A3A3A3E0A2E52274041215D87F0A02DB
:1036F800170474EC1216328C108D11EA2405F50C9F
:10370800EB122D1C750F00EA2402F50AEB1237EBB9
:10371800850A82F5831235961207558A088B09EABD
:10372800450970030237DD750E008071850C8285AE
:103738000D83E06401704F8E828F83A3A312185CFF
:103748008E828F83A3A3A3A3E0F5127513007812CA
:10375800121845EE2405F512EF3400F5137812120D
:10376800184512359012077374061215D8E9F50F2B
:103778006014850C82850D83E4F012404585108223
:103788008511831238047C177D007900EEFAEFFB6F
:10379800120EF38E828F83E4F0A3F0050E9002E6FA
:1037A800E0F8E50EC398501EE50E75F017A4F8A9C9
:1037B800F0850882850983A3A31241D21237F1EC60
:1037C8004D600302373485088285098374FFF0A3AE
:1037D800F0E50F70061235901203E3A90F02358742
:1037E800F50AEF3400F50B22A3E0FCA3E0FD228EDE
:1037F800828F8312404D850E82850F83E8F0A3E9FE
:10380800F022C082C0839002E2E06A7003A3E06BFA
:1038180070067AE27B0280047A007B00022AF7C0F5
:1038280082C08378008C828D83E06A7003A3E06B8A
:103838007010E875F003A4F8A9F0EC28FAED39FB4C
:103848008015088C828D83A3A3A3E06A7003A3E08C
:103858006B60DF7A007B00022AF774F612163212C8
:10386800071F8A828B83E582458370067A007B0076
:103878008007A3A3A3A3123596023EF674F212168C
:1038880032E9FE740E12160E1238DF741012160E7C
:10389800123D578C828D83E064027036A312405328
:1038A800F50CA3E0F9A80C74026870037429697018
:1038B80021750C02750D00780C121845780812183D
:1038C80045780A121845EEF912079774061215D8AA
:1038D80080027901023F7AE0F50AA3E0F50B227431
:1038E800E812163274FB1215C2E98518828519830D
:1038F800F08A168B17ECFEEDFF751000741D12167A
:103908000E124049741D12160E1238048E828F83CF
:10391800A3A3A3E0A2E4502D741D12160E1235962F
:103928001207618A828B83E58245837003023D28F2
:10393800790AEEFCEFFDAA16AB17121630E9F5105E
:103948006003023D2B741F12160E123D577421128C
:10395800160E1238DF742312160EE0F50EA3E0F5EA
:103968000F8E828F83E064026003023CD6A312406C
:1039780049850882850983A3858212858313EE24ED
:1039880006122D1988828983E0FAA3E0F9EA240057
:10399800F514E439F51578141218CF010000280140
:1039A80028CB3907000228903A0328FD390029C797
:1039B8003B0129F23B0229933B0329C73B042971A8
:1039C8003CD63CE50E450F6003023CD1850C828550
:1039D8000D83123D4CFAE9FB8A828B83E0850A82CB
:1039E800850B83123D821218458A828B83A3E0FCE3
:1039F800A3E0023C5BE50E450F6003023CD1850A5B
:103A080082850B837401F0123D5F850882850983E6
:103A1800F07C007D008E828F83A3A3A3A3E0240102
:103A2800FAA3E03400FB12064DEA4B60418A828B10
:103A380083E02402F8850A82850B83E028F0EA24D3
:103A480004F8EB3400F988828983E08512828513B3
:103A580083123D94123D821218458A828B83123755
:103A6800F0E5082403FAE5093400FB023C60850A06
:103A780082850B83E02404F07C047D007900AA127F
:103A8800AB13120EF3023D2BE50E450F6003023C0B
:103A9800D1123D5FFEA3E0FF850A82850B83740483
:103AA800F0EE850882850983F0EF851282851383FD
:103AB800F0740312160EAC82AD83EEFAEFFB120619
:103AC8004D8A0C8B0DEA450D7003023B748A828B7C
:103AD80083A3A31229A2740112160E85820E858370
:103AE8000F780E121845740512160E12185C7CFF1A
:103AF8007DFF12065374041215D88B0FEA450F7018
:103B080033850C82850D83123D37121845850C824A
:103B1800850D83A312185C7C027D007A7B7B811261
:103B2800047F74041215D8E9700A740112160E7411
:103B3800FFF0A3F08E828F83E064027039750C0267
:103B4800750D00780C1218458E828F831237F0E5B8
:103B5800082404FAE5093400FB120EDB740212157E
:103B6800D8850A82850B83E0240280097401121625
:103B78000EEEF0A3EFF0740112160E123D48F07429
:103B88000112160EA3123D40023CCBE50E450F6014
:103B980003023CD1850C82850D831237F1AA16AB3E
:103BA8001712078B850A82850B837402F0EA850851
:103BB80082850983F0851282851383EB023CCEE56A
:103BC8000E450F6003023CD1123D5FF8A3E0F98572
:103BD8000A82850B837402F0E8850882850983F0E0
:103BE800E9851282851383023CCE850C82850D837C
:103BF800123596120ED5EAFC8C82A882C3950EE483
:103C0800950F405FE8650E7002E50F70047C008038
:103C180022851882851983E0FAE50E2AFAE50F3421
:103C280000FBC3EA98EB94005003E08005E50ECC56
:103C3800C39CFCEC850A82850B83F08C0A750B000B
:103C4800780A121845850C82850D83E0250EFCA3A1
:103C5800E0350FFDAA08AB09120EDB74021215D865
:103C6800023D2B751007023D2BE50E450F705A8556
:103C78000C82850D83124049850A82850B8374075F
:103C88001229AE123D401229AEA3E0851282851397
:103C980083F0E82402FAE93400FB8A828B83123D20
:103CA80040123D6F123D48A3123D78123D51F0E895
:103CB8002405F8E93400F988828983123D51A3125A
:103CC8003D94A3A3A3A3F0805A75100B8055741DCF
:103CD80012160E12359612071F8A828B83E58245CB
:103CE80083603D124049880C890DE8450D603178A4
:103CF8000E121845780A12184578081218457406E5
:103D080012160EE0F9EEFCEFFDAA16AB17850C8231
:103D1800850D8312163074061215D8E9F510800344
:103D280075100EA91074051215D87F10021704E03B
:103D3800F50E750F00780E22E0850882850983222A
:103D4800123D9E2212404DE822123D9EA3A322E07E
:103D5800F508A3E0F50922850C82850D83E0F8A318
:103D6800E0F5838882E022A3A3F08A828B83A322D2
:103D7800F088828983A3A3A3A322F08A828B83126B
:103D88003D8B22E0F50A750B00780A22F0888289BB
:103D980083A3123D9E22E0850882850983A3A3227E
:103DA80074EE12163274FE1215C28A0A8B0BECFAE4
:103DB800EDFB741412160EE0F510A3E0F51174165D
:103DC80012160EE0FE741812160EE0F50EA3E0F5BA
:103DD8000F851882851983AC82AD8312064D8A0C33
:103DE8008B0DEA450D604985188285198312359631
:103DF80012071F8A828B83E5824583602FA3A31253
:103E08003D57E50845096024780E121845781012C8
:103E18001845EEF9AC0CAD0DAA0AAB0B85088285E6
:103E2800098312163074041215D88006790E8002A0
:103E3800790102323074F612163274FE1215C27409
:103E48000C12160E123D4C851882851983F07401E8
:103E580012160EE9F0E4F508F50978081218457508
:103E680008027808121845740412160E858208850F
:103E78008309780812184512077374061215D87446
:103E8800021215D8806874F7121632EAFEEBFF8921
:103E9800087C197D0312078BEA5402600BA908EE0F
:103EA800FAEFFB120641800279010228AA74F61281
:103EB800163274FF6A700374FF6B70168C828D83E0
:103EC800123EFBE4F08C828D83A3A3A3123EFBA3D6
:103ED800801812075B8A088B09A808A909E84960B5
:103EE8000D8882898374FF1229ACA3A3E4F07F02B2
:103EF80002170474FFF0A3F08C828D83A3A32274AD
:103F0800F612163212075B8A828B83E5824583603C
:103F180006A3A3E0FA80027A007B0080D174F21233
:103F280016328A088B09ECFEEDFF740E12160EE0AD
:103F3800F50A12075B8A0C8B0DA80CA90DE84970CD
:103F480026EEFCEFFD7AFF7BFF12075B8A0C8B0DD8
:103F5800A80CA90DE8497004791180168882898314
:103F6800E508F0A3E509F088828983A3A3E50AF0B0
:103F780079007F0602170474EE121632EAFEEBFF90
:103F88008C088D09890C741412160E124049741687
:103F980012160E123596750D00E849600302403D71
:103FA8007402650C6003024038741212160E124037
:103FB80053FCA3E0F9EC2400F50EE439F50FEAF41C
:103FC800F8EBF4F9EC58F8E50F59F9E849705CE5B5
:103FD800082406F8ED3400F9880A890B8882F583ED
:103FE80012405E12078B8A108B11E50E6510700463
:103FF800E50F65116042780E121845850A82850B17
:104008008312405E12079174021215D8E9F50D70FB
:1040180027780E121845850882850983A3A31240C4
:104028005C1207A974021215D8800D750D808008DE
:10403800750D0D8003750D0BA90D0236F58E828F57
:104048008312404D22E0F8A3E0F92212404D888205
:104058008983E022A3A3E0FCA3E0FDEEFAEFFB22B4
:1040680074E812163274E71215C28518828519830E
:10407800EAF0A3EBF08C168D17890E750800750908
:1040880000743112160EE0F512A3E0F51374331222
:10409800160EE0F514A3E0F515743512160EE0F5CA
:1040A8000FE50975F003A4F8A9F08518828519832E
:1040B8001241D2E0F47003A3E0F470030241B5EEBC
:1040C8002402F50CEF1241C8E070030241B58516D1
:1040D8000A85170B780A121845AC14AD15AA12AB4D
:1040E8001312071374021215D88A0A8B0BEA450BB0
:1040F80070030241B5E4F510F511781012184574F3
:104108000612160E858210858311781012184574D0
:104118000912160E858210858311781012184585AC
:104128001282851383A3A3A3A312185C7914AC0A83
:10413800AD0B8E828F8312359612076D7408121597
:10414800D8E97069850A82850B83A3A3A3A31240CB
:1041580049740212160E123804850C82850D83E00C
:10416800A2E05018A90E740212160EAC82AD838E0E
:10417800828F83123596120665E94208850C82857E
:104188000D83E0A2E15026E50FF50A780A121849D6
:10419800A90E740312160EAC82AD838E828F831221
:1041A800359612065F74011215D8E942080509E52B
:1041B80009C3940250030240A9A9087419023D2FAB
:1041C8003400F50D850C82F58322E028FEA3E03942
:1041D800FF8E828F832274F2121632EAFEEBFF8979
:1041E8000B7401650B600E7402650B706A7901121D
:1041F8000965E97062EEFAEFFB1207558A088B0928
:10420800EA45096047750A00800B7C177D00790034
:10421800120EF3050A9002E6E0F8E50AC398502169
:10422800E50A75F017A4F8A9F0850882850983A323
:10423800A3E028FAA3E039FB8A828B83122AFE7056
:10424800C985088285098374FFF0A3F07C197D0372
:10425800EEFAEFFB120785023F7A74F21216328AE1
:10426800088B09ECFEEDFF740E12160E1238DF9063
:1042780009F2E0F4603D7A097B00120EFFEA4B6018
:10428800328A828B8374B1F0A3E4123D71A3123D8C
:104298006FA3E508F0A3E5091242BEEEF0A3EF1202
:1042A80042BEA3A3E50AF0A3E50BF09009F2E0F9FA
:1042B800120F0B023F7AF08A828B83A3A3A3A3A3D6
:1042C80022C082C0839061907404F0A37448F0A364
:1042D8007402F09061807440F09061BC7403F090B7
:1042E80061877419F0906265741BF0906249E0C3AD
:1042F800941390619C400A7409F090606674018080
:1043080007740DF0906066E4F090619A7433F0A33E
:104318007455F09061A0743AF090053FE064017024
:1043280009C2919003A6746780059003A67461F092
:10433800902866E493906186F0902860E493F46096
:1043480027E493540FF8906185E0686012E5C6543D
:10435800804449F5C6E59E547F644970F8E8F053F7
:10436800C680E59E547F70FA7905120CBF02452479
:10437800C082C083E9540FF9906185E0696012E555
:10438800C654804449F5C6E59E547F644970F8E9EF
:10439800F053C680E59E547F70FA024524C082C05F
:1043A80083E5A8F853A87E906181E4F0A3F0A3F018
:1043B800C2BA539AFEC289759B00C2C275E90075DC
:1043C800910075BF0075A91175B905906181F0A3B9
:1043D80074C0F0A3E4F0D2BA439A0174805842A89A
:1043E800024524C082C08374F81215C29003A4E069
:1043F800F8A3E0F9E84970030245199003A4E054D2
:104408004060237908851882851983AA82AB8312B4
:104418000B21851882851983AA82AB83120815900F
:1044280003A4E054BFF0E054806010790C7A657BF7
:1044380005120B219003A4E0547FF0E0A2E0503174
:1044480090619A7433F0A37455F09061A0743AF0B7
:1044580090053FE064017009C2919003A6746780DB
:10446800059003A67461F012081B9003A4E054FEA3
:10447800F0E05402603190619A743FF0A3745AF0EE
:104488009061A0747FF090053FE064017009D291BB
:104498009003A6747180059003A6746AF012081B35
:1044A8009003A4E054FDF0E054046013902864E401
:1044B80093906186F01208219003A4E054FBF0E089
:1044C80054086013902865E493906186F0120821DF
:1044D8009003A4E054F7F0E054106013902866E4C9
:1044E80093906186F01208219003A4E054EFF0E065
:1044F8005420600A1208219003A4E054DFF0A3E0DE
:104508005401600D120A491208279003A5E054FED1
:10451800F074081215D8024524F0A3F0D083D08295
:1045280002013274EC12163274F41215C285188224
:10453800851983AC82AD83758381758258740412A2
:1045480014D590286493F460030246B7907808E085
:10455800C394025003024697740412160EAC82AD3F
:10456800837583807582EE74081214D58518828548
:104578001983858212858313740412160EAC82ADDA
:1045880083750EFF750FFF7FFF7E00750C48750D54
:1045980078801574086E700302462B74096E7003D8
:1045A80002462B740A6E607B850C82850D83780821
:1045B80012147A8C828D83A909E50AC9F8881074C7
:1045C8001878081213A8E5104508F8C3E098A3E086
:1045D80099850C82850D83780812147A40188C828C
:1045E8008D83741878081213A8E5104508F8E0C3FD
:1045F80098F8A3E0801C741878081213A8E51045F1
:1046080008FAE9FB8C828D83E0F8A3E0F9EAC39805
:10461800F8EB99F9C3E8950EE9950F5006880E89CD
:104628000FEEFF0EE50C2404F50CE50D3400F50D36
:10463800EEC39413500302459B74FF650E70047417
:10464800FF650F60238F08740278081215AF74484D
:104658002508F58274783509F583780812147A8567
:104668001282851383E508F0EC2402FCED3400FD8A
:10467800851282851383A3858212858313740C1295
:10468800160EE5826C7003E5836D6003024589753B
:1046980008017509007808121845740212160EAC44
:1046A80082AD837A197B0A1210F774021215D87436
:1046B8000C1215D87F0C021704C082C0839061AE1B
:1046C8007468F0A3746AF090624574FBF0A304F078
:1046D80053F4FD43FE0290053F7401F09061A0E0A1
:1046E800643A90619A70237433F0A37455F0906122
:1046F800A0743AF0740164017009C2919003A67421
:104708006780289003A674618021743FF0A3745ACF
:10471800F09061A0747FF0740164017009D29190E7
:1047280003A6747180059003A6746A0245237F0866
:10473800021704C082C0839004F1E06401700A90FB
:1047480004F6E06004790C80027900024524C082F6
:10475800C08375E1F19004F4E0605B1460091460B3
:104768005F14605714705E120A5B9004EAE0F97AED
:10477800EB7B04120C417AD67BBE7C897D8E120CB1
:10478800777A557B557C557D00120C4D9004F5E0E9
:10479800F9120C597901120CB39004E8E0F8A3E07F
:1047A800C82416F582E83400F5837473F0A3740AFC
:1047B800F07900024524120A6180AF120A6780AAC4
:1047C800120A6D80A5791280EA74F012163275D932
:1047D8000D9004D5E0A2E0E4331313F89004EAE066
:1047E800C4333354C0484401F5D978E87904888241
:1047F8008983A3A3A3E0F5D988828983A3A882A982
:1048080083E864EE7003E9640470E378D57904887A
:10481800828983A3E0F5D988828983A3A882A983A2
:10482800E864DB7003E9640470E575E1959004D5EC
:10483800E0F97AD67B04120C47900A147407F0A3A7
:10484800740AF0A37469F0A3740BF0A37469F0A35D
:10485800740BF0A37469F0A3740BF0A3740DF0A3A8
:10486800740AF0A37469F0A3740BF0A37425F0A381
:10487800740AF0900A227469F0A3740BF0A37469A7
:10488800F0A3740BF0A37469F0A3740BF0A374691C
:10489800F0A3740BF0A37469F0A3740BF0A374690C
:1048A800F0A3740BF09004F4E064019004E8701233
:1048B800E0F8A3E0F5838882A3A3750800750908CA
:1048C8008010E0F8A3E0F5838882A3A37508047537
:1048D8000900750A00750B0078081213F3750CFFB0
:1048E800750DFF750EFF750F007808790C121441CD
:1048F8009004E8E0F8A3E0C8240EF582E83400F557
:104908008378081214899004E8E0F8A3E0C8241416
:10491800F582E83400F5837413F09003A27402F072
:1049280002473674F71216329004FAE02407F5D9D4
:104938009004EAE0C4333354C0F5D978E8790488A0
:10494800828983A3A3A3E0F5D988828983A3A88257
:10495800A983E864EE7003E9640470E39004FAE064
:10496800601F78E87904FAE82413F582E93400F541
:1049780083E0F5D988828983A3A882A9831AEA707B
:10498800E690051AE02407F5D99004EAE0C4333329
:1049980054C04404F5D978E8790488828983A3A3AC
:1049A800A3E0F5D988828983A3A882A983E864EE65
:1049B8007003E9640470E390051AE0601F78E879F1
:1049C80004FAE82433F582E93400F583E0F5D98860
:1049D800828983A3A882A9831AEA70E675E1959073
:1049E8000A147413F0A3740AF0A37469F0A3740B87
:1049F800F0A37469F0A3740BF0A37469F0A3740BAB
:104A0800F0A3740DF0A3740AF0A37469F0A3740BF7
:104A1800F0A37425F0A3740AF0900A227469F0A335
:104A2800740BF0A37469F0A3740BF0A37469F0A37A
:104A3800740BF0A37469F0A3740BF0A37469F0A36A
:104A4800740BF0A37469F0A3740BF09004E8E0F819
:104A5800A3E0C8240EF582E83400F58374FFF0A3C0
:104A6800F0A3F0A3F09004E8E0F8A3E0C82414F55C
:104A780082E83400F5837412F09003A27401F0FF09
:104A880002170474F71216329004FAE02407F5D9D5
:104A98009004EAE0C4333354C04402F5D978E87985
:104AA8000488828983A3A3A3E0F5D988828983A394
:104AB800A882A983E864EE7003E9640470E39004B3
:104AC800FAE0601F78E87904FAE82413F582E934FB
:104AD80000F583E0F5D988828983A3A882A9831A7F
:104AE800EA70E675E195900A14741FF0A3740AF051
:104AF800A3741FF0A3740AF0A3741FF0A3740AF040
:104B0800A3741FF0A3740AF0A3741FF0A3740AF02F
:104B1800A3741FF0A3740AF0A37425F0A3740AF019
:104B2800900A227469F0A3740BF0A37469F0A3745B
:104B38000BF0A37469F0A3740BF0A37469F0A37469
:104B48000BF0A37469F0A3740BF0A37469F0A37459
:104B58000BF09004E8E0F8A3E0C8240EF582E834EE
:104B680000F58374FFF0A3F0A3F0A3F09004E8E04D
:104B7800F8A3E0C82414F582E83400F5837414F02F
:104B88009003A27404F0024E5274F7121632900485
:104B9800FAE02407F5D99004EAE0C4333354C0445A
:104BA80006F5D978E8790488828983A3A3A3E0F578
:104BB800D988828983A3A882A983E864EE7003E96F
:104BC800640470E39004FAE0601F78E87904FAE876
:104BD8002413F582E93400F583E0F5D988828983C6
:104BE800A3A882A9831AEA70E690051AE02407F5BB
:104BF800D99004EAE0C4333354C04404F5D978E8C2
:104C0800790488828983A3A3A3E0F5D9888289835C
:104C1800A3A882A983E864EE7003E9640470E390B2
:104C2800051AE0601F78E87904FAE82433F582E988
:104C38003400F583E0F5D988828983A3A882A98303
:104C48001AEA70E675E195900A147419F0A3740ACB
:104C5800F0A37469F0A3740BF0A37469F0A3740B48
:104C6800F0A37469F0A3740BF0A37469F0A3740B38
:104C7800F0A37469F0A3740BF0A37425F0A3740A6D
:104C8800F0900A227469F0A3740BF0A37469F0A37E
:104C9800740BF0A37469F0A3740BF0A37469F0A308
:104CA800740BF0A37469F0A3740BF0A37469F0A3F8
:104CB800740BF09004E8E0F8A3E0C8240EF582E84D
:104CC8003400F58374FFF0A3F0A3F0A3F09004E898
:104CD800E0F8A3E0C82414F582E83400F5837415DD
:104CE800F09003A27403F0024E52C082C083900475
:104CF800E8E0F8A3E0C82406F582E83400F583E488
:104D080002452174F71216329003D0E0F875F003CB
:104D1800A4C8AAF02AF974D228F8740339F9E82447
:104D280005FAE93400FB8A828B83E0FCA3E0FD8866
:104D3800828983A3A3A3A3A3A3A3A3A3ECF0A3EDB6
:104D4800F088828983A3A3A3A3A3A3A3E024FFF8E5
:104D5800A3E034FFF98A828B83E8F0A3E9F0024EDE
:104D68005274F7121632EAFEEBFF9061D0E060034E
:104D7800024E4675D90E75D90375D904EE248BF504
:104D880082EF3400F583E5822408F8E5833400F9DE
:104D9800E0F5D9A3E865827003E9658370F2EE2433
:104DA80083F582EF3400F583E5822404F8E5833443
:104DB80000F9E0F5D9A3E865827003E9658370F22C
:104DC80075E1957908EE248BFAEF3400FB120B1588
:104DD8007904EE2483FAEF3400FB120B157C00EE05
:104DE800F8EFF9ECFAC3E49AFA95E0FBEE2AFAEF49
:104DF8003BFBEA248AF582EB3400F583E0C0E0E867
:104E080024AAF582E93400F583D0E0F00C88828981
:104E180083A3A882A983ECC3940840C7EE246FF546
:104E280082EF3400F583E0F8A3E0F9EE2471F5820F
:104E3800EF3400F583E8F0A3E9F079018002790006
:104E48008008F0EEA2E092AF79007F01021704C05B
:104E580082C08375D90275D90375D90575E195EABC
:104E6800246FF582EB3400F583E0F8A3E0F9EA2437
:104E780071F582EB3400F583E8F0A3E9F0790102DB
:104E8800452474F6121632EAFEEBFF9005457406C7
:104E9800F075084575090578081218457C017903ED
:104EA800120B5D74021215D875D90675D90375826F
:104EB80045758305E0F5D9A3E582644A7004E58366
:104EC800640570F075E1959003A2E06408701EEE29
:104ED800246FF582EF3400F583E0F8A3E0F9EE24BF
:104EE80071F582EF3400F583E8F0A3E9F079010267
:104EF800515874F6121632EAFEEBFF9061D0E0705A
:104F0800667801900545740BF09003A2E064077081
:104F18001975084575090578081218457C01790343
:104F2800120B5D74021215D87805740128F5D9752D
:104F3800D903758245758305E8FAE0F5D9A31AEA1D
:104F480070F875E195EE246FF582EF3400F583E093
:104F5800F8A3E0F9EE2471F582EF3400F583E8F068
:104F6800A3E9F079018002790002515874F712160A
:104F780032EAFEEBFF75D90375D90375D90DEE2416
:104F8800DDF582EF3400F583E0F5D975E195790414
:104F9800120C7DEE246FF582EF3400F583E0F8A360
:104FA800E0F9EE2471F582EF3400F583E8F0A3E927
:104FB800F07901024E5274F6121632EAFEEBFF90B7
:104FC80061D0E0F87480C398FAEE2482F582EF3459
:104FD80000F583E06004780480027800E8240BF888
:104FE800EAC39850030250837D09900545EDF0EE21
:104FF80024E2F8EF3400F97A467B057C0888828938
:1050080083E08A828B83F088828983A3A882A9831C
:105018008A828B83A3AA82AB831CEC70E0EE248285
:10502800F582EF3400F583E0601D750845750905C4
:1050380078081218457C097903EEFAEFFB120B5D2C
:1050480074021215D87D0D74012DF5D975D9037523
:1050580082457583058D08E0F5D9A31508E5087024
:10506800F675E1957904120C7DEE241DF582EF3476
:1050780000F583E4F0A3F079018002790002515829
:1050880074F6121632EAFEEBFF9061D0E0F87480F5
:10509800C398FAEE2482F582EF3400F583E06004C9
:1050A800780480027800E82408F8EAC398500302DC
:1050B80051567806900545740CF09003BFE09005B2
:1050C80046F09003C0E0900547F09003C1E09005DA
:1050D80048F09003C2E0900549F09003C3E09005C2
:1050E8004AF0EE2482F582EF3400F583E0601B7508
:1050F800084575090578081218457C067903EEFA03
:10510800120B5D74021215D8780A740128F5D97546
:10511800D9037582457583058808E0F5D9A3150874
:10512800E50870F675E1957904120C7DEE246FF5AB
:1051380082EF3400F583E0F8A3E0F9EE2471F582FC
:10514800EF3400F583E8F0A3E9F0790180027900F3
:105158007F0202170474F6121632EAFEEBFF906122
:10516800D0E0F87480C398FAEE2482F582EF340018
:10517800F583E06004780480027800E82404F8EA03
:10518800C39850030252377802900545E8F0EE24A0
:10519800F4F582EF3400F583E0900546F0EE2482C2
:1051A800F582EF3400F583E0601B75084575090545
:1051B80078081218457C027903EEFA120B5D740226
:1051C8001215D87806740128F5D975D90375824562
:1051D8007583058808E0F5D9A31508E50870F67504
:1051E800E195EE2473F582EF3400F583E4F0EE24C4
:1051F8007FF582EF3400F583E4F0EE241DF582EFAD
:105208003400F583E4F0A3F07904120C7DEE240D4C
:10521800F582EF3400F583E0F8A3E0F9EE2471F5A8
:1052280082EF3400F583E8F0A3E9F0790180027990
:105238000002515874F61216329061D0E0F874806A
:10524800C398FCEA2482F582EB3400F583E060041D
:10525800780480027800E82404F8ECC398405B796D
:10526800029005457407F0EA24F5F582EB3400F561
:1052780083E0900546F0EA2482F582EB3400F5835A
:10528800E0601875084575090578081218457C020C
:1052980009120B5D74021215D87906740129F5D923
:1052A80075D903758245758305E9F8E0F5D9A31822
:1052B800E870F875E1957901800279000251587417
:1052C800F5121632E9FCA2AFE433F50AC2AF7D004D
:1052D80080010DEA246EF582EB3400F583E0F8EDE9
:1052E800C398501A8D08EA2508F8EB3400F9E82429
:1052F8006AF582E93400F583E06C70D68024EA24EC
:105308006EF8EB3400F9E0FEEA2EFAEB3400FBEA23
:10531800246AF582EB3400F583ECF088828983E017
:1053280004F0E50AA2E092AF7F0302170474F612B4
:105338001632A2AFE433FDC2AFEA246EF582EB3435
:1053480000F583E014F07C0060368C08EA2508F844
:10535800EB3400F9E8246BF582E93400F583E0C00A
:10536800E0E8246AF582E93400F583D0E0F00CEA3D
:10537800246EF582EB3400F583E0F8ECC39840CA5C
:10538800EA246DF582EB3400F58374FFF0EA2469B2
:10539800F582EB3400F583E4F0EDA2E092AF025120
:1053A80058C082C083E5A8F8C2AFEA246AF582EB48
:1053B8003400F583E9F0EA2469F582EB3400F583DB
:1053C800E4F0E8A2E7A2E792AF02452474F31216CC
:1053D80032EAFEEBFFECFAEDFB8A828B83A3A3A3F0
:1053E800A3E0541FF0EE2436F582EF3400F583E491
:1053F800F0F50AEEFCEFFD8A828B83E0C0E0EC2436
:105408005DF582ED3400F583D0E0F0750B00E50A18
:1054180033333354F8F50C8A828B83E0F508750929
:1054280000E50B7808121590E508A2E0502FEE244D
:1054380036F8EF3400F988828983E0F508EE25080C
:10544800F508EF3400F509E5082438F582E5093454
:1054580000F583E50CF088828983E004F0050B05EC
:105468000CE50BC3940840AF050A8A828B83A3AA74
:1054780082AB838C828D83A3AC82AD83E50AC3940F
:105488000550030253FF7F0502170474F712163202
:105498009003CEE0640170030255F17A009003D4C2
:1054A800E060030255F17401F0A3E4F0A3F0900466
:1054B8003404F0900439F09003D7E4F0A3F0A3F09B
:1054C800A3F09003E104F0900407E4F09003EAF0FD
:1054D800A3F0A3F0A3F0A3F0A3F0A3F0900451F07D
:1054E800900445F090043A7480F0A3E4F0900440EE
:1054F800F09004BCF0A3F0A3F0A3F0A3F0A3F0A3F2
:10550800F0A3F09004C5F0900454F09004A4F0A324
:10551800F0A3F0A3F0A3F0A3F0A3F0A3F0A3F0A3EB
:10552800F09004B0F09004B2F09004AEF09004C88B
:10553800F0A3F0A3F0A3F0A3F0A3F0A3F0A3F078F6
:10554800CE7903E8246EF582E93400F58374FFF020
:105558000A88828983A3A882A983EAC3940440E3C2
:105568007ACE7B0378DC790488828983E0C0E0EA1C
:105578002461F582EB3400F583D0E0F088828983DA
:10558800A3A882A9838A828B83A3AA82AB83E864B7
:10559800E17003E9640470D07ACE7B0378B57903AF
:1055A80088828983A3E0C0E0EA24E6F582EB340030
:1055B800F583D0E0F088828983A3A882A9838A82B0
:1055C8008B83A3AA82AB83E864BD7003E96403708C
:1055D800CF9003CEE004F0640170089003D6E09009
:1055E80003D0F07AD27B0380047A007B00024E520B
:1055F800C082C0839003D5E4F09003D4F09003CE2A
:10560800F0A3F0A374FFF075E1F1024524C082C055
:1056180083780079009003D5E0600478D279038814
:10562800828983A3A3A3A3E0F902452474F6121682
:1056380032EAFEEBFFEE2463F582EF3400F583E0F7
:10564800F8A3E0F9E84970030256D9EE2463F8EFAD
:105658003400F97A007B00A2AFE433F508C2AF88C2
:10566800828983E0FCA3E0FDEC4D603A888289835F
:10567800E0FAA3E0FB8A828B83E0FCA3E0FD88824A
:105688008983ECF0A3EDF08A828B83E4F0A3F088A1
:10569800828983E0FCA3E0FDEC4D700A888289834F
:1056A800A3A3E4F0A3F0E508A2E092AF12117B9067
:1056B80004E2E004F09004E3E004F0EE2463F582F1
:1056C800EF3400F583E0F8A3E0F9E84960030256F7
:1056D800538E828F83A3A3A3E0600F8E828F83A350
:1056E800A3A3E4F09003CFE014F09003CEE014F00D
:1056F80070069003D074FFF08E828F83A3A3E4F02A
:105708009004E1E0700D9003CFE06401700579002A
:10571800120C5FEEFAEFFB120B8D02515874F71260
:105728001632EAFEEBFF8E828F83A3A3A3A3E0FACF
:105738007B00120869EEFAEFFB120ADF120B750202
:105748004E52C082C08378B5790388828983A3E4E6
:10575800F088828983A3A882A983E864BD7003E9DD
:10576800640370E69003B6740102452374F61216BA
:1057780032EAFEEBFFEC2403F8ED3400F9880889DF
:1057880009EC2407F8ED3400F9E8FCE9FD8C828D7A
:1057980083E0F8A3E0F9850882850983E0FAA3E0AD
:1057A800FB121537EE240DF582EF3400F583E8F08F
:1057B800A3E9F08C828D83E0F8A3E0F9850882855F
:1057C8000983E0FAA3E0FB1215378B09EA45096063
:1057D80013EE240DF582EF3400F583E02401F0A3E5
:1057E800E03400F002515874F6121632EAFEEBFF6C
:1057F800EE242EF582EF3400F583E0FCA3E0FD787B
:105808000079FAECFAEDFB121537EE246FF582EF0A
:105818003400F583E8F0A3E9F0780079FAECFAEDC2
:10582800FB1215378B09EA45096013EE246FF582E0
:10583800EF3400F583E02401F0A3E03400F00251D6
:105848005874EC121632EAFEEBFF741412160E7836
:105858000812147A120C1D8A0C8B0D8C0E8D0F7584
:105868001002751100751200751300780C7910126A
:1058780013E07510FF7511FF7512FF780C7910127F
:105888001441780C1218418E828F83E0F8A3E0F55A
:10589800838882A3A312149812257774041215D84A
:1058A800E960030259AD8E828F83E02402F8A3E0F9
:1058B8003400F9E8FAE9FB8A828B83780812140627
:1058C8008A828B837508FF7509FF750AFF750B00BF
:1058D8007808121467EE240BF582EF3400F583C0C4
:1058E80082C0838E828F83A3A3A3A3A3E02401F89D
:1058F800A3E03400F9D083D082E0687003A3E069A4
:10590800700579010259AF8E828F83A3A3A3A3A345
:10591800A3A3E02401F0A3E03400F0EE2473F582A1
:10592800EF3400F583E064017036EE2474F582EFFD
:105938003400F583E0F8A3E0F98E828F83A3A3A354
:10594800A3A3A3A3E0687003A3E0697013EE247413
:10595800F582EF3400F583E02401F0A3E03400F091
:10596800EE247FF582EF3400F583E064017036EEB3
:105978002480F582EF3400F583E0F8A3E0F98E8205
:105988008F83A3A3A3A3A3A3A3E0687003A3E069E1
:105998007013EE2480F582EF3400F583E02401F0E3
:1059A800A3E03400F079000246BC74F6121632E91E
:1059B800FEECFFEA2462F582EB3400F583E0640133
:1059C8006003025A5B9061D0E0F508EA2482F58210
:1059D800EB3400F583E0600478048002780074807A
:1059E800C39508FC95E0FDEF28F8E43400F9E824B5
:1059F80002F8E93400F9EC98ED99A2D265D0334069
:105A08004E740A12160EE0F508A3E0F509EA24829E
:105A1800F582EB3400F583E060157808121845EF3D
:105A2800FCEEF9120B5D74021215D874042FFF7482
:105A3800012FF5D98ED9EF600F850882850983F883
:105A4800E0F5D9A318E870F875E195790080067932
:105A580007800279FF02515874F7121632A2AFE498
:105A680033FEC2AF8A828B83E0F8A3E0F9E8498A63
:105A7800828B83600AA3A3E0F8A3E0F5838882EC15
:105A8800F0A3EDF08A828B83A3A3ECF0A3EDF08C56
:105A9800828D83E4F0A3024E4A74F7121632E9604D
:105AA80021F88C828D83E08A828B83F08C828D83AF
:105AB800A3AC82AD838A828B83A3AA82AB8318E8C6
:105AC80070E0ECFAEDFB024E5274F4121632907844
:105AD80003E064427055900544E014F0704DC2AF85
:105AE800125AEB00782AD0E0F618D0E0F6E59F5479
:105AF8000770057509FF800375097FC4C0E0782920
:105B0800E6F50808E65509F509740B78081215A09A
:105B1800D0E02508F8906270E0A2E740F8E8C333C7
:105B2800906272F0906270E0D2E0F09003D0E0F4FE
