:020000040000FA
:06000000020107022CC3FF
:03002B000231FCA3
:03004B000231453A
:03005300022D3645
:03006B000230D18F
:10008300022B2FE5C754F84401F5C779012200007C
:100093000080FB120086B900030200F1E4792178A5
:1000A30008B800028004F709D8FCE479297802B87B
:1000B30000028004F709D8FCE490028178457908AE
:1000C3008002F0A3D8FCD9FA7AC57B09900137786E
:1000D300A579068015E493A3AD82AE838A828B83D0
:1000E300F0A3AA82AB838D828E83D8E9D9E7758288
:1000F300E97583D0740312011975829175830074B5
:100103000012011975D00075813F751881751902A8
:10011300759F00020096C09FF59FE473D09F22D085
:1001230083D082C09FE493C0E0740193C0E0740263
:1001330093F59F22FF0000B4000028002800283018
:1001430075A000A000A000A00000080008E001F0D6
:10015300001000100010001000100010005000509C
:1001630000500010001000D0070000000000000F36
:100173000001000500307507001000010081FF0039
:10018300000000FFD908F708DF08FF020202080297
:100193005000A0000000E803020482010000E18196
:1001A3000208820100001C0A020E82010000B30251
:1001B3000208820100001D0A021082010000C90228
:1001C3000208820100001E0A021282010000CB0213
:1001D3000208820100001F0A021482080000CC02F8
:1001E300020882010000200A021682010000210A8F
:1001F300FF0100FF20020482010000E78102088260
:10020300010000850A0218820000000000020C822F
:1002130003000019039D0E9D0E9D0E9D0E9D0E9DC8
:100223000E9D0E9D0E9D0E9D0E9D0E9D0E9D0E1FF1
:100233001137111911FFFF0F095765617468657252
:1002430053746174696F6E051250002003020A0033
:10025300020106576561746865722053746174699D
:100263006F6E00000000000001E803D007E803E818
:1002730003900110270040000000000A566F6C74C1
:10028300616765206D56010001000000000368509E
:1002930061000100000000014300010000000003B1
:1002A300255248000100000000036C75780101002D
:1002B30000000008555620496E646578000100006F
:1002C30000000664422D53504C0001000000000A58
:1002D3007063732F302E3031636601111300002FCA
:1002E3001335130040000000000A566F6C746167F9
:1002F30065206D561241494E20566F6C74616765D7
:10030300286D5629000A0141494E20436F6E662E1F
:10031300000A0A41494E20506572696F6400020465
:1003230082010000D881020882010000850B023897
:1003330082010000740B020C820300007B07020A97
:1003430082010000860B020882010000960B023630
:1003530082030000970B020A82010000980B020837
:1003630082010000A20B023482030000A30B020AE5
:1003730082010000A40B0202020202020202020135
:100383000D0000001001020482010000E481020854
:1003930082010000070C022E82010000810702087F
:1003A30082010000080C022C82010000C2800208B6
:1003B30082010000090C022A82010000DF8002088A
:1003C300820100000A0C0228820100001181020848
:1003D300820100000B0C0226820100000A81020840
:1003E300820100000C0C0224820100001881020823
:1003F300820100000D0C0222820100001F8102080D
:10040300820100000E0C022082010000D18002084C
:10041300820100000F0C021E82010000100C124426
:10042300494E205374617475730002048201000005
:10043300DB81020882010000AF0C0232820100005E
:100443008907020C820300008C07020A8201000064
:10045300B00C000100000000036850611242617299
:100463006F6D2E20446174610000010000000001E3
:10047300431254656D702E204461746100000100C5
:10048300000000032552481248756D692E2044610F
:1004930074610001010000000008555620496E6494
:1004A30065781255564920446174610000010000CB
:1004B3000000036C757812416D6269656E74204C9F
:1004C30069676874204461746100000000000000E3
:1004D3000664422D53504C124D69632E20446174BF
:1004E3006100000100000000056D672F6D330000FF
:1004F30000000012504D2044617461000A015765E9
:10050300617468657253746174696F6E20436F6EB2
:10051300662E000A0A5765617468657253746174C4
:10052300696F6E20506572696F6400020482010076
:1005330000EA81020882010000ED0C02FE81010045
:1005430000E30C020C820300009407020A820100FC
:1005530000EE0C020882010000020D02FA81010084
:1005630000FA0C020C820300009A07020A820100BF
:1005730000030D020882010000180D02F88101003A
:10058300000E0D020C82030000A007020A82010084
:1005930000190D020882010000330D021C820100C4
:1005A30000240D020C82030000A607020A82010048
:1005B30000340D020882010000470D02FA80010099
:1005C300003D0D020C82030000AC07020A82010009
:1005D30000480D020882010000680D02F08101004D
:1005E300005B0D020C82030000B207020A820100C5
:1005F30000690D020882010000840D02F2810100EE
:1006030000730D020C82030000B807020A82010086
:1006130000850D0208820100008D0D02F4810300A4
:10062300008E0D020A820100008F0D020882010074
:1006330000A40D02F681030000A50D020A82010049
:1006430000A60D01E803053F100AC07F17803E0A8C
:1006530090607B6B0100A1B2BFB0B1FF00013075A8
:10066300030201060000000000000000000000007B
:100673000000000000000000000000000000000077
:10068300FFFF0600800CE8030100B0423BAAB83F1D
:100693008C906339AA0CA33A00941E3C8042633DBC
:1006A300CFFE753E1572313F8096184BF304353FEC
:1006B300000080BF0000803F1872313F2292D43E79
:1006C300DD9B2A3F04000040D85BDE3EFFFF7F7FB7
:1006D300FFFF7FFF0100803412012272BE0312016B
:1006E3002289BE03120122BABE03120122F5BE0300
:1006F3001201221FBF0312012249BF03120122600C
:10070300BF0312012277BF031201228EBF0312011E
:1007130022B7BF03120122CABF03120122E0BF03A3
:10072300120122F3BF031201221AC003120122E8AD
:10073300CE02120122ECCF0212012224D0021201B6
:100743002247D00212012252D00212012275D00296
:1007530012012284D10212012259D202120122D49F
:10076300D2021201225CD30212012297D302120198
:1007730022CED3021201225CD40212012235D50209
:1007830012012295D502120122A0D5021201221FC5
:10079300D60212012222D60212012225D60212010A
:1007A30022B4D602120122B7D602120122E7D602E0
:1007B30012012211D702120122FFD702120122B124
:1007C300D8021201220080031201222880031201A1
:1007D300225680031201228D8003120122EB800333
:1007E300120122368103120122818103120122C1E7
:1007F30081031201220782031201223582031201AF
:1008030022F28203120122FC8203120122098303D2
:100813001201223C830312012208840312012214D1
:1008230084031201222C8403120122368403120151
:10083300226ECB031201227CCB0312012294CB0341
:10084300120122ACCB0312012228D901120122D4B6
:10085300D9011201224FDA0112012270DB011201C8
:1008630022ACDB0112012255DC011201223CDD0125
:10087300120122A0DE01120122F7DE011201227809
:10088300DF0112012268E001120122B5E001120129
:10089300223BE1011201226DE10112012281E301F8
:1008A300120122C3E301120122E1E30112012264D6
:1008B300E40112012238E50112012200E6011201CE
:1008C30022DBEF02120122AEF00212012257F102E3
:1008D300120122AAF1021201225AF202120122E6A5
:1008E300F202120122D2F30212012201F4021201D6
:1008F3002214F5021201225CF50212012231F602E2
:100903001201226DF60212012289F6021201225708
:10091300CE0312012225FC021201223BFC0212012A
:100923002261FC021201227DFD0212012287FD02D7
:10093300120122BCFE02120122B4FF02120122FEA6
:10094300F6021201222EF80212012261F8021201AC
:1009530022ABF80212012272FA021201227AAA01D0
:10096300120122E4AA0112012243AC011201225313
:10097300AC0112012280AC01120122D7AC01120199
:100983002280AD0112012287AE0112012251AF0173
:10099300120122B1B001120122F4B0011201229915
:1009A300B101120122E6B1011201220CB2011201BE
:1009B300221AB4011201221FB40112012224B6012A
:1009C30012012271B601120122E4B60112012217AB
:1009D300B701120122B9B70112012262B801120153
:1009E300229AB8011201229DB801120122E5B80131
:1009F30012012225B9011201227CB90112012268D8
:100A0300B10312012280B103120122C8B103120102
:100A130022DEB10312012225B20312012239B303EC
:100A2300120122C6B30312012211B40312012228B8
:100A330032001201223432001201226F32001201FD
:100A430022B43200120122743300120122FA33005D
:100A53001201225F34001201228B3400120122C4DE
:100A63003400120122023700120122E6380012017B
:100A730022CC3A001201220F3C001201225D3E00FB
:100A83001201226F3F00120122BA4000120122CA52
:100A93004100120122E74100120122224200120109
:100AA30022444200120122A7420012012268470099
:100AB300120122FD47001201224E48001201227545
:100AC3004800120122C74800120122E54800120122
:100AD300223F4900120122284A001201229E4B00A4
:100AE300120122224C00120122BD8403120122C7EB
:100AF30084031201220A85031201222585031201B0
:100B030022B58503120122DD85031201221A860311
:100B13001201225186031201227A8603120122EF67
:100B2300860312012204870312012219870312018B
:100B3300224A87031201225E87031201228387035D
:100B4300120122BD8703120122E987031201226CDD
:100B53008803120122B58803120122DF88031201E0
:100B6300220A8903120122E37E00120122E7B60260
:100B730012012215B70212012263B80212012243A5
:100B8300B90212012262B902120122DFB902120173
:100B93002222BA0212012278BB0212012239BC02BC
:100BA300120122C0BE0212012261BF0212012257AA
:100BB300C00212012254C102120122AEC20212016A
:100BC3002239C302120122FBC40312012264C503AA
:100BD300120122B8C503120122DFC503120122103C
:100BE300C6031201223289031201229F89031201D3
:100BF30022E68903120122FE8A03120122FA8B03E1
:100C0300120122DD8C0312012285F601120122C793
:100C1300F60112012299F70112012272F801120161
:100C2300226CF9011201224EFA01120122B7FA01D4
:100C33001201226DFB01120122E1FB011201224D7F
:100C4300FC0112012276FC01120122F0FC011201C7
:100C53002289FD01120122EEFD0112012203FE0190
:100C630012012249FE0112012262FE01120122C772
:100C7300FE01120122CAFE01120122B1A8031201D0
:100C830022D9A80312012217A903120122D5A9030D
:100C93001201223CAA0312012258AA031201228044
:100CA300AA03120122B0AA03120122BFAA0312014E
:100CB300223CAB0312012262AB03120122F0C901F1
:100CC300120122CECB0112012200CE011201223CDD
:100CD300CE0112012269CE0112012253CF0112016A
:100CE300229ECF01120122E9CF01120122FBCF0183
:100CF3001201223BD00112012270D001120122BE47
:100D0300D001120122EDD00112012210D1011201F2
:100D1300225DD101120122E2D101120122FCD30191
:100D23001201223BD6011201227CD6011201221E9E
:100D3300D8011201225FD801120122D2D801120177
:100D430022D2A902120122D0AA0212012269B102FF
:100D53001201228AB30212012255B502120122BDE9
:100D6300B602120122894C00120122384D001201F1
:100D7300227E4D00120122BE4E0012012254500069
:100D8300120122CE5000120122E950001201226406
:100D93005100120122BE52001201221E5400120100
:100DA300222455001201228556001201229E56006C
:100DB300120122FC5600120122EA57001201221DE1
:100DC30058001201228D5800120122075900120106
:100DD300225159001201221B5A00120122F05A001B
:100DE300120122CF5B001201225A5C00120122C8B9
:100DF3005C001201223C5D00120122675D001201BA
:100E030022265E001201228B5F00120122A85F00DE
:100E1300120122C75F00120122B86000120122DD15
:100E23006000120122076100120122826100120197
:100E330022DC6100120122456300120122F36300E8
:100E43001201223464001201222F8E021201227D2C
:100E53008E02120122898E02120122678F02120171
:100E630022988F02120122C98F0212012249900295
:100E7300120122819002120122D390021201221048
:100E830091021201222D93021201225395021201A3
:100E9300223E97021201222899021201221D3200DA
:100EA3001201226796011201229796011201227004
:100EB3009D01120122F59E01120122F2A4011201E9
:100EC30022DAA50112012217A6011201223AA60174
:100ED3001201226BA60112012274A6011201227EC5
:100EE300A6011201226CA70112012262A8011201BC
:100EF30022646400120122636800120122696800FF
:100F0300120122A46F00120122BD74001201226A91
:100F1300A50312012264A603120122D8A60312011B
:100F23002216A7031201228AA70312012203A80390
:100F33001201220CA80312012218A8031201222D68
:100F4300A8031201226BA80312012281A803120134
:100F5300229F8D03120122AC8D03120122C68D0341
:100F6300120122058E03120122438E03120122A8CD
:100F73008E03120122BD8E03120122C88E031201B9
:100F830022D58E03120122EC8E03120122FA8E0364
:100F9300120122058F03120122118F031201222055
:100FA3008F031201222B8F031201224E8F03120192
:100FB30022F58F031201220590031201221F9003D1
:100FC3001201223C90031201225890031201227D48
:100FD30090031201228890031201229D90031201B3
:100FE30022B19003120122129103120122189103DC
:100FF3001201221E91031201222491031201223CA9
:1010030091031201226F9103120122058002120142
:101013002289800212012238810212012297820260
:10102300120122B88402120122A48502120122D9DC
:101033008502120122FB8502120122AA86021201F5
:1010430022A28802120122CB88021201225D8902A8
:101053001201228F89021201229C8902120122F3BA
:101063008902120122198A02120122868C021201BC
:1010730022898D02120122E18D0212012219E80157
:1010830012012223E9011201220AEA0112012214A8
:10109300EA0112012236EA0112012242EA01120197
:1010A30022DBEB011201220AEC0112012226ED01DF
:1010B3001201227FED01120122E5EE01120122C489
:1010C300EF0112012220F0011201228DF001120121
:1010D30022C8F00112012207F101120122C0F3011B
:1010E300120122DAF30112012266F40112012274C1
:1010F300F401120122CDF401120122DBF4011201E9
:10110300224EF501120122B2F501120122FCF50172
:10111300120122BAC302120122DCC302120122020B
:10112300C60212012217C9021201222FCA0212019A
:1011330022E2CA02120122C4CB021201222CC003F2
:1011430012012251C003120122C3C003120122184B
:10115300E10212012221E1021201222AE10212011B
:101163002201E202120122B2E302120122E8E302A7
:1011730012012222E40212012258E40212012292F5
:10118300E402120122C6E402120122F2E402120175
:10119300223BE50212012275E502120122BEE5029D
:1011A30012012216E6021201224BE602120122A6C6
:1011B300E602120122E0E60212012231E7021201E5
:1011C3002267E702120122A1E702120122CFE702FE
:1011D300120122F2E70212012206CD03120122328A
:1011E300CD031201228DCD0312012297CD031201EB
:1011F30022A7CD031201227379001201227D790007
:10120300120122BB7900120122047A001201223E4C
:101213007A00120122947A00120122B57A00120197
:1012230022BE7A00120122097B00120122327B00C6
:101233001201223C7B00120122A87B001201223EF4
:101243007C00120122887C00120122B87C0012016A
:1012530022417D00120122817D00120122B97D000D
:10126300120122CB7D00120122EA7D00120122F33A
:101273007D00120122B97E00120122B7C8031201B8
:1012830022B5BA03120122EBBA0312012221BB03D6
:101293001201226ABC03120122BFCF03120122D51D
:1012A300CF03120122DFCF03120122EC91031201BB
:1012B30022019203120122B49203120122F4920337
:1012C3001201220D93031201224193031201228E74
:1012D3009303120122C29303120122049403120105
:1012E300220096031201228AD00312012295CA0317
:1012F300120122BECA03120122E7CA0312012229E4
:10130300CB0312012269BA011201229CBC01120112
:101313002220C10112012217C2011201223AC30184
:1013230012012216C501120122BAC5011201228A35
:10133300C601120122F6C60112012242C80112019E
:10134300229DC8011201220D960312012252960317
:101353001201227B960312012212970312012260CB
:101363009703120122559803120122F199031201E6
:10137300228AAE03120122AFAE03120122D9AE03B9
:1013830012012278B603120122BDB6031201221DF7
:10139300B703120122D1B7031201226DB803120160
:1013A3002292E80212012219E90212012242E90201
:1013B300120122B0EB0212012277EC02120122B9D0
:1013C300ED0212012260EF0212012285D103120104
:1013D300223D8201120122A18401120122528601BF
:1013E300120122548701120122DD870112012261B9
:1013F3008801120122868801120122BF8B0112018A
:1014030022338C01120122248D011201225E8D01EF
:101413001201229E8D01120122518F01120122A479
:101423008F01120122ED8F011201225B9001120143
:10143300228D9001120122A59001120122BA91017D
:10144300120122CA9101120122E59201120122071F
:1014530093011201223D9301120122E19401120131
:101463002220950112012242960112012245CC034A
:1014730012012256CC03120122FBCC031201223C9F
:10148300D1031201227BD103120122AEC90312013F
:1014930022B4C903120122FCC90312012225CA0383
:1014A3001201223DCA03120122F8D1031201225371
:1014B300D20312012251CF0312012261CF03120181
:1014C3002273CF03120122BCCF03120122EEFE01CD
:1014D30012012273FF01120122D9FF011201226EB0
:1014E300C303120122A9C30312012201C40312017F
:1014F3002235C4031201225DC40312012274C40302
:10150300120122C5C40312012256C6031201228A04
:10151300C603120122B3C6031201222AC703120112
:1015230022FC7F00120122F1A10312012205A20372
:101533001201227EA20312012253A30312012225C8
:10154300A503120122A4BC0312012217BD03120139
:101553002228BD03120122A5BD03120122B1CD032E
:10156300120122FCCD031201222A9A031201229FA7
:101573009A03120122EA9A03120122FD9A0312012D
:10158300224A9C03120122919D03120122D1C1031D
:1015930012012221C203120122AAC2031201221044
:1015A300C3031201223BB40312012265B4031201E7
:1015B300222BB50312012206B60312012222D902FD
:1015C300120122DFD9021201221ADA021201224287
:1015D300DA02120122A4DA02120122F0DA02120163
:1015E3002250DB02120122E3DB02120122E2DC02BF
:1015F30012012271DE02120122F4DE021201225BC9
:10160300DF0212012272DF021201227CE0021201C8
:1016130022BAE002120122039C02120122639F02FA
:10162300120122EBA00212012242A1021201226145
:10163300A102120122DFA1021201226FA3021201F1
:101643002253A4021201225FA8021201222FA9022F
:10165300120122BEFF0212012235D203120122AA75
:10166300AB0312012299C70312012229D0031201ED
:1016730022A6B803120122DBCE03120122CCD1032E
:10168300120122119E0312012217D203E066701089
:1016930008A3E066700A08A3E066700408A3E06686
:1016A30022C3E7960809E7960809E7960809E7962B
:1016B30022C3E09608A3E09608A3E09608A3E09669
:1016C30022C008C3E096F50808A3E096420808A3E1
:1016D300E096420808A3E09645087001D3D008229B
:1016E300080808E630E711121F9D1216FB080808C8
:1016F300C64480C618181822181818E9799EC60817
:10170300CAC608CBC608CCC6C370207996CACBCC50
:101713007019798ECBCC70137986CC700EF9802A30
:10172300CA33CACB33CBCC33CC331930E7F2CCCB6F
:10173300CA3350147004EA30E00DE4CA3ACACB3B12
:10174300CBCC3CCC500209C3E913C6CC182313C637
:10175300CB18C6CA18C6F92212179B20F01430E71B
:101763002B74FFFCFBFA747F8022E4FCFBFA748089
:10177300801AB48008BC00F2BB00EF800F50EBF975
:10178300E4C39AFAE49BFBE49CFCE499C6CC18C638
:10179300CB18C6CA18C6F922E4C9C608CAC608CBFC
:1017A300C6D3330308CCC63392F0C3947F402E9440
:1017B300184019C9B90704CACBCC225025C309CA9A
:1017C30033CACB33CBCC33CC33D9F422F4600DC939
:1017D300CCC313CB13CBCA13CAD9F6CC22E4FCFB7C
:1017E300FA2214FCFBFA22E626184618461846226B
:1017F300E72719471947194722181818E608460812
:101803007009E626087005E633F42208221919192F
:10181300E70947097009E727097005E733F4220947
:1018230022E6084608C3134608336002E633F4226F
:10183300E7094709C3134709336002E733F4221268
:101843001824602512183360201217EA7003021758
:10185300F3080808E76670101819E766700A181984
:10186300E76670041819E76622F422121824601C34
:1018730012183360171217EA70071217F37001D3A7
:1018830022C0D01217F37006D0D0B322C32233D0B4
:10189300D0501430E0F6C3E7960809E7960809E745
:1018A300960809E796B32220E0D5E6970809E6975C
:1018B3000809E6970809E697B322121824601B1259
:1018C300183360161217EA70071217F3600CB3226D
:1018D300C0D01217F37005D0D022C32233D0D0501A
:1018E3001330E0EBC3E7960809E7960809E7960883
:1018F30009E7962220E0E4E6970809E6970809E657
:10190300970809E6972200121824604F12183360D3
:1019130012E7548066F61217FC70111217F3703B2E
:10192300090909F4F618F618F618F62212181070B9
:10193300151217EA08080860EAE6447FF61876806D
:1019430018E4F618F6221217EA60161217F370124B
:10195300E4F608F608F608E65480F60909091818AB
:101963001822EAC0E0EBC0E0ECC0E0EDC0E0E6879F
:10197300F0A4FBACF008E687F0A42CFCE435F0FA05
:101983001809E687F0A42C4B60027401CA35F0FCF9
:10199300E433FB09E687F0D2F7A42CCB35F0FC192E
:1019A30008E687F0A42BCC35F0FBE433FD0819E6F9
:1019B30087F0D2E7A42C4ACB35F0CD3400FC09E6FE
:1019C30087F0D2E7A42DCC35F0FDE433FA0918E60D
:1019D30087F0D2F7A42CCD35F0CA3400FC08E68793
:1019E300F0D2E7D2F7A42ACC35F07A7E20E70B0AAF
:1019F300CB33CBCD33CDCC33CC33CB33501470047A
:101A0300ED30E00ED2F1E4CD3DCDCC3CCC3B5005E6
:101A1300DA05C2F1EB547FC63308E63392F0FBE7F5
:101A23003309E733C39A502D2B70190C0D4C4D70AD
:101A3300151806E608C333700D20F10AA2F013F659
:101A4300E418800B4024E4F630F002768018F61890
:101A5300F618F68024D33B14501074FFA2F013F64B
:101A6300187680E418F618F6800FA2F013F618E63D
:101A73003303F618ECF618EDF6D0E0FDD0E0FCD019
:101A8300E0FBD0E0FA221218336046121824603DBE
:101A9300E9687008F618F618F618F622748067F7E6
:101AA300121ABD090909748067F722121824601DF0
:101AB3001218337005191919801A1217FC701F12A6
:101AC3001810C37003E6673319191940071818185B
:101AD3002208080874FFF618F618F618F6221218EA
:101AE3001060171217F3702192F01217EA70195051
:101AF3001720F014080808090909E7F61819E7F68A
:101B03001819E7F61819E7F6221217EA60E6E869EA
:101B1300701F0808E62480F608E436F618547FB4EC
:101B23007F0CE654806007F6E418F618F6221818BE
:101B330022E9C6CC08C6CD08C6CE08C6CFC0E0E8A9
:101B4300C0E0EAC0E0EBC0E009E9F809E7FA09E719
:101B5300FBE6F918E6F8C3EC98ED99EE9AEBC2E7C9
:101B6300F5F0EFC2E795F0500E600CEBCFFBEACE39
:101B7300FAE9CDF9E8CCF8EAA2E7D2E7FAEB33FBCE
:101B830013F5F0EEA2E7D2E7FEEF33FFC5F013A2A1
:101B9300E730E601B313C5F0C3C0E0C0F07F00C374
:101BA3009BFB605E9418600F401D14601AD0E02305
:101BB300F9D0E0F8021C8F8AF0E9486003D2F0E420
:101BC300AFF0FAF9F8803BEB30E40D89F0EA6003FB
:101BD300D2F0E4AFF0F9CAF8EB30E30D88F0EF6030
:101BE30002D2F0AFF0E4CAC9F8EB54076014FBC3A8
:101BF300EA13FAE913F9E813F8EF135002D2E0FFFE
:101C0300DBEDD0E0C0E030E739C3E49FFFF5F0EC53
:101C130098FC42F0ED99FD42F0EE9AFE42F0D0E0DE
:101C2300F9D0E0F8E5F0607AE923F9EE20E742D84D
:101C3300028067C3EF33FFEC33FCED33FDEE33FE7D
:101C430080EAEC28FCED39FDEE3AFED0E023F9D032
:101C5300E0F84002801BC3EE13FEED13FDEC13FC12
:101C6300EF135002D2E0FF08B800067F7F74FF80B5
:101C73002EEF3350178CF020F00260100CBC000CD8
:101C83000DBD00080EBE000408E860DFE933E81369
:101C9300FFEE2313FE4F4D4C8008E95480FFE4FE12
:101CA300FDFCEE33EF33F47004FCFD7E80D0E0FBEB
:101CB300D0E0FAD0E0F8D0E0CFC618CEC618CDC633
:101CC30018CCC6F9221218247004181818221218F6
:101CD30033700D74FFF61819F61819F61819F62251
:101CE300E7548066F61217EA700F1217F370F014B8
:101CF300F608F608F608F680D11217F3700CF6080A
:101D0300F608768008E6447F80EC121813700C12F4
:101D130017FF60BFE65480F6E480BB1217FF70051F
:101D230019191980A5E869700C763F18768018F6A2
:101D330018F6E8F922E6CDC0E018ECC0E0E633CDB2
:101D430033CDD313F6E719FCE7191933CC33C39416
:101D53007F400ECD9D502408E65480F6E418F680AB
:101D63000FF4043D14501408E6447FF6187680E41B
:101D730018F618F6D0E0FCD0E0FD22CCD313CCFD4E
:101D830018E4C6CBC0E018E4C6CAC0E00808ED08F2
:101D9300C633E613F618E433C675F003C3CA97CA0D
:101DA30009CB97CB199C40047D08802EBD0003020C
:101DB3001E7116B6FF050606081618C3CA33CACB2A
:101DC30033CB33CA27CA09CB37CB193CC37D088031
:101DD3003E187D0820E75CC633C6CA33CACB33CB73
:101DE30033DDF1D5F0EB30E77BCA97CA09CB974ACD
:101DF300CB199C406F4B7025E620E0218066187D4F
:101E030008C3CA97CA09CB97CB199CD3C633C6CA92
:101E130033CACB33CB3350C9DDE7D5F0E1D3E4C6C6
:101E230036C608C636C608C636C608C636C6181825
:101E3300188031C3CA97CA09CB97CB199CB3409773
:101E4300C633C6CA33CACB33CB33DD34D5F02EC643
:101E5300A2E0C640C8CA27CA09CB37194A70BECB0D
:101E63003CB480B90808E63308E633601F18181835
:101E7300D0E0FAD0E0FBD0E0FCD0E0FD22187D08F2
:101E8300CA27CA09CB37CB193CD3808013F618E491
:101E9300B67F11F618B6FF0EF618C60470D20808FE
:101EA300768080CAF618F618F680C5080808EAC0D6
:101EB300E0EBC0E086F0E7A4FA180986F0E7A42A6D
:101EC300FA180986F0E7A42AFA180986F0E7A42A83
:101ED300FA1986F0E7A4FBE5F02AFA190886F0E779
:101EE300A42BFBE5F03AFA190886F0E7A42BFBE5EF
:101EF300F03AFA18180986F0E7A4C5F02BFBE43A88
:101F0300FA1908E7C5F0C6A426F6E5F03BFBE43A68
:101F1300FA1886F0E7A4F6E5F00826F6E43B08F69F
:101F2300E43A08F6D0E0FBD0E0FA22E4CFC0E0E4E4
:101F3300CEC0E0E4CDC0E0E4CCC0E075F020E626FE
:101F4300F608E633F608E633F608E633F61818180B
:101F5300EC33FCED33FDEE33FEEF33FFC3EC9709B7
:101F6300ED9709EE9709EF97191919400FFFEC97B1
:101F7300FC09ED97FD09EE97FE191906D5F0BFECA4
:101F8300F709EDF709EEF709EFF7191919D0E0FC96
:101F9300D0E0FDD0E0FED0E0FF22181818E4C3968D
:101FA300F608E496F608E496F608E496F622601638
:101FB300080808C6C313C618C613C618C613C6181E
:101FC300C613C6D5E0EA227009080808226016186D
:101FD3001818C6C333C608C633C608C633C608C6F0
:101FE30033C6D5E0EA22E627F60809E637F60809FC
:101FF300E637F60809E637F622E026F608A3E036C8
:10200300F608A3E036F608A3E036F622E026F00849
:10201300A3E036F008A3E036F008A3E036F022C3CD
:10202300E697F60809E697F60809E697F60809E63B
:1020330097F622C3E096F008A3E096F008A3E09693
:10204300F008A3E096F022E657F60809E657F608EB
:1020530009E657F60809E657F622E056F608A3E024
:1020630056F608A3E056F608A3E056F622E056F02B
:1020730008A3E056F008A3E056F008A3E056F022C8
:10208300E0F608A3E0F608A3E0F608A3E0F622E6EC
:10209300F008A3E6F008A3E6F008A3E6F022E0FACE
:1020A300A3E0FBA3E0FCA3E0FD22EAF0A3EBF0A393
:1020B300ECF0A3EDF022E0FCA3E0FDA3E0FEA3E03F
:1020C300FF22ECF0A3EDF0A3EEF0A3EFF022E0F893
:1020D300A3E0F9A3E0FAA3E0FB22E8F0A3E9F0A36D
:1020E300EAF0A3EBF022CAC0E0E6F0A308DAFAD0E4
:1020F300E0FA22CAC0E0E0A3C582CCC582C583CD85
:10210300C583F0A3C582CCC582C583CDC583DAE67A
:10211300D0E0CA22C3E498F8E499F9122158802642
:10212300C3E49AFAE49BFBE920E7E9122158E49817
:10213300F8E499F922C3E498F8E499F9122158E4F0
:1021430098F8E499F9C3E49AFAE49BFB22EB20E7BD
:10215300CFE920E7E0B90010BB0008E88AF084F873
:10216300AAF022E4FBC8FA22EB70227B10C833C822
:10217300C933C9335007C39AC3DBF280069A5001AF
:102183002ADBEAC833F4C8C933F4C9FA2275F00864
:10219300E4C833C8C933C933C99AC99B5004C92A8F
:1021A300C93BD5F0ECFBC833F4C8E4C9FA22600D8F
:1021B30008C6A2E713C618C613C6D5E0F322600CFF
:1021C30008C6C313C618C613C6D5E0F4227004228A
:1021D300600D18C6C333C608C633C6D5E0F418224B
:1021E300251810AF08F518400C15198008F518408C
:1021F300021519D2AF2200C0D0251810AF08F51868
:10220300500C05198008F51850020519D2AFD0D02B
:10221300222518F58210AF08F518400C151980080F
:10222300F51840021519D2AF851983222518F582B6
:10223300E43519F583222518F8E43519F922251810
:10224300FAE43519FB222518FCE43519FD22E47361
:102253002518C582C0E0E51934FFC583C0E0E51841
:10226300C3958224F810AF088583198582188008E6
:10227300858319858218D2AFCEF0A3E520F0A37829
:1022830008E608F0A3DEFAEFF0A3E58124FAF8E606
:1022930008F0A3E608F0A3E608F0A30808E608F0B0
:1022A300A3E608F0A315811581D0E0FED0E0F81570
:1022B3008115811581E8C0E0EEC0E0222518C582B2
:1022C300C0E0E51934FFC583C0E0E518C395822457
:1022D300F910AF08858319858218800885831985CD
:1022E3008218D2AFCEF0A3E520F0A37808E608F079
:1022F300A3DEFAEFF0A3E58124FBF8E608F0A3E6FA
:1023030008F0A30808E608F0A3E608F0A315811572
:1023130081D0E0FED0E0F815811581E8C0E0EEC081
:10232300E022851983851882E0A3FEE0A3F52078D7
:1023330008E0A3F608DFFAE0A3FFE0A3C0E0E0A310
:10234300C0E0E0A3C0E0E0A3C0E0E0A3C0E010AFC2
:10235300088582188583198008858218858319D298
:10236300AFD083D08202011F851983851882E0A331
:10237300FEE0A3F5207808E0A3F608DFFAE0A3FF68
:10238300E0A3C0E0E0A3C0E0E0A3C0E0E0A3C0E0BE
:1023930010AF088582188583198008858218858384
:1023A30019D2AFD083D08222C0D02518C582C0E015
:1023B300E51934FFC583C0E0E518C3958224F31003
:1023C300AF0885831985821880088583198582184B
:1023D300D2AFC8F0A3E9F0A3EAF0A3EBF0A3790826
:1023E300E709F0A3D8FAECF0A3EDF0A3EEF0A3EF26
:1023F300F0A3D0E0F0A3D0E0F0A3D0E0F0A3E52079
:10240300F0A3E5F0F0A322851983851882E0C0E0EC
:10241300A3E0F9A3E0FAA3E0FBA37808E0F608A39E
:10242300DFFAE0FCA3E0FDA3E0FEA3E0FFA3E0C02E
:10243300E0A3E0C0E0A3E0F5D0A3E0F520A3E0A390
:10244300F5F010AF088583198582188008858319F4
:10245300858218D2AFD082D083D0E0F8D0E0327436
:10246300048006740280027401C0E0F40412221492
:10247300D0E01220E9227404800474028000CCC0EE
:10248300E0EDC0E0E518C39CCCAD1950011D10AFC1
:10249300068C188D1980068C188D19D2AF1220F670
:1024A300D0E0FDD0E0FC22D083D082E9C0E0E49309
:1024B300A3C386F0C5F095F0F908E493A386F0C5AD
:1024C300F095F0700BE493A3C3994005E9048002EF
:1024D300A3E475F002A42582F582E5F03583F58344
:1024E300D0E0F9E493A3C0E0E493C0E022D083D02A
:1024F30082ECC0E0EDC0E0E493A3FCE493A3FDED24
:102503004C600D12253CEC24FFFCED34FFFD80EF05
:10251300E493A3FCE493A3FDED4C600D12257BEC47
:1025230024FFFCED34FFFD80EFD0E0FDD0E0FCE4C0
:1025330093A3C0E0E493C0E022C0E0C3E493960811
:102543007401939618400FE493667008087401931E
:10255300661870007019A3A3C3E4939608740193DB
:102563009618A3A3400DD0E0D0E0D0E002252CA321
:10257300A3A3A3A3A3D0E022C0E0C0F088F0E49318
:102583006670080874019366187000A8F0A3A3701E
:102593000BD0F0D0E0D0E0D0E002252CA3A3D0F004
:0325A300D0E02263
:1025A80074F51222BFEAFEEBFFEE2434F8EF340094
:1025B800F988088909EE2435F582EF3400F583E0BF
:1025C800F8EE2437F582EF3400F583E0F50AEC8560
:1025D8000AF0A4FCAAF0850AF0EDA42AFDE82CF87C
:1025E800E43DF97A257B00122158EA85088285099D
:1025F80083F0F8740758F97401B900028004C333F2
:10260800D9FCFAE8131313541FF8EE28F8EF340036
:10261800F9E8245DF582E93400F583E05A6008EEB4
:102628002434F582EF802CEE2434F582EF3400F563
:1026380083E0C0E0EE2436F582EF3400F583E0F560
:10264800F0D0E084A8F0EE28F8EF3400F9E8243858
:10265800F582E93400F583E0F97F0402236B74F511
:102668001222BFEAFEEBFFEE2434F582EF3400F5C8
:1026780083E0C0E0EE2435F582EF3400F583D0E046
:10268800F08E828F83A3A3A3A3A3A3A3C082C08336
:102698008E828F83A3A3A3A3A3E0F8A3E0F9D0833A
:1026A800D082E0C398F508A3E099F509EE247FF5F8
:1026B80082EF3400F583E064017069EE2480F582CE
:1026C800EF3400F583E0F8A3E0F98E828F83A3A3AB
:1026D800A3A3A3A3A3E0FCA3E0FD8E828F83A3A3FF
:1026E800A3A3A3E0FAA3E0FBC3EA9CEB9D5010C3AD
:1026F800EC98ED99402EC3EA98EB995027800EC3C9
:10270800EA98EB994007C3EC98ED9940177CDC7D7B
:1027180004EEFAEFFB120DFBEE247FF582EF340096
:10272800F583E4F0EE2434F8EF3400F9E8FCE9FD31
:10273800EE2435F582EF3400F583E0F8EE2437F522
:1027480082EF3400F583E0F50AE508850AF0A4F580
:1027580008AAF0850AF0E509A42AF509E82508F889
:10276800E43509F97A257B00122158EA8C828D8399
:10277800F0F8740758F97401B900028004C333D91A
:10278800FCFAE8131313541FF8EE28F8EF3400F995
:10279800E8245DF582E93400F583E05A6008EE2408
:1027A80034F582EF802CEE2434F582EF3400F58383
:1027B800E0C0E0EE2436F582EF3400F583E0F5F072
:1027C800D0E084A8F0EE28F8EF3400F9E82438F5D2
:1027D80082E93400F583E0F91230BD022661C08237
:1027E800C083851882851983E0F8A3E0F9C3EA9CC1
:1027F800EB9D5010C3EC98ED99401BC3EA98EB99F8
:102808005014800EC3EA98EB994007C3EC98ED99F1
:102818004004790180027900D083D08222EAC39CE7
:10282800FAEB9DFB2274EF1222BF9003A2E064082A
:102838006005E06407702A9061C8E060249003D0C6
:10284800E0F4601DE0F875F003A4C8AAF02AF97452
:10285800D228FE740339FF8E828F83A3A3A3E0706E
:102868000302295D906060E0C0E0EE2468F582EF25
:102878003400F583D0E0F0750C45750D057508003A
:10288800750900E5D914F50AE5D95403F50E601762
:102898007403650E605CE50A6010EE2467F582EF4C
:1028A8003400F583E07003022942900540E064019A
:1028B800602AEE2482F582EF3400F583E060047824
:1028C8000480027800850A08E508C398FA95E0FBB9
:1028D800120CCF8A088B09EA45097005120FED80A2
:1028E80074EE2482F582EF3400F583E070048A0CDC
:1028F8008B0DE50A6012850C82850D83F50BE5D9F1
:10290800F0A3150BE50B70F6EE2482F582EF340088
:10291800F583E0604474FC250AF50A780C122466F5
:10292800AC0AA90EEEFAEFFB120E9774021221F907
:10293800E97026AA08AB09121593793D8E828F8318
:10294800A3A3A3A3E0FA7B00120BA3EEFAEFFB12FA
:102958000E13120EA9790080747403650E605685F3
:102968000A107511007810122466AC0CAD0DAA0877
:10297800AB09120E7374021221F9EE2468F582EF86
:102988003400F583E064807004747F8001E0F50C06
:10299800780C12246AE50EF50C780C12246AA90A40
:1029A800AC08AD099003D0E0FA7B00120B67740203
:1029B8001221F980139003A2E06408600BAC0CADFF
:1029C8000DEEFAEFFB120F03120FF979017F0A02DD
:1029D800236B74F51222BF74FC1221E3EAFEEBFFAD
:1029E8008908A2AFE433F509C2AF806AEE2463F820
:1029F800EF3400F97A007B00A2AFE433F50AC2AFE6
:102A080088828983E0FCA3E0FDEC4D603A888289E6
:102A180083E0FAA3E0FB8A828B83E0FCA3E0FD88D5
:102A2800828983ECF0A3EDF08A828B83E4F0A3F033
:102A380088828983E0FCA3E0FDEC4D700A888289D6
:102A480083A3A3E4F0A3F0E50AA2E092AF121593E2
:102A58009004E3E004F0EE2463F582EF3400F5839C
:102A6800E0F8A3E0F9E849603DEE2463F582EF342D
:102A780000F583E02402FAA3E03400FBEA2402F51F
:102A88000AEB3400F50B780A1224668A828B83E0FD
:102A9800FCA3E0F9EEFAEFFB120E3774021221F9EB
:102AA800E970030229F49004E3E060639004E4E031
:102AB800F89004E3E0C398500C74026508705090D5
:102AC80004E5E0604A8E828F83A3A3A3A3E0851860
:102AD80082851983F0A3E4F09004E3E0F87402120D
:102AE800222FE8F0A3E4F09004E3E0F89004E2E099
:102AF80028F0740212222FAC82AD838518828519C2
:102B080083AA82AB837901120B739004E3E4F0E5A6
:102B180009A2E092AF74041221F9022661000000B4
:102B28008521878522C622C0E0C0D0E8C0E0E9C080
:102B3800E0EAC0E0EBC0E0ECC0E0EDC0E0EEC0E0F1
:102B4800C008C009C00AC00BC082C083C0F0A2AFD1
:102B5800E433FEC2AF759B00906182E0A2E05012A0
:102B6800E591A2E0500C7591FE7401652170031285
:102B7800282DE0A2E55051E591A2E5504B7591DF73
:102B88009003A2E064076005E0640870237401659F
:102B980021703579019003D0E0FA75F003A4CAA832
:102BA800F028FB74D22AFA74033BFB1229DA801846
:102BB800E0640D70139003C4E004F064287002E42C
:102BC800F07A00E0F9120FFF906182E0A2E640037C
:102BD800022C76E591A2E64003022C767591BF900F
:102BE80003A2E064057008120F2D120F398003123A
:102BF8000F33752100120F8DE99003A3F0790012AD
:102C08000F81120D717A017B009003A1E0F9121275
:102C180051907803E064427055900544E014F070D8
:102C28004DC2AF122C2E00782AD0E0F618D0E0F66C
:102C3800E59F540770057509FF800375097FC4C0B7
:102C4800E07829E6F50808E65509F509740B7808CF
:102C58001221C1D0E02508F8906270E0A2E740F8A0
:102C6800E8C333906272F0906270E0D2E0F0906155
:102C780081E0A2E35009E5E9A2E3500375E9F7A36F
:102C8800E0A2E75009E591A2E7500375917FEEA213
:102C9800E092AFD0F0D083D082D00BD00AD009D048
:102CA80008D0E0FED0E0FDD0E0FCD0E0FBD0E0FAB8
:102CB800D0E0F9D0E0F8D0D0D0E032C0E0C0D0C049
:102CC80082C083906183E0A2E05009E5BFA2E05092
:102CD8000375BFFEE0A2E15009E5BFA2E15003750C
:102CE800BFFDE0A2E25009E5BFA2E2500375BFFBB9
:102CF800E0A2E35009E5BFA2E3500375BFF7E0A2E5
:102D0800E45009E5BFA2E4500375BFEFE0A2E55027
:102D180009E5BFA2E5500375BFDFE0A2E65009E56B
:102D2800BFA2E6500375BFBFD083D0828088C0E0C1
:102D3800C0D0E8C0E0E9C0E0EAC0E0EBC0E0ECC029
:102D4800E0EDC0E0C0F0E5A7A2E6500FE5A1A2E6DD
:102D5800500953A7BF75A1BF122D9BE5A7A2E55047
:102D68000CE5A1A2E5500653A7DF75A1DFE5A7A2F0
:102D7800E15009E5A1A2E1500375A1FDE5A7A2E292
:102D8800500CE5A1A2E2500653A7FB75A1FBD0F0B9
:102D9800022CAC74F81222BF7521019003A2E064E2
:102DA800067015120EC78A828B83A3A3A3A3A3A3BD
:102DB800E0FAA3E0FB120F1BA2AFE433FED2AF9000
:102DC80003A8E0640170187A207B009003A1E0F961
:102DD8001212CF7A207B009003A1E0F912125790CB
:102DE8006182E0D2E6F0900541E0602185C622804C
:102DF800169003A7E064017008E5C654F84405F589
:102E0800C653BEFC122B287401652160E4EEA2E0D3
:102E180092AF7F0102236B008E238F248582288541
:102E28008327851882851983E0CEA3E0CF85288281
:102E3800852783EBC9EAC8EDCBECCA75F010C3E867
:102E480033C8E933C9EA33CAEB33CBC3EA9EF52664
:102E5800EB9FF525B35004AB25AA26EC33CCED3314
:102E6800CDD5F0DAAE23AF242274ED1222BF8A0842
:102E78008B098C0A8D0B741312222F780C12208365
:102E88007808790C1216A47510017511C87512000E
:102E980075130050127808790C12202278107908DE
:102EA8001216A450168010780C7908122022781077
:102EB800790C1216A440047901800279007F0C0273
:102EC800236B74ED1222BF8A088B098C0A8D0B7450
:102ED8001312222F780C122083780C79081216A46A
:102EE80040117808790C122022AA08AB09AC0AAD67
:102EF8000B8022751000751100751200751301788A
:102F080010790C12202278107908121FE9AA10AB48
:102F180011AC12AD1380A68A828B837508FF7509E0
:102F2800FF750AFF750B0078081220707F040223D2
:102F38006B74F51222BF8C828D8378081220838AE5
:102F4800828B837808122036EA2404F8EB3400F9DF
:102F58008C828D83A3A3A3A3E0FCA3E0FD888289D0
:102F680083C3E09CF0A3E09DF088828983C3E0944A
:102F780020A3E0944E40268A828B837508FF75094A
:102F8800FF750AFF750BFF780812200F8A828B8362
:102F9800A3A3A3A3E02420F0A3E0344EF0022F1F44
:102FA80074F51222BFE9FE9004F7E0FAA3E0FBEE05
:102FB800C333F8E433F974A228F582748039F583B1
:102FC800E02AF508A3E03BF50978081224667A4060
:102FD8007B427C0F7D00122E2074021221F98A0890
:102FE8008B098C0A8D0B74107808121FB1AA08ABD4
:102FF800097F0402236B74F11222BF8A0C8B0D8C9B
:103008000E8D0F740F12222FE0FAA3E0FB74111239
:10301800222FE0F508A3E0F5097808122466EA24CF
:1030280001F508EB3400F509E4F50AF50B780C799D
:1030380008121EAE750871750902780C7908121EFF
:10304800AEAA0CAB0DAC0EAD0F122E2074021221DD
:10305800F98B09EA450960047A0180027A00EC2AB2
:10306800FCED3400FD741312222FE0F8A3E0F9E818
:10307800FEE9FFECF8EDF97A717B02122158880815
:1030880089098E828F837808122092ECF8EDF97AFC
:10309800717B021221588A088B097405780812215D
:1030A800D08E828F83A3A3A3A3E508F0A3E509F03C
:1030B8007F0802236BC082C083E9906000F0D08350
:1030C800D08222C2AF02000022C0E074F21223AB09
:1030D80074FA1221E3A2AFE433FED2AF9081DE741A
:1030E8000312224974031220F69081EDAC18AD1931
:1030F80074031220F6E589A2E7502EE58CA2E05071
:1031080012538CFEAC18AD197A0379001213897A20
:10311800008011438C0174031222497A037900124A
:1031280013897A01790212152D758900C2C5EEA29C
:10313800E092AF74061221F97F0102240AC0E074FC
:10314800EF1223AB12154B8A088B09A808A909E5C9
:10315800AFA2E15075E5E654036402700C9008D8FC
:103168001231F24401F5E6805CE5E654036401702F
:10317800549008DA1231F24402F5E69008D8C3E018
:1031880098A3E099501B9008DAC0829008D8E0F81C
:10319800A3E0F9758308D082E0C398F8A3E099808A
:1031A8001274FFC398F874FF99F99008D8E028F8CA
:1031B800A3E039F988088909E4F50AF50B9008E8CD
:1031C800780812200F53AFFD8019E5AFA2E5501320
:1031D80090819478081220839008DC780812200FD8
:1031E80053AFDFC2C17F0402240AE8F0A3E9F0E587
:1031F800E654FC22C0E0C0D0E8C0E0E9C0E0E5A8A1
:10320800D2AFC2C7A2E7A2E792AFD0E0F9D0E0F808
:10321800D0D0D0E03202011FFFFFFFFFFFFFFFFF0A
:10322800C082C083E9900A84F00234B774F712228E
:1032380053E99002E1F07C197D037AFF7BFF120AC3
:10324800BF9002E274FFF0A3F0A3E4F0A3F07905C5
:10325800120A479002E1E0F91209697ADD7B0A1245
:103268000C817F0102232574F41222538A088B09EA
:10327800EB548060309002E1E0F91212398A0A8B2F
:103288000BAE0AAF0BEE4F60138E828F83E064B0F3
:103298007003120A5FEEFAEFFB121227AA08E5097B
:1032A8006480FB80047A007B0002348674F2122268
:1032B8005374FC1221E3EAFEEBFFEE4F6038740210
:1032C80012222FEEF0A3EF1236EBECF0A3ED12363C
:1032D800EBAA82AB83120963E9F5087073741212C2
:1032E800222F12429FE50A450B60658E828F83125A
:1032F8003362EE4F700575080280557A067B00121E
:10330800128D8A0C8B0DA80CA90DE849700575085B
:1033180013803D88828983E412336CA3A3EEF0A363
:10332800EF124738E50AF0A3E50BF09002E71233F5
:10333800F49002E76017E0FCA3E08003EAFCEBFDF1
:103348008C828D831233F470F38C828D831241C486
:10335800A90874041221F902493AA3A3A3A3E0FE21
:10336800A3E0FF22F0A3F0888289832274F212225C
:1033780053890AE975F017A4FEAFF09002E6E4F06D
:103388009002E41233F4600A1212939002E4E4F01B
:10339800A3F0EEFAEFFB12128D8A088B09EA4509B1
:1033A800602FEEFCEFFD79001212159002E4E5089B
:1033B800F0A3E509F07B0080081233DEE4F0A3F007
:1033C8000BEBC3950A40F2E50A9002E6F07900801B
:1033D80002791302493AEB75F017A4F8A9F09002A4
:1033E800E4E028FAA3E0398A82F58322123F5AEAF8
:1033F8004B2274F4122253750800750900740C12DC
:10340800222F12470CFEE9FF800CE5082401F5087D
:10341800E5093400F509C3E5089CE5099D503285A6
:10342800080A85090B7403780A1221D0EA250AF8DC
:10343800EB350BF988828983A3A3A3A3A3A3124224
:103448009FEE650A7003EF650B70BFE8FAE9FB8031
:10345800047A007B00802774F41222537900EAA2D0
:10346800E0501B75083E75098178081224667C04B3
:103478007D007A867B0A120A4174021221F97F04C0
:10348800022325C082C0839002E71234BE601C88E4
:10349800828983A3A3E06A7003A3E06B888289838F
:1034A80070E8A3A3A3A3123F5680047A007B00D040
:1034B80083D08202011F124A0DE8492274EE1222BB
:1034C8005374FC1221E3EAFEEBFF85188285198309
:1034D800E4F0A3F0EE24021241A8EE24051236D936
:1034E800EE2404F50EEF123ABEE024FE603924FC07
:1034F800604624FE605224FE605E24FE700302359E
:10350800DE24FE700302365624FE7003023665245C
:10351800FE700302367424FC700302368324FE70A6
:10352800030236920236CF9003007417F0A3E41218
:1035380036F31206E10236CF851882851983AC82EC
:10354800AD83120A6502369F851882851983AC827D
:10355800AD83120A6B02369F850C08850D0974022B
:1035680012222FAC82AD83850882850983123F56CB
:103578001209878A0C8B0DAC0CAD0DEC4D6042E442
:10358800F50CF50D780C122466750C00750D037892
:103598000C122466750C01750D03780C12246674E0
:1035A8000812222F12247D7916123F50120AA7748E
:1035B800081221F9E9F50C700B123F4C1206F9803C
:1035C8000F750C018508828509831236E11241C402
:1035D800850C080236A2740212222FAC82AD8385B4
:1035E8000C82850D83123F561209878A108B11AC05
:1035F80010AD11EC4D6043850C82850D83A3A31299
:10360800247D751000751103781012246675100159
:103618007511037810122466740812222F12247D63
:103628007916123F50120AA774081221F9E9F50910
:10363800700B123F4C1206FF800F750901850C8232
:10364800850D831236E11241C4850908804C85181E
:1036580082851983AC82AD83120A71803A851882FB
:10366800851983AC82AD83120A77802B85188285F1
:103678001983AC82AD83120A7D801C851882851956
:1036880083AC82AD83120A83800D851882851983E5
:10369800AC82AD83120A89E9F508E50860298E82B3
:1036A8008F83A3E06414601F850E82850F83E090EA
:1036B80003001236EB124A099003011241C4E508CF
:1036C800A31236F31206DBEEFAEFFB120A050240EC
:1036D800B0F50CEF3400F50D22124A0D85188285DD
:1036E800198322F085188285198322F07C007D03D6
:1036F800850A82850B83123F5A2274EE1222537474
:10370800FC1221E38A0A8B0B8C0E8D0FEA2405F537
:1037180008EB3400F5097C157D0079007A007B03FD
:10372800121215E5082402F50CE5091236DC851895
:103738008285198385821085831178101224668505
:103748000882850983A3A3A3A3123C06122466E575
:10375800082405F510E5093400F5117810122466DF
:10376800850C82850D83123F60120981740612212F
:10377800F98A108B11AE10AF11E50A2402F50AE59B
:103788000B1241ABEE4F70030238C8801774021257
:10379800222F123F5688828983EAF0A3EBF0900328
:1037A80000E004F0900300E0C3940540030238C829
:1037B800E4F510F51178101224667510E9751102F8
:1037C80078101224667510EA7511027810122466B2
:1037D800740612222F12247D7910EEFCEFFD123FA1
:1037E80050120AA774081221F9E9705E85088285CB
:1037F8000983A3A3A3A3A3A3A3E0F89002E9E06825
:103808007048123C061224667CEA7D02E50824080A
:10381800FAE5093400FB12120F74021221F9E9606B
:10382800298E828F83A3A3A3A3123F56900300E09F
:10383800F510740278101221D074012510F58274E5
:10384800033511F583EAF0A3EBF0740212222F85F9
:1038580082108583117810122466740212222F12A6
:10386800247D850C82850D83124A1E12098D7404ED
:103878001221F98A108B11AE10AF11900300E0F5F8
:1038880010751100740278101221D074002510F8F8
:1038980074033511F988828983A31233F470030203
:1038A800378CE82403F8E93400F9EE4F6003023757
:1038B800958882898374FFF0A3F0900300E004F0F8
:1038C800900300E0600A123F4C1206ED7900800B6D
:1038D8008508828509831241BB790A0240B074EADF
:1038E80012225374FE1221E38C128D13EA2405F57B
:1038F8000CEB124B88123366750800750900EA2430
:1039080002F510EB3400F51185188285198385823C
:103918000A85830B780A122466850C82850D83A399
:10392800A3A3A3123AC8122466E50C2405F50AE5F8
:103938000D1241AB780A122466850C82850D83121C
:103948004A1C12098174061221F98A0A8B0BEA456E
:103958000B7003023A79EA2404F50EEB123ABE1210
:1039680033668A828B83A3A3A3E0F985108285112D
:1039780083123F5612096FE9F5096003023A79E4A8
:10398800F514F51578141224667514E9751502787E
:10399800141224667514EA751502781412246674D4
:1039A8000612222F12247D7913AC0AAD0B851082E2
:1039B800851183123F56120AA774081221F9E9F5F6
:1039C800096003023A799002E9E0F8E5087009E035
:1039D8002402900301F08017900301E0FCE8240220
:1039E800FAE43400FBEA6C7001EB6003023A7D856F
:1039F8000882AA82123BFD9414123BF55073850E7F
:103A080082850F83E0C0E074022A123AB5D0E0F054
:103A18000508850E82850F83A3E0C0E085080A7437
:103A280002250A123AB5D0E0F005089002E9123AE8
:103A3800C81224667CEA7D0285080A7402250AFAFF
:103A480074033400FB1211FD74021221F99002E98B
:103A5800E02508F50874FF6E700374FF6F6012EEBE
:103A680024010EEF3400FFE508C394145003023913
:103A780010E5086013123E41851082851183123FBC
:103A8800561206F379008014E509700375090A8552
:103A98001282851383EEF0A3EFF0A90974021221B4
:103AA800F97F0E02232585080C7402250CF5827413
:103AB800033400F583223400F50F850E82F5832246
:103AC80012474B2274EE12225374FE1221E38C0E1D
:103AD8008D0FEA2405F50CEB1236DC750B0090030C
:103AE80000E4F0F50AEA2402F508EB3400F5098051
:103AF80049900300E0FA9002E9E0F8123BFD9417C0
:103B0800123BF5400D900300E0F87416C39890023C
:103B1800E9F0123C061224667CEA7D0274012AFA56
:103B280074033400FB1211FD74021221F99002E9AA
:103B3800E0F8900300E028F0050AE50C2416F58269
:103B4800E50D123AB9E0F8E50AC3984003023BDEF6
:103B5800900300E0C39416507DE50AC333F8E433BC
:103B6800F9E50C28FEE50D39FF851882851983AC27
:103B780082AD838E828F83123F561209878A108BFB
:103B880011AC10AD11EC4D7005750B018043E4F5D7
:103B980010F51178101224667510E9751102781065
:103BA8001224667510EA75110278101224667406DC
:103BB80012222F12247D7916850882850983123FE7
:103BC80056120AA774081221F9E9F50B7003023A94
:103BD800F91241B780107C007D038508828509832E
:103BE800123F56120705A90B74020240B2E994006D
:103BF800C365D03322EA28F8E43400F9E822E0F576
:103C08001075110078102274EA12225374FC1221E4
:103C1800E38A0C8B0D8C128D13EA2405F50AEB123E
:103C280041AB750800750900E50A2402F510E50B9B
:103C38003400F511740212222F85820E85830F78C5
:103C48000E122466850A82850B83A3A3A3A31246BA
:103C5800F7122466E50A2405F50EE50B3400F50F86
:103C6800780E1224668510828511831241B1123FA5
:103C78005012098174061221F98A0E8B0FAE0EAF0D
:103C88000FE50C2402F50EE50D3400F50F80408891
:103C980082898374FFF00508123AAE74FFF00508B4
:103CA8009002E9E0F50C750D00780C1224667CEAA8
:103CB8007D0285080C7402250CFA74033400FB128B
:103CC80011FD74021221F99002E9E02508F508EEC9
:103CD8004F60718E828F83A3A3A3E0F9850E82853E
:103CE8000F83123F5612096FE9F509EE24041236C4
:103CF800D9E97044E4F514F515781412246675149E
:103D0800E975150278141224667514EA7515027897
:103D180014122466740812222F12247D7911EEFCE5
:103D2800EFFD850E82850F83123F56120AA774088D
:103D38001221F9E9F5096027850C82850D83123E69
:103D4800371241C4E5087003023E1D123E41850E3C
:103D580082850F83123F5612070B7900023E328587
:103D68000882AA82EA9002E97009E024049003011B
:103D7800F08022E0F8900301E0F514E82404FCE464
:103D88003400FDEC65147001ED70C0123BFD941217
:103D9800123BF550B6850C82850D83E0C0E07402B5
:103DA8002A123AB5D0E0F00508850C82850D83A368
:103DB800E0C0E0123AAED0E0123E5385820C858313
:103DC8000D780C122466740412222F12247D85109B
:103DD80082851183124A1E12098D74041221F98AF0
:103DE8000C8B0DAE0CAF0D85080C7402250CF87405
:103DF800033400F9EE4F7003023C97851882851949
:103E080083E088828983123E53A3E0C0E0123AAE71
:103E1800D0E0023CA5E509700375090A850A828588
:103E28000B83123E371241C4A9097404023AA61240
:103E38004A0D85128285138322900301E0F5F0E58F
:103E48000884900300F07C007D0322F005088518A3
:103E5800828519832274EC12225374FE1221E38A9C
:103E6800088B098C0E8D0FEA2405FEEB3400FF85C4
:103E78001882851983AC82AD838E828F83123F5658
:103E88001209878A0A8B0BEE24181236D9EA450BD9
:103E98007003023F27124099503285188285198392
:103EA800123F56120A9B8A108B11EA4511606B79F2
:103EB80012AC0AAD0B850882850983123F5685101E
:103EC80082851183122251E9F50A7058E4F50AF542
:103ED8000B780A1224668E828F83A3A3E0F50A78F2
:103EE8000A122466EE24031241A8780A1224668E68
:103EF800828F83123F60120AAD74061221F9E9F528
:103F08000A7021850C82850D83E0701F85088285E3
:103F18000983123F561207118011750A0E80097520
:103F28000A018004E50A60031241B7850C82850DF9
:103F380083E0600479008002A90A74021221F97FE3
:103F48000C0223257C007D03850A82850B83123FA2
:103F58005A22E0FAA3E0FB22E0FCA3E0FD850882F8
:103F6800850983123F5A2274EE12225374FE1221DD
:103F7800E38A088B098C0C8D0DEA2405FEEB3400CE
:103F8800FF750E00851882851983AC82AD838E82F9
:103F98008F83123F561209878A0A8B0BEA450B70EA
:103FA800030240851240995035851882851983127D
:103FB8003F56120A9B8A0E8B0FEA450F605E7912F4
:103FC800AC0AAD0B850882850983123F56850E829F
:103FD800850F83122251E9F50E6003024088850897
:103FE8008285098312429FAA0AFB120A8F8A108BC4
:103FF80011A810A911E849701E7AFF7BFF120A8FD9
:104008008A108B11A810A911E849606C88828983ED
:10401800E50AF0A3E50BF0750A008007750E0E801F
:104028005F050A9002E6E0FAE50AC39A504AE50AF3
:1040380075F017A4FAABF088828983A3A3E02AFA63
:10404800A3E03BFB8A828B831241B1EC4D70D275A1
:104058000A17750B00780A122466EEFCEFFD1211A0
:10406800FD74021221F9EEFCEFFD850882850983B3
:10407800123F561207178014750E098003750E013A
:10408800124A05850C82850D831241C4A90E023B94
:10409800F0E5082402F508E5093400F5098A828B61
:1040A80083A3A3A3E0A2E52274041221F97F0A02E4
:1040B800232574EC1222538C108D11EA2405F50C7B
:1040C800EB1236DC750F00EA2402F50AEB1241AB5D
:1040D800850A82F583123F56120A8F8A088B09EAED
:1040E8004509700302419D750E008071850C82851B
:1040F8000D83E06401704F8E828F83A3A312247D09
:104108008E828F83A3A3A3A3E0F512751300781200
:10411800122466EE2405F512EF3400F51378121216
:104128002466123F50120AAD74061221F9E9F50F00
:104138006014850C82850D83E4F0124A058510828F
:104148008511831241C47C177D007900EEFAEFFBDC
:104158001212158E828F83E4F0A3F0050E9002E60A
:10416800E0F8E50EC398501EE50E75F017A4F8A9FF
:10417800F0850882850983A3A3124B921241B1EC02
:104188004D60030240F485088285098374FFF0A31B
:10419800F0E50F7006123F5012071DA90F023F47A6
:1041A800F50AEF3400F50B22A3E0FCA3E0FD228E14
:1041B800828F83124A0D850E82850F83E8F0A3E96A
:1041C800F022C082C0839002E2E06A7003A3E06B31
:1041D80070067AE27B0280047A007B000234B7C062
:1041E80082C08378008C828D83E06A7003A3E06BC1
:1041F8007010E875F003A4F8A9F0EC28FAED39FB83
:104208008015088C828D83A3A3A3E06A7003A3E0C2
:104218006B60DF7A007B000234B774F61222531207
:104228000A598A828B83E582458370067A007B006F
:104238008007A3A3A3A3123F560248B674F2122222
:1042480053E9FE740E12222F12429F741012222F6D
:104258001247178C828D83E064027036A3124A13CA
:10426800F50CA3E0F9A80C7402687003742969704E
:1042780021750C02750D00780C122466780812243A
:1042880066780A122466EEF9120AD174061221F928
:104298008002790102493AE0F50AA3E0F50B22749D
:1042A800E812225374FB1221E3E9851882851983E9
:1042B800F08A168B17ECFEEDFF751000741D1222A4
:1042C8002F124A09741D12222F1241C48E828F8325
:1042D800A3A3A3E0A2E4502D741D12222F123F566F
:1042E800120A9B8A828B83E582458370030246E823
:1042F800790AEEFCEFFDAA16AB17122251E9F51068
:1043080060030246EB741F12222F12471774211202
:10431800222F12429F742312222FE0F50EA3E0F5FC
:104328000F8E828F83E064026003024696A3124ACE
:1043380009850882850983A3858212858313EE2463
:10434800061236D988828983E0FAA3E0F9EA2400C4
:10435800F514E439F51578141224F0010000280149
:10436800288B430700022850440328BD43002987AF
:10437800450129B2450229534503298745042931B6
:10438800469646E50E450F6003024691850C8285E8
:104398000D8312470CFAE9FB8A828B83E0850A8237
:1043A800850B831247421224668A828B83A3E0FC22
:1043B800A3E002461BE50E450F6003024691850AFD
:1043C80082850B837401F012471F85088285098353
:1043D800F07C007D008E828F83A3A3A3A3E0240139
:1043E800FAA3E03400FB120987EA4B60418A828B0A
:1043F80083E02402F8850A82850B83E028F0EA240A
:1044080004F8EB3400F988828983E08512828513E9
:10441800831247541247421224668A828B831241C0
:10442800B0E5082403FAE5093400FB024620850AB2
:1044380082850B83E02404F07C047D007900AA12B5
:10444800AB131212150246EBE50E450F6003024648
:104458009112471FFEA3E0FF850A82850B8374042F
:10446800F0EE850882850983F0EF85128285138333
:10447800F0740312222FAC82AD83EEFAEFFB12091F
:10448800878A0C8B0DEA450D70030245348A828BAE
:1044980083A3A3123362740112222F85820E8583AF
:1044A8000F780E122466740512222F12247D7CFFC9
:1044B8007DFF12098D74041221F98B0FEA450F70E4
:1044C80033850C82850D831246F7122466850C828B
:1044D800850D83A312247D7C027D007A067B8212DF
:1044E80007B974041221F9E9700A740112222F74B1
:1044F800FFF0A3F08E828F83E064027039750C029E
:10450800750D00780C1224668E828F831241B0E5F7
:10451800082404FAE5093400FB1211FD7402122183
:10452800F9850A82850B83E024028009740112222E
:104538002FEEF0A3EFF0740112222F124708F07447
:104548000112222FA312470002468BE50E450F6089
:1045580003024691850C82850D831241B1AA16ABE0
:1045680017120AC5850A82850B837402F0EA85084A
:1045780082850983F0851282851383EB02468EE5D6
:104588000E450F600302469112471FF8A3E0F98514
:104598000A82850B837402F0E8850882850983F016
:1045A800E985128285138302468E850C82850D83E8
:1045B800123F561211F7EAFC8C82A882C3950EE4CA
:1045C800950F405FE8650E7002E50F70047C00806F
:1045D80022851882851983E0FAE50E2AFAE50F3458
:1045E80000FBC3EA98EB94005003E08005E50ECC8D
:1045F800C39CFCEC850A82850B83F08C0A750B0042
:10460800780A122466850C82850D83E0250EFCA3AA
:10461800E0350FFDAA08AB091211FD74021221F949
:104628000246EB7510070246EBE50E450F705A85FA
:104638000C82850D83124A09850A82850B837407CB
:1046480012336E12470012336EA3E085128285136F
:1046580083F0E82402FAE93400FB8A828B8312474C
:104668000012472F124708A3124738124711F0E8E3
:104678002405F8E93400F988828983124711A312C6
:104688004754A3A3A3A3F0805A75100B8055741D3B
:1046980012222F123F56120A598A828B83E58245CD
:1046A80083603D124A09880C890DE8450D60317810
:1046B8000E122466780A1224667808122466740694
:1046C80012222FE0F9EEFCEFFDAA16AB17850C823B
:1046D800850D8312225174061221F9E9F510800321
:1046E80075100EA91074051221F97F10022325E018
:1046F800F50E750F00780E22E08508828509832261
:1047080012475E22124A0DE82212475EA3A322E056
:10471800F508A3E0F50922850C82850D83E0F8A34E
:10472800E0F5838882E022A3A3F08A828B83A32208
:10473800F088828983A3A3A3A322F08A828B8312A1
:10474800474B22E0F50A750B00780A22F088828927
:1047580083A312475E22E0850882850983A3A322EA
:1047680074EE12225374FE1221E38A0A8B0BECFAC0
:10477800EDFB741412222FE0F510A3E0F511741666
:1047880012222FE0FE741812222FE0F50EA3E0F596
:104798000F851882851983AC82AD831209878A0C2C
:1047A8008B0DEA450D6049851882851983123F569D
:1047B800120A598A828B83E5824583602FA3A3124C
:1047C8004717E50845096024780E12246678101208
:1047D8002466EEF9AC0CAD0DAA0AAB0B85088285F0
:1047E800098312225174041221F98006790E80027D
:1047F8007901023BF074F612225374FE1221E3741D
:104808000C12222F12470C851882851983F0740127
:1048180012222FE9F0E4F508F509780812246675E4
:1048280008027808122466740412222F85820885EB
:1048380083097808122466120AAD74061221F974E5
:10484800021221F9806874F7122253EAFEEBFF89FD
:10485800087C197D03120AC5EA5402600BA908EE08
:10486800FAEFFB12097B8002790102326A74F612B0
:10487800225374FF6A700374FF6B70168C828D83E9
:104888001248BBE4F08C828D83A3A3A31248BBA378
:104898008018120A958A088B09A808A909E84960AE
:1048A8000D8882898374FF12336CA3A3E4F07F021E
:1048B80002232574FFF0A3F08C828D83A3A32274B6
:1048C800F6122253120A958A828B83E58245836009
:1048D80006A3A3E0FA80027A007B0080D174F2126A
:1048E80022538A088B09ECFEEDFF740E12222FE08A
:1048F800F50A120A958A0C8B0DA80CA90DE84970C7
:1049080026EEFCEFFD7AFF7BFF120A958A0C8B0DD1
:10491800A80CA90DE849700479118016888289834A
:10492800E508F0A3E509F088828983A3A3E50AF0E6
:1049380079007F0602232574EE122253EAFEEBFF6C
:104948008C088D09890C741412222F124A097416C6
:1049580012222F123F56750D00E84960030249FDE7
:104968007402650C60030249F8741212222F124A6D
:1049780013FCA3E0F9EC2400F50EE439F50FEAF492
:10498800F8EBF4F9EC58F8E50F59F9E849705CE5EB
:10499800082406F8ED3400F9880A890B8882F58323
:1049A800124A1E120AC58A108B11E50E6510700492
:1049B800E50F65116042780E122466850A82850B20
:1049C80083124A1E120ACB74021221F9E9F50D70FE
:1049D80027780E122466850882850983A3A3124AC4
:1049E8001C120AE374021221F9800D750D808008EB
:1049F800750D0D8003750D0BA90D0240B58E828FC4
:104A080083124A0D22E0F8A3E0F922124A0D8882A7
:104A18008983E022A3A3E0FCA3E0FDEEFAEFFB22EA
:104A280074E812225374E71221E3851882851983EA
:104A3800EAF0A3EBF08C168D17890E75080075093E
:104A480000743112222FE0F512A3E0F5137433122B
:104A5800222FE0F514A3E0F515743512222FE0F5A6
:104A68000FE50975F003A4F8A9F085188285198364
:104A7800124B92E0F47003A3E0F47003024B75EE5E
:104A88002402F50CEF124B88E07003024B75851673
:104A98000A85170B780A122466AC14AD15AA12AB56
:104AA80013120A4D74021221F98A0A8B0BEA450B7C
:104AB8007003024B75E4F510F51178101224667432
:104AC8000612222F858210858311781012246674AD
:104AD8000912222F85821085831178101224668589
:104AE8001282851383A3A3A3A312247D7914AC0A8D
:104AF800AD0B8E828F83123F56120AA774081221BB
:104B0800F9E97069850A82850B83A3A3A3A3124AD6
:104B180009740212222F1241C4850C82850D83E08C
:104B2800A2E05018A90E740212222FAC82AD838E17
:104B3800828F83123F5612099FE94208850C8285AD
:104B48000D83E0A2E15026E50FF50A780A12246ADF
:104B5800A90E740312222FAC82AD838E828F83122A
:104B68003F5612099974011221F9E942080509E52D
:104B780009C394025003024A69A90874190246EF4E
:104B88003400F50D850C82F58322E028FEA3E03978
:104B9800FF8E828F832274F2122253EAFEEBFF8982
:104BA8000B7401650B600E7402650B706A79011253
:104BB8000C9FE97062EEFAEFFB120A8F8A088B09E4
:104BC800EA45096047750A00800B7C177D0079006B
:104BD800121215050A9002E6E0F8E50AC39850217A
:104BE800E50A75F017A4F8A9F0850882850983A35A
:104BF800A3E028FAA3E039FB8A828B831234BE70C3
:104C0800C985088285098374FFF0A3F07C197D03A8
:104C1800EEFAEFFB120ABF02493A74F21222538AE3
:104C2800088B09ECFEEDFF740E12222F12429F90A2
:104C38000A84E0F4603D7A097B00121221EA4B6095
:104C4800328A828B8374B1F0A3E4124731A31247EE
:104C58002FA3E508F0A3E509124C7EEEF0A3EF12AE
:104C68004C7EA3A3E50AF0A3E50BF0900A84E0F9D3
:104C780012122D02493AF08A828B83A3A3A3A3A31D
:104C880022C082C0839061907404F0A37448F0A39A
:104C98007402F09061807440F09061BC7403F090ED
:104CA80061877419F0906265741BF0906249E0C3E3
:104CB800941390619C400A7409F0906066740180B6
:104CC80007740DF0906066E4F090619A7433F0A375
:104CD8007455F09061A0743AF090053FE06401705B
:104CE80009C2919003A6746780059003A67461F0C9
:104CF800903226E493906186F0903220E493F46039
:104D080027E493540FF8906185E0686012E5C65473
:104D1800804449F5C6E59E547F644970F8E8F0532D
:104D2800C680E59E547F70FA7905120FE1024EB7EE
:104D3800C082C083E5A8F853A87E906181E4F0A3FF
:104D4800F0A3F0C2BA539AFEC289759B00C2C2751D
:104D5800E90075910075BF0075A91175B9059061D5
:104D680081F0A374C0F0A3E4F0D2BA439A0174802E
:104D78005842A8024EB7C082C08374F81221E3904B
:104D880003A4E0F8A3E0F9E8497003024EAC9003ED
:104D9800A4E0544060237908851882851983AA8283
:104DA800AB83120E55851882851983AA82AB8312AC
:104DB8000B4F9003A4E054BFF0E054806010790CCE
:104DC8007A657B05120E559003A4E0547FF0E0A2AB
:104DD800E0503190619A7433F0A37455F09061A05B
:104DE800743AF090053FE064017009C2919003A6FF
:104DF800746780059003A67461F0120B559003A4A4
:104E0800E054FEF0E05402603190619A743FF0A3E0
:104E1800745AF09061A0747FF090053FE0640170CF
:104E280009D2919003A6747180059003A6746AF064
:104E3800120B559003A4E054FDF0E0540460139065
:104E48003224E493906186F0120B5B9003A4E05443
:104E5800FBF0E054086013903225E493906186F0EB
:104E6800120B5B9003A4E054F7F0E0541060139029
:104E78003226E493906186F0120B5B9003A4E05411
:104E8800EFF0E05420600A120B5B9003A4E054DFBB
:104E9800F0A3E05401600D120D7D120B619003A583
:104EA800E054FEF074081221F9024EB7F0A3F0D0D6
:104EB80083D08202011F74EC12225374F41221E38E
:104EC800851882851983AC82AD837583817582B814
:104ED80074041220F690322493F4600302504A902E
:104EE8007808E0C39402500302502A740412222F57
:104EF800AC82AD8375838175820274081220F685B1
:104F08001882851983858212858313740412222FCF
:104F1800AC82AD83750EFF750FFF7FFF7E00750CA9
:104F280048750D78801574086E7003024FBE7409B9
:104F38006E7003024FBE740A6E607B850C82850D0D
:104F48008378081220838C828D83A909E50AC9F821
:104F5800881074187808121FB1E5104508F8C3E0E6
:104F680098A3E099850C82850D83780812208340E8
:104F7800188C828D8374187808121FB1E5104508C3
:104F8800F8E0C398F8A3E0801C74187808121FB1E1
:104F9800E5104508FAE9FB8C828D83E0F8A3E0F977
:104FA800EAC398F8EB99F9C3E8950EE9950F50060E
:104FB800880E890FEEFF0EE50C2404F50CE50D3480
:104FC80000F50DEEC394135003024F2E74FF650EC7
:104FD800700474FF650F60238F087402780812212B
:104FE800D074482508F58274783509F58378081255
:104FF8002083851282851383E508F0EC2402FCEDFA
:105008003400FD851282851383A38582128583135C
:10501800740C12222FE5826C7003E5836D60030225
:105028004F1C75080175090078081224667402126D
:10503800222FAC82AD837A897B0C1214D3740212AE
:1050480021F9740C1221F97F0C022325C082C08338
:105058009061AE7468F0A3746AF090624574FBF0D6
:10506800A304F053F4FD43FE0290053F7401F09051
:1050780061A0E0643A90619A70237433F0A3745588
:10508800F09061A0743AF0740164017009C29190C3
:1050980003A6746780289003A674618021743FF08A
:1050A800A3745AF09061A0747FF0740164017009D0
:1050B800D2919003A6747180059003A6746A024E7B
:1050C800B67F08022325C082C0839004F1E0640102
:1050D800700A9004F6E06004790C80027900024EB0
:1050E800B7C082C08375E1F19004F4E0605B14609E
:1050F8000914605F14605714705E120D8F9004EAF3
:10510800E0F97AEB7B04120F637AD67BBE7C897D4B
:105118008E120F997A557B557C557D00120F6F9032
:1051280004F5E0F9120F7B7901120FD59004E8E03D
:10513800F8A3E0C82416F582E83400F58374A7F0D4
:10514800A3740DF07900024EB7120D9580AF120DC1
:105158009B80AA120DA180A5791280EA74F0122210
:105168005375D90D9004D5E0A2E0E4331313F890F9
:1051780004EAE0C4333354C0484401F5D978E879E7
:105188000488828983A3A3A3E0F5D988828983A3AD
:10519800A882A983E864EE7003E9640470E378D513
:1051A800790488828983A3E0F5D988828983A3A8B2
:1051B80082A983E864DB7003E9640470E575E1950E
:1051C8009004D5E0F97AD67B04120F69900AA67488
:1051D80041F0A3740DF0A3749DF0A3740EF0A374B2
:1051E8009DF0A3740EF0A3749DF0A3740EF0A37445
:1051F80047F0A3740DF0A3749DF0A3740EF0A3748C
:105208005FF0A3740DF0900AB4749DF0A3740EF0CF
:10521800A3749DF0A3740EF0A3749DF0A3740EF014
:10522800A3749DF0A3740EF0A3749DF0A3740EF004
:10523800A3749DF0A3740EF09004F4E0640190044C
:10524800E87012E0F8A3E0F5838882A3A37508004C
:105258007509088010E0F8A3E0F5838882A3A37598
:105268000804750900750A00750B007808121FFC00
:10527800750CFF750DFF750EFF750F007808790C1A
:1052880012204A9004E8E0F8A3E0C8240EF582E86A
:105298003400F58378081220929004E8E0F8A3E03F
:1052A800C82414F582E83400F5837413F09003A23F
:1052B8007402F00250C974F71222539004FAE024E1
:1052C80007F5D99004EAE0C4333354C0F5D978E837
:1052D800790488828983A3A3A3E0F5D98882898386
:1052E800A3A882A983E864EE7003E9640470E390DC
:1052F80004FAE0601F78E87904FAE82413F582E9F3
:105308003400F583E0F5D988828983A3A882A9832C
:105318001AEA70E690051AE02407F5D99004EAE045
:10532800C4333354C04404F5D978E87904888289B1
:1053380083A3A3A3E0F5D988828983A3A882A9833C
:10534800E864EE7003E9640470E390051AE0601FF6
:1053580078E87904FAE82433F582E93400F583E043
:10536800F5D988828983A3A882A9831AEA70E67589
:10537800E195900AA6744DF0A3740DF0A3749DF006
:10538800A3740EF0A3749DF0A3740EF0A3749DF0A3
:10539800A3740EF0A37447F0A3740DF0A3749DF0EA
:1053A800A3740EF0A3745FF0A3740DF0900AB474A4
:1053B8009DF0A3740EF0A3749DF0A3740EF0A37473
:1053C8009DF0A3740EF0A3749DF0A3740EF0A37463
:1053D8009DF0A3740EF0A3749DF0A3740EF09004D6
:1053E800E8E0F8A3E0C8240EF582E83400F58374F9
:1053F800FFF0A3F0A3F0A3F09004E8E0F8A3E0C85E
:105408002414F582E83400F5837412F09003A27432
:1054180001F0FF02232574F71222539004FAE024C6
:1054280007F5D99004EAE0C4333354C04402F5D9EF
:1054380078E8790488828983A3A3A3E0F5D98882D0
:105448008983A3A882A983E864EE7003E9640470E1
:10545800E39004FAE0601F78E87904FAE82413F589
:1054680082E93400F583E0F5D988828983A3A8828C
:10547800A9831AEA70E675E195900AA67459F0A313
:10548800740DF0A37459F0A3740DF0A37459F0A32C
:10549800740DF0A37459F0A3740DF0A37459F0A31C
:1054A800740DF0A37459F0A3740DF0A3745FF0A306
:1054B800740DF0900AB4749DF0A3740EF0A3749D5B
:1054C800F0A3740EF0A3749DF0A3740EF0A3749D62
:1054D800F0A3740EF0A3749DF0A3740EF0A3749D52
:1054E800F0A3740EF09004E8E0F8A3E0C8240EF5E9
:1054F80082E83400F58374FFF0A3F0A3F0A3F090E2
:1055080004E8E0F8A3E0C82414F582E83400F58341
:105518007414F09003A27404F00257E574F7122291
:10552800539004FAE02407F5D99004EAE0C4333331
:1055380054C04406F5D978E8790488828983A3A3FE
:10554800A3E0F5D988828983A3A882A983E864EEB9
:105558007003E9640470E39004FAE0601F78E87966
:1055680004FAE82413F582E93400F583E0F5D988D4
:10557800828983A3A882A9831AEA70E690051AE0B3
:105588002407F5D99004EAE0C4333354C04404F541
:10559800D978E8790488828983A3A3A3E0F5D98818
:1055A800828983A3A882A983E864EE7003E964046E
:1055B80070E390051AE0601F78E87904FAE824336C
:1055C800F582E93400F583E0F5D988828983A3A8B8
:1055D80082A9831AEA70E675E195900AA67453F0D9
:1055E800A3740DF0A3749DF0A3740EF0A3749DF042
:1055F800A3740EF0A3749DF0A3740EF0A3749DF031
:10560800A3740EF0A3749DF0A3740EF0A3745FF05E
:10561800A3740DF0900AB4749DF0A3740EF0A374F3
:105628009DF0A3740EF0A3749DF0A3740EF0A37400
:105638009DF0A3740EF0A3749DF0A3740EF0A374F0
:105648009DF0A3740EF09004E8E0F8A3E0C8240EDF
:10565800F582E83400F58374FFF0A3F0A3F0A3F01B
:105668009004E8E0F8A3E0C82414F582E83400F5D3
:10567800837415F09003A27403F00257E5C082C04A
:10568800839004E8E0F8A3E0C82406F582E8340033
:10569800F583E4024EB474F71222539003D0E0F875
:1056A80075F003A4C8AAF02AF974D228F87403394B
:1056B800F9E82405FAE93400FB8A828B83E0FCA32D
:1056C800E0FD88828983A3A3A3A3A3A3A3A3A3EC38
:1056D800F0A3EDF088828983A3A3A3A3A3A3A3E0E7
:1056E80024FFF8A3E034FFF98A828B83E8F0A3E96A
:1056F800F00257E574F7122253EAFEEBFF9061D0EF
:10570800E060030257D975D90E75D90375D904EE2F
:10571800248BF582EF3400F583E5822408F8E583CD
:105728003400F9E0F5D9A3E865827003E965837070
:10573800F2EE2483F582EF3400F583E5822404F841
:10574800E5833400F9E0F5D9A3E865827003E965DB
:105758008370F275E1957908EE248BFAEF3400FB3B
:10576800120E497904EE2483FAEF3400FB120E4935
:105778007C00EEF8EFF9ECFAC3E49AFA95E0FBEE58
:105788002AFAEF3BFBEA248AF582EB3400F583E042
:10579800C0E0E824AAF582E93400F583D0E0F00CF3
:1057A80088828983A3A882A983ECC3940840C7EEA2
:1057B800246FF582EF3400F583E0F8A3E0F9EE24D6
:1057C80071F582EF3400F583E8F0A3E9F079018000
:1057D8000279008008F0EEA2E092AF79007F010222
:1057E8002325C082C08375D90275D90375D905757B
:1057F800E195EA246FF582EB3400F583E0F8A3E045
:10580800F9EA2471F582EB3400F583E8F0A3E9F0B6
:105818007901024EB774F6122253EAFEEBFF9005A7
:10582800457406F075084575090578081224667CE4
:10583800017903120E9174021221F975D90675D9EE
:1058480003758245758305E0F5D9A3E582644A703E
:1058580004E583640570F075E1959003A2E064089F
:10586800701EEE246FF582EF3400F583E0F8A3E0B4
:10587800F9EE2471F582EF3400F583E8F0A3E9F03E
:105888007901025AEB74F6122253EAFEEBFF90619B
:10589800D0E070667801900545740BF09003A2E0A3
:1058A8006407701975084575090578081224667C1F
:1058B800017903120E9174021221F97805740128F6
:1058C800F5D975D903758245758305E8FAE0F5D9E8
:1058D800A31AEA70F875E195EE246FF582EF3400AB
:1058E800F583E0F8A3E0F9EE2471F582EF3400F5D2
:1058F80083E8F0A3E9F0790180027900025AEB7499
:10590800F7122253EAFEEBFF75D90375D90375D94F
:105918000DEE24DDF582EF3400F583E0F5D975E16D
:10592800957904120F9FEE246FF582EF3400F5830A
:10593800E0F8A3E0F9EE2471F582EF3400F583E88E
:10594800F0A3E9F079010257E574F6122253EAFE52
:10595800EBFF9061D0E0F87480C398FAEE2482F5EA
:1059680082EF3400F583E06004780480027800E870
:10597800240BF8EAC3985003025A167D099005458E
:10598800EDF0EE24E2F8EF3400F97A467B057C0866
:1059980088828983E08A828B83F088828983A3A89E
:1059A80082A9838A828B83A3AA82AB831CEC70E0D2
:1059B800EE2482F582EF3400F583E0601D7508451A
:1059C80075090578081224667C097903EEFAEFFB5D
:1059D800120E9174021221F97D0D74012DF5D975FD
:1059E800D9037582457583058D08E0F5D9A3150897
:1059F800E50870F675E1957904120F9FEE241DF500
:105A080082EF3400F583E4F0A3F079018002790095
:105A1800025AEB74F6122253EAFEEBFF9061D0E0D3
:105A2800F87480C398FAEE2482F582EF3400F58387
:105A3800E06004780480027800E82408F8EAC39853
:105A48005003025AE97806900545740CF09003BF9C
:105A5800E0900546F09003C0E0900547F09003C140
:105A6800E0900548F09003C2E0900549F09003C328
:105A7800E090054AF0EE2482F582EF3400F583E0E9
:105A8800601B75084575090578081224667C067937
:105A980003EEFA120E9174021221F9780A740128A1
:105AA800F5D975D9037582457583058808E0F5D958
:105AB800A31508E50870F675E1957904120F9FEEB5
:105AC800246FF582EF3400F583E0F8A3E0F9EE24C3
:105AD80071F582EF3400F583E8F0A3E9F0790180ED
:105AE8000279007F0202232574F6122253EAFEEBA4
:105AF800FF9061D0E0F87480C398FAEE2482F582B2
:105B0800EF3400F583E06004780480027800E8242C
:105B180004F8EAC3985003025BCA7802900545E886
:105B2800F0EE24F4F582EF3400F583E0900546F0BA
